{
  "_format": "hh-sol-artifact-1",
  "contractName": "DocumentStore",
  "sourceName": "contracts/DocumentStore.sol",
  "abi": [
    {
      "inputs": [
        {
          "internalType": "address",
          "name": "tenderManagerAddress",
          "type": "address"
        }
      ],
      "stateMutability": "nonpayable",
      "type": "constructor"
    },
    {
      "anonymous": false,
      "inputs": [
        {
          "indexed": true,
          "internalType": "bytes32",
          "name": "tenderId",
          "type": "bytes32"
        },
        {
          "indexed": true,
          "internalType": "address",
          "name": "contestant",
          "type": "address"
        },
        {
          "indexed": false,
          "internalType": "string",
          "name": "documentCid",
          "type": "string"
        },
        {
          "indexed": false,
          "internalType": "string",
          "name": "documentName",
          "type": "string"
        },
        {
          "indexed": false,
          "internalType": "uint256",
          "name": "submissionDate",
          "type": "uint256"
        }
      ],
      "name": "DocumentUploaded",
      "type": "event"
    },
    {
      "inputs": [
        {
          "internalType": "bytes32",
          "name": "tenderId",
          "type": "bytes32"
        },
        {
          "internalType": "address",
          "name": "user",
          "type": "address"
        },
        {
          "internalType": "uint256",
          "name": "index",
          "type": "uint256"
        }
      ],
      "name": "getDocumentOfUserAsOwner",
      "outputs": [
        {
          "internalType": "string",
          "name": "",
          "type": "string"
        },
        {
          "internalType": "string",
          "name": "",
          "type": "string"
        },
        {
          "internalType": "uint256",
          "name": "",
          "type": "uint256"
        }
      ],
      "stateMutability": "view",
      "type": "function"
    },
    {
      "inputs": [
        {
          "internalType": "bytes32",
          "name": "tenderId",
          "type": "bytes32"
        },
        {
          "internalType": "address",
          "name": "user",
          "type": "address"
        }
      ],
      "name": "getDocumentsOfTenderAsOwner",
      "outputs": [
        {
          "components": [
            {
              "internalType": "string",
              "name": "documentCid",
              "type": "string"
            },
            {
              "internalType": "string",
              "name": "documentName",
              "type": "string"
            },
            {
              "internalType": "string",
              "name": "documentType",
              "type": "string"
            },
            {
              "internalType": "uint256",
              "name": "submissionDate",
              "type": "uint256"
            }
          ],
          "internalType": "struct DocumentStore.Document[]",
          "name": "",
          "type": "tuple[]"
        }
      ],
      "stateMutability": "view",
      "type": "function"
    },
    {
      "inputs": [
        {
          "internalType": "bytes32",
          "name": "tenderId",
          "type": "bytes32"
        },
        {
          "internalType": "uint256",
          "name": "index",
          "type": "uint256"
        }
      ],
      "name": "getMyDocument",
      "outputs": [
        {
          "internalType": "string",
          "name": "",
          "type": "string"
        },
        {
          "internalType": "string",
          "name": "",
          "type": "string"
        },
        {
          "internalType": "uint256",
          "name": "",
          "type": "uint256"
        }
      ],
      "stateMutability": "view",
      "type": "function"
    },
    {
      "inputs": [
        {
          "internalType": "bytes32",
          "name": "tenderId",
          "type": "bytes32"
        }
      ],
      "name": "getMyDocuments",
      "outputs": [
        {
          "components": [
            {
              "internalType": "string",
              "name": "documentCid",
              "type": "string"
            },
            {
              "internalType": "string",
              "name": "documentName",
              "type": "string"
            },
            {
              "internalType": "string",
              "name": "documentType",
              "type": "string"
            },
            {
              "internalType": "uint256",
              "name": "submissionDate",
              "type": "uint256"
            }
          ],
          "internalType": "struct DocumentStore.Document[]",
          "name": "",
          "type": "tuple[]"
        }
      ],
      "stateMutability": "view",
      "type": "function"
    },
    {
      "inputs": [
        {
          "internalType": "bytes32",
          "name": "",
          "type": "bytes32"
        },
        {
          "internalType": "address",
          "name": "",
          "type": "address"
        },
        {
          "internalType": "uint256",
          "name": "",
          "type": "uint256"
        }
      ],
      "name": "tenderDocuments",
      "outputs": [
        {
          "internalType": "string",
          "name": "documentCid",
          "type": "string"
        },
        {
          "internalType": "string",
          "name": "documentName",
          "type": "string"
        },
        {
          "internalType": "string",
          "name": "documentType",
          "type": "string"
        },
        {
          "internalType": "uint256",
          "name": "submissionDate",
          "type": "uint256"
        }
      ],
      "stateMutability": "view",
      "type": "function"
    },
    {
      "inputs": [],
      "name": "tenderManager",
      "outputs": [
        {
          "internalType": "contract ITenderManager",
          "name": "",
          "type": "address"
        }
      ],
      "stateMutability": "view",
      "type": "function"
    },
    {
      "inputs": [
        {
          "internalType": "bytes32",
          "name": "tenderId",
          "type": "bytes32"
        },
        {
          "internalType": "address",
          "name": "contestant",
          "type": "address"
        },
        {
          "internalType": "string",
          "name": "documentCid",
          "type": "string"
        },
        {
          "internalType": "string",
          "name": "documentName",
          "type": "string"
        },
        {
          "internalType": "string",
          "name": "documentType",
          "type": "string"
        }
      ],
      "name": "uploadDocument",
      "outputs": [],
      "stateMutability": "nonpayable",
      "type": "function"
    }
  ],
  "bytecode": "0x608060405234801561001057600080fd5b50604051611d33380380611d33833981810160405281019061003291906100dc565b80600160006101000a81548173ffffffffffffffffffffffffffffffffffffffff021916908373ffffffffffffffffffffffffffffffffffffffff16021790555050610109565b600080fd5b600073ffffffffffffffffffffffffffffffffffffffff82169050919050565b60006100a98261007e565b9050919050565b6100b98161009e565b81146100c457600080fd5b50565b6000815190506100d6816100b0565b92915050565b6000602082840312156100f2576100f1610079565b5b6000610100848285016100c7565b91505092915050565b611c1b806101186000396000f3fe608060405234801561001057600080fd5b506004361061007d5760003560e01c80638ca670a61161005b5780638ca670a614610114578063a06a72f514610146578063cd6351c714610164578063f32fbb06146101805761007d565b806323e4f9661461008257806345c6ffae146100b257806354ea1439146100e4575b600080fd5b61009c6004803603810190610097919061110c565b6101b3565b6040516100a99190611315565b60405180910390f35b6100cc60048036038101906100c79190611363565b610421565b6040516100db939291906113fc565b60405180910390f35b6100fe60048036038101906100f9919061149f565b610680565b60405161010b9190611315565b60405180910390f35b61012e600480360381019061012991906114df565b6109f8565b60405161013d939291906113fc565b60405180910390f35b61014e610d63565b60405161015b9190611591565b60405180910390f35b61017e600480360381019061017991906116e1565b610d89565b005b61019a600480360381019061019591906114df565b610ed0565b6040516101aa94939291906117b0565b60405180910390f35b606060008083815260200190815260200160002060003373ffffffffffffffffffffffffffffffffffffffff1673ffffffffffffffffffffffffffffffffffffffff168152602001908152602001600020805480602002602001604051908101604052809291908181526020016000905b82821015610416578382906000526020600020906004020160405180608001604052908160008201805461025790611839565b80601f016020809104026020016040519081016040528092919081815260200182805461028390611839565b80156102d05780601f106102a5576101008083540402835291602001916102d0565b820191906000526020600020905b8154815290600101906020018083116102b357829003601f168201915b505050505081526020016001820180546102e990611839565b80601f016020809104026020016040519081016040528092919081815260200182805461031590611839565b80156103625780601f1061033757610100808354040283529160200191610362565b820191906000526020600020905b81548152906001019060200180831161034557829003601f168201915b5050505050815260200160028201805461037b90611839565b80601f01602080910402602001604051908101604052809291908181526020018280546103a790611839565b80156103f45780601f106103c9576101008083540402835291602001916103f4565b820191906000526020600020905b8154815290600101906020018083116103d757829003601f168201915b5050505050815260200160038201548152505081526020019060010190610224565b505050509050919050565b60608060008060008087815260200190815260200160002060003373ffffffffffffffffffffffffffffffffffffffff1673ffffffffffffffffffffffffffffffffffffffff16815260200190815260200160002085815481106104885761048761186a565b5b90600052602060002090600402016040518060800160405290816000820180546104b190611839565b80601f01602080910402602001604051908101604052809291908181526020018280546104dd90611839565b801561052a5780601f106104ff5761010080835404028352916020019161052a565b820191906000526020600020905b81548152906001019060200180831161050d57829003601f168201915b5050505050815260200160018201805461054390611839565b80601f016020809104026020016040519081016040528092919081815260200182805461056f90611839565b80156105bc5780601f10610591576101008083540402835291602001916105bc565b820191906000526020600020905b81548152906001019060200180831161059f57829003601f168201915b505050505081526020016002820180546105d590611839565b80601f016020809104026020016040519081016040528092919081815260200182805461060190611839565b801561064e5780601f106106235761010080835404028352916020019161064e565b820191906000526020600020905b81548152906001019060200180831161063157829003601f168201915b505050505081526020016003820154815250509050806000015181602001518260600151935093509350509250925092565b60603373ffffffffffffffffffffffffffffffffffffffff16600160009054906101000a900473ffffffffffffffffffffffffffffffffffffffff1673ffffffffffffffffffffffffffffffffffffffff1663deb931a2856040518263ffffffff1660e01b81526004016106f491906118a8565b602060405180830381865afa158015610711573d6000803e3d6000fd5b505050506040513d601f19601f8201168201806040525081019061073591906118d8565b73ffffffffffffffffffffffffffffffffffffffff161461078b576040517f08c379a000000000000000000000000000000000000000000000000000000000815260040161078290611951565b60405180910390fd5b60008084815260200190815260200160002060008373ffffffffffffffffffffffffffffffffffffffff1673ffffffffffffffffffffffffffffffffffffffff168152602001908152602001600020805480602002602001604051908101604052809291908181526020016000905b828210156109ec578382906000526020600020906004020160405180608001604052908160008201805461082d90611839565b80601f016020809104026020016040519081016040528092919081815260200182805461085990611839565b80156108a65780601f1061087b576101008083540402835291602001916108a6565b820191906000526020600020905b81548152906001019060200180831161088957829003601f168201915b505050505081526020016001820180546108bf90611839565b80601f01602080910402602001604051908101604052809291908181526020018280546108eb90611839565b80156109385780601f1061090d57610100808354040283529160200191610938565b820191906000526020600020905b81548152906001019060200180831161091b57829003601f168201915b5050505050815260200160028201805461095190611839565b80601f016020809104026020016040519081016040528092919081815260200182805461097d90611839565b80156109ca5780601f1061099f576101008083540402835291602001916109ca565b820191906000526020600020905b8154815290600101906020018083116109ad57829003601f168201915b50505050508152602001600382015481525050815260200190600101906107fa565b50505050905092915050565b60608060003373ffffffffffffffffffffffffffffffffffffffff16600160009054906101000a900473ffffffffffffffffffffffffffffffffffffffff1673ffffffffffffffffffffffffffffffffffffffff1663deb931a2886040518263ffffffff1660e01b8152600401610a6f91906118a8565b602060405180830381865afa158015610a8c573d6000803e3d6000fd5b505050506040513d601f19601f82011682018060405250810190610ab091906118d8565b73ffffffffffffffffffffffffffffffffffffffff1614610b06576040517f08c379a0000000000000000000000000000000000000000000000000000000008152600401610afd90611951565b60405180910390fd5b600080600088815260200190815260200160002060008773ffffffffffffffffffffffffffffffffffffffff1673ffffffffffffffffffffffffffffffffffffffff1681526020019081526020016000208581548110610b6957610b6861186a565b5b9060005260206000209060040201604051806080016040529081600082018054610b9290611839565b80601f0160208091040260200160405190810160405280929190818152602001828054610bbe90611839565b8015610c0b5780601f10610be057610100808354040283529160200191610c0b565b820191906000526020600020905b815481529060010190602001808311610bee57829003601f168201915b50505050508152602001600182018054610c2490611839565b80601f0160208091040260200160405190810160405280929190818152602001828054610c5090611839565b8015610c9d5780601f10610c7257610100808354040283529160200191610c9d565b820191906000526020600020905b815481529060010190602001808311610c8057829003601f168201915b50505050508152602001600282018054610cb690611839565b80601f0160208091040260200160405190810160405280929190818152602001828054610ce290611839565b8015610d2f5780601f10610d0457610100808354040283529160200191610d2f565b820191906000526020600020905b815481529060010190602001808311610d1257829003601f168201915b5050505050815260200160038201548152505090508060000151816020015182606001519350935093505093509350939050565b600160009054906101000a900473ffffffffffffffffffffffffffffffffffffffff1681565b6000604051806080016040528085815260200184815260200183815260200142815250905060008087815260200190815260200160002060008673ffffffffffffffffffffffffffffffffffffffff1673ffffffffffffffffffffffffffffffffffffffff1681526020019081526020016000208190806001815401808255809150506001900390600052602060002090600402016000909190919091506000820151816000019081610e3c9190611b13565b506020820151816001019081610e529190611b13565b506040820151816002019081610e689190611b13565b506060820151816003015550508473ffffffffffffffffffffffffffffffffffffffff16867f75c2f64c7767408ae1bf879e1d3038fb5d4f5d80e435fcb3cb95dfab7a9a6589868642604051610ec0939291906113fc565b60405180910390a3505050505050565b60006020528260005260406000206020528160005260406000208181548110610ef857600080fd5b90600052602060002090600402016000925092505050806000018054610f1d90611839565b80601f0160208091040260200160405190810160405280929190818152602001828054610f4990611839565b8015610f965780601f10610f6b57610100808354040283529160200191610f96565b820191906000526020600020905b815481529060010190602001808311610f7957829003601f168201915b505050505090806001018054610fab90611839565b80601f0160208091040260200160405190810160405280929190818152602001828054610fd790611839565b80156110245780601f10610ff957610100808354040283529160200191611024565b820191906000526020600020905b81548152906001019060200180831161100757829003601f168201915b50505050509080600201805461103990611839565b80601f016020809104026020016040519081016040528092919081815260200182805461106590611839565b80156110b25780601f10611087576101008083540402835291602001916110b2565b820191906000526020600020905b81548152906001019060200180831161109557829003601f168201915b5050505050908060030154905084565b6000604051905090565b600080fd5b600080fd5b6000819050919050565b6110e9816110d6565b81146110f457600080fd5b50565b600081359050611106816110e0565b92915050565b600060208284031215611122576111216110cc565b5b6000611130848285016110f7565b91505092915050565b600081519050919050565b600082825260208201905092915050565b6000819050602082019050919050565b600081519050919050565b600082825260208201905092915050565b60005b8381101561119f578082015181840152602081019050611184565b60008484015250505050565b6000601f19601f8301169050919050565b60006111c782611165565b6111d18185611170565b93506111e1818560208601611181565b6111ea816111ab565b840191505092915050565b6000819050919050565b611208816111f5565b82525050565b6000608083016000830151848203600086015261122b82826111bc565b9150506020830151848203602086015261124582826111bc565b9150506040830151848203604086015261125f82826111bc565b915050606083015161127460608601826111ff565b508091505092915050565b600061128b838361120e565b905092915050565b6000602082019050919050565b60006112ab82611139565b6112b58185611144565b9350836020820285016112c785611155565b8060005b8581101561130357848403895281516112e4858261127f565b94506112ef83611293565b925060208a019950506001810190506112cb565b50829750879550505050505092915050565b6000602082019050818103600083015261132f81846112a0565b905092915050565b611340816111f5565b811461134b57600080fd5b50565b60008135905061135d81611337565b92915050565b6000806040838503121561137a576113796110cc565b5b6000611388858286016110f7565b92505060206113998582860161134e565b9150509250929050565b600082825260208201905092915050565b60006113bf82611165565b6113c981856113a3565b93506113d9818560208601611181565b6113e2816111ab565b840191505092915050565b6113f6816111f5565b82525050565b6000606082019050818103600083015261141681866113b4565b9050818103602083015261142a81856113b4565b905061143960408301846113ed565b949350505050565b600073ffffffffffffffffffffffffffffffffffffffff82169050919050565b600061146c82611441565b9050919050565b61147c81611461565b811461148757600080fd5b50565b60008135905061149981611473565b92915050565b600080604083850312156114b6576114b56110cc565b5b60006114c4858286016110f7565b92505060206114d58582860161148a565b9150509250929050565b6000806000606084860312156114f8576114f76110cc565b5b6000611506868287016110f7565b93505060206115178682870161148a565b92505060406115288682870161134e565b9150509250925092565b6000819050919050565b600061155761155261154d84611441565b611532565b611441565b9050919050565b60006115698261153c565b9050919050565b600061157b8261155e565b9050919050565b61158b81611570565b82525050565b60006020820190506115a66000830184611582565b92915050565b600080fd5b600080fd5b7f4e487b7100000000000000000000000000000000000000000000000000000000600052604160045260246000fd5b6115ee826111ab565b810181811067ffffffffffffffff8211171561160d5761160c6115b6565b5b80604052505050565b60006116206110c2565b905061162c82826115e5565b919050565b600067ffffffffffffffff82111561164c5761164b6115b6565b5b611655826111ab565b9050602081019050919050565b82818337600083830152505050565b600061168461167f84611631565b611616565b9050828152602081018484840111156116a05761169f6115b1565b5b6116ab848285611662565b509392505050565b600082601f8301126116c8576116c76115ac565b5b81356116d8848260208601611671565b91505092915050565b600080600080600060a086880312156116fd576116fc6110cc565b5b600061170b888289016110f7565b955050602061171c8882890161148a565b945050604086013567ffffffffffffffff81111561173d5761173c6110d1565b5b611749888289016116b3565b935050606086013567ffffffffffffffff81111561176a576117696110d1565b5b611776888289016116b3565b925050608086013567ffffffffffffffff811115611797576117966110d1565b5b6117a3888289016116b3565b9150509295509295909350565b600060808201905081810360008301526117ca81876113b4565b905081810360208301526117de81866113b4565b905081810360408301526117f281856113b4565b905061180160608301846113ed565b95945050505050565b7f4e487b7100000000000000000000000000000000000000000000000000000000600052602260045260246000fd5b6000600282049050600182168061185157607f821691505b6020821081036118645761186361180a565b5b50919050565b7f4e487b7100000000000000000000000000000000000000000000000000000000600052603260045260246000fd5b6118a2816110d6565b82525050565b60006020820190506118bd6000830184611899565b92915050565b6000815190506118d281611473565b92915050565b6000602082840312156118ee576118ed6110cc565b5b60006118fc848285016118c3565b91505092915050565b7f4f6e6c792074656e646572206f776e65722063616e2076696577207468697300600082015250565b600061193b601f836113a3565b915061194682611905565b602082019050919050565b6000602082019050818103600083015261196a8161192e565b9050919050565b60008190508160005260206000209050919050565b60006020601f8301049050919050565b600082821b905092915050565b6000600883026119d37fffffffffffffffffffffffffffffffffffffffffffffffffffffffffffffffff82611996565b6119dd8683611996565b95508019841693508086168417925050509392505050565b6000611a10611a0b611a06846111f5565b611532565b6111f5565b9050919050565b6000819050919050565b611a2a836119f5565b611a3e611a3682611a17565b8484546119a3565b825550505050565b600090565b611a53611a46565b611a5e818484611a21565b505050565b5b81811015611a8257611a77600082611a4b565b600181019050611a64565b5050565b601f821115611ac757611a9881611971565b611aa184611986565b81016020851015611ab0578190505b611ac4611abc85611986565b830182611a63565b50505b505050565b600082821c905092915050565b6000611aea60001984600802611acc565b1980831691505092915050565b6000611b038383611ad9565b9150826002028217905092915050565b611b1c82611165565b67ffffffffffffffff811115611b3557611b346115b6565b5b611b3f8254611839565b611b4a828285611a86565b600060209050601f831160018114611b7d5760008415611b6b578287015190505b611b758582611af7565b865550611bdd565b601f198416611b8b86611971565b60005b82811015611bb357848901518255600182019150602085019450602081019050611b8e565b86831015611bd05784890151611bcc601f891682611ad9565b8355505b6001600288020188555050505b50505050505056fea26469706673582212200a11cd57dd7c0368e1e87b583cda5d8ba13bdb1c1e1b16779a174c96cecc8ee264736f6c634300081c0033",
  "linkReferences": {},
  "deployedLinkReferences": {}
}