{
  "_format": "hh-sol-artifact-1",
  "contractName": "DocumentStore",
  "sourceName": "contracts/DocumentStore.sol",
  "abi": [
    {
      "inputs": [
        {
          "internalType": "address",
          "name": "tenderManagerAddress",
          "type": "address"
        }
      ],
      "stateMutability": "nonpayable",
      "type": "constructor"
    },
    {
      "anonymous": false,
      "inputs": [
        {
          "indexed": true,
          "internalType": "string",
          "name": "tenderId",
          "type": "string"
        },
        {
          "indexed": true,
          "internalType": "address",
          "name": "contestant",
          "type": "address"
        },
        {
          "indexed": false,
          "internalType": "string",
          "name": "documentCid",
          "type": "string"
        },
        {
          "indexed": false,
          "internalType": "string",
          "name": "documentName",
          "type": "string"
        },
        {
          "indexed": false,
          "internalType": "uint256",
          "name": "submissionDate",
          "type": "uint256"
        }
      ],
      "name": "DocumentUploaded",
      "type": "event"
    },
    {
      "inputs": [
        {
          "internalType": "string",
          "name": "tenderId",
          "type": "string"
        },
        {
          "internalType": "address",
          "name": "user",
          "type": "address"
        },
        {
          "internalType": "uint256",
          "name": "index",
          "type": "uint256"
        }
      ],
      "name": "getDocumentOfUserAsOwner",
      "outputs": [
        {
          "internalType": "string",
          "name": "",
          "type": "string"
        },
        {
          "internalType": "string",
          "name": "",
          "type": "string"
        },
        {
          "internalType": "uint256",
          "name": "",
          "type": "uint256"
        }
      ],
      "stateMutability": "view",
      "type": "function"
    },
    {
      "inputs": [
        {
          "internalType": "string",
          "name": "tenderId",
          "type": "string"
        },
        {
          "internalType": "address",
          "name": "user",
          "type": "address"
        }
      ],
      "name": "getDocumentsOfTenderAsOwner",
      "outputs": [
        {
          "components": [
            {
              "internalType": "string",
              "name": "documentCid",
              "type": "string"
            },
            {
              "internalType": "string",
              "name": "documentName",
              "type": "string"
            },
            {
              "internalType": "string",
              "name": "documentType",
              "type": "string"
            },
            {
              "internalType": "uint256",
              "name": "submissionDate",
              "type": "uint256"
            }
          ],
          "internalType": "struct DocumentStore.Document[]",
          "name": "",
          "type": "tuple[]"
        }
      ],
      "stateMutability": "view",
      "type": "function"
    },
    {
      "inputs": [
        {
          "internalType": "string",
          "name": "tenderId",
          "type": "string"
        },
        {
          "internalType": "uint256",
          "name": "index",
          "type": "uint256"
        }
      ],
      "name": "getMyDocument",
      "outputs": [
        {
          "internalType": "string",
          "name": "",
          "type": "string"
        },
        {
          "internalType": "string",
          "name": "",
          "type": "string"
        },
        {
          "internalType": "uint256",
          "name": "",
          "type": "uint256"
        }
      ],
      "stateMutability": "view",
      "type": "function"
    },
    {
      "inputs": [
        {
          "internalType": "string",
          "name": "tenderId",
          "type": "string"
        }
      ],
      "name": "getMyDocuments",
      "outputs": [
        {
          "components": [
            {
              "internalType": "string",
              "name": "documentCid",
              "type": "string"
            },
            {
              "internalType": "string",
              "name": "documentName",
              "type": "string"
            },
            {
              "internalType": "string",
              "name": "documentType",
              "type": "string"
            },
            {
              "internalType": "uint256",
              "name": "submissionDate",
              "type": "uint256"
            }
          ],
          "internalType": "struct DocumentStore.Document[]",
          "name": "",
          "type": "tuple[]"
        }
      ],
      "stateMutability": "view",
      "type": "function"
    },
    {
      "inputs": [
        {
          "internalType": "string",
          "name": "",
          "type": "string"
        },
        {
          "internalType": "address",
          "name": "",
          "type": "address"
        },
        {
          "internalType": "uint256",
          "name": "",
          "type": "uint256"
        }
      ],
      "name": "tenderDocuments",
      "outputs": [
        {
          "internalType": "string",
          "name": "documentCid",
          "type": "string"
        },
        {
          "internalType": "string",
          "name": "documentName",
          "type": "string"
        },
        {
          "internalType": "string",
          "name": "documentType",
          "type": "string"
        },
        {
          "internalType": "uint256",
          "name": "submissionDate",
          "type": "uint256"
        }
      ],
      "stateMutability": "view",
      "type": "function"
    },
    {
      "inputs": [],
      "name": "tenderManager",
      "outputs": [
        {
          "internalType": "contract ITenderManager",
          "name": "",
          "type": "address"
        }
      ],
      "stateMutability": "view",
      "type": "function"
    },
    {
      "inputs": [
        {
          "internalType": "string",
          "name": "tenderId",
          "type": "string"
        },
        {
          "internalType": "string",
          "name": "documentCid",
          "type": "string"
        },
        {
          "internalType": "string",
          "name": "documentName",
          "type": "string"
        },
        {
          "internalType": "string",
          "name": "documentType",
          "type": "string"
        },
        {
          "internalType": "string",
          "name": "participantName",
          "type": "string"
        },
        {
          "internalType": "string",
          "name": "participantEmail",
          "type": "string"
        },
        {
          "internalType": "uint256",
          "name": "deadline",
          "type": "uint256"
        },
        {
          "internalType": "uint8",
          "name": "v",
          "type": "uint8"
        },
        {
          "internalType": "bytes32",
          "name": "r",
          "type": "bytes32"
        },
        {
          "internalType": "bytes32",
          "name": "s",
          "type": "bytes32"
        }
      ],
      "name": "uploadDocumentWithSignature",
      "outputs": [],
      "stateMutability": "nonpayable",
      "type": "function"
    }
  ],
  "bytecode": "0x608060405234801561001057600080fd5b50604051612785380380612785833981810160405281019061003291906100dc565b80600160006101000a81548173ffffffffffffffffffffffffffffffffffffffff021916908373ffffffffffffffffffffffffffffffffffffffff16021790555050610109565b600080fd5b600073ffffffffffffffffffffffffffffffffffffffff82169050919050565b60006100a98261007e565b9050919050565b6100b98161009e565b81146100c457600080fd5b50565b6000815190506100d6816100b0565b92915050565b6000602082840312156100f2576100f1610079565b5b6000610100848285016100c7565b91505092915050565b61266d806101186000396000f3fe608060405234801561001057600080fd5b506004361061007d5760003560e01c80637f9bb7811161005b5780637f9bb78114610114578063a06a72f514610147578063f05ccea714610165578063f983829c146101815761007d565b8063180d60b3146100825780633e823f07146100b25780637c4fb190146100e2575b600080fd5b61009c60048036038101906100979190611752565b6101b3565b6040516100a99190611979565b60405180910390f35b6100cc60048036038101906100c7919061199b565b610537565b6040516100d99190611979565b60405180910390f35b6100fc60048036038101906100f79190611a10565b6107b1565b60405161010b93929190611ad8565b60405180910390f35b61012e60048036038101906101299190611a10565b610b27565b60405161013e9493929190611b1d565b60405180910390f35b61014f610d2f565b60405161015c9190611bd6565b60405180910390f35b61017f600480360381019061017a9190611c60565b610d55565b005b61019b60048036038101906101969190611de7565b61132f565b6040516101aa93929190611ad8565b60405180910390f35b60603373ffffffffffffffffffffffffffffffffffffffff16600160009054906101000a900473ffffffffffffffffffffffffffffffffffffffff1673ffffffffffffffffffffffffffffffffffffffff16634aaf4a12856040518263ffffffff1660e01b81526004016102279190611e43565b602060405180830381865afa158015610244573d6000803e3d6000fd5b505050506040513d601f19601f820116820180604052508101906102689190611e7a565b73ffffffffffffffffffffffffffffffffffffffff16146102be576040517f08c379a00000000000000000000000000000000000000000000000000000000081526004016102b590611ef3565b60405180910390fd5b6000836040516102ce9190611f4f565b908152602001604051809103902060008373ffffffffffffffffffffffffffffffffffffffff1673ffffffffffffffffffffffffffffffffffffffff168152602001908152602001600020805480602002602001604051908101604052809291908181526020016000905b8282101561052b578382906000526020600020906004020160405180608001604052908160008201805461036c90611f95565b80601f016020809104026020016040519081016040528092919081815260200182805461039890611f95565b80156103e55780601f106103ba576101008083540402835291602001916103e5565b820191906000526020600020905b8154815290600101906020018083116103c857829003601f168201915b505050505081526020016001820180546103fe90611f95565b80601f016020809104026020016040519081016040528092919081815260200182805461042a90611f95565b80156104775780601f1061044c57610100808354040283529160200191610477565b820191906000526020600020905b81548152906001019060200180831161045a57829003601f168201915b5050505050815260200160028201805461049090611f95565b80601f01602080910402602001604051908101604052809291908181526020018280546104bc90611f95565b80156105095780601f106104de57610100808354040283529160200191610509565b820191906000526020600020905b8154815290600101906020018083116104ec57829003601f168201915b5050505050815260200160038201548152505081526020019060010190610339565b50505050905092915050565b60606000826040516105499190611f4f565b908152602001604051809103902060003373ffffffffffffffffffffffffffffffffffffffff1673ffffffffffffffffffffffffffffffffffffffff168152602001908152602001600020805480602002602001604051908101604052809291908181526020016000905b828210156107a657838290600052602060002090600402016040518060800160405290816000820180546105e790611f95565b80601f016020809104026020016040519081016040528092919081815260200182805461061390611f95565b80156106605780601f1061063557610100808354040283529160200191610660565b820191906000526020600020905b81548152906001019060200180831161064357829003601f168201915b5050505050815260200160018201805461067990611f95565b80601f01602080910402602001604051908101604052809291908181526020018280546106a590611f95565b80156106f25780601f106106c7576101008083540402835291602001916106f2565b820191906000526020600020905b8154815290600101906020018083116106d557829003601f168201915b5050505050815260200160028201805461070b90611f95565b80601f016020809104026020016040519081016040528092919081815260200182805461073790611f95565b80156107845780601f1061075957610100808354040283529160200191610784565b820191906000526020600020905b81548152906001019060200180831161076757829003601f168201915b50505050508152602001600382015481525050815260200190600101906105b4565b505050509050919050565b60608060003373ffffffffffffffffffffffffffffffffffffffff16600160009054906101000a900473ffffffffffffffffffffffffffffffffffffffff1673ffffffffffffffffffffffffffffffffffffffff16634aaf4a12886040518263ffffffff1660e01b81526004016108289190611e43565b602060405180830381865afa158015610845573d6000803e3d6000fd5b505050506040513d601f19601f820116820180604052508101906108699190611e7a565b73ffffffffffffffffffffffffffffffffffffffff16146108bf576040517f08c379a00000000000000000000000000000000000000000000000000000000081526004016108b690611ef3565b60405180910390fd5b600080876040516108d09190611f4f565b908152602001604051809103902060008773ffffffffffffffffffffffffffffffffffffffff1673ffffffffffffffffffffffffffffffffffffffff168152602001908152602001600020858154811061092d5761092c611fc6565b5b906000526020600020906004020160405180608001604052908160008201805461095690611f95565b80601f016020809104026020016040519081016040528092919081815260200182805461098290611f95565b80156109cf5780601f106109a4576101008083540402835291602001916109cf565b820191906000526020600020905b8154815290600101906020018083116109b257829003601f168201915b505050505081526020016001820180546109e890611f95565b80601f0160208091040260200160405190810160405280929190818152602001828054610a1490611f95565b8015610a615780601f10610a3657610100808354040283529160200191610a61565b820191906000526020600020905b815481529060010190602001808311610a4457829003601f168201915b50505050508152602001600282018054610a7a90611f95565b80601f0160208091040260200160405190810160405280929190818152602001828054610aa690611f95565b8015610af35780601f10610ac857610100808354040283529160200191610af3565b820191906000526020600020905b815481529060010190602001808311610ad657829003601f168201915b5050505050815260200160038201548152505090508060000151816020015182606001519350935093505093509350939050565b6000838051602081018201805184825260208301602085012081835280955050505050506020528160005260406000208181548110610b6557600080fd5b90600052602060002090600402016000925092505050806000018054610b8a90611f95565b80601f0160208091040260200160405190810160405280929190818152602001828054610bb690611f95565b8015610c035780601f10610bd857610100808354040283529160200191610c03565b820191906000526020600020905b815481529060010190602001808311610be657829003601f168201915b505050505090806001018054610c1890611f95565b80601f0160208091040260200160405190810160405280929190818152602001828054610c4490611f95565b8015610c915780601f10610c6657610100808354040283529160200191610c91565b820191906000526020600020905b815481529060010190602001808311610c7457829003601f168201915b505050505090806002018054610ca690611f95565b80601f0160208091040260200160405190810160405280929190818152602001828054610cd290611f95565b8015610d1f5780601f10610cf457610100808354040283529160200191610d1f565b820191906000526020600020905b815481529060010190602001808311610d0257829003601f168201915b5050505050908060030154905084565b600160009054906101000a900473ffffffffffffffffffffffffffffffffffffffff1681565b60008a8a8a8a88604051602001610d70959493929190612016565b604051602081830303815290604052805190602001209050600081604051602001610d9b91906120d2565b604051602081830303815290604052805190602001209050600060018287878760405160008152602001604052604051610dd89493929190612116565b6020604051602081039080840390855afa158015610dfa573d6000803e3d6000fd5b505050602060405103519050600073ffffffffffffffffffffffffffffffffffffffff168173ffffffffffffffffffffffffffffffffffffffff1603610e75576040517f08c379a0000000000000000000000000000000000000000000000000000000008152600401610e6c906121a7565b60405180910390fd5b86421115610eb8576040517f08c379a0000000000000000000000000000000000000000000000000000000008152600401610eaf90612213565b60405180910390fd5b6040518060400160405280600681526020017f74656e6465720000000000000000000000000000000000000000000000000000815250805190602001208a8051906020012003610fe057600160009054906101000a900473ffffffffffffffffffffffffffffffffffffffff1673ffffffffffffffffffffffffffffffffffffffff16634756331e8e836040518363ffffffff1660e01b8152600401610f5f929190612242565b602060405180830381865afa158015610f7c573d6000803e3d6000fd5b505050506040513d601f19601f82011682018060405250810190610fa091906122aa565b610fdf576040517f08c379a0000000000000000000000000000000000000000000000000000000008152600401610fd690612349565b60405180910390fd5b5b600060405180608001604052808e81526020018d81526020018c815260200142815250905060008e6040516110159190611f4f565b908152602001604051809103902060008373ffffffffffffffffffffffffffffffffffffffff1673ffffffffffffffffffffffffffffffffffffffff168152602001908152602001600020819080600181540180825580915050600190039060005260206000209060040201600090919091909150600082015181600001908161109f919061250b565b5060208201518160010190816110b5919061250b565b5060408201518160020190816110cb919061250b565b50606082015181600301555050600160009054906101000a900473ffffffffffffffffffffffffffffffffffffffff1673ffffffffffffffffffffffffffffffffffffffff16634756331e8f846040518363ffffffff1660e01b8152600401611135929190612242565b602060405180830381865afa158015611152573d6000803e3d6000fd5b505050506040513d601f19601f8201168201806040525081019061117691906122aa565b15801561121e5750600160009054906101000a900473ffffffffffffffffffffffffffffffffffffffff1673ffffffffffffffffffffffffffffffffffffffff1663e4afd7c08f846040518363ffffffff1660e01b81526004016111db929190612242565b602060405180830381865afa1580156111f8573d6000803e3d6000fd5b505050506040513d601f19601f8201168201806040525081019061121c91906122aa565b155b156112b757600160009054906101000a900473ffffffffffffffffffffffffffffffffffffffff1673ffffffffffffffffffffffffffffffffffffffff1663061ff4358f8c8c866040518563ffffffff1660e01b815260040161128494939291906125dd565b600060405180830381600087803b15801561129e57600080fd5b505af11580156112b2573d6000803e3d6000fd5b505050505b8173ffffffffffffffffffffffffffffffffffffffff168e6040516112dc9190611f4f565b60405180910390207f963ec0ad3d85928f4a4df0b4ad4eab4fea9a19714adeea20c726acd664544c448f8f4260405161131793929190611ad8565b60405180910390a35050505050505050505050505050565b6060806000806000866040516113459190611f4f565b908152602001604051809103902060003373ffffffffffffffffffffffffffffffffffffffff1673ffffffffffffffffffffffffffffffffffffffff16815260200190815260200160002085815481106113a2576113a1611fc6565b5b90600052602060002090600402016040518060800160405290816000820180546113cb90611f95565b80601f01602080910402602001604051908101604052809291908181526020018280546113f790611f95565b80156114445780601f1061141957610100808354040283529160200191611444565b820191906000526020600020905b81548152906001019060200180831161142757829003601f168201915b5050505050815260200160018201805461145d90611f95565b80601f016020809104026020016040519081016040528092919081815260200182805461148990611f95565b80156114d65780601f106114ab576101008083540402835291602001916114d6565b820191906000526020600020905b8154815290600101906020018083116114b957829003601f168201915b505050505081526020016002820180546114ef90611f95565b80601f016020809104026020016040519081016040528092919081815260200182805461151b90611f95565b80156115685780601f1061153d57610100808354040283529160200191611568565b820191906000526020600020905b81548152906001019060200180831161154b57829003601f168201915b505050505081526020016003820154815250509050806000015181602001518260600151935093509350509250925092565b6000604051905090565b600080fd5b600080fd5b600080fd5b600080fd5b6000601f19601f8301169050919050565b7f4e487b7100000000000000000000000000000000000000000000000000000000600052604160045260246000fd5b611601826115b8565b810181811067ffffffffffffffff821117156116205761161f6115c9565b5b80604052505050565b600061163361159a565b905061163f82826115f8565b919050565b600067ffffffffffffffff82111561165f5761165e6115c9565b5b611668826115b8565b9050602081019050919050565b82818337600083830152505050565b600061169761169284611644565b611629565b9050828152602081018484840111156116b3576116b26115b3565b5b6116be848285611675565b509392505050565b600082601f8301126116db576116da6115ae565b5b81356116eb848260208601611684565b91505092915050565b600073ffffffffffffffffffffffffffffffffffffffff82169050919050565b600061171f826116f4565b9050919050565b61172f81611714565b811461173a57600080fd5b50565b60008135905061174c81611726565b92915050565b60008060408385031215611769576117686115a4565b5b600083013567ffffffffffffffff811115611787576117866115a9565b5b611793858286016116c6565b92505060206117a48582860161173d565b9150509250929050565b600081519050919050565b600082825260208201905092915050565b6000819050602082019050919050565b600081519050919050565b600082825260208201905092915050565b60005b838110156118145780820151818401526020810190506117f9565b60008484015250505050565b600061182b826117da565b61183581856117e5565b93506118458185602086016117f6565b61184e816115b8565b840191505092915050565b6000819050919050565b61186c81611859565b82525050565b6000608083016000830151848203600086015261188f8282611820565b915050602083015184820360208601526118a98282611820565b915050604083015184820360408601526118c38282611820565b91505060608301516118d86060860182611863565b508091505092915050565b60006118ef8383611872565b905092915050565b6000602082019050919050565b600061190f826117ae565b61191981856117b9565b93508360208202850161192b856117ca565b8060005b85811015611967578484038952815161194885826118e3565b9450611953836118f7565b925060208a0199505060018101905061192f565b50829750879550505050505092915050565b600060208201905081810360008301526119938184611904565b905092915050565b6000602082840312156119b1576119b06115a4565b5b600082013567ffffffffffffffff8111156119cf576119ce6115a9565b5b6119db848285016116c6565b91505092915050565b6119ed81611859565b81146119f857600080fd5b50565b600081359050611a0a816119e4565b92915050565b600080600060608486031215611a2957611a286115a4565b5b600084013567ffffffffffffffff811115611a4757611a466115a9565b5b611a53868287016116c6565b9350506020611a648682870161173d565b9250506040611a75868287016119fb565b9150509250925092565b600082825260208201905092915050565b6000611a9b826117da565b611aa58185611a7f565b9350611ab58185602086016117f6565b611abe816115b8565b840191505092915050565b611ad281611859565b82525050565b60006060820190508181036000830152611af28186611a90565b90508181036020830152611b068185611a90565b9050611b156040830184611ac9565b949350505050565b60006080820190508181036000830152611b378187611a90565b90508181036020830152611b4b8186611a90565b90508181036040830152611b5f8185611a90565b9050611b6e6060830184611ac9565b95945050505050565b6000819050919050565b6000611b9c611b97611b92846116f4565b611b77565b6116f4565b9050919050565b6000611bae82611b81565b9050919050565b6000611bc082611ba3565b9050919050565b611bd081611bb5565b82525050565b6000602082019050611beb6000830184611bc7565b92915050565b600060ff82169050919050565b611c0781611bf1565b8114611c1257600080fd5b50565b600081359050611c2481611bfe565b92915050565b6000819050919050565b611c3d81611c2a565b8114611c4857600080fd5b50565b600081359050611c5a81611c34565b92915050565b6000806000806000806000806000806101408b8d031215611c8457611c836115a4565b5b60008b013567ffffffffffffffff811115611ca257611ca16115a9565b5b611cae8d828e016116c6565b9a505060208b013567ffffffffffffffff811115611ccf57611cce6115a9565b5b611cdb8d828e016116c6565b99505060408b013567ffffffffffffffff811115611cfc57611cfb6115a9565b5b611d088d828e016116c6565b98505060608b013567ffffffffffffffff811115611d2957611d286115a9565b5b611d358d828e016116c6565b97505060808b013567ffffffffffffffff811115611d5657611d556115a9565b5b611d628d828e016116c6565b96505060a08b013567ffffffffffffffff811115611d8357611d826115a9565b5b611d8f8d828e016116c6565b95505060c0611da08d828e016119fb565b94505060e0611db18d828e01611c15565b935050610100611dc38d828e01611c4b565b925050610120611dd58d828e01611c4b565b9150509295989b9194979a5092959850565b60008060408385031215611dfe57611dfd6115a4565b5b600083013567ffffffffffffffff811115611e1c57611e1b6115a9565b5b611e28858286016116c6565b9250506020611e39858286016119fb565b9150509250929050565b60006020820190508181036000830152611e5d8184611a90565b905092915050565b600081519050611e7481611726565b92915050565b600060208284031215611e9057611e8f6115a4565b5b6000611e9e84828501611e65565b91505092915050565b7f4f6e6c792074656e646572206f776e65722063616e2076696577207468697300600082015250565b6000611edd601f83611a7f565b9150611ee882611ea7565b602082019050919050565b60006020820190508181036000830152611f0c81611ed0565b9050919050565b600081905092915050565b6000611f29826117da565b611f338185611f13565b9350611f438185602086016117f6565b80840191505092915050565b6000611f5b8284611f1e565b915081905092915050565b7f4e487b7100000000000000000000000000000000000000000000000000000000600052602260045260246000fd5b60006002820490506001821680611fad57607f821691505b602082108103611fc057611fbf611f66565b5b50919050565b7f4e487b7100000000000000000000000000000000000000000000000000000000600052603260045260246000fd5b6000819050919050565b61201061200b82611859565b611ff5565b82525050565b60006120228288611f1e565b915061202e8287611f1e565b915061203a8286611f1e565b91506120468285611f1e565b91506120528284611fff565b6020820191508190509695505050505050565b7f19457468657265756d205369676e6564204d6573736167653a0a333200000000600082015250565b600061209b601c83611f13565b91506120a682612065565b601c82019050919050565b6000819050919050565b6120cc6120c782611c2a565b6120b1565b82525050565b60006120dd8261208e565b91506120e982846120bb565b60208201915081905092915050565b61210181611c2a565b82525050565b61211081611bf1565b82525050565b600060808201905061212b60008301876120f8565b6121386020830186612107565b61214560408301856120f8565b61215260608301846120f8565b95945050505050565b7f496e76616c6964207369676e6174757265000000000000000000000000000000600082015250565b6000612191601183611a7f565b915061219c8261215b565b602082019050919050565b600060208201905081810360008301526121c081612184565b9050919050565b7f5369676e61747572652065787069726564000000000000000000000000000000600082015250565b60006121fd601183611a7f565b9150612208826121c7565b602082019050919050565b6000602082019050818103600083015261222c816121f0565b9050919050565b61223c81611714565b82525050565b6000604082019050818103600083015261225c8185611a90565b905061226b6020830184612233565b9392505050565b60008115159050919050565b61228781612272565b811461229257600080fd5b50565b6000815190506122a48161227e565b92915050565b6000602082840312156122c0576122bf6115a4565b5b60006122ce84828501612295565b91505092915050565b7f4f6e6c79207061727469636970616e74732063616e2075706c6f61642074656e60008201527f64657220646f63756d656e747300000000000000000000000000000000000000602082015250565b6000612333602d83611a7f565b915061233e826122d7565b604082019050919050565b6000602082019050818103600083015261236281612326565b9050919050565b60008190508160005260206000209050919050565b60006020601f8301049050919050565b600082821b905092915050565b6000600883026123cb7fffffffffffffffffffffffffffffffffffffffffffffffffffffffffffffffff8261238e565b6123d5868361238e565b95508019841693508086168417925050509392505050565b60006124086124036123fe84611859565b611b77565b611859565b9050919050565b6000819050919050565b612422836123ed565b61243661242e8261240f565b84845461239b565b825550505050565b600090565b61244b61243e565b612456818484612419565b505050565b5b8181101561247a5761246f600082612443565b60018101905061245c565b5050565b601f8211156124bf5761249081612369565b6124998461237e565b810160208510156124a8578190505b6124bc6124b48561237e565b83018261245b565b50505b505050565b600082821c905092915050565b60006124e2600019846008026124c4565b1980831691505092915050565b60006124fb83836124d1565b9150826002028217905092915050565b612514826117da565b67ffffffffffffffff81111561252d5761252c6115c9565b5b6125378254611f95565b61254282828561247e565b600060209050601f8311600181146125755760008415612563578287015190505b61256d85826124ef565b8655506125d5565b601f19841661258386612369565b60005b828110156125ab57848901518255600182019150602085019450602081019050612586565b868310156125c857848901516125c4601f8916826124d1565b8355505b6001600288020188555050505b505050505050565b600060808201905081810360008301526125f78187611a90565b9050818103602083015261260b8186611a90565b9050818103604083015261261f8185611a90565b905061262e6060830184612233565b9594505050505056fea2646970667358221220849636140c2b10e95ba0ed4fa45d334ea17514e963606e89b76031eb15c50fe664736f6c634300081c0033",
  "linkReferences": {},
  "deployedLinkReferences": {}
}