{
  "_format": "hh-sol-artifact-1",
  "contractName": "DocumentStore",
  "sourceName": "contracts/DocumentStore.sol",
  "abi": [
    {
      "inputs": [
        {
          "internalType": "address",
          "name": "tenderManagerAddress",
          "type": "address"
        }
      ],
      "stateMutability": "nonpayable",
      "type": "constructor"
    },
    {
      "anonymous": false,
      "inputs": [
        {
          "indexed": true,
          "internalType": "string",
          "name": "tenderId",
          "type": "string"
        },
        {
          "indexed": true,
          "internalType": "address",
          "name": "contestant",
          "type": "address"
        },
        {
          "indexed": false,
          "internalType": "string",
          "name": "documentCid",
          "type": "string"
        },
        {
          "indexed": false,
          "internalType": "string",
          "name": "documentName",
          "type": "string"
        },
        {
          "indexed": false,
          "internalType": "uint256",
          "name": "submissionDate",
          "type": "uint256"
        }
      ],
      "name": "DocumentUploaded",
      "type": "event"
    },
    {
      "inputs": [
        {
          "internalType": "string",
          "name": "",
          "type": "string"
        }
      ],
      "name": "documentOwner",
      "outputs": [
        {
          "internalType": "address",
          "name": "",
          "type": "address"
        }
      ],
      "stateMutability": "view",
      "type": "function"
    },
    {
      "inputs": [
        {
          "internalType": "string",
          "name": "documentCid",
          "type": "string"
        }
      ],
      "name": "getDocumentOwner",
      "outputs": [
        {
          "internalType": "address",
          "name": "",
          "type": "address"
        }
      ],
      "stateMutability": "view",
      "type": "function"
    },
    {
      "inputs": [
        {
          "internalType": "string",
          "name": "tenderId",
          "type": "string"
        },
        {
          "internalType": "address",
          "name": "user",
          "type": "address"
        }
      ],
      "name": "getDocumentsOfTender",
      "outputs": [
        {
          "components": [
            {
              "internalType": "address",
              "name": "documentOwner",
              "type": "address"
            },
            {
              "internalType": "string",
              "name": "documentCid",
              "type": "string"
            },
            {
              "internalType": "string",
              "name": "documentName",
              "type": "string"
            },
            {
              "internalType": "string",
              "name": "documentType",
              "type": "string"
            },
            {
              "internalType": "string",
              "name": "documentFormat",
              "type": "string"
            },
            {
              "internalType": "uint256",
              "name": "submissionDate",
              "type": "uint256"
            }
          ],
          "internalType": "struct DocumentStore.Document[]",
          "name": "",
          "type": "tuple[]"
        }
      ],
      "stateMutability": "view",
      "type": "function"
    },
    {
      "inputs": [
        {
          "internalType": "string",
          "name": "tenderId",
          "type": "string"
        },
        {
          "internalType": "uint256",
          "name": "index",
          "type": "uint256"
        }
      ],
      "name": "getMyDocument",
      "outputs": [
        {
          "internalType": "string",
          "name": "",
          "type": "string"
        },
        {
          "internalType": "string",
          "name": "",
          "type": "string"
        },
        {
          "internalType": "uint256",
          "name": "",
          "type": "uint256"
        }
      ],
      "stateMutability": "view",
      "type": "function"
    },
    {
      "inputs": [
        {
          "internalType": "string",
          "name": "tenderId",
          "type": "string"
        }
      ],
      "name": "getMyDocuments",
      "outputs": [
        {
          "components": [
            {
              "internalType": "address",
              "name": "documentOwner",
              "type": "address"
            },
            {
              "internalType": "string",
              "name": "documentCid",
              "type": "string"
            },
            {
              "internalType": "string",
              "name": "documentName",
              "type": "string"
            },
            {
              "internalType": "string",
              "name": "documentType",
              "type": "string"
            },
            {
              "internalType": "string",
              "name": "documentFormat",
              "type": "string"
            },
            {
              "internalType": "uint256",
              "name": "submissionDate",
              "type": "uint256"
            }
          ],
          "internalType": "struct DocumentStore.Document[]",
          "name": "",
          "type": "tuple[]"
        }
      ],
      "stateMutability": "view",
      "type": "function"
    },
    {
      "inputs": [
        {
          "internalType": "string",
          "name": "tenderId",
          "type": "string"
        }
      ],
      "name": "getTenderInfoDocuments",
      "outputs": [
        {
          "components": [
            {
              "internalType": "address",
              "name": "documentOwner",
              "type": "address"
            },
            {
              "internalType": "string",
              "name": "documentCid",
              "type": "string"
            },
            {
              "internalType": "string",
              "name": "documentName",
              "type": "string"
            },
            {
              "internalType": "string",
              "name": "documentType",
              "type": "string"
            },
            {
              "internalType": "string",
              "name": "documentFormat",
              "type": "string"
            },
            {
              "internalType": "uint256",
              "name": "submissionDate",
              "type": "uint256"
            }
          ],
          "internalType": "struct DocumentStore.Document[]",
          "name": "",
          "type": "tuple[]"
        }
      ],
      "stateMutability": "view",
      "type": "function"
    },
    {
      "inputs": [
        {
          "internalType": "string",
          "name": "",
          "type": "string"
        },
        {
          "internalType": "address",
          "name": "",
          "type": "address"
        },
        {
          "internalType": "uint256",
          "name": "",
          "type": "uint256"
        }
      ],
      "name": "tenderDocuments",
      "outputs": [
        {
          "internalType": "address",
          "name": "documentOwner",
          "type": "address"
        },
        {
          "internalType": "string",
          "name": "documentCid",
          "type": "string"
        },
        {
          "internalType": "string",
          "name": "documentName",
          "type": "string"
        },
        {
          "internalType": "string",
          "name": "documentType",
          "type": "string"
        },
        {
          "internalType": "string",
          "name": "documentFormat",
          "type": "string"
        },
        {
          "internalType": "uint256",
          "name": "submissionDate",
          "type": "uint256"
        }
      ],
      "stateMutability": "view",
      "type": "function"
    },
    {
      "inputs": [
        {
          "internalType": "string",
          "name": "",
          "type": "string"
        },
        {
          "internalType": "uint256",
          "name": "",
          "type": "uint256"
        }
      ],
      "name": "tenderInfoDocuments",
      "outputs": [
        {
          "internalType": "address",
          "name": "documentOwner",
          "type": "address"
        },
        {
          "internalType": "string",
          "name": "documentCid",
          "type": "string"
        },
        {
          "internalType": "string",
          "name": "documentName",
          "type": "string"
        },
        {
          "internalType": "string",
          "name": "documentType",
          "type": "string"
        },
        {
          "internalType": "string",
          "name": "documentFormat",
          "type": "string"
        },
        {
          "internalType": "uint256",
          "name": "submissionDate",
          "type": "uint256"
        }
      ],
      "stateMutability": "view",
      "type": "function"
    },
    {
      "inputs": [],
      "name": "tenderManager",
      "outputs": [
        {
          "internalType": "contract ITenderManager",
          "name": "",
          "type": "address"
        }
      ],
      "stateMutability": "view",
      "type": "function"
    },
    {
      "inputs": [
        {
          "components": [
            {
              "internalType": "string",
              "name": "tenderId",
              "type": "string"
            },
            {
              "internalType": "string",
              "name": "documentCid",
              "type": "string"
            },
            {
              "internalType": "string",
              "name": "documentName",
              "type": "string"
            },
            {
              "internalType": "string",
              "name": "documentType",
              "type": "string"
            },
            {
              "internalType": "string",
              "name": "documentFormat",
              "type": "string"
            },
            {
              "internalType": "string",
              "name": "participantName",
              "type": "string"
            },
            {
              "internalType": "string",
              "name": "participantEmail",
              "type": "string"
            },
            {
              "internalType": "uint256",
              "name": "deadline",
              "type": "uint256"
            },
            {
              "internalType": "uint8",
              "name": "v",
              "type": "uint8"
            },
            {
              "internalType": "bytes32",
              "name": "r",
              "type": "bytes32"
            },
            {
              "internalType": "bytes32",
              "name": "s",
              "type": "bytes32"
            }
          ],
          "internalType": "struct DocumentStore.UploadInput",
          "name": "input",
          "type": "tuple"
        }
      ],
      "name": "uploadDocumentWithSignature",
      "outputs": [],
      "stateMutability": "nonpayable",
      "type": "function"
    },
    {
      "inputs": [
        {
          "components": [
            {
              "internalType": "string",
              "name": "tenderId",
              "type": "string"
            },
            {
              "internalType": "string",
              "name": "documentCid",
              "type": "string"
            },
            {
              "internalType": "string",
              "name": "documentName",
              "type": "string"
            },
            {
              "internalType": "string",
              "name": "documentType",
              "type": "string"
            },
            {
              "internalType": "string",
              "name": "documentFormat",
              "type": "string"
            },
            {
              "internalType": "string",
              "name": "participantName",
              "type": "string"
            },
            {
              "internalType": "string",
              "name": "participantEmail",
              "type": "string"
            },
            {
              "internalType": "uint256",
              "name": "deadline",
              "type": "uint256"
            },
            {
              "internalType": "uint8",
              "name": "v",
              "type": "uint8"
            },
            {
              "internalType": "bytes32",
              "name": "r",
              "type": "bytes32"
            },
            {
              "internalType": "bytes32",
              "name": "s",
              "type": "bytes32"
            }
          ],
          "internalType": "struct DocumentStore.UploadInput",
          "name": "input",
          "type": "tuple"
        }
      ],
      "name": "uploadTenderInfoDocumentWithSignature",
      "outputs": [],
      "stateMutability": "nonpayable",
      "type": "function"
    }
  ],
  "bytecode": "0x608060405234801561001057600080fd5b506040516134ea3803806134ea833981810160405281019061003291906100dc565b80600360006101000a81548173ffffffffffffffffffffffffffffffffffffffff021916908373ffffffffffffffffffffffffffffffffffffffff16021790555050610109565b600080fd5b600073ffffffffffffffffffffffffffffffffffffffff82169050919050565b60006100a98261007e565b9050919050565b6100b98161009e565b81146100c457600080fd5b50565b6000815190506100d6816100b0565b92915050565b6000602082840312156100f2576100f1610079565b5b6000610100848285016100c7565b91505092915050565b6133d2806101186000396000f3fe608060405234801561001057600080fd5b50600436106100a95760003560e01c8063a06a72f511610071578063a06a72f51461017b578063cb356d9114610199578063d9224b75146101c9578063d9772e2d146101fe578063f983829c1461022e578063fb81abaa14610260576100a9565b80633e823f07146100ae57806341066958146100de5780634c2bf37e146100fa5780635eb6a6a51461012a5780637f9bb78114610146575b600080fd5b6100c860048036038101906100c39190612337565b610290565b6040516100d591906125b9565b60405180910390f35b6100f860048036038101906100f39190612850565b6105f2565b005b610114600480360381019061010f9190612337565b610cfa565b60405161012191906125b9565b60405180910390f35b610144600480360381019061013f9190612850565b61101f565b005b610160600480360381019061015b91906128c5565b611505565b6040516101729695949392919061299c565b60405180910390f35b6101836117c1565b6040516101909190612a78565b60405180910390f35b6101b360048036038101906101ae9190612337565b6117e7565b6040516101c09190612a93565b60405180910390f35b6101e360048036038101906101de9190612aae565b61182f565b6040516101f59695949392919061299c565b60405180910390f35b61021860048036038101906102139190612b0a565b611ade565b60405161022591906125b9565b60405180910390f35b61024860048036038101906102439190612aae565b611e41565b60405161025793929190612b66565b60405180910390f35b61027a60048036038101906102759190612337565b612194565b6040516102879190612a93565b60405180910390f35b60606000826040516102a29190612be7565b908152602001604051809103902060003373ffffffffffffffffffffffffffffffffffffffff1673ffffffffffffffffffffffffffffffffffffffff168152602001908152602001600020805480602002602001604051908101604052809291908181526020016000905b828210156105e757838290600052602060002090600602016040518060c00160405290816000820160009054906101000a900473ffffffffffffffffffffffffffffffffffffffff1673ffffffffffffffffffffffffffffffffffffffff1673ffffffffffffffffffffffffffffffffffffffff16815260200160018201805461039690612c2d565b80601f01602080910402602001604051908101604052809291908181526020018280546103c290612c2d565b801561040f5780601f106103e45761010080835404028352916020019161040f565b820191906000526020600020905b8154815290600101906020018083116103f257829003601f168201915b5050505050815260200160028201805461042890612c2d565b80601f016020809104026020016040519081016040528092919081815260200182805461045490612c2d565b80156104a15780601f10610476576101008083540402835291602001916104a1565b820191906000526020600020905b81548152906001019060200180831161048457829003601f168201915b505050505081526020016003820180546104ba90612c2d565b80601f01602080910402602001604051908101604052809291908181526020018280546104e690612c2d565b80156105335780601f1061050857610100808354040283529160200191610533565b820191906000526020600020905b81548152906001019060200180831161051657829003601f168201915b5050505050815260200160048201805461054c90612c2d565b80601f016020809104026020016040519081016040528092919081815260200182805461057890612c2d565b80156105c55780601f1061059a576101008083540402835291602001916105c5565b820191906000526020600020905b8154815290600101906020018083116105a857829003601f168201915b505050505081526020016005820154815250508152602001906001019061030d565b505050509050919050565b6000816000015182604001518360e0015160405160200161061593929190612c7f565b6040516020818303038152906040528051906020012090506000816040516020016106409190612d21565b60405160208183030381529060405280519060200120905060006001828561010001518661012001518761014001516040516000815260200160405260405161068c9493929190612d65565b6020604051602081039080840390855afa1580156106ae573d6000803e3d6000fd5b505050602060405103519050600073ffffffffffffffffffffffffffffffffffffffff168173ffffffffffffffffffffffffffffffffffffffff1603610729576040517f08c379a000000000000000000000000000000000000000000000000000000000815260040161072090612df6565b60405180910390fd5b8360e00151421115610770576040517f08c379a000000000000000000000000000000000000000000000000000000000815260040161076790612e62565b60405180910390fd5b6040518060400160405280600681526020017f74656e646572000000000000000000000000000000000000000000000000000081525080519060200120846060015180519060200120036108a057600360009054906101000a900473ffffffffffffffffffffffffffffffffffffffff1673ffffffffffffffffffffffffffffffffffffffff16634756331e8560000151836040518363ffffffff1660e01b815260040161081f929190612e82565b602060405180830381865afa15801561083c573d6000803e3d6000fd5b505050506040513d601f19601f820116820180604052508101906108609190612eea565b61089f576040517f08c379a000000000000000000000000000000000000000000000000000000000815260040161089690612f89565b60405180910390fd5b5b60006040518060c001604052808373ffffffffffffffffffffffffffffffffffffffff168152602001866020015181526020018660400151815260200186606001518152602001866080015181526020014281525090506000856000015160405161090b9190612be7565b908152602001604051809103902060008373ffffffffffffffffffffffffffffffffffffffff1673ffffffffffffffffffffffffffffffffffffffff16815260200190815260200160002081908060018154018082558091505060019003906000526020600020906006020160009091909190915060008201518160000160006101000a81548173ffffffffffffffffffffffffffffffffffffffff021916908373ffffffffffffffffffffffffffffffffffffffff16021790555060208201518160010190816109dc919061314b565b5060408201518160020190816109f2919061314b565b506060820151816003019081610a08919061314b565b506080820151816004019081610a1e919061314b565b5060a0820151816005015550508160018660200151604051610a409190612be7565b908152602001604051809103902060006101000a81548173ffffffffffffffffffffffffffffffffffffffff021916908373ffffffffffffffffffffffffffffffffffffffff160217905550600360009054906101000a900473ffffffffffffffffffffffffffffffffffffffff1673ffffffffffffffffffffffffffffffffffffffff16634756331e8660000151846040518363ffffffff1660e01b8152600401610aed929190612e82565b602060405180830381865afa158015610b0a573d6000803e3d6000fd5b505050506040513d601f19601f82011682018060405250810190610b2e9190612eea565b158015610bda5750600360009054906101000a900473ffffffffffffffffffffffffffffffffffffffff1673ffffffffffffffffffffffffffffffffffffffff1663e4afd7c08660000151846040518363ffffffff1660e01b8152600401610b97929190612e82565b602060405180830381865afa158015610bb4573d6000803e3d6000fd5b505050506040513d601f19601f82011682018060405250810190610bd89190612eea565b155b15610c7f57600360009054906101000a900473ffffffffffffffffffffffffffffffffffffffff1673ffffffffffffffffffffffffffffffffffffffff1663061ff43586600001518760a001518860c00151866040518563ffffffff1660e01b8152600401610c4c949392919061321d565b600060405180830381600087803b158015610c6657600080fd5b505af1158015610c7a573d6000803e3d6000fd5b505050505b8173ffffffffffffffffffffffffffffffffffffffff168560000151604051610ca89190612be7565b60405180910390207f963ec0ad3d85928f4a4df0b4ad4eab4fea9a19714adeea20c726acd664544c448760200151886040015142604051610ceb93929190612b66565b60405180910390a35050505050565b6060600282604051610d0c9190612be7565b9081526020016040518091039020805480602002602001604051908101604052809291908181526020016000905b8282101561101457838290600052602060002090600602016040518060c00160405290816000820160009054906101000a900473ffffffffffffffffffffffffffffffffffffffff1673ffffffffffffffffffffffffffffffffffffffff1673ffffffffffffffffffffffffffffffffffffffff168152602001600182018054610dc390612c2d565b80601f0160208091040260200160405190810160405280929190818152602001828054610def90612c2d565b8015610e3c5780601f10610e1157610100808354040283529160200191610e3c565b820191906000526020600020905b815481529060010190602001808311610e1f57829003601f168201915b50505050508152602001600282018054610e5590612c2d565b80601f0160208091040260200160405190810160405280929190818152602001828054610e8190612c2d565b8015610ece5780601f10610ea357610100808354040283529160200191610ece565b820191906000526020600020905b815481529060010190602001808311610eb157829003601f168201915b50505050508152602001600382018054610ee790612c2d565b80601f0160208091040260200160405190810160405280929190818152602001828054610f1390612c2d565b8015610f605780601f10610f3557610100808354040283529160200191610f60565b820191906000526020600020905b815481529060010190602001808311610f4357829003601f168201915b50505050508152602001600482018054610f7990612c2d565b80601f0160208091040260200160405190810160405280929190818152602001828054610fa590612c2d565b8015610ff25780601f10610fc757610100808354040283529160200191610ff2565b820191906000526020600020905b815481529060010190602001808311610fd557829003601f168201915b5050505050815260200160058201548152505081526020019060010190610d3a565b505050509050919050565b6000816000015182604001518360e0015160405160200161104293929190612c7f565b60405160208183030381529060405280519060200120905060008160405160200161106d9190612d21565b6040516020818303038152906040528051906020012090506000600182856101000151866101200151876101400151604051600081526020016040526040516110b99493929190612d65565b6020604051602081039080840390855afa1580156110db573d6000803e3d6000fd5b505050602060405103519050600073ffffffffffffffffffffffffffffffffffffffff168173ffffffffffffffffffffffffffffffffffffffff1603611156576040517f08c379a000000000000000000000000000000000000000000000000000000000815260040161114d90612df6565b60405180910390fd5b8360e0015142111561119d576040517f08c379a000000000000000000000000000000000000000000000000000000000815260040161119490612e62565b60405180910390fd5b8073ffffffffffffffffffffffffffffffffffffffff16600360009054906101000a900473ffffffffffffffffffffffffffffffffffffffff1673ffffffffffffffffffffffffffffffffffffffff16634aaf4a1286600001516040518263ffffffff1660e01b81526004016112139190613277565b602060405180830381865afa158015611230573d6000803e3d6000fd5b505050506040513d601f19601f8201168201806040525081019061125491906132ae565b73ffffffffffffffffffffffffffffffffffffffff16146112aa576040517f08c379a00000000000000000000000000000000000000000000000000000000081526004016112a19061334d565b60405180910390fd5b60006040518060c001604052808373ffffffffffffffffffffffffffffffffffffffff16815260200186602001518152602001866040015181526020016040518060400160405280600481526020017f696e666f00000000000000000000000000000000000000000000000000000000815250815260200186608001518152602001428152509050600285600001516040516113469190612be7565b908152602001604051809103902081908060018154018082558091505060019003906000526020600020906006020160009091909190915060008201518160000160006101000a81548173ffffffffffffffffffffffffffffffffffffffff021916908373ffffffffffffffffffffffffffffffffffffffff16021790555060208201518160010190816113da919061314b565b5060408201518160020190816113f0919061314b565b506060820151816003019081611406919061314b565b50608082015181600401908161141c919061314b565b5060a082015181600501555050816001866020015160405161143e9190612be7565b908152602001604051809103902060006101000a81548173ffffffffffffffffffffffffffffffffffffffff021916908373ffffffffffffffffffffffffffffffffffffffff1602179055508173ffffffffffffffffffffffffffffffffffffffff1685600001516040516114b39190612be7565b60405180910390207f963ec0ad3d85928f4a4df0b4ad4eab4fea9a19714adeea20c726acd664544c4487602001518860400151426040516114f693929190612b66565b60405180910390a35050505050565b600083805160208101820180518482526020830160208501208183528095505050505050602052816000526040600020818154811061154357600080fd5b906000526020600020906006020160009250925050508060000160009054906101000a900473ffffffffffffffffffffffffffffffffffffffff169080600101805461158e90612c2d565b80601f01602080910402602001604051908101604052809291908181526020018280546115ba90612c2d565b80156116075780601f106115dc57610100808354040283529160200191611607565b820191906000526020600020905b8154815290600101906020018083116115ea57829003601f168201915b50505050509080600201805461161c90612c2d565b80601f016020809104026020016040519081016040528092919081815260200182805461164890612c2d565b80156116955780601f1061166a57610100808354040283529160200191611695565b820191906000526020600020905b81548152906001019060200180831161167857829003601f168201915b5050505050908060030180546116aa90612c2d565b80601f01602080910402602001604051908101604052809291908181526020018280546116d690612c2d565b80156117235780601f106116f857610100808354040283529160200191611723565b820191906000526020600020905b81548152906001019060200180831161170657829003601f168201915b50505050509080600401805461173890612c2d565b80601f016020809104026020016040519081016040528092919081815260200182805461176490612c2d565b80156117b15780601f10611786576101008083540402835291602001916117b1565b820191906000526020600020905b81548152906001019060200180831161179457829003601f168201915b5050505050908060050154905086565b600360009054906101000a900473ffffffffffffffffffffffffffffffffffffffff1681565b60006001826040516117f99190612be7565b908152602001604051809103902060009054906101000a900473ffffffffffffffffffffffffffffffffffffffff169050919050565b600282805160208101820180518482526020830160208501208183528095505050505050818154811061186157600080fd5b9060005260206000209060060201600091509150508060000160009054906101000a900473ffffffffffffffffffffffffffffffffffffffff16908060010180546118ab90612c2d565b80601f01602080910402602001604051908101604052809291908181526020018280546118d790612c2d565b80156119245780601f106118f957610100808354040283529160200191611924565b820191906000526020600020905b81548152906001019060200180831161190757829003601f168201915b50505050509080600201805461193990612c2d565b80601f016020809104026020016040519081016040528092919081815260200182805461196590612c2d565b80156119b25780601f10611987576101008083540402835291602001916119b2565b820191906000526020600020905b81548152906001019060200180831161199557829003601f168201915b5050505050908060030180546119c790612c2d565b80601f01602080910402602001604051908101604052809291908181526020018280546119f390612c2d565b8015611a405780601f10611a1557610100808354040283529160200191611a40565b820191906000526020600020905b815481529060010190602001808311611a2357829003601f168201915b505050505090806004018054611a5590612c2d565b80601f0160208091040260200160405190810160405280929190818152602001828054611a8190612c2d565b8015611ace5780601f10611aa357610100808354040283529160200191611ace565b820191906000526020600020905b815481529060010190602001808311611ab157829003601f168201915b5050505050908060050154905086565b6060600083604051611af09190612be7565b908152602001604051809103902060008373ffffffffffffffffffffffffffffffffffffffff1673ffffffffffffffffffffffffffffffffffffffff168152602001908152602001600020805480602002602001604051908101604052809291908181526020016000905b82821015611e3557838290600052602060002090600602016040518060c00160405290816000820160009054906101000a900473ffffffffffffffffffffffffffffffffffffffff1673ffffffffffffffffffffffffffffffffffffffff1673ffffffffffffffffffffffffffffffffffffffff168152602001600182018054611be490612c2d565b80601f0160208091040260200160405190810160405280929190818152602001828054611c1090612c2d565b8015611c5d5780601f10611c3257610100808354040283529160200191611c5d565b820191906000526020600020905b815481529060010190602001808311611c4057829003601f168201915b50505050508152602001600282018054611c7690612c2d565b80601f0160208091040260200160405190810160405280929190818152602001828054611ca290612c2d565b8015611cef5780601f10611cc457610100808354040283529160200191611cef565b820191906000526020600020905b815481529060010190602001808311611cd257829003601f168201915b50505050508152602001600382018054611d0890612c2d565b80601f0160208091040260200160405190810160405280929190818152602001828054611d3490612c2d565b8015611d815780601f10611d5657610100808354040283529160200191611d81565b820191906000526020600020905b815481529060010190602001808311611d6457829003601f168201915b50505050508152602001600482018054611d9a90612c2d565b80601f0160208091040260200160405190810160405280929190818152602001828054611dc690612c2d565b8015611e135780601f10611de857610100808354040283529160200191611e13565b820191906000526020600020905b815481529060010190602001808311611df657829003601f168201915b5050505050815260200160058201548152505081526020019060010190611b5b565b50505050905092915050565b606080600080600086604051611e579190612be7565b908152602001604051809103902060003373ffffffffffffffffffffffffffffffffffffffff1673ffffffffffffffffffffffffffffffffffffffff1681526020019081526020016000208581548110611eb457611eb361336d565b5b90600052602060002090600602016040518060c00160405290816000820160009054906101000a900473ffffffffffffffffffffffffffffffffffffffff1673ffffffffffffffffffffffffffffffffffffffff1673ffffffffffffffffffffffffffffffffffffffff168152602001600182018054611f3390612c2d565b80601f0160208091040260200160405190810160405280929190818152602001828054611f5f90612c2d565b8015611fac5780601f10611f8157610100808354040283529160200191611fac565b820191906000526020600020905b815481529060010190602001808311611f8f57829003601f168201915b50505050508152602001600282018054611fc590612c2d565b80601f0160208091040260200160405190810160405280929190818152602001828054611ff190612c2d565b801561203e5780601f106120135761010080835404028352916020019161203e565b820191906000526020600020905b81548152906001019060200180831161202157829003601f168201915b5050505050815260200160038201805461205790612c2d565b80601f016020809104026020016040519081016040528092919081815260200182805461208390612c2d565b80156120d05780601f106120a5576101008083540402835291602001916120d0565b820191906000526020600020905b8154815290600101906020018083116120b357829003601f168201915b505050505081526020016004820180546120e990612c2d565b80601f016020809104026020016040519081016040528092919081815260200182805461211590612c2d565b80156121625780601f1061213757610100808354040283529160200191612162565b820191906000526020600020905b81548152906001019060200180831161214557829003601f168201915b505050505081526020016005820154815250509050806020015181604001518260a00151935093509350509250925092565b6001818051602081018201805184825260208301602085012081835280955050505050506000915054906101000a900473ffffffffffffffffffffffffffffffffffffffff1681565b6000604051905090565b600080fd5b600080fd5b600080fd5b600080fd5b6000601f19601f8301169050919050565b7f4e487b7100000000000000000000000000000000000000000000000000000000600052604160045260246000fd5b612244826121fb565b810181811067ffffffffffffffff821117156122635761226261220c565b5b80604052505050565b60006122766121dd565b9050612282828261223b565b919050565b600067ffffffffffffffff8211156122a2576122a161220c565b5b6122ab826121fb565b9050602081019050919050565b82818337600083830152505050565b60006122da6122d584612287565b61226c565b9050828152602081018484840111156122f6576122f56121f6565b5b6123018482856122b8565b509392505050565b600082601f83011261231e5761231d6121f1565b5b813561232e8482602086016122c7565b91505092915050565b60006020828403121561234d5761234c6121e7565b5b600082013567ffffffffffffffff81111561236b5761236a6121ec565b5b61237784828501612309565b91505092915050565b600081519050919050565b600082825260208201905092915050565b6000819050602082019050919050565b600073ffffffffffffffffffffffffffffffffffffffff82169050919050565b60006123d7826123ac565b9050919050565b6123e7816123cc565b82525050565b600081519050919050565b600082825260208201905092915050565b60005b8381101561242757808201518184015260208101905061240c565b60008484015250505050565b600061243e826123ed565b61244881856123f8565b9350612458818560208601612409565b612461816121fb565b840191505092915050565b6000819050919050565b61247f8161246c565b82525050565b600060c08301600083015161249d60008601826123de565b50602083015184820360208601526124b58282612433565b915050604083015184820360408601526124cf8282612433565b915050606083015184820360608601526124e98282612433565b915050608083015184820360808601526125038282612433565b91505060a083015161251860a0860182612476565b508091505092915050565b600061252f8383612485565b905092915050565b6000602082019050919050565b600061254f82612380565b612559818561238b565b93508360208202850161256b8561239c565b8060005b858110156125a757848403895281516125888582612523565b945061259383612537565b925060208a0199505060018101905061256f565b50829750879550505050505092915050565b600060208201905081810360008301526125d38184612544565b905092915050565b600080fd5b600080fd5b6125ee8161246c565b81146125f957600080fd5b50565b60008135905061260b816125e5565b92915050565b600060ff82169050919050565b61262781612611565b811461263257600080fd5b50565b6000813590506126448161261e565b92915050565b6000819050919050565b61265d8161264a565b811461266857600080fd5b50565b60008135905061267a81612654565b92915050565b60006101608284031215612697576126966125db565b5b6126a261016061226c565b9050600082013567ffffffffffffffff8111156126c2576126c16125e0565b5b6126ce84828501612309565b600083015250602082013567ffffffffffffffff8111156126f2576126f16125e0565b5b6126fe84828501612309565b602083015250604082013567ffffffffffffffff811115612722576127216125e0565b5b61272e84828501612309565b604083015250606082013567ffffffffffffffff811115612752576127516125e0565b5b61275e84828501612309565b606083015250608082013567ffffffffffffffff811115612782576127816125e0565b5b61278e84828501612309565b60808301525060a082013567ffffffffffffffff8111156127b2576127b16125e0565b5b6127be84828501612309565b60a08301525060c082013567ffffffffffffffff8111156127e2576127e16125e0565b5b6127ee84828501612309565b60c08301525060e0612802848285016125fc565b60e08301525061010061281784828501612635565b6101008301525061012061282d8482850161266b565b610120830152506101406128438482850161266b565b6101408301525092915050565b600060208284031215612866576128656121e7565b5b600082013567ffffffffffffffff811115612884576128836121ec565b5b61289084828501612680565b91505092915050565b6128a2816123cc565b81146128ad57600080fd5b50565b6000813590506128bf81612899565b92915050565b6000806000606084860312156128de576128dd6121e7565b5b600084013567ffffffffffffffff8111156128fc576128fb6121ec565b5b61290886828701612309565b9350506020612919868287016128b0565b925050604061292a868287016125fc565b9150509250925092565b61293d816123cc565b82525050565b600082825260208201905092915050565b600061295f826123ed565b6129698185612943565b9350612979818560208601612409565b612982816121fb565b840191505092915050565b6129968161246c565b82525050565b600060c0820190506129b16000830189612934565b81810360208301526129c38188612954565b905081810360408301526129d78187612954565b905081810360608301526129eb8186612954565b905081810360808301526129ff8185612954565b9050612a0e60a083018461298d565b979650505050505050565b6000819050919050565b6000612a3e612a39612a34846123ac565b612a19565b6123ac565b9050919050565b6000612a5082612a23565b9050919050565b6000612a6282612a45565b9050919050565b612a7281612a57565b82525050565b6000602082019050612a8d6000830184612a69565b92915050565b6000602082019050612aa86000830184612934565b92915050565b60008060408385031215612ac557612ac46121e7565b5b600083013567ffffffffffffffff811115612ae357612ae26121ec565b5b612aef85828601612309565b9250506020612b00858286016125fc565b9150509250929050565b60008060408385031215612b2157612b206121e7565b5b600083013567ffffffffffffffff811115612b3f57612b3e6121ec565b5b612b4b85828601612309565b9250506020612b5c858286016128b0565b9150509250929050565b60006060820190508181036000830152612b808186612954565b90508181036020830152612b948185612954565b9050612ba3604083018461298d565b949350505050565b600081905092915050565b6000612bc1826123ed565b612bcb8185612bab565b9350612bdb818560208601612409565b80840191505092915050565b6000612bf38284612bb6565b915081905092915050565b7f4e487b7100000000000000000000000000000000000000000000000000000000600052602260045260246000fd5b60006002820490506001821680612c4557607f821691505b602082108103612c5857612c57612bfe565b5b50919050565b6000819050919050565b612c79612c748261246c565b612c5e565b82525050565b6000612c8b8286612bb6565b9150612c978285612bb6565b9150612ca38284612c68565b602082019150819050949350505050565b7f19457468657265756d205369676e6564204d6573736167653a0a333200000000600082015250565b6000612cea601c83612bab565b9150612cf582612cb4565b601c82019050919050565b6000819050919050565b612d1b612d168261264a565b612d00565b82525050565b6000612d2c82612cdd565b9150612d388284612d0a565b60208201915081905092915050565b612d508161264a565b82525050565b612d5f81612611565b82525050565b6000608082019050612d7a6000830187612d47565b612d876020830186612d56565b612d946040830185612d47565b612da16060830184612d47565b95945050505050565b7f496e76616c6964207369676e6174757265000000000000000000000000000000600082015250565b6000612de0601183612943565b9150612deb82612daa565b602082019050919050565b60006020820190508181036000830152612e0f81612dd3565b9050919050565b7f5369676e61747572652065787069726564000000000000000000000000000000600082015250565b6000612e4c601183612943565b9150612e5782612e16565b602082019050919050565b60006020820190508181036000830152612e7b81612e3f565b9050919050565b60006040820190508181036000830152612e9c8185612954565b9050612eab6020830184612934565b9392505050565b60008115159050919050565b612ec781612eb2565b8114612ed257600080fd5b50565b600081519050612ee481612ebe565b92915050565b600060208284031215612f0057612eff6121e7565b5b6000612f0e84828501612ed5565b91505092915050565b7f4f6e6c79207061727469636970616e74732063616e2075706c6f61642074656e60008201527f64657220646f63756d656e747300000000000000000000000000000000000000602082015250565b6000612f73602d83612943565b9150612f7e82612f17565b604082019050919050565b60006020820190508181036000830152612fa281612f66565b9050919050565b60008190508160005260206000209050919050565b60006020601f8301049050919050565b600082821b905092915050565b60006008830261300b7fffffffffffffffffffffffffffffffffffffffffffffffffffffffffffffffff82612fce565b6130158683612fce565b95508019841693508086168417925050509392505050565b600061304861304361303e8461246c565b612a19565b61246c565b9050919050565b6000819050919050565b6130628361302d565b61307661306e8261304f565b848454612fdb565b825550505050565b600090565b61308b61307e565b613096818484613059565b505050565b5b818110156130ba576130af600082613083565b60018101905061309c565b5050565b601f8211156130ff576130d081612fa9565b6130d984612fbe565b810160208510156130e8578190505b6130fc6130f485612fbe565b83018261309b565b50505b505050565b600082821c905092915050565b600061312260001984600802613104565b1980831691505092915050565b600061313b8383613111565b9150826002028217905092915050565b613154826123ed565b67ffffffffffffffff81111561316d5761316c61220c565b5b6131778254612c2d565b6131828282856130be565b600060209050601f8311600181146131b557600084156131a3578287015190505b6131ad858261312f565b865550613215565b601f1984166131c386612fa9565b60005b828110156131eb578489015182556001820191506020850194506020810190506131c6565b868310156132085784890151613204601f891682613111565b8355505b6001600288020188555050505b505050505050565b600060808201905081810360008301526132378187612954565b9050818103602083015261324b8186612954565b9050818103604083015261325f8185612954565b905061326e6060830184612934565b95945050505050565b600060208201905081810360008301526132918184612954565b905092915050565b6000815190506132a881612899565b92915050565b6000602082840312156132c4576132c36121e7565b5b60006132d284828501613299565b91505092915050565b7f4f6e6c792074656e646572206f776e65722063616e2075706c6f61642074656e60008201527f64657220696e666f20646f63756d656e74730000000000000000000000000000602082015250565b6000613337603283612943565b9150613342826132db565b604082019050919050565b600060208201905081810360008301526133668161332a565b9050919050565b7f4e487b7100000000000000000000000000000000000000000000000000000000600052603260045260246000fdfea2646970667358221220eee9c442ce9c436ce5978f97e04d2eb7501a72d1727e2def43bcc912805f65cd64736f6c634300081c0033",
  "linkReferences": {},
  "deployedLinkReferences": {}
}