{
  "_format": "hh-sol-artifact-1",
  "contractName": "DocumentStore",
  "sourceName": "contracts/DocumentStore.sol",
  "abi": [
    {
      "inputs": [
        {
          "internalType": "address",
          "name": "tenderManagerAddress",
          "type": "address"
        }
      ],
      "stateMutability": "nonpayable",
      "type": "constructor"
    },
    {
      "anonymous": false,
      "inputs": [
        {
          "indexed": true,
          "internalType": "string",
          "name": "tenderId",
          "type": "string"
        },
        {
          "indexed": true,
          "internalType": "address",
          "name": "contestant",
          "type": "address"
        },
        {
          "indexed": false,
          "internalType": "string",
          "name": "documentCid",
          "type": "string"
        },
        {
          "indexed": false,
          "internalType": "string",
          "name": "documentName",
          "type": "string"
        },
        {
          "indexed": false,
          "internalType": "uint256",
          "name": "submissionDate",
          "type": "uint256"
        }
      ],
      "name": "DocumentUploaded",
      "type": "event"
    },
    {
      "inputs": [
        {
          "internalType": "string",
          "name": "tenderId",
          "type": "string"
        },
        {
          "internalType": "address",
          "name": "user",
          "type": "address"
        },
        {
          "internalType": "uint256",
          "name": "index",
          "type": "uint256"
        }
      ],
      "name": "getDocumentOfUserAsOwner",
      "outputs": [
        {
          "internalType": "string",
          "name": "",
          "type": "string"
        },
        {
          "internalType": "string",
          "name": "",
          "type": "string"
        },
        {
          "internalType": "uint256",
          "name": "",
          "type": "uint256"
        }
      ],
      "stateMutability": "view",
      "type": "function"
    },
    {
      "inputs": [
        {
          "internalType": "string",
          "name": "tenderId",
          "type": "string"
        },
        {
          "internalType": "address",
          "name": "user",
          "type": "address"
        }
      ],
      "name": "getDocumentsOfTenderAsOwner",
      "outputs": [
        {
          "components": [
            {
              "internalType": "string",
              "name": "documentCid",
              "type": "string"
            },
            {
              "internalType": "string",
              "name": "documentName",
              "type": "string"
            },
            {
              "internalType": "string",
              "name": "documentType",
              "type": "string"
            },
            {
              "internalType": "uint256",
              "name": "submissionDate",
              "type": "uint256"
            }
          ],
          "internalType": "struct DocumentStore.Document[]",
          "name": "",
          "type": "tuple[]"
        }
      ],
      "stateMutability": "view",
      "type": "function"
    },
    {
      "inputs": [
        {
          "internalType": "string",
          "name": "tenderId",
          "type": "string"
        },
        {
          "internalType": "uint256",
          "name": "index",
          "type": "uint256"
        }
      ],
      "name": "getMyDocument",
      "outputs": [
        {
          "internalType": "string",
          "name": "",
          "type": "string"
        },
        {
          "internalType": "string",
          "name": "",
          "type": "string"
        },
        {
          "internalType": "uint256",
          "name": "",
          "type": "uint256"
        }
      ],
      "stateMutability": "view",
      "type": "function"
    },
    {
      "inputs": [
        {
          "internalType": "string",
          "name": "tenderId",
          "type": "string"
        }
      ],
      "name": "getMyDocuments",
      "outputs": [
        {
          "components": [
            {
              "internalType": "string",
              "name": "documentCid",
              "type": "string"
            },
            {
              "internalType": "string",
              "name": "documentName",
              "type": "string"
            },
            {
              "internalType": "string",
              "name": "documentType",
              "type": "string"
            },
            {
              "internalType": "uint256",
              "name": "submissionDate",
              "type": "uint256"
            }
          ],
          "internalType": "struct DocumentStore.Document[]",
          "name": "",
          "type": "tuple[]"
        }
      ],
      "stateMutability": "view",
      "type": "function"
    },
    {
      "inputs": [
        {
          "internalType": "string",
          "name": "",
          "type": "string"
        },
        {
          "internalType": "address",
          "name": "",
          "type": "address"
        },
        {
          "internalType": "uint256",
          "name": "",
          "type": "uint256"
        }
      ],
      "name": "tenderDocuments",
      "outputs": [
        {
          "internalType": "string",
          "name": "documentCid",
          "type": "string"
        },
        {
          "internalType": "string",
          "name": "documentName",
          "type": "string"
        },
        {
          "internalType": "string",
          "name": "documentType",
          "type": "string"
        },
        {
          "internalType": "uint256",
          "name": "submissionDate",
          "type": "uint256"
        }
      ],
      "stateMutability": "view",
      "type": "function"
    },
    {
      "inputs": [],
      "name": "tenderManager",
      "outputs": [
        {
          "internalType": "contract ITenderManager",
          "name": "",
          "type": "address"
        }
      ],
      "stateMutability": "view",
      "type": "function"
    },
    {
      "inputs": [
        {
          "internalType": "string",
          "name": "tenderId",
          "type": "string"
        },
        {
          "internalType": "address",
          "name": "contestant",
          "type": "address"
        },
        {
          "internalType": "string",
          "name": "documentCid",
          "type": "string"
        },
        {
          "internalType": "string",
          "name": "documentName",
          "type": "string"
        },
        {
          "internalType": "string",
          "name": "documentType",
          "type": "string"
        }
      ],
      "name": "uploadDocument",
      "outputs": [],
      "stateMutability": "nonpayable",
      "type": "function"
    }
  ],
  "bytecode": "0x608060405234801561001057600080fd5b506040516121ca3803806121ca833981810160405281019061003291906100dc565b80600160006101000a81548173ffffffffffffffffffffffffffffffffffffffff021916908373ffffffffffffffffffffffffffffffffffffffff16021790555050610109565b600080fd5b600073ffffffffffffffffffffffffffffffffffffffff82169050919050565b60006100a98261007e565b9050919050565b6100b98161009e565b81146100c457600080fd5b50565b6000815190506100d6816100b0565b92915050565b6000602082840312156100f2576100f1610079565b5b6000610100848285016100c7565b91505092915050565b6120b2806101186000396000f3fe608060405234801561001057600080fd5b506004361061007d5760003560e01c80637f9bb7811161005b5780637f9bb781146101145780637fa6368414610147578063a06a72f514610163578063f983829c146101815761007d565b8063180d60b3146100825780633e823f07146100b25780637c4fb190146100e2575b600080fd5b61009c6004803603810190610097919061153a565b6101b3565b6040516100a99190611761565b60405180910390f35b6100cc60048036038101906100c79190611783565b610537565b6040516100d99190611761565b60405180910390f35b6100fc60048036038101906100f791906117f8565b6107b1565b60405161010b939291906118c0565b60405180910390f35b61012e600480360381019061012991906117f8565b610b27565b60405161013e9493929190611905565b60405180910390f35b610161600480360381019061015c919061195f565b610d2f565b005b61016b6110f1565b6040516101789190611aa9565b60405180910390f35b61019b60048036038101906101969190611ac4565b611117565b6040516101aa939291906118c0565b60405180910390f35b60603373ffffffffffffffffffffffffffffffffffffffff16600160009054906101000a900473ffffffffffffffffffffffffffffffffffffffff1673ffffffffffffffffffffffffffffffffffffffff16634aaf4a12856040518263ffffffff1660e01b81526004016102279190611b20565b602060405180830381865afa158015610244573d6000803e3d6000fd5b505050506040513d601f19601f820116820180604052508101906102689190611b57565b73ffffffffffffffffffffffffffffffffffffffff16146102be576040517f08c379a00000000000000000000000000000000000000000000000000000000081526004016102b590611bd0565b60405180910390fd5b6000836040516102ce9190611c2c565b908152602001604051809103902060008373ffffffffffffffffffffffffffffffffffffffff1673ffffffffffffffffffffffffffffffffffffffff168152602001908152602001600020805480602002602001604051908101604052809291908181526020016000905b8282101561052b578382906000526020600020906004020160405180608001604052908160008201805461036c90611c72565b80601f016020809104026020016040519081016040528092919081815260200182805461039890611c72565b80156103e55780601f106103ba576101008083540402835291602001916103e5565b820191906000526020600020905b8154815290600101906020018083116103c857829003601f168201915b505050505081526020016001820180546103fe90611c72565b80601f016020809104026020016040519081016040528092919081815260200182805461042a90611c72565b80156104775780601f1061044c57610100808354040283529160200191610477565b820191906000526020600020905b81548152906001019060200180831161045a57829003601f168201915b5050505050815260200160028201805461049090611c72565b80601f01602080910402602001604051908101604052809291908181526020018280546104bc90611c72565b80156105095780601f106104de57610100808354040283529160200191610509565b820191906000526020600020905b8154815290600101906020018083116104ec57829003601f168201915b5050505050815260200160038201548152505081526020019060010190610339565b50505050905092915050565b60606000826040516105499190611c2c565b908152602001604051809103902060003373ffffffffffffffffffffffffffffffffffffffff1673ffffffffffffffffffffffffffffffffffffffff168152602001908152602001600020805480602002602001604051908101604052809291908181526020016000905b828210156107a657838290600052602060002090600402016040518060800160405290816000820180546105e790611c72565b80601f016020809104026020016040519081016040528092919081815260200182805461061390611c72565b80156106605780601f1061063557610100808354040283529160200191610660565b820191906000526020600020905b81548152906001019060200180831161064357829003601f168201915b5050505050815260200160018201805461067990611c72565b80601f01602080910402602001604051908101604052809291908181526020018280546106a590611c72565b80156106f25780601f106106c7576101008083540402835291602001916106f2565b820191906000526020600020905b8154815290600101906020018083116106d557829003601f168201915b5050505050815260200160028201805461070b90611c72565b80601f016020809104026020016040519081016040528092919081815260200182805461073790611c72565b80156107845780601f1061075957610100808354040283529160200191610784565b820191906000526020600020905b81548152906001019060200180831161076757829003601f168201915b50505050508152602001600382015481525050815260200190600101906105b4565b505050509050919050565b60608060003373ffffffffffffffffffffffffffffffffffffffff16600160009054906101000a900473ffffffffffffffffffffffffffffffffffffffff1673ffffffffffffffffffffffffffffffffffffffff16634aaf4a12886040518263ffffffff1660e01b81526004016108289190611b20565b602060405180830381865afa158015610845573d6000803e3d6000fd5b505050506040513d601f19601f820116820180604052508101906108699190611b57565b73ffffffffffffffffffffffffffffffffffffffff16146108bf576040517f08c379a00000000000000000000000000000000000000000000000000000000081526004016108b690611bd0565b60405180910390fd5b600080876040516108d09190611c2c565b908152602001604051809103902060008773ffffffffffffffffffffffffffffffffffffffff1673ffffffffffffffffffffffffffffffffffffffff168152602001908152602001600020858154811061092d5761092c611ca3565b5b906000526020600020906004020160405180608001604052908160008201805461095690611c72565b80601f016020809104026020016040519081016040528092919081815260200182805461098290611c72565b80156109cf5780601f106109a4576101008083540402835291602001916109cf565b820191906000526020600020905b8154815290600101906020018083116109b257829003601f168201915b505050505081526020016001820180546109e890611c72565b80601f0160208091040260200160405190810160405280929190818152602001828054610a1490611c72565b8015610a615780601f10610a3657610100808354040283529160200191610a61565b820191906000526020600020905b815481529060010190602001808311610a4457829003601f168201915b50505050508152602001600282018054610a7a90611c72565b80601f0160208091040260200160405190810160405280929190818152602001828054610aa690611c72565b8015610af35780601f10610ac857610100808354040283529160200191610af3565b820191906000526020600020905b815481529060010190602001808311610ad657829003601f168201915b5050505050815260200160038201548152505090508060000151816020015182606001519350935093505093509350939050565b6000838051602081018201805184825260208301602085012081835280955050505050506020528160005260406000208181548110610b6557600080fd5b90600052602060002090600402016000925092505050806000018054610b8a90611c72565b80601f0160208091040260200160405190810160405280929190818152602001828054610bb690611c72565b8015610c035780601f10610bd857610100808354040283529160200191610c03565b820191906000526020600020905b815481529060010190602001808311610be657829003601f168201915b505050505090806001018054610c1890611c72565b80601f0160208091040260200160405190810160405280929190818152602001828054610c4490611c72565b8015610c915780601f10610c6657610100808354040283529160200191610c91565b820191906000526020600020905b815481529060010190602001808311610c7457829003601f168201915b505050505090806002018054610ca690611c72565b80601f0160208091040260200160405190810160405280929190818152602001828054610cd290611c72565b8015610d1f5780601f10610cf457610100808354040283529160200191610d1f565b820191906000526020600020905b815481529060010190602001808311610d0257829003601f168201915b5050505050908060030154905084565b6040518060400160405280600681526020017f74656e646572000000000000000000000000000000000000000000000000000081525080519060200120818051906020012003610e5757600160009054906101000a900473ffffffffffffffffffffffffffffffffffffffff1673ffffffffffffffffffffffffffffffffffffffff16634756331e86866040518363ffffffff1660e01b8152600401610dd6929190611ce1565b602060405180830381865afa158015610df3573d6000803e3d6000fd5b505050506040513d601f19601f82011682018060405250810190610e179190611d49565b610e56576040517f08c379a0000000000000000000000000000000000000000000000000000000008152600401610e4d90611de8565b60405180910390fd5b5b60006040518060800160405280858152602001848152602001838152602001428152509050600086604051610e8c9190611c2c565b908152602001604051809103902060008673ffffffffffffffffffffffffffffffffffffffff1673ffffffffffffffffffffffffffffffffffffffff1681526020019081526020016000208190806001815401808255809150506001900390600052602060002090600402016000909190919091506000820151816000019081610f169190611faa565b506020820151816001019081610f2c9190611faa565b506040820151816002019081610f429190611faa565b50606082015181600301555050600160009054906101000a900473ffffffffffffffffffffffffffffffffffffffff1673ffffffffffffffffffffffffffffffffffffffff16634756331e87876040518363ffffffff1660e01b8152600401610fac929190611ce1565b602060405180830381865afa158015610fc9573d6000803e3d6000fd5b505050506040513d601f19601f82011682018060405250810190610fed9190611d49565b61108157600160009054906101000a900473ffffffffffffffffffffffffffffffffffffffff1673ffffffffffffffffffffffffffffffffffffffff1663e713406887876040518363ffffffff1660e01b815260040161104e929190611ce1565b600060405180830381600087803b15801561106857600080fd5b505af115801561107c573d6000803e3d6000fd5b505050505b8473ffffffffffffffffffffffffffffffffffffffff16866040516110a69190611c2c565b60405180910390207f963ec0ad3d85928f4a4df0b4ad4eab4fea9a19714adeea20c726acd664544c448686426040516110e1939291906118c0565b60405180910390a3505050505050565b600160009054906101000a900473ffffffffffffffffffffffffffffffffffffffff1681565b60608060008060008660405161112d9190611c2c565b908152602001604051809103902060003373ffffffffffffffffffffffffffffffffffffffff1673ffffffffffffffffffffffffffffffffffffffff168152602001908152602001600020858154811061118a57611189611ca3565b5b90600052602060002090600402016040518060800160405290816000820180546111b390611c72565b80601f01602080910402602001604051908101604052809291908181526020018280546111df90611c72565b801561122c5780601f106112015761010080835404028352916020019161122c565b820191906000526020600020905b81548152906001019060200180831161120f57829003601f168201915b5050505050815260200160018201805461124590611c72565b80601f016020809104026020016040519081016040528092919081815260200182805461127190611c72565b80156112be5780601f10611293576101008083540402835291602001916112be565b820191906000526020600020905b8154815290600101906020018083116112a157829003601f168201915b505050505081526020016002820180546112d790611c72565b80601f016020809104026020016040519081016040528092919081815260200182805461130390611c72565b80156113505780601f1061132557610100808354040283529160200191611350565b820191906000526020600020905b81548152906001019060200180831161133357829003601f168201915b505050505081526020016003820154815250509050806000015181602001518260600151935093509350509250925092565b6000604051905090565b600080fd5b600080fd5b600080fd5b600080fd5b6000601f19601f8301169050919050565b7f4e487b7100000000000000000000000000000000000000000000000000000000600052604160045260246000fd5b6113e9826113a0565b810181811067ffffffffffffffff82111715611408576114076113b1565b5b80604052505050565b600061141b611382565b905061142782826113e0565b919050565b600067ffffffffffffffff821115611447576114466113b1565b5b611450826113a0565b9050602081019050919050565b82818337600083830152505050565b600061147f61147a8461142c565b611411565b90508281526020810184848401111561149b5761149a61139b565b5b6114a684828561145d565b509392505050565b600082601f8301126114c3576114c2611396565b5b81356114d384826020860161146c565b91505092915050565b600073ffffffffffffffffffffffffffffffffffffffff82169050919050565b6000611507826114dc565b9050919050565b611517816114fc565b811461152257600080fd5b50565b6000813590506115348161150e565b92915050565b600080604083850312156115515761155061138c565b5b600083013567ffffffffffffffff81111561156f5761156e611391565b5b61157b858286016114ae565b925050602061158c85828601611525565b9150509250929050565b600081519050919050565b600082825260208201905092915050565b6000819050602082019050919050565b600081519050919050565b600082825260208201905092915050565b60005b838110156115fc5780820151818401526020810190506115e1565b60008484015250505050565b6000611613826115c2565b61161d81856115cd565b935061162d8185602086016115de565b611636816113a0565b840191505092915050565b6000819050919050565b61165481611641565b82525050565b600060808301600083015184820360008601526116778282611608565b915050602083015184820360208601526116918282611608565b915050604083015184820360408601526116ab8282611608565b91505060608301516116c0606086018261164b565b508091505092915050565b60006116d7838361165a565b905092915050565b6000602082019050919050565b60006116f782611596565b61170181856115a1565b935083602082028501611713856115b2565b8060005b8581101561174f578484038952815161173085826116cb565b945061173b836116df565b925060208a01995050600181019050611717565b50829750879550505050505092915050565b6000602082019050818103600083015261177b81846116ec565b905092915050565b6000602082840312156117995761179861138c565b5b600082013567ffffffffffffffff8111156117b7576117b6611391565b5b6117c3848285016114ae565b91505092915050565b6117d581611641565b81146117e057600080fd5b50565b6000813590506117f2816117cc565b92915050565b6000806000606084860312156118115761181061138c565b5b600084013567ffffffffffffffff81111561182f5761182e611391565b5b61183b868287016114ae565b935050602061184c86828701611525565b925050604061185d868287016117e3565b9150509250925092565b600082825260208201905092915050565b6000611883826115c2565b61188d8185611867565b935061189d8185602086016115de565b6118a6816113a0565b840191505092915050565b6118ba81611641565b82525050565b600060608201905081810360008301526118da8186611878565b905081810360208301526118ee8185611878565b90506118fd60408301846118b1565b949350505050565b6000608082019050818103600083015261191f8187611878565b905081810360208301526119338186611878565b905081810360408301526119478185611878565b905061195660608301846118b1565b95945050505050565b600080600080600060a0868803121561197b5761197a61138c565b5b600086013567ffffffffffffffff81111561199957611998611391565b5b6119a5888289016114ae565b95505060206119b688828901611525565b945050604086013567ffffffffffffffff8111156119d7576119d6611391565b5b6119e3888289016114ae565b935050606086013567ffffffffffffffff811115611a0457611a03611391565b5b611a10888289016114ae565b925050608086013567ffffffffffffffff811115611a3157611a30611391565b5b611a3d888289016114ae565b9150509295509295909350565b6000819050919050565b6000611a6f611a6a611a65846114dc565b611a4a565b6114dc565b9050919050565b6000611a8182611a54565b9050919050565b6000611a9382611a76565b9050919050565b611aa381611a88565b82525050565b6000602082019050611abe6000830184611a9a565b92915050565b60008060408385031215611adb57611ada61138c565b5b600083013567ffffffffffffffff811115611af957611af8611391565b5b611b05858286016114ae565b9250506020611b16858286016117e3565b9150509250929050565b60006020820190508181036000830152611b3a8184611878565b905092915050565b600081519050611b518161150e565b92915050565b600060208284031215611b6d57611b6c61138c565b5b6000611b7b84828501611b42565b91505092915050565b7f4f6e6c792074656e646572206f776e65722063616e2076696577207468697300600082015250565b6000611bba601f83611867565b9150611bc582611b84565b602082019050919050565b60006020820190508181036000830152611be981611bad565b9050919050565b600081905092915050565b6000611c06826115c2565b611c108185611bf0565b9350611c208185602086016115de565b80840191505092915050565b6000611c388284611bfb565b915081905092915050565b7f4e487b7100000000000000000000000000000000000000000000000000000000600052602260045260246000fd5b60006002820490506001821680611c8a57607f821691505b602082108103611c9d57611c9c611c43565b5b50919050565b7f4e487b7100000000000000000000000000000000000000000000000000000000600052603260045260246000fd5b611cdb816114fc565b82525050565b60006040820190508181036000830152611cfb8185611878565b9050611d0a6020830184611cd2565b9392505050565b60008115159050919050565b611d2681611d11565b8114611d3157600080fd5b50565b600081519050611d4381611d1d565b92915050565b600060208284031215611d5f57611d5e61138c565b5b6000611d6d84828501611d34565b91505092915050565b7f4f6e6c79207061727469636970616e74732063616e2075706c6f61642074656e60008201527f64657220646f63756d656e747300000000000000000000000000000000000000602082015250565b6000611dd2602d83611867565b9150611ddd82611d76565b604082019050919050565b60006020820190508181036000830152611e0181611dc5565b9050919050565b60008190508160005260206000209050919050565b60006020601f8301049050919050565b600082821b905092915050565b600060088302611e6a7fffffffffffffffffffffffffffffffffffffffffffffffffffffffffffffffff82611e2d565b611e748683611e2d565b95508019841693508086168417925050509392505050565b6000611ea7611ea2611e9d84611641565b611a4a565b611641565b9050919050565b6000819050919050565b611ec183611e8c565b611ed5611ecd82611eae565b848454611e3a565b825550505050565b600090565b611eea611edd565b611ef5818484611eb8565b505050565b5b81811015611f1957611f0e600082611ee2565b600181019050611efb565b5050565b601f821115611f5e57611f2f81611e08565b611f3884611e1d565b81016020851015611f47578190505b611f5b611f5385611e1d565b830182611efa565b50505b505050565b600082821c905092915050565b6000611f8160001984600802611f63565b1980831691505092915050565b6000611f9a8383611f70565b9150826002028217905092915050565b611fb3826115c2565b67ffffffffffffffff811115611fcc57611fcb6113b1565b5b611fd68254611c72565b611fe1828285611f1d565b600060209050601f8311600181146120145760008415612002578287015190505b61200c8582611f8e565b865550612074565b601f19841661202286611e08565b60005b8281101561204a57848901518255600182019150602085019450602081019050612025565b868310156120675784890151612063601f891682611f70565b8355505b6001600288020188555050505b50505050505056fea2646970667358221220ea1612f606950a4a41930c52d1812c8ddd94bbbfad62fd6ba366d0d7903e894564736f6c634300081c0033",
  "linkReferences": {},
  "deployedLinkReferences": {}
}