{
  "_format": "hh-sol-artifact-1",
  "contractName": "DocumentStore",
  "sourceName": "contracts/DocumentStore.sol",
  "abi": [
    {
      "inputs": [
        {
          "internalType": "address",
          "name": "tenderManagerAddress",
          "type": "address"
        }
      ],
      "stateMutability": "nonpayable",
      "type": "constructor"
    },
    {
      "anonymous": false,
      "inputs": [
        {
          "indexed": true,
          "internalType": "string",
          "name": "tenderId",
          "type": "string"
        },
        {
          "indexed": true,
          "internalType": "address",
          "name": "contestant",
          "type": "address"
        },
        {
          "indexed": false,
          "internalType": "string",
          "name": "documentCid",
          "type": "string"
        },
        {
          "indexed": false,
          "internalType": "string",
          "name": "documentName",
          "type": "string"
        },
        {
          "indexed": false,
          "internalType": "uint256",
          "name": "submissionDate",
          "type": "uint256"
        }
      ],
      "name": "DocumentUploaded",
      "type": "event"
    },
    {
      "inputs": [
        {
          "internalType": "string",
          "name": "tenderId",
          "type": "string"
        },
        {
          "internalType": "address",
          "name": "user",
          "type": "address"
        },
        {
          "internalType": "uint256",
          "name": "index",
          "type": "uint256"
        }
      ],
      "name": "getDocumentOfUserAsOwner",
      "outputs": [
        {
          "internalType": "string",
          "name": "",
          "type": "string"
        },
        {
          "internalType": "string",
          "name": "",
          "type": "string"
        },
        {
          "internalType": "uint256",
          "name": "",
          "type": "uint256"
        }
      ],
      "stateMutability": "view",
      "type": "function"
    },
    {
      "inputs": [
        {
          "internalType": "string",
          "name": "tenderId",
          "type": "string"
        },
        {
          "internalType": "address",
          "name": "user",
          "type": "address"
        }
      ],
      "name": "getDocumentsOfTenderAsOwner",
      "outputs": [
        {
          "components": [
            {
              "internalType": "string",
              "name": "documentCid",
              "type": "string"
            },
            {
              "internalType": "string",
              "name": "documentName",
              "type": "string"
            },
            {
              "internalType": "string",
              "name": "documentType",
              "type": "string"
            },
            {
              "internalType": "uint256",
              "name": "submissionDate",
              "type": "uint256"
            }
          ],
          "internalType": "struct DocumentStore.Document[]",
          "name": "",
          "type": "tuple[]"
        }
      ],
      "stateMutability": "view",
      "type": "function"
    },
    {
      "inputs": [
        {
          "internalType": "string",
          "name": "tenderId",
          "type": "string"
        },
        {
          "internalType": "uint256",
          "name": "index",
          "type": "uint256"
        }
      ],
      "name": "getMyDocument",
      "outputs": [
        {
          "internalType": "string",
          "name": "",
          "type": "string"
        },
        {
          "internalType": "string",
          "name": "",
          "type": "string"
        },
        {
          "internalType": "uint256",
          "name": "",
          "type": "uint256"
        }
      ],
      "stateMutability": "view",
      "type": "function"
    },
    {
      "inputs": [
        {
          "internalType": "string",
          "name": "tenderId",
          "type": "string"
        }
      ],
      "name": "getMyDocuments",
      "outputs": [
        {
          "components": [
            {
              "internalType": "string",
              "name": "documentCid",
              "type": "string"
            },
            {
              "internalType": "string",
              "name": "documentName",
              "type": "string"
            },
            {
              "internalType": "string",
              "name": "documentType",
              "type": "string"
            },
            {
              "internalType": "uint256",
              "name": "submissionDate",
              "type": "uint256"
            }
          ],
          "internalType": "struct DocumentStore.Document[]",
          "name": "",
          "type": "tuple[]"
        }
      ],
      "stateMutability": "view",
      "type": "function"
    },
    {
      "inputs": [
        {
          "internalType": "string",
          "name": "",
          "type": "string"
        },
        {
          "internalType": "address",
          "name": "",
          "type": "address"
        },
        {
          "internalType": "uint256",
          "name": "",
          "type": "uint256"
        }
      ],
      "name": "tenderDocuments",
      "outputs": [
        {
          "internalType": "string",
          "name": "documentCid",
          "type": "string"
        },
        {
          "internalType": "string",
          "name": "documentName",
          "type": "string"
        },
        {
          "internalType": "string",
          "name": "documentType",
          "type": "string"
        },
        {
          "internalType": "uint256",
          "name": "submissionDate",
          "type": "uint256"
        }
      ],
      "stateMutability": "view",
      "type": "function"
    },
    {
      "inputs": [],
      "name": "tenderManager",
      "outputs": [
        {
          "internalType": "contract ITenderManager",
          "name": "",
          "type": "address"
        }
      ],
      "stateMutability": "view",
      "type": "function"
    },
    {
      "inputs": [
        {
          "internalType": "string",
          "name": "tenderId",
          "type": "string"
        },
        {
          "internalType": "address",
          "name": "contestant",
          "type": "address"
        },
        {
          "internalType": "string",
          "name": "documentCid",
          "type": "string"
        },
        {
          "internalType": "string",
          "name": "documentName",
          "type": "string"
        },
        {
          "internalType": "string",
          "name": "documentType",
          "type": "string"
        }
      ],
      "name": "uploadDocument",
      "outputs": [],
      "stateMutability": "nonpayable",
      "type": "function"
    }
  ],
  "bytecode": "0x608060405234801561001057600080fd5b50604051612273380380612273833981810160405281019061003291906100dc565b80600160006101000a81548173ffffffffffffffffffffffffffffffffffffffff021916908373ffffffffffffffffffffffffffffffffffffffff16021790555050610109565b600080fd5b600073ffffffffffffffffffffffffffffffffffffffff82169050919050565b60006100a98261007e565b9050919050565b6100b98161009e565b81146100c457600080fd5b50565b6000815190506100d6816100b0565b92915050565b6000602082840312156100f2576100f1610079565b5b6000610100848285016100c7565b91505092915050565b61215b806101186000396000f3fe608060405234801561001057600080fd5b506004361061007d5760003560e01c80637f9bb7811161005b5780637f9bb781146101145780637fa6368414610147578063a06a72f514610163578063f983829c146101815761007d565b8063180d60b3146100825780633e823f07146100b25780637c4fb190146100e2575b600080fd5b61009c600480360381019061009791906115e3565b6101b3565b6040516100a9919061180a565b60405180910390f35b6100cc60048036038101906100c7919061182c565b610537565b6040516100d9919061180a565b60405180910390f35b6100fc60048036038101906100f791906118a1565b6107b1565b60405161010b93929190611969565b60405180910390f35b61012e600480360381019061012991906118a1565b610b27565b60405161013e94939291906119ae565b60405180910390f35b610161600480360381019061015c9190611a08565b610d2f565b005b61016b61119a565b6040516101789190611b52565b60405180910390f35b61019b60048036038101906101969190611b6d565b6111c0565b6040516101aa93929190611969565b60405180910390f35b60603373ffffffffffffffffffffffffffffffffffffffff16600160009054906101000a900473ffffffffffffffffffffffffffffffffffffffff1673ffffffffffffffffffffffffffffffffffffffff16634aaf4a12856040518263ffffffff1660e01b81526004016102279190611bc9565b602060405180830381865afa158015610244573d6000803e3d6000fd5b505050506040513d601f19601f820116820180604052508101906102689190611c00565b73ffffffffffffffffffffffffffffffffffffffff16146102be576040517f08c379a00000000000000000000000000000000000000000000000000000000081526004016102b590611c79565b60405180910390fd5b6000836040516102ce9190611cd5565b908152602001604051809103902060008373ffffffffffffffffffffffffffffffffffffffff1673ffffffffffffffffffffffffffffffffffffffff168152602001908152602001600020805480602002602001604051908101604052809291908181526020016000905b8282101561052b578382906000526020600020906004020160405180608001604052908160008201805461036c90611d1b565b80601f016020809104026020016040519081016040528092919081815260200182805461039890611d1b565b80156103e55780601f106103ba576101008083540402835291602001916103e5565b820191906000526020600020905b8154815290600101906020018083116103c857829003601f168201915b505050505081526020016001820180546103fe90611d1b565b80601f016020809104026020016040519081016040528092919081815260200182805461042a90611d1b565b80156104775780601f1061044c57610100808354040283529160200191610477565b820191906000526020600020905b81548152906001019060200180831161045a57829003601f168201915b5050505050815260200160028201805461049090611d1b565b80601f01602080910402602001604051908101604052809291908181526020018280546104bc90611d1b565b80156105095780601f106104de57610100808354040283529160200191610509565b820191906000526020600020905b8154815290600101906020018083116104ec57829003601f168201915b5050505050815260200160038201548152505081526020019060010190610339565b50505050905092915050565b60606000826040516105499190611cd5565b908152602001604051809103902060003373ffffffffffffffffffffffffffffffffffffffff1673ffffffffffffffffffffffffffffffffffffffff168152602001908152602001600020805480602002602001604051908101604052809291908181526020016000905b828210156107a657838290600052602060002090600402016040518060800160405290816000820180546105e790611d1b565b80601f016020809104026020016040519081016040528092919081815260200182805461061390611d1b565b80156106605780601f1061063557610100808354040283529160200191610660565b820191906000526020600020905b81548152906001019060200180831161064357829003601f168201915b5050505050815260200160018201805461067990611d1b565b80601f01602080910402602001604051908101604052809291908181526020018280546106a590611d1b565b80156106f25780601f106106c7576101008083540402835291602001916106f2565b820191906000526020600020905b8154815290600101906020018083116106d557829003601f168201915b5050505050815260200160028201805461070b90611d1b565b80601f016020809104026020016040519081016040528092919081815260200182805461073790611d1b565b80156107845780601f1061075957610100808354040283529160200191610784565b820191906000526020600020905b81548152906001019060200180831161076757829003601f168201915b50505050508152602001600382015481525050815260200190600101906105b4565b505050509050919050565b60608060003373ffffffffffffffffffffffffffffffffffffffff16600160009054906101000a900473ffffffffffffffffffffffffffffffffffffffff1673ffffffffffffffffffffffffffffffffffffffff16634aaf4a12886040518263ffffffff1660e01b81526004016108289190611bc9565b602060405180830381865afa158015610845573d6000803e3d6000fd5b505050506040513d601f19601f820116820180604052508101906108699190611c00565b73ffffffffffffffffffffffffffffffffffffffff16146108bf576040517f08c379a00000000000000000000000000000000000000000000000000000000081526004016108b690611c79565b60405180910390fd5b600080876040516108d09190611cd5565b908152602001604051809103902060008773ffffffffffffffffffffffffffffffffffffffff1673ffffffffffffffffffffffffffffffffffffffff168152602001908152602001600020858154811061092d5761092c611d4c565b5b906000526020600020906004020160405180608001604052908160008201805461095690611d1b565b80601f016020809104026020016040519081016040528092919081815260200182805461098290611d1b565b80156109cf5780601f106109a4576101008083540402835291602001916109cf565b820191906000526020600020905b8154815290600101906020018083116109b257829003601f168201915b505050505081526020016001820180546109e890611d1b565b80601f0160208091040260200160405190810160405280929190818152602001828054610a1490611d1b565b8015610a615780601f10610a3657610100808354040283529160200191610a61565b820191906000526020600020905b815481529060010190602001808311610a4457829003601f168201915b50505050508152602001600282018054610a7a90611d1b565b80601f0160208091040260200160405190810160405280929190818152602001828054610aa690611d1b565b8015610af35780601f10610ac857610100808354040283529160200191610af3565b820191906000526020600020905b815481529060010190602001808311610ad657829003601f168201915b5050505050815260200160038201548152505090508060000151816020015182606001519350935093505093509350939050565b6000838051602081018201805184825260208301602085012081835280955050505050506020528160005260406000208181548110610b6557600080fd5b90600052602060002090600402016000925092505050806000018054610b8a90611d1b565b80601f0160208091040260200160405190810160405280929190818152602001828054610bb690611d1b565b8015610c035780601f10610bd857610100808354040283529160200191610c03565b820191906000526020600020905b815481529060010190602001808311610be657829003601f168201915b505050505090806001018054610c1890611d1b565b80601f0160208091040260200160405190810160405280929190818152602001828054610c4490611d1b565b8015610c915780601f10610c6657610100808354040283529160200191610c91565b820191906000526020600020905b815481529060010190602001808311610c7457829003601f168201915b505050505090806002018054610ca690611d1b565b80601f0160208091040260200160405190810160405280929190818152602001828054610cd290611d1b565b8015610d1f5780601f10610cf457610100808354040283529160200191610d1f565b820191906000526020600020905b815481529060010190602001808311610d0257829003601f168201915b5050505050908060030154905084565b6040518060400160405280600681526020017f74656e646572000000000000000000000000000000000000000000000000000081525080519060200120818051906020012003610e5757600160009054906101000a900473ffffffffffffffffffffffffffffffffffffffff1673ffffffffffffffffffffffffffffffffffffffff16634756331e86866040518363ffffffff1660e01b8152600401610dd6929190611d8a565b602060405180830381865afa158015610df3573d6000803e3d6000fd5b505050506040513d601f19601f82011682018060405250810190610e179190611df2565b610e56576040517f08c379a0000000000000000000000000000000000000000000000000000000008152600401610e4d90611e91565b60405180910390fd5b5b60006040518060800160405280858152602001848152602001838152602001428152509050600086604051610e8c9190611cd5565b908152602001604051809103902060008673ffffffffffffffffffffffffffffffffffffffff1673ffffffffffffffffffffffffffffffffffffffff1681526020019081526020016000208190806001815401808255809150506001900390600052602060002090600402016000909190919091506000820151816000019081610f169190612053565b506020820151816001019081610f2c9190612053565b506040820151816002019081610f429190612053565b50606082015181600301555050600160009054906101000a900473ffffffffffffffffffffffffffffffffffffffff1673ffffffffffffffffffffffffffffffffffffffff16634756331e87876040518363ffffffff1660e01b8152600401610fac929190611d8a565b602060405180830381865afa158015610fc9573d6000803e3d6000fd5b505050506040513d601f19601f82011682018060405250810190610fed9190611df2565b1580156110955750600160009054906101000a900473ffffffffffffffffffffffffffffffffffffffff1673ffffffffffffffffffffffffffffffffffffffff1663e4afd7c087876040518363ffffffff1660e01b8152600401611052929190611d8a565b602060405180830381865afa15801561106f573d6000803e3d6000fd5b505050506040513d601f19601f820116820180604052508101906110939190611df2565b155b1561112a57600160009054906101000a900473ffffffffffffffffffffffffffffffffffffffff1673ffffffffffffffffffffffffffffffffffffffff1663e713406887876040518363ffffffff1660e01b81526004016110f7929190611d8a565b600060405180830381600087803b15801561111157600080fd5b505af1158015611125573d6000803e3d6000fd5b505050505b8473ffffffffffffffffffffffffffffffffffffffff168660405161114f9190611cd5565b60405180910390207f963ec0ad3d85928f4a4df0b4ad4eab4fea9a19714adeea20c726acd664544c4486864260405161118a93929190611969565b60405180910390a3505050505050565b600160009054906101000a900473ffffffffffffffffffffffffffffffffffffffff1681565b6060806000806000866040516111d69190611cd5565b908152602001604051809103902060003373ffffffffffffffffffffffffffffffffffffffff1673ffffffffffffffffffffffffffffffffffffffff168152602001908152602001600020858154811061123357611232611d4c565b5b906000526020600020906004020160405180608001604052908160008201805461125c90611d1b565b80601f016020809104026020016040519081016040528092919081815260200182805461128890611d1b565b80156112d55780601f106112aa576101008083540402835291602001916112d5565b820191906000526020600020905b8154815290600101906020018083116112b857829003601f168201915b505050505081526020016001820180546112ee90611d1b565b80601f016020809104026020016040519081016040528092919081815260200182805461131a90611d1b565b80156113675780601f1061133c57610100808354040283529160200191611367565b820191906000526020600020905b81548152906001019060200180831161134a57829003601f168201915b5050505050815260200160028201805461138090611d1b565b80601f01602080910402602001604051908101604052809291908181526020018280546113ac90611d1b565b80156113f95780601f106113ce576101008083540402835291602001916113f9565b820191906000526020600020905b8154815290600101906020018083116113dc57829003601f168201915b505050505081526020016003820154815250509050806000015181602001518260600151935093509350509250925092565b6000604051905090565b600080fd5b600080fd5b600080fd5b600080fd5b6000601f19601f8301169050919050565b7f4e487b7100000000000000000000000000000000000000000000000000000000600052604160045260246000fd5b61149282611449565b810181811067ffffffffffffffff821117156114b1576114b061145a565b5b80604052505050565b60006114c461142b565b90506114d08282611489565b919050565b600067ffffffffffffffff8211156114f0576114ef61145a565b5b6114f982611449565b9050602081019050919050565b82818337600083830152505050565b6000611528611523846114d5565b6114ba565b90508281526020810184848401111561154457611543611444565b5b61154f848285611506565b509392505050565b600082601f83011261156c5761156b61143f565b5b813561157c848260208601611515565b91505092915050565b600073ffffffffffffffffffffffffffffffffffffffff82169050919050565b60006115b082611585565b9050919050565b6115c0816115a5565b81146115cb57600080fd5b50565b6000813590506115dd816115b7565b92915050565b600080604083850312156115fa576115f9611435565b5b600083013567ffffffffffffffff8111156116185761161761143a565b5b61162485828601611557565b9250506020611635858286016115ce565b9150509250929050565b600081519050919050565b600082825260208201905092915050565b6000819050602082019050919050565b600081519050919050565b600082825260208201905092915050565b60005b838110156116a557808201518184015260208101905061168a565b60008484015250505050565b60006116bc8261166b565b6116c68185611676565b93506116d6818560208601611687565b6116df81611449565b840191505092915050565b6000819050919050565b6116fd816116ea565b82525050565b6000608083016000830151848203600086015261172082826116b1565b9150506020830151848203602086015261173a82826116b1565b9150506040830151848203604086015261175482826116b1565b915050606083015161176960608601826116f4565b508091505092915050565b60006117808383611703565b905092915050565b6000602082019050919050565b60006117a08261163f565b6117aa818561164a565b9350836020820285016117bc8561165b565b8060005b858110156117f857848403895281516117d98582611774565b94506117e483611788565b925060208a019950506001810190506117c0565b50829750879550505050505092915050565b600060208201905081810360008301526118248184611795565b905092915050565b60006020828403121561184257611841611435565b5b600082013567ffffffffffffffff8111156118605761185f61143a565b5b61186c84828501611557565b91505092915050565b61187e816116ea565b811461188957600080fd5b50565b60008135905061189b81611875565b92915050565b6000806000606084860312156118ba576118b9611435565b5b600084013567ffffffffffffffff8111156118d8576118d761143a565b5b6118e486828701611557565b93505060206118f5868287016115ce565b92505060406119068682870161188c565b9150509250925092565b600082825260208201905092915050565b600061192c8261166b565b6119368185611910565b9350611946818560208601611687565b61194f81611449565b840191505092915050565b611963816116ea565b82525050565b600060608201905081810360008301526119838186611921565b905081810360208301526119978185611921565b90506119a6604083018461195a565b949350505050565b600060808201905081810360008301526119c88187611921565b905081810360208301526119dc8186611921565b905081810360408301526119f08185611921565b90506119ff606083018461195a565b95945050505050565b600080600080600060a08688031215611a2457611a23611435565b5b600086013567ffffffffffffffff811115611a4257611a4161143a565b5b611a4e88828901611557565b9550506020611a5f888289016115ce565b945050604086013567ffffffffffffffff811115611a8057611a7f61143a565b5b611a8c88828901611557565b935050606086013567ffffffffffffffff811115611aad57611aac61143a565b5b611ab988828901611557565b925050608086013567ffffffffffffffff811115611ada57611ad961143a565b5b611ae688828901611557565b9150509295509295909350565b6000819050919050565b6000611b18611b13611b0e84611585565b611af3565b611585565b9050919050565b6000611b2a82611afd565b9050919050565b6000611b3c82611b1f565b9050919050565b611b4c81611b31565b82525050565b6000602082019050611b676000830184611b43565b92915050565b60008060408385031215611b8457611b83611435565b5b600083013567ffffffffffffffff811115611ba257611ba161143a565b5b611bae85828601611557565b9250506020611bbf8582860161188c565b9150509250929050565b60006020820190508181036000830152611be38184611921565b905092915050565b600081519050611bfa816115b7565b92915050565b600060208284031215611c1657611c15611435565b5b6000611c2484828501611beb565b91505092915050565b7f4f6e6c792074656e646572206f776e65722063616e2076696577207468697300600082015250565b6000611c63601f83611910565b9150611c6e82611c2d565b602082019050919050565b60006020820190508181036000830152611c9281611c56565b9050919050565b600081905092915050565b6000611caf8261166b565b611cb98185611c99565b9350611cc9818560208601611687565b80840191505092915050565b6000611ce18284611ca4565b915081905092915050565b7f4e487b7100000000000000000000000000000000000000000000000000000000600052602260045260246000fd5b60006002820490506001821680611d3357607f821691505b602082108103611d4657611d45611cec565b5b50919050565b7f4e487b7100000000000000000000000000000000000000000000000000000000600052603260045260246000fd5b611d84816115a5565b82525050565b60006040820190508181036000830152611da48185611921565b9050611db36020830184611d7b565b9392505050565b60008115159050919050565b611dcf81611dba565b8114611dda57600080fd5b50565b600081519050611dec81611dc6565b92915050565b600060208284031215611e0857611e07611435565b5b6000611e1684828501611ddd565b91505092915050565b7f4f6e6c79207061727469636970616e74732063616e2075706c6f61642074656e60008201527f64657220646f63756d656e747300000000000000000000000000000000000000602082015250565b6000611e7b602d83611910565b9150611e8682611e1f565b604082019050919050565b60006020820190508181036000830152611eaa81611e6e565b9050919050565b60008190508160005260206000209050919050565b60006020601f8301049050919050565b600082821b905092915050565b600060088302611f137fffffffffffffffffffffffffffffffffffffffffffffffffffffffffffffffff82611ed6565b611f1d8683611ed6565b95508019841693508086168417925050509392505050565b6000611f50611f4b611f46846116ea565b611af3565b6116ea565b9050919050565b6000819050919050565b611f6a83611f35565b611f7e611f7682611f57565b848454611ee3565b825550505050565b600090565b611f93611f86565b611f9e818484611f61565b505050565b5b81811015611fc257611fb7600082611f8b565b600181019050611fa4565b5050565b601f82111561200757611fd881611eb1565b611fe184611ec6565b81016020851015611ff0578190505b612004611ffc85611ec6565b830182611fa3565b50505b505050565b600082821c905092915050565b600061202a6000198460080261200c565b1980831691505092915050565b60006120438383612019565b9150826002028217905092915050565b61205c8261166b565b67ffffffffffffffff8111156120755761207461145a565b5b61207f8254611d1b565b61208a828285611fc6565b600060209050601f8311600181146120bd57600084156120ab578287015190505b6120b58582612037565b86555061211d565b601f1984166120cb86611eb1565b60005b828110156120f3578489015182556001820191506020850194506020810190506120ce565b86831015612110578489015161210c601f891682612019565b8355505b6001600288020188555050505b50505050505056fea26469706673582212203ae7552e820165c110bc94718cfb0c7a08832987783ee501765effd7e8f6992264736f6c634300081c0033",
  "linkReferences": {},
  "deployedLinkReferences": {}
}