{
  "_format": "hh-sol-artifact-1",
  "contractName": "DocumentStore",
  "sourceName": "contracts/DocumentStore.sol",
  "abi": [
    {
      "inputs": [
        {
          "internalType": "address",
          "name": "tenderManagerAddress",
          "type": "address"
        }
      ],
      "stateMutability": "nonpayable",
      "type": "constructor"
    },
    {
      "anonymous": false,
      "inputs": [
        {
          "indexed": false,
          "internalType": "string",
          "name": "tenderId",
          "type": "string"
        },
        {
          "indexed": false,
          "internalType": "address",
          "name": "contestant",
          "type": "address"
        },
        {
          "indexed": false,
          "internalType": "string",
          "name": "documentCid",
          "type": "string"
        },
        {
          "indexed": false,
          "internalType": "string",
          "name": "documentName",
          "type": "string"
        },
        {
          "indexed": false,
          "internalType": "string",
          "name": "documentFormat",
          "type": "string"
        },
        {
          "indexed": false,
          "internalType": "address",
          "name": "receiver",
          "type": "address"
        },
        {
          "indexed": false,
          "internalType": "string",
          "name": "participantName",
          "type": "string"
        },
        {
          "indexed": false,
          "internalType": "string",
          "name": "participantEmail",
          "type": "string"
        },
        {
          "indexed": false,
          "internalType": "uint256",
          "name": "submissionDate",
          "type": "uint256"
        }
      ],
      "name": "DocumentUploaded",
      "type": "event"
    },
    {
      "inputs": [
        {
          "internalType": "string",
          "name": "",
          "type": "string"
        }
      ],
      "name": "documentOwner",
      "outputs": [
        {
          "internalType": "address",
          "name": "",
          "type": "address"
        }
      ],
      "stateMutability": "view",
      "type": "function"
    },
    {
      "inputs": [
        {
          "internalType": "string",
          "name": "",
          "type": "string"
        }
      ],
      "name": "documentReceiver",
      "outputs": [
        {
          "internalType": "address",
          "name": "",
          "type": "address"
        }
      ],
      "stateMutability": "view",
      "type": "function"
    },
    {
      "inputs": [
        {
          "internalType": "string",
          "name": "documentCid",
          "type": "string"
        }
      ],
      "name": "getDocumentOwner",
      "outputs": [
        {
          "internalType": "address",
          "name": "",
          "type": "address"
        }
      ],
      "stateMutability": "view",
      "type": "function"
    },
    {
      "inputs": [
        {
          "internalType": "string",
          "name": "documentCid",
          "type": "string"
        }
      ],
      "name": "getDocumentReceiver",
      "outputs": [
        {
          "internalType": "address",
          "name": "",
          "type": "address"
        }
      ],
      "stateMutability": "view",
      "type": "function"
    },
    {
      "inputs": [
        {
          "internalType": "string",
          "name": "tenderId",
          "type": "string"
        }
      ],
      "name": "getTenderInfoDocuments",
      "outputs": [
        {
          "components": [
            {
              "internalType": "string",
              "name": "tenderId",
              "type": "string"
            },
            {
              "internalType": "string",
              "name": "documentCid",
              "type": "string"
            },
            {
              "internalType": "string",
              "name": "documentName",
              "type": "string"
            },
            {
              "internalType": "string",
              "name": "documentFormat",
              "type": "string"
            },
            {
              "internalType": "uint256",
              "name": "submissionDate",
              "type": "uint256"
            }
          ],
          "internalType": "struct DocumentStore.InfoDocument[]",
          "name": "",
          "type": "tuple[]"
        }
      ],
      "stateMutability": "view",
      "type": "function"
    },
    {
      "inputs": [],
      "name": "tenderManager",
      "outputs": [
        {
          "internalType": "contract ITenderManager",
          "name": "",
          "type": "address"
        }
      ],
      "stateMutability": "view",
      "type": "function"
    },
    {
      "inputs": [
        {
          "components": [
            {
              "internalType": "address",
              "name": "documentOwner",
              "type": "address"
            },
            {
              "internalType": "string",
              "name": "documentCid",
              "type": "string"
            },
            {
              "internalType": "string",
              "name": "documentName",
              "type": "string"
            },
            {
              "internalType": "string",
              "name": "documentFormat",
              "type": "string"
            },
            {
              "internalType": "uint256",
              "name": "submissionDate",
              "type": "uint256"
            },
            {
              "internalType": "string",
              "name": "tenderId",
              "type": "string"
            },
            {
              "internalType": "address",
              "name": "receiver",
              "type": "address"
            },
            {
              "internalType": "string",
              "name": "participantName",
              "type": "string"
            },
            {
              "internalType": "string",
              "name": "participantEmail",
              "type": "string"
            }
          ],
          "internalType": "struct DocumentStore.Document",
          "name": "input",
          "type": "tuple"
        }
      ],
      "name": "uploadDocument",
      "outputs": [],
      "stateMutability": "nonpayable",
      "type": "function"
    },
    {
      "inputs": [
        {
          "components": [
            {
              "internalType": "string",
              "name": "tenderId",
              "type": "string"
            },
            {
              "internalType": "string",
              "name": "documentCid",
              "type": "string"
            },
            {
              "internalType": "string",
              "name": "documentName",
              "type": "string"
            },
            {
              "internalType": "string",
              "name": "documentFormat",
              "type": "string"
            },
            {
              "internalType": "uint256",
              "name": "submissionDate",
              "type": "uint256"
            }
          ],
          "internalType": "struct DocumentStore.InfoDocument",
          "name": "input",
          "type": "tuple"
        }
      ],
      "name": "uploadInfoDocument",
      "outputs": [],
      "stateMutability": "nonpayable",
      "type": "function"
    }
  ],
  "bytecode": "0x608060405234801561001057600080fd5b50604051611786380380611786833981810160405281019061003291906100dc565b80600460006101000a81548173ffffffffffffffffffffffffffffffffffffffff021916908373ffffffffffffffffffffffffffffffffffffffff16021790555050610109565b600080fd5b600073ffffffffffffffffffffffffffffffffffffffff82169050919050565b60006100a98261007e565b9050919050565b6100b98161009e565b81146100c457600080fd5b50565b6000815190506100d6816100b0565b92915050565b6000602082840312156100f2576100f1610079565b5b6000610100848285016100c7565b91505092915050565b61166e806101186000396000f3fe608060405234801561001057600080fd5b50600436106100885760003560e01c80639fe381c01161005b5780639fe381c014610139578063a06a72f514610155578063cb356d9114610173578063fb81abaa146101a357610088565b80631f567bcb1461008d5780632cda933f146100bd5780634c2bf37e146100d957806361f4139f14610109575b600080fd5b6100a760048036038101906100a29190610a6d565b6101d3565b6040516100b49190610af7565b60405180910390f35b6100d760048036038101906100d29190610d06565b61021b565b005b6100f360048036038101906100ee9190610a6d565b610348565b6040516101009190610f2a565b60405180910390f35b610123600480360381019061011e9190610a6d565b610617565b6040516101309190610af7565b60405180910390f35b610153600480360381019061014e9190611048565b610660565b005b61015d61085c565b60405161016a91906110f0565b60405180910390f35b61018d60048036038101906101889190610a6d565b610882565b60405161019a9190610af7565b60405180910390f35b6101bd60048036038101906101b89190610a6d565b6108ca565b6040516101ca9190610af7565b60405180910390f35b60006003826040516101e59190611147565b908152602001604051809103902060009054906101000a900473ffffffffffffffffffffffffffffffffffffffff169050919050565b33600282602001516040516102309190611147565b908152602001604051809103902060006101000a81548173ffffffffffffffffffffffffffffffffffffffff021916908373ffffffffffffffffffffffffffffffffffffffff1602179055508060c00151600382602001516040516102959190611147565b908152602001604051809103902060006101000a81548173ffffffffffffffffffffffffffffffffffffffff021916908373ffffffffffffffffffffffffffffffffffffffff1602179055507ffa8caf75439d90944a8513ec93b79c7770d5aa5eda3ca317a7ea0170ea4595d98160a00151338360200151846040015185606001518660c001518760e001518861010001514260405161033d999897969594939291906111b7565b60405180910390a150565b606060018260405161035a9190611147565b9081526020016040518091039020805480602002602001604051908101604052809291908181526020016000905b8282101561060c57838290600052602060002090600502016040518060a00160405290816000820180546103bb9061129d565b80601f01602080910402602001604051908101604052809291908181526020018280546103e79061129d565b80156104345780601f1061040957610100808354040283529160200191610434565b820191906000526020600020905b81548152906001019060200180831161041757829003601f168201915b5050505050815260200160018201805461044d9061129d565b80601f01602080910402602001604051908101604052809291908181526020018280546104799061129d565b80156104c65780601f1061049b576101008083540402835291602001916104c6565b820191906000526020600020905b8154815290600101906020018083116104a957829003601f168201915b505050505081526020016002820180546104df9061129d565b80601f016020809104026020016040519081016040528092919081815260200182805461050b9061129d565b80156105585780601f1061052d57610100808354040283529160200191610558565b820191906000526020600020905b81548152906001019060200180831161053b57829003601f168201915b505050505081526020016003820180546105719061129d565b80601f016020809104026020016040519081016040528092919081815260200182805461059d9061129d565b80156105ea5780601f106105bf576101008083540402835291602001916105ea565b820191906000526020600020905b8154815290600101906020018083116105cd57829003601f168201915b5050505050815260200160048201548152505081526020019060010190610388565b505050509050919050565b6003818051602081018201805184825260208301602085012081835280955050505050506000915054906101000a900473ffffffffffffffffffffffffffffffffffffffff1681565b3373ffffffffffffffffffffffffffffffffffffffff16600460009054906101000a900473ffffffffffffffffffffffffffffffffffffffff1673ffffffffffffffffffffffffffffffffffffffff16634aaf4a1283600001516040518263ffffffff1660e01b81526004016106d691906112ce565b602060405180830381865afa1580156106f3573d6000803e3d6000fd5b505050506040513d601f19601f820116820180604052508101906107179190611305565b73ffffffffffffffffffffffffffffffffffffffff161461076d576040517f08c379a0000000000000000000000000000000000000000000000000000000008152600401610764906113a4565b60405180910390fd5b60006040518060a0016040528083600001518152602001836020015181526020018360400151815260200183606001518152602001428152509050600182600001516040516107bc9190611147565b908152602001604051809103902081908060018154018082558091505060019003906000526020600020906005020160009091909190915060008201518160000190816108099190611566565b50602082015181600101908161081f9190611566565b5060408201518160020190816108359190611566565b50606082015181600301908161084b9190611566565b506080820151816004015550505050565b600460009054906101000a900473ffffffffffffffffffffffffffffffffffffffff1681565b60006002826040516108949190611147565b908152602001604051809103902060009054906101000a900473ffffffffffffffffffffffffffffffffffffffff169050919050565b6002818051602081018201805184825260208301602085012081835280955050505050506000915054906101000a900473ffffffffffffffffffffffffffffffffffffffff1681565b6000604051905090565b600080fd5b600080fd5b600080fd5b600080fd5b6000601f19601f8301169050919050565b7f4e487b7100000000000000000000000000000000000000000000000000000000600052604160045260246000fd5b61097a82610931565b810181811067ffffffffffffffff8211171561099957610998610942565b5b80604052505050565b60006109ac610913565b90506109b88282610971565b919050565b600067ffffffffffffffff8211156109d8576109d7610942565b5b6109e182610931565b9050602081019050919050565b82818337600083830152505050565b6000610a10610a0b846109bd565b6109a2565b905082815260208101848484011115610a2c57610a2b61092c565b5b610a378482856109ee565b509392505050565b600082601f830112610a5457610a53610927565b5b8135610a648482602086016109fd565b91505092915050565b600060208284031215610a8357610a8261091d565b5b600082013567ffffffffffffffff811115610aa157610aa0610922565b5b610aad84828501610a3f565b91505092915050565b600073ffffffffffffffffffffffffffffffffffffffff82169050919050565b6000610ae182610ab6565b9050919050565b610af181610ad6565b82525050565b6000602082019050610b0c6000830184610ae8565b92915050565b600080fd5b600080fd5b610b2581610ad6565b8114610b3057600080fd5b50565b600081359050610b4281610b1c565b92915050565b6000819050919050565b610b5b81610b48565b8114610b6657600080fd5b50565b600081359050610b7881610b52565b92915050565b60006101208284031215610b9557610b94610b12565b5b610ba06101206109a2565b90506000610bb084828501610b33565b600083015250602082013567ffffffffffffffff811115610bd457610bd3610b17565b5b610be084828501610a3f565b602083015250604082013567ffffffffffffffff811115610c0457610c03610b17565b5b610c1084828501610a3f565b604083015250606082013567ffffffffffffffff811115610c3457610c33610b17565b5b610c4084828501610a3f565b6060830152506080610c5484828501610b69565b60808301525060a082013567ffffffffffffffff811115610c7857610c77610b17565b5b610c8484828501610a3f565b60a08301525060c0610c9884828501610b33565b60c08301525060e082013567ffffffffffffffff811115610cbc57610cbb610b17565b5b610cc884828501610a3f565b60e08301525061010082013567ffffffffffffffff811115610ced57610cec610b17565b5b610cf984828501610a3f565b6101008301525092915050565b600060208284031215610d1c57610d1b61091d565b5b600082013567ffffffffffffffff811115610d3a57610d39610922565b5b610d4684828501610b7e565b91505092915050565b600081519050919050565b600082825260208201905092915050565b6000819050602082019050919050565b600081519050919050565b600082825260208201905092915050565b60005b83811015610db5578082015181840152602081019050610d9a565b60008484015250505050565b6000610dcc82610d7b565b610dd68185610d86565b9350610de6818560208601610d97565b610def81610931565b840191505092915050565b610e0381610b48565b82525050565b600060a0830160008301518482036000860152610e268282610dc1565b91505060208301518482036020860152610e408282610dc1565b91505060408301518482036040860152610e5a8282610dc1565b91505060608301518482036060860152610e748282610dc1565b9150506080830151610e896080860182610dfa565b508091505092915050565b6000610ea08383610e09565b905092915050565b6000602082019050919050565b6000610ec082610d4f565b610eca8185610d5a565b935083602082028501610edc85610d6b565b8060005b85811015610f185784840389528151610ef98582610e94565b9450610f0483610ea8565b925060208a01995050600181019050610ee0565b50829750879550505050505092915050565b60006020820190508181036000830152610f448184610eb5565b905092915050565b600060a08284031215610f6257610f61610b12565b5b610f6c60a06109a2565b9050600082013567ffffffffffffffff811115610f8c57610f8b610b17565b5b610f9884828501610a3f565b600083015250602082013567ffffffffffffffff811115610fbc57610fbb610b17565b5b610fc884828501610a3f565b602083015250604082013567ffffffffffffffff811115610fec57610feb610b17565b5b610ff884828501610a3f565b604083015250606082013567ffffffffffffffff81111561101c5761101b610b17565b5b61102884828501610a3f565b606083015250608061103c84828501610b69565b60808301525092915050565b60006020828403121561105e5761105d61091d565b5b600082013567ffffffffffffffff81111561107c5761107b610922565b5b61108884828501610f4c565b91505092915050565b6000819050919050565b60006110b66110b16110ac84610ab6565b611091565b610ab6565b9050919050565b60006110c88261109b565b9050919050565b60006110da826110bd565b9050919050565b6110ea816110cf565b82525050565b600060208201905061110560008301846110e1565b92915050565b600081905092915050565b600061112182610d7b565b61112b818561110b565b935061113b818560208601610d97565b80840191505092915050565b60006111538284611116565b915081905092915050565b600082825260208201905092915050565b600061117a82610d7b565b611184818561115e565b9350611194818560208601610d97565b61119d81610931565b840191505092915050565b6111b181610b48565b82525050565b60006101208201905081810360008301526111d2818c61116f565b90506111e1602083018b610ae8565b81810360408301526111f3818a61116f565b90508181036060830152611207818961116f565b9050818103608083015261121b818861116f565b905061122a60a0830187610ae8565b81810360c083015261123c818661116f565b905081810360e0830152611250818561116f565b90506112606101008301846111a8565b9a9950505050505050505050565b7f4e487b7100000000000000000000000000000000000000000000000000000000600052602260045260246000fd5b600060028204905060018216806112b557607f821691505b6020821081036112c8576112c761126e565b5b50919050565b600060208201905081810360008301526112e8818461116f565b905092915050565b6000815190506112ff81610b1c565b92915050565b60006020828403121561131b5761131a61091d565b5b6000611329848285016112f0565b91505092915050565b7f4f6e6c792074656e646572206f776e65722063616e2075706c6f61642074656e60008201527f64657220696e666f20646f63756d656e74730000000000000000000000000000602082015250565b600061138e60328361115e565b915061139982611332565b604082019050919050565b600060208201905081810360008301526113bd81611381565b9050919050565b60008190508160005260206000209050919050565b60006020601f8301049050919050565b600082821b905092915050565b6000600883026114267fffffffffffffffffffffffffffffffffffffffffffffffffffffffffffffffff826113e9565b61143086836113e9565b95508019841693508086168417925050509392505050565b600061146361145e61145984610b48565b611091565b610b48565b9050919050565b6000819050919050565b61147d83611448565b6114916114898261146a565b8484546113f6565b825550505050565b600090565b6114a6611499565b6114b1818484611474565b505050565b5b818110156114d5576114ca60008261149e565b6001810190506114b7565b5050565b601f82111561151a576114eb816113c4565b6114f4846113d9565b81016020851015611503578190505b61151761150f856113d9565b8301826114b6565b50505b505050565b600082821c905092915050565b600061153d6000198460080261151f565b1980831691505092915050565b6000611556838361152c565b9150826002028217905092915050565b61156f82610d7b565b67ffffffffffffffff81111561158857611587610942565b5b611592825461129d565b61159d8282856114d9565b600060209050601f8311600181146115d057600084156115be578287015190505b6115c8858261154a565b865550611630565b601f1984166115de866113c4565b60005b82811015611606578489015182556001820191506020850194506020810190506115e1565b86831015611623578489015161161f601f89168261152c565b8355505b6001600288020188555050505b50505050505056fea2646970667358221220a278785aacd345cdab15462afc18f6bb91627752bb01895826ff08372ef14f6464736f6c634300081c0033",
  "linkReferences": {},
  "deployedLinkReferences": {}
}