{
  "_format": "hh-sol-artifact-1",
  "contractName": "DocumentStore",
  "sourceName": "contracts/DocumentStore.sol",
  "abi": [
    {
      "inputs": [
        {
          "internalType": "address",
          "name": "tenderManagerAddress",
          "type": "address"
        }
      ],
      "stateMutability": "nonpayable",
      "type": "constructor"
    },
    {
      "anonymous": false,
      "inputs": [
        {
          "indexed": true,
          "internalType": "string",
          "name": "tenderId",
          "type": "string"
        },
        {
          "indexed": true,
          "internalType": "address",
          "name": "contestant",
          "type": "address"
        },
        {
          "indexed": false,
          "internalType": "string",
          "name": "documentCid",
          "type": "string"
        },
        {
          "indexed": false,
          "internalType": "string",
          "name": "documentName",
          "type": "string"
        },
        {
          "indexed": false,
          "internalType": "uint256",
          "name": "submissionDate",
          "type": "uint256"
        }
      ],
      "name": "DocumentUploaded",
      "type": "event"
    },
    {
      "inputs": [
        {
          "internalType": "string",
          "name": "tenderId",
          "type": "string"
        },
        {
          "internalType": "address",
          "name": "user",
          "type": "address"
        },
        {
          "internalType": "uint256",
          "name": "index",
          "type": "uint256"
        }
      ],
      "name": "getDocumentOfUserAsOwner",
      "outputs": [
        {
          "internalType": "string",
          "name": "",
          "type": "string"
        },
        {
          "internalType": "string",
          "name": "",
          "type": "string"
        },
        {
          "internalType": "uint256",
          "name": "",
          "type": "uint256"
        }
      ],
      "stateMutability": "view",
      "type": "function"
    },
    {
      "inputs": [
        {
          "internalType": "string",
          "name": "tenderId",
          "type": "string"
        },
        {
          "internalType": "address",
          "name": "user",
          "type": "address"
        }
      ],
      "name": "getDocumentsOfTenderAsOwner",
      "outputs": [
        {
          "components": [
            {
              "internalType": "string",
              "name": "documentCid",
              "type": "string"
            },
            {
              "internalType": "string",
              "name": "documentName",
              "type": "string"
            },
            {
              "internalType": "string",
              "name": "documentType",
              "type": "string"
            },
            {
              "internalType": "uint256",
              "name": "submissionDate",
              "type": "uint256"
            }
          ],
          "internalType": "struct DocumentStore.Document[]",
          "name": "",
          "type": "tuple[]"
        }
      ],
      "stateMutability": "view",
      "type": "function"
    },
    {
      "inputs": [
        {
          "internalType": "string",
          "name": "tenderId",
          "type": "string"
        },
        {
          "internalType": "uint256",
          "name": "index",
          "type": "uint256"
        }
      ],
      "name": "getMyDocument",
      "outputs": [
        {
          "internalType": "string",
          "name": "",
          "type": "string"
        },
        {
          "internalType": "string",
          "name": "",
          "type": "string"
        },
        {
          "internalType": "uint256",
          "name": "",
          "type": "uint256"
        }
      ],
      "stateMutability": "view",
      "type": "function"
    },
    {
      "inputs": [
        {
          "internalType": "string",
          "name": "tenderId",
          "type": "string"
        }
      ],
      "name": "getMyDocuments",
      "outputs": [
        {
          "components": [
            {
              "internalType": "string",
              "name": "documentCid",
              "type": "string"
            },
            {
              "internalType": "string",
              "name": "documentName",
              "type": "string"
            },
            {
              "internalType": "string",
              "name": "documentType",
              "type": "string"
            },
            {
              "internalType": "uint256",
              "name": "submissionDate",
              "type": "uint256"
            }
          ],
          "internalType": "struct DocumentStore.Document[]",
          "name": "",
          "type": "tuple[]"
        }
      ],
      "stateMutability": "view",
      "type": "function"
    },
    {
      "inputs": [
        {
          "internalType": "string",
          "name": "",
          "type": "string"
        },
        {
          "internalType": "address",
          "name": "",
          "type": "address"
        },
        {
          "internalType": "uint256",
          "name": "",
          "type": "uint256"
        }
      ],
      "name": "tenderDocuments",
      "outputs": [
        {
          "internalType": "string",
          "name": "documentCid",
          "type": "string"
        },
        {
          "internalType": "string",
          "name": "documentName",
          "type": "string"
        },
        {
          "internalType": "string",
          "name": "documentType",
          "type": "string"
        },
        {
          "internalType": "uint256",
          "name": "submissionDate",
          "type": "uint256"
        }
      ],
      "stateMutability": "view",
      "type": "function"
    },
    {
      "inputs": [],
      "name": "tenderManager",
      "outputs": [
        {
          "internalType": "contract ITenderManager",
          "name": "",
          "type": "address"
        }
      ],
      "stateMutability": "view",
      "type": "function"
    },
    {
      "inputs": [
        {
          "internalType": "string",
          "name": "tenderId",
          "type": "string"
        },
        {
          "internalType": "string",
          "name": "documentCid",
          "type": "string"
        },
        {
          "internalType": "string",
          "name": "documentName",
          "type": "string"
        },
        {
          "internalType": "string",
          "name": "documentType",
          "type": "string"
        },
        {
          "internalType": "string",
          "name": "participantName",
          "type": "string"
        },
        {
          "internalType": "string",
          "name": "participantEmail",
          "type": "string"
        },
        {
          "internalType": "uint256",
          "name": "deadline",
          "type": "uint256"
        },
        {
          "internalType": "uint8",
          "name": "v",
          "type": "uint8"
        },
        {
          "internalType": "bytes32",
          "name": "r",
          "type": "bytes32"
        },
        {
          "internalType": "bytes32",
          "name": "s",
          "type": "bytes32"
        }
      ],
      "name": "uploadDocumentWithSignature",
      "outputs": [],
      "stateMutability": "nonpayable",
      "type": "function"
    }
  ],
  "bytecode": "0x608060405234801561001057600080fd5b50604051612767380380612767833981810160405281019061003291906100dc565b80600160006101000a81548173ffffffffffffffffffffffffffffffffffffffff021916908373ffffffffffffffffffffffffffffffffffffffff16021790555050610109565b600080fd5b600073ffffffffffffffffffffffffffffffffffffffff82169050919050565b60006100a98261007e565b9050919050565b6100b98161009e565b81146100c457600080fd5b50565b6000815190506100d6816100b0565b92915050565b6000602082840312156100f2576100f1610079565b5b6000610100848285016100c7565b91505092915050565b61264f806101186000396000f3fe608060405234801561001057600080fd5b506004361061007d5760003560e01c80637f9bb7811161005b5780637f9bb78114610114578063a06a72f514610147578063f05ccea714610165578063f983829c146101815761007d565b8063180d60b3146100825780633e823f07146100b25780637c4fb190146100e2575b600080fd5b61009c6004803603810190610097919061174e565b6101b3565b6040516100a99190611975565b60405180910390f35b6100cc60048036038101906100c79190611997565b610537565b6040516100d99190611975565b60405180910390f35b6100fc60048036038101906100f79190611a0c565b6107b1565b60405161010b93929190611ad4565b60405180910390f35b61012e60048036038101906101299190611a0c565b610b27565b60405161013e9493929190611b19565b60405180910390f35b61014f610d2f565b60405161015c9190611bd2565b60405180910390f35b61017f600480360381019061017a9190611c5c565b610d55565b005b61019b60048036038101906101969190611de3565b61132b565b6040516101aa93929190611ad4565b60405180910390f35b60603373ffffffffffffffffffffffffffffffffffffffff16600160009054906101000a900473ffffffffffffffffffffffffffffffffffffffff1673ffffffffffffffffffffffffffffffffffffffff16634aaf4a12856040518263ffffffff1660e01b81526004016102279190611e3f565b602060405180830381865afa158015610244573d6000803e3d6000fd5b505050506040513d601f19601f820116820180604052508101906102689190611e76565b73ffffffffffffffffffffffffffffffffffffffff16146102be576040517f08c379a00000000000000000000000000000000000000000000000000000000081526004016102b590611eef565b60405180910390fd5b6000836040516102ce9190611f4b565b908152602001604051809103902060008373ffffffffffffffffffffffffffffffffffffffff1673ffffffffffffffffffffffffffffffffffffffff168152602001908152602001600020805480602002602001604051908101604052809291908181526020016000905b8282101561052b578382906000526020600020906004020160405180608001604052908160008201805461036c90611f91565b80601f016020809104026020016040519081016040528092919081815260200182805461039890611f91565b80156103e55780601f106103ba576101008083540402835291602001916103e5565b820191906000526020600020905b8154815290600101906020018083116103c857829003601f168201915b505050505081526020016001820180546103fe90611f91565b80601f016020809104026020016040519081016040528092919081815260200182805461042a90611f91565b80156104775780601f1061044c57610100808354040283529160200191610477565b820191906000526020600020905b81548152906001019060200180831161045a57829003601f168201915b5050505050815260200160028201805461049090611f91565b80601f01602080910402602001604051908101604052809291908181526020018280546104bc90611f91565b80156105095780601f106104de57610100808354040283529160200191610509565b820191906000526020600020905b8154815290600101906020018083116104ec57829003601f168201915b5050505050815260200160038201548152505081526020019060010190610339565b50505050905092915050565b60606000826040516105499190611f4b565b908152602001604051809103902060003373ffffffffffffffffffffffffffffffffffffffff1673ffffffffffffffffffffffffffffffffffffffff168152602001908152602001600020805480602002602001604051908101604052809291908181526020016000905b828210156107a657838290600052602060002090600402016040518060800160405290816000820180546105e790611f91565b80601f016020809104026020016040519081016040528092919081815260200182805461061390611f91565b80156106605780601f1061063557610100808354040283529160200191610660565b820191906000526020600020905b81548152906001019060200180831161064357829003601f168201915b5050505050815260200160018201805461067990611f91565b80601f01602080910402602001604051908101604052809291908181526020018280546106a590611f91565b80156106f25780601f106106c7576101008083540402835291602001916106f2565b820191906000526020600020905b8154815290600101906020018083116106d557829003601f168201915b5050505050815260200160028201805461070b90611f91565b80601f016020809104026020016040519081016040528092919081815260200182805461073790611f91565b80156107845780601f1061075957610100808354040283529160200191610784565b820191906000526020600020905b81548152906001019060200180831161076757829003601f168201915b50505050508152602001600382015481525050815260200190600101906105b4565b505050509050919050565b60608060003373ffffffffffffffffffffffffffffffffffffffff16600160009054906101000a900473ffffffffffffffffffffffffffffffffffffffff1673ffffffffffffffffffffffffffffffffffffffff16634aaf4a12886040518263ffffffff1660e01b81526004016108289190611e3f565b602060405180830381865afa158015610845573d6000803e3d6000fd5b505050506040513d601f19601f820116820180604052508101906108699190611e76565b73ffffffffffffffffffffffffffffffffffffffff16146108bf576040517f08c379a00000000000000000000000000000000000000000000000000000000081526004016108b690611eef565b60405180910390fd5b600080876040516108d09190611f4b565b908152602001604051809103902060008773ffffffffffffffffffffffffffffffffffffffff1673ffffffffffffffffffffffffffffffffffffffff168152602001908152602001600020858154811061092d5761092c611fc2565b5b906000526020600020906004020160405180608001604052908160008201805461095690611f91565b80601f016020809104026020016040519081016040528092919081815260200182805461098290611f91565b80156109cf5780601f106109a4576101008083540402835291602001916109cf565b820191906000526020600020905b8154815290600101906020018083116109b257829003601f168201915b505050505081526020016001820180546109e890611f91565b80601f0160208091040260200160405190810160405280929190818152602001828054610a1490611f91565b8015610a615780601f10610a3657610100808354040283529160200191610a61565b820191906000526020600020905b815481529060010190602001808311610a4457829003601f168201915b50505050508152602001600282018054610a7a90611f91565b80601f0160208091040260200160405190810160405280929190818152602001828054610aa690611f91565b8015610af35780601f10610ac857610100808354040283529160200191610af3565b820191906000526020600020905b815481529060010190602001808311610ad657829003601f168201915b5050505050815260200160038201548152505090508060000151816020015182606001519350935093505093509350939050565b6000838051602081018201805184825260208301602085012081835280955050505050506020528160005260406000208181548110610b6557600080fd5b90600052602060002090600402016000925092505050806000018054610b8a90611f91565b80601f0160208091040260200160405190810160405280929190818152602001828054610bb690611f91565b8015610c035780601f10610bd857610100808354040283529160200191610c03565b820191906000526020600020905b815481529060010190602001808311610be657829003601f168201915b505050505090806001018054610c1890611f91565b80601f0160208091040260200160405190810160405280929190818152602001828054610c4490611f91565b8015610c915780601f10610c6657610100808354040283529160200191610c91565b820191906000526020600020905b815481529060010190602001808311610c7457829003601f168201915b505050505090806002018054610ca690611f91565b80601f0160208091040260200160405190810160405280929190818152602001828054610cd290611f91565b8015610d1f5780601f10610cf457610100808354040283529160200191610d1f565b820191906000526020600020905b815481529060010190602001808311610d0257829003601f168201915b5050505050908060030154905084565b600160009054906101000a900473ffffffffffffffffffffffffffffffffffffffff1681565b60008a8986604051602001610d6c93929190612012565b604051602081830303815290604052805190602001209050600081604051602001610d9791906120b4565b604051602081830303815290604052805190602001209050600060018287878760405160008152602001604052604051610dd494939291906120f8565b6020604051602081039080840390855afa158015610df6573d6000803e3d6000fd5b505050602060405103519050600073ffffffffffffffffffffffffffffffffffffffff168173ffffffffffffffffffffffffffffffffffffffff1603610e71576040517f08c379a0000000000000000000000000000000000000000000000000000000008152600401610e6890612189565b60405180910390fd5b86421115610eb4576040517f08c379a0000000000000000000000000000000000000000000000000000000008152600401610eab906121f5565b60405180910390fd5b6040518060400160405280600681526020017f74656e6465720000000000000000000000000000000000000000000000000000815250805190602001208a8051906020012003610fdc57600160009054906101000a900473ffffffffffffffffffffffffffffffffffffffff1673ffffffffffffffffffffffffffffffffffffffff16634756331e8e836040518363ffffffff1660e01b8152600401610f5b929190612224565b602060405180830381865afa158015610f78573d6000803e3d6000fd5b505050506040513d601f19601f82011682018060405250810190610f9c919061228c565b610fdb576040517f08c379a0000000000000000000000000000000000000000000000000000000008152600401610fd29061232b565b60405180910390fd5b5b600060405180608001604052808e81526020018d81526020018c815260200142815250905060008e6040516110119190611f4b565b908152602001604051809103902060008373ffffffffffffffffffffffffffffffffffffffff1673ffffffffffffffffffffffffffffffffffffffff168152602001908152602001600020819080600181540180825580915050600190039060005260206000209060040201600090919091909150600082015181600001908161109b91906124ed565b5060208201518160010190816110b191906124ed565b5060408201518160020190816110c791906124ed565b50606082015181600301555050600160009054906101000a900473ffffffffffffffffffffffffffffffffffffffff1673ffffffffffffffffffffffffffffffffffffffff16634756331e8f846040518363ffffffff1660e01b8152600401611131929190612224565b602060405180830381865afa15801561114e573d6000803e3d6000fd5b505050506040513d601f19601f82011682018060405250810190611172919061228c565b15801561121a5750600160009054906101000a900473ffffffffffffffffffffffffffffffffffffffff1673ffffffffffffffffffffffffffffffffffffffff1663e4afd7c08f846040518363ffffffff1660e01b81526004016111d7929190612224565b602060405180830381865afa1580156111f4573d6000803e3d6000fd5b505050506040513d601f19601f82011682018060405250810190611218919061228c565b155b156112b357600160009054906101000a900473ffffffffffffffffffffffffffffffffffffffff1673ffffffffffffffffffffffffffffffffffffffff1663061ff4358f8c8c866040518563ffffffff1660e01b815260040161128094939291906125bf565b600060405180830381600087803b15801561129a57600080fd5b505af11580156112ae573d6000803e3d6000fd5b505050505b8173ffffffffffffffffffffffffffffffffffffffff168e6040516112d89190611f4b565b60405180910390207f963ec0ad3d85928f4a4df0b4ad4eab4fea9a19714adeea20c726acd664544c448f8f4260405161131393929190611ad4565b60405180910390a35050505050505050505050505050565b6060806000806000866040516113419190611f4b565b908152602001604051809103902060003373ffffffffffffffffffffffffffffffffffffffff1673ffffffffffffffffffffffffffffffffffffffff168152602001908152602001600020858154811061139e5761139d611fc2565b5b90600052602060002090600402016040518060800160405290816000820180546113c790611f91565b80601f01602080910402602001604051908101604052809291908181526020018280546113f390611f91565b80156114405780601f1061141557610100808354040283529160200191611440565b820191906000526020600020905b81548152906001019060200180831161142357829003601f168201915b5050505050815260200160018201805461145990611f91565b80601f016020809104026020016040519081016040528092919081815260200182805461148590611f91565b80156114d25780601f106114a7576101008083540402835291602001916114d2565b820191906000526020600020905b8154815290600101906020018083116114b557829003601f168201915b505050505081526020016002820180546114eb90611f91565b80601f016020809104026020016040519081016040528092919081815260200182805461151790611f91565b80156115645780601f1061153957610100808354040283529160200191611564565b820191906000526020600020905b81548152906001019060200180831161154757829003601f168201915b505050505081526020016003820154815250509050806000015181602001518260600151935093509350509250925092565b6000604051905090565b600080fd5b600080fd5b600080fd5b600080fd5b6000601f19601f8301169050919050565b7f4e487b7100000000000000000000000000000000000000000000000000000000600052604160045260246000fd5b6115fd826115b4565b810181811067ffffffffffffffff8211171561161c5761161b6115c5565b5b80604052505050565b600061162f611596565b905061163b82826115f4565b919050565b600067ffffffffffffffff82111561165b5761165a6115c5565b5b611664826115b4565b9050602081019050919050565b82818337600083830152505050565b600061169361168e84611640565b611625565b9050828152602081018484840111156116af576116ae6115af565b5b6116ba848285611671565b509392505050565b600082601f8301126116d7576116d66115aa565b5b81356116e7848260208601611680565b91505092915050565b600073ffffffffffffffffffffffffffffffffffffffff82169050919050565b600061171b826116f0565b9050919050565b61172b81611710565b811461173657600080fd5b50565b60008135905061174881611722565b92915050565b60008060408385031215611765576117646115a0565b5b600083013567ffffffffffffffff811115611783576117826115a5565b5b61178f858286016116c2565b92505060206117a085828601611739565b9150509250929050565b600081519050919050565b600082825260208201905092915050565b6000819050602082019050919050565b600081519050919050565b600082825260208201905092915050565b60005b838110156118105780820151818401526020810190506117f5565b60008484015250505050565b6000611827826117d6565b61183181856117e1565b93506118418185602086016117f2565b61184a816115b4565b840191505092915050565b6000819050919050565b61186881611855565b82525050565b6000608083016000830151848203600086015261188b828261181c565b915050602083015184820360208601526118a5828261181c565b915050604083015184820360408601526118bf828261181c565b91505060608301516118d4606086018261185f565b508091505092915050565b60006118eb838361186e565b905092915050565b6000602082019050919050565b600061190b826117aa565b61191581856117b5565b935083602082028501611927856117c6565b8060005b85811015611963578484038952815161194485826118df565b945061194f836118f3565b925060208a0199505060018101905061192b565b50829750879550505050505092915050565b6000602082019050818103600083015261198f8184611900565b905092915050565b6000602082840312156119ad576119ac6115a0565b5b600082013567ffffffffffffffff8111156119cb576119ca6115a5565b5b6119d7848285016116c2565b91505092915050565b6119e981611855565b81146119f457600080fd5b50565b600081359050611a06816119e0565b92915050565b600080600060608486031215611a2557611a246115a0565b5b600084013567ffffffffffffffff811115611a4357611a426115a5565b5b611a4f868287016116c2565b9350506020611a6086828701611739565b9250506040611a71868287016119f7565b9150509250925092565b600082825260208201905092915050565b6000611a97826117d6565b611aa18185611a7b565b9350611ab18185602086016117f2565b611aba816115b4565b840191505092915050565b611ace81611855565b82525050565b60006060820190508181036000830152611aee8186611a8c565b90508181036020830152611b028185611a8c565b9050611b116040830184611ac5565b949350505050565b60006080820190508181036000830152611b338187611a8c565b90508181036020830152611b478186611a8c565b90508181036040830152611b5b8185611a8c565b9050611b6a6060830184611ac5565b95945050505050565b6000819050919050565b6000611b98611b93611b8e846116f0565b611b73565b6116f0565b9050919050565b6000611baa82611b7d565b9050919050565b6000611bbc82611b9f565b9050919050565b611bcc81611bb1565b82525050565b6000602082019050611be76000830184611bc3565b92915050565b600060ff82169050919050565b611c0381611bed565b8114611c0e57600080fd5b50565b600081359050611c2081611bfa565b92915050565b6000819050919050565b611c3981611c26565b8114611c4457600080fd5b50565b600081359050611c5681611c30565b92915050565b6000806000806000806000806000806101408b8d031215611c8057611c7f6115a0565b5b60008b013567ffffffffffffffff811115611c9e57611c9d6115a5565b5b611caa8d828e016116c2565b9a505060208b013567ffffffffffffffff811115611ccb57611cca6115a5565b5b611cd78d828e016116c2565b99505060408b013567ffffffffffffffff811115611cf857611cf76115a5565b5b611d048d828e016116c2565b98505060608b013567ffffffffffffffff811115611d2557611d246115a5565b5b611d318d828e016116c2565b97505060808b013567ffffffffffffffff811115611d5257611d516115a5565b5b611d5e8d828e016116c2565b96505060a08b013567ffffffffffffffff811115611d7f57611d7e6115a5565b5b611d8b8d828e016116c2565b95505060c0611d9c8d828e016119f7565b94505060e0611dad8d828e01611c11565b935050610100611dbf8d828e01611c47565b925050610120611dd18d828e01611c47565b9150509295989b9194979a5092959850565b60008060408385031215611dfa57611df96115a0565b5b600083013567ffffffffffffffff811115611e1857611e176115a5565b5b611e24858286016116c2565b9250506020611e35858286016119f7565b9150509250929050565b60006020820190508181036000830152611e598184611a8c565b905092915050565b600081519050611e7081611722565b92915050565b600060208284031215611e8c57611e8b6115a0565b5b6000611e9a84828501611e61565b91505092915050565b7f4f6e6c792074656e646572206f776e65722063616e2076696577207468697300600082015250565b6000611ed9601f83611a7b565b9150611ee482611ea3565b602082019050919050565b60006020820190508181036000830152611f0881611ecc565b9050919050565b600081905092915050565b6000611f25826117d6565b611f2f8185611f0f565b9350611f3f8185602086016117f2565b80840191505092915050565b6000611f578284611f1a565b915081905092915050565b7f4e487b7100000000000000000000000000000000000000000000000000000000600052602260045260246000fd5b60006002820490506001821680611fa957607f821691505b602082108103611fbc57611fbb611f62565b5b50919050565b7f4e487b7100000000000000000000000000000000000000000000000000000000600052603260045260246000fd5b6000819050919050565b61200c61200782611855565b611ff1565b82525050565b600061201e8286611f1a565b915061202a8285611f1a565b91506120368284611ffb565b602082019150819050949350505050565b7f19457468657265756d205369676e6564204d6573736167653a0a333200000000600082015250565b600061207d601c83611f0f565b915061208882612047565b601c82019050919050565b6000819050919050565b6120ae6120a982611c26565b612093565b82525050565b60006120bf82612070565b91506120cb828461209d565b60208201915081905092915050565b6120e381611c26565b82525050565b6120f281611bed565b82525050565b600060808201905061210d60008301876120da565b61211a60208301866120e9565b61212760408301856120da565b61213460608301846120da565b95945050505050565b7f496e76616c6964207369676e6174757265000000000000000000000000000000600082015250565b6000612173601183611a7b565b915061217e8261213d565b602082019050919050565b600060208201905081810360008301526121a281612166565b9050919050565b7f5369676e61747572652065787069726564000000000000000000000000000000600082015250565b60006121df601183611a7b565b91506121ea826121a9565b602082019050919050565b6000602082019050818103600083015261220e816121d2565b9050919050565b61221e81611710565b82525050565b6000604082019050818103600083015261223e8185611a8c565b905061224d6020830184612215565b9392505050565b60008115159050919050565b61226981612254565b811461227457600080fd5b50565b60008151905061228681612260565b92915050565b6000602082840312156122a2576122a16115a0565b5b60006122b084828501612277565b91505092915050565b7f4f6e6c79207061727469636970616e74732063616e2075706c6f61642074656e60008201527f64657220646f63756d656e747300000000000000000000000000000000000000602082015250565b6000612315602d83611a7b565b9150612320826122b9565b604082019050919050565b6000602082019050818103600083015261234481612308565b9050919050565b60008190508160005260206000209050919050565b60006020601f8301049050919050565b600082821b905092915050565b6000600883026123ad7fffffffffffffffffffffffffffffffffffffffffffffffffffffffffffffffff82612370565b6123b78683612370565b95508019841693508086168417925050509392505050565b60006123ea6123e56123e084611855565b611b73565b611855565b9050919050565b6000819050919050565b612404836123cf565b612418612410826123f1565b84845461237d565b825550505050565b600090565b61242d612420565b6124388184846123fb565b505050565b5b8181101561245c57612451600082612425565b60018101905061243e565b5050565b601f8211156124a1576124728161234b565b61247b84612360565b8101602085101561248a578190505b61249e61249685612360565b83018261243d565b50505b505050565b600082821c905092915050565b60006124c4600019846008026124a6565b1980831691505092915050565b60006124dd83836124b3565b9150826002028217905092915050565b6124f6826117d6565b67ffffffffffffffff81111561250f5761250e6115c5565b5b6125198254611f91565b612524828285612460565b600060209050601f8311600181146125575760008415612545578287015190505b61254f85826124d1565b8655506125b7565b601f1984166125658661234b565b60005b8281101561258d57848901518255600182019150602085019450602081019050612568565b868310156125aa57848901516125a6601f8916826124b3565b8355505b6001600288020188555050505b505050505050565b600060808201905081810360008301526125d98187611a8c565b905081810360208301526125ed8186611a8c565b905081810360408301526126018185611a8c565b90506126106060830184612215565b9594505050505056fea2646970667358221220ac2a03f4c4ba2a318a9db2857ec49642554dbaf32cc1ed52b35b2a67d22508f264736f6c634300081c0033",
  "linkReferences": {},
  "deployedLinkReferences": {}
}