{
  "_format": "hh-sol-artifact-1",
  "contractName": "DocumentStore",
  "sourceName": "contracts/DocumentStore.sol",
  "abi": [
    {
      "inputs": [
        {
          "internalType": "address",
          "name": "tenderManagerAddress",
          "type": "address"
        }
      ],
      "stateMutability": "nonpayable",
      "type": "constructor"
    },
    {
      "anonymous": false,
      "inputs": [
        {
          "indexed": true,
          "internalType": "bytes32",
          "name": "tenderId",
          "type": "bytes32"
        },
        {
          "indexed": true,
          "internalType": "address",
          "name": "contestant",
          "type": "address"
        },
        {
          "indexed": false,
          "internalType": "string",
          "name": "documentCid",
          "type": "string"
        },
        {
          "indexed": false,
          "internalType": "string",
          "name": "documentName",
          "type": "string"
        },
        {
          "indexed": false,
          "internalType": "uint256",
          "name": "submissionDate",
          "type": "uint256"
        }
      ],
      "name": "DocumentUploaded",
      "type": "event"
    },
    {
      "inputs": [
        {
          "internalType": "bytes32",
          "name": "tenderId",
          "type": "bytes32"
        },
        {
          "internalType": "address",
          "name": "user",
          "type": "address"
        },
        {
          "internalType": "uint256",
          "name": "index",
          "type": "uint256"
        }
      ],
      "name": "getDocumentOfUserAsOwner",
      "outputs": [
        {
          "internalType": "string",
          "name": "",
          "type": "string"
        },
        {
          "internalType": "string",
          "name": "",
          "type": "string"
        },
        {
          "internalType": "uint256",
          "name": "",
          "type": "uint256"
        }
      ],
      "stateMutability": "view",
      "type": "function"
    },
    {
      "inputs": [
        {
          "internalType": "bytes32",
          "name": "tenderId",
          "type": "bytes32"
        },
        {
          "internalType": "address",
          "name": "user",
          "type": "address"
        }
      ],
      "name": "getDocumentsOfTenderAsOwner",
      "outputs": [
        {
          "components": [
            {
              "internalType": "string",
              "name": "documentCid",
              "type": "string"
            },
            {
              "internalType": "string",
              "name": "documentName",
              "type": "string"
            },
            {
              "internalType": "uint256",
              "name": "submissionDate",
              "type": "uint256"
            }
          ],
          "internalType": "struct DocumentStore.Document[]",
          "name": "",
          "type": "tuple[]"
        }
      ],
      "stateMutability": "view",
      "type": "function"
    },
    {
      "inputs": [
        {
          "internalType": "bytes32",
          "name": "tenderId",
          "type": "bytes32"
        },
        {
          "internalType": "uint256",
          "name": "index",
          "type": "uint256"
        }
      ],
      "name": "getMyDocument",
      "outputs": [
        {
          "internalType": "string",
          "name": "",
          "type": "string"
        },
        {
          "internalType": "string",
          "name": "",
          "type": "string"
        },
        {
          "internalType": "uint256",
          "name": "",
          "type": "uint256"
        }
      ],
      "stateMutability": "view",
      "type": "function"
    },
    {
      "inputs": [
        {
          "internalType": "bytes32",
          "name": "tenderId",
          "type": "bytes32"
        }
      ],
      "name": "getMyDocuments",
      "outputs": [
        {
          "components": [
            {
              "internalType": "string",
              "name": "documentCid",
              "type": "string"
            },
            {
              "internalType": "string",
              "name": "documentName",
              "type": "string"
            },
            {
              "internalType": "uint256",
              "name": "submissionDate",
              "type": "uint256"
            }
          ],
          "internalType": "struct DocumentStore.Document[]",
          "name": "",
          "type": "tuple[]"
        }
      ],
      "stateMutability": "view",
      "type": "function"
    },
    {
      "inputs": [
        {
          "internalType": "bytes32",
          "name": "",
          "type": "bytes32"
        },
        {
          "internalType": "address",
          "name": "",
          "type": "address"
        },
        {
          "internalType": "uint256",
          "name": "",
          "type": "uint256"
        }
      ],
      "name": "tenderDocuments",
      "outputs": [
        {
          "internalType": "string",
          "name": "documentCid",
          "type": "string"
        },
        {
          "internalType": "string",
          "name": "documentName",
          "type": "string"
        },
        {
          "internalType": "uint256",
          "name": "submissionDate",
          "type": "uint256"
        }
      ],
      "stateMutability": "view",
      "type": "function"
    },
    {
      "inputs": [],
      "name": "tenderManager",
      "outputs": [
        {
          "internalType": "contract ITenderManager",
          "name": "",
          "type": "address"
        }
      ],
      "stateMutability": "view",
      "type": "function"
    },
    {
      "inputs": [
        {
          "internalType": "bytes32",
          "name": "tenderId",
          "type": "bytes32"
        },
        {
          "internalType": "address",
          "name": "contestant",
          "type": "address"
        },
        {
          "internalType": "string",
          "name": "documentCid",
          "type": "string"
        },
        {
          "internalType": "string",
          "name": "documentName",
          "type": "string"
        }
      ],
      "name": "uploadDocument",
      "outputs": [],
      "stateMutability": "nonpayable",
      "type": "function"
    }
  ],
  "bytecode": "0x608060405234801561001057600080fd5b5060405161199b38038061199b833981810160405281019061003291906100dc565b80600160006101000a81548173ffffffffffffffffffffffffffffffffffffffff021916908373ffffffffffffffffffffffffffffffffffffffff16021790555050610109565b600080fd5b600073ffffffffffffffffffffffffffffffffffffffff82169050919050565b60006100a98261007e565b9050919050565b6100b98161009e565b81146100c457600080fd5b50565b6000815190506100d6816100b0565b92915050565b6000602082840312156100f2576100f1610079565b5b6000610100848285016100c7565b91505092915050565b611883806101186000396000f3fe608060405234801561001057600080fd5b506004361061007d5760003560e01c806354ea14391161005b57806354ea1439146101005780638ca670a614610130578063a06a72f514610162578063f32fbb06146101805761007d565b80631ee0c3561461008257806323e4f9661461009e57806345c6ffae146100ce575b600080fd5b61009c60048036038101906100979190610fbc565b6101b2565b005b6100b860048036038101906100b3919061105b565b6102dc565b6040516100c59190611239565b60405180910390f35b6100e860048036038101906100e39190611287565b6104b8565b6040516100f793929190611320565b60405180910390f35b61011a60048036038101906101159190611365565b610685565b6040516101279190611239565b60405180910390f35b61014a600480360381019061014591906113a5565b61096b565b60405161015993929190611320565b60405180910390f35b61016a610c44565b6040516101779190611457565b60405180910390f35b61019a600480360381019061019591906113a5565b610c6a565b6040516101a993929190611320565b60405180910390f35b6000604051806060016040528084815260200183815260200142815250905060008086815260200190815260200160002060008573ffffffffffffffffffffffffffffffffffffffff1673ffffffffffffffffffffffffffffffffffffffff168152602001908152602001600020819080600181540180825580915050600190039060005260206000209060030201600090919091909150600082015181600001908161025f9190611674565b5060208201518160010190816102759190611674565b506040820151816002015550508373ffffffffffffffffffffffffffffffffffffffff16857f75c2f64c7767408ae1bf879e1d3038fb5d4f5d80e435fcb3cb95dfab7a9a65898585426040516102cd93929190611320565b60405180910390a35050505050565b606060008083815260200190815260200160002060003373ffffffffffffffffffffffffffffffffffffffff1673ffffffffffffffffffffffffffffffffffffffff168152602001908152602001600020805480602002602001604051908101604052809291908181526020016000905b828210156104ad5783829060005260206000209060030201604051806060016040529081600082018054610380906114a1565b80601f01602080910402602001604051908101604052809291908181526020018280546103ac906114a1565b80156103f95780601f106103ce576101008083540402835291602001916103f9565b820191906000526020600020905b8154815290600101906020018083116103dc57829003601f168201915b50505050508152602001600182018054610412906114a1565b80601f016020809104026020016040519081016040528092919081815260200182805461043e906114a1565b801561048b5780601f106104605761010080835404028352916020019161048b565b820191906000526020600020905b81548152906001019060200180831161046e57829003601f168201915b505050505081526020016002820154815250508152602001906001019061034d565b505050509050919050565b60608060008060008087815260200190815260200160002060003373ffffffffffffffffffffffffffffffffffffffff1673ffffffffffffffffffffffffffffffffffffffff168152602001908152602001600020858154811061051f5761051e611746565b5b9060005260206000209060030201604051806060016040529081600082018054610548906114a1565b80601f0160208091040260200160405190810160405280929190818152602001828054610574906114a1565b80156105c15780601f10610596576101008083540402835291602001916105c1565b820191906000526020600020905b8154815290600101906020018083116105a457829003601f168201915b505050505081526020016001820180546105da906114a1565b80601f0160208091040260200160405190810160405280929190818152602001828054610606906114a1565b80156106535780601f1061062857610100808354040283529160200191610653565b820191906000526020600020905b81548152906001019060200180831161063657829003601f168201915b505050505081526020016002820154815250509050806000015181602001518260400151935093509350509250925092565b60603373ffffffffffffffffffffffffffffffffffffffff16600160009054906101000a900473ffffffffffffffffffffffffffffffffffffffff1673ffffffffffffffffffffffffffffffffffffffff1663deb931a2856040518263ffffffff1660e01b81526004016106f99190611784565b602060405180830381865afa158015610716573d6000803e3d6000fd5b505050506040513d601f19601f8201168201806040525081019061073a91906117b4565b73ffffffffffffffffffffffffffffffffffffffff1614610790576040517f08c379a00000000000000000000000000000000000000000000000000000000081526004016107879061182d565b60405180910390fd5b60008084815260200190815260200160002060008373ffffffffffffffffffffffffffffffffffffffff1673ffffffffffffffffffffffffffffffffffffffff168152602001908152602001600020805480602002602001604051908101604052809291908181526020016000905b8282101561095f5783829060005260206000209060030201604051806060016040529081600082018054610832906114a1565b80601f016020809104026020016040519081016040528092919081815260200182805461085e906114a1565b80156108ab5780601f10610880576101008083540402835291602001916108ab565b820191906000526020600020905b81548152906001019060200180831161088e57829003601f168201915b505050505081526020016001820180546108c4906114a1565b80601f01602080910402602001604051908101604052809291908181526020018280546108f0906114a1565b801561093d5780601f106109125761010080835404028352916020019161093d565b820191906000526020600020905b81548152906001019060200180831161092057829003601f168201915b50505050508152602001600282015481525050815260200190600101906107ff565b50505050905092915050565b60608060003373ffffffffffffffffffffffffffffffffffffffff16600160009054906101000a900473ffffffffffffffffffffffffffffffffffffffff1673ffffffffffffffffffffffffffffffffffffffff1663deb931a2886040518263ffffffff1660e01b81526004016109e29190611784565b602060405180830381865afa1580156109ff573d6000803e3d6000fd5b505050506040513d601f19601f82011682018060405250810190610a2391906117b4565b73ffffffffffffffffffffffffffffffffffffffff1614610a79576040517f08c379a0000000000000000000000000000000000000000000000000000000008152600401610a709061182d565b60405180910390fd5b600080600088815260200190815260200160002060008773ffffffffffffffffffffffffffffffffffffffff1673ffffffffffffffffffffffffffffffffffffffff1681526020019081526020016000208581548110610adc57610adb611746565b5b9060005260206000209060030201604051806060016040529081600082018054610b05906114a1565b80601f0160208091040260200160405190810160405280929190818152602001828054610b31906114a1565b8015610b7e5780601f10610b5357610100808354040283529160200191610b7e565b820191906000526020600020905b815481529060010190602001808311610b6157829003601f168201915b50505050508152602001600182018054610b97906114a1565b80601f0160208091040260200160405190810160405280929190818152602001828054610bc3906114a1565b8015610c105780601f10610be557610100808354040283529160200191610c10565b820191906000526020600020905b815481529060010190602001808311610bf357829003601f168201915b5050505050815260200160028201548152505090508060000151816020015182604001519350935093505093509350939050565b600160009054906101000a900473ffffffffffffffffffffffffffffffffffffffff1681565b60006020528260005260406000206020528160005260406000208181548110610c9257600080fd5b90600052602060002090600302016000925092505050806000018054610cb7906114a1565b80601f0160208091040260200160405190810160405280929190818152602001828054610ce3906114a1565b8015610d305780601f10610d0557610100808354040283529160200191610d30565b820191906000526020600020905b815481529060010190602001808311610d1357829003601f168201915b505050505090806001018054610d45906114a1565b80601f0160208091040260200160405190810160405280929190818152602001828054610d71906114a1565b8015610dbe5780601f10610d9357610100808354040283529160200191610dbe565b820191906000526020600020905b815481529060010190602001808311610da157829003601f168201915b5050505050908060020154905083565b6000604051905090565b600080fd5b600080fd5b6000819050919050565b610df581610de2565b8114610e0057600080fd5b50565b600081359050610e1281610dec565b92915050565b600073ffffffffffffffffffffffffffffffffffffffff82169050919050565b6000610e4382610e18565b9050919050565b610e5381610e38565b8114610e5e57600080fd5b50565b600081359050610e7081610e4a565b92915050565b600080fd5b600080fd5b6000601f19601f8301169050919050565b7f4e487b7100000000000000000000000000000000000000000000000000000000600052604160045260246000fd5b610ec982610e80565b810181811067ffffffffffffffff82111715610ee857610ee7610e91565b5b80604052505050565b6000610efb610dce565b9050610f078282610ec0565b919050565b600067ffffffffffffffff821115610f2757610f26610e91565b5b610f3082610e80565b9050602081019050919050565b82818337600083830152505050565b6000610f5f610f5a84610f0c565b610ef1565b905082815260208101848484011115610f7b57610f7a610e7b565b5b610f86848285610f3d565b509392505050565b600082601f830112610fa357610fa2610e76565b5b8135610fb3848260208601610f4c565b91505092915050565b60008060008060808587031215610fd657610fd5610dd8565b5b6000610fe487828801610e03565b9450506020610ff587828801610e61565b935050604085013567ffffffffffffffff81111561101657611015610ddd565b5b61102287828801610f8e565b925050606085013567ffffffffffffffff81111561104357611042610ddd565b5b61104f87828801610f8e565b91505092959194509250565b60006020828403121561107157611070610dd8565b5b600061107f84828501610e03565b91505092915050565b600081519050919050565b600082825260208201905092915050565b6000819050602082019050919050565b600081519050919050565b600082825260208201905092915050565b60005b838110156110ee5780820151818401526020810190506110d3565b60008484015250505050565b6000611105826110b4565b61110f81856110bf565b935061111f8185602086016110d0565b61112881610e80565b840191505092915050565b6000819050919050565b61114681611133565b82525050565b6000606083016000830151848203600086015261116982826110fa565b9150506020830151848203602086015261118382826110fa565b9150506040830151611198604086018261113d565b508091505092915050565b60006111af838361114c565b905092915050565b6000602082019050919050565b60006111cf82611088565b6111d98185611093565b9350836020820285016111eb856110a4565b8060005b85811015611227578484038952815161120885826111a3565b9450611213836111b7565b925060208a019950506001810190506111ef565b50829750879550505050505092915050565b6000602082019050818103600083015261125381846111c4565b905092915050565b61126481611133565b811461126f57600080fd5b50565b6000813590506112818161125b565b92915050565b6000806040838503121561129e5761129d610dd8565b5b60006112ac85828601610e03565b92505060206112bd85828601611272565b9150509250929050565b600082825260208201905092915050565b60006112e3826110b4565b6112ed81856112c7565b93506112fd8185602086016110d0565b61130681610e80565b840191505092915050565b61131a81611133565b82525050565b6000606082019050818103600083015261133a81866112d8565b9050818103602083015261134e81856112d8565b905061135d6040830184611311565b949350505050565b6000806040838503121561137c5761137b610dd8565b5b600061138a85828601610e03565b925050602061139b85828601610e61565b9150509250929050565b6000806000606084860312156113be576113bd610dd8565b5b60006113cc86828701610e03565b93505060206113dd86828701610e61565b92505060406113ee86828701611272565b9150509250925092565b6000819050919050565b600061141d61141861141384610e18565b6113f8565b610e18565b9050919050565b600061142f82611402565b9050919050565b600061144182611424565b9050919050565b61145181611436565b82525050565b600060208201905061146c6000830184611448565b92915050565b7f4e487b7100000000000000000000000000000000000000000000000000000000600052602260045260246000fd5b600060028204905060018216806114b957607f821691505b6020821081036114cc576114cb611472565b5b50919050565b60008190508160005260206000209050919050565b60006020601f8301049050919050565b600082821b905092915050565b6000600883026115347fffffffffffffffffffffffffffffffffffffffffffffffffffffffffffffffff826114f7565b61153e86836114f7565b95508019841693508086168417925050509392505050565b600061157161156c61156784611133565b6113f8565b611133565b9050919050565b6000819050919050565b61158b83611556565b61159f61159782611578565b848454611504565b825550505050565b600090565b6115b46115a7565b6115bf818484611582565b505050565b5b818110156115e3576115d86000826115ac565b6001810190506115c5565b5050565b601f821115611628576115f9816114d2565b611602846114e7565b81016020851015611611578190505b61162561161d856114e7565b8301826115c4565b50505b505050565b600082821c905092915050565b600061164b6000198460080261162d565b1980831691505092915050565b6000611664838361163a565b9150826002028217905092915050565b61167d826110b4565b67ffffffffffffffff81111561169657611695610e91565b5b6116a082546114a1565b6116ab8282856115e7565b600060209050601f8311600181146116de57600084156116cc578287015190505b6116d68582611658565b86555061173e565b601f1984166116ec866114d2565b60005b82811015611714578489015182556001820191506020850194506020810190506116ef565b86831015611731578489015161172d601f89168261163a565b8355505b6001600288020188555050505b505050505050565b7f4e487b7100000000000000000000000000000000000000000000000000000000600052603260045260246000fd5b61177e81610de2565b82525050565b60006020820190506117996000830184611775565b92915050565b6000815190506117ae81610e4a565b92915050565b6000602082840312156117ca576117c9610dd8565b5b60006117d88482850161179f565b91505092915050565b7f4f6e6c792074656e646572206f776e65722063616e2076696577207468697300600082015250565b6000611817601f836112c7565b9150611822826117e1565b602082019050919050565b600060208201905081810360008301526118468161180a565b905091905056fea2646970667358221220b4baa7dcb2e56faab8f1662b1c38cd4ee4766b9f22f57be47bb0f41cee0a5a2f64736f6c634300081c0033",
  "linkReferences": {},
  "deployedLinkReferences": {}
}