{
  "_format": "hh-sol-artifact-1",
  "contractName": "DocumentStore",
  "sourceName": "contracts/DocumentStore.sol",
  "abi": [
    {
      "inputs": [
        {
          "internalType": "address",
          "name": "tenderManagerAddress",
          "type": "address"
        }
      ],
      "stateMutability": "nonpayable",
      "type": "constructor"
    },
    {
      "anonymous": false,
      "inputs": [
        {
          "indexed": true,
          "internalType": "string",
          "name": "tenderId",
          "type": "string"
        },
        {
          "indexed": true,
          "internalType": "address",
          "name": "contestant",
          "type": "address"
        },
        {
          "indexed": false,
          "internalType": "string",
          "name": "documentCid",
          "type": "string"
        },
        {
          "indexed": false,
          "internalType": "string",
          "name": "documentName",
          "type": "string"
        },
        {
          "indexed": false,
          "internalType": "uint256",
          "name": "submissionDate",
          "type": "uint256"
        }
      ],
      "name": "DocumentUploaded",
      "type": "event"
    },
    {
      "inputs": [
        {
          "internalType": "string",
          "name": "tenderId",
          "type": "string"
        },
        {
          "internalType": "address",
          "name": "user",
          "type": "address"
        },
        {
          "internalType": "uint256",
          "name": "index",
          "type": "uint256"
        }
      ],
      "name": "getDocumentOfUserAsOwner",
      "outputs": [
        {
          "internalType": "string",
          "name": "",
          "type": "string"
        },
        {
          "internalType": "string",
          "name": "",
          "type": "string"
        },
        {
          "internalType": "uint256",
          "name": "",
          "type": "uint256"
        }
      ],
      "stateMutability": "view",
      "type": "function"
    },
    {
      "inputs": [
        {
          "internalType": "string",
          "name": "tenderId",
          "type": "string"
        },
        {
          "internalType": "address",
          "name": "user",
          "type": "address"
        }
      ],
      "name": "getDocumentsOfTenderAsOwner",
      "outputs": [
        {
          "components": [
            {
              "internalType": "string",
              "name": "documentCid",
              "type": "string"
            },
            {
              "internalType": "string",
              "name": "documentName",
              "type": "string"
            },
            {
              "internalType": "string",
              "name": "documentType",
              "type": "string"
            },
            {
              "internalType": "string",
              "name": "documentFormat",
              "type": "string"
            },
            {
              "internalType": "uint256",
              "name": "submissionDate",
              "type": "uint256"
            }
          ],
          "internalType": "struct DocumentStore.Document[]",
          "name": "",
          "type": "tuple[]"
        }
      ],
      "stateMutability": "view",
      "type": "function"
    },
    {
      "inputs": [
        {
          "internalType": "string",
          "name": "tenderId",
          "type": "string"
        },
        {
          "internalType": "uint256",
          "name": "index",
          "type": "uint256"
        }
      ],
      "name": "getMyDocument",
      "outputs": [
        {
          "internalType": "string",
          "name": "",
          "type": "string"
        },
        {
          "internalType": "string",
          "name": "",
          "type": "string"
        },
        {
          "internalType": "uint256",
          "name": "",
          "type": "uint256"
        }
      ],
      "stateMutability": "view",
      "type": "function"
    },
    {
      "inputs": [
        {
          "internalType": "string",
          "name": "tenderId",
          "type": "string"
        }
      ],
      "name": "getMyDocuments",
      "outputs": [
        {
          "components": [
            {
              "internalType": "string",
              "name": "documentCid",
              "type": "string"
            },
            {
              "internalType": "string",
              "name": "documentName",
              "type": "string"
            },
            {
              "internalType": "string",
              "name": "documentType",
              "type": "string"
            },
            {
              "internalType": "string",
              "name": "documentFormat",
              "type": "string"
            },
            {
              "internalType": "uint256",
              "name": "submissionDate",
              "type": "uint256"
            }
          ],
          "internalType": "struct DocumentStore.Document[]",
          "name": "",
          "type": "tuple[]"
        }
      ],
      "stateMutability": "view",
      "type": "function"
    },
    {
      "inputs": [
        {
          "internalType": "string",
          "name": "tenderId",
          "type": "string"
        }
      ],
      "name": "getTenderInfoDocuments",
      "outputs": [
        {
          "components": [
            {
              "internalType": "string",
              "name": "documentCid",
              "type": "string"
            },
            {
              "internalType": "string",
              "name": "documentName",
              "type": "string"
            },
            {
              "internalType": "string",
              "name": "documentType",
              "type": "string"
            },
            {
              "internalType": "string",
              "name": "documentFormat",
              "type": "string"
            },
            {
              "internalType": "uint256",
              "name": "submissionDate",
              "type": "uint256"
            }
          ],
          "internalType": "struct DocumentStore.Document[]",
          "name": "",
          "type": "tuple[]"
        }
      ],
      "stateMutability": "view",
      "type": "function"
    },
    {
      "inputs": [
        {
          "internalType": "string",
          "name": "",
          "type": "string"
        },
        {
          "internalType": "address",
          "name": "",
          "type": "address"
        },
        {
          "internalType": "uint256",
          "name": "",
          "type": "uint256"
        }
      ],
      "name": "tenderDocuments",
      "outputs": [
        {
          "internalType": "string",
          "name": "documentCid",
          "type": "string"
        },
        {
          "internalType": "string",
          "name": "documentName",
          "type": "string"
        },
        {
          "internalType": "string",
          "name": "documentType",
          "type": "string"
        },
        {
          "internalType": "string",
          "name": "documentFormat",
          "type": "string"
        },
        {
          "internalType": "uint256",
          "name": "submissionDate",
          "type": "uint256"
        }
      ],
      "stateMutability": "view",
      "type": "function"
    },
    {
      "inputs": [
        {
          "internalType": "string",
          "name": "",
          "type": "string"
        },
        {
          "internalType": "uint256",
          "name": "",
          "type": "uint256"
        }
      ],
      "name": "tenderInfoDocuments",
      "outputs": [
        {
          "internalType": "string",
          "name": "documentCid",
          "type": "string"
        },
        {
          "internalType": "string",
          "name": "documentName",
          "type": "string"
        },
        {
          "internalType": "string",
          "name": "documentType",
          "type": "string"
        },
        {
          "internalType": "string",
          "name": "documentFormat",
          "type": "string"
        },
        {
          "internalType": "uint256",
          "name": "submissionDate",
          "type": "uint256"
        }
      ],
      "stateMutability": "view",
      "type": "function"
    },
    {
      "inputs": [],
      "name": "tenderManager",
      "outputs": [
        {
          "internalType": "contract ITenderManager",
          "name": "",
          "type": "address"
        }
      ],
      "stateMutability": "view",
      "type": "function"
    },
    {
      "inputs": [
        {
          "components": [
            {
              "internalType": "string",
              "name": "tenderId",
              "type": "string"
            },
            {
              "internalType": "string",
              "name": "documentCid",
              "type": "string"
            },
            {
              "internalType": "string",
              "name": "documentName",
              "type": "string"
            },
            {
              "internalType": "string",
              "name": "documentType",
              "type": "string"
            },
            {
              "internalType": "string",
              "name": "documentFormat",
              "type": "string"
            },
            {
              "internalType": "string",
              "name": "participantName",
              "type": "string"
            },
            {
              "internalType": "string",
              "name": "participantEmail",
              "type": "string"
            },
            {
              "internalType": "uint256",
              "name": "deadline",
              "type": "uint256"
            },
            {
              "internalType": "uint8",
              "name": "v",
              "type": "uint8"
            },
            {
              "internalType": "bytes32",
              "name": "r",
              "type": "bytes32"
            },
            {
              "internalType": "bytes32",
              "name": "s",
              "type": "bytes32"
            }
          ],
          "internalType": "struct DocumentStore.UploadInput",
          "name": "input",
          "type": "tuple"
        }
      ],
      "name": "uploadDocumentWithSignature",
      "outputs": [],
      "stateMutability": "nonpayable",
      "type": "function"
    },
    {
      "inputs": [
        {
          "components": [
            {
              "internalType": "string",
              "name": "tenderId",
              "type": "string"
            },
            {
              "internalType": "string",
              "name": "documentCid",
              "type": "string"
            },
            {
              "internalType": "string",
              "name": "documentName",
              "type": "string"
            },
            {
              "internalType": "string",
              "name": "documentType",
              "type": "string"
            },
            {
              "internalType": "string",
              "name": "documentFormat",
              "type": "string"
            },
            {
              "internalType": "string",
              "name": "participantName",
              "type": "string"
            },
            {
              "internalType": "string",
              "name": "participantEmail",
              "type": "string"
            },
            {
              "internalType": "uint256",
              "name": "deadline",
              "type": "uint256"
            },
            {
              "internalType": "uint8",
              "name": "v",
              "type": "uint8"
            },
            {
              "internalType": "bytes32",
              "name": "r",
              "type": "bytes32"
            },
            {
              "internalType": "bytes32",
              "name": "s",
              "type": "bytes32"
            }
          ],
          "internalType": "struct DocumentStore.UploadInput",
          "name": "input",
          "type": "tuple"
        }
      ],
      "name": "uploadTenderInfoDocumentWithSignature",
      "outputs": [],
      "stateMutability": "nonpayable",
      "type": "function"
    }
  ],
  "bytecode": "0x608060405234801561001057600080fd5b50604051613624380380613624833981810160405281019061003291906100dc565b80600260006101000a81548173ffffffffffffffffffffffffffffffffffffffff021916908373ffffffffffffffffffffffffffffffffffffffff16021790555050610109565b600080fd5b600073ffffffffffffffffffffffffffffffffffffffff82169050919050565b60006100a98261007e565b9050919050565b6100b98161009e565b81146100c457600080fd5b50565b6000815190506100d6816100b0565b92915050565b6000602082840312156100f2576100f1610079565b5b6000610100848285016100c7565b91505092915050565b61350c806101186000396000f3fe608060405234801561001057600080fd5b506004361061009e5760003560e01c80637c4fb190116100665780637c4fb1901461016b5780637f9bb7811461019d578063a06a72f5146101d1578063d9224b75146101ef578063f983829c146102235761009e565b8063180d60b3146100a35780633e823f07146100d357806341066958146101035780634c2bf37e1461011f5780635eb6a6a51461014f575b600080fd5b6100bd60048036038101906100b891906124ae565b610255565b6040516100ca91906126ef565b60405180910390f35b6100ed60048036038101906100e89190612711565b61066b565b6040516100fa91906126ef565b60405180910390f35b61011d600480360381019061011891906129cf565b610977565b005b61013960048036038101906101349190612711565b610fbb565b60405161014691906126ef565b60405180910390f35b610169600480360381019061016491906129cf565b61128a565b005b61018560048036038101906101809190612a18565b6116ac565b60405161019493929190612ae0565b60405180910390f35b6101b760048036038101906101b29190612a18565b611ab4565b6040516101c8959493929190612b25565b60405180910390f35b6101d9611d4a565b6040516101e69190612bf3565b60405180910390f35b61020960048036038101906102049190612c0e565b611d70565b60405161021a959493929190612b25565b60405180910390f35b61023d60048036038101906102389190612c0e565b611ff9565b60405161024c93929190612ae0565b60405180910390f35b60603373ffffffffffffffffffffffffffffffffffffffff16600260009054906101000a900473ffffffffffffffffffffffffffffffffffffffff1673ffffffffffffffffffffffffffffffffffffffff16634aaf4a12856040518263ffffffff1660e01b81526004016102c99190612c6a565b602060405180830381865afa1580156102e6573d6000803e3d6000fd5b505050506040513d601f19601f8201168201806040525081019061030a9190612ca1565b73ffffffffffffffffffffffffffffffffffffffff1614610360576040517f08c379a000000000000000000000000000000000000000000000000000000000815260040161035790612d1a565b60405180910390fd5b6000836040516103709190612d76565b908152602001604051809103902060008373ffffffffffffffffffffffffffffffffffffffff1673ffffffffffffffffffffffffffffffffffffffff168152602001908152602001600020805480602002602001604051908101604052809291908181526020016000905b8282101561065f57838290600052602060002090600502016040518060a001604052908160008201805461040e90612dbc565b80601f016020809104026020016040519081016040528092919081815260200182805461043a90612dbc565b80156104875780601f1061045c57610100808354040283529160200191610487565b820191906000526020600020905b81548152906001019060200180831161046a57829003601f168201915b505050505081526020016001820180546104a090612dbc565b80601f01602080910402602001604051908101604052809291908181526020018280546104cc90612dbc565b80156105195780601f106104ee57610100808354040283529160200191610519565b820191906000526020600020905b8154815290600101906020018083116104fc57829003601f168201915b5050505050815260200160028201805461053290612dbc565b80601f016020809104026020016040519081016040528092919081815260200182805461055e90612dbc565b80156105ab5780601f10610580576101008083540402835291602001916105ab565b820191906000526020600020905b81548152906001019060200180831161058e57829003601f168201915b505050505081526020016003820180546105c490612dbc565b80601f01602080910402602001604051908101604052809291908181526020018280546105f090612dbc565b801561063d5780601f106106125761010080835404028352916020019161063d565b820191906000526020600020905b81548152906001019060200180831161062057829003601f168201915b50505050508152602001600482015481525050815260200190600101906103db565b50505050905092915050565b606060008260405161067d9190612d76565b908152602001604051809103902060003373ffffffffffffffffffffffffffffffffffffffff1673ffffffffffffffffffffffffffffffffffffffff168152602001908152602001600020805480602002602001604051908101604052809291908181526020016000905b8282101561096c57838290600052602060002090600502016040518060a001604052908160008201805461071b90612dbc565b80601f016020809104026020016040519081016040528092919081815260200182805461074790612dbc565b80156107945780601f1061076957610100808354040283529160200191610794565b820191906000526020600020905b81548152906001019060200180831161077757829003601f168201915b505050505081526020016001820180546107ad90612dbc565b80601f01602080910402602001604051908101604052809291908181526020018280546107d990612dbc565b80156108265780601f106107fb57610100808354040283529160200191610826565b820191906000526020600020905b81548152906001019060200180831161080957829003601f168201915b5050505050815260200160028201805461083f90612dbc565b80601f016020809104026020016040519081016040528092919081815260200182805461086b90612dbc565b80156108b85780601f1061088d576101008083540402835291602001916108b8565b820191906000526020600020905b81548152906001019060200180831161089b57829003601f168201915b505050505081526020016003820180546108d190612dbc565b80601f01602080910402602001604051908101604052809291908181526020018280546108fd90612dbc565b801561094a5780601f1061091f5761010080835404028352916020019161094a565b820191906000526020600020905b81548152906001019060200180831161092d57829003601f168201915b50505050508152602001600482015481525050815260200190600101906106e8565b505050509050919050565b6000816000015182604001518360e0015160405160200161099a93929190612e0e565b6040516020818303038152906040528051906020012090506000816040516020016109c59190612eb0565b604051602081830303815290604052805190602001209050600060018285610100015186610120015187610140015160405160008152602001604052604051610a119493929190612ef4565b6020604051602081039080840390855afa158015610a33573d6000803e3d6000fd5b505050602060405103519050600073ffffffffffffffffffffffffffffffffffffffff168173ffffffffffffffffffffffffffffffffffffffff1603610aae576040517f08c379a0000000000000000000000000000000000000000000000000000000008152600401610aa590612f85565b60405180910390fd5b8360e00151421115610af5576040517f08c379a0000000000000000000000000000000000000000000000000000000008152600401610aec90612ff1565b60405180910390fd5b6040518060400160405280600681526020017f74656e64657200000000000000000000000000000000000000000000000000008152508051906020012084606001518051906020012003610c2557600260009054906101000a900473ffffffffffffffffffffffffffffffffffffffff1673ffffffffffffffffffffffffffffffffffffffff16634756331e8560000151836040518363ffffffff1660e01b8152600401610ba4929190613020565b602060405180830381865afa158015610bc1573d6000803e3d6000fd5b505050506040513d601f19601f82011682018060405250810190610be59190613088565b610c24576040517f08c379a0000000000000000000000000000000000000000000000000000000008152600401610c1b90613127565b60405180910390fd5b5b60006040518060a001604052808660200151815260200186604001518152602001866060015181526020018660800151815260200142815250905060008560000151604051610c749190612d76565b908152602001604051809103902060008373ffffffffffffffffffffffffffffffffffffffff1673ffffffffffffffffffffffffffffffffffffffff1681526020019081526020016000208190806001815401808255809150506001900390600052602060002090600502016000909190919091506000820151816000019081610cfe91906132e9565b506020820151816001019081610d1491906132e9565b506040820151816002019081610d2a91906132e9565b506060820151816003019081610d4091906132e9565b50608082015181600401555050600260009054906101000a900473ffffffffffffffffffffffffffffffffffffffff1673ffffffffffffffffffffffffffffffffffffffff16634756331e8660000151846040518363ffffffff1660e01b8152600401610dae929190613020565b602060405180830381865afa158015610dcb573d6000803e3d6000fd5b505050506040513d601f19601f82011682018060405250810190610def9190613088565b158015610e9b5750600260009054906101000a900473ffffffffffffffffffffffffffffffffffffffff1673ffffffffffffffffffffffffffffffffffffffff1663e4afd7c08660000151846040518363ffffffff1660e01b8152600401610e58929190613020565b602060405180830381865afa158015610e75573d6000803e3d6000fd5b505050506040513d601f19601f82011682018060405250810190610e999190613088565b155b15610f4057600260009054906101000a900473ffffffffffffffffffffffffffffffffffffffff1673ffffffffffffffffffffffffffffffffffffffff1663061ff43586600001518760a001518860c00151866040518563ffffffff1660e01b8152600401610f0d94939291906133bb565b600060405180830381600087803b158015610f2757600080fd5b505af1158015610f3b573d6000803e3d6000fd5b505050505b8173ffffffffffffffffffffffffffffffffffffffff168560000151604051610f699190612d76565b60405180910390207f963ec0ad3d85928f4a4df0b4ad4eab4fea9a19714adeea20c726acd664544c448760200151886040015142604051610fac93929190612ae0565b60405180910390a35050505050565b6060600182604051610fcd9190612d76565b9081526020016040518091039020805480602002602001604051908101604052809291908181526020016000905b8282101561127f57838290600052602060002090600502016040518060a001604052908160008201805461102e90612dbc565b80601f016020809104026020016040519081016040528092919081815260200182805461105a90612dbc565b80156110a75780601f1061107c576101008083540402835291602001916110a7565b820191906000526020600020905b81548152906001019060200180831161108a57829003601f168201915b505050505081526020016001820180546110c090612dbc565b80601f01602080910402602001604051908101604052809291908181526020018280546110ec90612dbc565b80156111395780601f1061110e57610100808354040283529160200191611139565b820191906000526020600020905b81548152906001019060200180831161111c57829003601f168201915b5050505050815260200160028201805461115290612dbc565b80601f016020809104026020016040519081016040528092919081815260200182805461117e90612dbc565b80156111cb5780601f106111a0576101008083540402835291602001916111cb565b820191906000526020600020905b8154815290600101906020018083116111ae57829003601f168201915b505050505081526020016003820180546111e490612dbc565b80601f016020809104026020016040519081016040528092919081815260200182805461121090612dbc565b801561125d5780601f106112325761010080835404028352916020019161125d565b820191906000526020600020905b81548152906001019060200180831161124057829003601f168201915b5050505050815260200160048201548152505081526020019060010190610ffb565b505050509050919050565b6000816000015182604001518360e001516040516020016112ad93929190612e0e565b6040516020818303038152906040528051906020012090506000816040516020016112d89190612eb0565b6040516020818303038152906040528051906020012090506000600182856101000151866101200151876101400151604051600081526020016040526040516113249493929190612ef4565b6020604051602081039080840390855afa158015611346573d6000803e3d6000fd5b505050602060405103519050600073ffffffffffffffffffffffffffffffffffffffff168173ffffffffffffffffffffffffffffffffffffffff16036113c1576040517f08c379a00000000000000000000000000000000000000000000000000000000081526004016113b890612f85565b60405180910390fd5b8360e00151421115611408576040517f08c379a00000000000000000000000000000000000000000000000000000000081526004016113ff90612ff1565b60405180910390fd5b8073ffffffffffffffffffffffffffffffffffffffff16600260009054906101000a900473ffffffffffffffffffffffffffffffffffffffff1673ffffffffffffffffffffffffffffffffffffffff16634aaf4a1286600001516040518263ffffffff1660e01b815260040161147e9190612c6a565b602060405180830381865afa15801561149b573d6000803e3d6000fd5b505050506040513d601f19601f820116820180604052508101906114bf9190612ca1565b73ffffffffffffffffffffffffffffffffffffffff1614611515576040517f08c379a000000000000000000000000000000000000000000000000000000000815260040161150c90613487565b60405180910390fd5b60006040518060a0016040528086602001518152602001866040015181526020016040518060400160405280600481526020017f696e666f00000000000000000000000000000000000000000000000000000000815250815260200186608001518152602001428152509050600185600001516040516115959190612d76565b908152602001604051809103902081908060018154018082558091505060019003906000526020600020906005020160009091909190915060008201518160000190816115e291906132e9565b5060208201518160010190816115f891906132e9565b50604082015181600201908161160e91906132e9565b50606082015181600301908161162491906132e9565b506080820151816004015550508173ffffffffffffffffffffffffffffffffffffffff16856000015160405161165a9190612d76565b60405180910390207f963ec0ad3d85928f4a4df0b4ad4eab4fea9a19714adeea20c726acd664544c44876020015188604001514260405161169d93929190612ae0565b60405180910390a35050505050565b60608060003373ffffffffffffffffffffffffffffffffffffffff16600260009054906101000a900473ffffffffffffffffffffffffffffffffffffffff1673ffffffffffffffffffffffffffffffffffffffff16634aaf4a12886040518263ffffffff1660e01b81526004016117239190612c6a565b602060405180830381865afa158015611740573d6000803e3d6000fd5b505050506040513d601f19601f820116820180604052508101906117649190612ca1565b73ffffffffffffffffffffffffffffffffffffffff16146117ba576040517f08c379a00000000000000000000000000000000000000000000000000000000081526004016117b190612d1a565b60405180910390fd5b600080876040516117cb9190612d76565b908152602001604051809103902060008773ffffffffffffffffffffffffffffffffffffffff1673ffffffffffffffffffffffffffffffffffffffff1681526020019081526020016000208581548110611828576118276134a7565b5b90600052602060002090600502016040518060a001604052908160008201805461185190612dbc565b80601f016020809104026020016040519081016040528092919081815260200182805461187d90612dbc565b80156118ca5780601f1061189f576101008083540402835291602001916118ca565b820191906000526020600020905b8154815290600101906020018083116118ad57829003601f168201915b505050505081526020016001820180546118e390612dbc565b80601f016020809104026020016040519081016040528092919081815260200182805461190f90612dbc565b801561195c5780601f106119315761010080835404028352916020019161195c565b820191906000526020600020905b81548152906001019060200180831161193f57829003601f168201915b5050505050815260200160028201805461197590612dbc565b80601f01602080910402602001604051908101604052809291908181526020018280546119a190612dbc565b80156119ee5780601f106119c3576101008083540402835291602001916119ee565b820191906000526020600020905b8154815290600101906020018083116119d157829003601f168201915b50505050508152602001600382018054611a0790612dbc565b80601f0160208091040260200160405190810160405280929190818152602001828054611a3390612dbc565b8015611a805780601f10611a5557610100808354040283529160200191611a80565b820191906000526020600020905b815481529060010190602001808311611a6357829003601f168201915b5050505050815260200160048201548152505090508060000151816020015182608001519350935093505093509350939050565b6000838051602081018201805184825260208301602085012081835280955050505050506020528160005260406000208181548110611af257600080fd5b90600052602060002090600502016000925092505050806000018054611b1790612dbc565b80601f0160208091040260200160405190810160405280929190818152602001828054611b4390612dbc565b8015611b905780601f10611b6557610100808354040283529160200191611b90565b820191906000526020600020905b815481529060010190602001808311611b7357829003601f168201915b505050505090806001018054611ba590612dbc565b80601f0160208091040260200160405190810160405280929190818152602001828054611bd190612dbc565b8015611c1e5780601f10611bf357610100808354040283529160200191611c1e565b820191906000526020600020905b815481529060010190602001808311611c0157829003601f168201915b505050505090806002018054611c3390612dbc565b80601f0160208091040260200160405190810160405280929190818152602001828054611c5f90612dbc565b8015611cac5780601f10611c8157610100808354040283529160200191611cac565b820191906000526020600020905b815481529060010190602001808311611c8f57829003601f168201915b505050505090806003018054611cc190612dbc565b80601f0160208091040260200160405190810160405280929190818152602001828054611ced90612dbc565b8015611d3a5780601f10611d0f57610100808354040283529160200191611d3a565b820191906000526020600020905b815481529060010190602001808311611d1d57829003601f168201915b5050505050908060040154905085565b600260009054906101000a900473ffffffffffffffffffffffffffffffffffffffff1681565b6001828051602081018201805184825260208301602085012081835280955050505050508181548110611da257600080fd5b906000526020600020906005020160009150915050806000018054611dc690612dbc565b80601f0160208091040260200160405190810160405280929190818152602001828054611df290612dbc565b8015611e3f5780601f10611e1457610100808354040283529160200191611e3f565b820191906000526020600020905b815481529060010190602001808311611e2257829003601f168201915b505050505090806001018054611e5490612dbc565b80601f0160208091040260200160405190810160405280929190818152602001828054611e8090612dbc565b8015611ecd5780601f10611ea257610100808354040283529160200191611ecd565b820191906000526020600020905b815481529060010190602001808311611eb057829003601f168201915b505050505090806002018054611ee290612dbc565b80601f0160208091040260200160405190810160405280929190818152602001828054611f0e90612dbc565b8015611f5b5780601f10611f3057610100808354040283529160200191611f5b565b820191906000526020600020905b815481529060010190602001808311611f3e57829003601f168201915b505050505090806003018054611f7090612dbc565b80601f0160208091040260200160405190810160405280929190818152602001828054611f9c90612dbc565b8015611fe95780601f10611fbe57610100808354040283529160200191611fe9565b820191906000526020600020905b815481529060010190602001808311611fcc57829003601f168201915b5050505050908060040154905085565b60608060008060008660405161200f9190612d76565b908152602001604051809103902060003373ffffffffffffffffffffffffffffffffffffffff1673ffffffffffffffffffffffffffffffffffffffff168152602001908152602001600020858154811061206c5761206b6134a7565b5b90600052602060002090600502016040518060a001604052908160008201805461209590612dbc565b80601f01602080910402602001604051908101604052809291908181526020018280546120c190612dbc565b801561210e5780601f106120e35761010080835404028352916020019161210e565b820191906000526020600020905b8154815290600101906020018083116120f157829003601f168201915b5050505050815260200160018201805461212790612dbc565b80601f016020809104026020016040519081016040528092919081815260200182805461215390612dbc565b80156121a05780601f10612175576101008083540402835291602001916121a0565b820191906000526020600020905b81548152906001019060200180831161218357829003601f168201915b505050505081526020016002820180546121b990612dbc565b80601f01602080910402602001604051908101604052809291908181526020018280546121e590612dbc565b80156122325780601f1061220757610100808354040283529160200191612232565b820191906000526020600020905b81548152906001019060200180831161221557829003601f168201915b5050505050815260200160038201805461224b90612dbc565b80601f016020809104026020016040519081016040528092919081815260200182805461227790612dbc565b80156122c45780601f10612299576101008083540402835291602001916122c4565b820191906000526020600020905b8154815290600101906020018083116122a757829003601f168201915b505050505081526020016004820154815250509050806000015181602001518260800151935093509350509250925092565b6000604051905090565b600080fd5b600080fd5b600080fd5b600080fd5b6000601f19601f8301169050919050565b7f4e487b7100000000000000000000000000000000000000000000000000000000600052604160045260246000fd5b61235d82612314565b810181811067ffffffffffffffff8211171561237c5761237b612325565b5b80604052505050565b600061238f6122f6565b905061239b8282612354565b919050565b600067ffffffffffffffff8211156123bb576123ba612325565b5b6123c482612314565b9050602081019050919050565b82818337600083830152505050565b60006123f36123ee846123a0565b612385565b90508281526020810184848401111561240f5761240e61230f565b5b61241a8482856123d1565b509392505050565b600082601f8301126124375761243661230a565b5b81356124478482602086016123e0565b91505092915050565b600073ffffffffffffffffffffffffffffffffffffffff82169050919050565b600061247b82612450565b9050919050565b61248b81612470565b811461249657600080fd5b50565b6000813590506124a881612482565b92915050565b600080604083850312156124c5576124c4612300565b5b600083013567ffffffffffffffff8111156124e3576124e2612305565b5b6124ef85828601612422565b925050602061250085828601612499565b9150509250929050565b600081519050919050565b600082825260208201905092915050565b6000819050602082019050919050565b600081519050919050565b600082825260208201905092915050565b60005b83811015612570578082015181840152602081019050612555565b60008484015250505050565b600061258782612536565b6125918185612541565b93506125a1818560208601612552565b6125aa81612314565b840191505092915050565b6000819050919050565b6125c8816125b5565b82525050565b600060a08301600083015184820360008601526125eb828261257c565b91505060208301518482036020860152612605828261257c565b9150506040830151848203604086015261261f828261257c565b91505060608301518482036060860152612639828261257c565b915050608083015161264e60808601826125bf565b508091505092915050565b600061266583836125ce565b905092915050565b6000602082019050919050565b60006126858261250a565b61268f8185612515565b9350836020820285016126a185612526565b8060005b858110156126dd57848403895281516126be8582612659565b94506126c98361266d565b925060208a019950506001810190506126a5565b50829750879550505050505092915050565b60006020820190508181036000830152612709818461267a565b905092915050565b60006020828403121561272757612726612300565b5b600082013567ffffffffffffffff81111561274557612744612305565b5b61275184828501612422565b91505092915050565b600080fd5b600080fd5b61276d816125b5565b811461277857600080fd5b50565b60008135905061278a81612764565b92915050565b600060ff82169050919050565b6127a681612790565b81146127b157600080fd5b50565b6000813590506127c38161279d565b92915050565b6000819050919050565b6127dc816127c9565b81146127e757600080fd5b50565b6000813590506127f9816127d3565b92915050565b600061016082840312156128165761281561275a565b5b612821610160612385565b9050600082013567ffffffffffffffff8111156128415761284061275f565b5b61284d84828501612422565b600083015250602082013567ffffffffffffffff8111156128715761287061275f565b5b61287d84828501612422565b602083015250604082013567ffffffffffffffff8111156128a1576128a061275f565b5b6128ad84828501612422565b604083015250606082013567ffffffffffffffff8111156128d1576128d061275f565b5b6128dd84828501612422565b606083015250608082013567ffffffffffffffff8111156129015761290061275f565b5b61290d84828501612422565b60808301525060a082013567ffffffffffffffff8111156129315761293061275f565b5b61293d84828501612422565b60a08301525060c082013567ffffffffffffffff8111156129615761296061275f565b5b61296d84828501612422565b60c08301525060e06129818482850161277b565b60e083015250610100612996848285016127b4565b610100830152506101206129ac848285016127ea565b610120830152506101406129c2848285016127ea565b6101408301525092915050565b6000602082840312156129e5576129e4612300565b5b600082013567ffffffffffffffff811115612a0357612a02612305565b5b612a0f848285016127ff565b91505092915050565b600080600060608486031215612a3157612a30612300565b5b600084013567ffffffffffffffff811115612a4f57612a4e612305565b5b612a5b86828701612422565b9350506020612a6c86828701612499565b9250506040612a7d8682870161277b565b9150509250925092565b600082825260208201905092915050565b6000612aa382612536565b612aad8185612a87565b9350612abd818560208601612552565b612ac681612314565b840191505092915050565b612ada816125b5565b82525050565b60006060820190508181036000830152612afa8186612a98565b90508181036020830152612b0e8185612a98565b9050612b1d6040830184612ad1565b949350505050565b600060a0820190508181036000830152612b3f8188612a98565b90508181036020830152612b538187612a98565b90508181036040830152612b678186612a98565b90508181036060830152612b7b8185612a98565b9050612b8a6080830184612ad1565b9695505050505050565b6000819050919050565b6000612bb9612bb4612baf84612450565b612b94565b612450565b9050919050565b6000612bcb82612b9e565b9050919050565b6000612bdd82612bc0565b9050919050565b612bed81612bd2565b82525050565b6000602082019050612c086000830184612be4565b92915050565b60008060408385031215612c2557612c24612300565b5b600083013567ffffffffffffffff811115612c4357612c42612305565b5b612c4f85828601612422565b9250506020612c608582860161277b565b9150509250929050565b60006020820190508181036000830152612c848184612a98565b905092915050565b600081519050612c9b81612482565b92915050565b600060208284031215612cb757612cb6612300565b5b6000612cc584828501612c8c565b91505092915050565b7f4f6e6c792074656e646572206f776e65722063616e2076696577207468697300600082015250565b6000612d04601f83612a87565b9150612d0f82612cce565b602082019050919050565b60006020820190508181036000830152612d3381612cf7565b9050919050565b600081905092915050565b6000612d5082612536565b612d5a8185612d3a565b9350612d6a818560208601612552565b80840191505092915050565b6000612d828284612d45565b915081905092915050565b7f4e487b7100000000000000000000000000000000000000000000000000000000600052602260045260246000fd5b60006002820490506001821680612dd457607f821691505b602082108103612de757612de6612d8d565b5b50919050565b6000819050919050565b612e08612e03826125b5565b612ded565b82525050565b6000612e1a8286612d45565b9150612e268285612d45565b9150612e328284612df7565b602082019150819050949350505050565b7f19457468657265756d205369676e6564204d6573736167653a0a333200000000600082015250565b6000612e79601c83612d3a565b9150612e8482612e43565b601c82019050919050565b6000819050919050565b612eaa612ea5826127c9565b612e8f565b82525050565b6000612ebb82612e6c565b9150612ec78284612e99565b60208201915081905092915050565b612edf816127c9565b82525050565b612eee81612790565b82525050565b6000608082019050612f096000830187612ed6565b612f166020830186612ee5565b612f236040830185612ed6565b612f306060830184612ed6565b95945050505050565b7f496e76616c6964207369676e6174757265000000000000000000000000000000600082015250565b6000612f6f601183612a87565b9150612f7a82612f39565b602082019050919050565b60006020820190508181036000830152612f9e81612f62565b9050919050565b7f5369676e61747572652065787069726564000000000000000000000000000000600082015250565b6000612fdb601183612a87565b9150612fe682612fa5565b602082019050919050565b6000602082019050818103600083015261300a81612fce565b9050919050565b61301a81612470565b82525050565b6000604082019050818103600083015261303a8185612a98565b90506130496020830184613011565b9392505050565b60008115159050919050565b61306581613050565b811461307057600080fd5b50565b6000815190506130828161305c565b92915050565b60006020828403121561309e5761309d612300565b5b60006130ac84828501613073565b91505092915050565b7f4f6e6c79207061727469636970616e74732063616e2075706c6f61642074656e60008201527f64657220646f63756d656e747300000000000000000000000000000000000000602082015250565b6000613111602d83612a87565b915061311c826130b5565b604082019050919050565b6000602082019050818103600083015261314081613104565b9050919050565b60008190508160005260206000209050919050565b60006020601f8301049050919050565b600082821b905092915050565b6000600883026131a97fffffffffffffffffffffffffffffffffffffffffffffffffffffffffffffffff8261316c565b6131b3868361316c565b95508019841693508086168417925050509392505050565b60006131e66131e16131dc846125b5565b612b94565b6125b5565b9050919050565b6000819050919050565b613200836131cb565b61321461320c826131ed565b848454613179565b825550505050565b600090565b61322961321c565b6132348184846131f7565b505050565b5b818110156132585761324d600082613221565b60018101905061323a565b5050565b601f82111561329d5761326e81613147565b6132778461315c565b81016020851015613286578190505b61329a6132928561315c565b830182613239565b50505b505050565b600082821c905092915050565b60006132c0600019846008026132a2565b1980831691505092915050565b60006132d983836132af565b9150826002028217905092915050565b6132f282612536565b67ffffffffffffffff81111561330b5761330a612325565b5b6133158254612dbc565b61332082828561325c565b600060209050601f8311600181146133535760008415613341578287015190505b61334b85826132cd565b8655506133b3565b601f19841661336186613147565b60005b8281101561338957848901518255600182019150602085019450602081019050613364565b868310156133a657848901516133a2601f8916826132af565b8355505b6001600288020188555050505b505050505050565b600060808201905081810360008301526133d58187612a98565b905081810360208301526133e98186612a98565b905081810360408301526133fd8185612a98565b905061340c6060830184613011565b95945050505050565b7f4f6e6c792074656e646572206f776e65722063616e2075706c6f61642074656e60008201527f64657220696e666f20646f63756d656e74730000000000000000000000000000602082015250565b6000613471603283612a87565b915061347c82613415565b604082019050919050565b600060208201905081810360008301526134a081613464565b9050919050565b7f4e487b7100000000000000000000000000000000000000000000000000000000600052603260045260246000fdfea26469706673582212209dbe7595b2fab4229fb7b7b5b4a93c8856b43a46363aed8a31478091f453e8b964736f6c634300081c0033",
  "linkReferences": {},
  "deployedLinkReferences": {}
}