{
  "_format": "hh-sol-artifact-1",
  "contractName": "DocumentStore",
  "sourceName": "contracts/DocumentStore.sol",
  "abi": [
    {
      "inputs": [
        {
          "internalType": "address",
          "name": "tenderManagerAddress",
          "type": "address"
        }
      ],
      "stateMutability": "nonpayable",
      "type": "constructor"
    },
    {
      "anonymous": false,
      "inputs": [
        {
          "indexed": true,
          "internalType": "string",
          "name": "tenderId",
          "type": "string"
        },
        {
          "indexed": true,
          "internalType": "address",
          "name": "contestant",
          "type": "address"
        },
        {
          "indexed": false,
          "internalType": "string",
          "name": "documentCid",
          "type": "string"
        },
        {
          "indexed": false,
          "internalType": "string",
          "name": "documentName",
          "type": "string"
        },
        {
          "indexed": false,
          "internalType": "uint256",
          "name": "submissionDate",
          "type": "uint256"
        }
      ],
      "name": "DocumentUploaded",
      "type": "event"
    },
    {
      "inputs": [
        {
          "internalType": "string",
          "name": "tenderId",
          "type": "string"
        },
        {
          "internalType": "address",
          "name": "user",
          "type": "address"
        },
        {
          "internalType": "uint256",
          "name": "index",
          "type": "uint256"
        }
      ],
      "name": "getDocumentOfUserAsOwner",
      "outputs": [
        {
          "internalType": "string",
          "name": "",
          "type": "string"
        },
        {
          "internalType": "string",
          "name": "",
          "type": "string"
        },
        {
          "internalType": "uint256",
          "name": "",
          "type": "uint256"
        }
      ],
      "stateMutability": "view",
      "type": "function"
    },
    {
      "inputs": [
        {
          "internalType": "string",
          "name": "tenderId",
          "type": "string"
        },
        {
          "internalType": "address",
          "name": "user",
          "type": "address"
        }
      ],
      "name": "getDocumentsOfTenderAsOwner",
      "outputs": [
        {
          "components": [
            {
              "internalType": "string",
              "name": "documentCid",
              "type": "string"
            },
            {
              "internalType": "string",
              "name": "documentName",
              "type": "string"
            },
            {
              "internalType": "string",
              "name": "documentType",
              "type": "string"
            },
            {
              "internalType": "uint256",
              "name": "submissionDate",
              "type": "uint256"
            }
          ],
          "internalType": "struct DocumentStore.Document[]",
          "name": "",
          "type": "tuple[]"
        }
      ],
      "stateMutability": "view",
      "type": "function"
    },
    {
      "inputs": [
        {
          "internalType": "string",
          "name": "tenderId",
          "type": "string"
        },
        {
          "internalType": "uint256",
          "name": "index",
          "type": "uint256"
        }
      ],
      "name": "getMyDocument",
      "outputs": [
        {
          "internalType": "string",
          "name": "",
          "type": "string"
        },
        {
          "internalType": "string",
          "name": "",
          "type": "string"
        },
        {
          "internalType": "uint256",
          "name": "",
          "type": "uint256"
        }
      ],
      "stateMutability": "view",
      "type": "function"
    },
    {
      "inputs": [
        {
          "internalType": "string",
          "name": "tenderId",
          "type": "string"
        }
      ],
      "name": "getMyDocuments",
      "outputs": [
        {
          "components": [
            {
              "internalType": "string",
              "name": "documentCid",
              "type": "string"
            },
            {
              "internalType": "string",
              "name": "documentName",
              "type": "string"
            },
            {
              "internalType": "string",
              "name": "documentType",
              "type": "string"
            },
            {
              "internalType": "uint256",
              "name": "submissionDate",
              "type": "uint256"
            }
          ],
          "internalType": "struct DocumentStore.Document[]",
          "name": "",
          "type": "tuple[]"
        }
      ],
      "stateMutability": "view",
      "type": "function"
    },
    {
      "inputs": [
        {
          "internalType": "string",
          "name": "",
          "type": "string"
        },
        {
          "internalType": "address",
          "name": "",
          "type": "address"
        },
        {
          "internalType": "uint256",
          "name": "",
          "type": "uint256"
        }
      ],
      "name": "tenderDocuments",
      "outputs": [
        {
          "internalType": "string",
          "name": "documentCid",
          "type": "string"
        },
        {
          "internalType": "string",
          "name": "documentName",
          "type": "string"
        },
        {
          "internalType": "string",
          "name": "documentType",
          "type": "string"
        },
        {
          "internalType": "uint256",
          "name": "submissionDate",
          "type": "uint256"
        }
      ],
      "stateMutability": "view",
      "type": "function"
    },
    {
      "inputs": [],
      "name": "tenderManager",
      "outputs": [
        {
          "internalType": "contract ITenderManager",
          "name": "",
          "type": "address"
        }
      ],
      "stateMutability": "view",
      "type": "function"
    },
    {
      "inputs": [
        {
          "internalType": "string",
          "name": "tenderId",
          "type": "string"
        },
        {
          "internalType": "address",
          "name": "contestant",
          "type": "address"
        },
        {
          "internalType": "string",
          "name": "documentCid",
          "type": "string"
        },
        {
          "internalType": "string",
          "name": "documentName",
          "type": "string"
        },
        {
          "internalType": "string",
          "name": "documentType",
          "type": "string"
        }
      ],
      "name": "uploadDocument",
      "outputs": [],
      "stateMutability": "nonpayable",
      "type": "function"
    },
    {
      "inputs": [
        {
          "internalType": "string",
          "name": "tenderId",
          "type": "string"
        },
        {
          "internalType": "string",
          "name": "documentCid",
          "type": "string"
        },
        {
          "internalType": "string",
          "name": "documentName",
          "type": "string"
        },
        {
          "internalType": "string",
          "name": "documentType",
          "type": "string"
        },
        {
          "internalType": "uint256",
          "name": "deadline",
          "type": "uint256"
        },
        {
          "internalType": "uint8",
          "name": "v",
          "type": "uint8"
        },
        {
          "internalType": "bytes32",
          "name": "r",
          "type": "bytes32"
        },
        {
          "internalType": "bytes32",
          "name": "s",
          "type": "bytes32"
        }
      ],
      "name": "uploadDocumentWithSignature",
      "outputs": [],
      "stateMutability": "nonpayable",
      "type": "function"
    }
  ],
  "bytecode": "0x608060405234801561001057600080fd5b50604051612c41380380612c41833981810160405281019061003291906100dc565b80600160006101000a81548173ffffffffffffffffffffffffffffffffffffffff021916908373ffffffffffffffffffffffffffffffffffffffff16021790555050610109565b600080fd5b600073ffffffffffffffffffffffffffffffffffffffff82169050919050565b60006100a98261007e565b9050919050565b6100b98161009e565b81146100c457600080fd5b50565b6000815190506100d6816100b0565b92915050565b6000602082840312156100f2576100f1610079565b5b6000610100848285016100c7565b91505092915050565b612b29806101186000396000f3fe608060405234801561001057600080fd5b50600436106100885760003560e01c80637f9bb7811161005b5780637f9bb7811461013b5780637fa636841461016e578063a06a72f51461018a578063f983829c146101a857610088565b80631197eb711461008d578063180d60b3146100a95780633e823f07146100d95780637c4fb19014610109575b600080fd5b6100a760048036038101906100a29190611c25565b6101da565b005b6100c360048036038101906100be9190611da9565b6107ae565b6040516100d09190611fc6565b60405180910390f35b6100f360048036038101906100ee9190611fe8565b610b32565b6040516101009190611fc6565b60405180910390f35b610123600480360381019061011e9190612031565b610dac565b604051610132939291906120f9565b60405180910390f35b61015560048036038101906101509190612031565b611122565b604051610165949392919061213e565b60405180910390f35b61018860048036038101906101839190612198565b61132a565b005b610192611795565b60405161019f91906122e2565b60405180910390f35b6101c260048036038101906101bd91906122fd565b6117bb565b6040516101d1939291906120f9565b60405180910390f35b600088888888886040516020016101f59594939291906123b6565b6040516020818303038152906040528051906020012090506000816040516020016102209190612472565b60405160208183030381529060405280519060200120905060006001828787876040516000815260200160405260405161025d94939291906124b6565b6020604051602081039080840390855afa15801561027f573d6000803e3d6000fd5b505050602060405103519050600073ffffffffffffffffffffffffffffffffffffffff168173ffffffffffffffffffffffffffffffffffffffff16036102fa576040517f08c379a00000000000000000000000000000000000000000000000000000000081526004016102f190612547565b60405180910390fd5b8642111561033d576040517f08c379a0000000000000000000000000000000000000000000000000000000008152600401610334906125b3565b60405180910390fd5b6040518060400160405280600681526020017f74656e64657200000000000000000000000000000000000000000000000000008152508051906020012088805190602001200361046557600160009054906101000a900473ffffffffffffffffffffffffffffffffffffffff1673ffffffffffffffffffffffffffffffffffffffff16634756331e8c836040518363ffffffff1660e01b81526004016103e49291906125e2565b602060405180830381865afa158015610401573d6000803e3d6000fd5b505050506040513d601f19601f82011682018060405250810190610425919061264a565b610464576040517f08c379a000000000000000000000000000000000000000000000000000000000815260040161045b906126e9565b60405180910390fd5b5b600060405180608001604052808c81526020018b81526020018a815260200142815250905060008c60405161049a9190612709565b908152602001604051809103902060008373ffffffffffffffffffffffffffffffffffffffff1673ffffffffffffffffffffffffffffffffffffffff16815260200190815260200160002081908060018154018082558091505060019003906000526020600020906004020160009091909190915060008201518160000190816105249190612922565b50602082015181600101908161053a9190612922565b5060408201518160020190816105509190612922565b50606082015181600301555050600160009054906101000a900473ffffffffffffffffffffffffffffffffffffffff1673ffffffffffffffffffffffffffffffffffffffff16634756331e8d846040518363ffffffff1660e01b81526004016105ba9291906125e2565b602060405180830381865afa1580156105d7573d6000803e3d6000fd5b505050506040513d601f19601f820116820180604052508101906105fb919061264a565b1580156106a35750600160009054906101000a900473ffffffffffffffffffffffffffffffffffffffff1673ffffffffffffffffffffffffffffffffffffffff1663e4afd7c08d846040518363ffffffff1660e01b81526004016106609291906125e2565b602060405180830381865afa15801561067d573d6000803e3d6000fd5b505050506040513d601f19601f820116820180604052508101906106a1919061264a565b155b1561073857600160009054906101000a900473ffffffffffffffffffffffffffffffffffffffff1673ffffffffffffffffffffffffffffffffffffffff1663e71340688d846040518363ffffffff1660e01b81526004016107059291906125e2565b600060405180830381600087803b15801561071f57600080fd5b505af1158015610733573d6000803e3d6000fd5b505050505b8173ffffffffffffffffffffffffffffffffffffffff168c60405161075d9190612709565b60405180910390207f963ec0ad3d85928f4a4df0b4ad4eab4fea9a19714adeea20c726acd664544c448d8d42604051610798939291906120f9565b60405180910390a3505050505050505050505050565b60603373ffffffffffffffffffffffffffffffffffffffff16600160009054906101000a900473ffffffffffffffffffffffffffffffffffffffff1673ffffffffffffffffffffffffffffffffffffffff16634aaf4a12856040518263ffffffff1660e01b815260040161082291906129f4565b602060405180830381865afa15801561083f573d6000803e3d6000fd5b505050506040513d601f19601f820116820180604052508101906108639190612a2b565b73ffffffffffffffffffffffffffffffffffffffff16146108b9576040517f08c379a00000000000000000000000000000000000000000000000000000000081526004016108b090612aa4565b60405180910390fd5b6000836040516108c99190612709565b908152602001604051809103902060008373ffffffffffffffffffffffffffffffffffffffff1673ffffffffffffffffffffffffffffffffffffffff168152602001908152602001600020805480602002602001604051908101604052809291908181526020016000905b82821015610b2657838290600052602060002090600402016040518060800160405290816000820180546109679061274f565b80601f01602080910402602001604051908101604052809291908181526020018280546109939061274f565b80156109e05780601f106109b5576101008083540402835291602001916109e0565b820191906000526020600020905b8154815290600101906020018083116109c357829003601f168201915b505050505081526020016001820180546109f99061274f565b80601f0160208091040260200160405190810160405280929190818152602001828054610a259061274f565b8015610a725780601f10610a4757610100808354040283529160200191610a72565b820191906000526020600020905b815481529060010190602001808311610a5557829003601f168201915b50505050508152602001600282018054610a8b9061274f565b80601f0160208091040260200160405190810160405280929190818152602001828054610ab79061274f565b8015610b045780601f10610ad957610100808354040283529160200191610b04565b820191906000526020600020905b815481529060010190602001808311610ae757829003601f168201915b5050505050815260200160038201548152505081526020019060010190610934565b50505050905092915050565b6060600082604051610b449190612709565b908152602001604051809103902060003373ffffffffffffffffffffffffffffffffffffffff1673ffffffffffffffffffffffffffffffffffffffff168152602001908152602001600020805480602002602001604051908101604052809291908181526020016000905b82821015610da15783829060005260206000209060040201604051806080016040529081600082018054610be29061274f565b80601f0160208091040260200160405190810160405280929190818152602001828054610c0e9061274f565b8015610c5b5780601f10610c3057610100808354040283529160200191610c5b565b820191906000526020600020905b815481529060010190602001808311610c3e57829003601f168201915b50505050508152602001600182018054610c749061274f565b80601f0160208091040260200160405190810160405280929190818152602001828054610ca09061274f565b8015610ced5780601f10610cc257610100808354040283529160200191610ced565b820191906000526020600020905b815481529060010190602001808311610cd057829003601f168201915b50505050508152602001600282018054610d069061274f565b80601f0160208091040260200160405190810160405280929190818152602001828054610d329061274f565b8015610d7f5780601f10610d5457610100808354040283529160200191610d7f565b820191906000526020600020905b815481529060010190602001808311610d6257829003601f168201915b5050505050815260200160038201548152505081526020019060010190610baf565b505050509050919050565b60608060003373ffffffffffffffffffffffffffffffffffffffff16600160009054906101000a900473ffffffffffffffffffffffffffffffffffffffff1673ffffffffffffffffffffffffffffffffffffffff16634aaf4a12886040518263ffffffff1660e01b8152600401610e2391906129f4565b602060405180830381865afa158015610e40573d6000803e3d6000fd5b505050506040513d601f19601f82011682018060405250810190610e649190612a2b565b73ffffffffffffffffffffffffffffffffffffffff1614610eba576040517f08c379a0000000000000000000000000000000000000000000000000000000008152600401610eb190612aa4565b60405180910390fd5b60008087604051610ecb9190612709565b908152602001604051809103902060008773ffffffffffffffffffffffffffffffffffffffff1673ffffffffffffffffffffffffffffffffffffffff1681526020019081526020016000208581548110610f2857610f27612ac4565b5b9060005260206000209060040201604051806080016040529081600082018054610f519061274f565b80601f0160208091040260200160405190810160405280929190818152602001828054610f7d9061274f565b8015610fca5780601f10610f9f57610100808354040283529160200191610fca565b820191906000526020600020905b815481529060010190602001808311610fad57829003601f168201915b50505050508152602001600182018054610fe39061274f565b80601f016020809104026020016040519081016040528092919081815260200182805461100f9061274f565b801561105c5780601f106110315761010080835404028352916020019161105c565b820191906000526020600020905b81548152906001019060200180831161103f57829003601f168201915b505050505081526020016002820180546110759061274f565b80601f01602080910402602001604051908101604052809291908181526020018280546110a19061274f565b80156110ee5780601f106110c3576101008083540402835291602001916110ee565b820191906000526020600020905b8154815290600101906020018083116110d157829003601f168201915b5050505050815260200160038201548152505090508060000151816020015182606001519350935093505093509350939050565b600083805160208101820180518482526020830160208501208183528095505050505050602052816000526040600020818154811061116057600080fd5b906000526020600020906004020160009250925050508060000180546111859061274f565b80601f01602080910402602001604051908101604052809291908181526020018280546111b19061274f565b80156111fe5780601f106111d3576101008083540402835291602001916111fe565b820191906000526020600020905b8154815290600101906020018083116111e157829003601f168201915b5050505050908060010180546112139061274f565b80601f016020809104026020016040519081016040528092919081815260200182805461123f9061274f565b801561128c5780601f106112615761010080835404028352916020019161128c565b820191906000526020600020905b81548152906001019060200180831161126f57829003601f168201915b5050505050908060020180546112a19061274f565b80601f01602080910402602001604051908101604052809291908181526020018280546112cd9061274f565b801561131a5780601f106112ef5761010080835404028352916020019161131a565b820191906000526020600020905b8154815290600101906020018083116112fd57829003601f168201915b5050505050908060030154905084565b6040518060400160405280600681526020017f74656e64657200000000000000000000000000000000000000000000000000008152508051906020012081805190602001200361145257600160009054906101000a900473ffffffffffffffffffffffffffffffffffffffff1673ffffffffffffffffffffffffffffffffffffffff16634756331e86866040518363ffffffff1660e01b81526004016113d19291906125e2565b602060405180830381865afa1580156113ee573d6000803e3d6000fd5b505050506040513d601f19601f82011682018060405250810190611412919061264a565b611451576040517f08c379a0000000000000000000000000000000000000000000000000000000008152600401611448906126e9565b60405180910390fd5b5b600060405180608001604052808581526020018481526020018381526020014281525090506000866040516114879190612709565b908152602001604051809103902060008673ffffffffffffffffffffffffffffffffffffffff1673ffffffffffffffffffffffffffffffffffffffff16815260200190815260200160002081908060018154018082558091505060019003906000526020600020906004020160009091909190915060008201518160000190816115119190612922565b5060208201518160010190816115279190612922565b50604082015181600201908161153d9190612922565b50606082015181600301555050600160009054906101000a900473ffffffffffffffffffffffffffffffffffffffff1673ffffffffffffffffffffffffffffffffffffffff16634756331e87876040518363ffffffff1660e01b81526004016115a79291906125e2565b602060405180830381865afa1580156115c4573d6000803e3d6000fd5b505050506040513d601f19601f820116820180604052508101906115e8919061264a565b1580156116905750600160009054906101000a900473ffffffffffffffffffffffffffffffffffffffff1673ffffffffffffffffffffffffffffffffffffffff1663e4afd7c087876040518363ffffffff1660e01b815260040161164d9291906125e2565b602060405180830381865afa15801561166a573d6000803e3d6000fd5b505050506040513d601f19601f8201168201806040525081019061168e919061264a565b155b1561172557600160009054906101000a900473ffffffffffffffffffffffffffffffffffffffff1673ffffffffffffffffffffffffffffffffffffffff1663e713406887876040518363ffffffff1660e01b81526004016116f29291906125e2565b600060405180830381600087803b15801561170c57600080fd5b505af1158015611720573d6000803e3d6000fd5b505050505b8473ffffffffffffffffffffffffffffffffffffffff168660405161174a9190612709565b60405180910390207f963ec0ad3d85928f4a4df0b4ad4eab4fea9a19714adeea20c726acd664544c44868642604051611785939291906120f9565b60405180910390a3505050505050565b600160009054906101000a900473ffffffffffffffffffffffffffffffffffffffff1681565b6060806000806000866040516117d19190612709565b908152602001604051809103902060003373ffffffffffffffffffffffffffffffffffffffff1673ffffffffffffffffffffffffffffffffffffffff168152602001908152602001600020858154811061182e5761182d612ac4565b5b90600052602060002090600402016040518060800160405290816000820180546118579061274f565b80601f01602080910402602001604051908101604052809291908181526020018280546118839061274f565b80156118d05780601f106118a5576101008083540402835291602001916118d0565b820191906000526020600020905b8154815290600101906020018083116118b357829003601f168201915b505050505081526020016001820180546118e99061274f565b80601f01602080910402602001604051908101604052809291908181526020018280546119159061274f565b80156119625780601f1061193757610100808354040283529160200191611962565b820191906000526020600020905b81548152906001019060200180831161194557829003601f168201915b5050505050815260200160028201805461197b9061274f565b80601f01602080910402602001604051908101604052809291908181526020018280546119a79061274f565b80156119f45780601f106119c9576101008083540402835291602001916119f4565b820191906000526020600020905b8154815290600101906020018083116119d757829003601f168201915b505050505081526020016003820154815250509050806000015181602001518260600151935093509350509250925092565b6000604051905090565b600080fd5b600080fd5b600080fd5b600080fd5b6000601f19601f8301169050919050565b7f4e487b7100000000000000000000000000000000000000000000000000000000600052604160045260246000fd5b611a8d82611a44565b810181811067ffffffffffffffff82111715611aac57611aab611a55565b5b80604052505050565b6000611abf611a26565b9050611acb8282611a84565b919050565b600067ffffffffffffffff821115611aeb57611aea611a55565b5b611af482611a44565b9050602081019050919050565b82818337600083830152505050565b6000611b23611b1e84611ad0565b611ab5565b905082815260208101848484011115611b3f57611b3e611a3f565b5b611b4a848285611b01565b509392505050565b600082601f830112611b6757611b66611a3a565b5b8135611b77848260208601611b10565b91505092915050565b6000819050919050565b611b9381611b80565b8114611b9e57600080fd5b50565b600081359050611bb081611b8a565b92915050565b600060ff82169050919050565b611bcc81611bb6565b8114611bd757600080fd5b50565b600081359050611be981611bc3565b92915050565b6000819050919050565b611c0281611bef565b8114611c0d57600080fd5b50565b600081359050611c1f81611bf9565b92915050565b600080600080600080600080610100898b031215611c4657611c45611a30565b5b600089013567ffffffffffffffff811115611c6457611c63611a35565b5b611c708b828c01611b52565b985050602089013567ffffffffffffffff811115611c9157611c90611a35565b5b611c9d8b828c01611b52565b975050604089013567ffffffffffffffff811115611cbe57611cbd611a35565b5b611cca8b828c01611b52565b965050606089013567ffffffffffffffff811115611ceb57611cea611a35565b5b611cf78b828c01611b52565b9550506080611d088b828c01611ba1565b94505060a0611d198b828c01611bda565b93505060c0611d2a8b828c01611c10565b92505060e0611d3b8b828c01611c10565b9150509295985092959890939650565b600073ffffffffffffffffffffffffffffffffffffffff82169050919050565b6000611d7682611d4b565b9050919050565b611d8681611d6b565b8114611d9157600080fd5b50565b600081359050611da381611d7d565b92915050565b60008060408385031215611dc057611dbf611a30565b5b600083013567ffffffffffffffff811115611dde57611ddd611a35565b5b611dea85828601611b52565b9250506020611dfb85828601611d94565b9150509250929050565b600081519050919050565b600082825260208201905092915050565b6000819050602082019050919050565b600081519050919050565b600082825260208201905092915050565b60005b83811015611e6b578082015181840152602081019050611e50565b60008484015250505050565b6000611e8282611e31565b611e8c8185611e3c565b9350611e9c818560208601611e4d565b611ea581611a44565b840191505092915050565b611eb981611b80565b82525050565b60006080830160008301518482036000860152611edc8282611e77565b91505060208301518482036020860152611ef68282611e77565b91505060408301518482036040860152611f108282611e77565b9150506060830151611f256060860182611eb0565b508091505092915050565b6000611f3c8383611ebf565b905092915050565b6000602082019050919050565b6000611f5c82611e05565b611f668185611e10565b935083602082028501611f7885611e21565b8060005b85811015611fb45784840389528151611f958582611f30565b9450611fa083611f44565b925060208a01995050600181019050611f7c565b50829750879550505050505092915050565b60006020820190508181036000830152611fe08184611f51565b905092915050565b600060208284031215611ffe57611ffd611a30565b5b600082013567ffffffffffffffff81111561201c5761201b611a35565b5b61202884828501611b52565b91505092915050565b60008060006060848603121561204a57612049611a30565b5b600084013567ffffffffffffffff81111561206857612067611a35565b5b61207486828701611b52565b935050602061208586828701611d94565b925050604061209686828701611ba1565b9150509250925092565b600082825260208201905092915050565b60006120bc82611e31565b6120c681856120a0565b93506120d6818560208601611e4d565b6120df81611a44565b840191505092915050565b6120f381611b80565b82525050565b6000606082019050818103600083015261211381866120b1565b9050818103602083015261212781856120b1565b905061213660408301846120ea565b949350505050565b6000608082019050818103600083015261215881876120b1565b9050818103602083015261216c81866120b1565b9050818103604083015261218081856120b1565b905061218f60608301846120ea565b95945050505050565b600080600080600060a086880312156121b4576121b3611a30565b5b600086013567ffffffffffffffff8111156121d2576121d1611a35565b5b6121de88828901611b52565b95505060206121ef88828901611d94565b945050604086013567ffffffffffffffff8111156122105761220f611a35565b5b61221c88828901611b52565b935050606086013567ffffffffffffffff81111561223d5761223c611a35565b5b61224988828901611b52565b925050608086013567ffffffffffffffff81111561226a57612269611a35565b5b61227688828901611b52565b9150509295509295909350565b6000819050919050565b60006122a86122a361229e84611d4b565b612283565b611d4b565b9050919050565b60006122ba8261228d565b9050919050565b60006122cc826122af565b9050919050565b6122dc816122c1565b82525050565b60006020820190506122f760008301846122d3565b92915050565b6000806040838503121561231457612313611a30565b5b600083013567ffffffffffffffff81111561233257612331611a35565b5b61233e85828601611b52565b925050602061234f85828601611ba1565b9150509250929050565b600081905092915050565b600061236f82611e31565b6123798185612359565b9350612389818560208601611e4d565b80840191505092915050565b6000819050919050565b6123b06123ab82611b80565b612395565b82525050565b60006123c28288612364565b91506123ce8287612364565b91506123da8286612364565b91506123e68285612364565b91506123f2828461239f565b6020820191508190509695505050505050565b7f19457468657265756d205369676e6564204d6573736167653a0a333200000000600082015250565b600061243b601c83612359565b915061244682612405565b601c82019050919050565b6000819050919050565b61246c61246782611bef565b612451565b82525050565b600061247d8261242e565b9150612489828461245b565b60208201915081905092915050565b6124a181611bef565b82525050565b6124b081611bb6565b82525050565b60006080820190506124cb6000830187612498565b6124d860208301866124a7565b6124e56040830185612498565b6124f26060830184612498565b95945050505050565b7f496e76616c6964207369676e6174757265000000000000000000000000000000600082015250565b60006125316011836120a0565b915061253c826124fb565b602082019050919050565b6000602082019050818103600083015261256081612524565b9050919050565b7f5369676e61747572652065787069726564000000000000000000000000000000600082015250565b600061259d6011836120a0565b91506125a882612567565b602082019050919050565b600060208201905081810360008301526125cc81612590565b9050919050565b6125dc81611d6b565b82525050565b600060408201905081810360008301526125fc81856120b1565b905061260b60208301846125d3565b9392505050565b60008115159050919050565b61262781612612565b811461263257600080fd5b50565b6000815190506126448161261e565b92915050565b6000602082840312156126605761265f611a30565b5b600061266e84828501612635565b91505092915050565b7f4f6e6c79207061727469636970616e74732063616e2075706c6f61642074656e60008201527f64657220646f63756d656e747300000000000000000000000000000000000000602082015250565b60006126d3602d836120a0565b91506126de82612677565b604082019050919050565b60006020820190508181036000830152612702816126c6565b9050919050565b60006127158284612364565b915081905092915050565b7f4e487b7100000000000000000000000000000000000000000000000000000000600052602260045260246000fd5b6000600282049050600182168061276757607f821691505b60208210810361277a57612779612720565b5b50919050565b60008190508160005260206000209050919050565b60006020601f8301049050919050565b600082821b905092915050565b6000600883026127e27fffffffffffffffffffffffffffffffffffffffffffffffffffffffffffffffff826127a5565b6127ec86836127a5565b95508019841693508086168417925050509392505050565b600061281f61281a61281584611b80565b612283565b611b80565b9050919050565b6000819050919050565b61283983612804565b61284d61284582612826565b8484546127b2565b825550505050565b600090565b612862612855565b61286d818484612830565b505050565b5b818110156128915761288660008261285a565b600181019050612873565b5050565b601f8211156128d6576128a781612780565b6128b084612795565b810160208510156128bf578190505b6128d36128cb85612795565b830182612872565b50505b505050565b600082821c905092915050565b60006128f9600019846008026128db565b1980831691505092915050565b600061291283836128e8565b9150826002028217905092915050565b61292b82611e31565b67ffffffffffffffff81111561294457612943611a55565b5b61294e825461274f565b612959828285612895565b600060209050601f83116001811461298c576000841561297a578287015190505b6129848582612906565b8655506129ec565b601f19841661299a86612780565b60005b828110156129c25784890151825560018201915060208501945060208101905061299d565b868310156129df57848901516129db601f8916826128e8565b8355505b6001600288020188555050505b505050505050565b60006020820190508181036000830152612a0e81846120b1565b905092915050565b600081519050612a2581611d7d565b92915050565b600060208284031215612a4157612a40611a30565b5b6000612a4f84828501612a16565b91505092915050565b7f4f6e6c792074656e646572206f776e65722063616e2076696577207468697300600082015250565b6000612a8e601f836120a0565b9150612a9982612a58565b602082019050919050565b60006020820190508181036000830152612abd81612a81565b9050919050565b7f4e487b7100000000000000000000000000000000000000000000000000000000600052603260045260246000fdfea2646970667358221220c89f831d992beffcb589ac10f5009ec6e69c62e5c672b73dcd782d68e1e93e7c64736f6c634300081c0033",
  "linkReferences": {},
  "deployedLinkReferences": {}
}