{
  "_format": "hh-sol-artifact-1",
  "contractName": "AccessManager",
  "sourceName": "contracts/AccessManager.sol",
  "abi": [
    {
      "inputs": [
        {
          "internalType": "address",
          "name": "documentStoreAddress",
          "type": "address"
        },
        {
          "internalType": "address",
          "name": "publicKeyStorageAddress",
          "type": "address"
        }
      ],
      "stateMutability": "nonpayable",
      "type": "constructor"
    },
    {
      "anonymous": false,
      "inputs": [
        {
          "indexed": false,
          "internalType": "address",
          "name": "receiver",
          "type": "address"
        },
        {
          "indexed": false,
          "internalType": "address",
          "name": "sender",
          "type": "address"
        },
        {
          "indexed": false,
          "internalType": "string",
          "name": "encryptedKey",
          "type": "string"
        },
        {
          "indexed": false,
          "internalType": "string",
          "name": "iv",
          "type": "string"
        },
        {
          "indexed": false,
          "internalType": "string",
          "name": "cid",
          "type": "string"
        }
      ],
      "name": "EmitContentKey",
      "type": "event"
    },
    {
      "anonymous": false,
      "inputs": [
        {
          "indexed": false,
          "internalType": "address",
          "name": "receiver",
          "type": "address"
        },
        {
          "indexed": false,
          "internalType": "address",
          "name": "participantAddress",
          "type": "address"
        },
        {
          "indexed": false,
          "internalType": "string",
          "name": "encryptedKey",
          "type": "string"
        },
        {
          "indexed": false,
          "internalType": "string",
          "name": "iv",
          "type": "string"
        },
        {
          "indexed": false,
          "internalType": "string",
          "name": "cid",
          "type": "string"
        },
        {
          "indexed": false,
          "internalType": "string",
          "name": "encryptedTenderId",
          "type": "string"
        }
      ],
      "name": "EmitParticipantTenderMetadataKey",
      "type": "event"
    },
    {
      "anonymous": false,
      "inputs": [
        {
          "indexed": false,
          "internalType": "address",
          "name": "receiver",
          "type": "address"
        },
        {
          "indexed": false,
          "internalType": "address",
          "name": "sender",
          "type": "address"
        },
        {
          "indexed": false,
          "internalType": "string",
          "name": "encryptedKey",
          "type": "string"
        },
        {
          "indexed": false,
          "internalType": "string",
          "name": "iv",
          "type": "string"
        },
        {
          "indexed": false,
          "internalType": "string",
          "name": "cid",
          "type": "string"
        },
        {
          "indexed": false,
          "internalType": "string",
          "name": "tenderId",
          "type": "string"
        }
      ],
      "name": "EmitTenderKey",
      "type": "event"
    },
    {
      "anonymous": false,
      "inputs": [
        {
          "indexed": false,
          "internalType": "address",
          "name": "requester",
          "type": "address"
        },
        {
          "indexed": false,
          "internalType": "address",
          "name": "receiver",
          "type": "address"
        },
        {
          "indexed": false,
          "internalType": "string",
          "name": "cid",
          "type": "string"
        }
      ],
      "name": "RequestAccessContent",
      "type": "event"
    },
    {
      "anonymous": false,
      "inputs": [
        {
          "indexed": false,
          "internalType": "address",
          "name": "requester",
          "type": "address"
        },
        {
          "indexed": false,
          "internalType": "address",
          "name": "receiver",
          "type": "address"
        },
        {
          "indexed": false,
          "internalType": "string",
          "name": "tenderId",
          "type": "string"
        },
        {
          "indexed": false,
          "internalType": "string",
          "name": "tenderName",
          "type": "string"
        },
        {
          "indexed": false,
          "internalType": "string",
          "name": "tenderStartDate",
          "type": "string"
        },
        {
          "indexed": false,
          "internalType": "string",
          "name": "tenderEndDate",
          "type": "string"
        }
      ],
      "name": "RequestAccessTender",
      "type": "event"
    },
    {
      "inputs": [],
      "name": "documentStore",
      "outputs": [
        {
          "internalType": "contract IDocumentStore",
          "name": "",
          "type": "address"
        }
      ],
      "stateMutability": "view",
      "type": "function"
    },
    {
      "inputs": [
        {
          "components": [
            {
              "components": [
                {
                  "internalType": "address",
                  "name": "receiver",
                  "type": "address"
                },
                {
                  "internalType": "string",
                  "name": "encryptedKey",
                  "type": "string"
                },
                {
                  "internalType": "string",
                  "name": "iv",
                  "type": "string"
                },
                {
                  "internalType": "string",
                  "name": "cid",
                  "type": "string"
                }
              ],
              "internalType": "struct AccessManager.EmitKeyInput",
              "name": "contentKey",
              "type": "tuple"
            },
            {
              "components": [
                {
                  "internalType": "address",
                  "name": "receiver",
                  "type": "address"
                },
                {
                  "internalType": "string",
                  "name": "encryptedKey",
                  "type": "string"
                },
                {
                  "internalType": "string",
                  "name": "iv",
                  "type": "string"
                },
                {
                  "internalType": "string",
                  "name": "cid",
                  "type": "string"
                },
                {
                  "internalType": "string",
                  "name": "tenderId",
                  "type": "string"
                }
              ],
              "internalType": "struct AccessManager.EmitTenderKeyInput",
              "name": "tenderKey",
              "type": "tuple"
            }
          ],
          "internalType": "struct AccessManager.EmitCombinedKeyInput[]",
          "name": "inputs",
          "type": "tuple[]"
        }
      ],
      "name": "emitCombinedKeys",
      "outputs": [],
      "stateMutability": "nonpayable",
      "type": "function"
    },
    {
      "inputs": [
        {
          "components": [
            {
              "internalType": "address",
              "name": "receiver",
              "type": "address"
            },
            {
              "internalType": "string",
              "name": "encryptedKey",
              "type": "string"
            },
            {
              "internalType": "string",
              "name": "iv",
              "type": "string"
            },
            {
              "internalType": "string",
              "name": "cid",
              "type": "string"
            }
          ],
          "internalType": "struct AccessManager.EmitKeyInput",
          "name": "input",
          "type": "tuple"
        }
      ],
      "name": "emitContentKey",
      "outputs": [],
      "stateMutability": "nonpayable",
      "type": "function"
    },
    {
      "inputs": [
        {
          "components": [
            {
              "internalType": "address",
              "name": "receiver",
              "type": "address"
            },
            {
              "internalType": "address",
              "name": "participantAddress",
              "type": "address"
            },
            {
              "internalType": "string",
              "name": "encryptedKey",
              "type": "string"
            },
            {
              "internalType": "string",
              "name": "iv",
              "type": "string"
            },
            {
              "internalType": "string",
              "name": "cid",
              "type": "string"
            },
            {
              "internalType": "string",
              "name": "encryptedTenderId",
              "type": "string"
            }
          ],
          "internalType": "struct AccessManager.EmitParticipantTenderMetadataKeyInput[]",
          "name": "inputs",
          "type": "tuple[]"
        }
      ],
      "name": "emitParticipantTenderMetadataKey",
      "outputs": [],
      "stateMutability": "nonpayable",
      "type": "function"
    },
    {
      "inputs": [
        {
          "components": [
            {
              "internalType": "address",
              "name": "receiver",
              "type": "address"
            },
            {
              "internalType": "string",
              "name": "encryptedKey",
              "type": "string"
            },
            {
              "internalType": "string",
              "name": "iv",
              "type": "string"
            },
            {
              "internalType": "string",
              "name": "cid",
              "type": "string"
            },
            {
              "internalType": "string",
              "name": "tenderId",
              "type": "string"
            }
          ],
          "internalType": "struct AccessManager.EmitTenderKeyInput[]",
          "name": "inputs",
          "type": "tuple[]"
        }
      ],
      "name": "emitTenderKey",
      "outputs": [],
      "stateMutability": "nonpayable",
      "type": "function"
    },
    {
      "inputs": [
        {
          "internalType": "string",
          "name": "cid",
          "type": "string"
        },
        {
          "internalType": "address",
          "name": "receiver",
          "type": "address"
        }
      ],
      "name": "getEncryptedContentKey",
      "outputs": [
        {
          "internalType": "string",
          "name": "",
          "type": "string"
        },
        {
          "internalType": "string",
          "name": "",
          "type": "string"
        }
      ],
      "stateMutability": "view",
      "type": "function"
    },
    {
      "inputs": [
        {
          "internalType": "string",
          "name": "tenderId",
          "type": "string"
        },
        {
          "internalType": "address",
          "name": "receiver",
          "type": "address"
        }
      ],
      "name": "getEncryptedTenderKey",
      "outputs": [
        {
          "internalType": "string",
          "name": "",
          "type": "string"
        },
        {
          "internalType": "string",
          "name": "",
          "type": "string"
        }
      ],
      "stateMutability": "view",
      "type": "function"
    },
    {
      "inputs": [],
      "name": "publicKeyStorage",
      "outputs": [
        {
          "internalType": "contract IPublicKeyStorage",
          "name": "",
          "type": "address"
        }
      ],
      "stateMutability": "view",
      "type": "function"
    },
    {
      "inputs": [
        {
          "components": [
            {
              "internalType": "address",
              "name": "receiver",
              "type": "address"
            },
            {
              "internalType": "string",
              "name": "cid",
              "type": "string"
            }
          ],
          "internalType": "struct AccessManager.RequestAccessInput",
          "name": "input",
          "type": "tuple"
        }
      ],
      "name": "requestAccessContent",
      "outputs": [],
      "stateMutability": "nonpayable",
      "type": "function"
    },
    {
      "inputs": [
        {
          "internalType": "string",
          "name": "tenderId",
          "type": "string"
        },
        {
          "internalType": "string",
          "name": "tenderName",
          "type": "string"
        },
        {
          "internalType": "string",
          "name": "tenderStartDate",
          "type": "string"
        },
        {
          "internalType": "string",
          "name": "tenderEndDate",
          "type": "string"
        },
        {
          "internalType": "address",
          "name": "receiver",
          "type": "address"
        }
      ],
      "name": "requestAccessTender",
      "outputs": [],
      "stateMutability": "nonpayable",
      "type": "function"
    }
  ],
  "bytecode": "0x608060405234801561001057600080fd5b5060405161324c38038061324c8339818101604052810190610032919061011d565b816000806101000a81548173ffffffffffffffffffffffffffffffffffffffff021916908373ffffffffffffffffffffffffffffffffffffffff16021790555080600160006101000a81548173ffffffffffffffffffffffffffffffffffffffff021916908373ffffffffffffffffffffffffffffffffffffffff160217905550505061015d565b600080fd5b600073ffffffffffffffffffffffffffffffffffffffff82169050919050565b60006100ea826100bf565b9050919050565b6100fa816100df565b811461010557600080fd5b50565b600081519050610117816100f1565b92915050565b60008060408385031215610134576101336100ba565b5b600061014285828601610108565b925050602061015385828601610108565b9150509250929050565b6130e08061016c6000396000f3fe608060405234801561001057600080fd5b506004361061009e5760003560e01c80637def3c9a116100665780637def3c9a146101485780639ec1aadd14610164578063a18e460d14610180578063a6d047c11461019c578063b5170ba1146101b85761009e565b80630dc80d0c146100a3578063101643c8146100d45780633f9474ab146100f0578063408acd331461010c5780636dbfdf251461012a575b600080fd5b6100bd60048036038101906100b89190611d7f565b6101e9565b6040516100cb929190611e5a565b60405180910390f35b6100ee60048036038101906100e99190611f67565b6103c5565b005b61010a600480360381019061010591906121a6565b61070e565b005b610114610820565b604051610121919061224e565b60405180910390f35b610132610844565b60405161013f919061228a565b60405180910390f35b610162600480360381019061015d919061250a565b61086a565b005b61017e60048036038101906101799190612553565b610fbe565b005b61019a600480360381019061019591906126aa565b611274565b005b6101b660048036038101906101b191906127d4565b611530565b005b6101d260048036038101906101cd9190611d7f565b6119eb565b6040516101e0929190611e5a565b60405180910390f35b6060806005846040516101fc9190612859565b908152602001604051809103902060008473ffffffffffffffffffffffffffffffffffffffff1673ffffffffffffffffffffffffffffffffffffffff1681526020019081526020016000206006856040516102579190612859565b908152602001604051809103902060008573ffffffffffffffffffffffffffffffffffffffff1673ffffffffffffffffffffffffffffffffffffffff1681526020019081526020016000208180546102ae9061289f565b80601f01602080910402602001604051908101604052809291908181526020018280546102da9061289f565b80156103275780601f106102fc57610100808354040283529160200191610327565b820191906000526020600020905b81548152906001019060200180831161030a57829003601f168201915b5050505050915080805461033a9061289f565b80601f01602080910402602001604051908101604052809291908181526020018280546103669061289f565b80156103b35780601f10610388576101008083540402835291602001916103b3565b820191906000526020600020905b81548152906001019060200180831161039657829003601f168201915b50505050509050915091509250929050565b60003373ffffffffffffffffffffffffffffffffffffffff1660008054906101000a900473ffffffffffffffffffffffffffffffffffffffff1673ffffffffffffffffffffffffffffffffffffffff1663cb356d9184606001516040518263ffffffff1660e01b815260040161043b91906128d0565b602060405180830381865afa158015610458573d6000803e3d6000fd5b505050506040513d601f19601f8201168201806040525081019061047c9190612907565b73ffffffffffffffffffffffffffffffffffffffff1614905060003373ffffffffffffffffffffffffffffffffffffffff1660008054906101000a900473ffffffffffffffffffffffffffffffffffffffff1673ffffffffffffffffffffffffffffffffffffffff16631f567bcb85606001516040518263ffffffff1660e01b815260040161050b91906128d0565b602060405180830381865afa158015610528573d6000803e3d6000fd5b505050506040513d601f19601f8201168201806040525081019061054c9190612907565b73ffffffffffffffffffffffffffffffffffffffff1614905081158015610571575080155b156105d057604051602001610585906129a6565b6040516020818303038152906040526040517f08c379a00000000000000000000000000000000000000000000000000000000081526004016105c791906128d0565b60405180910390fd5b8260200151600284606001516040516105e99190612859565b90815260200160405180910390206000856000015173ffffffffffffffffffffffffffffffffffffffff1673ffffffffffffffffffffffffffffffffffffffff16815260200190815260200160002090816106449190612b67565b5082604001516003846060015160405161065e9190612859565b90815260200160405180910390206000856000015173ffffffffffffffffffffffffffffffffffffffff1673ffffffffffffffffffffffffffffffffffffffff16815260200190815260200160002090816106b99190612b67565b507f7bf5593de59b1ab6196194664fe98b1d1dc3df5ee48141fd577f0ff7afd9bb82836000015133856020015186604001518760600151604051610701959493929190612c48565b60405180910390a1505050565b60005b815181101561081c577f168eeef698f77c2b067028deb2abf1d5d9398528d4bdad19943ba9238dbcc33682828151811061074e5761074d612cb0565b5b60200260200101516000015183838151811061076d5761076c612cb0565b5b60200260200101516020015184848151811061078c5761078b612cb0565b5b6020026020010151604001518585815181106107ab576107aa612cb0565b5b6020026020010151606001518686815181106107ca576107c9612cb0565b5b6020026020010151608001518787815181106107e9576107e8612cb0565b5b602002602001015160a0015160405161080796959493929190612cdf565b60405180910390a18080600101915050610711565b5050565b60008054906101000a900473ffffffffffffffffffffffffffffffffffffffff1681565b600160009054906101000a900473ffffffffffffffffffffffffffffffffffffffff1681565b60005b8151811015610fba5760003373ffffffffffffffffffffffffffffffffffffffff1660008054906101000a900473ffffffffffffffffffffffffffffffffffffffff1673ffffffffffffffffffffffffffffffffffffffff1663cb356d918585815181106108de576108dd612cb0565b5b602002602001015160000151606001516040518263ffffffff1660e01b815260040161090a91906128d0565b602060405180830381865afa158015610927573d6000803e3d6000fd5b505050506040513d601f19601f8201168201806040525081019061094b9190612907565b73ffffffffffffffffffffffffffffffffffffffff1614905060003373ffffffffffffffffffffffffffffffffffffffff1660008054906101000a900473ffffffffffffffffffffffffffffffffffffffff1673ffffffffffffffffffffffffffffffffffffffff16631f567bcb8686815181106109cc576109cb612cb0565b5b602002602001015160000151606001516040518263ffffffff1660e01b81526004016109f891906128d0565b602060405180830381865afa158015610a15573d6000803e3d6000fd5b505050506040513d601f19601f82011682018060405250810190610a399190612907565b73ffffffffffffffffffffffffffffffffffffffff1614905081158015610a5e575080155b15610abd57604051602001610a7290612dce565b6040516020818303038152906040526040517f08c379a0000000000000000000000000000000000000000000000000000000008152600401610ab491906128d0565b60405180910390fd5b838381518110610ad057610acf612cb0565b5b602002602001015160000151602001516002858581518110610af557610af4612cb0565b5b60200260200101516000015160600151604051610b129190612859565b90815260200160405180910390206000868681518110610b3557610b34612cb0565b5b6020026020010151600001516000015173ffffffffffffffffffffffffffffffffffffffff1673ffffffffffffffffffffffffffffffffffffffff1681526020019081526020016000209081610b8b9190612b67565b50838381518110610b9f57610b9e612cb0565b5b602002602001015160000151604001516003858581518110610bc457610bc3612cb0565b5b60200260200101516000015160600151604051610be19190612859565b90815260200160405180910390206000868681518110610c0457610c03612cb0565b5b6020026020010151600001516000015173ffffffffffffffffffffffffffffffffffffffff1673ffffffffffffffffffffffffffffffffffffffff1681526020019081526020016000209081610c5a9190612b67565b507f7bf5593de59b1ab6196194664fe98b1d1dc3df5ee48141fd577f0ff7afd9bb82848481518110610c8f57610c8e612cb0565b5b6020026020010151600001516000015133868681518110610cb357610cb2612cb0565b5b60200260200101516000015160200151878781518110610cd657610cd5612cb0565b5b60200260200101516000015160400151888881518110610cf957610cf8612cb0565b5b60200260200101516000015160600151604051610d1a959493929190612c48565b60405180910390a1838381518110610d3557610d34612cb0565b5b602002602001015160200151602001516005858581518110610d5a57610d59612cb0565b5b60200260200101516020015160600151604051610d779190612859565b90815260200160405180910390206000868681518110610d9a57610d99612cb0565b5b6020026020010151602001516000015173ffffffffffffffffffffffffffffffffffffffff1673ffffffffffffffffffffffffffffffffffffffff1681526020019081526020016000209081610df09190612b67565b50838381518110610e0457610e03612cb0565b5b602002602001015160200151604001516006858581518110610e2957610e28612cb0565b5b60200260200101516020015160600151604051610e469190612859565b90815260200160405180910390206000868681518110610e6957610e68612cb0565b5b6020026020010151602001516000015173ffffffffffffffffffffffffffffffffffffffff1673ffffffffffffffffffffffffffffffffffffffff1681526020019081526020016000209081610ebf9190612b67565b507f3e88a46403613c6e45c352aab06ce620d60806c1fafe6834aab5f0edd076314d848481518110610ef457610ef3612cb0565b5b6020026020010151602001516000015133868681518110610f1857610f17612cb0565b5b60200260200101516020015160200151878781518110610f3b57610f3a612cb0565b5b60200260200101516020015160400151888881518110610f5e57610f5d612cb0565b5b60200260200101516020015160600151898981518110610f8157610f80612cb0565b5b60200260200101516020015160800151604051610fa396959493929190612cdf565b60405180910390a15050808060010191505061086d565b5050565b604051602001610fcd90612e2f565b60405160208183030381529060405280519060200120600160009054906101000a900473ffffffffffffffffffffffffffffffffffffffff1673ffffffffffffffffffffffffffffffffffffffff166344276733336040518263ffffffff1660e01b815260040161103e9190612e44565b600060405180830381865afa15801561105b573d6000803e3d6000fd5b505050506040513d6000823e3d601f19601f820116820180604052508101906110849190612ecf565b6040516020016110949190612859565b6040516020818303038152906040528051906020012014611109576040516020016110be90612f64565b6040516020818303038152906040526040517f08c379a000000000000000000000000000000000000000000000000000000000815260040161110091906128d0565b60405180910390fd5b6000151560078660405161111d9190612859565b908152602001604051809103902060003373ffffffffffffffffffffffffffffffffffffffff1673ffffffffffffffffffffffffffffffffffffffff16815260200190815260200160002060009054906101000a900460ff161515146111b8576040517f08c379a00000000000000000000000000000000000000000000000000000000081526004016111af90612fc5565b60405180910390fd5b60016007866040516111ca9190612859565b908152602001604051809103902060003373ffffffffffffffffffffffffffffffffffffffff1673ffffffffffffffffffffffffffffffffffffffff16815260200190815260200160002060006101000a81548160ff0219169083151502179055507fa2b873bcbdb25b34bb52b63d8d02f740e9e8d0a591cae0c92bf793d9e89aa18e33828787878760405161126596959493929190612cdf565b60405180910390a15050505050565b60405160200161128390612e2f565b60405160208183030381529060405280519060200120600160009054906101000a900473ffffffffffffffffffffffffffffffffffffffff1673ffffffffffffffffffffffffffffffffffffffff166344276733336040518263ffffffff1660e01b81526004016112f49190612e44565b600060405180830381865afa158015611311573d6000803e3d6000fd5b505050506040513d6000823e3d601f19601f8201168201806040525081019061133a9190612ecf565b60405160200161134a9190612859565b60405160208183030381529060405280519060200120146113bf5760405160200161137490612f64565b6040516020818303038152906040526040517f08c379a00000000000000000000000000000000000000000000000000000000081526004016113b691906128d0565b60405180910390fd5b60001515600482602001516040516113d79190612859565b908152602001604051809103902060003373ffffffffffffffffffffffffffffffffffffffff1673ffffffffffffffffffffffffffffffffffffffff16815260200190815260200160002060009054906101000a900460ff16151514611472576040517f08c379a000000000000000000000000000000000000000000000000000000000815260040161146990612fc5565b60405180910390fd5b6001600482602001516040516114889190612859565b908152602001604051809103902060003373ffffffffffffffffffffffffffffffffffffffff1673ffffffffffffffffffffffffffffffffffffffff16815260200190815260200160002060006101000a81548160ff0219169083151502179055507fc2a6d5963749ec1cf48a0e17e4f12218f713af0b6676a1649f11cf6f8e491bef338260000151836020015160405161152593929190612fe5565b60405180910390a150565b60005b81518110156119e75760003373ffffffffffffffffffffffffffffffffffffffff1660008054906101000a900473ffffffffffffffffffffffffffffffffffffffff1673ffffffffffffffffffffffffffffffffffffffff1663cb356d918585815181106115a4576115a3612cb0565b5b6020026020010151606001516040518263ffffffff1660e01b81526004016115cc91906128d0565b602060405180830381865afa1580156115e9573d6000803e3d6000fd5b505050506040513d601f19601f8201168201806040525081019061160d9190612907565b73ffffffffffffffffffffffffffffffffffffffff1614905060003373ffffffffffffffffffffffffffffffffffffffff1660008054906101000a900473ffffffffffffffffffffffffffffffffffffffff1673ffffffffffffffffffffffffffffffffffffffff16631f567bcb86868151811061168e5761168d612cb0565b5b6020026020010151606001516040518263ffffffff1660e01b81526004016116b691906128d0565b602060405180830381865afa1580156116d3573d6000803e3d6000fd5b505050506040513d601f19601f820116820180604052508101906116f79190612907565b73ffffffffffffffffffffffffffffffffffffffff161490508115801561171c575080155b1561177b5760405160200161173090613095565b6040516020818303038152906040526040517f08c379a000000000000000000000000000000000000000000000000000000000815260040161177291906128d0565b60405180910390fd5b83838151811061178e5761178d612cb0565b5b60200260200101516020015160058585815181106117af576117ae612cb0565b5b6020026020010151606001516040516117c89190612859565b908152602001604051809103902060008686815181106117eb576117ea612cb0565b5b60200260200101516000015173ffffffffffffffffffffffffffffffffffffffff1673ffffffffffffffffffffffffffffffffffffffff168152602001908152602001600020908161183d9190612b67565b5083838151811061185157611850612cb0565b5b602002602001015160400151600685858151811061187257611871612cb0565b5b60200260200101516060015160405161188b9190612859565b908152602001604051809103902060008686815181106118ae576118ad612cb0565b5b60200260200101516000015173ffffffffffffffffffffffffffffffffffffffff1673ffffffffffffffffffffffffffffffffffffffff16815260200190815260200160002090816119009190612b67565b507f3e88a46403613c6e45c352aab06ce620d60806c1fafe6834aab5f0edd076314d84848151811061193557611934612cb0565b5b6020026020010151600001513386868151811061195557611954612cb0565b5b60200260200101516020015187878151811061197457611973612cb0565b5b60200260200101516040015188888151811061199357611992612cb0565b5b6020026020010151606001518989815181106119b2576119b1612cb0565b5b6020026020010151608001516040516119d096959493929190612cdf565b60405180910390a150508080600101915050611533565b5050565b6060806002846040516119fe9190612859565b908152602001604051809103902060008473ffffffffffffffffffffffffffffffffffffffff1673ffffffffffffffffffffffffffffffffffffffff168152602001908152602001600020600385604051611a599190612859565b908152602001604051809103902060008573ffffffffffffffffffffffffffffffffffffffff1673ffffffffffffffffffffffffffffffffffffffff168152602001908152602001600020818054611ab09061289f565b80601f0160208091040260200160405190810160405280929190818152602001828054611adc9061289f565b8015611b295780601f10611afe57610100808354040283529160200191611b29565b820191906000526020600020905b815481529060010190602001808311611b0c57829003601f168201915b50505050509150808054611b3c9061289f565b80601f0160208091040260200160405190810160405280929190818152602001828054611b689061289f565b8015611bb55780601f10611b8a57610100808354040283529160200191611bb5565b820191906000526020600020905b815481529060010190602001808311611b9857829003601f168201915b50505050509050915091509250929050565b6000604051905090565b600080fd5b600080fd5b600080fd5b600080fd5b6000601f19601f8301169050919050565b7f4e487b7100000000000000000000000000000000000000000000000000000000600052604160045260246000fd5b611c2e82611be5565b810181811067ffffffffffffffff82111715611c4d57611c4c611bf6565b5b80604052505050565b6000611c60611bc7565b9050611c6c8282611c25565b919050565b600067ffffffffffffffff821115611c8c57611c8b611bf6565b5b611c9582611be5565b9050602081019050919050565b82818337600083830152505050565b6000611cc4611cbf84611c71565b611c56565b905082815260208101848484011115611ce057611cdf611be0565b5b611ceb848285611ca2565b509392505050565b600082601f830112611d0857611d07611bdb565b5b8135611d18848260208601611cb1565b91505092915050565b600073ffffffffffffffffffffffffffffffffffffffff82169050919050565b6000611d4c82611d21565b9050919050565b611d5c81611d41565b8114611d6757600080fd5b50565b600081359050611d7981611d53565b92915050565b60008060408385031215611d9657611d95611bd1565b5b600083013567ffffffffffffffff811115611db457611db3611bd6565b5b611dc085828601611cf3565b9250506020611dd185828601611d6a565b9150509250929050565b600081519050919050565b600082825260208201905092915050565b60005b83811015611e15578082015181840152602081019050611dfa565b60008484015250505050565b6000611e2c82611ddb565b611e368185611de6565b9350611e46818560208601611df7565b611e4f81611be5565b840191505092915050565b60006040820190508181036000830152611e748185611e21565b90508181036020830152611e888184611e21565b90509392505050565b600080fd5b600080fd5b600060808284031215611eb157611eb0611e91565b5b611ebb6080611c56565b90506000611ecb84828501611d6a565b600083015250602082013567ffffffffffffffff811115611eef57611eee611e96565b5b611efb84828501611cf3565b602083015250604082013567ffffffffffffffff811115611f1f57611f1e611e96565b5b611f2b84828501611cf3565b604083015250606082013567ffffffffffffffff811115611f4f57611f4e611e96565b5b611f5b84828501611cf3565b60608301525092915050565b600060208284031215611f7d57611f7c611bd1565b5b600082013567ffffffffffffffff811115611f9b57611f9a611bd6565b5b611fa784828501611e9b565b91505092915050565b600067ffffffffffffffff821115611fcb57611fca611bf6565b5b602082029050602081019050919050565b600080fd5b600060c08284031215611ff757611ff6611e91565b5b61200160c0611c56565b9050600061201184828501611d6a565b600083015250602061202584828501611d6a565b602083015250604082013567ffffffffffffffff81111561204957612048611e96565b5b61205584828501611cf3565b604083015250606082013567ffffffffffffffff81111561207957612078611e96565b5b61208584828501611cf3565b606083015250608082013567ffffffffffffffff8111156120a9576120a8611e96565b5b6120b584828501611cf3565b60808301525060a082013567ffffffffffffffff8111156120d9576120d8611e96565b5b6120e584828501611cf3565b60a08301525092915050565b60006121046120ff84611fb0565b611c56565b9050808382526020820190506020840283018581111561212757612126611fdc565b5b835b8181101561216e57803567ffffffffffffffff81111561214c5761214b611bdb565b5b8086016121598982611fe1565b85526020850194505050602081019050612129565b5050509392505050565b600082601f83011261218d5761218c611bdb565b5b813561219d8482602086016120f1565b91505092915050565b6000602082840312156121bc576121bb611bd1565b5b600082013567ffffffffffffffff8111156121da576121d9611bd6565b5b6121e684828501612178565b91505092915050565b6000819050919050565b600061221461220f61220a84611d21565b6121ef565b611d21565b9050919050565b6000612226826121f9565b9050919050565b60006122388261221b565b9050919050565b6122488161222d565b82525050565b6000602082019050612263600083018461223f565b92915050565b60006122748261221b565b9050919050565b61228481612269565b82525050565b600060208201905061229f600083018461227b565b92915050565b600067ffffffffffffffff8211156122c0576122bf611bf6565b5b602082029050602081019050919050565b600060a082840312156122e7576122e6611e91565b5b6122f160a0611c56565b9050600061230184828501611d6a565b600083015250602082013567ffffffffffffffff81111561232557612324611e96565b5b61233184828501611cf3565b602083015250604082013567ffffffffffffffff81111561235557612354611e96565b5b61236184828501611cf3565b604083015250606082013567ffffffffffffffff81111561238557612384611e96565b5b61239184828501611cf3565b606083015250608082013567ffffffffffffffff8111156123b5576123b4611e96565b5b6123c184828501611cf3565b60808301525092915050565b6000604082840312156123e3576123e2611e91565b5b6123ed6040611c56565b9050600082013567ffffffffffffffff81111561240d5761240c611e96565b5b61241984828501611e9b565b600083015250602082013567ffffffffffffffff81111561243d5761243c611e96565b5b612449848285016122d1565b60208301525092915050565b6000612468612463846122a5565b611c56565b9050808382526020820190506020840283018581111561248b5761248a611fdc565b5b835b818110156124d257803567ffffffffffffffff8111156124b0576124af611bdb565b5b8086016124bd89826123cd565b8552602085019450505060208101905061248d565b5050509392505050565b600082601f8301126124f1576124f0611bdb565b5b8135612501848260208601612455565b91505092915050565b6000602082840312156125205761251f611bd1565b5b600082013567ffffffffffffffff81111561253e5761253d611bd6565b5b61254a848285016124dc565b91505092915050565b600080600080600060a0868803121561256f5761256e611bd1565b5b600086013567ffffffffffffffff81111561258d5761258c611bd6565b5b61259988828901611cf3565b955050602086013567ffffffffffffffff8111156125ba576125b9611bd6565b5b6125c688828901611cf3565b945050604086013567ffffffffffffffff8111156125e7576125e6611bd6565b5b6125f388828901611cf3565b935050606086013567ffffffffffffffff81111561261457612613611bd6565b5b61262088828901611cf3565b925050608061263188828901611d6a565b9150509295509295909350565b60006040828403121561265457612653611e91565b5b61265e6040611c56565b9050600061266e84828501611d6a565b600083015250602082013567ffffffffffffffff81111561269257612691611e96565b5b61269e84828501611cf3565b60208301525092915050565b6000602082840312156126c0576126bf611bd1565b5b600082013567ffffffffffffffff8111156126de576126dd611bd6565b5b6126ea8482850161263e565b91505092915050565b600067ffffffffffffffff82111561270e5761270d611bf6565b5b602082029050602081019050919050565b600061273261272d846126f3565b611c56565b9050808382526020820190506020840283018581111561275557612754611fdc565b5b835b8181101561279c57803567ffffffffffffffff81111561277a57612779611bdb565b5b80860161278789826122d1565b85526020850194505050602081019050612757565b5050509392505050565b600082601f8301126127bb576127ba611bdb565b5b81356127cb84826020860161271f565b91505092915050565b6000602082840312156127ea576127e9611bd1565b5b600082013567ffffffffffffffff81111561280857612807611bd6565b5b612814848285016127a6565b91505092915050565b600081905092915050565b600061283382611ddb565b61283d818561281d565b935061284d818560208601611df7565b80840191505092915050565b60006128658284612828565b915081905092915050565b7f4e487b7100000000000000000000000000000000000000000000000000000000600052602260045260246000fd5b600060028204905060018216806128b757607f821691505b6020821081036128ca576128c9612870565b5b50919050565b600060208201905081810360008301526128ea8184611e21565b905092915050565b60008151905061290181611d53565b92915050565b60006020828403121561291d5761291c611bd1565b5b600061292b848285016128f2565b91505092915050565b7f53656e646572206973206e6f7420617574686f72697a656420746f20656d697460008201527f20636f6e74656e74206b65790000000000000000000000000000000000000000602082015250565b6000612990602c8361281d565b915061299b82612934565b602c82019050919050565b60006129b182612983565b9150819050919050565b60008190508160005260206000209050919050565b60006020601f8301049050919050565b600082821b905092915050565b600060088302612a1d7fffffffffffffffffffffffffffffffffffffffffffffffffffffffffffffffff826129e0565b612a2786836129e0565b95508019841693508086168417925050509392505050565b6000819050919050565b6000612a64612a5f612a5a84612a3f565b6121ef565b612a3f565b9050919050565b6000819050919050565b612a7e83612a49565b612a92612a8a82612a6b565b8484546129ed565b825550505050565b600090565b612aa7612a9a565b612ab2818484612a75565b505050565b5b81811015612ad657612acb600082612a9f565b600181019050612ab8565b5050565b601f821115612b1b57612aec816129bb565b612af5846129d0565b81016020851015612b04578190505b612b18612b10856129d0565b830182612ab7565b50505b505050565b600082821c905092915050565b6000612b3e60001984600802612b20565b1980831691505092915050565b6000612b578383612b2d565b9150826002028217905092915050565b612b7082611ddb565b67ffffffffffffffff811115612b8957612b88611bf6565b5b612b93825461289f565b612b9e828285612ada565b600060209050601f831160018114612bd15760008415612bbf578287015190505b612bc98582612b4b565b865550612c31565b601f198416612bdf866129bb565b60005b82811015612c0757848901518255600182019150602085019450602081019050612be2565b86831015612c245784890151612c20601f891682612b2d565b8355505b6001600288020188555050505b505050505050565b612c4281611d41565b82525050565b600060a082019050612c5d6000830188612c39565b612c6a6020830187612c39565b8181036040830152612c7c8186611e21565b90508181036060830152612c908185611e21565b90508181036080830152612ca48184611e21565b90509695505050505050565b7f4e487b7100000000000000000000000000000000000000000000000000000000600052603260045260246000fd5b600060c082019050612cf46000830189612c39565b612d016020830188612c39565b8181036040830152612d138187611e21565b90508181036060830152612d278186611e21565b90508181036080830152612d3b8185611e21565b905081810360a0830152612d4f8184611e21565b9050979650505050505050565b7f53656e646572206973206e6f7420617574686f72697a656420746f20656d697460008201527f206b657973000000000000000000000000000000000000000000000000000000602082015250565b6000612db860258361281d565b9150612dc382612d5c565b602582019050919050565b6000612dd982612dab565b9150819050919050565b7f74686972645f7061727479000000000000000000000000000000000000000000600082015250565b6000612e19600b8361281d565b9150612e2482612de3565b600b82019050919050565b6000612e3a82612e0c565b9150819050919050565b6000602082019050612e596000830184612c39565b92915050565b6000612e72612e6d84611c71565b611c56565b905082815260208101848484011115612e8e57612e8d611be0565b5b612e99848285611df7565b509392505050565b600082601f830112612eb657612eb5611bdb565b5b8151612ec6848260208601612e5f565b91505092915050565b600060208284031215612ee557612ee4611bd1565b5b600082015167ffffffffffffffff811115612f0357612f02611bd6565b5b612f0f84828501612ea1565b91505092915050565b7f53656e646572206973206e6f7420612074686972645f70617274790000000000600082015250565b6000612f4e601b8361281d565b9150612f5982612f18565b601b82019050919050565b6000612f6f82612f41565b9150819050919050565b7f41636365737320616c7265616479207265717565737465640000000000000000600082015250565b6000612faf601883611de6565b9150612fba82612f79565b602082019050919050565b60006020820190508181036000830152612fde81612fa2565b9050919050565b6000606082019050612ffa6000830186612c39565b6130076020830185612c39565b81810360408301526130198184611e21565b9050949350505050565b7f53656e646572206973206e6f7420617574686f72697a656420746f20656d697460008201527f2074656e646572206b6579000000000000000000000000000000000000000000602082015250565b600061307f602b8361281d565b915061308a82613023565b602b82019050919050565b60006130a082613072565b915081905091905056fea2646970667358221220d9cecb38d4fa47784154536ddc067234fe9f0671c8058033fbbace031fd78bda64736f6c634300081c0033",
  "linkReferences": {},
  "deployedLinkReferences": {}
}