{
  "_format": "hh-sol-artifact-1",
  "contractName": "AccessManager",
  "sourceName": "contracts/AccessManager.sol",
  "abi": [
    {
      "inputs": [
        {
          "internalType": "address",
          "name": "documentStoreAddress",
          "type": "address"
        },
        {
          "internalType": "address",
          "name": "publicKeyStorageAddress",
          "type": "address"
        }
      ],
      "stateMutability": "nonpayable",
      "type": "constructor"
    },
    {
      "anonymous": false,
      "inputs": [
        {
          "indexed": false,
          "internalType": "address",
          "name": "receiver",
          "type": "address"
        },
        {
          "indexed": false,
          "internalType": "address",
          "name": "sender",
          "type": "address"
        },
        {
          "indexed": false,
          "internalType": "string",
          "name": "encryptedKey",
          "type": "string"
        },
        {
          "indexed": false,
          "internalType": "string",
          "name": "iv",
          "type": "string"
        },
        {
          "indexed": false,
          "internalType": "string",
          "name": "cid",
          "type": "string"
        }
      ],
      "name": "EmitContentKey",
      "type": "event"
    },
    {
      "anonymous": false,
      "inputs": [
        {
          "indexed": false,
          "internalType": "address",
          "name": "receiver",
          "type": "address"
        },
        {
          "indexed": false,
          "internalType": "address",
          "name": "sender",
          "type": "address"
        },
        {
          "indexed": false,
          "internalType": "string",
          "name": "encryptedKey",
          "type": "string"
        },
        {
          "indexed": false,
          "internalType": "string",
          "name": "iv",
          "type": "string"
        },
        {
          "indexed": false,
          "internalType": "string",
          "name": "cid",
          "type": "string"
        },
        {
          "indexed": false,
          "internalType": "string",
          "name": "tenderId",
          "type": "string"
        }
      ],
      "name": "EmitTenderKey",
      "type": "event"
    },
    {
      "anonymous": false,
      "inputs": [
        {
          "indexed": false,
          "internalType": "address",
          "name": "requester",
          "type": "address"
        },
        {
          "indexed": false,
          "internalType": "address",
          "name": "receiver",
          "type": "address"
        },
        {
          "indexed": false,
          "internalType": "string",
          "name": "cid",
          "type": "string"
        }
      ],
      "name": "RequestAccessContent",
      "type": "event"
    },
    {
      "anonymous": false,
      "inputs": [
        {
          "indexed": false,
          "internalType": "address",
          "name": "requester",
          "type": "address"
        },
        {
          "indexed": false,
          "internalType": "address",
          "name": "receiver",
          "type": "address"
        },
        {
          "indexed": false,
          "internalType": "string",
          "name": "tenderId",
          "type": "string"
        }
      ],
      "name": "RequestAccessTender",
      "type": "event"
    },
    {
      "inputs": [],
      "name": "documentStore",
      "outputs": [
        {
          "internalType": "contract IDocumentStore",
          "name": "",
          "type": "address"
        }
      ],
      "stateMutability": "view",
      "type": "function"
    },
    {
      "inputs": [
        {
          "components": [
            {
              "components": [
                {
                  "internalType": "address",
                  "name": "receiver",
                  "type": "address"
                },
                {
                  "internalType": "string",
                  "name": "encryptedKey",
                  "type": "string"
                },
                {
                  "internalType": "string",
                  "name": "iv",
                  "type": "string"
                },
                {
                  "internalType": "string",
                  "name": "cid",
                  "type": "string"
                }
              ],
              "internalType": "struct AccessManager.EmitKeyInput",
              "name": "contentKey",
              "type": "tuple"
            },
            {
              "components": [
                {
                  "internalType": "address",
                  "name": "receiver",
                  "type": "address"
                },
                {
                  "internalType": "string",
                  "name": "encryptedKey",
                  "type": "string"
                },
                {
                  "internalType": "string",
                  "name": "iv",
                  "type": "string"
                },
                {
                  "internalType": "string",
                  "name": "cid",
                  "type": "string"
                },
                {
                  "internalType": "string",
                  "name": "tenderId",
                  "type": "string"
                }
              ],
              "internalType": "struct AccessManager.EmitTenderKeyInput",
              "name": "tenderKey",
              "type": "tuple"
            }
          ],
          "internalType": "struct AccessManager.EmitCombinedKeyInput",
          "name": "input",
          "type": "tuple"
        }
      ],
      "name": "emitCombinedKeys",
      "outputs": [],
      "stateMutability": "nonpayable",
      "type": "function"
    },
    {
      "inputs": [
        {
          "components": [
            {
              "internalType": "address",
              "name": "receiver",
              "type": "address"
            },
            {
              "internalType": "string",
              "name": "encryptedKey",
              "type": "string"
            },
            {
              "internalType": "string",
              "name": "iv",
              "type": "string"
            },
            {
              "internalType": "string",
              "name": "cid",
              "type": "string"
            }
          ],
          "internalType": "struct AccessManager.EmitKeyInput",
          "name": "input",
          "type": "tuple"
        }
      ],
      "name": "emitContentKey",
      "outputs": [],
      "stateMutability": "nonpayable",
      "type": "function"
    },
    {
      "inputs": [
        {
          "components": [
            {
              "internalType": "address",
              "name": "receiver",
              "type": "address"
            },
            {
              "internalType": "string",
              "name": "encryptedKey",
              "type": "string"
            },
            {
              "internalType": "string",
              "name": "iv",
              "type": "string"
            },
            {
              "internalType": "string",
              "name": "cid",
              "type": "string"
            },
            {
              "internalType": "string",
              "name": "tenderId",
              "type": "string"
            }
          ],
          "internalType": "struct AccessManager.EmitTenderKeyInput[]",
          "name": "inputs",
          "type": "tuple[]"
        }
      ],
      "name": "emitTenderKey",
      "outputs": [],
      "stateMutability": "nonpayable",
      "type": "function"
    },
    {
      "inputs": [
        {
          "internalType": "string",
          "name": "cid",
          "type": "string"
        },
        {
          "internalType": "address",
          "name": "receiver",
          "type": "address"
        }
      ],
      "name": "getEncryptedContentKey",
      "outputs": [
        {
          "internalType": "string",
          "name": "",
          "type": "string"
        },
        {
          "internalType": "string",
          "name": "",
          "type": "string"
        }
      ],
      "stateMutability": "view",
      "type": "function"
    },
    {
      "inputs": [
        {
          "internalType": "string",
          "name": "tenderId",
          "type": "string"
        },
        {
          "internalType": "address",
          "name": "receiver",
          "type": "address"
        }
      ],
      "name": "getEncryptedTenderKey",
      "outputs": [
        {
          "internalType": "string",
          "name": "",
          "type": "string"
        },
        {
          "internalType": "string",
          "name": "",
          "type": "string"
        }
      ],
      "stateMutability": "view",
      "type": "function"
    },
    {
      "inputs": [],
      "name": "publicKeyStorage",
      "outputs": [
        {
          "internalType": "contract IPublicKeyStorage",
          "name": "",
          "type": "address"
        }
      ],
      "stateMutability": "view",
      "type": "function"
    },
    {
      "inputs": [
        {
          "components": [
            {
              "internalType": "address",
              "name": "receiver",
              "type": "address"
            },
            {
              "internalType": "string",
              "name": "cid",
              "type": "string"
            }
          ],
          "internalType": "struct AccessManager.RequestAccessInput",
          "name": "input",
          "type": "tuple"
        }
      ],
      "name": "requestAccessContent",
      "outputs": [],
      "stateMutability": "nonpayable",
      "type": "function"
    },
    {
      "inputs": [
        {
          "internalType": "string",
          "name": "tenderId",
          "type": "string"
        },
        {
          "internalType": "address",
          "name": "receiver",
          "type": "address"
        }
      ],
      "name": "requestAccessTender",
      "outputs": [],
      "stateMutability": "nonpayable",
      "type": "function"
    }
  ],
  "bytecode": "0x608060405234801561001057600080fd5b50604051612a94380380612a948339818101604052810190610032919061011d565b816000806101000a81548173ffffffffffffffffffffffffffffffffffffffff021916908373ffffffffffffffffffffffffffffffffffffffff16021790555080600160006101000a81548173ffffffffffffffffffffffffffffffffffffffff021916908373ffffffffffffffffffffffffffffffffffffffff160217905550505061015d565b600080fd5b600073ffffffffffffffffffffffffffffffffffffffff82169050919050565b60006100ea826100bf565b9050919050565b6100fa816100df565b811461010557600080fd5b50565b600081519050610117816100f1565b92915050565b60008060408385031215610134576101336100ba565b5b600061014285828601610108565b925050602061015385828601610108565b9150509250929050565b6129288061016c6000396000f3fe608060405234801561001057600080fd5b50600436106100935760003560e01c8063a18e460d11610066578063a18e460d14610121578063a6d047c11461013d578063b5170ba114610159578063c16f71601461018a578063fe716003146101a657610093565b80630dc80d0c14610098578063101643c8146100c9578063408acd33146100e55780636dbfdf2514610103575b600080fd5b6100b260048036038101906100ad91906119cd565b6101c2565b6040516100c0929190611aa8565b60405180910390f35b6100e360048036038101906100de9190611bb5565b61039e565b005b6100ed6106e7565b6040516100fa9190611c5d565b60405180910390f35b61010b61070b565b6040516101189190611c99565b60405180910390f35b61013b60048036038101906101369190611d20565b610731565b005b61015760048036038101906101529190611f4b565b6109ed565b005b610173600480360381019061016e91906119cd565b610ea8565b604051610181929190611aa8565b60405180910390f35b6101a4600480360381019061019f919061201c565b611084565b005b6101c060048036038101906101bb91906119cd565b611568565b005b6060806005846040516101d591906120a1565b908152602001604051809103902060008473ffffffffffffffffffffffffffffffffffffffff1673ffffffffffffffffffffffffffffffffffffffff16815260200190815260200160002060068560405161023091906120a1565b908152602001604051809103902060008573ffffffffffffffffffffffffffffffffffffffff1673ffffffffffffffffffffffffffffffffffffffff168152602001908152602001600020818054610287906120e7565b80601f01602080910402602001604051908101604052809291908181526020018280546102b3906120e7565b80156103005780601f106102d557610100808354040283529160200191610300565b820191906000526020600020905b8154815290600101906020018083116102e357829003601f168201915b50505050509150808054610313906120e7565b80601f016020809104026020016040519081016040528092919081815260200182805461033f906120e7565b801561038c5780601f106103615761010080835404028352916020019161038c565b820191906000526020600020905b81548152906001019060200180831161036f57829003601f168201915b50505050509050915091509250929050565b60003373ffffffffffffffffffffffffffffffffffffffff1660008054906101000a900473ffffffffffffffffffffffffffffffffffffffff1673ffffffffffffffffffffffffffffffffffffffff1663cb356d9184606001516040518263ffffffff1660e01b81526004016104149190612118565b602060405180830381865afa158015610431573d6000803e3d6000fd5b505050506040513d601f19601f82011682018060405250810190610455919061214f565b73ffffffffffffffffffffffffffffffffffffffff1614905060003373ffffffffffffffffffffffffffffffffffffffff1660008054906101000a900473ffffffffffffffffffffffffffffffffffffffff1673ffffffffffffffffffffffffffffffffffffffff16631f567bcb85606001516040518263ffffffff1660e01b81526004016104e49190612118565b602060405180830381865afa158015610501573d6000803e3d6000fd5b505050506040513d601f19601f82011682018060405250810190610525919061214f565b73ffffffffffffffffffffffffffffffffffffffff161490508115801561054a575080155b156105a95760405160200161055e906121ee565b6040516020818303038152906040526040517f08c379a00000000000000000000000000000000000000000000000000000000081526004016105a09190612118565b60405180910390fd5b8260200151600284606001516040516105c291906120a1565b90815260200160405180910390206000856000015173ffffffffffffffffffffffffffffffffffffffff1673ffffffffffffffffffffffffffffffffffffffff168152602001908152602001600020908161061d91906123af565b5082604001516003846060015160405161063791906120a1565b90815260200160405180910390206000856000015173ffffffffffffffffffffffffffffffffffffffff1673ffffffffffffffffffffffffffffffffffffffff168152602001908152602001600020908161069291906123af565b507f7bf5593de59b1ab6196194664fe98b1d1dc3df5ee48141fd577f0ff7afd9bb828360000151338560200151866040015187606001516040516106da959493929190612490565b60405180910390a1505050565b60008054906101000a900473ffffffffffffffffffffffffffffffffffffffff1681565b600160009054906101000a900473ffffffffffffffffffffffffffffffffffffffff1681565b60405160200161074090612544565b60405160208183030381529060405280519060200120600160009054906101000a900473ffffffffffffffffffffffffffffffffffffffff1673ffffffffffffffffffffffffffffffffffffffff166344276733336040518263ffffffff1660e01b81526004016107b19190612559565b600060405180830381865afa1580156107ce573d6000803e3d6000fd5b505050506040513d6000823e3d601f19601f820116820180604052508101906107f791906125e4565b60405160200161080791906120a1565b604051602081830303815290604052805190602001201461087c5760405160200161083190612679565b6040516020818303038152906040526040517f08c379a00000000000000000000000000000000000000000000000000000000081526004016108739190612118565b60405180910390fd5b600015156004826020015160405161089491906120a1565b908152602001604051809103902060003373ffffffffffffffffffffffffffffffffffffffff1673ffffffffffffffffffffffffffffffffffffffff16815260200190815260200160002060009054906101000a900460ff1615151461092f576040517f08c379a0000000000000000000000000000000000000000000000000000000008152600401610926906126da565b60405180910390fd5b60016004826020015160405161094591906120a1565b908152602001604051809103902060003373ffffffffffffffffffffffffffffffffffffffff1673ffffffffffffffffffffffffffffffffffffffff16815260200190815260200160002060006101000a81548160ff0219169083151502179055507fc2a6d5963749ec1cf48a0e17e4f12218f713af0b6676a1649f11cf6f8e491bef33826000015183602001516040516109e2939291906126fa565b60405180910390a150565b60005b8151811015610ea45760003373ffffffffffffffffffffffffffffffffffffffff1660008054906101000a900473ffffffffffffffffffffffffffffffffffffffff1673ffffffffffffffffffffffffffffffffffffffff1663cb356d91858581518110610a6157610a60612738565b5b6020026020010151606001516040518263ffffffff1660e01b8152600401610a899190612118565b602060405180830381865afa158015610aa6573d6000803e3d6000fd5b505050506040513d601f19601f82011682018060405250810190610aca919061214f565b73ffffffffffffffffffffffffffffffffffffffff1614905060003373ffffffffffffffffffffffffffffffffffffffff1660008054906101000a900473ffffffffffffffffffffffffffffffffffffffff1673ffffffffffffffffffffffffffffffffffffffff16631f567bcb868681518110610b4b57610b4a612738565b5b6020026020010151606001516040518263ffffffff1660e01b8152600401610b739190612118565b602060405180830381865afa158015610b90573d6000803e3d6000fd5b505050506040513d601f19601f82011682018060405250810190610bb4919061214f565b73ffffffffffffffffffffffffffffffffffffffff1614905081158015610bd9575080155b15610c3857604051602001610bed906127d9565b6040516020818303038152906040526040517f08c379a0000000000000000000000000000000000000000000000000000000008152600401610c2f9190612118565b60405180910390fd5b838381518110610c4b57610c4a612738565b5b6020026020010151602001516005858581518110610c6c57610c6b612738565b5b602002602001015160600151604051610c8591906120a1565b90815260200160405180910390206000868681518110610ca857610ca7612738565b5b60200260200101516000015173ffffffffffffffffffffffffffffffffffffffff1673ffffffffffffffffffffffffffffffffffffffff1681526020019081526020016000209081610cfa91906123af565b50838381518110610d0e57610d0d612738565b5b6020026020010151604001516006858581518110610d2f57610d2e612738565b5b602002602001015160600151604051610d4891906120a1565b90815260200160405180910390206000868681518110610d6b57610d6a612738565b5b60200260200101516000015173ffffffffffffffffffffffffffffffffffffffff1673ffffffffffffffffffffffffffffffffffffffff1681526020019081526020016000209081610dbd91906123af565b507f3e88a46403613c6e45c352aab06ce620d60806c1fafe6834aab5f0edd076314d848481518110610df257610df1612738565b5b60200260200101516000015133868681518110610e1257610e11612738565b5b602002602001015160200151878781518110610e3157610e30612738565b5b602002602001015160400151888881518110610e5057610e4f612738565b5b602002602001015160600151898981518110610e6f57610e6e612738565b5b602002602001015160800151604051610e8d969594939291906127ee565b60405180910390a1505080806001019150506109f0565b5050565b606080600284604051610ebb91906120a1565b908152602001604051809103902060008473ffffffffffffffffffffffffffffffffffffffff1673ffffffffffffffffffffffffffffffffffffffff168152602001908152602001600020600385604051610f1691906120a1565b908152602001604051809103902060008573ffffffffffffffffffffffffffffffffffffffff1673ffffffffffffffffffffffffffffffffffffffff168152602001908152602001600020818054610f6d906120e7565b80601f0160208091040260200160405190810160405280929190818152602001828054610f99906120e7565b8015610fe65780601f10610fbb57610100808354040283529160200191610fe6565b820191906000526020600020905b815481529060010190602001808311610fc957829003601f168201915b50505050509150808054610ff9906120e7565b80601f0160208091040260200160405190810160405280929190818152602001828054611025906120e7565b80156110725780601f1061104757610100808354040283529160200191611072565b820191906000526020600020905b81548152906001019060200180831161105557829003601f168201915b50505050509050915091509250929050565b60003373ffffffffffffffffffffffffffffffffffffffff1660008054906101000a900473ffffffffffffffffffffffffffffffffffffffff1673ffffffffffffffffffffffffffffffffffffffff1663cb356d918460000151606001516040518263ffffffff1660e01b81526004016110fe9190612118565b602060405180830381865afa15801561111b573d6000803e3d6000fd5b505050506040513d601f19601f8201168201806040525081019061113f919061214f565b73ffffffffffffffffffffffffffffffffffffffff1614905060003373ffffffffffffffffffffffffffffffffffffffff1660008054906101000a900473ffffffffffffffffffffffffffffffffffffffff1673ffffffffffffffffffffffffffffffffffffffff16631f567bcb8560000151606001516040518263ffffffff1660e01b81526004016111d29190612118565b602060405180830381865afa1580156111ef573d6000803e3d6000fd5b505050506040513d601f19601f82011682018060405250810190611213919061214f565b73ffffffffffffffffffffffffffffffffffffffff1614905081158015611238575080155b156112975760405160200161124c906128dd565b6040516020818303038152906040526040517f08c379a000000000000000000000000000000000000000000000000000000000815260040161128e9190612118565b60405180910390fd5b82600001516020015160028460000151606001516040516112b891906120a1565b9081526020016040518091039020600085600001516000015173ffffffffffffffffffffffffffffffffffffffff1673ffffffffffffffffffffffffffffffffffffffff168152602001908152602001600020908161131791906123af565b50826000015160400151600384600001516060015160405161133991906120a1565b9081526020016040518091039020600085600001516000015173ffffffffffffffffffffffffffffffffffffffff1673ffffffffffffffffffffffffffffffffffffffff168152602001908152602001600020908161139891906123af565b507f7bf5593de59b1ab6196194664fe98b1d1dc3df5ee48141fd577f0ff7afd9bb82836000015160000151338560000151602001518660000151604001518760000151606001516040516113f0959493929190612490565b60405180910390a1826020015160200151600584602001516060015160405161141991906120a1565b9081526020016040518091039020600085602001516000015173ffffffffffffffffffffffffffffffffffffffff1673ffffffffffffffffffffffffffffffffffffffff168152602001908152602001600020908161147891906123af565b50826020015160400151600684602001516060015160405161149a91906120a1565b9081526020016040518091039020600085602001516000015173ffffffffffffffffffffffffffffffffffffffff1673ffffffffffffffffffffffffffffffffffffffff16815260200190815260200160002090816114f991906123af565b507f3e88a46403613c6e45c352aab06ce620d60806c1fafe6834aab5f0edd076314d8360200151600001513385602001516020015186602001516040015187602001516060015188602001516080015160405161155b969594939291906127ee565b60405180910390a1505050565b60405160200161157790612544565b60405160208183030381529060405280519060200120600160009054906101000a900473ffffffffffffffffffffffffffffffffffffffff1673ffffffffffffffffffffffffffffffffffffffff166344276733336040518263ffffffff1660e01b81526004016115e89190612559565b600060405180830381865afa158015611605573d6000803e3d6000fd5b505050506040513d6000823e3d601f19601f8201168201806040525081019061162e91906125e4565b60405160200161163e91906120a1565b60405160208183030381529060405280519060200120146116b35760405160200161166890612679565b6040516020818303038152906040526040517f08c379a00000000000000000000000000000000000000000000000000000000081526004016116aa9190612118565b60405180910390fd5b600015156007836040516116c791906120a1565b908152602001604051809103902060003373ffffffffffffffffffffffffffffffffffffffff1673ffffffffffffffffffffffffffffffffffffffff16815260200190815260200160002060009054906101000a900460ff16151514611762576040517f08c379a0000000000000000000000000000000000000000000000000000000008152600401611759906126da565b60405180910390fd5b600160078360405161177491906120a1565b908152602001604051809103902060003373ffffffffffffffffffffffffffffffffffffffff1673ffffffffffffffffffffffffffffffffffffffff16815260200190815260200160002060006101000a81548160ff0219169083151502179055507fd2b27e7b158e8121bbd887eb1b27f845900ad875423c798c40fb10ea325d4130338284604051611809939291906126fa565b60405180910390a15050565b6000604051905090565b600080fd5b600080fd5b600080fd5b600080fd5b6000601f19601f8301169050919050565b7f4e487b7100000000000000000000000000000000000000000000000000000000600052604160045260246000fd5b61187c82611833565b810181811067ffffffffffffffff8211171561189b5761189a611844565b5b80604052505050565b60006118ae611815565b90506118ba8282611873565b919050565b600067ffffffffffffffff8211156118da576118d9611844565b5b6118e382611833565b9050602081019050919050565b82818337600083830152505050565b600061191261190d846118bf565b6118a4565b90508281526020810184848401111561192e5761192d61182e565b5b6119398482856118f0565b509392505050565b600082601f83011261195657611955611829565b5b81356119668482602086016118ff565b91505092915050565b600073ffffffffffffffffffffffffffffffffffffffff82169050919050565b600061199a8261196f565b9050919050565b6119aa8161198f565b81146119b557600080fd5b50565b6000813590506119c7816119a1565b92915050565b600080604083850312156119e4576119e361181f565b5b600083013567ffffffffffffffff811115611a0257611a01611824565b5b611a0e85828601611941565b9250506020611a1f858286016119b8565b9150509250929050565b600081519050919050565b600082825260208201905092915050565b60005b83811015611a63578082015181840152602081019050611a48565b60008484015250505050565b6000611a7a82611a29565b611a848185611a34565b9350611a94818560208601611a45565b611a9d81611833565b840191505092915050565b60006040820190508181036000830152611ac28185611a6f565b90508181036020830152611ad68184611a6f565b90509392505050565b600080fd5b600080fd5b600060808284031215611aff57611afe611adf565b5b611b0960806118a4565b90506000611b19848285016119b8565b600083015250602082013567ffffffffffffffff811115611b3d57611b3c611ae4565b5b611b4984828501611941565b602083015250604082013567ffffffffffffffff811115611b6d57611b6c611ae4565b5b611b7984828501611941565b604083015250606082013567ffffffffffffffff811115611b9d57611b9c611ae4565b5b611ba984828501611941565b60608301525092915050565b600060208284031215611bcb57611bca61181f565b5b600082013567ffffffffffffffff811115611be957611be8611824565b5b611bf584828501611ae9565b91505092915050565b6000819050919050565b6000611c23611c1e611c198461196f565b611bfe565b61196f565b9050919050565b6000611c3582611c08565b9050919050565b6000611c4782611c2a565b9050919050565b611c5781611c3c565b82525050565b6000602082019050611c726000830184611c4e565b92915050565b6000611c8382611c2a565b9050919050565b611c9381611c78565b82525050565b6000602082019050611cae6000830184611c8a565b92915050565b600060408284031215611cca57611cc9611adf565b5b611cd460406118a4565b90506000611ce4848285016119b8565b600083015250602082013567ffffffffffffffff811115611d0857611d07611ae4565b5b611d1484828501611941565b60208301525092915050565b600060208284031215611d3657611d3561181f565b5b600082013567ffffffffffffffff811115611d5457611d53611824565b5b611d6084828501611cb4565b91505092915050565b600067ffffffffffffffff821115611d8457611d83611844565b5b602082029050602081019050919050565b600080fd5b600060a08284031215611db057611daf611adf565b5b611dba60a06118a4565b90506000611dca848285016119b8565b600083015250602082013567ffffffffffffffff811115611dee57611ded611ae4565b5b611dfa84828501611941565b602083015250604082013567ffffffffffffffff811115611e1e57611e1d611ae4565b5b611e2a84828501611941565b604083015250606082013567ffffffffffffffff811115611e4e57611e4d611ae4565b5b611e5a84828501611941565b606083015250608082013567ffffffffffffffff811115611e7e57611e7d611ae4565b5b611e8a84828501611941565b60808301525092915050565b6000611ea9611ea484611d69565b6118a4565b90508083825260208201905060208402830185811115611ecc57611ecb611d95565b5b835b81811015611f1357803567ffffffffffffffff811115611ef157611ef0611829565b5b808601611efe8982611d9a565b85526020850194505050602081019050611ece565b5050509392505050565b600082601f830112611f3257611f31611829565b5b8135611f42848260208601611e96565b91505092915050565b600060208284031215611f6157611f6061181f565b5b600082013567ffffffffffffffff811115611f7f57611f7e611824565b5b611f8b84828501611f1d565b91505092915050565b600060408284031215611faa57611fa9611adf565b5b611fb460406118a4565b9050600082013567ffffffffffffffff811115611fd457611fd3611ae4565b5b611fe084828501611ae9565b600083015250602082013567ffffffffffffffff81111561200457612003611ae4565b5b61201084828501611d9a565b60208301525092915050565b6000602082840312156120325761203161181f565b5b600082013567ffffffffffffffff8111156120505761204f611824565b5b61205c84828501611f94565b91505092915050565b600081905092915050565b600061207b82611a29565b6120858185612065565b9350612095818560208601611a45565b80840191505092915050565b60006120ad8284612070565b915081905092915050565b7f4e487b7100000000000000000000000000000000000000000000000000000000600052602260045260246000fd5b600060028204905060018216806120ff57607f821691505b602082108103612112576121116120b8565b5b50919050565b600060208201905081810360008301526121328184611a6f565b905092915050565b600081519050612149816119a1565b92915050565b6000602082840312156121655761216461181f565b5b60006121738482850161213a565b91505092915050565b7f53656e646572206973206e6f7420617574686f72697a656420746f20656d697460008201527f20636f6e74656e74206b65790000000000000000000000000000000000000000602082015250565b60006121d8602c83612065565b91506121e38261217c565b602c82019050919050565b60006121f9826121cb565b9150819050919050565b60008190508160005260206000209050919050565b60006020601f8301049050919050565b600082821b905092915050565b6000600883026122657fffffffffffffffffffffffffffffffffffffffffffffffffffffffffffffffff82612228565b61226f8683612228565b95508019841693508086168417925050509392505050565b6000819050919050565b60006122ac6122a76122a284612287565b611bfe565b612287565b9050919050565b6000819050919050565b6122c683612291565b6122da6122d2826122b3565b848454612235565b825550505050565b600090565b6122ef6122e2565b6122fa8184846122bd565b505050565b5b8181101561231e576123136000826122e7565b600181019050612300565b5050565b601f8211156123635761233481612203565b61233d84612218565b8101602085101561234c578190505b61236061235885612218565b8301826122ff565b50505b505050565b600082821c905092915050565b600061238660001984600802612368565b1980831691505092915050565b600061239f8383612375565b9150826002028217905092915050565b6123b882611a29565b67ffffffffffffffff8111156123d1576123d0611844565b5b6123db82546120e7565b6123e6828285612322565b600060209050601f8311600181146124195760008415612407578287015190505b6124118582612393565b865550612479565b601f19841661242786612203565b60005b8281101561244f5784890151825560018201915060208501945060208101905061242a565b8683101561246c5784890151612468601f891682612375565b8355505b6001600288020188555050505b505050505050565b61248a8161198f565b82525050565b600060a0820190506124a56000830188612481565b6124b26020830187612481565b81810360408301526124c48186611a6f565b905081810360608301526124d88185611a6f565b905081810360808301526124ec8184611a6f565b90509695505050505050565b7f74686972645f7061727479000000000000000000000000000000000000000000600082015250565b600061252e600b83612065565b9150612539826124f8565b600b82019050919050565b600061254f82612521565b9150819050919050565b600060208201905061256e6000830184612481565b92915050565b6000612587612582846118bf565b6118a4565b9050828152602081018484840111156125a3576125a261182e565b5b6125ae848285611a45565b509392505050565b600082601f8301126125cb576125ca611829565b5b81516125db848260208601612574565b91505092915050565b6000602082840312156125fa576125f961181f565b5b600082015167ffffffffffffffff81111561261857612617611824565b5b612624848285016125b6565b91505092915050565b7f53656e646572206973206e6f7420612074686972645f70617274790000000000600082015250565b6000612663601b83612065565b915061266e8261262d565b601b82019050919050565b600061268482612656565b9150819050919050565b7f41636365737320616c7265616479207265717565737465640000000000000000600082015250565b60006126c4601883611a34565b91506126cf8261268e565b602082019050919050565b600060208201905081810360008301526126f3816126b7565b9050919050565b600060608201905061270f6000830186612481565b61271c6020830185612481565b818103604083015261272e8184611a6f565b9050949350505050565b7f4e487b7100000000000000000000000000000000000000000000000000000000600052603260045260246000fd5b7f53656e646572206973206e6f7420617574686f72697a656420746f20656d697460008201527f2074656e646572206b6579000000000000000000000000000000000000000000602082015250565b60006127c3602b83612065565b91506127ce82612767565b602b82019050919050565b60006127e4826127b6565b9150819050919050565b600060c0820190506128036000830189612481565b6128106020830188612481565b81810360408301526128228187611a6f565b905081810360608301526128368186611a6f565b9050818103608083015261284a8185611a6f565b905081810360a083015261285e8184611a6f565b9050979650505050505050565b7f53656e646572206973206e6f7420617574686f72697a656420746f20656d697460008201527f206b657973000000000000000000000000000000000000000000000000000000602082015250565b60006128c7602583612065565b91506128d28261286b565b602582019050919050565b60006128e8826128ba565b915081905091905056fea26469706673582212201f79d3951388b82b39c80ceb8ddfc053f4303e0e6dd1cda285e975f5a334f11c64736f6c634300081c0033",
  "linkReferences": {},
  "deployedLinkReferences": {}
}