{
  "_format": "hh-sol-artifact-1",
  "contractName": "AccessManager",
  "sourceName": "contracts/AccessManager.sol",
  "abi": [
    {
      "inputs": [
        {
          "internalType": "address",
          "name": "documentStoreAddress",
          "type": "address"
        },
        {
          "internalType": "address",
          "name": "publicKeyStorageAddress",
          "type": "address"
        }
      ],
      "stateMutability": "nonpayable",
      "type": "constructor"
    },
    {
      "anonymous": false,
      "inputs": [
        {
          "indexed": false,
          "internalType": "address",
          "name": "receiver",
          "type": "address"
        },
        {
          "indexed": false,
          "internalType": "address",
          "name": "sender",
          "type": "address"
        },
        {
          "indexed": false,
          "internalType": "string",
          "name": "encryptedKey",
          "type": "string"
        },
        {
          "indexed": false,
          "internalType": "string",
          "name": "iv",
          "type": "string"
        },
        {
          "indexed": false,
          "internalType": "string",
          "name": "cid",
          "type": "string"
        }
      ],
      "name": "EmitContentKey",
      "type": "event"
    },
    {
      "anonymous": false,
      "inputs": [
        {
          "indexed": false,
          "internalType": "address",
          "name": "receiver",
          "type": "address"
        },
        {
          "indexed": false,
          "internalType": "address",
          "name": "sender",
          "type": "address"
        },
        {
          "indexed": false,
          "internalType": "string",
          "name": "encryptedKey",
          "type": "string"
        },
        {
          "indexed": false,
          "internalType": "string",
          "name": "iv",
          "type": "string"
        },
        {
          "indexed": false,
          "internalType": "string",
          "name": "cid",
          "type": "string"
        },
        {
          "indexed": false,
          "internalType": "string",
          "name": "tenderId",
          "type": "string"
        }
      ],
      "name": "EmitTenderKey",
      "type": "event"
    },
    {
      "anonymous": false,
      "inputs": [
        {
          "indexed": false,
          "internalType": "address",
          "name": "requester",
          "type": "address"
        },
        {
          "indexed": false,
          "internalType": "address",
          "name": "receiver",
          "type": "address"
        },
        {
          "indexed": false,
          "internalType": "string",
          "name": "cid",
          "type": "string"
        }
      ],
      "name": "RequestAccessContent",
      "type": "event"
    },
    {
      "anonymous": false,
      "inputs": [
        {
          "indexed": false,
          "internalType": "address",
          "name": "requester",
          "type": "address"
        },
        {
          "indexed": false,
          "internalType": "address",
          "name": "receiver",
          "type": "address"
        },
        {
          "indexed": false,
          "internalType": "string",
          "name": "tenderId",
          "type": "string"
        },
        {
          "indexed": false,
          "internalType": "string",
          "name": "tenderName",
          "type": "string"
        },
        {
          "indexed": false,
          "internalType": "string",
          "name": "tenderStartDate",
          "type": "string"
        },
        {
          "indexed": false,
          "internalType": "string",
          "name": "tenderEndDate",
          "type": "string"
        }
      ],
      "name": "RequestAccessTender",
      "type": "event"
    },
    {
      "inputs": [],
      "name": "documentStore",
      "outputs": [
        {
          "internalType": "contract IDocumentStore",
          "name": "",
          "type": "address"
        }
      ],
      "stateMutability": "view",
      "type": "function"
    },
    {
      "inputs": [
        {
          "components": [
            {
              "components": [
                {
                  "internalType": "address",
                  "name": "receiver",
                  "type": "address"
                },
                {
                  "internalType": "string",
                  "name": "encryptedKey",
                  "type": "string"
                },
                {
                  "internalType": "string",
                  "name": "iv",
                  "type": "string"
                },
                {
                  "internalType": "string",
                  "name": "cid",
                  "type": "string"
                }
              ],
              "internalType": "struct AccessManager.EmitKeyInput",
              "name": "contentKey",
              "type": "tuple"
            },
            {
              "components": [
                {
                  "internalType": "address",
                  "name": "receiver",
                  "type": "address"
                },
                {
                  "internalType": "string",
                  "name": "encryptedKey",
                  "type": "string"
                },
                {
                  "internalType": "string",
                  "name": "iv",
                  "type": "string"
                },
                {
                  "internalType": "string",
                  "name": "cid",
                  "type": "string"
                },
                {
                  "internalType": "string",
                  "name": "tenderId",
                  "type": "string"
                }
              ],
              "internalType": "struct AccessManager.EmitTenderKeyInput",
              "name": "tenderKey",
              "type": "tuple"
            }
          ],
          "internalType": "struct AccessManager.EmitCombinedKeyInput[]",
          "name": "inputs",
          "type": "tuple[]"
        }
      ],
      "name": "emitCombinedKeys",
      "outputs": [],
      "stateMutability": "nonpayable",
      "type": "function"
    },
    {
      "inputs": [
        {
          "components": [
            {
              "internalType": "address",
              "name": "receiver",
              "type": "address"
            },
            {
              "internalType": "string",
              "name": "encryptedKey",
              "type": "string"
            },
            {
              "internalType": "string",
              "name": "iv",
              "type": "string"
            },
            {
              "internalType": "string",
              "name": "cid",
              "type": "string"
            }
          ],
          "internalType": "struct AccessManager.EmitKeyInput",
          "name": "input",
          "type": "tuple"
        }
      ],
      "name": "emitContentKey",
      "outputs": [],
      "stateMutability": "nonpayable",
      "type": "function"
    },
    {
      "inputs": [
        {
          "components": [
            {
              "internalType": "address",
              "name": "receiver",
              "type": "address"
            },
            {
              "internalType": "string",
              "name": "encryptedKey",
              "type": "string"
            },
            {
              "internalType": "string",
              "name": "iv",
              "type": "string"
            },
            {
              "internalType": "string",
              "name": "cid",
              "type": "string"
            },
            {
              "internalType": "string",
              "name": "tenderId",
              "type": "string"
            }
          ],
          "internalType": "struct AccessManager.EmitTenderKeyInput[]",
          "name": "inputs",
          "type": "tuple[]"
        }
      ],
      "name": "emitTenderKey",
      "outputs": [],
      "stateMutability": "nonpayable",
      "type": "function"
    },
    {
      "inputs": [
        {
          "internalType": "string",
          "name": "cid",
          "type": "string"
        },
        {
          "internalType": "address",
          "name": "receiver",
          "type": "address"
        }
      ],
      "name": "getEncryptedContentKey",
      "outputs": [
        {
          "internalType": "string",
          "name": "",
          "type": "string"
        },
        {
          "internalType": "string",
          "name": "",
          "type": "string"
        }
      ],
      "stateMutability": "view",
      "type": "function"
    },
    {
      "inputs": [
        {
          "internalType": "string",
          "name": "tenderId",
          "type": "string"
        },
        {
          "internalType": "address",
          "name": "receiver",
          "type": "address"
        }
      ],
      "name": "getEncryptedTenderKey",
      "outputs": [
        {
          "internalType": "string",
          "name": "",
          "type": "string"
        },
        {
          "internalType": "string",
          "name": "",
          "type": "string"
        }
      ],
      "stateMutability": "view",
      "type": "function"
    },
    {
      "inputs": [],
      "name": "publicKeyStorage",
      "outputs": [
        {
          "internalType": "contract IPublicKeyStorage",
          "name": "",
          "type": "address"
        }
      ],
      "stateMutability": "view",
      "type": "function"
    },
    {
      "inputs": [
        {
          "components": [
            {
              "internalType": "address",
              "name": "receiver",
              "type": "address"
            },
            {
              "internalType": "string",
              "name": "cid",
              "type": "string"
            }
          ],
          "internalType": "struct AccessManager.RequestAccessInput",
          "name": "input",
          "type": "tuple"
        }
      ],
      "name": "requestAccessContent",
      "outputs": [],
      "stateMutability": "nonpayable",
      "type": "function"
    },
    {
      "inputs": [
        {
          "internalType": "string",
          "name": "tenderId",
          "type": "string"
        },
        {
          "internalType": "string",
          "name": "tenderName",
          "type": "string"
        },
        {
          "internalType": "string",
          "name": "tenderStartDate",
          "type": "string"
        },
        {
          "internalType": "string",
          "name": "tenderEndDate",
          "type": "string"
        },
        {
          "internalType": "address",
          "name": "receiver",
          "type": "address"
        }
      ],
      "name": "requestAccessTender",
      "outputs": [],
      "stateMutability": "nonpayable",
      "type": "function"
    }
  ],
  "bytecode": "0x608060405234801561001057600080fd5b50604051612ed9380380612ed98339818101604052810190610032919061011d565b816000806101000a81548173ffffffffffffffffffffffffffffffffffffffff021916908373ffffffffffffffffffffffffffffffffffffffff16021790555080600160006101000a81548173ffffffffffffffffffffffffffffffffffffffff021916908373ffffffffffffffffffffffffffffffffffffffff160217905550505061015d565b600080fd5b600073ffffffffffffffffffffffffffffffffffffffff82169050919050565b60006100ea826100bf565b9050919050565b6100fa816100df565b811461010557600080fd5b50565b600081519050610117816100f1565b92915050565b60008060408385031215610134576101336100ba565b5b600061014285828601610108565b925050602061015385828601610108565b9150509250929050565b612d6d8061016c6000396000f3fe608060405234801561001057600080fd5b50600436106100935760003560e01c80637def3c9a116100665780637def3c9a146101215780639ec1aadd1461013d578063a18e460d14610159578063a6d047c114610175578063b5170ba11461019157610093565b80630dc80d0c14610098578063101643c8146100c9578063408acd33146100e55780636dbfdf2514610103575b600080fd5b6100b260048036038101906100ad9190611c46565b6101c2565b6040516100c0929190611d21565b60405180910390f35b6100e360048036038101906100de9190611e2e565b61039e565b005b6100ed6106e7565b6040516100fa9190611ed6565b60405180910390f35b61010b61070b565b6040516101189190611f12565b60405180910390f35b61013b60048036038101906101369190612197565b610731565b005b610157600480360381019061015291906121e0565b610e85565b005b610173600480360381019061016e9190612337565b61113b565b005b61018f600480360381019061018a9190612461565b6113f7565b005b6101ab60048036038101906101a69190611c46565b6118b2565b6040516101b9929190611d21565b60405180910390f35b6060806005846040516101d591906124e6565b908152602001604051809103902060008473ffffffffffffffffffffffffffffffffffffffff1673ffffffffffffffffffffffffffffffffffffffff16815260200190815260200160002060068560405161023091906124e6565b908152602001604051809103902060008573ffffffffffffffffffffffffffffffffffffffff1673ffffffffffffffffffffffffffffffffffffffff1681526020019081526020016000208180546102879061252c565b80601f01602080910402602001604051908101604052809291908181526020018280546102b39061252c565b80156103005780601f106102d557610100808354040283529160200191610300565b820191906000526020600020905b8154815290600101906020018083116102e357829003601f168201915b505050505091508080546103139061252c565b80601f016020809104026020016040519081016040528092919081815260200182805461033f9061252c565b801561038c5780601f106103615761010080835404028352916020019161038c565b820191906000526020600020905b81548152906001019060200180831161036f57829003601f168201915b50505050509050915091509250929050565b60003373ffffffffffffffffffffffffffffffffffffffff1660008054906101000a900473ffffffffffffffffffffffffffffffffffffffff1673ffffffffffffffffffffffffffffffffffffffff1663cb356d9184606001516040518263ffffffff1660e01b8152600401610414919061255d565b602060405180830381865afa158015610431573d6000803e3d6000fd5b505050506040513d601f19601f820116820180604052508101906104559190612594565b73ffffffffffffffffffffffffffffffffffffffff1614905060003373ffffffffffffffffffffffffffffffffffffffff1660008054906101000a900473ffffffffffffffffffffffffffffffffffffffff1673ffffffffffffffffffffffffffffffffffffffff16631f567bcb85606001516040518263ffffffff1660e01b81526004016104e4919061255d565b602060405180830381865afa158015610501573d6000803e3d6000fd5b505050506040513d601f19601f820116820180604052508101906105259190612594565b73ffffffffffffffffffffffffffffffffffffffff161490508115801561054a575080155b156105a95760405160200161055e90612633565b6040516020818303038152906040526040517f08c379a00000000000000000000000000000000000000000000000000000000081526004016105a0919061255d565b60405180910390fd5b8260200151600284606001516040516105c291906124e6565b90815260200160405180910390206000856000015173ffffffffffffffffffffffffffffffffffffffff1673ffffffffffffffffffffffffffffffffffffffff168152602001908152602001600020908161061d91906127f4565b5082604001516003846060015160405161063791906124e6565b90815260200160405180910390206000856000015173ffffffffffffffffffffffffffffffffffffffff1673ffffffffffffffffffffffffffffffffffffffff168152602001908152602001600020908161069291906127f4565b507f7bf5593de59b1ab6196194664fe98b1d1dc3df5ee48141fd577f0ff7afd9bb828360000151338560200151866040015187606001516040516106da9594939291906128d5565b60405180910390a1505050565b60008054906101000a900473ffffffffffffffffffffffffffffffffffffffff1681565b600160009054906101000a900473ffffffffffffffffffffffffffffffffffffffff1681565b60005b8151811015610e815760003373ffffffffffffffffffffffffffffffffffffffff1660008054906101000a900473ffffffffffffffffffffffffffffffffffffffff1673ffffffffffffffffffffffffffffffffffffffff1663cb356d918585815181106107a5576107a461293d565b5b602002602001015160000151606001516040518263ffffffff1660e01b81526004016107d1919061255d565b602060405180830381865afa1580156107ee573d6000803e3d6000fd5b505050506040513d601f19601f820116820180604052508101906108129190612594565b73ffffffffffffffffffffffffffffffffffffffff1614905060003373ffffffffffffffffffffffffffffffffffffffff1660008054906101000a900473ffffffffffffffffffffffffffffffffffffffff1673ffffffffffffffffffffffffffffffffffffffff16631f567bcb8686815181106108935761089261293d565b5b602002602001015160000151606001516040518263ffffffff1660e01b81526004016108bf919061255d565b602060405180830381865afa1580156108dc573d6000803e3d6000fd5b505050506040513d601f19601f820116820180604052508101906109009190612594565b73ffffffffffffffffffffffffffffffffffffffff1614905081158015610925575080155b1561098457604051602001610939906129de565b6040516020818303038152906040526040517f08c379a000000000000000000000000000000000000000000000000000000000815260040161097b919061255d565b60405180910390fd5b8383815181106109975761099661293d565b5b6020026020010151600001516020015160028585815181106109bc576109bb61293d565b5b602002602001015160000151606001516040516109d991906124e6565b908152602001604051809103902060008686815181106109fc576109fb61293d565b5b6020026020010151600001516000015173ffffffffffffffffffffffffffffffffffffffff1673ffffffffffffffffffffffffffffffffffffffff1681526020019081526020016000209081610a5291906127f4565b50838381518110610a6657610a6561293d565b5b602002602001015160000151604001516003858581518110610a8b57610a8a61293d565b5b60200260200101516000015160600151604051610aa891906124e6565b90815260200160405180910390206000868681518110610acb57610aca61293d565b5b6020026020010151600001516000015173ffffffffffffffffffffffffffffffffffffffff1673ffffffffffffffffffffffffffffffffffffffff1681526020019081526020016000209081610b2191906127f4565b507f7bf5593de59b1ab6196194664fe98b1d1dc3df5ee48141fd577f0ff7afd9bb82848481518110610b5657610b5561293d565b5b6020026020010151600001516000015133868681518110610b7a57610b7961293d565b5b60200260200101516000015160200151878781518110610b9d57610b9c61293d565b5b60200260200101516000015160400151888881518110610bc057610bbf61293d565b5b60200260200101516000015160600151604051610be19594939291906128d5565b60405180910390a1838381518110610bfc57610bfb61293d565b5b602002602001015160200151602001516005858581518110610c2157610c2061293d565b5b60200260200101516020015160600151604051610c3e91906124e6565b90815260200160405180910390206000868681518110610c6157610c6061293d565b5b6020026020010151602001516000015173ffffffffffffffffffffffffffffffffffffffff1673ffffffffffffffffffffffffffffffffffffffff1681526020019081526020016000209081610cb791906127f4565b50838381518110610ccb57610cca61293d565b5b602002602001015160200151604001516006858581518110610cf057610cef61293d565b5b60200260200101516020015160600151604051610d0d91906124e6565b90815260200160405180910390206000868681518110610d3057610d2f61293d565b5b6020026020010151602001516000015173ffffffffffffffffffffffffffffffffffffffff1673ffffffffffffffffffffffffffffffffffffffff1681526020019081526020016000209081610d8691906127f4565b507f3e88a46403613c6e45c352aab06ce620d60806c1fafe6834aab5f0edd076314d848481518110610dbb57610dba61293d565b5b6020026020010151602001516000015133868681518110610ddf57610dde61293d565b5b60200260200101516020015160200151878781518110610e0257610e0161293d565b5b60200260200101516020015160400151888881518110610e2557610e2461293d565b5b60200260200101516020015160600151898981518110610e4857610e4761293d565b5b60200260200101516020015160800151604051610e6a969594939291906129f3565b60405180910390a150508080600101915050610734565b5050565b604051602001610e9490612abc565b60405160208183030381529060405280519060200120600160009054906101000a900473ffffffffffffffffffffffffffffffffffffffff1673ffffffffffffffffffffffffffffffffffffffff166344276733336040518263ffffffff1660e01b8152600401610f059190612ad1565b600060405180830381865afa158015610f22573d6000803e3d6000fd5b505050506040513d6000823e3d601f19601f82011682018060405250810190610f4b9190612b5c565b604051602001610f5b91906124e6565b6040516020818303038152906040528051906020012014610fd057604051602001610f8590612bf1565b6040516020818303038152906040526040517f08c379a0000000000000000000000000000000000000000000000000000000008152600401610fc7919061255d565b60405180910390fd5b60001515600786604051610fe491906124e6565b908152602001604051809103902060003373ffffffffffffffffffffffffffffffffffffffff1673ffffffffffffffffffffffffffffffffffffffff16815260200190815260200160002060009054906101000a900460ff1615151461107f576040517f08c379a000000000000000000000000000000000000000000000000000000000815260040161107690612c52565b60405180910390fd5b600160078660405161109191906124e6565b908152602001604051809103902060003373ffffffffffffffffffffffffffffffffffffffff1673ffffffffffffffffffffffffffffffffffffffff16815260200190815260200160002060006101000a81548160ff0219169083151502179055507fa2b873bcbdb25b34bb52b63d8d02f740e9e8d0a591cae0c92bf793d9e89aa18e33828787878760405161112c969594939291906129f3565b60405180910390a15050505050565b60405160200161114a90612abc565b60405160208183030381529060405280519060200120600160009054906101000a900473ffffffffffffffffffffffffffffffffffffffff1673ffffffffffffffffffffffffffffffffffffffff166344276733336040518263ffffffff1660e01b81526004016111bb9190612ad1565b600060405180830381865afa1580156111d8573d6000803e3d6000fd5b505050506040513d6000823e3d601f19601f820116820180604052508101906112019190612b5c565b60405160200161121191906124e6565b60405160208183030381529060405280519060200120146112865760405160200161123b90612bf1565b6040516020818303038152906040526040517f08c379a000000000000000000000000000000000000000000000000000000000815260040161127d919061255d565b60405180910390fd5b600015156004826020015160405161129e91906124e6565b908152602001604051809103902060003373ffffffffffffffffffffffffffffffffffffffff1673ffffffffffffffffffffffffffffffffffffffff16815260200190815260200160002060009054906101000a900460ff16151514611339576040517f08c379a000000000000000000000000000000000000000000000000000000000815260040161133090612c52565b60405180910390fd5b60016004826020015160405161134f91906124e6565b908152602001604051809103902060003373ffffffffffffffffffffffffffffffffffffffff1673ffffffffffffffffffffffffffffffffffffffff16815260200190815260200160002060006101000a81548160ff0219169083151502179055507fc2a6d5963749ec1cf48a0e17e4f12218f713af0b6676a1649f11cf6f8e491bef33826000015183602001516040516113ec93929190612c72565b60405180910390a150565b60005b81518110156118ae5760003373ffffffffffffffffffffffffffffffffffffffff1660008054906101000a900473ffffffffffffffffffffffffffffffffffffffff1673ffffffffffffffffffffffffffffffffffffffff1663cb356d9185858151811061146b5761146a61293d565b5b6020026020010151606001516040518263ffffffff1660e01b8152600401611493919061255d565b602060405180830381865afa1580156114b0573d6000803e3d6000fd5b505050506040513d601f19601f820116820180604052508101906114d49190612594565b73ffffffffffffffffffffffffffffffffffffffff1614905060003373ffffffffffffffffffffffffffffffffffffffff1660008054906101000a900473ffffffffffffffffffffffffffffffffffffffff1673ffffffffffffffffffffffffffffffffffffffff16631f567bcb8686815181106115555761155461293d565b5b6020026020010151606001516040518263ffffffff1660e01b815260040161157d919061255d565b602060405180830381865afa15801561159a573d6000803e3d6000fd5b505050506040513d601f19601f820116820180604052508101906115be9190612594565b73ffffffffffffffffffffffffffffffffffffffff16149050811580156115e3575080155b15611642576040516020016115f790612d22565b6040516020818303038152906040526040517f08c379a0000000000000000000000000000000000000000000000000000000008152600401611639919061255d565b60405180910390fd5b8383815181106116555761165461293d565b5b60200260200101516020015160058585815181106116765761167561293d565b5b60200260200101516060015160405161168f91906124e6565b908152602001604051809103902060008686815181106116b2576116b161293d565b5b60200260200101516000015173ffffffffffffffffffffffffffffffffffffffff1673ffffffffffffffffffffffffffffffffffffffff168152602001908152602001600020908161170491906127f4565b508383815181106117185761171761293d565b5b60200260200101516040015160068585815181106117395761173861293d565b5b60200260200101516060015160405161175291906124e6565b908152602001604051809103902060008686815181106117755761177461293d565b5b60200260200101516000015173ffffffffffffffffffffffffffffffffffffffff1673ffffffffffffffffffffffffffffffffffffffff16815260200190815260200160002090816117c791906127f4565b507f3e88a46403613c6e45c352aab06ce620d60806c1fafe6834aab5f0edd076314d8484815181106117fc576117fb61293d565b5b6020026020010151600001513386868151811061181c5761181b61293d565b5b60200260200101516020015187878151811061183b5761183a61293d565b5b60200260200101516040015188888151811061185a5761185961293d565b5b6020026020010151606001518989815181106118795761187861293d565b5b602002602001015160800151604051611897969594939291906129f3565b60405180910390a1505080806001019150506113fa565b5050565b6060806002846040516118c591906124e6565b908152602001604051809103902060008473ffffffffffffffffffffffffffffffffffffffff1673ffffffffffffffffffffffffffffffffffffffff16815260200190815260200160002060038560405161192091906124e6565b908152602001604051809103902060008573ffffffffffffffffffffffffffffffffffffffff1673ffffffffffffffffffffffffffffffffffffffff1681526020019081526020016000208180546119779061252c565b80601f01602080910402602001604051908101604052809291908181526020018280546119a39061252c565b80156119f05780601f106119c5576101008083540402835291602001916119f0565b820191906000526020600020905b8154815290600101906020018083116119d357829003601f168201915b50505050509150808054611a039061252c565b80601f0160208091040260200160405190810160405280929190818152602001828054611a2f9061252c565b8015611a7c5780601f10611a5157610100808354040283529160200191611a7c565b820191906000526020600020905b815481529060010190602001808311611a5f57829003601f168201915b50505050509050915091509250929050565b6000604051905090565b600080fd5b600080fd5b600080fd5b600080fd5b6000601f19601f8301169050919050565b7f4e487b7100000000000000000000000000000000000000000000000000000000600052604160045260246000fd5b611af582611aac565b810181811067ffffffffffffffff82111715611b1457611b13611abd565b5b80604052505050565b6000611b27611a8e565b9050611b338282611aec565b919050565b600067ffffffffffffffff821115611b5357611b52611abd565b5b611b5c82611aac565b9050602081019050919050565b82818337600083830152505050565b6000611b8b611b8684611b38565b611b1d565b905082815260208101848484011115611ba757611ba6611aa7565b5b611bb2848285611b69565b509392505050565b600082601f830112611bcf57611bce611aa2565b5b8135611bdf848260208601611b78565b91505092915050565b600073ffffffffffffffffffffffffffffffffffffffff82169050919050565b6000611c1382611be8565b9050919050565b611c2381611c08565b8114611c2e57600080fd5b50565b600081359050611c4081611c1a565b92915050565b60008060408385031215611c5d57611c5c611a98565b5b600083013567ffffffffffffffff811115611c7b57611c7a611a9d565b5b611c8785828601611bba565b9250506020611c9885828601611c31565b9150509250929050565b600081519050919050565b600082825260208201905092915050565b60005b83811015611cdc578082015181840152602081019050611cc1565b60008484015250505050565b6000611cf382611ca2565b611cfd8185611cad565b9350611d0d818560208601611cbe565b611d1681611aac565b840191505092915050565b60006040820190508181036000830152611d3b8185611ce8565b90508181036020830152611d4f8184611ce8565b90509392505050565b600080fd5b600080fd5b600060808284031215611d7857611d77611d58565b5b611d826080611b1d565b90506000611d9284828501611c31565b600083015250602082013567ffffffffffffffff811115611db657611db5611d5d565b5b611dc284828501611bba565b602083015250604082013567ffffffffffffffff811115611de657611de5611d5d565b5b611df284828501611bba565b604083015250606082013567ffffffffffffffff811115611e1657611e15611d5d565b5b611e2284828501611bba565b60608301525092915050565b600060208284031215611e4457611e43611a98565b5b600082013567ffffffffffffffff811115611e6257611e61611a9d565b5b611e6e84828501611d62565b91505092915050565b6000819050919050565b6000611e9c611e97611e9284611be8565b611e77565b611be8565b9050919050565b6000611eae82611e81565b9050919050565b6000611ec082611ea3565b9050919050565b611ed081611eb5565b82525050565b6000602082019050611eeb6000830184611ec7565b92915050565b6000611efc82611ea3565b9050919050565b611f0c81611ef1565b82525050565b6000602082019050611f276000830184611f03565b92915050565b600067ffffffffffffffff821115611f4857611f47611abd565b5b602082029050602081019050919050565b600080fd5b600060a08284031215611f7457611f73611d58565b5b611f7e60a0611b1d565b90506000611f8e84828501611c31565b600083015250602082013567ffffffffffffffff811115611fb257611fb1611d5d565b5b611fbe84828501611bba565b602083015250604082013567ffffffffffffffff811115611fe257611fe1611d5d565b5b611fee84828501611bba565b604083015250606082013567ffffffffffffffff81111561201257612011611d5d565b5b61201e84828501611bba565b606083015250608082013567ffffffffffffffff81111561204257612041611d5d565b5b61204e84828501611bba565b60808301525092915050565b6000604082840312156120705761206f611d58565b5b61207a6040611b1d565b9050600082013567ffffffffffffffff81111561209a57612099611d5d565b5b6120a684828501611d62565b600083015250602082013567ffffffffffffffff8111156120ca576120c9611d5d565b5b6120d684828501611f5e565b60208301525092915050565b60006120f56120f084611f2d565b611b1d565b9050808382526020820190506020840283018581111561211857612117611f59565b5b835b8181101561215f57803567ffffffffffffffff81111561213d5761213c611aa2565b5b80860161214a898261205a565b8552602085019450505060208101905061211a565b5050509392505050565b600082601f83011261217e5761217d611aa2565b5b813561218e8482602086016120e2565b91505092915050565b6000602082840312156121ad576121ac611a98565b5b600082013567ffffffffffffffff8111156121cb576121ca611a9d565b5b6121d784828501612169565b91505092915050565b600080600080600060a086880312156121fc576121fb611a98565b5b600086013567ffffffffffffffff81111561221a57612219611a9d565b5b61222688828901611bba565b955050602086013567ffffffffffffffff81111561224757612246611a9d565b5b61225388828901611bba565b945050604086013567ffffffffffffffff81111561227457612273611a9d565b5b61228088828901611bba565b935050606086013567ffffffffffffffff8111156122a1576122a0611a9d565b5b6122ad88828901611bba565b92505060806122be88828901611c31565b9150509295509295909350565b6000604082840312156122e1576122e0611d58565b5b6122eb6040611b1d565b905060006122fb84828501611c31565b600083015250602082013567ffffffffffffffff81111561231f5761231e611d5d565b5b61232b84828501611bba565b60208301525092915050565b60006020828403121561234d5761234c611a98565b5b600082013567ffffffffffffffff81111561236b5761236a611a9d565b5b612377848285016122cb565b91505092915050565b600067ffffffffffffffff82111561239b5761239a611abd565b5b602082029050602081019050919050565b60006123bf6123ba84612380565b611b1d565b905080838252602082019050602084028301858111156123e2576123e1611f59565b5b835b8181101561242957803567ffffffffffffffff81111561240757612406611aa2565b5b8086016124148982611f5e565b855260208501945050506020810190506123e4565b5050509392505050565b600082601f83011261244857612447611aa2565b5b81356124588482602086016123ac565b91505092915050565b60006020828403121561247757612476611a98565b5b600082013567ffffffffffffffff81111561249557612494611a9d565b5b6124a184828501612433565b91505092915050565b600081905092915050565b60006124c082611ca2565b6124ca81856124aa565b93506124da818560208601611cbe565b80840191505092915050565b60006124f282846124b5565b915081905092915050565b7f4e487b7100000000000000000000000000000000000000000000000000000000600052602260045260246000fd5b6000600282049050600182168061254457607f821691505b602082108103612557576125566124fd565b5b50919050565b600060208201905081810360008301526125778184611ce8565b905092915050565b60008151905061258e81611c1a565b92915050565b6000602082840312156125aa576125a9611a98565b5b60006125b88482850161257f565b91505092915050565b7f53656e646572206973206e6f7420617574686f72697a656420746f20656d697460008201527f20636f6e74656e74206b65790000000000000000000000000000000000000000602082015250565b600061261d602c836124aa565b9150612628826125c1565b602c82019050919050565b600061263e82612610565b9150819050919050565b60008190508160005260206000209050919050565b60006020601f8301049050919050565b600082821b905092915050565b6000600883026126aa7fffffffffffffffffffffffffffffffffffffffffffffffffffffffffffffffff8261266d565b6126b4868361266d565b95508019841693508086168417925050509392505050565b6000819050919050565b60006126f16126ec6126e7846126cc565b611e77565b6126cc565b9050919050565b6000819050919050565b61270b836126d6565b61271f612717826126f8565b84845461267a565b825550505050565b600090565b612734612727565b61273f818484612702565b505050565b5b818110156127635761275860008261272c565b600181019050612745565b5050565b601f8211156127a85761277981612648565b6127828461265d565b81016020851015612791578190505b6127a561279d8561265d565b830182612744565b50505b505050565b600082821c905092915050565b60006127cb600019846008026127ad565b1980831691505092915050565b60006127e483836127ba565b9150826002028217905092915050565b6127fd82611ca2565b67ffffffffffffffff81111561281657612815611abd565b5b612820825461252c565b61282b828285612767565b600060209050601f83116001811461285e576000841561284c578287015190505b61285685826127d8565b8655506128be565b601f19841661286c86612648565b60005b828110156128945784890151825560018201915060208501945060208101905061286f565b868310156128b157848901516128ad601f8916826127ba565b8355505b6001600288020188555050505b505050505050565b6128cf81611c08565b82525050565b600060a0820190506128ea60008301886128c6565b6128f760208301876128c6565b81810360408301526129098186611ce8565b9050818103606083015261291d8185611ce8565b905081810360808301526129318184611ce8565b90509695505050505050565b7f4e487b7100000000000000000000000000000000000000000000000000000000600052603260045260246000fd5b7f53656e646572206973206e6f7420617574686f72697a656420746f20656d697460008201527f206b657973000000000000000000000000000000000000000000000000000000602082015250565b60006129c86025836124aa565b91506129d38261296c565b602582019050919050565b60006129e9826129bb565b9150819050919050565b600060c082019050612a0860008301896128c6565b612a1560208301886128c6565b8181036040830152612a278187611ce8565b90508181036060830152612a3b8186611ce8565b90508181036080830152612a4f8185611ce8565b905081810360a0830152612a638184611ce8565b9050979650505050505050565b7f74686972645f7061727479000000000000000000000000000000000000000000600082015250565b6000612aa6600b836124aa565b9150612ab182612a70565b600b82019050919050565b6000612ac782612a99565b9150819050919050565b6000602082019050612ae660008301846128c6565b92915050565b6000612aff612afa84611b38565b611b1d565b905082815260208101848484011115612b1b57612b1a611aa7565b5b612b26848285611cbe565b509392505050565b600082601f830112612b4357612b42611aa2565b5b8151612b53848260208601612aec565b91505092915050565b600060208284031215612b7257612b71611a98565b5b600082015167ffffffffffffffff811115612b9057612b8f611a9d565b5b612b9c84828501612b2e565b91505092915050565b7f53656e646572206973206e6f7420612074686972645f70617274790000000000600082015250565b6000612bdb601b836124aa565b9150612be682612ba5565b601b82019050919050565b6000612bfc82612bce565b9150819050919050565b7f41636365737320616c7265616479207265717565737465640000000000000000600082015250565b6000612c3c601883611cad565b9150612c4782612c06565b602082019050919050565b60006020820190508181036000830152612c6b81612c2f565b9050919050565b6000606082019050612c8760008301866128c6565b612c9460208301856128c6565b8181036040830152612ca68184611ce8565b9050949350505050565b7f53656e646572206973206e6f7420617574686f72697a656420746f20656d697460008201527f2074656e646572206b6579000000000000000000000000000000000000000000602082015250565b6000612d0c602b836124aa565b9150612d1782612cb0565b602b82019050919050565b6000612d2d82612cff565b915081905091905056fea26469706673582212205c507ed38a903908fc74957cde85bcd96c1a9b9014f24a3790e3d3481caa150264736f6c634300081c0033",
  "linkReferences": {},
  "deployedLinkReferences": {}
}