{
  "_format": "hh-sol-artifact-1",
  "contractName": "TenderManager",
  "sourceName": "contracts/TenderManager.sol",
  "abi": [
    {
      "inputs": [
        {
          "internalType": "address",
          "name": "publicKeyStorageAddress",
          "type": "address"
        }
      ],
      "stateMutability": "nonpayable",
      "type": "constructor"
    },
    {
      "anonymous": false,
      "inputs": [
        {
          "indexed": false,
          "internalType": "string",
          "name": "tenderId",
          "type": "string"
        },
        {
          "indexed": false,
          "internalType": "address",
          "name": "owner",
          "type": "address"
        },
        {
          "indexed": false,
          "internalType": "string",
          "name": "name",
          "type": "string"
        },
        {
          "indexed": false,
          "internalType": "uint256",
          "name": "startDate",
          "type": "uint256"
        },
        {
          "indexed": false,
          "internalType": "uint256",
          "name": "endDate",
          "type": "uint256"
        }
      ],
      "name": "TenderCreated",
      "type": "event"
    },
    {
      "anonymous": false,
      "inputs": [
        {
          "indexed": false,
          "internalType": "string",
          "name": "tenderId",
          "type": "string"
        },
        {
          "indexed": false,
          "internalType": "string",
          "name": "name",
          "type": "string"
        },
        {
          "indexed": false,
          "internalType": "string",
          "name": "department",
          "type": "string"
        },
        {
          "indexed": false,
          "internalType": "string",
          "name": "projectScope",
          "type": "string"
        },
        {
          "indexed": false,
          "internalType": "string",
          "name": "budget",
          "type": "string"
        },
        {
          "indexed": false,
          "internalType": "string",
          "name": "qualificationRequirements",
          "type": "string"
        },
        {
          "indexed": false,
          "internalType": "string",
          "name": "submissionGuidelines",
          "type": "string"
        },
        {
          "indexed": false,
          "internalType": "string",
          "name": "officialCommunicationChannel",
          "type": "string"
        }
      ],
      "name": "TenderMetadataAdded",
      "type": "event"
    },
    {
      "anonymous": false,
      "inputs": [
        {
          "indexed": false,
          "internalType": "string",
          "name": "tenderId",
          "type": "string"
        },
        {
          "indexed": false,
          "internalType": "string",
          "name": "tenderName",
          "type": "string"
        },
        {
          "indexed": false,
          "internalType": "uint256",
          "name": "tenderStartDate",
          "type": "uint256"
        },
        {
          "indexed": false,
          "internalType": "uint256",
          "name": "tenderEndDate",
          "type": "uint256"
        },
        {
          "indexed": false,
          "internalType": "address",
          "name": "thirdParty",
          "type": "address"
        }
      ],
      "name": "ThirdPartyParticipantAdded",
      "type": "event"
    },
    {
      "anonymous": false,
      "inputs": [
        {
          "indexed": false,
          "internalType": "string",
          "name": "tenderId",
          "type": "string"
        },
        {
          "indexed": false,
          "internalType": "address",
          "name": "winner",
          "type": "address"
        },
        {
          "indexed": false,
          "internalType": "string",
          "name": "reason",
          "type": "string"
        },
        {
          "indexed": false,
          "internalType": "uint256",
          "name": "timestamp",
          "type": "uint256"
        }
      ],
      "name": "WinnerSelected",
      "type": "event"
    },
    {
      "inputs": [
        {
          "internalType": "string",
          "name": "tenderId",
          "type": "string"
        },
        {
          "internalType": "string",
          "name": "name",
          "type": "string"
        },
        {
          "internalType": "string",
          "name": "department",
          "type": "string"
        },
        {
          "internalType": "string",
          "name": "projectScope",
          "type": "string"
        },
        {
          "internalType": "string",
          "name": "budget",
          "type": "string"
        },
        {
          "internalType": "string",
          "name": "qualificationRequirements",
          "type": "string"
        },
        {
          "internalType": "string",
          "name": "submissionGuidelines",
          "type": "string"
        },
        {
          "internalType": "string",
          "name": "officialCommunicationChannel",
          "type": "string"
        }
      ],
      "name": "addTenderMetadata",
      "outputs": [],
      "stateMutability": "nonpayable",
      "type": "function"
    },
    {
      "inputs": [
        {
          "internalType": "string",
          "name": "tenderId",
          "type": "string"
        },
        {
          "internalType": "address",
          "name": "thirdParty",
          "type": "address"
        }
      ],
      "name": "addThirdPartyParticipant",
      "outputs": [],
      "stateMutability": "nonpayable",
      "type": "function"
    },
    {
      "inputs": [
        {
          "internalType": "string",
          "name": "tenderId",
          "type": "string"
        },
        {
          "internalType": "string",
          "name": "name",
          "type": "string"
        },
        {
          "internalType": "uint256",
          "name": "startDate",
          "type": "uint256"
        },
        {
          "internalType": "uint256",
          "name": "endDate",
          "type": "uint256"
        }
      ],
      "name": "createTender",
      "outputs": [],
      "stateMutability": "nonpayable",
      "type": "function"
    },
    {
      "inputs": [
        {
          "internalType": "string",
          "name": "tenderId",
          "type": "string"
        }
      ],
      "name": "getOwner",
      "outputs": [
        {
          "internalType": "address",
          "name": "",
          "type": "address"
        }
      ],
      "stateMutability": "view",
      "type": "function"
    },
    {
      "inputs": [
        {
          "internalType": "string",
          "name": "tenderId",
          "type": "string"
        }
      ],
      "name": "getParticipants",
      "outputs": [
        {
          "components": [
            {
              "internalType": "address",
              "name": "participantAddress",
              "type": "address"
            },
            {
              "internalType": "string",
              "name": "name",
              "type": "string"
            }
          ],
          "internalType": "struct TenderManager.Participant[]",
          "name": "",
          "type": "tuple[]"
        }
      ],
      "stateMutability": "view",
      "type": "function"
    },
    {
      "inputs": [
        {
          "internalType": "string",
          "name": "tenderId",
          "type": "string"
        }
      ],
      "name": "getThirdPartyParticipantsArray",
      "outputs": [
        {
          "internalType": "address[]",
          "name": "",
          "type": "address[]"
        }
      ],
      "stateMutability": "view",
      "type": "function"
    },
    {
      "inputs": [
        {
          "internalType": "string",
          "name": "tenderId",
          "type": "string"
        }
      ],
      "name": "getWinner",
      "outputs": [
        {
          "internalType": "address",
          "name": "",
          "type": "address"
        }
      ],
      "stateMutability": "view",
      "type": "function"
    },
    {
      "inputs": [
        {
          "internalType": "string",
          "name": "tenderId",
          "type": "string"
        },
        {
          "internalType": "address",
          "name": "thirdParty",
          "type": "address"
        }
      ],
      "name": "isThirdPartyParticipant",
      "outputs": [
        {
          "internalType": "bool",
          "name": "",
          "type": "bool"
        }
      ],
      "stateMutability": "view",
      "type": "function"
    },
    {
      "inputs": [
        {
          "internalType": "string",
          "name": "",
          "type": "string"
        },
        {
          "internalType": "uint256",
          "name": "",
          "type": "uint256"
        }
      ],
      "name": "participants",
      "outputs": [
        {
          "internalType": "address",
          "name": "participantAddress",
          "type": "address"
        },
        {
          "internalType": "string",
          "name": "name",
          "type": "string"
        }
      ],
      "stateMutability": "view",
      "type": "function"
    },
    {
      "inputs": [],
      "name": "publicKeyStorage",
      "outputs": [
        {
          "internalType": "contract IPublicKeyStorage",
          "name": "",
          "type": "address"
        }
      ],
      "stateMutability": "view",
      "type": "function"
    },
    {
      "inputs": [
        {
          "internalType": "string",
          "name": "tenderId",
          "type": "string"
        },
        {
          "internalType": "address",
          "name": "winner",
          "type": "address"
        },
        {
          "internalType": "string",
          "name": "reason",
          "type": "string"
        },
        {
          "components": [
            {
              "internalType": "address",
              "name": "participantAddress",
              "type": "address"
            },
            {
              "internalType": "string",
              "name": "name",
              "type": "string"
            }
          ],
          "internalType": "struct TenderManager.Participant[]",
          "name": "participantsList",
          "type": "tuple[]"
        }
      ],
      "name": "selectWinner",
      "outputs": [],
      "stateMutability": "nonpayable",
      "type": "function"
    },
    {
      "inputs": [
        {
          "internalType": "string",
          "name": "",
          "type": "string"
        }
      ],
      "name": "tenders",
      "outputs": [
        {
          "internalType": "address",
          "name": "owner",
          "type": "address"
        },
        {
          "internalType": "string",
          "name": "name",
          "type": "string"
        },
        {
          "internalType": "uint256",
          "name": "startDate",
          "type": "uint256"
        },
        {
          "internalType": "uint256",
          "name": "endDate",
          "type": "uint256"
        },
        {
          "internalType": "address",
          "name": "winner",
          "type": "address"
        }
      ],
      "stateMutability": "view",
      "type": "function"
    },
    {
      "inputs": [
        {
          "internalType": "string",
          "name": "",
          "type": "string"
        },
        {
          "internalType": "address",
          "name": "",
          "type": "address"
        }
      ],
      "name": "thirdPartyParticipants",
      "outputs": [
        {
          "internalType": "bool",
          "name": "",
          "type": "bool"
        }
      ],
      "stateMutability": "view",
      "type": "function"
    }
  ],
  "bytecode": "0x608060405234801561001057600080fd5b5060405161283a38038061283a833981810160405281019061003291906100db565b806000806101000a81548173ffffffffffffffffffffffffffffffffffffffff021916908373ffffffffffffffffffffffffffffffffffffffff16021790555050610108565b600080fd5b600073ffffffffffffffffffffffffffffffffffffffff82169050919050565b60006100a88261007d565b9050919050565b6100b88161009d565b81146100c357600080fd5b50565b6000815190506100d5816100af565b92915050565b6000602082840312156100f1576100f0610078565b5b60006100ff848285016100c6565b91505092915050565b612723806101176000396000f3fe608060405234801561001057600080fd5b50600436106100cf5760003560e01c80636dbfdf251161008c578063997b737f11610066578063997b737f1461024b5780639fe22aa61461027f578063cc151516146102af578063d927ee88146102cb576100cf565b80636dbfdf25146101e15780637e90def7146101ff57806390678b5a1461022f576100cf565b806306c0398a146100d45780631b2b9fb51461010457806325d32088146101205780634aaf4a121461015157806351ad845f146101815780635b80df90146101b1575b600080fd5b6100ee60048036038101906100e99190611374565b6102e7565b6040516100fb91906113eb565b60405180910390f35b61011e60048036038101906101199190611374565b61032c565b005b61013a6004803603810190610135919061143c565b610622565b604051610148929190611526565b60405180910390f35b61016b60048036038101906101669190611556565b610721565b604051610178919061159f565b60405180910390f35b61019b60048036038101906101969190611374565b61076c565b6040516101a891906113eb565b60405180910390f35b6101cb60048036038101906101c69190611556565b6107df565b6040516101d8919061159f565b60405180910390f35b6101e961082a565b6040516101f69190611619565b60405180910390f35b61021960048036038101906102149190611556565b61084e565b604051610226919061178c565b60405180910390f35b6102496004803603810190610244919061190a565b6109b3565b005b61026560048036038101906102609190611556565b610c5c565b6040516102769594939291906119d4565b60405180910390f35b61029960048036038101906102949190611556565b610d70565b6040516102a69190611add565b60405180910390f35b6102c960048036038101906102c49190611aff565b610e1c565b005b6102e560048036038101906102e09190611c95565b610f20565b005b6002828051602081018201805184825260208301602085012081835280955050505050506020528060005260406000206000915091509054906101000a900460ff1681565b600060018360405161033e9190611d70565b908152602001604051809103902090508060000160009054906101000a900473ffffffffffffffffffffffffffffffffffffffff1673ffffffffffffffffffffffffffffffffffffffff163373ffffffffffffffffffffffffffffffffffffffff16146103e0576040517f08c379a00000000000000000000000000000000000000000000000000000000081526004016103d790611df9565b60405180910390fd5b6002836040516103f09190611d70565b908152602001604051809103902060008373ffffffffffffffffffffffffffffffffffffffff1673ffffffffffffffffffffffffffffffffffffffff16815260200190815260200160002060009054906101000a900460ff1615610489576040517f08c379a000000000000000000000000000000000000000000000000000000000815260040161048090611e65565b60405180910390fd5b600160028460405161049b9190611d70565b908152602001604051809103902060008473ffffffffffffffffffffffffffffffffffffffff1673ffffffffffffffffffffffffffffffffffffffff16815260200190815260200160002060006101000a81548160ff02191690831515021790555060038360405161050d9190611d70565b9081526020016040518091039020829080600181540180825580915050600190039060005260206000200160009091909190916101000a81548173ffffffffffffffffffffffffffffffffffffffff021916908373ffffffffffffffffffffffffffffffffffffffff1602179055507f40443e05560d75a42fe117bc05a8c160ed6e847c7481b62ab246c2eaae4c9080836001856040516105ae9190611d70565b90815260200160405180910390206001016001866040516105cf9190611d70565b9081526020016040518091039020600201546001876040516105f19190611d70565b90815260200160405180910390206003015486604051610615959493929190611f7e565b60405180910390a1505050565b600482805160208101820180518482526020830160208501208183528095505050505050818154811061065457600080fd5b9060005260206000209060020201600091509150508060000160009054906101000a900473ffffffffffffffffffffffffffffffffffffffff169080600101805461069e90611eb4565b80601f01602080910402602001604051908101604052809291908181526020018280546106ca90611eb4565b80156107175780601f106106ec57610100808354040283529160200191610717565b820191906000526020600020905b8154815290600101906020018083116106fa57829003601f168201915b5050505050905082565b60006001826040516107339190611d70565b908152602001604051809103902060000160009054906101000a900473ffffffffffffffffffffffffffffffffffffffff169050919050565b600060028360405161077e9190611d70565b908152602001604051809103902060008373ffffffffffffffffffffffffffffffffffffffff1673ffffffffffffffffffffffffffffffffffffffff16815260200190815260200160002060009054906101000a900460ff16905092915050565b60006001826040516107f19190611d70565b908152602001604051809103902060040160009054906101000a900473ffffffffffffffffffffffffffffffffffffffff169050919050565b60008054906101000a900473ffffffffffffffffffffffffffffffffffffffff1681565b60606004826040516108609190611d70565b9081526020016040518091039020805480602002602001604051908101604052809291908181526020016000905b828210156109a857838290600052602060002090600202016040518060400160405290816000820160009054906101000a900473ffffffffffffffffffffffffffffffffffffffff1673ffffffffffffffffffffffffffffffffffffffff1673ffffffffffffffffffffffffffffffffffffffff16815260200160018201805461091790611eb4565b80601f016020809104026020016040519081016040528092919081815260200182805461094390611eb4565b80156109905780601f1061096557610100808354040283529160200191610990565b820191906000526020600020905b81548152906001019060200180831161097357829003601f168201915b5050505050815250508152602001906001019061088e565b505050509050919050565b60006001856040516109c59190611d70565b908152602001604051809103902090508060000160009054906101000a900473ffffffffffffffffffffffffffffffffffffffff1673ffffffffffffffffffffffffffffffffffffffff163373ffffffffffffffffffffffffffffffffffffffff1614610a67576040517f08c379a0000000000000000000000000000000000000000000000000000000008152600401610a5e9061202b565b60405180910390fd5b600073ffffffffffffffffffffffffffffffffffffffff168160040160009054906101000a900473ffffffffffffffffffffffffffffffffffffffff1673ffffffffffffffffffffffffffffffffffffffff1614610afa576040517f08c379a0000000000000000000000000000000000000000000000000000000008152600401610af190612097565b60405180910390fd5b838160040160006101000a81548173ffffffffffffffffffffffffffffffffffffffff021916908373ffffffffffffffffffffffffffffffffffffffff16021790555060005b8251811015610c1757600486604051610b599190611d70565b9081526020016040518091039020838281518110610b7a57610b796120b7565b5b6020026020010151908060018154018082558091505060019003906000526020600020906002020160009091909190915060008201518160000160006101000a81548173ffffffffffffffffffffffffffffffffffffffff021916908373ffffffffffffffffffffffffffffffffffffffff1602179055506020820151816001019081610c079190612273565b5050508080600101915050610b40565b507ff3bf7b40460c400bc3d5a864d85342803599eae103856e9878d89f4514e1e53f85858542604051610c4d9493929190612345565b60405180910390a15050505050565b6001818051602081018201805184825260208301602085012081835280955050505050506000915090508060000160009054906101000a900473ffffffffffffffffffffffffffffffffffffffff1690806001018054610cbb90611eb4565b80601f0160208091040260200160405190810160405280929190818152602001828054610ce790611eb4565b8015610d345780601f10610d0957610100808354040283529160200191610d34565b820191906000526020600020905b815481529060010190602001808311610d1757829003601f168201915b5050505050908060020154908060030154908060040160009054906101000a900473ffffffffffffffffffffffffffffffffffffffff16905085565b6060600382604051610d829190611d70565b9081526020016040518091039020805480602002602001604051908101604052809291908181526020018280548015610e1057602002820191906000526020600020905b8160009054906101000a900473ffffffffffffffffffffffffffffffffffffffff1673ffffffffffffffffffffffffffffffffffffffff1681526020019060010190808311610dc6575b50505050509050919050565b6000600189604051610e2e9190611d70565b908152602001604051809103902090508060000160009054906101000a900473ffffffffffffffffffffffffffffffffffffffff1673ffffffffffffffffffffffffffffffffffffffff163373ffffffffffffffffffffffffffffffffffffffff1614610ed0576040517f08c379a0000000000000000000000000000000000000000000000000000000008152600401610ec79061240a565b60405180910390fd5b7f09922c247ed492cc221c8f0a3cc186917e9db25287cbebed07a2145b32b893448989898989898989604051610f0d98979695949392919061242a565b60405180910390a1505050505050505050565b604051602001610f2f9061252c565b6040516020818303038152906040528051906020012060008054906101000a900473ffffffffffffffffffffffffffffffffffffffff1673ffffffffffffffffffffffffffffffffffffffff166344276733336040518263ffffffff1660e01b8152600401610f9e919061159f565b600060405180830381865afa158015610fbb573d6000803e3d6000fd5b505050506040513d6000823e3d601f19601f82011682018060405250810190610fe491906125b1565b604051602001610ff49190611d70565b604051602081830303815290604052805190602001201461104a576040517f08c379a00000000000000000000000000000000000000000000000000000000081526004016110419061266c565b60405180910390fd5b6040518060a001604052803373ffffffffffffffffffffffffffffffffffffffff168152602001848152602001838152602001828152602001600073ffffffffffffffffffffffffffffffffffffffff168152506001856040516110ae9190611d70565b908152602001604051809103902060008201518160000160006101000a81548173ffffffffffffffffffffffffffffffffffffffff021916908373ffffffffffffffffffffffffffffffffffffffff16021790555060208201518160010190816111189190612273565b50604082015181600201556060820151816003015560808201518160040160006101000a81548173ffffffffffffffffffffffffffffffffffffffff021916908373ffffffffffffffffffffffffffffffffffffffff1602179055509050507f53f998f14d7ec3105c9fb67bc16484812950aebe822711e3ba3200901532faf684338585856040516111ae95949392919061268c565b60405180910390a150505050565b6000604051905090565b600080fd5b600080fd5b600080fd5b600080fd5b6000601f19601f8301169050919050565b7f4e487b7100000000000000000000000000000000000000000000000000000000600052604160045260246000fd5b611223826111da565b810181811067ffffffffffffffff82111715611242576112416111eb565b5b80604052505050565b60006112556111bc565b9050611261828261121a565b919050565b600067ffffffffffffffff821115611281576112806111eb565b5b61128a826111da565b9050602081019050919050565b82818337600083830152505050565b60006112b96112b484611266565b61124b565b9050828152602081018484840111156112d5576112d46111d5565b5b6112e0848285611297565b509392505050565b600082601f8301126112fd576112fc6111d0565b5b813561130d8482602086016112a6565b91505092915050565b600073ffffffffffffffffffffffffffffffffffffffff82169050919050565b600061134182611316565b9050919050565b61135181611336565b811461135c57600080fd5b50565b60008135905061136e81611348565b92915050565b6000806040838503121561138b5761138a6111c6565b5b600083013567ffffffffffffffff8111156113a9576113a86111cb565b5b6113b5858286016112e8565b92505060206113c68582860161135f565b9150509250929050565b60008115159050919050565b6113e5816113d0565b82525050565b600060208201905061140060008301846113dc565b92915050565b6000819050919050565b61141981611406565b811461142457600080fd5b50565b60008135905061143681611410565b92915050565b60008060408385031215611453576114526111c6565b5b600083013567ffffffffffffffff811115611471576114706111cb565b5b61147d858286016112e8565b925050602061148e85828601611427565b9150509250929050565b6114a181611336565b82525050565b600081519050919050565b600082825260208201905092915050565b60005b838110156114e15780820151818401526020810190506114c6565b60008484015250505050565b60006114f8826114a7565b61150281856114b2565b93506115128185602086016114c3565b61151b816111da565b840191505092915050565b600060408201905061153b6000830185611498565b818103602083015261154d81846114ed565b90509392505050565b60006020828403121561156c5761156b6111c6565b5b600082013567ffffffffffffffff81111561158a576115896111cb565b5b611596848285016112e8565b91505092915050565b60006020820190506115b46000830184611498565b92915050565b6000819050919050565b60006115df6115da6115d584611316565b6115ba565b611316565b9050919050565b60006115f1826115c4565b9050919050565b6000611603826115e6565b9050919050565b611613816115f8565b82525050565b600060208201905061162e600083018461160a565b92915050565b600081519050919050565b600082825260208201905092915050565b6000819050602082019050919050565b61166981611336565b82525050565b600082825260208201905092915050565b600061168b826114a7565b611695818561166f565b93506116a58185602086016114c3565b6116ae816111da565b840191505092915050565b60006040830160008301516116d16000860182611660565b50602083015184820360208601526116e98282611680565b9150508091505092915050565b600061170283836116b9565b905092915050565b6000602082019050919050565b600061172282611634565b61172c818561163f565b93508360208202850161173e85611650565b8060005b8581101561177a578484038952815161175b85826116f6565b94506117668361170a565b925060208a01995050600181019050611742565b50829750879550505050505092915050565b600060208201905081810360008301526117a68184611717565b905092915050565b600067ffffffffffffffff8211156117c9576117c86111eb565b5b602082029050602081019050919050565b600080fd5b600080fd5b600080fd5b6000604082840312156117ff576117fe6117df565b5b611809604061124b565b905060006118198482850161135f565b600083015250602082013567ffffffffffffffff81111561183d5761183c6117e4565b5b611849848285016112e8565b60208301525092915050565b6000611868611863846117ae565b61124b565b9050808382526020820190506020840283018581111561188b5761188a6117da565b5b835b818110156118d257803567ffffffffffffffff8111156118b0576118af6111d0565b5b8086016118bd89826117e9565b8552602085019450505060208101905061188d565b5050509392505050565b600082601f8301126118f1576118f06111d0565b5b8135611901848260208601611855565b91505092915050565b60008060008060808587031215611924576119236111c6565b5b600085013567ffffffffffffffff811115611942576119416111cb565b5b61194e878288016112e8565b945050602061195f8782880161135f565b935050604085013567ffffffffffffffff8111156119805761197f6111cb565b5b61198c878288016112e8565b925050606085013567ffffffffffffffff8111156119ad576119ac6111cb565b5b6119b9878288016118dc565b91505092959194509250565b6119ce81611406565b82525050565b600060a0820190506119e96000830188611498565b81810360208301526119fb81876114ed565b9050611a0a60408301866119c5565b611a1760608301856119c5565b611a246080830184611498565b9695505050505050565b600081519050919050565b600082825260208201905092915050565b6000819050602082019050919050565b6000611a668383611660565b60208301905092915050565b6000602082019050919050565b6000611a8a82611a2e565b611a948185611a39565b9350611a9f83611a4a565b8060005b83811015611ad0578151611ab78882611a5a565b9750611ac283611a72565b925050600181019050611aa3565b5085935050505092915050565b60006020820190508181036000830152611af78184611a7f565b905092915050565b600080600080600080600080610100898b031215611b2057611b1f6111c6565b5b600089013567ffffffffffffffff811115611b3e57611b3d6111cb565b5b611b4a8b828c016112e8565b985050602089013567ffffffffffffffff811115611b6b57611b6a6111cb565b5b611b778b828c016112e8565b975050604089013567ffffffffffffffff811115611b9857611b976111cb565b5b611ba48b828c016112e8565b965050606089013567ffffffffffffffff811115611bc557611bc46111cb565b5b611bd18b828c016112e8565b955050608089013567ffffffffffffffff811115611bf257611bf16111cb565b5b611bfe8b828c016112e8565b94505060a089013567ffffffffffffffff811115611c1f57611c1e6111cb565b5b611c2b8b828c016112e8565b93505060c089013567ffffffffffffffff811115611c4c57611c4b6111cb565b5b611c588b828c016112e8565b92505060e089013567ffffffffffffffff811115611c7957611c786111cb565b5b611c858b828c016112e8565b9150509295985092959890939650565b60008060008060808587031215611caf57611cae6111c6565b5b600085013567ffffffffffffffff811115611ccd57611ccc6111cb565b5b611cd9878288016112e8565b945050602085013567ffffffffffffffff811115611cfa57611cf96111cb565b5b611d06878288016112e8565b9350506040611d1787828801611427565b9250506060611d2887828801611427565b91505092959194509250565b600081905092915050565b6000611d4a826114a7565b611d548185611d34565b9350611d648185602086016114c3565b80840191505092915050565b6000611d7c8284611d3f565b915081905092915050565b7f4f6e6c79206f776e65722063616e20616464207468697264207061727479207060008201527f61727469636970616e7400000000000000000000000000000000000000000000602082015250565b6000611de3602a836114b2565b9150611dee82611d87565b604082019050919050565b60006020820190508181036000830152611e1281611dd6565b9050919050565b7f546869726420706172747920616c726561647920616464656400000000000000600082015250565b6000611e4f6019836114b2565b9150611e5a82611e19565b602082019050919050565b60006020820190508181036000830152611e7e81611e42565b9050919050565b7f4e487b7100000000000000000000000000000000000000000000000000000000600052602260045260246000fd5b60006002820490506001821680611ecc57607f821691505b602082108103611edf57611ede611e85565b5b50919050565b60008190508160005260206000209050919050565b60008154611f0781611eb4565b611f1181866114b2565b94506001821660008114611f2c5760018114611f4257611f75565b60ff198316865281151560200286019350611f75565b611f4b85611ee5565b60005b83811015611f6d57815481890152600182019150602081019050611f4e565b808801955050505b50505092915050565b600060a0820190508181036000830152611f9881886114ed565b90508181036020830152611fac8187611efa565b9050611fbb60408301866119c5565b611fc860608301856119c5565b611fd56080830184611498565b9695505050505050565b7f4f6e6c79206f776e65722063616e2073656c6563742077696e6e657200000000600082015250565b6000612015601c836114b2565b915061202082611fdf565b602082019050919050565b6000602082019050818103600083015261204481612008565b9050919050565b7f57696e6e657220616c72656164792073656c6563746564000000000000000000600082015250565b60006120816017836114b2565b915061208c8261204b565b602082019050919050565b600060208201905081810360008301526120b081612074565b9050919050565b7f4e487b7100000000000000000000000000000000000000000000000000000000600052603260045260246000fd5b60006020601f8301049050919050565b600082821b905092915050565b6000600883026121337fffffffffffffffffffffffffffffffffffffffffffffffffffffffffffffffff826120f6565b61213d86836120f6565b95508019841693508086168417925050509392505050565b600061217061216b61216684611406565b6115ba565b611406565b9050919050565b6000819050919050565b61218a83612155565b61219e61219682612177565b848454612103565b825550505050565b600090565b6121b36121a6565b6121be818484612181565b505050565b5b818110156121e2576121d76000826121ab565b6001810190506121c4565b5050565b601f821115612227576121f881611ee5565b612201846120e6565b81016020851015612210578190505b61222461221c856120e6565b8301826121c3565b50505b505050565b600082821c905092915050565b600061224a6000198460080261222c565b1980831691505092915050565b60006122638383612239565b9150826002028217905092915050565b61227c826114a7565b67ffffffffffffffff811115612295576122946111eb565b5b61229f8254611eb4565b6122aa8282856121e6565b600060209050601f8311600181146122dd57600084156122cb578287015190505b6122d58582612257565b86555061233d565b601f1984166122eb86611ee5565b60005b82811015612313578489015182556001820191506020850194506020810190506122ee565b86831015612330578489015161232c601f891682612239565b8355505b6001600288020188555050505b505050505050565b6000608082019050818103600083015261235f81876114ed565b905061236e6020830186611498565b818103604083015261238081856114ed565b905061238f60608301846119c5565b95945050505050565b7f4f6e6c79206f776e65722063616e206164642074656e646572206d657461646160008201527f7461000000000000000000000000000000000000000000000000000000000000602082015250565b60006123f46022836114b2565b91506123ff82612398565b604082019050919050565b60006020820190508181036000830152612423816123e7565b9050919050565b6000610100820190508181036000830152612445818b6114ed565b90508181036020830152612459818a6114ed565b9050818103604083015261246d81896114ed565b9050818103606083015261248181886114ed565b9050818103608083015261249581876114ed565b905081810360a08301526124a981866114ed565b905081810360c08301526124bd81856114ed565b905081810360e08301526124d181846114ed565b90509998505050505050505050565b7f6f7267616e697a65720000000000000000000000000000000000000000000000600082015250565b6000612516600983611d34565b9150612521826124e0565b600982019050919050565b600061253782612509565b9150819050919050565b600061255461254f84611266565b61124b565b9050828152602081018484840111156125705761256f6111d5565b5b61257b8482856114c3565b509392505050565b600082601f830112612598576125976111d0565b5b81516125a8848260208601612541565b91505092915050565b6000602082840312156125c7576125c66111c6565b5b600082015167ffffffffffffffff8111156125e5576125e46111cb565b5b6125f184828501612583565b91505092915050565b7f4f6e6c79206f7267616e697a657220726f6c652063616e20637265617465207460008201527f656e646572000000000000000000000000000000000000000000000000000000602082015250565b60006126566025836114b2565b9150612661826125fa565b604082019050919050565b6000602082019050818103600083015261268581612649565b9050919050565b600060a08201905081810360008301526126a681886114ed565b90506126b56020830187611498565b81810360408301526126c781866114ed565b90506126d660608301856119c5565b6126e360808301846119c5565b969550505050505056fea26469706673582212203abd74d752a53cff1b1a396e3ac29530cdda2b35ecd147c198d413b129c446e564736f6c634300081c0033",
  "linkReferences": {},
  "deployedLinkReferences": {}
}