{
  "_format": "hh-sol-artifact-1",
  "contractName": "TenderManager",
  "sourceName": "contracts/TenderManager.sol",
  "abi": [
    {
      "anonymous": false,
      "inputs": [
        {
          "indexed": false,
          "internalType": "string",
          "name": "tenderId",
          "type": "string"
        },
        {
          "indexed": false,
          "internalType": "address",
          "name": "participant",
          "type": "address"
        },
        {
          "indexed": false,
          "internalType": "string",
          "name": "name",
          "type": "string"
        },
        {
          "indexed": false,
          "internalType": "string",
          "name": "email",
          "type": "string"
        },
        {
          "indexed": false,
          "internalType": "uint256",
          "name": "timestamp",
          "type": "uint256"
        }
      ],
      "name": "ParticipantAdded",
      "type": "event"
    },
    {
      "anonymous": false,
      "inputs": [
        {
          "indexed": false,
          "internalType": "string",
          "name": "tenderId",
          "type": "string"
        },
        {
          "indexed": false,
          "internalType": "address",
          "name": "participant",
          "type": "address"
        },
        {
          "indexed": false,
          "internalType": "string",
          "name": "name",
          "type": "string"
        },
        {
          "indexed": false,
          "internalType": "string",
          "name": "email",
          "type": "string"
        },
        {
          "indexed": false,
          "internalType": "uint256",
          "name": "timestamp",
          "type": "uint256"
        }
      ],
      "name": "PendingParticipantAdded",
      "type": "event"
    },
    {
      "anonymous": false,
      "inputs": [
        {
          "indexed": false,
          "internalType": "string",
          "name": "tenderId",
          "type": "string"
        },
        {
          "indexed": false,
          "internalType": "address",
          "name": "owner",
          "type": "address"
        },
        {
          "indexed": false,
          "internalType": "string",
          "name": "name",
          "type": "string"
        },
        {
          "indexed": false,
          "internalType": "string",
          "name": "description",
          "type": "string"
        },
        {
          "indexed": false,
          "internalType": "uint256",
          "name": "startDate",
          "type": "uint256"
        },
        {
          "indexed": false,
          "internalType": "uint256",
          "name": "endDate",
          "type": "uint256"
        }
      ],
      "name": "TenderCreated",
      "type": "event"
    },
    {
      "anonymous": false,
      "inputs": [
        {
          "indexed": false,
          "internalType": "string",
          "name": "tenderId",
          "type": "string"
        },
        {
          "indexed": false,
          "internalType": "address",
          "name": "winner",
          "type": "address"
        },
        {
          "indexed": false,
          "internalType": "string",
          "name": "reason",
          "type": "string"
        },
        {
          "indexed": false,
          "internalType": "uint256",
          "name": "timestamp",
          "type": "uint256"
        }
      ],
      "name": "WinnerSelected",
      "type": "event"
    },
    {
      "inputs": [
        {
          "internalType": "string",
          "name": "tenderId",
          "type": "string"
        },
        {
          "internalType": "address",
          "name": "participant",
          "type": "address"
        },
        {
          "internalType": "string",
          "name": "name",
          "type": "string"
        },
        {
          "internalType": "string",
          "name": "email",
          "type": "string"
        },
        {
          "internalType": "uint8",
          "name": "v",
          "type": "uint8"
        },
        {
          "internalType": "bytes32",
          "name": "r",
          "type": "bytes32"
        },
        {
          "internalType": "bytes32",
          "name": "s",
          "type": "bytes32"
        },
        {
          "internalType": "uint256",
          "name": "deadline",
          "type": "uint256"
        }
      ],
      "name": "addParticipant",
      "outputs": [],
      "stateMutability": "nonpayable",
      "type": "function"
    },
    {
      "inputs": [
        {
          "internalType": "string",
          "name": "tenderId",
          "type": "string"
        },
        {
          "internalType": "string",
          "name": "name",
          "type": "string"
        },
        {
          "internalType": "string",
          "name": "email",
          "type": "string"
        },
        {
          "internalType": "address",
          "name": "participant",
          "type": "address"
        }
      ],
      "name": "addPendingParticipant",
      "outputs": [],
      "stateMutability": "nonpayable",
      "type": "function"
    },
    {
      "inputs": [
        {
          "internalType": "uint256",
          "name": "",
          "type": "uint256"
        }
      ],
      "name": "allTenderIds",
      "outputs": [
        {
          "internalType": "string",
          "name": "",
          "type": "string"
        }
      ],
      "stateMutability": "view",
      "type": "function"
    },
    {
      "inputs": [
        {
          "internalType": "string",
          "name": "tenderId",
          "type": "string"
        },
        {
          "internalType": "string",
          "name": "name",
          "type": "string"
        },
        {
          "internalType": "string",
          "name": "description",
          "type": "string"
        },
        {
          "internalType": "uint256",
          "name": "startDate",
          "type": "uint256"
        },
        {
          "internalType": "uint256",
          "name": "endDate",
          "type": "uint256"
        },
        {
          "internalType": "uint8",
          "name": "v",
          "type": "uint8"
        },
        {
          "internalType": "bytes32",
          "name": "r",
          "type": "bytes32"
        },
        {
          "internalType": "bytes32",
          "name": "s",
          "type": "bytes32"
        },
        {
          "internalType": "uint256",
          "name": "deadline",
          "type": "uint256"
        }
      ],
      "name": "createTender",
      "outputs": [],
      "stateMutability": "nonpayable",
      "type": "function"
    },
    {
      "inputs": [
        {
          "internalType": "string",
          "name": "tenderId",
          "type": "string"
        }
      ],
      "name": "getOwner",
      "outputs": [
        {
          "internalType": "address",
          "name": "",
          "type": "address"
        }
      ],
      "stateMutability": "view",
      "type": "function"
    },
    {
      "inputs": [
        {
          "internalType": "string",
          "name": "tenderId",
          "type": "string"
        }
      ],
      "name": "getWinner",
      "outputs": [
        {
          "internalType": "address",
          "name": "",
          "type": "address"
        }
      ],
      "stateMutability": "view",
      "type": "function"
    },
    {
      "inputs": [
        {
          "internalType": "string",
          "name": "tenderId",
          "type": "string"
        },
        {
          "internalType": "address",
          "name": "participant",
          "type": "address"
        }
      ],
      "name": "isParticipant",
      "outputs": [
        {
          "internalType": "bool",
          "name": "",
          "type": "bool"
        }
      ],
      "stateMutability": "view",
      "type": "function"
    },
    {
      "inputs": [
        {
          "internalType": "string",
          "name": "tenderId",
          "type": "string"
        },
        {
          "internalType": "address",
          "name": "participant",
          "type": "address"
        }
      ],
      "name": "isPendingParticipant",
      "outputs": [
        {
          "internalType": "bool",
          "name": "",
          "type": "bool"
        }
      ],
      "stateMutability": "view",
      "type": "function"
    },
    {
      "inputs": [
        {
          "internalType": "address",
          "name": "",
          "type": "address"
        },
        {
          "internalType": "uint256",
          "name": "",
          "type": "uint256"
        }
      ],
      "name": "ownerTenderIds",
      "outputs": [
        {
          "internalType": "string",
          "name": "",
          "type": "string"
        }
      ],
      "stateMutability": "view",
      "type": "function"
    },
    {
      "inputs": [
        {
          "internalType": "string",
          "name": "",
          "type": "string"
        },
        {
          "internalType": "address",
          "name": "",
          "type": "address"
        }
      ],
      "name": "participants",
      "outputs": [
        {
          "internalType": "bool",
          "name": "",
          "type": "bool"
        }
      ],
      "stateMutability": "view",
      "type": "function"
    },
    {
      "inputs": [
        {
          "internalType": "string",
          "name": "",
          "type": "string"
        },
        {
          "internalType": "address",
          "name": "",
          "type": "address"
        }
      ],
      "name": "pendingParticipants",
      "outputs": [
        {
          "internalType": "bool",
          "name": "",
          "type": "bool"
        }
      ],
      "stateMutability": "view",
      "type": "function"
    },
    {
      "inputs": [
        {
          "internalType": "string",
          "name": "",
          "type": "string"
        },
        {
          "internalType": "uint256",
          "name": "",
          "type": "uint256"
        }
      ],
      "name": "pendingTenderParticipants",
      "outputs": [
        {
          "internalType": "address",
          "name": "",
          "type": "address"
        }
      ],
      "stateMutability": "view",
      "type": "function"
    },
    {
      "inputs": [
        {
          "internalType": "string",
          "name": "tenderId",
          "type": "string"
        },
        {
          "internalType": "address",
          "name": "winner",
          "type": "address"
        },
        {
          "internalType": "string",
          "name": "reason",
          "type": "string"
        },
        {
          "internalType": "uint8",
          "name": "v",
          "type": "uint8"
        },
        {
          "internalType": "bytes32",
          "name": "r",
          "type": "bytes32"
        },
        {
          "internalType": "bytes32",
          "name": "s",
          "type": "bytes32"
        },
        {
          "internalType": "uint256",
          "name": "deadline",
          "type": "uint256"
        }
      ],
      "name": "selectWinner",
      "outputs": [],
      "stateMutability": "nonpayable",
      "type": "function"
    },
    {
      "inputs": [
        {
          "internalType": "string",
          "name": "",
          "type": "string"
        },
        {
          "internalType": "uint256",
          "name": "",
          "type": "uint256"
        }
      ],
      "name": "tenderParticipants",
      "outputs": [
        {
          "internalType": "address",
          "name": "",
          "type": "address"
        }
      ],
      "stateMutability": "view",
      "type": "function"
    },
    {
      "inputs": [
        {
          "internalType": "string",
          "name": "",
          "type": "string"
        }
      ],
      "name": "tenders",
      "outputs": [
        {
          "internalType": "address",
          "name": "owner",
          "type": "address"
        },
        {
          "internalType": "uint256",
          "name": "startDate",
          "type": "uint256"
        },
        {
          "internalType": "uint256",
          "name": "endDate",
          "type": "uint256"
        },
        {
          "internalType": "address",
          "name": "winner",
          "type": "address"
        }
      ],
      "stateMutability": "view",
      "type": "function"
    }
  ],
  "bytecode": "0x6080604052348015600f57600080fd5b50612baf8061001f6000396000f3fe608060405234801561001057600080fd5b50600436106100f55760003560e01c8063a119bb4711610097578063deaf492011610066578063deaf4920146102d1578063e36b14be14610301578063e4afd7c01461031d578063fa3b72b01461034d576100f5565b8063a119bb4714610239578063bcdabc0914610255578063d123e00e14610285578063d3d36575146102a1576100f5565b80634aaf4a12116100d35780634aaf4a12146101765780635b80df90146101a6578063810374aa146101d6578063997b737f14610206576100f5565b8063061ff435146100fa57806326c85c3f146101165780634756331e14610146575b600080fd5b610114600480360381019061010f919061199f565b61037d565b005b610130600480360381019061012b9190611a5a565b61060e565b60405161013d9190611ad1565b60405180910390f35b610160600480360381019061015b9190611a5a565b610653565b60405161016d9190611ad1565b60405180910390f35b610190600480360381019061018b9190611aec565b6106c6565b60405161019d9190611b44565b60405180910390f35b6101c060048036038101906101bb9190611aec565b610710565b6040516101cd9190611b44565b60405180910390f35b6101f060048036038101906101eb9190611b95565b61075a565b6040516101fd9190611c41565b60405180910390f35b610220600480360381019061021b9190611aec565b610806565b6040516102309493929190611c72565b60405180910390f35b610253600480360381019061024e9190611d26565b61088c565b005b61026f600480360381019061026a9190611a5a565b610bb2565b60405161027c9190611ad1565b60405180910390f35b61029f600480360381019061029a9190611e00565b610bf7565b005b6102bb60048036038101906102b69190611f0a565b611301565b6040516102c89190611b44565b60405180910390f35b6102eb60048036038101906102e69190611f66565b611365565b6040516102f89190611c41565b60405180910390f35b61031b60048036038101906103169190611fa6565b61141e565b005b61033760048036038101906103329190611a5a565b611710565b6040516103449190611ad1565b60405180910390f35b61036760048036038101906103629190611f0a565b611783565b6040516103749190611b44565b60405180910390f35b600073ffffffffffffffffffffffffffffffffffffffff166000856040516103a59190612100565b908152602001604051809103902060000160009054906101000a900473ffffffffffffffffffffffffffffffffffffffff1673ffffffffffffffffffffffffffffffffffffffff160361042d576040517f08c379a000000000000000000000000000000000000000000000000000000000815260040161042490612163565b60405180910390fd5b60028460405161043d9190612100565b908152602001604051809103902060008273ffffffffffffffffffffffffffffffffffffffff1673ffffffffffffffffffffffffffffffffffffffff16815260200190815260200160002060009054906101000a900460ff16156104d6576040517f08c379a00000000000000000000000000000000000000000000000000000000081526004016104cd906121cf565b60405180910390fd5b60016002856040516104e89190612100565b908152602001604051809103902060008373ffffffffffffffffffffffffffffffffffffffff1673ffffffffffffffffffffffffffffffffffffffff16815260200190815260200160002060006101000a81548160ff02191690831515021790555060068460405161055a9190612100565b9081526020016040518091039020819080600181540180825580915050600190039060005260206000200160009091909190916101000a81548173ffffffffffffffffffffffffffffffffffffffff021916908373ffffffffffffffffffffffffffffffffffffffff1602179055507f635370db1c76cf0e140b75bc6f6ea959deca7b1a80bd5ca62b2e010d19fbaba084828585426040516106009594939291906121ef565b60405180910390a150505050565b6002828051602081018201805184825260208301602085012081835280955050505050506020528060005260406000206000915091509054906101000a900460ff1681565b60006001836040516106659190612100565b908152602001604051809103902060008373ffffffffffffffffffffffffffffffffffffffff1673ffffffffffffffffffffffffffffffffffffffff16815260200190815260200160002060009054906101000a900460ff16905092915050565b600080826040516106d79190612100565b908152602001604051809103902060000160009054906101000a900473ffffffffffffffffffffffffffffffffffffffff169050919050565b600080826040516107219190612100565b908152602001604051809103902060030160009054906101000a900473ffffffffffffffffffffffffffffffffffffffff169050919050565b6003818154811061076a57600080fd5b90600052602060002001600091509050805461078590612286565b80601f01602080910402602001604051908101604052809291908181526020018280546107b190612286565b80156107fe5780601f106107d3576101008083540402835291602001916107fe565b820191906000526020600020905b8154815290600101906020018083116107e157829003601f168201915b505050505081565b6000818051602081018201805184825260208301602085012081835280955050505050506000915090508060000160009054906101000a900473ffffffffffffffffffffffffffffffffffffffff16908060010154908060020154908060030160009054906101000a900473ffffffffffffffffffffffffffffffffffffffff16905084565b6000808860405161089d9190612100565b90815260200160405180910390209050600088836040516020016108c29291906122d8565b6040516020818303038152906040528051906020012090506000816040516020016108ed919061236d565b60405160208183030381529060405280519060200120905060006001828989896040516000815260200160405260405161092a94939291906123b1565b6020604051602081039080840390855afa15801561094c573d6000803e3d6000fd5b5050506020604051035190508360000160009054906101000a900473ffffffffffffffffffffffffffffffffffffffff1673ffffffffffffffffffffffffffffffffffffffff168173ffffffffffffffffffffffffffffffffffffffff16146109ea576040517f08c379a00000000000000000000000000000000000000000000000000000000081526004016109e190612442565b60405180910390fd5b60018b6040516109fa9190612100565b908152602001604051809103902060008b73ffffffffffffffffffffffffffffffffffffffff1673ffffffffffffffffffffffffffffffffffffffff16815260200190815260200160002060009054906101000a900460ff16610a92576040517f08c379a0000000000000000000000000000000000000000000000000000000008152600401610a89906124ae565b60405180910390fd5b600073ffffffffffffffffffffffffffffffffffffffff168460030160009054906101000a900473ffffffffffffffffffffffffffffffffffffffff1673ffffffffffffffffffffffffffffffffffffffff1614610b25576040517f08c379a0000000000000000000000000000000000000000000000000000000008152600401610b1c9061251a565b60405180910390fd5b898460030160006101000a81548173ffffffffffffffffffffffffffffffffffffffff021916908373ffffffffffffffffffffffffffffffffffffffff1602179055507ff3bf7b40460c400bc3d5a864d85342803599eae103856e9878d89f4514e1e53f8b8b8b42604051610b9d949392919061253a565b60405180910390a15050505050505050505050565b6001828051602081018201805184825260208301602085012081835280955050505050506020528060005260406000206000915091509054906101000a900460ff1681565b60008089604051610c089190612100565b90815260200160405180910390206040518060800160405290816000820160009054906101000a900473ffffffffffffffffffffffffffffffffffffffff1673ffffffffffffffffffffffffffffffffffffffff1673ffffffffffffffffffffffffffffffffffffffff16815260200160018201548152602001600282015481526020016003820160009054906101000a900473ffffffffffffffffffffffffffffffffffffffff1673ffffffffffffffffffffffffffffffffffffffff1673ffffffffffffffffffffffffffffffffffffffff16815250509050600073ffffffffffffffffffffffffffffffffffffffff16816000015173ffffffffffffffffffffffffffffffffffffffff1603610d56576040517f08c379a0000000000000000000000000000000000000000000000000000000008152600401610d4d90612163565b60405180910390fd5b60008983604051602001610d6b9291906122d8565b604051602081830303815290604052805190602001209050600081604051602001610d96919061236d565b604051602081830303815290604052805190602001209050600060018289898960405160008152602001604052604051610dd394939291906123b1565b6020604051602081039080840390855afa158015610df5573d6000803e3d6000fd5b505050602060405103519050836000015173ffffffffffffffffffffffffffffffffffffffff168173ffffffffffffffffffffffffffffffffffffffff1614610e73576040517f08c379a0000000000000000000000000000000000000000000000000000000008152600401610e6a906125d9565b60405180910390fd5b8360200151421015610eba576040517f08c379a0000000000000000000000000000000000000000000000000000000008152600401610eb190612645565b60405180910390fd5b8360400151421115610f01576040517f08c379a0000000000000000000000000000000000000000000000000000000008152600401610ef8906126b1565b60405180910390fd5b60018c604051610f119190612100565b908152602001604051809103902060008c73ffffffffffffffffffffffffffffffffffffffff1673ffffffffffffffffffffffffffffffffffffffff16815260200190815260200160002060009054906101000a900460ff1615610faa576040517f08c379a0000000000000000000000000000000000000000000000000000000008152600401610fa19061271d565b60405180910390fd5b6001808d604051610fbb9190612100565b908152602001604051809103902060008d73ffffffffffffffffffffffffffffffffffffffff1673ffffffffffffffffffffffffffffffffffffffff16815260200190815260200160002060006101000a81548160ff021916908315150217905550600060028d60405161102f9190612100565b908152602001604051809103902060008d73ffffffffffffffffffffffffffffffffffffffff1673ffffffffffffffffffffffffffffffffffffffff16815260200190815260200160002060006101000a81548160ff02191690831515021790555060058c6040516110a19190612100565b90815260200160405180910390208b9080600181540180825580915050600190039060005260206000200160009091909190916101000a81548173ffffffffffffffffffffffffffffffffffffffff021916908373ffffffffffffffffffffffffffffffffffffffff160217905550600060068d6040516111229190612100565b9081526020016040518091039020905060005b81805490508110156112b2578c73ffffffffffffffffffffffffffffffffffffffff1682828154811061116b5761116a61273d565b5b9060005260206000200160009054906101000a900473ffffffffffffffffffffffffffffffffffffffff1673ffffffffffffffffffffffffffffffffffffffff16036112a55781600183805490506111c3919061279b565b815481106111d4576111d361273d565b5b9060005260206000200160009054906101000a900473ffffffffffffffffffffffffffffffffffffffff168282815481106112125761121161273d565b5b9060005260206000200160006101000a81548173ffffffffffffffffffffffffffffffffffffffff021916908373ffffffffffffffffffffffffffffffffffffffff1602179055508180548061126b5761126a6127cf565b5b6001900381819060005260206000200160006101000a81549073ffffffffffffffffffffffffffffffffffffffff021916905590556112b2565b8080600101915050611135565b507f2990cac7ffb717bbbe6ba55e41a7887bec681db6e6bce83cedd76385d2d6d2538d8d8d8d426040516112ea9594939291906121ef565b60405180910390a150505050505050505050505050565b600682805160208101820180518482526020830160208501208183528095505050505050818154811061133357600080fd5b906000526020600020016000915091509054906101000a900473ffffffffffffffffffffffffffffffffffffffff1681565b6004602052816000526040600020818154811061138157600080fd5b9060005260206000200160009150915050805461139d90612286565b80601f01602080910402602001604051908101604052809291908181526020018280546113c990612286565b80156114165780601f106113eb57610100808354040283529160200191611416565b820191906000526020600020905b8154815290600101906020018083116113f957829003601f168201915b505050505081565b848610611460576040517f08c379a00000000000000000000000000000000000000000000000000000000081526004016114579061284a565b60405180910390fd5b600081604051602001611473919061286a565b60405160208183030381529060405280519060200120905060008160405160200161149e919061236d565b6040516020818303038152906040528051906020012090506000600182888888604051600081526020016040526040516114db94939291906123b1565b6020604051602081039080840390855afa1580156114fd573d6000803e3d6000fd5b50505060206040510351905060405180608001604052808273ffffffffffffffffffffffffffffffffffffffff1681526020018a8152602001898152602001600073ffffffffffffffffffffffffffffffffffffffff1681525060008d6040516115679190612100565b908152602001604051809103902060008201518160000160006101000a81548173ffffffffffffffffffffffffffffffffffffffff021916908373ffffffffffffffffffffffffffffffffffffffff160217905550602082015181600101556040820151816002015560608201518160030160006101000a81548173ffffffffffffffffffffffffffffffffffffffff021916908373ffffffffffffffffffffffffffffffffffffffff16021790555090505060038c90806001815401808255809150506001900390600052602060002001600090919091909150908161164e9190612a31565b50600460008273ffffffffffffffffffffffffffffffffffffffff1673ffffffffffffffffffffffffffffffffffffffff1681526020019081526020016000208c9080600181540180825580915050600190039060005260206000200160009091909190915090816116c09190612a31565b507f5608be3d488ea8e638dd732689e51705b3242a41fecefaab69657793577064108c828d8d8d8d6040516116fa96959493929190612b03565b60405180910390a1505050505050505050505050565b60006002836040516117229190612100565b908152602001604051809103902060008373ffffffffffffffffffffffffffffffffffffffff1673ffffffffffffffffffffffffffffffffffffffff16815260200190815260200160002060009054906101000a900460ff16905092915050565b60058280516020810182018051848252602083016020850120818352809550505050505081815481106117b557600080fd5b906000526020600020016000915091509054906101000a900473ffffffffffffffffffffffffffffffffffffffff1681565b6000604051905090565b600080fd5b600080fd5b600080fd5b600080fd5b6000601f19601f8301169050919050565b7f4e487b7100000000000000000000000000000000000000000000000000000000600052604160045260246000fd5b61184e82611805565b810181811067ffffffffffffffff8211171561186d5761186c611816565b5b80604052505050565b60006118806117e7565b905061188c8282611845565b919050565b600067ffffffffffffffff8211156118ac576118ab611816565b5b6118b582611805565b9050602081019050919050565b82818337600083830152505050565b60006118e46118df84611891565b611876565b905082815260208101848484011115611900576118ff611800565b5b61190b8482856118c2565b509392505050565b600082601f830112611928576119276117fb565b5b81356119388482602086016118d1565b91505092915050565b600073ffffffffffffffffffffffffffffffffffffffff82169050919050565b600061196c82611941565b9050919050565b61197c81611961565b811461198757600080fd5b50565b60008135905061199981611973565b92915050565b600080600080608085870312156119b9576119b86117f1565b5b600085013567ffffffffffffffff8111156119d7576119d66117f6565b5b6119e387828801611913565b945050602085013567ffffffffffffffff811115611a0457611a036117f6565b5b611a1087828801611913565b935050604085013567ffffffffffffffff811115611a3157611a306117f6565b5b611a3d87828801611913565b9250506060611a4e8782880161198a565b91505092959194509250565b60008060408385031215611a7157611a706117f1565b5b600083013567ffffffffffffffff811115611a8f57611a8e6117f6565b5b611a9b85828601611913565b9250506020611aac8582860161198a565b9150509250929050565b60008115159050919050565b611acb81611ab6565b82525050565b6000602082019050611ae66000830184611ac2565b92915050565b600060208284031215611b0257611b016117f1565b5b600082013567ffffffffffffffff811115611b2057611b1f6117f6565b5b611b2c84828501611913565b91505092915050565b611b3e81611961565b82525050565b6000602082019050611b596000830184611b35565b92915050565b6000819050919050565b611b7281611b5f565b8114611b7d57600080fd5b50565b600081359050611b8f81611b69565b92915050565b600060208284031215611bab57611baa6117f1565b5b6000611bb984828501611b80565b91505092915050565b600081519050919050565b600082825260208201905092915050565b60005b83811015611bfc578082015181840152602081019050611be1565b60008484015250505050565b6000611c1382611bc2565b611c1d8185611bcd565b9350611c2d818560208601611bde565b611c3681611805565b840191505092915050565b60006020820190508181036000830152611c5b8184611c08565b905092915050565b611c6c81611b5f565b82525050565b6000608082019050611c876000830187611b35565b611c946020830186611c63565b611ca16040830185611c63565b611cae6060830184611b35565b95945050505050565b600060ff82169050919050565b611ccd81611cb7565b8114611cd857600080fd5b50565b600081359050611cea81611cc4565b92915050565b6000819050919050565b611d0381611cf0565b8114611d0e57600080fd5b50565b600081359050611d2081611cfa565b92915050565b600080600080600080600060e0888a031215611d4557611d446117f1565b5b600088013567ffffffffffffffff811115611d6357611d626117f6565b5b611d6f8a828b01611913565b9750506020611d808a828b0161198a565b965050604088013567ffffffffffffffff811115611da157611da06117f6565b5b611dad8a828b01611913565b9550506060611dbe8a828b01611cdb565b9450506080611dcf8a828b01611d11565b93505060a0611de08a828b01611d11565b92505060c0611df18a828b01611b80565b91505092959891949750929550565b600080600080600080600080610100898b031215611e2157611e206117f1565b5b600089013567ffffffffffffffff811115611e3f57611e3e6117f6565b5b611e4b8b828c01611913565b9850506020611e5c8b828c0161198a565b975050604089013567ffffffffffffffff811115611e7d57611e7c6117f6565b5b611e898b828c01611913565b965050606089013567ffffffffffffffff811115611eaa57611ea96117f6565b5b611eb68b828c01611913565b9550506080611ec78b828c01611cdb565b94505060a0611ed88b828c01611d11565b93505060c0611ee98b828c01611d11565b92505060e0611efa8b828c01611b80565b9150509295985092959890939650565b60008060408385031215611f2157611f206117f1565b5b600083013567ffffffffffffffff811115611f3f57611f3e6117f6565b5b611f4b85828601611913565b9250506020611f5c85828601611b80565b9150509250929050565b60008060408385031215611f7d57611f7c6117f1565b5b6000611f8b8582860161198a565b9250506020611f9c85828601611b80565b9150509250929050565b60008060008060008060008060006101208a8c031215611fc957611fc86117f1565b5b60008a013567ffffffffffffffff811115611fe757611fe66117f6565b5b611ff38c828d01611913565b99505060208a013567ffffffffffffffff811115612014576120136117f6565b5b6120208c828d01611913565b98505060408a013567ffffffffffffffff811115612041576120406117f6565b5b61204d8c828d01611913565b975050606061205e8c828d01611b80565b965050608061206f8c828d01611b80565b95505060a06120808c828d01611cdb565b94505060c06120918c828d01611d11565b93505060e06120a28c828d01611d11565b9250506101006120b48c828d01611b80565b9150509295985092959850929598565b600081905092915050565b60006120da82611bc2565b6120e481856120c4565b93506120f4818560208601611bde565b80840191505092915050565b600061210c82846120cf565b915081905092915050565b7f54656e64657220646f6573206e6f742065786973740000000000000000000000600082015250565b600061214d601583611bcd565b915061215882612117565b602082019050919050565b6000602082019050818103600083015261217c81612140565b9050919050565b7f416c7265616479206d61726b65642061732070656e64696e6700000000000000600082015250565b60006121b9601983611bcd565b91506121c482612183565b602082019050919050565b600060208201905081810360008301526121e8816121ac565b9050919050565b600060a08201905081810360008301526122098188611c08565b90506122186020830187611b35565b818103604083015261222a8186611c08565b9050818103606083015261223e8185611c08565b905061224d6080830184611c63565b9695505050505050565b7f4e487b7100000000000000000000000000000000000000000000000000000000600052602260045260246000fd5b6000600282049050600182168061229e57607f821691505b6020821081036122b1576122b0612257565b5b50919050565b6000819050919050565b6122d26122cd82611b5f565b6122b7565b82525050565b60006122e482856120cf565b91506122f082846122c1565b6020820191508190509392505050565b7f19457468657265756d205369676e6564204d6573736167653a0a333200000000600082015250565b6000612336601c836120c4565b915061234182612300565b601c82019050919050565b6000819050919050565b61236761236282611cf0565b61234c565b82525050565b600061237882612329565b91506123848284612356565b60208201915081905092915050565b61239c81611cf0565b82525050565b6123ab81611cb7565b82525050565b60006080820190506123c66000830187612393565b6123d360208301866123a2565b6123e06040830185612393565b6123ed6060830184612393565b95945050505050565b7f4f6e6c79206f776e65722063616e2073656c6563742077696e6e657200000000600082015250565b600061242c601c83611bcd565b9150612437826123f6565b602082019050919050565b6000602082019050818103600083015261245b8161241f565b9050919050565b7f4e6f742061207061727469636970616e74000000000000000000000000000000600082015250565b6000612498601183611bcd565b91506124a382612462565b602082019050919050565b600060208201905081810360008301526124c78161248b565b9050919050565b7f57696e6e657220616c72656164792073656c6563746564000000000000000000600082015250565b6000612504601783611bcd565b915061250f826124ce565b602082019050919050565b60006020820190508181036000830152612533816124f7565b9050919050565b600060808201905081810360008301526125548187611c08565b90506125636020830186611b35565b81810360408301526125758185611c08565b90506125846060830184611c63565b95945050505050565b7f496e76616c6964207369676e6174757265000000000000000000000000000000600082015250565b60006125c3601183611bcd565b91506125ce8261258d565b602082019050919050565b600060208201905081810360008301526125f2816125b6565b9050919050565b7f54656e646572206e6f7420737461727465640000000000000000000000000000600082015250565b600061262f601283611bcd565b915061263a826125f9565b602082019050919050565b6000602082019050818103600083015261265e81612622565b9050919050565b7f54656e64657220656e6465640000000000000000000000000000000000000000600082015250565b600061269b600c83611bcd565b91506126a682612665565b602082019050919050565b600060208201905081810360008301526126ca8161268e565b9050919050565b7f416c72656164792061207061727469636970616e740000000000000000000000600082015250565b6000612707601583611bcd565b9150612712826126d1565b602082019050919050565b60006020820190508181036000830152612736816126fa565b9050919050565b7f4e487b7100000000000000000000000000000000000000000000000000000000600052603260045260246000fd5b7f4e487b7100000000000000000000000000000000000000000000000000000000600052601160045260246000fd5b60006127a682611b5f565b91506127b183611b5f565b92508282039050818111156127c9576127c861276c565b5b92915050565b7f4e487b7100000000000000000000000000000000000000000000000000000000600052603160045260246000fd5b7f496e76616c696420646174657300000000000000000000000000000000000000600082015250565b6000612834600d83611bcd565b915061283f826127fe565b602082019050919050565b6000602082019050818103600083015261286381612827565b9050919050565b600061287682846122c1565b60208201915081905092915050565b60008190508160005260206000209050919050565b60006020601f8301049050919050565b600082821b905092915050565b6000600883026128e77fffffffffffffffffffffffffffffffffffffffffffffffffffffffffffffffff826128aa565b6128f186836128aa565b95508019841693508086168417925050509392505050565b6000819050919050565b600061292e61292961292484611b5f565b612909565b611b5f565b9050919050565b6000819050919050565b61294883612913565b61295c61295482612935565b8484546128b7565b825550505050565b600090565b612971612964565b61297c81848461293f565b505050565b5b818110156129a057612995600082612969565b600181019050612982565b5050565b601f8211156129e5576129b681612885565b6129bf8461289a565b810160208510156129ce578190505b6129e26129da8561289a565b830182612981565b50505b505050565b600082821c905092915050565b6000612a08600019846008026129ea565b1980831691505092915050565b6000612a2183836129f7565b9150826002028217905092915050565b612a3a82611bc2565b67ffffffffffffffff811115612a5357612a52611816565b5b612a5d8254612286565b612a688282856129a4565b600060209050601f831160018114612a9b5760008415612a89578287015190505b612a938582612a15565b865550612afb565b601f198416612aa986612885565b60005b82811015612ad157848901518255600182019150602085019450602081019050612aac565b86831015612aee5784890151612aea601f8916826129f7565b8355505b6001600288020188555050505b505050505050565b600060c0820190508181036000830152612b1d8189611c08565b9050612b2c6020830188611b35565b8181036040830152612b3e8187611c08565b90508181036060830152612b528186611c08565b9050612b616080830185611c63565b612b6e60a0830184611c63565b97965050505050505056fea2646970667358221220fa33e7f530048b4341176f5cb75df5bcac3d709dcc67660b96336ae15b44d69764736f6c634300081c0033",
  "linkReferences": {},
  "deployedLinkReferences": {}
}