{
  "_format": "hh-sol-artifact-1",
  "contractName": "TenderManager",
  "sourceName": "contracts/TenderManager.sol",
  "abi": [
    {
      "inputs": [
        {
          "internalType": "address",
          "name": "publicKeyStorageAddress",
          "type": "address"
        }
      ],
      "stateMutability": "nonpayable",
      "type": "constructor"
    },
    {
      "anonymous": false,
      "inputs": [
        {
          "indexed": false,
          "internalType": "string",
          "name": "tenderId",
          "type": "string"
        },
        {
          "indexed": false,
          "internalType": "address",
          "name": "owner",
          "type": "address"
        },
        {
          "indexed": false,
          "internalType": "string",
          "name": "name",
          "type": "string"
        },
        {
          "indexed": false,
          "internalType": "uint256",
          "name": "startDate",
          "type": "uint256"
        },
        {
          "indexed": false,
          "internalType": "uint256",
          "name": "endDate",
          "type": "uint256"
        }
      ],
      "name": "TenderCreated",
      "type": "event"
    },
    {
      "anonymous": false,
      "inputs": [
        {
          "indexed": false,
          "internalType": "string",
          "name": "tenderId",
          "type": "string"
        },
        {
          "indexed": false,
          "internalType": "string",
          "name": "tenderName",
          "type": "string"
        },
        {
          "indexed": false,
          "internalType": "uint256",
          "name": "tenderStartDate",
          "type": "uint256"
        },
        {
          "indexed": false,
          "internalType": "uint256",
          "name": "tenderEndDate",
          "type": "uint256"
        },
        {
          "indexed": false,
          "internalType": "address",
          "name": "thirdParty",
          "type": "address"
        }
      ],
      "name": "ThirdPartyParticipantAdded",
      "type": "event"
    },
    {
      "anonymous": false,
      "inputs": [
        {
          "indexed": false,
          "internalType": "string",
          "name": "tenderId",
          "type": "string"
        },
        {
          "indexed": false,
          "internalType": "address",
          "name": "winner",
          "type": "address"
        },
        {
          "indexed": false,
          "internalType": "string",
          "name": "reason",
          "type": "string"
        },
        {
          "indexed": false,
          "internalType": "uint256",
          "name": "timestamp",
          "type": "uint256"
        }
      ],
      "name": "WinnerSelected",
      "type": "event"
    },
    {
      "inputs": [
        {
          "internalType": "string",
          "name": "tenderId",
          "type": "string"
        },
        {
          "internalType": "address",
          "name": "thirdParty",
          "type": "address"
        }
      ],
      "name": "addThirdPartyParticipant",
      "outputs": [],
      "stateMutability": "nonpayable",
      "type": "function"
    },
    {
      "inputs": [
        {
          "internalType": "string",
          "name": "tenderId",
          "type": "string"
        },
        {
          "internalType": "string",
          "name": "name",
          "type": "string"
        },
        {
          "internalType": "uint256",
          "name": "startDate",
          "type": "uint256"
        },
        {
          "internalType": "uint256",
          "name": "endDate",
          "type": "uint256"
        }
      ],
      "name": "createTender",
      "outputs": [],
      "stateMutability": "nonpayable",
      "type": "function"
    },
    {
      "inputs": [
        {
          "internalType": "string",
          "name": "tenderId",
          "type": "string"
        }
      ],
      "name": "getOwner",
      "outputs": [
        {
          "internalType": "address",
          "name": "",
          "type": "address"
        }
      ],
      "stateMutability": "view",
      "type": "function"
    },
    {
      "inputs": [
        {
          "internalType": "string",
          "name": "tenderId",
          "type": "string"
        }
      ],
      "name": "getParticipants",
      "outputs": [
        {
          "components": [
            {
              "internalType": "address",
              "name": "participantAddress",
              "type": "address"
            },
            {
              "internalType": "string",
              "name": "name",
              "type": "string"
            }
          ],
          "internalType": "struct TenderManager.Participant[]",
          "name": "",
          "type": "tuple[]"
        }
      ],
      "stateMutability": "view",
      "type": "function"
    },
    {
      "inputs": [
        {
          "internalType": "string",
          "name": "tenderId",
          "type": "string"
        }
      ],
      "name": "getThirdPartyParticipantsArray",
      "outputs": [
        {
          "internalType": "address[]",
          "name": "",
          "type": "address[]"
        }
      ],
      "stateMutability": "view",
      "type": "function"
    },
    {
      "inputs": [
        {
          "internalType": "string",
          "name": "tenderId",
          "type": "string"
        }
      ],
      "name": "getWinner",
      "outputs": [
        {
          "internalType": "address",
          "name": "",
          "type": "address"
        }
      ],
      "stateMutability": "view",
      "type": "function"
    },
    {
      "inputs": [
        {
          "internalType": "string",
          "name": "tenderId",
          "type": "string"
        },
        {
          "internalType": "address",
          "name": "thirdParty",
          "type": "address"
        }
      ],
      "name": "isThirdPartyParticipant",
      "outputs": [
        {
          "internalType": "bool",
          "name": "",
          "type": "bool"
        }
      ],
      "stateMutability": "view",
      "type": "function"
    },
    {
      "inputs": [
        {
          "internalType": "string",
          "name": "",
          "type": "string"
        },
        {
          "internalType": "uint256",
          "name": "",
          "type": "uint256"
        }
      ],
      "name": "participants",
      "outputs": [
        {
          "internalType": "address",
          "name": "participantAddress",
          "type": "address"
        },
        {
          "internalType": "string",
          "name": "name",
          "type": "string"
        }
      ],
      "stateMutability": "view",
      "type": "function"
    },
    {
      "inputs": [],
      "name": "publicKeyStorage",
      "outputs": [
        {
          "internalType": "contract IPublicKeyStorage",
          "name": "",
          "type": "address"
        }
      ],
      "stateMutability": "view",
      "type": "function"
    },
    {
      "inputs": [
        {
          "internalType": "string",
          "name": "tenderId",
          "type": "string"
        },
        {
          "internalType": "address",
          "name": "winner",
          "type": "address"
        },
        {
          "internalType": "string",
          "name": "reason",
          "type": "string"
        },
        {
          "components": [
            {
              "internalType": "address",
              "name": "participantAddress",
              "type": "address"
            },
            {
              "internalType": "string",
              "name": "name",
              "type": "string"
            }
          ],
          "internalType": "struct TenderManager.Participant[]",
          "name": "participantsList",
          "type": "tuple[]"
        }
      ],
      "name": "selectWinner",
      "outputs": [],
      "stateMutability": "nonpayable",
      "type": "function"
    },
    {
      "inputs": [
        {
          "internalType": "string",
          "name": "",
          "type": "string"
        }
      ],
      "name": "tenders",
      "outputs": [
        {
          "internalType": "address",
          "name": "owner",
          "type": "address"
        },
        {
          "internalType": "string",
          "name": "name",
          "type": "string"
        },
        {
          "internalType": "uint256",
          "name": "startDate",
          "type": "uint256"
        },
        {
          "internalType": "uint256",
          "name": "endDate",
          "type": "uint256"
        },
        {
          "internalType": "address",
          "name": "winner",
          "type": "address"
        }
      ],
      "stateMutability": "view",
      "type": "function"
    },
    {
      "inputs": [
        {
          "internalType": "string",
          "name": "",
          "type": "string"
        },
        {
          "internalType": "address",
          "name": "",
          "type": "address"
        }
      ],
      "name": "thirdPartyParticipants",
      "outputs": [
        {
          "internalType": "bool",
          "name": "",
          "type": "bool"
        }
      ],
      "stateMutability": "view",
      "type": "function"
    }
  ],
  "bytecode": "0x608060405234801561001057600080fd5b50604051612421380380612421833981810160405281019061003291906100db565b806000806101000a81548173ffffffffffffffffffffffffffffffffffffffff021916908373ffffffffffffffffffffffffffffffffffffffff16021790555050610108565b600080fd5b600073ffffffffffffffffffffffffffffffffffffffff82169050919050565b60006100a88261007d565b9050919050565b6100b88161009d565b81146100c357600080fd5b50565b6000815190506100d5816100af565b92915050565b6000602082840312156100f1576100f0610078565b5b60006100ff848285016100c6565b91505092915050565b61230a806101176000396000f3fe608060405234801561001057600080fd5b50600436106100b45760003560e01c80636dbfdf25116100715780636dbfdf25146101c65780637e90def7146101e457806390678b5a14610214578063997b737f146102305780639fe22aa614610264578063d927ee8814610294576100b4565b806306c0398a146100b95780631b2b9fb5146100e957806325d32088146101055780634aaf4a121461013657806351ad845f146101665780635b80df9014610196575b600080fd5b6100d360048036038101906100ce9190611239565b6102b0565b6040516100e091906112b0565b60405180910390f35b61010360048036038101906100fe9190611239565b6102f5565b005b61011f600480360381019061011a9190611301565b6105eb565b60405161012d9291906113eb565b60405180910390f35b610150600480360381019061014b919061141b565b6106ea565b60405161015d9190611464565b60405180910390f35b610180600480360381019061017b9190611239565b610735565b60405161018d91906112b0565b60405180910390f35b6101b060048036038101906101ab919061141b565b6107a8565b6040516101bd9190611464565b60405180910390f35b6101ce6107f3565b6040516101db91906114de565b60405180910390f35b6101fe60048036038101906101f9919061141b565b610817565b60405161020b9190611651565b60405180910390f35b61022e600480360381019061022991906117cf565b61097c565b005b61024a6004803603810190610245919061141b565b610c25565b60405161025b959493929190611899565b60405180910390f35b61027e6004803603810190610279919061141b565b610d39565b60405161028b91906119a2565b60405180910390f35b6102ae60048036038101906102a991906119c4565b610de5565b005b6002828051602081018201805184825260208301602085012081835280955050505050506020528060005260406000206000915091509054906101000a900460ff1681565b60006001836040516103079190611a9f565b908152602001604051809103902090508060000160009054906101000a900473ffffffffffffffffffffffffffffffffffffffff1673ffffffffffffffffffffffffffffffffffffffff163373ffffffffffffffffffffffffffffffffffffffff16146103a9576040517f08c379a00000000000000000000000000000000000000000000000000000000081526004016103a090611b28565b60405180910390fd5b6002836040516103b99190611a9f565b908152602001604051809103902060008373ffffffffffffffffffffffffffffffffffffffff1673ffffffffffffffffffffffffffffffffffffffff16815260200190815260200160002060009054906101000a900460ff1615610452576040517f08c379a000000000000000000000000000000000000000000000000000000000815260040161044990611b94565b60405180910390fd5b60016002846040516104649190611a9f565b908152602001604051809103902060008473ffffffffffffffffffffffffffffffffffffffff1673ffffffffffffffffffffffffffffffffffffffff16815260200190815260200160002060006101000a81548160ff0219169083151502179055506003836040516104d69190611a9f565b9081526020016040518091039020829080600181540180825580915050600190039060005260206000200160009091909190916101000a81548173ffffffffffffffffffffffffffffffffffffffff021916908373ffffffffffffffffffffffffffffffffffffffff1602179055507f40443e05560d75a42fe117bc05a8c160ed6e847c7481b62ab246c2eaae4c9080836001856040516105779190611a9f565b90815260200160405180910390206001016001866040516105989190611a9f565b9081526020016040518091039020600201546001876040516105ba9190611a9f565b908152602001604051809103902060030154866040516105de959493929190611cad565b60405180910390a1505050565b600482805160208101820180518482526020830160208501208183528095505050505050818154811061061d57600080fd5b9060005260206000209060020201600091509150508060000160009054906101000a900473ffffffffffffffffffffffffffffffffffffffff169080600101805461066790611be3565b80601f016020809104026020016040519081016040528092919081815260200182805461069390611be3565b80156106e05780601f106106b5576101008083540402835291602001916106e0565b820191906000526020600020905b8154815290600101906020018083116106c357829003601f168201915b5050505050905082565b60006001826040516106fc9190611a9f565b908152602001604051809103902060000160009054906101000a900473ffffffffffffffffffffffffffffffffffffffff169050919050565b60006002836040516107479190611a9f565b908152602001604051809103902060008373ffffffffffffffffffffffffffffffffffffffff1673ffffffffffffffffffffffffffffffffffffffff16815260200190815260200160002060009054906101000a900460ff16905092915050565b60006001826040516107ba9190611a9f565b908152602001604051809103902060040160009054906101000a900473ffffffffffffffffffffffffffffffffffffffff169050919050565b60008054906101000a900473ffffffffffffffffffffffffffffffffffffffff1681565b60606004826040516108299190611a9f565b9081526020016040518091039020805480602002602001604051908101604052809291908181526020016000905b8282101561097157838290600052602060002090600202016040518060400160405290816000820160009054906101000a900473ffffffffffffffffffffffffffffffffffffffff1673ffffffffffffffffffffffffffffffffffffffff1673ffffffffffffffffffffffffffffffffffffffff1681526020016001820180546108e090611be3565b80601f016020809104026020016040519081016040528092919081815260200182805461090c90611be3565b80156109595780601f1061092e57610100808354040283529160200191610959565b820191906000526020600020905b81548152906001019060200180831161093c57829003601f168201915b50505050508152505081526020019060010190610857565b505050509050919050565b600060018560405161098e9190611a9f565b908152602001604051809103902090508060000160009054906101000a900473ffffffffffffffffffffffffffffffffffffffff1673ffffffffffffffffffffffffffffffffffffffff163373ffffffffffffffffffffffffffffffffffffffff1614610a30576040517f08c379a0000000000000000000000000000000000000000000000000000000008152600401610a2790611d5a565b60405180910390fd5b600073ffffffffffffffffffffffffffffffffffffffff168160040160009054906101000a900473ffffffffffffffffffffffffffffffffffffffff1673ffffffffffffffffffffffffffffffffffffffff1614610ac3576040517f08c379a0000000000000000000000000000000000000000000000000000000008152600401610aba90611dc6565b60405180910390fd5b838160040160006101000a81548173ffffffffffffffffffffffffffffffffffffffff021916908373ffffffffffffffffffffffffffffffffffffffff16021790555060005b8251811015610be057600486604051610b229190611a9f565b9081526020016040518091039020838281518110610b4357610b42611de6565b5b6020026020010151908060018154018082558091505060019003906000526020600020906002020160009091909190915060008201518160000160006101000a81548173ffffffffffffffffffffffffffffffffffffffff021916908373ffffffffffffffffffffffffffffffffffffffff1602179055506020820151816001019081610bd09190611fa2565b5050508080600101915050610b09565b507ff3bf7b40460c400bc3d5a864d85342803599eae103856e9878d89f4514e1e53f85858542604051610c169493929190612074565b60405180910390a15050505050565b6001818051602081018201805184825260208301602085012081835280955050505050506000915090508060000160009054906101000a900473ffffffffffffffffffffffffffffffffffffffff1690806001018054610c8490611be3565b80601f0160208091040260200160405190810160405280929190818152602001828054610cb090611be3565b8015610cfd5780601f10610cd257610100808354040283529160200191610cfd565b820191906000526020600020905b815481529060010190602001808311610ce057829003601f168201915b5050505050908060020154908060030154908060040160009054906101000a900473ffffffffffffffffffffffffffffffffffffffff16905085565b6060600382604051610d4b9190611a9f565b9081526020016040518091039020805480602002602001604051908101604052809291908181526020018280548015610dd957602002820191906000526020600020905b8160009054906101000a900473ffffffffffffffffffffffffffffffffffffffff1673ffffffffffffffffffffffffffffffffffffffff1681526020019060010190808311610d8f575b50505050509050919050565b604051602001610df490612113565b6040516020818303038152906040528051906020012060008054906101000a900473ffffffffffffffffffffffffffffffffffffffff1673ffffffffffffffffffffffffffffffffffffffff166344276733336040518263ffffffff1660e01b8152600401610e639190611464565b600060405180830381865afa158015610e80573d6000803e3d6000fd5b505050506040513d6000823e3d601f19601f82011682018060405250810190610ea99190612198565b604051602001610eb99190611a9f565b6040516020818303038152906040528051906020012014610f0f576040517f08c379a0000000000000000000000000000000000000000000000000000000008152600401610f0690612253565b60405180910390fd5b6040518060a001604052803373ffffffffffffffffffffffffffffffffffffffff168152602001848152602001838152602001828152602001600073ffffffffffffffffffffffffffffffffffffffff16815250600185604051610f739190611a9f565b908152602001604051809103902060008201518160000160006101000a81548173ffffffffffffffffffffffffffffffffffffffff021916908373ffffffffffffffffffffffffffffffffffffffff1602179055506020820151816001019081610fdd9190611fa2565b50604082015181600201556060820151816003015560808201518160040160006101000a81548173ffffffffffffffffffffffffffffffffffffffff021916908373ffffffffffffffffffffffffffffffffffffffff1602179055509050507f53f998f14d7ec3105c9fb67bc16484812950aebe822711e3ba3200901532faf68433858585604051611073959493929190612273565b60405180910390a150505050565b6000604051905090565b600080fd5b600080fd5b600080fd5b600080fd5b6000601f19601f8301169050919050565b7f4e487b7100000000000000000000000000000000000000000000000000000000600052604160045260246000fd5b6110e88261109f565b810181811067ffffffffffffffff82111715611107576111066110b0565b5b80604052505050565b600061111a611081565b905061112682826110df565b919050565b600067ffffffffffffffff821115611146576111456110b0565b5b61114f8261109f565b9050602081019050919050565b82818337600083830152505050565b600061117e6111798461112b565b611110565b90508281526020810184848401111561119a5761119961109a565b5b6111a584828561115c565b509392505050565b600082601f8301126111c2576111c1611095565b5b81356111d284826020860161116b565b91505092915050565b600073ffffffffffffffffffffffffffffffffffffffff82169050919050565b6000611206826111db565b9050919050565b611216816111fb565b811461122157600080fd5b50565b6000813590506112338161120d565b92915050565b600080604083850312156112505761124f61108b565b5b600083013567ffffffffffffffff81111561126e5761126d611090565b5b61127a858286016111ad565b925050602061128b85828601611224565b9150509250929050565b60008115159050919050565b6112aa81611295565b82525050565b60006020820190506112c560008301846112a1565b92915050565b6000819050919050565b6112de816112cb565b81146112e957600080fd5b50565b6000813590506112fb816112d5565b92915050565b600080604083850312156113185761131761108b565b5b600083013567ffffffffffffffff81111561133657611335611090565b5b611342858286016111ad565b9250506020611353858286016112ec565b9150509250929050565b611366816111fb565b82525050565b600081519050919050565b600082825260208201905092915050565b60005b838110156113a657808201518184015260208101905061138b565b60008484015250505050565b60006113bd8261136c565b6113c78185611377565b93506113d7818560208601611388565b6113e08161109f565b840191505092915050565b6000604082019050611400600083018561135d565b818103602083015261141281846113b2565b90509392505050565b6000602082840312156114315761143061108b565b5b600082013567ffffffffffffffff81111561144f5761144e611090565b5b61145b848285016111ad565b91505092915050565b6000602082019050611479600083018461135d565b92915050565b6000819050919050565b60006114a461149f61149a846111db565b61147f565b6111db565b9050919050565b60006114b682611489565b9050919050565b60006114c8826114ab565b9050919050565b6114d8816114bd565b82525050565b60006020820190506114f360008301846114cf565b92915050565b600081519050919050565b600082825260208201905092915050565b6000819050602082019050919050565b61152e816111fb565b82525050565b600082825260208201905092915050565b60006115508261136c565b61155a8185611534565b935061156a818560208601611388565b6115738161109f565b840191505092915050565b60006040830160008301516115966000860182611525565b50602083015184820360208601526115ae8282611545565b9150508091505092915050565b60006115c7838361157e565b905092915050565b6000602082019050919050565b60006115e7826114f9565b6115f18185611504565b93508360208202850161160385611515565b8060005b8581101561163f578484038952815161162085826115bb565b945061162b836115cf565b925060208a01995050600181019050611607565b50829750879550505050505092915050565b6000602082019050818103600083015261166b81846115dc565b905092915050565b600067ffffffffffffffff82111561168e5761168d6110b0565b5b602082029050602081019050919050565b600080fd5b600080fd5b600080fd5b6000604082840312156116c4576116c36116a4565b5b6116ce6040611110565b905060006116de84828501611224565b600083015250602082013567ffffffffffffffff811115611702576117016116a9565b5b61170e848285016111ad565b60208301525092915050565b600061172d61172884611673565b611110565b905080838252602082019050602084028301858111156117505761174f61169f565b5b835b8181101561179757803567ffffffffffffffff81111561177557611774611095565b5b80860161178289826116ae565b85526020850194505050602081019050611752565b5050509392505050565b600082601f8301126117b6576117b5611095565b5b81356117c684826020860161171a565b91505092915050565b600080600080608085870312156117e9576117e861108b565b5b600085013567ffffffffffffffff81111561180757611806611090565b5b611813878288016111ad565b945050602061182487828801611224565b935050604085013567ffffffffffffffff81111561184557611844611090565b5b611851878288016111ad565b925050606085013567ffffffffffffffff81111561187257611871611090565b5b61187e878288016117a1565b91505092959194509250565b611893816112cb565b82525050565b600060a0820190506118ae600083018861135d565b81810360208301526118c081876113b2565b90506118cf604083018661188a565b6118dc606083018561188a565b6118e9608083018461135d565b9695505050505050565b600081519050919050565b600082825260208201905092915050565b6000819050602082019050919050565b600061192b8383611525565b60208301905092915050565b6000602082019050919050565b600061194f826118f3565b61195981856118fe565b93506119648361190f565b8060005b8381101561199557815161197c888261191f565b975061198783611937565b925050600181019050611968565b5085935050505092915050565b600060208201905081810360008301526119bc8184611944565b905092915050565b600080600080608085870312156119de576119dd61108b565b5b600085013567ffffffffffffffff8111156119fc576119fb611090565b5b611a08878288016111ad565b945050602085013567ffffffffffffffff811115611a2957611a28611090565b5b611a35878288016111ad565b9350506040611a46878288016112ec565b9250506060611a57878288016112ec565b91505092959194509250565b600081905092915050565b6000611a798261136c565b611a838185611a63565b9350611a93818560208601611388565b80840191505092915050565b6000611aab8284611a6e565b915081905092915050565b7f4f6e6c79206f776e65722063616e20616464207468697264207061727479207060008201527f61727469636970616e7400000000000000000000000000000000000000000000602082015250565b6000611b12602a83611377565b9150611b1d82611ab6565b604082019050919050565b60006020820190508181036000830152611b4181611b05565b9050919050565b7f546869726420706172747920616c726561647920616464656400000000000000600082015250565b6000611b7e601983611377565b9150611b8982611b48565b602082019050919050565b60006020820190508181036000830152611bad81611b71565b9050919050565b7f4e487b7100000000000000000000000000000000000000000000000000000000600052602260045260246000fd5b60006002820490506001821680611bfb57607f821691505b602082108103611c0e57611c0d611bb4565b5b50919050565b60008190508160005260206000209050919050565b60008154611c3681611be3565b611c408186611377565b94506001821660008114611c5b5760018114611c7157611ca4565b60ff198316865281151560200286019350611ca4565b611c7a85611c14565b60005b83811015611c9c57815481890152600182019150602081019050611c7d565b808801955050505b50505092915050565b600060a0820190508181036000830152611cc781886113b2565b90508181036020830152611cdb8187611c29565b9050611cea604083018661188a565b611cf7606083018561188a565b611d04608083018461135d565b9695505050505050565b7f4f6e6c79206f776e65722063616e2073656c6563742077696e6e657200000000600082015250565b6000611d44601c83611377565b9150611d4f82611d0e565b602082019050919050565b60006020820190508181036000830152611d7381611d37565b9050919050565b7f57696e6e657220616c72656164792073656c6563746564000000000000000000600082015250565b6000611db0601783611377565b9150611dbb82611d7a565b602082019050919050565b60006020820190508181036000830152611ddf81611da3565b9050919050565b7f4e487b7100000000000000000000000000000000000000000000000000000000600052603260045260246000fd5b60006020601f8301049050919050565b600082821b905092915050565b600060088302611e627fffffffffffffffffffffffffffffffffffffffffffffffffffffffffffffffff82611e25565b611e6c8683611e25565b95508019841693508086168417925050509392505050565b6000611e9f611e9a611e95846112cb565b61147f565b6112cb565b9050919050565b6000819050919050565b611eb983611e84565b611ecd611ec582611ea6565b848454611e32565b825550505050565b600090565b611ee2611ed5565b611eed818484611eb0565b505050565b5b81811015611f1157611f06600082611eda565b600181019050611ef3565b5050565b601f821115611f5657611f2781611c14565b611f3084611e15565b81016020851015611f3f578190505b611f53611f4b85611e15565b830182611ef2565b50505b505050565b600082821c905092915050565b6000611f7960001984600802611f5b565b1980831691505092915050565b6000611f928383611f68565b9150826002028217905092915050565b611fab8261136c565b67ffffffffffffffff811115611fc457611fc36110b0565b5b611fce8254611be3565b611fd9828285611f15565b600060209050601f83116001811461200c5760008415611ffa578287015190505b6120048582611f86565b86555061206c565b601f19841661201a86611c14565b60005b828110156120425784890151825560018201915060208501945060208101905061201d565b8683101561205f578489015161205b601f891682611f68565b8355505b6001600288020188555050505b505050505050565b6000608082019050818103600083015261208e81876113b2565b905061209d602083018661135d565b81810360408301526120af81856113b2565b90506120be606083018461188a565b95945050505050565b7f6f7267616e697a65720000000000000000000000000000000000000000000000600082015250565b60006120fd600983611a63565b9150612108826120c7565b600982019050919050565b600061211e826120f0565b9150819050919050565b600061213b6121368461112b565b611110565b9050828152602081018484840111156121575761215661109a565b5b612162848285611388565b509392505050565b600082601f83011261217f5761217e611095565b5b815161218f848260208601612128565b91505092915050565b6000602082840312156121ae576121ad61108b565b5b600082015167ffffffffffffffff8111156121cc576121cb611090565b5b6121d88482850161216a565b91505092915050565b7f4f6e6c79206f7267616e697a657220726f6c652063616e20637265617465207460008201527f656e646572000000000000000000000000000000000000000000000000000000602082015250565b600061223d602583611377565b9150612248826121e1565b604082019050919050565b6000602082019050818103600083015261226c81612230565b9050919050565b600060a082019050818103600083015261228d81886113b2565b905061229c602083018761135d565b81810360408301526122ae81866113b2565b90506122bd606083018561188a565b6122ca608083018461188a565b969550505050505056fea264697066735822122052b4547a4acc1631b1405d047e3399fe221baf8be7a1082733309127b8ffd97964736f6c634300081c0033",
  "linkReferences": {},
  "deployedLinkReferences": {}
}