{
  "_format": "hh-sol-artifact-1",
  "contractName": "TenderManager",
  "sourceName": "contracts/TenderManager.sol",
  "abi": [
    {
      "anonymous": false,
      "inputs": [
        {
          "indexed": true,
          "internalType": "string",
          "name": "tenderId",
          "type": "string"
        },
        {
          "indexed": false,
          "internalType": "address",
          "name": "participant",
          "type": "address"
        }
      ],
      "name": "ParticipantAdded",
      "type": "event"
    },
    {
      "anonymous": false,
      "inputs": [
        {
          "indexed": true,
          "internalType": "string",
          "name": "tenderId",
          "type": "string"
        },
        {
          "indexed": false,
          "internalType": "address",
          "name": "owner",
          "type": "address"
        },
        {
          "indexed": false,
          "internalType": "string",
          "name": "name",
          "type": "string"
        }
      ],
      "name": "TenderCreated",
      "type": "event"
    },
    {
      "anonymous": false,
      "inputs": [
        {
          "indexed": true,
          "internalType": "string",
          "name": "tenderId",
          "type": "string"
        }
      ],
      "name": "TenderFinished",
      "type": "event"
    },
    {
      "anonymous": false,
      "inputs": [
        {
          "indexed": true,
          "internalType": "string",
          "name": "tenderId",
          "type": "string"
        },
        {
          "indexed": false,
          "internalType": "address",
          "name": "winner",
          "type": "address"
        }
      ],
      "name": "WinnerSelected",
      "type": "event"
    },
    {
      "inputs": [
        {
          "internalType": "string",
          "name": "tenderId",
          "type": "string"
        },
        {
          "internalType": "address",
          "name": "owner",
          "type": "address"
        },
        {
          "internalType": "address",
          "name": "participant",
          "type": "address"
        }
      ],
      "name": "addParticipant",
      "outputs": [],
      "stateMutability": "nonpayable",
      "type": "function"
    },
    {
      "inputs": [
        {
          "internalType": "string",
          "name": "tenderId",
          "type": "string"
        },
        {
          "internalType": "address",
          "name": "participant",
          "type": "address"
        }
      ],
      "name": "addPendingParticipant",
      "outputs": [],
      "stateMutability": "nonpayable",
      "type": "function"
    },
    {
      "inputs": [
        {
          "internalType": "uint256",
          "name": "",
          "type": "uint256"
        }
      ],
      "name": "allTenderIds",
      "outputs": [
        {
          "internalType": "string",
          "name": "",
          "type": "string"
        }
      ],
      "stateMutability": "view",
      "type": "function"
    },
    {
      "inputs": [
        {
          "internalType": "string",
          "name": "tenderId",
          "type": "string"
        },
        {
          "internalType": "string",
          "name": "name",
          "type": "string"
        },
        {
          "internalType": "string",
          "name": "description",
          "type": "string"
        },
        {
          "internalType": "uint256",
          "name": "startDate",
          "type": "uint256"
        },
        {
          "internalType": "uint256",
          "name": "endDate",
          "type": "uint256"
        },
        {
          "internalType": "address",
          "name": "owner",
          "type": "address"
        }
      ],
      "name": "createTender",
      "outputs": [],
      "stateMutability": "nonpayable",
      "type": "function"
    },
    {
      "inputs": [
        {
          "internalType": "string",
          "name": "tenderId",
          "type": "string"
        },
        {
          "internalType": "address",
          "name": "owner",
          "type": "address"
        }
      ],
      "name": "finishTender",
      "outputs": [],
      "stateMutability": "nonpayable",
      "type": "function"
    },
    {
      "inputs": [
        {
          "internalType": "uint256",
          "name": "page",
          "type": "uint256"
        },
        {
          "internalType": "uint256",
          "name": "pageSize",
          "type": "uint256"
        }
      ],
      "name": "getAllTenders",
      "outputs": [
        {
          "internalType": "string[]",
          "name": "tenderIds",
          "type": "string[]"
        },
        {
          "components": [
            {
              "internalType": "address",
              "name": "owner",
              "type": "address"
            },
            {
              "internalType": "string",
              "name": "name",
              "type": "string"
            },
            {
              "internalType": "string",
              "name": "description",
              "type": "string"
            },
            {
              "internalType": "uint256",
              "name": "startDate",
              "type": "uint256"
            },
            {
              "internalType": "uint256",
              "name": "endDate",
              "type": "uint256"
            },
            {
              "internalType": "address",
              "name": "winner",
              "type": "address"
            },
            {
              "internalType": "bool",
              "name": "isActive",
              "type": "bool"
            }
          ],
          "internalType": "struct TenderManager.Tender[]",
          "name": "tenderDetails",
          "type": "tuple[]"
        }
      ],
      "stateMutability": "view",
      "type": "function"
    },
    {
      "inputs": [
        {
          "internalType": "string",
          "name": "tenderId",
          "type": "string"
        }
      ],
      "name": "getOwner",
      "outputs": [
        {
          "internalType": "address",
          "name": "",
          "type": "address"
        }
      ],
      "stateMutability": "view",
      "type": "function"
    },
    {
      "inputs": [
        {
          "internalType": "string",
          "name": "tenderId",
          "type": "string"
        }
      ],
      "name": "getParticipants",
      "outputs": [
        {
          "internalType": "address[]",
          "name": "",
          "type": "address[]"
        }
      ],
      "stateMutability": "view",
      "type": "function"
    },
    {
      "inputs": [
        {
          "internalType": "string",
          "name": "tenderId",
          "type": "string"
        }
      ],
      "name": "getPendingParticipants",
      "outputs": [
        {
          "internalType": "address[]",
          "name": "",
          "type": "address[]"
        }
      ],
      "stateMutability": "view",
      "type": "function"
    },
    {
      "inputs": [
        {
          "internalType": "string",
          "name": "tenderId",
          "type": "string"
        }
      ],
      "name": "getTender",
      "outputs": [
        {
          "internalType": "address",
          "name": "owner",
          "type": "address"
        },
        {
          "internalType": "string",
          "name": "name",
          "type": "string"
        },
        {
          "internalType": "string",
          "name": "description",
          "type": "string"
        },
        {
          "internalType": "uint256",
          "name": "startDate",
          "type": "uint256"
        },
        {
          "internalType": "uint256",
          "name": "endDate",
          "type": "uint256"
        },
        {
          "internalType": "address",
          "name": "winner",
          "type": "address"
        },
        {
          "internalType": "bool",
          "name": "isActive",
          "type": "bool"
        }
      ],
      "stateMutability": "view",
      "type": "function"
    },
    {
      "inputs": [
        {
          "internalType": "address",
          "name": "owner",
          "type": "address"
        },
        {
          "internalType": "uint256",
          "name": "page",
          "type": "uint256"
        },
        {
          "internalType": "uint256",
          "name": "pageSize",
          "type": "uint256"
        }
      ],
      "name": "getTendersByOwner",
      "outputs": [
        {
          "internalType": "string[]",
          "name": "tenderIds",
          "type": "string[]"
        },
        {
          "components": [
            {
              "internalType": "address",
              "name": "owner",
              "type": "address"
            },
            {
              "internalType": "string",
              "name": "name",
              "type": "string"
            },
            {
              "internalType": "string",
              "name": "description",
              "type": "string"
            },
            {
              "internalType": "uint256",
              "name": "startDate",
              "type": "uint256"
            },
            {
              "internalType": "uint256",
              "name": "endDate",
              "type": "uint256"
            },
            {
              "internalType": "address",
              "name": "winner",
              "type": "address"
            },
            {
              "internalType": "bool",
              "name": "isActive",
              "type": "bool"
            }
          ],
          "internalType": "struct TenderManager.Tender[]",
          "name": "tenderDetails",
          "type": "tuple[]"
        }
      ],
      "stateMutability": "view",
      "type": "function"
    },
    {
      "inputs": [
        {
          "internalType": "string",
          "name": "tenderId",
          "type": "string"
        },
        {
          "internalType": "address",
          "name": "participant",
          "type": "address"
        }
      ],
      "name": "isParticipant",
      "outputs": [
        {
          "internalType": "bool",
          "name": "",
          "type": "bool"
        }
      ],
      "stateMutability": "view",
      "type": "function"
    },
    {
      "inputs": [
        {
          "internalType": "string",
          "name": "tenderId",
          "type": "string"
        },
        {
          "internalType": "address",
          "name": "participant",
          "type": "address"
        }
      ],
      "name": "isPendingParticipant",
      "outputs": [
        {
          "internalType": "bool",
          "name": "",
          "type": "bool"
        }
      ],
      "stateMutability": "view",
      "type": "function"
    },
    {
      "inputs": [
        {
          "internalType": "address",
          "name": "",
          "type": "address"
        },
        {
          "internalType": "uint256",
          "name": "",
          "type": "uint256"
        }
      ],
      "name": "ownerTenderIds",
      "outputs": [
        {
          "internalType": "string",
          "name": "",
          "type": "string"
        }
      ],
      "stateMutability": "view",
      "type": "function"
    },
    {
      "inputs": [
        {
          "internalType": "string",
          "name": "",
          "type": "string"
        },
        {
          "internalType": "address",
          "name": "",
          "type": "address"
        }
      ],
      "name": "participants",
      "outputs": [
        {
          "internalType": "bool",
          "name": "",
          "type": "bool"
        }
      ],
      "stateMutability": "view",
      "type": "function"
    },
    {
      "inputs": [
        {
          "internalType": "string",
          "name": "",
          "type": "string"
        },
        {
          "internalType": "address",
          "name": "",
          "type": "address"
        }
      ],
      "name": "pendingParticipants",
      "outputs": [
        {
          "internalType": "bool",
          "name": "",
          "type": "bool"
        }
      ],
      "stateMutability": "view",
      "type": "function"
    },
    {
      "inputs": [
        {
          "internalType": "string",
          "name": "",
          "type": "string"
        },
        {
          "internalType": "uint256",
          "name": "",
          "type": "uint256"
        }
      ],
      "name": "pendingTenderParticipants",
      "outputs": [
        {
          "internalType": "address",
          "name": "",
          "type": "address"
        }
      ],
      "stateMutability": "view",
      "type": "function"
    },
    {
      "inputs": [
        {
          "internalType": "string",
          "name": "tenderId",
          "type": "string"
        },
        {
          "internalType": "address",
          "name": "owner",
          "type": "address"
        },
        {
          "internalType": "address",
          "name": "winner",
          "type": "address"
        }
      ],
      "name": "selectWinner",
      "outputs": [],
      "stateMutability": "nonpayable",
      "type": "function"
    },
    {
      "inputs": [
        {
          "internalType": "string",
          "name": "",
          "type": "string"
        },
        {
          "internalType": "uint256",
          "name": "",
          "type": "uint256"
        }
      ],
      "name": "tenderParticipants",
      "outputs": [
        {
          "internalType": "address",
          "name": "",
          "type": "address"
        }
      ],
      "stateMutability": "view",
      "type": "function"
    },
    {
      "inputs": [
        {
          "internalType": "string",
          "name": "",
          "type": "string"
        }
      ],
      "name": "tenderToOwner",
      "outputs": [
        {
          "internalType": "address",
          "name": "",
          "type": "address"
        }
      ],
      "stateMutability": "view",
      "type": "function"
    },
    {
      "inputs": [
        {
          "internalType": "address",
          "name": "",
          "type": "address"
        },
        {
          "internalType": "string",
          "name": "",
          "type": "string"
        }
      ],
      "name": "tenders",
      "outputs": [
        {
          "internalType": "address",
          "name": "owner",
          "type": "address"
        },
        {
          "internalType": "string",
          "name": "name",
          "type": "string"
        },
        {
          "internalType": "string",
          "name": "description",
          "type": "string"
        },
        {
          "internalType": "uint256",
          "name": "startDate",
          "type": "uint256"
        },
        {
          "internalType": "uint256",
          "name": "endDate",
          "type": "uint256"
        },
        {
          "internalType": "address",
          "name": "winner",
          "type": "address"
        },
        {
          "internalType": "bool",
          "name": "isActive",
          "type": "bool"
        }
      ],
      "stateMutability": "view",
      "type": "function"
    }
  ],
  "bytecode": "0x6080604052348015600f57600080fd5b5061424e8061001f6000396000f3fe608060405234801561001057600080fd5b50600436106101375760003560e01c8063839544b0116100b8578063cfa1f00d1161007c578063cfa1f00d146103de578063d3d36575146103fa578063deaf49201461042a578063e4afd7c01461045a578063e71340681461048a578063fa3b72b0146104a657610137565b8063839544b0146102fb578063a686f2391461032b578063b38d97ef1461035c578063bcdabc0914610378578063bff2eeed146103a857610137565b80634756331e116100ff5780634756331e146102055780634aaf4a121461023557806362f058c8146102655780637e90def71461029b578063810374aa146102cb57610137565b8063148381381461013c57806326307abb1461016c57806326c85c3f1461019d57806329138ccc146101cd5780632989ce01146101e9575b600080fd5b61015660048036038101906101519190612e90565b6104d6565b6040516101639190612f1a565b60405180910390f35b61018660048036038101906101819190612f97565b61051f565b6040516101949291906132c9565b60405180910390f35b6101b760048036038101906101b29190613300565b610a9e565b6040516101c4919061336b565b60405180910390f35b6101e760048036038101906101e29190613386565b610ae3565b005b61020360048036038101906101fe9190613386565b610f5b565b005b61021f600480360381019061021a9190613300565b6114ac565b60405161022c919061336b565b60405180910390f35b61024f600480360381019061024a9190612e90565b61151f565b60405161025c9190612f1a565b60405180910390f35b61027f600480360381019061027a9190612e90565b611567565b604051610292979695949392919061344e565b60405180910390f35b6102b560048036038101906102b09190612e90565b6118ca565b6040516102c2919061357a565b60405180910390f35b6102e560048036038101906102e0919061359c565b611a23565b6040516102f291906135c9565b60405180910390f35b61031560048036038101906103109190612e90565b611acf565b604051610322919061357a565b60405180910390f35b610345600480360381019061034091906135eb565b611c28565b6040516103539291906132c9565b60405180910390f35b6103766004803603810190610371919061362b565b612133565b005b610392600480360381019061038d9190613300565b61247e565b60405161039f919061336b565b60405180910390f35b6103c260048036038101906103bd919061370c565b6124c3565b6040516103d5979695949392919061344e565b60405180910390f35b6103f860048036038101906103f39190613300565b612685565b005b610414600480360381019061040f9190613768565b61288a565b6040516104219190612f1a565b60405180910390f35b610444600480360381019061043f91906137c4565b6128ee565b60405161045191906135c9565b60405180910390f35b610474600480360381019061046f9190613300565b6129a7565b604051610481919061336b565b60405180910390f35b6104a4600480360381019061049f9190613300565b612a1a565b005b6104c060048036038101906104bb9190613768565b612c67565b6040516104cd9190612f1a565b60405180910390f35b6005818051602081018201805184825260208301602085012081835280955050505050506000915054906101000a900473ffffffffffffffffffffffffffffffffffffffff1681565b60608060008411610565576040517f08c379a000000000000000000000000000000000000000000000000000000000815260040161055c90613850565b60405180910390fd5b600083600186610575919061389f565b61057f91906138d3565b90506000848261058f9190613915565b9050600460008873ffffffffffffffffffffffffffffffffffffffff1673ffffffffffffffffffffffffffffffffffffffff1681526020019081526020016000208054905081111561062157600460008873ffffffffffffffffffffffffffffffffffffffff1673ffffffffffffffffffffffffffffffffffffffff1681526020019081526020016000208054905090505b6000828261062f919061389f565b90508067ffffffffffffffff81111561064b5761064a612d65565b5b60405190808252806020026020018201604052801561067e57816020015b60608152602001906001900390816106695790505b5094508067ffffffffffffffff81111561069b5761069a612d65565b5b6040519080825280602002602001820160405280156106d457816020015b6106c1612ccb565b8152602001906001900390816106b95790505b50935060008390505b82811015610a92576000600460008b73ffffffffffffffffffffffffffffffffffffffff1673ffffffffffffffffffffffffffffffffffffffff168152602001908152602001600020828154811061073857610737613949565b5b90600052602060002001805461074d906139a7565b80601f0160208091040260200160405190810160405280929190818152602001828054610779906139a7565b80156107c65780601f1061079b576101008083540402835291602001916107c6565b820191906000526020600020905b8154815290600101906020018083116107a957829003601f168201915b50505050509050808786846107db919061389f565b815181106107ec576107eb613949565b5b60200260200101819052506000808b73ffffffffffffffffffffffffffffffffffffffff1673ffffffffffffffffffffffffffffffffffffffff168152602001908152602001600020816040516108439190613a14565b90815260200160405180910390206040518060e00160405290816000820160009054906101000a900473ffffffffffffffffffffffffffffffffffffffff1673ffffffffffffffffffffffffffffffffffffffff1673ffffffffffffffffffffffffffffffffffffffff1681526020016001820180546108c2906139a7565b80601f01602080910402602001604051908101604052809291908181526020018280546108ee906139a7565b801561093b5780601f106109105761010080835404028352916020019161093b565b820191906000526020600020905b81548152906001019060200180831161091e57829003601f168201915b50505050508152602001600282018054610954906139a7565b80601f0160208091040260200160405190810160405280929190818152602001828054610980906139a7565b80156109cd5780601f106109a2576101008083540402835291602001916109cd565b820191906000526020600020905b8154815290600101906020018083116109b057829003601f168201915b5050505050815260200160038201548152602001600482015481526020016005820160009054906101000a900473ffffffffffffffffffffffffffffffffffffffff1673ffffffffffffffffffffffffffffffffffffffff1673ffffffffffffffffffffffffffffffffffffffff1681526020016005820160149054906101000a900460ff161515151581525050868684610a68919061389f565b81518110610a7957610a78613949565b5b60200260200101819052505080806001019150506106dd565b50505050935093915050565b6002828051602081018201805184825260208301602085012081835280955050505050506020528060005260406000206000915091509054906101000a900460ff1681565b8173ffffffffffffffffffffffffffffffffffffffff16600584604051610b0a9190613a14565b908152602001604051809103902060009054906101000a900473ffffffffffffffffffffffffffffffffffffffff1673ffffffffffffffffffffffffffffffffffffffff1614610b8f576040517f08c379a0000000000000000000000000000000000000000000000000000000008152600401610b8690613a77565b60405180910390fd5b6000808373ffffffffffffffffffffffffffffffffffffffff1673ffffffffffffffffffffffffffffffffffffffff16815260200190815260200160002083604051610bdb9190613a14565b908152602001604051809103902060050160149054906101000a900460ff1615610c3a576040517f08c379a0000000000000000000000000000000000000000000000000000000008152600401610c3190613ae3565b60405180910390fd5b6000808373ffffffffffffffffffffffffffffffffffffffff1673ffffffffffffffffffffffffffffffffffffffff16815260200190815260200160002083604051610c869190613a14565b9081526020016040518091039020600401544211610cd9576040517f08c379a0000000000000000000000000000000000000000000000000000000008152600401610cd090613b4f565b60405180910390fd5b600183604051610ce99190613a14565b908152602001604051809103902060008273ffffffffffffffffffffffffffffffffffffffff1673ffffffffffffffffffffffffffffffffffffffff16815260200190815260200160002060009054906101000a900460ff16610d81576040517f08c379a0000000000000000000000000000000000000000000000000000000008152600401610d7890613bbb565b60405180910390fd5b600073ffffffffffffffffffffffffffffffffffffffff166000808473ffffffffffffffffffffffffffffffffffffffff1673ffffffffffffffffffffffffffffffffffffffff16815260200190815260200160002084604051610de59190613a14565b908152602001604051809103902060050160009054906101000a900473ffffffffffffffffffffffffffffffffffffffff1673ffffffffffffffffffffffffffffffffffffffff1614610e6d576040517f08c379a0000000000000000000000000000000000000000000000000000000008152600401610e6490613c27565b60405180910390fd5b806000808473ffffffffffffffffffffffffffffffffffffffff1673ffffffffffffffffffffffffffffffffffffffff16815260200190815260200160002084604051610eba9190613a14565b908152602001604051809103902060050160006101000a81548173ffffffffffffffffffffffffffffffffffffffff021916908373ffffffffffffffffffffffffffffffffffffffff16021790555082604051610f179190613a14565b60405180910390207f8994284d793c65b1b90ec6dbc9452b1d2ac013d68ca9bc8fd0744306533c838582604051610f4e9190612f1a565b60405180910390a2505050565b8173ffffffffffffffffffffffffffffffffffffffff16600584604051610f829190613a14565b908152602001604051809103902060009054906101000a900473ffffffffffffffffffffffffffffffffffffffff1673ffffffffffffffffffffffffffffffffffffffff1614611007576040517f08c379a0000000000000000000000000000000000000000000000000000000008152600401610ffe90613c93565b60405180910390fd5b6000808373ffffffffffffffffffffffffffffffffffffffff1673ffffffffffffffffffffffffffffffffffffffff168152602001908152602001600020836040516110539190613a14565b9081526020016040518091039020600301544210156110a7576040517f08c379a000000000000000000000000000000000000000000000000000000000815260040161109e90613cff565b60405180910390fd5b6001836040516110b79190613a14565b908152602001604051809103902060008273ffffffffffffffffffffffffffffffffffffffff1673ffffffffffffffffffffffffffffffffffffffff16815260200190815260200160002060009054906101000a900460ff1615611150576040517f08c379a000000000000000000000000000000000000000000000000000000000815260040161114790613d6b565b60405180910390fd5b60006002846040516111629190613a14565b908152602001604051809103902060008373ffffffffffffffffffffffffffffffffffffffff1673ffffffffffffffffffffffffffffffffffffffff16815260200190815260200160002060006101000a81548160ff021916908315150217905550600180846040516111d59190613a14565b908152602001604051809103902060008373ffffffffffffffffffffffffffffffffffffffff1673ffffffffffffffffffffffffffffffffffffffff16815260200190815260200160002060006101000a81548160ff0219169083151502179055506006836040516112479190613a14565b9081526020016040518091039020819080600181540180825580915050600190039060005260206000200160009091909190916101000a81548173ffffffffffffffffffffffffffffffffffffffff021916908373ffffffffffffffffffffffffffffffffffffffff16021790555060006007846040516112c89190613a14565b9081526020016040518091039020905060005b8180549050811015611458578273ffffffffffffffffffffffffffffffffffffffff1682828154811061131157611310613949565b5b9060005260206000200160009054906101000a900473ffffffffffffffffffffffffffffffffffffffff1673ffffffffffffffffffffffffffffffffffffffff160361144b578160018380549050611369919061389f565b8154811061137a57611379613949565b5b9060005260206000200160009054906101000a900473ffffffffffffffffffffffffffffffffffffffff168282815481106113b8576113b7613949565b5b9060005260206000200160006101000a81548173ffffffffffffffffffffffffffffffffffffffff021916908373ffffffffffffffffffffffffffffffffffffffff1602179055508180548061141157611410613d8b565b5b6001900381819060005260206000200160006101000a81549073ffffffffffffffffffffffffffffffffffffffff02191690559055611458565b80806001019150506112db565b50836040516114679190613a14565b60405180910390207fdb0be6c9d7f59ad13d477d017b40888888caa620afad19a1738b77c2998175c58360405161149e9190612f1a565b60405180910390a250505050565b60006001836040516114be9190613a14565b908152602001604051809103902060008373ffffffffffffffffffffffffffffffffffffffff1673ffffffffffffffffffffffffffffffffffffffff16815260200190815260200160002060009054906101000a900460ff16905092915050565b60006005826040516115319190613a14565b908152602001604051809103902060009054906101000a900473ffffffffffffffffffffffffffffffffffffffff169050919050565b600060608060008060008060006005896040516115849190613a14565b908152602001604051809103902060009054906101000a900473ffffffffffffffffffffffffffffffffffffffff169050600073ffffffffffffffffffffffffffffffffffffffff168173ffffffffffffffffffffffffffffffffffffffff1603611624576040517f08c379a000000000000000000000000000000000000000000000000000000000815260040161161b90613e06565b60405180910390fd5b60008060008373ffffffffffffffffffffffffffffffffffffffff1673ffffffffffffffffffffffffffffffffffffffff1681526020019081526020016000208a6040516116729190613a14565b90815260200160405180910390206040518060e00160405290816000820160009054906101000a900473ffffffffffffffffffffffffffffffffffffffff1673ffffffffffffffffffffffffffffffffffffffff1673ffffffffffffffffffffffffffffffffffffffff1681526020016001820180546116f1906139a7565b80601f016020809104026020016040519081016040528092919081815260200182805461171d906139a7565b801561176a5780601f1061173f5761010080835404028352916020019161176a565b820191906000526020600020905b81548152906001019060200180831161174d57829003601f168201915b50505050508152602001600282018054611783906139a7565b80601f01602080910402602001604051908101604052809291908181526020018280546117af906139a7565b80156117fc5780601f106117d1576101008083540402835291602001916117fc565b820191906000526020600020905b8154815290600101906020018083116117df57829003601f168201915b5050505050815260200160038201548152602001600482015481526020016005820160009054906101000a900473ffffffffffffffffffffffffffffffffffffffff1673ffffffffffffffffffffffffffffffffffffffff1673ffffffffffffffffffffffffffffffffffffffff1681526020016005820160149054906101000a900460ff1615151515815250509050806000015181602001518260400151836060015184608001518560a001518660c0015198509850985098509850985098505050919395979092949650565b6060600073ffffffffffffffffffffffffffffffffffffffff166005836040516118f49190613a14565b908152602001604051809103902060009054906101000a900473ffffffffffffffffffffffffffffffffffffffff1673ffffffffffffffffffffffffffffffffffffffff1603611979576040517f08c379a000000000000000000000000000000000000000000000000000000000815260040161197090613e06565b60405180910390fd5b6006826040516119899190613a14565b9081526020016040518091039020805480602002602001604051908101604052809291908181526020018280548015611a1757602002820191906000526020600020905b8160009054906101000a900473ffffffffffffffffffffffffffffffffffffffff1673ffffffffffffffffffffffffffffffffffffffff16815260200190600101908083116119cd575b50505050509050919050565b60038181548110611a3357600080fd5b906000526020600020016000915090508054611a4e906139a7565b80601f0160208091040260200160405190810160405280929190818152602001828054611a7a906139a7565b8015611ac75780601f10611a9c57610100808354040283529160200191611ac7565b820191906000526020600020905b815481529060010190602001808311611aaa57829003601f168201915b505050505081565b6060600073ffffffffffffffffffffffffffffffffffffffff16600583604051611af99190613a14565b908152602001604051809103902060009054906101000a900473ffffffffffffffffffffffffffffffffffffffff1673ffffffffffffffffffffffffffffffffffffffff1603611b7e576040517f08c379a0000000000000000000000000000000000000000000000000000000008152600401611b7590613e06565b60405180910390fd5b600782604051611b8e9190613a14565b9081526020016040518091039020805480602002602001604051908101604052809291908181526020018280548015611c1c57602002820191906000526020600020905b8160009054906101000a900473ffffffffffffffffffffffffffffffffffffffff1673ffffffffffffffffffffffffffffffffffffffff1681526020019060010190808311611bd2575b50505050509050919050565b60608060008411611c6e576040517f08c379a0000000000000000000000000000000000000000000000000000000008152600401611c6590613850565b60405180910390fd5b600083600186611c7e919061389f565b611c8891906138d3565b905060008482611c989190613915565b9050600380549050811115611cb05760038054905090505b60008282611cbe919061389f565b90508067ffffffffffffffff811115611cda57611cd9612d65565b5b604051908082528060200260200182016040528015611d0d57816020015b6060815260200190600190039081611cf85790505b5094508067ffffffffffffffff811115611d2a57611d29612d65565b5b604051908082528060200260200182016040528015611d6357816020015b611d50612ccb565b815260200190600190039081611d485790505b50935060008390505b8281101561212857600060038281548110611d8a57611d89613949565b5b906000526020600020018054611d9f906139a7565b80601f0160208091040260200160405190810160405280929190818152602001828054611dcb906139a7565b8015611e185780601f10611ded57610100808354040283529160200191611e18565b820191906000526020600020905b815481529060010190602001808311611dfb57829003601f168201915b505050505090506000600582604051611e319190613a14565b908152602001604051809103902060009054906101000a900473ffffffffffffffffffffffffffffffffffffffff16905081888785611e70919061389f565b81518110611e8157611e80613949565b5b60200260200101819052506000808273ffffffffffffffffffffffffffffffffffffffff1673ffffffffffffffffffffffffffffffffffffffff16815260200190815260200160002082604051611ed89190613a14565b90815260200160405180910390206040518060e00160405290816000820160009054906101000a900473ffffffffffffffffffffffffffffffffffffffff1673ffffffffffffffffffffffffffffffffffffffff1673ffffffffffffffffffffffffffffffffffffffff168152602001600182018054611f57906139a7565b80601f0160208091040260200160405190810160405280929190818152602001828054611f83906139a7565b8015611fd05780601f10611fa557610100808354040283529160200191611fd0565b820191906000526020600020905b815481529060010190602001808311611fb357829003601f168201915b50505050508152602001600282018054611fe9906139a7565b80601f0160208091040260200160405190810160405280929190818152602001828054612015906139a7565b80156120625780601f1061203757610100808354040283529160200191612062565b820191906000526020600020905b81548152906001019060200180831161204557829003601f168201915b5050505050815260200160038201548152602001600482015481526020016005820160009054906101000a900473ffffffffffffffffffffffffffffffffffffffff1673ffffffffffffffffffffffffffffffffffffffff1673ffffffffffffffffffffffffffffffffffffffff1681526020016005820160149054906101000a900460ff1615151515815250508787856120fd919061389f565b8151811061210e5761210d613949565b5b602002602001018190525050508080600101915050611d6c565b505050509250929050565b818310612175576040517f08c379a000000000000000000000000000000000000000000000000000000000815260040161216c90613e72565b60405180910390fd5b6040518060e001604052808273ffffffffffffffffffffffffffffffffffffffff168152602001868152602001858152602001848152602001838152602001600073ffffffffffffffffffffffffffffffffffffffff168152602001600115158152506000808373ffffffffffffffffffffffffffffffffffffffff1673ffffffffffffffffffffffffffffffffffffffff168152602001908152602001600020876040516122249190613a14565b908152602001604051809103902060008201518160000160006101000a81548173ffffffffffffffffffffffffffffffffffffffff021916908373ffffffffffffffffffffffffffffffffffffffff160217905550602082015181600101908161228e919061403e565b5060408201518160020190816122a4919061403e565b50606082015181600301556080820151816004015560a08201518160050160006101000a81548173ffffffffffffffffffffffffffffffffffffffff021916908373ffffffffffffffffffffffffffffffffffffffff16021790555060c08201518160050160146101000a81548160ff021916908315150217905550905050600386908060018154018082558091505060019003906000526020600020016000909190919091509081612357919061403e565b50600460008273ffffffffffffffffffffffffffffffffffffffff1673ffffffffffffffffffffffffffffffffffffffff168152602001908152602001600020869080600181540180825580915050600190039060005260206000200160009091909190915090816123c9919061403e565b50806005876040516123db9190613a14565b908152602001604051809103902060006101000a81548173ffffffffffffffffffffffffffffffffffffffff021916908373ffffffffffffffffffffffffffffffffffffffff160217905550856040516124359190613a14565b60405180910390207f10f30d26994b06c43518f78b2ffb972b3fc75c88abe841e2c04cb05807d79052828760405161246e929190614110565b60405180910390a2505050505050565b6001828051602081018201805184825260208301602085012081835280955050505050506020528060005260406000206000915091509054906101000a900460ff1681565b600060205281600052604060002081805160208101820180518482526020830160208501208183528095505050505050600091509150508060000160009054906101000a900473ffffffffffffffffffffffffffffffffffffffff169080600101805461252f906139a7565b80601f016020809104026020016040519081016040528092919081815260200182805461255b906139a7565b80156125a85780601f1061257d576101008083540402835291602001916125a8565b820191906000526020600020905b81548152906001019060200180831161258b57829003601f168201915b5050505050908060020180546125bd906139a7565b80601f01602080910402602001604051908101604052809291908181526020018280546125e9906139a7565b80156126365780601f1061260b57610100808354040283529160200191612636565b820191906000526020600020905b81548152906001019060200180831161261957829003601f168201915b5050505050908060030154908060040154908060050160009054906101000a900473ffffffffffffffffffffffffffffffffffffffff16908060050160149054906101000a900460ff16905087565b6000808273ffffffffffffffffffffffffffffffffffffffff1673ffffffffffffffffffffffffffffffffffffffff168152602001908152602001600020826040516126d19190613a14565b908152602001604051809103902060050160149054906101000a900460ff1661272f576040517f08c379a00000000000000000000000000000000000000000000000000000000081526004016127269061418c565b60405180910390fd5b6000808273ffffffffffffffffffffffffffffffffffffffff1673ffffffffffffffffffffffffffffffffffffffff1681526020019081526020016000208260405161277b9190613a14565b90815260200160405180910390206004015442116127ce576040517f08c379a00000000000000000000000000000000000000000000000000000000081526004016127c590613b4f565b60405180910390fd5b60008060008373ffffffffffffffffffffffffffffffffffffffff1673ffffffffffffffffffffffffffffffffffffffff1681526020019081526020016000208360405161281c9190613a14565b908152602001604051809103902060050160146101000a81548160ff021916908315150217905550816040516128529190613a14565b60405180910390207f61ca208397dd2408c96a502256f565801b942e4d38fbd8f0c684e2a9f8df997860405160405180910390a25050565b60078280516020810182018051848252602083016020850120818352809550505050505081815481106128bc57600080fd5b906000526020600020016000915091509054906101000a900473ffffffffffffffffffffffffffffffffffffffff1681565b6004602052816000526040600020818154811061290a57600080fd5b90600052602060002001600091509150508054612926906139a7565b80601f0160208091040260200160405190810160405280929190818152602001828054612952906139a7565b801561299f5780601f106129745761010080835404028352916020019161299f565b820191906000526020600020905b81548152906001019060200180831161298257829003601f168201915b505050505081565b60006002836040516129b99190613a14565b908152602001604051809103902060008373ffffffffffffffffffffffffffffffffffffffff1673ffffffffffffffffffffffffffffffffffffffff16815260200190815260200160002060009054906101000a900460ff16905092915050565b600073ffffffffffffffffffffffffffffffffffffffff16600583604051612a429190613a14565b908152602001604051809103902060009054906101000a900473ffffffffffffffffffffffffffffffffffffffff1673ffffffffffffffffffffffffffffffffffffffff1603612ac7576040517f08c379a0000000000000000000000000000000000000000000000000000000008152600401612abe90613e06565b60405180910390fd5b600282604051612ad79190613a14565b908152602001604051809103902060008273ffffffffffffffffffffffffffffffffffffffff1673ffffffffffffffffffffffffffffffffffffffff16815260200190815260200160002060009054906101000a900460ff1615612b70576040517f08c379a0000000000000000000000000000000000000000000000000000000008152600401612b67906141f8565b60405180910390fd5b6001600283604051612b829190613a14565b908152602001604051809103902060008373ffffffffffffffffffffffffffffffffffffffff1673ffffffffffffffffffffffffffffffffffffffff16815260200190815260200160002060006101000a81548160ff021916908315150217905550600782604051612bf49190613a14565b9081526020016040518091039020819080600181540180825580915050600190039060005260206000200160009091909190916101000a81548173ffffffffffffffffffffffffffffffffffffffff021916908373ffffffffffffffffffffffffffffffffffffffff1602179055505050565b6006828051602081018201805184825260208301602085012081835280955050505050508181548110612c9957600080fd5b906000526020600020016000915091509054906101000a900473ffffffffffffffffffffffffffffffffffffffff1681565b6040518060e00160405280600073ffffffffffffffffffffffffffffffffffffffff16815260200160608152602001606081526020016000815260200160008152602001600073ffffffffffffffffffffffffffffffffffffffff1681526020016000151581525090565b6000604051905090565b600080fd5b600080fd5b600080fd5b600080fd5b6000601f19601f8301169050919050565b7f4e487b7100000000000000000000000000000000000000000000000000000000600052604160045260246000fd5b612d9d82612d54565b810181811067ffffffffffffffff82111715612dbc57612dbb612d65565b5b80604052505050565b6000612dcf612d36565b9050612ddb8282612d94565b919050565b600067ffffffffffffffff821115612dfb57612dfa612d65565b5b612e0482612d54565b9050602081019050919050565b82818337600083830152505050565b6000612e33612e2e84612de0565b612dc5565b905082815260208101848484011115612e4f57612e4e612d4f565b5b612e5a848285612e11565b509392505050565b600082601f830112612e7757612e76612d4a565b5b8135612e87848260208601612e20565b91505092915050565b600060208284031215612ea657612ea5612d40565b5b600082013567ffffffffffffffff811115612ec457612ec3612d45565b5b612ed084828501612e62565b91505092915050565b600073ffffffffffffffffffffffffffffffffffffffff82169050919050565b6000612f0482612ed9565b9050919050565b612f1481612ef9565b82525050565b6000602082019050612f2f6000830184612f0b565b92915050565b612f3e81612ef9565b8114612f4957600080fd5b50565b600081359050612f5b81612f35565b92915050565b6000819050919050565b612f7481612f61565b8114612f7f57600080fd5b50565b600081359050612f9181612f6b565b92915050565b600080600060608486031215612fb057612faf612d40565b5b6000612fbe86828701612f4c565b9350506020612fcf86828701612f82565b9250506040612fe086828701612f82565b9150509250925092565b600081519050919050565b600082825260208201905092915050565b6000819050602082019050919050565b600081519050919050565b600082825260208201905092915050565b60005b83811015613050578082015181840152602081019050613035565b60008484015250505050565b600061306782613016565b6130718185613021565b9350613081818560208601613032565b61308a81612d54565b840191505092915050565b60006130a1838361305c565b905092915050565b6000602082019050919050565b60006130c182612fea565b6130cb8185612ff5565b9350836020820285016130dd85613006565b8060005b8581101561311957848403895281516130fa8582613095565b9450613105836130a9565b925060208a019950506001810190506130e1565b50829750879550505050505092915050565b600081519050919050565b600082825260208201905092915050565b6000819050602082019050919050565b61316081612ef9565b82525050565b61316f81612f61565b82525050565b60008115159050919050565b61318a81613175565b82525050565b600060e0830160008301516131a86000860182613157565b50602083015184820360208601526131c0828261305c565b915050604083015184820360408601526131da828261305c565b91505060608301516131ef6060860182613166565b5060808301516132026080860182613166565b5060a083015161321560a0860182613157565b5060c083015161322860c0860182613181565b508091505092915050565b600061323f8383613190565b905092915050565b6000602082019050919050565b600061325f8261312b565b6132698185613136565b93508360208202850161327b85613147565b8060005b858110156132b757848403895281516132988582613233565b94506132a383613247565b925060208a0199505060018101905061327f565b50829750879550505050505092915050565b600060408201905081810360008301526132e381856130b6565b905081810360208301526132f78184613254565b90509392505050565b6000806040838503121561331757613316612d40565b5b600083013567ffffffffffffffff81111561333557613334612d45565b5b61334185828601612e62565b925050602061335285828601612f4c565b9150509250929050565b61336581613175565b82525050565b6000602082019050613380600083018461335c565b92915050565b60008060006060848603121561339f5761339e612d40565b5b600084013567ffffffffffffffff8111156133bd576133bc612d45565b5b6133c986828701612e62565b93505060206133da86828701612f4c565b92505060406133eb86828701612f4c565b9150509250925092565b600082825260208201905092915050565b600061341182613016565b61341b81856133f5565b935061342b818560208601613032565b61343481612d54565b840191505092915050565b61344881612f61565b82525050565b600060e082019050613463600083018a612f0b565b81810360208301526134758189613406565b905081810360408301526134898188613406565b9050613498606083018761343f565b6134a5608083018661343f565b6134b260a0830185612f0b565b6134bf60c083018461335c565b98975050505050505050565b600081519050919050565b600082825260208201905092915050565b6000819050602082019050919050565b60006135038383613157565b60208301905092915050565b6000602082019050919050565b6000613527826134cb565b61353181856134d6565b935061353c836134e7565b8060005b8381101561356d57815161355488826134f7565b975061355f8361350f565b925050600181019050613540565b5085935050505092915050565b60006020820190508181036000830152613594818461351c565b905092915050565b6000602082840312156135b2576135b1612d40565b5b60006135c084828501612f82565b91505092915050565b600060208201905081810360008301526135e38184613406565b905092915050565b6000806040838503121561360257613601612d40565b5b600061361085828601612f82565b925050602061362185828601612f82565b9150509250929050565b60008060008060008060c0878903121561364857613647612d40565b5b600087013567ffffffffffffffff81111561366657613665612d45565b5b61367289828a01612e62565b965050602087013567ffffffffffffffff81111561369357613692612d45565b5b61369f89828a01612e62565b955050604087013567ffffffffffffffff8111156136c0576136bf612d45565b5b6136cc89828a01612e62565b94505060606136dd89828a01612f82565b93505060806136ee89828a01612f82565b92505060a06136ff89828a01612f4c565b9150509295509295509295565b6000806040838503121561372357613722612d40565b5b600061373185828601612f4c565b925050602083013567ffffffffffffffff81111561375257613751612d45565b5b61375e85828601612e62565b9150509250929050565b6000806040838503121561377f5761377e612d40565b5b600083013567ffffffffffffffff81111561379d5761379c612d45565b5b6137a985828601612e62565b92505060206137ba85828601612f82565b9150509250929050565b600080604083850312156137db576137da612d40565b5b60006137e985828601612f4c565b92505060206137fa85828601612f82565b9150509250929050565b7f50616765206d7573742062652067726561746572207468616e20300000000000600082015250565b600061383a601b836133f5565b915061384582613804565b602082019050919050565b600060208201905081810360008301526138698161382d565b9050919050565b7f4e487b7100000000000000000000000000000000000000000000000000000000600052601160045260246000fd5b60006138aa82612f61565b91506138b583612f61565b92508282039050818111156138cd576138cc613870565b5b92915050565b60006138de82612f61565b91506138e983612f61565b92508282026138f781612f61565b9150828204841483151761390e5761390d613870565b5b5092915050565b600061392082612f61565b915061392b83612f61565b925082820190508082111561394357613942613870565b5b92915050565b7f4e487b7100000000000000000000000000000000000000000000000000000000600052603260045260246000fd5b7f4e487b7100000000000000000000000000000000000000000000000000000000600052602260045260246000fd5b600060028204905060018216806139bf57607f821691505b6020821081036139d2576139d1613978565b5b50919050565b600081905092915050565b60006139ee82613016565b6139f881856139d8565b9350613a08818560208601613032565b80840191505092915050565b6000613a2082846139e3565b915081905092915050565b7f4f6e6c79206f776e65722063616e2073656c6563742077696e6e657200000000600082015250565b6000613a61601c836133f5565b9150613a6c82613a2b565b602082019050919050565b60006020820190508181036000830152613a9081613a54565b9050919050565b7f54656e646572206973207374696c6c2061637469766500000000000000000000600082015250565b6000613acd6016836133f5565b9150613ad882613a97565b602082019050919050565b60006020820190508181036000830152613afc81613ac0565b9050919050565b7f54656e64657220686173206e6f7420656e646564000000000000000000000000600082015250565b6000613b396014836133f5565b9150613b4482613b03565b602082019050919050565b60006020820190508181036000830152613b6881613b2c565b9050919050565b7f57696e6e6572206d7573742062652061207061727469636970616e7400000000600082015250565b6000613ba5601c836133f5565b9150613bb082613b6f565b602082019050919050565b60006020820190508181036000830152613bd481613b98565b9050919050565b7f57696e6e657220616c72656164792073656c6563746564000000000000000000600082015250565b6000613c116017836133f5565b9150613c1c82613bdb565b602082019050919050565b60006020820190508181036000830152613c4081613c04565b9050919050565b7f4f6e6c79206f776e65722063616e20616464207061727469636970616e747300600082015250565b6000613c7d601f836133f5565b9150613c8882613c47565b602082019050919050565b60006020820190508181036000830152613cac81613c70565b9050919050565b7f54656e64657220686173206e6f74207374617274656400000000000000000000600082015250565b6000613ce96016836133f5565b9150613cf482613cb3565b602082019050919050565b60006020820190508181036000830152613d1881613cdc565b9050919050565b7f416c72656164792061207061727469636970616e740000000000000000000000600082015250565b6000613d556015836133f5565b9150613d6082613d1f565b602082019050919050565b60006020820190508181036000830152613d8481613d48565b9050919050565b7f4e487b7100000000000000000000000000000000000000000000000000000000600052603160045260246000fd5b7f54656e64657220646f6573206e6f742065786973740000000000000000000000600082015250565b6000613df06015836133f5565b9150613dfb82613dba565b602082019050919050565b60006020820190508181036000830152613e1f81613de3565b9050919050565b7f496e76616c696420646174657300000000000000000000000000000000000000600082015250565b6000613e5c600d836133f5565b9150613e6782613e26565b602082019050919050565b60006020820190508181036000830152613e8b81613e4f565b9050919050565b60008190508160005260206000209050919050565b60006020601f8301049050919050565b600082821b905092915050565b600060088302613ef47fffffffffffffffffffffffffffffffffffffffffffffffffffffffffffffffff82613eb7565b613efe8683613eb7565b95508019841693508086168417925050509392505050565b6000819050919050565b6000613f3b613f36613f3184612f61565b613f16565b612f61565b9050919050565b6000819050919050565b613f5583613f20565b613f69613f6182613f42565b848454613ec4565b825550505050565b600090565b613f7e613f71565b613f89818484613f4c565b505050565b5b81811015613fad57613fa2600082613f76565b600181019050613f8f565b5050565b601f821115613ff257613fc381613e92565b613fcc84613ea7565b81016020851015613fdb578190505b613fef613fe785613ea7565b830182613f8e565b50505b505050565b600082821c905092915050565b600061401560001984600802613ff7565b1980831691505092915050565b600061402e8383614004565b9150826002028217905092915050565b61404782613016565b67ffffffffffffffff8111156140605761405f612d65565b5b61406a82546139a7565b614075828285613fb1565b600060209050601f8311600181146140a85760008415614096578287015190505b6140a08582614022565b865550614108565b601f1984166140b686613e92565b60005b828110156140de578489015182556001820191506020850194506020810190506140b9565b868310156140fb57848901516140f7601f891682614004565b8355505b6001600288020188555050505b505050505050565b60006040820190506141256000830185612f0b565b81810360208301526141378184613406565b90509392505050565b7f54656e64657220697320616c726561647920696e616374697665000000000000600082015250565b6000614176601a836133f5565b915061418182614140565b602082019050919050565b600060208201905081810360008301526141a581614169565b9050919050565b7f416c7265616479206d61726b65642061732070656e64696e6700000000000000600082015250565b60006141e26019836133f5565b91506141ed826141ac565b602082019050919050565b60006020820190508181036000830152614211816141d5565b905091905056fea264697066735822122053aaeefdd8f64cae6385c35ad600db5b49333bdf71a034c92b290ec9eeb69b9964736f6c634300081c0033",
  "linkReferences": {},
  "deployedLinkReferences": {}
}