{
  "_format": "hh-sol-artifact-1",
  "contractName": "TenderManager",
  "sourceName": "contracts/TenderManager.sol",
  "abi": [
    {
      "anonymous": false,
      "inputs": [
        {
          "indexed": true,
          "internalType": "string",
          "name": "tenderId",
          "type": "string"
        },
        {
          "indexed": false,
          "internalType": "address",
          "name": "participant",
          "type": "address"
        }
      ],
      "name": "ParticipantAdded",
      "type": "event"
    },
    {
      "anonymous": false,
      "inputs": [
        {
          "indexed": true,
          "internalType": "string",
          "name": "tenderId",
          "type": "string"
        },
        {
          "indexed": false,
          "internalType": "address",
          "name": "owner",
          "type": "address"
        },
        {
          "indexed": false,
          "internalType": "string",
          "name": "name",
          "type": "string"
        }
      ],
      "name": "TenderCreated",
      "type": "event"
    },
    {
      "anonymous": false,
      "inputs": [
        {
          "indexed": true,
          "internalType": "string",
          "name": "tenderId",
          "type": "string"
        },
        {
          "indexed": false,
          "internalType": "address",
          "name": "winner",
          "type": "address"
        }
      ],
      "name": "WinnerSelected",
      "type": "event"
    },
    {
      "inputs": [
        {
          "internalType": "string",
          "name": "tenderId",
          "type": "string"
        },
        {
          "internalType": "address",
          "name": "owner",
          "type": "address"
        },
        {
          "internalType": "address",
          "name": "participant",
          "type": "address"
        }
      ],
      "name": "addParticipant",
      "outputs": [],
      "stateMutability": "nonpayable",
      "type": "function"
    },
    {
      "inputs": [
        {
          "internalType": "string",
          "name": "tenderId",
          "type": "string"
        },
        {
          "internalType": "address",
          "name": "participant",
          "type": "address"
        }
      ],
      "name": "addPendingParticipant",
      "outputs": [],
      "stateMutability": "nonpayable",
      "type": "function"
    },
    {
      "inputs": [
        {
          "internalType": "uint256",
          "name": "",
          "type": "uint256"
        }
      ],
      "name": "allTenderIds",
      "outputs": [
        {
          "internalType": "string",
          "name": "",
          "type": "string"
        }
      ],
      "stateMutability": "view",
      "type": "function"
    },
    {
      "inputs": [
        {
          "internalType": "string",
          "name": "tenderId",
          "type": "string"
        },
        {
          "internalType": "string",
          "name": "name",
          "type": "string"
        },
        {
          "internalType": "string",
          "name": "description",
          "type": "string"
        },
        {
          "internalType": "uint256",
          "name": "startDate",
          "type": "uint256"
        },
        {
          "internalType": "uint256",
          "name": "endDate",
          "type": "uint256"
        },
        {
          "internalType": "address",
          "name": "owner",
          "type": "address"
        }
      ],
      "name": "createTender",
      "outputs": [],
      "stateMutability": "nonpayable",
      "type": "function"
    },
    {
      "inputs": [
        {
          "internalType": "uint256",
          "name": "page",
          "type": "uint256"
        },
        {
          "internalType": "uint256",
          "name": "pageSize",
          "type": "uint256"
        }
      ],
      "name": "getAllTenders",
      "outputs": [
        {
          "internalType": "string[]",
          "name": "tenderIds",
          "type": "string[]"
        },
        {
          "components": [
            {
              "internalType": "address",
              "name": "owner",
              "type": "address"
            },
            {
              "internalType": "string",
              "name": "name",
              "type": "string"
            },
            {
              "internalType": "string",
              "name": "description",
              "type": "string"
            },
            {
              "internalType": "uint256",
              "name": "startDate",
              "type": "uint256"
            },
            {
              "internalType": "uint256",
              "name": "endDate",
              "type": "uint256"
            },
            {
              "internalType": "address",
              "name": "winner",
              "type": "address"
            },
            {
              "internalType": "bool",
              "name": "isActive",
              "type": "bool"
            }
          ],
          "internalType": "struct TenderManager.Tender[]",
          "name": "tenderDetails",
          "type": "tuple[]"
        }
      ],
      "stateMutability": "view",
      "type": "function"
    },
    {
      "inputs": [
        {
          "internalType": "string",
          "name": "tenderId",
          "type": "string"
        }
      ],
      "name": "getOwner",
      "outputs": [
        {
          "internalType": "address",
          "name": "",
          "type": "address"
        }
      ],
      "stateMutability": "view",
      "type": "function"
    },
    {
      "inputs": [
        {
          "internalType": "string",
          "name": "tenderId",
          "type": "string"
        }
      ],
      "name": "getParticipants",
      "outputs": [
        {
          "internalType": "address[]",
          "name": "",
          "type": "address[]"
        }
      ],
      "stateMutability": "view",
      "type": "function"
    },
    {
      "inputs": [
        {
          "internalType": "string",
          "name": "tenderId",
          "type": "string"
        }
      ],
      "name": "getPendingParticipants",
      "outputs": [
        {
          "internalType": "address[]",
          "name": "",
          "type": "address[]"
        }
      ],
      "stateMutability": "view",
      "type": "function"
    },
    {
      "inputs": [
        {
          "internalType": "string",
          "name": "tenderId",
          "type": "string"
        }
      ],
      "name": "getTender",
      "outputs": [
        {
          "internalType": "address",
          "name": "owner",
          "type": "address"
        },
        {
          "internalType": "string",
          "name": "name",
          "type": "string"
        },
        {
          "internalType": "string",
          "name": "description",
          "type": "string"
        },
        {
          "internalType": "uint256",
          "name": "startDate",
          "type": "uint256"
        },
        {
          "internalType": "uint256",
          "name": "endDate",
          "type": "uint256"
        },
        {
          "internalType": "address",
          "name": "winner",
          "type": "address"
        },
        {
          "internalType": "bool",
          "name": "isActive",
          "type": "bool"
        }
      ],
      "stateMutability": "view",
      "type": "function"
    },
    {
      "inputs": [
        {
          "internalType": "address",
          "name": "owner",
          "type": "address"
        },
        {
          "internalType": "uint256",
          "name": "page",
          "type": "uint256"
        },
        {
          "internalType": "uint256",
          "name": "pageSize",
          "type": "uint256"
        }
      ],
      "name": "getTendersByOwner",
      "outputs": [
        {
          "internalType": "string[]",
          "name": "tenderIds",
          "type": "string[]"
        },
        {
          "components": [
            {
              "internalType": "address",
              "name": "owner",
              "type": "address"
            },
            {
              "internalType": "string",
              "name": "name",
              "type": "string"
            },
            {
              "internalType": "string",
              "name": "description",
              "type": "string"
            },
            {
              "internalType": "uint256",
              "name": "startDate",
              "type": "uint256"
            },
            {
              "internalType": "uint256",
              "name": "endDate",
              "type": "uint256"
            },
            {
              "internalType": "address",
              "name": "winner",
              "type": "address"
            },
            {
              "internalType": "bool",
              "name": "isActive",
              "type": "bool"
            }
          ],
          "internalType": "struct TenderManager.Tender[]",
          "name": "tenderDetails",
          "type": "tuple[]"
        }
      ],
      "stateMutability": "view",
      "type": "function"
    },
    {
      "inputs": [
        {
          "internalType": "string",
          "name": "tenderId",
          "type": "string"
        },
        {
          "internalType": "address",
          "name": "participant",
          "type": "address"
        }
      ],
      "name": "isParticipant",
      "outputs": [
        {
          "internalType": "bool",
          "name": "",
          "type": "bool"
        }
      ],
      "stateMutability": "view",
      "type": "function"
    },
    {
      "inputs": [
        {
          "internalType": "string",
          "name": "tenderId",
          "type": "string"
        },
        {
          "internalType": "address",
          "name": "participant",
          "type": "address"
        }
      ],
      "name": "isPendingParticipant",
      "outputs": [
        {
          "internalType": "bool",
          "name": "",
          "type": "bool"
        }
      ],
      "stateMutability": "view",
      "type": "function"
    },
    {
      "inputs": [
        {
          "internalType": "address",
          "name": "",
          "type": "address"
        },
        {
          "internalType": "uint256",
          "name": "",
          "type": "uint256"
        }
      ],
      "name": "ownerTenderIds",
      "outputs": [
        {
          "internalType": "string",
          "name": "",
          "type": "string"
        }
      ],
      "stateMutability": "view",
      "type": "function"
    },
    {
      "inputs": [
        {
          "internalType": "string",
          "name": "",
          "type": "string"
        },
        {
          "internalType": "address",
          "name": "",
          "type": "address"
        }
      ],
      "name": "participants",
      "outputs": [
        {
          "internalType": "bool",
          "name": "",
          "type": "bool"
        }
      ],
      "stateMutability": "view",
      "type": "function"
    },
    {
      "inputs": [
        {
          "internalType": "string",
          "name": "",
          "type": "string"
        },
        {
          "internalType": "address",
          "name": "",
          "type": "address"
        }
      ],
      "name": "pendingParticipants",
      "outputs": [
        {
          "internalType": "bool",
          "name": "",
          "type": "bool"
        }
      ],
      "stateMutability": "view",
      "type": "function"
    },
    {
      "inputs": [
        {
          "internalType": "string",
          "name": "",
          "type": "string"
        },
        {
          "internalType": "uint256",
          "name": "",
          "type": "uint256"
        }
      ],
      "name": "pendingTenderParticipants",
      "outputs": [
        {
          "internalType": "address",
          "name": "",
          "type": "address"
        }
      ],
      "stateMutability": "view",
      "type": "function"
    },
    {
      "inputs": [
        {
          "internalType": "string",
          "name": "tenderId",
          "type": "string"
        },
        {
          "internalType": "address",
          "name": "owner",
          "type": "address"
        },
        {
          "internalType": "address",
          "name": "winner",
          "type": "address"
        }
      ],
      "name": "selectWinner",
      "outputs": [],
      "stateMutability": "nonpayable",
      "type": "function"
    },
    {
      "inputs": [
        {
          "internalType": "string",
          "name": "",
          "type": "string"
        },
        {
          "internalType": "uint256",
          "name": "",
          "type": "uint256"
        }
      ],
      "name": "tenderParticipants",
      "outputs": [
        {
          "internalType": "address",
          "name": "",
          "type": "address"
        }
      ],
      "stateMutability": "view",
      "type": "function"
    },
    {
      "inputs": [
        {
          "internalType": "string",
          "name": "",
          "type": "string"
        }
      ],
      "name": "tenderToOwner",
      "outputs": [
        {
          "internalType": "address",
          "name": "",
          "type": "address"
        }
      ],
      "stateMutability": "view",
      "type": "function"
    },
    {
      "inputs": [
        {
          "internalType": "address",
          "name": "",
          "type": "address"
        },
        {
          "internalType": "string",
          "name": "",
          "type": "string"
        }
      ],
      "name": "tenders",
      "outputs": [
        {
          "internalType": "address",
          "name": "owner",
          "type": "address"
        },
        {
          "internalType": "string",
          "name": "name",
          "type": "string"
        },
        {
          "internalType": "string",
          "name": "description",
          "type": "string"
        },
        {
          "internalType": "uint256",
          "name": "startDate",
          "type": "uint256"
        },
        {
          "internalType": "uint256",
          "name": "endDate",
          "type": "uint256"
        },
        {
          "internalType": "address",
          "name": "winner",
          "type": "address"
        },
        {
          "internalType": "bool",
          "name": "isActive",
          "type": "bool"
        }
      ],
      "stateMutability": "view",
      "type": "function"
    }
  ],
  "bytecode": "0x6080604052348015600f57600080fd5b506141e18061001f6000396000f3fe608060405234801561001057600080fd5b506004361061012c5760003560e01c8063839544b0116100ad578063d3d3657511610071578063d3d36575146103d3578063deaf492014610403578063e4afd7c014610433578063e713406814610463578063fa3b72b01461047f5761012c565b8063839544b0146102f0578063a686f23914610320578063b38d97ef14610351578063bcdabc091461036d578063bff2eeed1461039d5761012c565b80634756331e116100f45780634756331e146101fa5780634aaf4a121461022a57806362f058c81461025a5780637e90def714610290578063810374aa146102c05761012c565b8063148381381461013157806326307abb1461016157806326c85c3f1461019257806329138ccc146101c25780632989ce01146101de575b600080fd5b61014b60048036038101906101469190612e23565b6104af565b6040516101589190612ead565b60405180910390f35b61017b60048036038101906101769190612f2a565b6104f8565b60405161018992919061325c565b60405180910390f35b6101ac60048036038101906101a79190613293565b610a77565b6040516101b991906132fe565b60405180910390f35b6101dc60048036038101906101d79190613319565b610abc565b005b6101f860048036038101906101f39190613319565b610fa9565b005b610214600480360381019061020f9190613293565b611644565b60405161022191906132fe565b60405180910390f35b610244600480360381019061023f9190612e23565b6116b7565b6040516102519190612ead565b60405180910390f35b610274600480360381019061026f9190612e23565b6116ff565b60405161028797969594939291906133e1565b60405180910390f35b6102aa60048036038101906102a59190612e23565b611a62565b6040516102b7919061350d565b60405180910390f35b6102da60048036038101906102d5919061352f565b611bbb565b6040516102e7919061355c565b60405180910390f35b61030a60048036038101906103059190612e23565b611c67565b604051610317919061350d565b60405180910390f35b61033a6004803603810190610335919061357e565b611dc0565b60405161034892919061325c565b60405180910390f35b61036b600480360381019061036691906135be565b6122cb565b005b61038760048036038101906103829190613293565b612616565b60405161039491906132fe565b60405180910390f35b6103b760048036038101906103b2919061369f565b61265b565b6040516103ca97969594939291906133e1565b60405180910390f35b6103ed60048036038101906103e891906136fb565b61281d565b6040516103fa9190612ead565b60405180910390f35b61041d60048036038101906104189190613757565b612881565b60405161042a919061355c565b60405180910390f35b61044d60048036038101906104489190613293565b61293a565b60405161045a91906132fe565b60405180910390f35b61047d60048036038101906104789190613293565b6129ad565b005b610499600480360381019061049491906136fb565b612bfa565b6040516104a69190612ead565b60405180910390f35b6005818051602081018201805184825260208301602085012081835280955050505050506000915054906101000a900473ffffffffffffffffffffffffffffffffffffffff1681565b6060806000841161053e576040517f08c379a0000000000000000000000000000000000000000000000000000000008152600401610535906137e3565b60405180910390fd5b60008360018661054e9190613832565b6105589190613866565b90506000848261056891906138a8565b9050600460008873ffffffffffffffffffffffffffffffffffffffff1673ffffffffffffffffffffffffffffffffffffffff168152602001908152602001600020805490508111156105fa57600460008873ffffffffffffffffffffffffffffffffffffffff1673ffffffffffffffffffffffffffffffffffffffff1681526020019081526020016000208054905090505b600082826106089190613832565b90508067ffffffffffffffff81111561062457610623612cf8565b5b60405190808252806020026020018201604052801561065757816020015b60608152602001906001900390816106425790505b5094508067ffffffffffffffff81111561067457610673612cf8565b5b6040519080825280602002602001820160405280156106ad57816020015b61069a612c5e565b8152602001906001900390816106925790505b50935060008390505b82811015610a6b576000600460008b73ffffffffffffffffffffffffffffffffffffffff1673ffffffffffffffffffffffffffffffffffffffff1681526020019081526020016000208281548110610711576107106138dc565b5b9060005260206000200180546107269061393a565b80601f01602080910402602001604051908101604052809291908181526020018280546107529061393a565b801561079f5780601f106107745761010080835404028352916020019161079f565b820191906000526020600020905b81548152906001019060200180831161078257829003601f168201915b50505050509050808786846107b49190613832565b815181106107c5576107c46138dc565b5b60200260200101819052506000808b73ffffffffffffffffffffffffffffffffffffffff1673ffffffffffffffffffffffffffffffffffffffff1681526020019081526020016000208160405161081c91906139a7565b90815260200160405180910390206040518060e00160405290816000820160009054906101000a900473ffffffffffffffffffffffffffffffffffffffff1673ffffffffffffffffffffffffffffffffffffffff1673ffffffffffffffffffffffffffffffffffffffff16815260200160018201805461089b9061393a565b80601f01602080910402602001604051908101604052809291908181526020018280546108c79061393a565b80156109145780601f106108e957610100808354040283529160200191610914565b820191906000526020600020905b8154815290600101906020018083116108f757829003601f168201915b5050505050815260200160028201805461092d9061393a565b80601f01602080910402602001604051908101604052809291908181526020018280546109599061393a565b80156109a65780601f1061097b576101008083540402835291602001916109a6565b820191906000526020600020905b81548152906001019060200180831161098957829003601f168201915b5050505050815260200160038201548152602001600482015481526020016005820160009054906101000a900473ffffffffffffffffffffffffffffffffffffffff1673ffffffffffffffffffffffffffffffffffffffff1673ffffffffffffffffffffffffffffffffffffffff1681526020016005820160149054906101000a900460ff161515151581525050868684610a419190613832565b81518110610a5257610a516138dc565b5b60200260200101819052505080806001019150506106b6565b50505050935093915050565b6002828051602081018201805184825260208301602085012081835280955050505050506020528060005260406000206000915091509054906101000a900460ff1681565b8173ffffffffffffffffffffffffffffffffffffffff16600584604051610ae391906139a7565b908152602001604051809103902060009054906101000a900473ffffffffffffffffffffffffffffffffffffffff1673ffffffffffffffffffffffffffffffffffffffff1614610b68576040517f08c379a0000000000000000000000000000000000000000000000000000000008152600401610b5f90613a0a565b60405180910390fd5b6000808373ffffffffffffffffffffffffffffffffffffffff1673ffffffffffffffffffffffffffffffffffffffff16815260200190815260200160002083604051610bb491906139a7565b908152602001604051809103902060050160149054906101000a900460ff16610c12576040517f08c379a0000000000000000000000000000000000000000000000000000000008152600401610c0990613a76565b60405180910390fd5b6000808373ffffffffffffffffffffffffffffffffffffffff1673ffffffffffffffffffffffffffffffffffffffff16815260200190815260200160002083604051610c5e91906139a7565b9081526020016040518091039020600401544211610cb1576040517f08c379a0000000000000000000000000000000000000000000000000000000008152600401610ca890613ae2565b60405180910390fd5b600183604051610cc191906139a7565b908152602001604051809103902060008273ffffffffffffffffffffffffffffffffffffffff1673ffffffffffffffffffffffffffffffffffffffff16815260200190815260200160002060009054906101000a900460ff16610d59576040517f08c379a0000000000000000000000000000000000000000000000000000000008152600401610d5090613b4e565b60405180910390fd5b600073ffffffffffffffffffffffffffffffffffffffff166000808473ffffffffffffffffffffffffffffffffffffffff1673ffffffffffffffffffffffffffffffffffffffff16815260200190815260200160002084604051610dbd91906139a7565b908152602001604051809103902060050160009054906101000a900473ffffffffffffffffffffffffffffffffffffffff1673ffffffffffffffffffffffffffffffffffffffff1614610e45576040517f08c379a0000000000000000000000000000000000000000000000000000000008152600401610e3c90613bba565b60405180910390fd5b806000808473ffffffffffffffffffffffffffffffffffffffff1673ffffffffffffffffffffffffffffffffffffffff16815260200190815260200160002084604051610e9291906139a7565b908152602001604051809103902060050160006101000a81548173ffffffffffffffffffffffffffffffffffffffff021916908373ffffffffffffffffffffffffffffffffffffffff16021790555060008060008473ffffffffffffffffffffffffffffffffffffffff1673ffffffffffffffffffffffffffffffffffffffff16815260200190815260200160002084604051610f2f91906139a7565b908152602001604051809103902060050160146101000a81548160ff02191690831515021790555082604051610f6591906139a7565b60405180910390207f8994284d793c65b1b90ec6dbc9452b1d2ac013d68ca9bc8fd0744306533c838582604051610f9c9190612ead565b60405180910390a2505050565b8173ffffffffffffffffffffffffffffffffffffffff16600584604051610fd091906139a7565b908152602001604051809103902060009054906101000a900473ffffffffffffffffffffffffffffffffffffffff1673ffffffffffffffffffffffffffffffffffffffff1614611055576040517f08c379a000000000000000000000000000000000000000000000000000000000815260040161104c90613c26565b60405180910390fd5b6000808373ffffffffffffffffffffffffffffffffffffffff1673ffffffffffffffffffffffffffffffffffffffff168152602001908152602001600020836040516110a191906139a7565b908152602001604051809103902060050160149054906101000a900460ff166110ff576040517f08c379a00000000000000000000000000000000000000000000000000000000081526004016110f690613a76565b60405180910390fd5b6000808373ffffffffffffffffffffffffffffffffffffffff1673ffffffffffffffffffffffffffffffffffffffff1681526020019081526020016000208360405161114b91906139a7565b90815260200160405180910390206003015442101561119f576040517f08c379a000000000000000000000000000000000000000000000000000000000815260040161119690613c92565b60405180910390fd5b6000808373ffffffffffffffffffffffffffffffffffffffff1673ffffffffffffffffffffffffffffffffffffffff168152602001908152602001600020836040516111eb91906139a7565b90815260200160405180910390206004015442111561123f576040517f08c379a000000000000000000000000000000000000000000000000000000000815260040161123690613cfe565b60405180910390fd5b60018360405161124f91906139a7565b908152602001604051809103902060008273ffffffffffffffffffffffffffffffffffffffff1673ffffffffffffffffffffffffffffffffffffffff16815260200190815260200160002060009054906101000a900460ff16156112e8576040517f08c379a00000000000000000000000000000000000000000000000000000000081526004016112df90613d6a565b60405180910390fd5b60006002846040516112fa91906139a7565b908152602001604051809103902060008373ffffffffffffffffffffffffffffffffffffffff1673ffffffffffffffffffffffffffffffffffffffff16815260200190815260200160002060006101000a81548160ff0219169083151502179055506001808460405161136d91906139a7565b908152602001604051809103902060008373ffffffffffffffffffffffffffffffffffffffff1673ffffffffffffffffffffffffffffffffffffffff16815260200190815260200160002060006101000a81548160ff0219169083151502179055506006836040516113df91906139a7565b9081526020016040518091039020819080600181540180825580915050600190039060005260206000200160009091909190916101000a81548173ffffffffffffffffffffffffffffffffffffffff021916908373ffffffffffffffffffffffffffffffffffffffff160217905550600060078460405161146091906139a7565b9081526020016040518091039020905060005b81805490508110156115f0578273ffffffffffffffffffffffffffffffffffffffff168282815481106114a9576114a86138dc565b5b9060005260206000200160009054906101000a900473ffffffffffffffffffffffffffffffffffffffff1673ffffffffffffffffffffffffffffffffffffffff16036115e35781600183805490506115019190613832565b81548110611512576115116138dc565b5b9060005260206000200160009054906101000a900473ffffffffffffffffffffffffffffffffffffffff168282815481106115505761154f6138dc565b5b9060005260206000200160006101000a81548173ffffffffffffffffffffffffffffffffffffffff021916908373ffffffffffffffffffffffffffffffffffffffff160217905550818054806115a9576115a8613d8a565b5b6001900381819060005260206000200160006101000a81549073ffffffffffffffffffffffffffffffffffffffff021916905590556115f0565b8080600101915050611473565b50836040516115ff91906139a7565b60405180910390207fdb0be6c9d7f59ad13d477d017b40888888caa620afad19a1738b77c2998175c5836040516116369190612ead565b60405180910390a250505050565b600060018360405161165691906139a7565b908152602001604051809103902060008373ffffffffffffffffffffffffffffffffffffffff1673ffffffffffffffffffffffffffffffffffffffff16815260200190815260200160002060009054906101000a900460ff16905092915050565b60006005826040516116c991906139a7565b908152602001604051809103902060009054906101000a900473ffffffffffffffffffffffffffffffffffffffff169050919050565b6000606080600080600080600060058960405161171c91906139a7565b908152602001604051809103902060009054906101000a900473ffffffffffffffffffffffffffffffffffffffff169050600073ffffffffffffffffffffffffffffffffffffffff168173ffffffffffffffffffffffffffffffffffffffff16036117bc576040517f08c379a00000000000000000000000000000000000000000000000000000000081526004016117b390613e05565b60405180910390fd5b60008060008373ffffffffffffffffffffffffffffffffffffffff1673ffffffffffffffffffffffffffffffffffffffff1681526020019081526020016000208a60405161180a91906139a7565b90815260200160405180910390206040518060e00160405290816000820160009054906101000a900473ffffffffffffffffffffffffffffffffffffffff1673ffffffffffffffffffffffffffffffffffffffff1673ffffffffffffffffffffffffffffffffffffffff1681526020016001820180546118899061393a565b80601f01602080910402602001604051908101604052809291908181526020018280546118b59061393a565b80156119025780601f106118d757610100808354040283529160200191611902565b820191906000526020600020905b8154815290600101906020018083116118e557829003601f168201915b5050505050815260200160028201805461191b9061393a565b80601f01602080910402602001604051908101604052809291908181526020018280546119479061393a565b80156119945780601f1061196957610100808354040283529160200191611994565b820191906000526020600020905b81548152906001019060200180831161197757829003601f168201915b5050505050815260200160038201548152602001600482015481526020016005820160009054906101000a900473ffffffffffffffffffffffffffffffffffffffff1673ffffffffffffffffffffffffffffffffffffffff1673ffffffffffffffffffffffffffffffffffffffff1681526020016005820160149054906101000a900460ff1615151515815250509050806000015181602001518260400151836060015184608001518560a001518660c0015198509850985098509850985098505050919395979092949650565b6060600073ffffffffffffffffffffffffffffffffffffffff16600583604051611a8c91906139a7565b908152602001604051809103902060009054906101000a900473ffffffffffffffffffffffffffffffffffffffff1673ffffffffffffffffffffffffffffffffffffffff1603611b11576040517f08c379a0000000000000000000000000000000000000000000000000000000008152600401611b0890613e05565b60405180910390fd5b600682604051611b2191906139a7565b9081526020016040518091039020805480602002602001604051908101604052809291908181526020018280548015611baf57602002820191906000526020600020905b8160009054906101000a900473ffffffffffffffffffffffffffffffffffffffff1673ffffffffffffffffffffffffffffffffffffffff1681526020019060010190808311611b65575b50505050509050919050565b60038181548110611bcb57600080fd5b906000526020600020016000915090508054611be69061393a565b80601f0160208091040260200160405190810160405280929190818152602001828054611c129061393a565b8015611c5f5780601f10611c3457610100808354040283529160200191611c5f565b820191906000526020600020905b815481529060010190602001808311611c4257829003601f168201915b505050505081565b6060600073ffffffffffffffffffffffffffffffffffffffff16600583604051611c9191906139a7565b908152602001604051809103902060009054906101000a900473ffffffffffffffffffffffffffffffffffffffff1673ffffffffffffffffffffffffffffffffffffffff1603611d16576040517f08c379a0000000000000000000000000000000000000000000000000000000008152600401611d0d90613e05565b60405180910390fd5b600782604051611d2691906139a7565b9081526020016040518091039020805480602002602001604051908101604052809291908181526020018280548015611db457602002820191906000526020600020905b8160009054906101000a900473ffffffffffffffffffffffffffffffffffffffff1673ffffffffffffffffffffffffffffffffffffffff1681526020019060010190808311611d6a575b50505050509050919050565b60608060008411611e06576040517f08c379a0000000000000000000000000000000000000000000000000000000008152600401611dfd906137e3565b60405180910390fd5b600083600186611e169190613832565b611e209190613866565b905060008482611e3091906138a8565b9050600380549050811115611e485760038054905090505b60008282611e569190613832565b90508067ffffffffffffffff811115611e7257611e71612cf8565b5b604051908082528060200260200182016040528015611ea557816020015b6060815260200190600190039081611e905790505b5094508067ffffffffffffffff811115611ec257611ec1612cf8565b5b604051908082528060200260200182016040528015611efb57816020015b611ee8612c5e565b815260200190600190039081611ee05790505b50935060008390505b828110156122c057600060038281548110611f2257611f216138dc565b5b906000526020600020018054611f379061393a565b80601f0160208091040260200160405190810160405280929190818152602001828054611f639061393a565b8015611fb05780601f10611f8557610100808354040283529160200191611fb0565b820191906000526020600020905b815481529060010190602001808311611f9357829003601f168201915b505050505090506000600582604051611fc991906139a7565b908152602001604051809103902060009054906101000a900473ffffffffffffffffffffffffffffffffffffffff169050818887856120089190613832565b81518110612019576120186138dc565b5b60200260200101819052506000808273ffffffffffffffffffffffffffffffffffffffff1673ffffffffffffffffffffffffffffffffffffffff1681526020019081526020016000208260405161207091906139a7565b90815260200160405180910390206040518060e00160405290816000820160009054906101000a900473ffffffffffffffffffffffffffffffffffffffff1673ffffffffffffffffffffffffffffffffffffffff1673ffffffffffffffffffffffffffffffffffffffff1681526020016001820180546120ef9061393a565b80601f016020809104026020016040519081016040528092919081815260200182805461211b9061393a565b80156121685780601f1061213d57610100808354040283529160200191612168565b820191906000526020600020905b81548152906001019060200180831161214b57829003601f168201915b505050505081526020016002820180546121819061393a565b80601f01602080910402602001604051908101604052809291908181526020018280546121ad9061393a565b80156121fa5780601f106121cf576101008083540402835291602001916121fa565b820191906000526020600020905b8154815290600101906020018083116121dd57829003601f168201915b5050505050815260200160038201548152602001600482015481526020016005820160009054906101000a900473ffffffffffffffffffffffffffffffffffffffff1673ffffffffffffffffffffffffffffffffffffffff1673ffffffffffffffffffffffffffffffffffffffff1681526020016005820160149054906101000a900460ff1615151515815250508787856122959190613832565b815181106122a6576122a56138dc565b5b602002602001018190525050508080600101915050611f04565b505050509250929050565b81831061230d576040517f08c379a000000000000000000000000000000000000000000000000000000000815260040161230490613e71565b60405180910390fd5b6040518060e001604052808273ffffffffffffffffffffffffffffffffffffffff168152602001868152602001858152602001848152602001838152602001600073ffffffffffffffffffffffffffffffffffffffff168152602001600115158152506000808373ffffffffffffffffffffffffffffffffffffffff1673ffffffffffffffffffffffffffffffffffffffff168152602001908152602001600020876040516123bc91906139a7565b908152602001604051809103902060008201518160000160006101000a81548173ffffffffffffffffffffffffffffffffffffffff021916908373ffffffffffffffffffffffffffffffffffffffff1602179055506020820151816001019081612426919061403d565b50604082015181600201908161243c919061403d565b50606082015181600301556080820151816004015560a08201518160050160006101000a81548173ffffffffffffffffffffffffffffffffffffffff021916908373ffffffffffffffffffffffffffffffffffffffff16021790555060c08201518160050160146101000a81548160ff0219169083151502179055509050506003869080600181540180825580915050600190039060005260206000200160009091909190915090816124ef919061403d565b50600460008273ffffffffffffffffffffffffffffffffffffffff1673ffffffffffffffffffffffffffffffffffffffff16815260200190815260200160002086908060018154018082558091505060019003906000526020600020016000909190919091509081612561919061403d565b508060058760405161257391906139a7565b908152602001604051809103902060006101000a81548173ffffffffffffffffffffffffffffffffffffffff021916908373ffffffffffffffffffffffffffffffffffffffff160217905550856040516125cd91906139a7565b60405180910390207f10f30d26994b06c43518f78b2ffb972b3fc75c88abe841e2c04cb05807d79052828760405161260692919061410f565b60405180910390a2505050505050565b6001828051602081018201805184825260208301602085012081835280955050505050506020528060005260406000206000915091509054906101000a900460ff1681565b600060205281600052604060002081805160208101820180518482526020830160208501208183528095505050505050600091509150508060000160009054906101000a900473ffffffffffffffffffffffffffffffffffffffff16908060010180546126c79061393a565b80601f01602080910402602001604051908101604052809291908181526020018280546126f39061393a565b80156127405780601f1061271557610100808354040283529160200191612740565b820191906000526020600020905b81548152906001019060200180831161272357829003601f168201915b5050505050908060020180546127559061393a565b80601f01602080910402602001604051908101604052809291908181526020018280546127819061393a565b80156127ce5780601f106127a3576101008083540402835291602001916127ce565b820191906000526020600020905b8154815290600101906020018083116127b157829003601f168201915b5050505050908060030154908060040154908060050160009054906101000a900473ffffffffffffffffffffffffffffffffffffffff16908060050160149054906101000a900460ff16905087565b600782805160208101820180518482526020830160208501208183528095505050505050818154811061284f57600080fd5b906000526020600020016000915091509054906101000a900473ffffffffffffffffffffffffffffffffffffffff1681565b6004602052816000526040600020818154811061289d57600080fd5b906000526020600020016000915091505080546128b99061393a565b80601f01602080910402602001604051908101604052809291908181526020018280546128e59061393a565b80156129325780601f1061290757610100808354040283529160200191612932565b820191906000526020600020905b81548152906001019060200180831161291557829003601f168201915b505050505081565b600060028360405161294c91906139a7565b908152602001604051809103902060008373ffffffffffffffffffffffffffffffffffffffff1673ffffffffffffffffffffffffffffffffffffffff16815260200190815260200160002060009054906101000a900460ff16905092915050565b600073ffffffffffffffffffffffffffffffffffffffff166005836040516129d591906139a7565b908152602001604051809103902060009054906101000a900473ffffffffffffffffffffffffffffffffffffffff1673ffffffffffffffffffffffffffffffffffffffff1603612a5a576040517f08c379a0000000000000000000000000000000000000000000000000000000008152600401612a5190613e05565b60405180910390fd5b600282604051612a6a91906139a7565b908152602001604051809103902060008273ffffffffffffffffffffffffffffffffffffffff1673ffffffffffffffffffffffffffffffffffffffff16815260200190815260200160002060009054906101000a900460ff1615612b03576040517f08c379a0000000000000000000000000000000000000000000000000000000008152600401612afa9061418b565b60405180910390fd5b6001600283604051612b1591906139a7565b908152602001604051809103902060008373ffffffffffffffffffffffffffffffffffffffff1673ffffffffffffffffffffffffffffffffffffffff16815260200190815260200160002060006101000a81548160ff021916908315150217905550600782604051612b8791906139a7565b9081526020016040518091039020819080600181540180825580915050600190039060005260206000200160009091909190916101000a81548173ffffffffffffffffffffffffffffffffffffffff021916908373ffffffffffffffffffffffffffffffffffffffff1602179055505050565b6006828051602081018201805184825260208301602085012081835280955050505050508181548110612c2c57600080fd5b906000526020600020016000915091509054906101000a900473ffffffffffffffffffffffffffffffffffffffff1681565b6040518060e00160405280600073ffffffffffffffffffffffffffffffffffffffff16815260200160608152602001606081526020016000815260200160008152602001600073ffffffffffffffffffffffffffffffffffffffff1681526020016000151581525090565b6000604051905090565b600080fd5b600080fd5b600080fd5b600080fd5b6000601f19601f8301169050919050565b7f4e487b7100000000000000000000000000000000000000000000000000000000600052604160045260246000fd5b612d3082612ce7565b810181811067ffffffffffffffff82111715612d4f57612d4e612cf8565b5b80604052505050565b6000612d62612cc9565b9050612d6e8282612d27565b919050565b600067ffffffffffffffff821115612d8e57612d8d612cf8565b5b612d9782612ce7565b9050602081019050919050565b82818337600083830152505050565b6000612dc6612dc184612d73565b612d58565b905082815260208101848484011115612de257612de1612ce2565b5b612ded848285612da4565b509392505050565b600082601f830112612e0a57612e09612cdd565b5b8135612e1a848260208601612db3565b91505092915050565b600060208284031215612e3957612e38612cd3565b5b600082013567ffffffffffffffff811115612e5757612e56612cd8565b5b612e6384828501612df5565b91505092915050565b600073ffffffffffffffffffffffffffffffffffffffff82169050919050565b6000612e9782612e6c565b9050919050565b612ea781612e8c565b82525050565b6000602082019050612ec26000830184612e9e565b92915050565b612ed181612e8c565b8114612edc57600080fd5b50565b600081359050612eee81612ec8565b92915050565b6000819050919050565b612f0781612ef4565b8114612f1257600080fd5b50565b600081359050612f2481612efe565b92915050565b600080600060608486031215612f4357612f42612cd3565b5b6000612f5186828701612edf565b9350506020612f6286828701612f15565b9250506040612f7386828701612f15565b9150509250925092565b600081519050919050565b600082825260208201905092915050565b6000819050602082019050919050565b600081519050919050565b600082825260208201905092915050565b60005b83811015612fe3578082015181840152602081019050612fc8565b60008484015250505050565b6000612ffa82612fa9565b6130048185612fb4565b9350613014818560208601612fc5565b61301d81612ce7565b840191505092915050565b60006130348383612fef565b905092915050565b6000602082019050919050565b600061305482612f7d565b61305e8185612f88565b93508360208202850161307085612f99565b8060005b858110156130ac578484038952815161308d8582613028565b94506130988361303c565b925060208a01995050600181019050613074565b50829750879550505050505092915050565b600081519050919050565b600082825260208201905092915050565b6000819050602082019050919050565b6130f381612e8c565b82525050565b61310281612ef4565b82525050565b60008115159050919050565b61311d81613108565b82525050565b600060e08301600083015161313b60008601826130ea565b50602083015184820360208601526131538282612fef565b9150506040830151848203604086015261316d8282612fef565b915050606083015161318260608601826130f9565b50608083015161319560808601826130f9565b5060a08301516131a860a08601826130ea565b5060c08301516131bb60c0860182613114565b508091505092915050565b60006131d28383613123565b905092915050565b6000602082019050919050565b60006131f2826130be565b6131fc81856130c9565b93508360208202850161320e856130da565b8060005b8581101561324a578484038952815161322b85826131c6565b9450613236836131da565b925060208a01995050600181019050613212565b50829750879550505050505092915050565b600060408201905081810360008301526132768185613049565b9050818103602083015261328a81846131e7565b90509392505050565b600080604083850312156132aa576132a9612cd3565b5b600083013567ffffffffffffffff8111156132c8576132c7612cd8565b5b6132d485828601612df5565b92505060206132e585828601612edf565b9150509250929050565b6132f881613108565b82525050565b600060208201905061331360008301846132ef565b92915050565b60008060006060848603121561333257613331612cd3565b5b600084013567ffffffffffffffff8111156133505761334f612cd8565b5b61335c86828701612df5565b935050602061336d86828701612edf565b925050604061337e86828701612edf565b9150509250925092565b600082825260208201905092915050565b60006133a482612fa9565b6133ae8185613388565b93506133be818560208601612fc5565b6133c781612ce7565b840191505092915050565b6133db81612ef4565b82525050565b600060e0820190506133f6600083018a612e9e565b81810360208301526134088189613399565b9050818103604083015261341c8188613399565b905061342b60608301876133d2565b61343860808301866133d2565b61344560a0830185612e9e565b61345260c08301846132ef565b98975050505050505050565b600081519050919050565b600082825260208201905092915050565b6000819050602082019050919050565b600061349683836130ea565b60208301905092915050565b6000602082019050919050565b60006134ba8261345e565b6134c48185613469565b93506134cf8361347a565b8060005b838110156135005781516134e7888261348a565b97506134f2836134a2565b9250506001810190506134d3565b5085935050505092915050565b6000602082019050818103600083015261352781846134af565b905092915050565b60006020828403121561354557613544612cd3565b5b600061355384828501612f15565b91505092915050565b600060208201905081810360008301526135768184613399565b905092915050565b6000806040838503121561359557613594612cd3565b5b60006135a385828601612f15565b92505060206135b485828601612f15565b9150509250929050565b60008060008060008060c087890312156135db576135da612cd3565b5b600087013567ffffffffffffffff8111156135f9576135f8612cd8565b5b61360589828a01612df5565b965050602087013567ffffffffffffffff81111561362657613625612cd8565b5b61363289828a01612df5565b955050604087013567ffffffffffffffff81111561365357613652612cd8565b5b61365f89828a01612df5565b945050606061367089828a01612f15565b935050608061368189828a01612f15565b92505060a061369289828a01612edf565b9150509295509295509295565b600080604083850312156136b6576136b5612cd3565b5b60006136c485828601612edf565b925050602083013567ffffffffffffffff8111156136e5576136e4612cd8565b5b6136f185828601612df5565b9150509250929050565b6000806040838503121561371257613711612cd3565b5b600083013567ffffffffffffffff8111156137305761372f612cd8565b5b61373c85828601612df5565b925050602061374d85828601612f15565b9150509250929050565b6000806040838503121561376e5761376d612cd3565b5b600061377c85828601612edf565b925050602061378d85828601612f15565b9150509250929050565b7f50616765206d7573742062652067726561746572207468616e20300000000000600082015250565b60006137cd601b83613388565b91506137d882613797565b602082019050919050565b600060208201905081810360008301526137fc816137c0565b9050919050565b7f4e487b7100000000000000000000000000000000000000000000000000000000600052601160045260246000fd5b600061383d82612ef4565b915061384883612ef4565b92508282039050818111156138605761385f613803565b5b92915050565b600061387182612ef4565b915061387c83612ef4565b925082820261388a81612ef4565b915082820484148315176138a1576138a0613803565b5b5092915050565b60006138b382612ef4565b91506138be83612ef4565b92508282019050808211156138d6576138d5613803565b5b92915050565b7f4e487b7100000000000000000000000000000000000000000000000000000000600052603260045260246000fd5b7f4e487b7100000000000000000000000000000000000000000000000000000000600052602260045260246000fd5b6000600282049050600182168061395257607f821691505b6020821081036139655761396461390b565b5b50919050565b600081905092915050565b600061398182612fa9565b61398b818561396b565b935061399b818560208601612fc5565b80840191505092915050565b60006139b38284613976565b915081905092915050565b7f4f6e6c79206f776e65722063616e2073656c6563742077696e6e657200000000600082015250565b60006139f4601c83613388565b91506139ff826139be565b602082019050919050565b60006020820190508181036000830152613a23816139e7565b9050919050565b7f54656e646572206973206e6f7420616374697665000000000000000000000000600082015250565b6000613a60601483613388565b9150613a6b82613a2a565b602082019050919050565b60006020820190508181036000830152613a8f81613a53565b9050919050565b7f54656e64657220686173206e6f7420656e646564000000000000000000000000600082015250565b6000613acc601483613388565b9150613ad782613a96565b602082019050919050565b60006020820190508181036000830152613afb81613abf565b9050919050565b7f57696e6e6572206d7573742062652061207061727469636970616e7400000000600082015250565b6000613b38601c83613388565b9150613b4382613b02565b602082019050919050565b60006020820190508181036000830152613b6781613b2b565b9050919050565b7f57696e6e657220616c72656164792073656c6563746564000000000000000000600082015250565b6000613ba4601783613388565b9150613baf82613b6e565b602082019050919050565b60006020820190508181036000830152613bd381613b97565b9050919050565b7f4f6e6c79206f776e65722063616e20616464207061727469636970616e747300600082015250565b6000613c10601f83613388565b9150613c1b82613bda565b602082019050919050565b60006020820190508181036000830152613c3f81613c03565b9050919050565b7f54656e64657220686173206e6f74207374617274656400000000000000000000600082015250565b6000613c7c601683613388565b9150613c8782613c46565b602082019050919050565b60006020820190508181036000830152613cab81613c6f565b9050919050565b7f54656e6465722068617320656e64656400000000000000000000000000000000600082015250565b6000613ce8601083613388565b9150613cf382613cb2565b602082019050919050565b60006020820190508181036000830152613d1781613cdb565b9050919050565b7f416c72656164792061207061727469636970616e740000000000000000000000600082015250565b6000613d54601583613388565b9150613d5f82613d1e565b602082019050919050565b60006020820190508181036000830152613d8381613d47565b9050919050565b7f4e487b7100000000000000000000000000000000000000000000000000000000600052603160045260246000fd5b7f54656e64657220646f6573206e6f742065786973740000000000000000000000600082015250565b6000613def601583613388565b9150613dfa82613db9565b602082019050919050565b60006020820190508181036000830152613e1e81613de2565b9050919050565b7f496e76616c696420646174657300000000000000000000000000000000000000600082015250565b6000613e5b600d83613388565b9150613e6682613e25565b602082019050919050565b60006020820190508181036000830152613e8a81613e4e565b9050919050565b60008190508160005260206000209050919050565b60006020601f8301049050919050565b600082821b905092915050565b600060088302613ef37fffffffffffffffffffffffffffffffffffffffffffffffffffffffffffffffff82613eb6565b613efd8683613eb6565b95508019841693508086168417925050509392505050565b6000819050919050565b6000613f3a613f35613f3084612ef4565b613f15565b612ef4565b9050919050565b6000819050919050565b613f5483613f1f565b613f68613f6082613f41565b848454613ec3565b825550505050565b600090565b613f7d613f70565b613f88818484613f4b565b505050565b5b81811015613fac57613fa1600082613f75565b600181019050613f8e565b5050565b601f821115613ff157613fc281613e91565b613fcb84613ea6565b81016020851015613fda578190505b613fee613fe685613ea6565b830182613f8d565b50505b505050565b600082821c905092915050565b600061401460001984600802613ff6565b1980831691505092915050565b600061402d8383614003565b9150826002028217905092915050565b61404682612fa9565b67ffffffffffffffff81111561405f5761405e612cf8565b5b614069825461393a565b614074828285613fb0565b600060209050601f8311600181146140a75760008415614095578287015190505b61409f8582614021565b865550614107565b601f1984166140b586613e91565b60005b828110156140dd578489015182556001820191506020850194506020810190506140b8565b868310156140fa57848901516140f6601f891682614003565b8355505b6001600288020188555050505b505050505050565b60006040820190506141246000830185612e9e565b81810360208301526141368184613399565b90509392505050565b7f416c7265616479206d61726b65642061732070656e64696e6700000000000000600082015250565b6000614175601983613388565b91506141808261413f565b602082019050919050565b600060208201905081810360008301526141a481614168565b905091905056fea26469706673582212200de4d1755f44752c1ddbe6f7ac923fe715e7a4a689bb52ff30e1009861f442a864736f6c634300081c0033",
  "linkReferences": {},
  "deployedLinkReferences": {}
}