{
  "_format": "hh-sol-artifact-1",
  "contractName": "TenderManager",
  "sourceName": "contracts/TenderManager.sol",
  "abi": [
    {
      "anonymous": false,
      "inputs": [
        {
          "indexed": true,
          "internalType": "string",
          "name": "tenderId",
          "type": "string"
        },
        {
          "indexed": false,
          "internalType": "address",
          "name": "participant",
          "type": "address"
        }
      ],
      "name": "ParticipantAdded",
      "type": "event"
    },
    {
      "anonymous": false,
      "inputs": [
        {
          "indexed": true,
          "internalType": "string",
          "name": "tenderId",
          "type": "string"
        },
        {
          "indexed": false,
          "internalType": "address",
          "name": "owner",
          "type": "address"
        },
        {
          "indexed": false,
          "internalType": "string",
          "name": "name",
          "type": "string"
        }
      ],
      "name": "TenderCreated",
      "type": "event"
    },
    {
      "anonymous": false,
      "inputs": [
        {
          "indexed": true,
          "internalType": "string",
          "name": "tenderId",
          "type": "string"
        },
        {
          "indexed": false,
          "internalType": "address",
          "name": "winner",
          "type": "address"
        }
      ],
      "name": "WinnerSelected",
      "type": "event"
    },
    {
      "inputs": [
        {
          "internalType": "string",
          "name": "tenderId",
          "type": "string"
        },
        {
          "internalType": "address",
          "name": "owner",
          "type": "address"
        },
        {
          "internalType": "address",
          "name": "participant",
          "type": "address"
        }
      ],
      "name": "addParticipant",
      "outputs": [],
      "stateMutability": "nonpayable",
      "type": "function"
    },
    {
      "inputs": [
        {
          "internalType": "uint256",
          "name": "",
          "type": "uint256"
        }
      ],
      "name": "allTenderIds",
      "outputs": [
        {
          "internalType": "string",
          "name": "",
          "type": "string"
        }
      ],
      "stateMutability": "view",
      "type": "function"
    },
    {
      "inputs": [
        {
          "internalType": "string",
          "name": "tenderId",
          "type": "string"
        },
        {
          "internalType": "string",
          "name": "name",
          "type": "string"
        },
        {
          "internalType": "string",
          "name": "description",
          "type": "string"
        },
        {
          "internalType": "uint256",
          "name": "startDate",
          "type": "uint256"
        },
        {
          "internalType": "uint256",
          "name": "endDate",
          "type": "uint256"
        },
        {
          "internalType": "address",
          "name": "owner",
          "type": "address"
        }
      ],
      "name": "createTender",
      "outputs": [],
      "stateMutability": "nonpayable",
      "type": "function"
    },
    {
      "inputs": [
        {
          "internalType": "uint256",
          "name": "page",
          "type": "uint256"
        },
        {
          "internalType": "uint256",
          "name": "pageSize",
          "type": "uint256"
        }
      ],
      "name": "getAllTenders",
      "outputs": [
        {
          "internalType": "string[]",
          "name": "tenderIds",
          "type": "string[]"
        },
        {
          "components": [
            {
              "internalType": "address",
              "name": "owner",
              "type": "address"
            },
            {
              "internalType": "string",
              "name": "name",
              "type": "string"
            },
            {
              "internalType": "string",
              "name": "description",
              "type": "string"
            },
            {
              "internalType": "uint256",
              "name": "startDate",
              "type": "uint256"
            },
            {
              "internalType": "uint256",
              "name": "endDate",
              "type": "uint256"
            },
            {
              "internalType": "address",
              "name": "winner",
              "type": "address"
            },
            {
              "internalType": "bool",
              "name": "isActive",
              "type": "bool"
            }
          ],
          "internalType": "struct TenderManager.Tender[]",
          "name": "tenderDetails",
          "type": "tuple[]"
        }
      ],
      "stateMutability": "view",
      "type": "function"
    },
    {
      "inputs": [
        {
          "internalType": "string",
          "name": "tenderId",
          "type": "string"
        }
      ],
      "name": "getOwner",
      "outputs": [
        {
          "internalType": "address",
          "name": "",
          "type": "address"
        }
      ],
      "stateMutability": "view",
      "type": "function"
    },
    {
      "inputs": [
        {
          "internalType": "string",
          "name": "tenderId",
          "type": "string"
        }
      ],
      "name": "getParticipants",
      "outputs": [
        {
          "internalType": "address[]",
          "name": "",
          "type": "address[]"
        }
      ],
      "stateMutability": "view",
      "type": "function"
    },
    {
      "inputs": [
        {
          "internalType": "string",
          "name": "tenderId",
          "type": "string"
        }
      ],
      "name": "getTender",
      "outputs": [
        {
          "internalType": "address",
          "name": "owner",
          "type": "address"
        },
        {
          "internalType": "string",
          "name": "name",
          "type": "string"
        },
        {
          "internalType": "string",
          "name": "description",
          "type": "string"
        },
        {
          "internalType": "uint256",
          "name": "startDate",
          "type": "uint256"
        },
        {
          "internalType": "uint256",
          "name": "endDate",
          "type": "uint256"
        },
        {
          "internalType": "address",
          "name": "winner",
          "type": "address"
        },
        {
          "internalType": "bool",
          "name": "isActive",
          "type": "bool"
        }
      ],
      "stateMutability": "view",
      "type": "function"
    },
    {
      "inputs": [
        {
          "internalType": "address",
          "name": "owner",
          "type": "address"
        },
        {
          "internalType": "uint256",
          "name": "page",
          "type": "uint256"
        },
        {
          "internalType": "uint256",
          "name": "pageSize",
          "type": "uint256"
        }
      ],
      "name": "getTendersByOwner",
      "outputs": [
        {
          "internalType": "string[]",
          "name": "tenderIds",
          "type": "string[]"
        },
        {
          "components": [
            {
              "internalType": "address",
              "name": "owner",
              "type": "address"
            },
            {
              "internalType": "string",
              "name": "name",
              "type": "string"
            },
            {
              "internalType": "string",
              "name": "description",
              "type": "string"
            },
            {
              "internalType": "uint256",
              "name": "startDate",
              "type": "uint256"
            },
            {
              "internalType": "uint256",
              "name": "endDate",
              "type": "uint256"
            },
            {
              "internalType": "address",
              "name": "winner",
              "type": "address"
            },
            {
              "internalType": "bool",
              "name": "isActive",
              "type": "bool"
            }
          ],
          "internalType": "struct TenderManager.Tender[]",
          "name": "tenderDetails",
          "type": "tuple[]"
        }
      ],
      "stateMutability": "view",
      "type": "function"
    },
    {
      "inputs": [
        {
          "internalType": "string",
          "name": "tenderId",
          "type": "string"
        },
        {
          "internalType": "address",
          "name": "participant",
          "type": "address"
        }
      ],
      "name": "isParticipant",
      "outputs": [
        {
          "internalType": "bool",
          "name": "",
          "type": "bool"
        }
      ],
      "stateMutability": "view",
      "type": "function"
    },
    {
      "inputs": [
        {
          "internalType": "address",
          "name": "",
          "type": "address"
        },
        {
          "internalType": "uint256",
          "name": "",
          "type": "uint256"
        }
      ],
      "name": "ownerTenderIds",
      "outputs": [
        {
          "internalType": "string",
          "name": "",
          "type": "string"
        }
      ],
      "stateMutability": "view",
      "type": "function"
    },
    {
      "inputs": [
        {
          "internalType": "string",
          "name": "",
          "type": "string"
        },
        {
          "internalType": "address",
          "name": "",
          "type": "address"
        }
      ],
      "name": "participants",
      "outputs": [
        {
          "internalType": "bool",
          "name": "",
          "type": "bool"
        }
      ],
      "stateMutability": "view",
      "type": "function"
    },
    {
      "inputs": [
        {
          "internalType": "string",
          "name": "tenderId",
          "type": "string"
        },
        {
          "internalType": "address",
          "name": "owner",
          "type": "address"
        },
        {
          "internalType": "address",
          "name": "winner",
          "type": "address"
        }
      ],
      "name": "selectWinner",
      "outputs": [],
      "stateMutability": "nonpayable",
      "type": "function"
    },
    {
      "inputs": [
        {
          "internalType": "string",
          "name": "",
          "type": "string"
        },
        {
          "internalType": "uint256",
          "name": "",
          "type": "uint256"
        }
      ],
      "name": "tenderParticipants",
      "outputs": [
        {
          "internalType": "address",
          "name": "",
          "type": "address"
        }
      ],
      "stateMutability": "view",
      "type": "function"
    },
    {
      "inputs": [
        {
          "internalType": "string",
          "name": "",
          "type": "string"
        }
      ],
      "name": "tenderToOwner",
      "outputs": [
        {
          "internalType": "address",
          "name": "",
          "type": "address"
        }
      ],
      "stateMutability": "view",
      "type": "function"
    },
    {
      "inputs": [
        {
          "internalType": "address",
          "name": "",
          "type": "address"
        },
        {
          "internalType": "string",
          "name": "",
          "type": "string"
        }
      ],
      "name": "tenders",
      "outputs": [
        {
          "internalType": "address",
          "name": "owner",
          "type": "address"
        },
        {
          "internalType": "string",
          "name": "name",
          "type": "string"
        },
        {
          "internalType": "string",
          "name": "description",
          "type": "string"
        },
        {
          "internalType": "uint256",
          "name": "startDate",
          "type": "uint256"
        },
        {
          "internalType": "uint256",
          "name": "endDate",
          "type": "uint256"
        },
        {
          "internalType": "address",
          "name": "winner",
          "type": "address"
        },
        {
          "internalType": "bool",
          "name": "isActive",
          "type": "bool"
        }
      ],
      "stateMutability": "view",
      "type": "function"
    }
  ],
  "bytecode": "0x6080604052348015600f57600080fd5b50613a078061001f6000396000f3fe608060405234801561001057600080fd5b50600436106100f55760003560e01c80637e90def711610097578063bcdabc0911610066578063bcdabc09146102d6578063bff2eeed14610306578063deaf49201461033c578063fa3b72b01461036c576100f5565b80637e90def714610229578063810374aa14610259578063a686f23914610289578063b38d97ef146102ba576100f5565b80632989ce01116100d35780632989ce01146101775780634756331e146101935780634aaf4a12146101c357806362f058c8146101f3576100f5565b806314838138146100fa57806326307abb1461012a57806329138ccc1461015b575b600080fd5b610114600480360381019061010f9190612678565b61039c565b6040516101219190612702565b60405180910390f35b610144600480360381019061013f919061277f565b6103e5565b604051610152929190612ab1565b60405180910390f35b61017560048036038101906101709190612ae8565b610964565b005b610191600480360381019061018c9190612ae8565b610e51565b005b6101ad60048036038101906101a89190612b57565b6112d4565b6040516101ba9190612bc2565b60405180910390f35b6101dd60048036038101906101d89190612678565b611347565b6040516101ea9190612702565b60405180910390f35b61020d60048036038101906102089190612678565b61138f565b6040516102209796959493929190612c36565b60405180910390f35b610243600480360381019061023e9190612678565b6116f2565b6040516102509190612d62565b60405180910390f35b610273600480360381019061026e9190612d84565b61184b565b6040516102809190612db1565b60405180910390f35b6102a3600480360381019061029e9190612dd3565b6118f7565b6040516102b1929190612ab1565b60405180910390f35b6102d460048036038101906102cf9190612e13565b611e02565b005b6102f060048036038101906102eb9190612b57565b61218f565b6040516102fd9190612bc2565b60405180910390f35b610320600480360381019061031b9190612ef4565b6121d4565b6040516103339796959493929190612c36565b60405180910390f35b61035660048036038101906103519190612f50565b612396565b6040516103639190612db1565b60405180910390f35b61038660048036038101906103819190612f90565b61244f565b6040516103939190612702565b60405180910390f35b6004818051602081018201805184825260208301602085012081835280955050505050506000915054906101000a900473ffffffffffffffffffffffffffffffffffffffff1681565b6060806000841161042b576040517f08c379a000000000000000000000000000000000000000000000000000000000815260040161042290613038565b60405180910390fd5b60008360018661043b9190613087565b61044591906130bb565b90506000848261045591906130fd565b9050600360008873ffffffffffffffffffffffffffffffffffffffff1673ffffffffffffffffffffffffffffffffffffffff168152602001908152602001600020805490508111156104e757600360008873ffffffffffffffffffffffffffffffffffffffff1673ffffffffffffffffffffffffffffffffffffffff1681526020019081526020016000208054905090505b600082826104f59190613087565b90508067ffffffffffffffff8111156105115761051061254d565b5b60405190808252806020026020018201604052801561054457816020015b606081526020019060019003908161052f5790505b5094508067ffffffffffffffff8111156105615761056061254d565b5b60405190808252806020026020018201604052801561059a57816020015b6105876124b3565b81526020019060019003908161057f5790505b50935060008390505b82811015610958576000600360008b73ffffffffffffffffffffffffffffffffffffffff1673ffffffffffffffffffffffffffffffffffffffff16815260200190815260200160002082815481106105fe576105fd613131565b5b9060005260206000200180546106139061318f565b80601f016020809104026020016040519081016040528092919081815260200182805461063f9061318f565b801561068c5780601f106106615761010080835404028352916020019161068c565b820191906000526020600020905b81548152906001019060200180831161066f57829003601f168201915b50505050509050808786846106a19190613087565b815181106106b2576106b1613131565b5b60200260200101819052506000808b73ffffffffffffffffffffffffffffffffffffffff1673ffffffffffffffffffffffffffffffffffffffff1681526020019081526020016000208160405161070991906131fc565b90815260200160405180910390206040518060e00160405290816000820160009054906101000a900473ffffffffffffffffffffffffffffffffffffffff1673ffffffffffffffffffffffffffffffffffffffff1673ffffffffffffffffffffffffffffffffffffffff1681526020016001820180546107889061318f565b80601f01602080910402602001604051908101604052809291908181526020018280546107b49061318f565b80156108015780601f106107d657610100808354040283529160200191610801565b820191906000526020600020905b8154815290600101906020018083116107e457829003601f168201915b5050505050815260200160028201805461081a9061318f565b80601f01602080910402602001604051908101604052809291908181526020018280546108469061318f565b80156108935780601f1061086857610100808354040283529160200191610893565b820191906000526020600020905b81548152906001019060200180831161087657829003601f168201915b5050505050815260200160038201548152602001600482015481526020016005820160009054906101000a900473ffffffffffffffffffffffffffffffffffffffff1673ffffffffffffffffffffffffffffffffffffffff1673ffffffffffffffffffffffffffffffffffffffff1681526020016005820160149054906101000a900460ff16151515158152505086868461092e9190613087565b8151811061093f5761093e613131565b5b60200260200101819052505080806001019150506105a3565b50505050935093915050565b8173ffffffffffffffffffffffffffffffffffffffff1660048460405161098b91906131fc565b908152602001604051809103902060009054906101000a900473ffffffffffffffffffffffffffffffffffffffff1673ffffffffffffffffffffffffffffffffffffffff1614610a10576040517f08c379a0000000000000000000000000000000000000000000000000000000008152600401610a079061325f565b60405180910390fd5b6000808373ffffffffffffffffffffffffffffffffffffffff1673ffffffffffffffffffffffffffffffffffffffff16815260200190815260200160002083604051610a5c91906131fc565b908152602001604051809103902060050160149054906101000a900460ff16610aba576040517f08c379a0000000000000000000000000000000000000000000000000000000008152600401610ab1906132cb565b60405180910390fd5b6000808373ffffffffffffffffffffffffffffffffffffffff1673ffffffffffffffffffffffffffffffffffffffff16815260200190815260200160002083604051610b0691906131fc565b9081526020016040518091039020600401544211610b59576040517f08c379a0000000000000000000000000000000000000000000000000000000008152600401610b5090613337565b60405180910390fd5b600183604051610b6991906131fc565b908152602001604051809103902060008273ffffffffffffffffffffffffffffffffffffffff1673ffffffffffffffffffffffffffffffffffffffff16815260200190815260200160002060009054906101000a900460ff16610c01576040517f08c379a0000000000000000000000000000000000000000000000000000000008152600401610bf8906133a3565b60405180910390fd5b600073ffffffffffffffffffffffffffffffffffffffff166000808473ffffffffffffffffffffffffffffffffffffffff1673ffffffffffffffffffffffffffffffffffffffff16815260200190815260200160002084604051610c6591906131fc565b908152602001604051809103902060050160009054906101000a900473ffffffffffffffffffffffffffffffffffffffff1673ffffffffffffffffffffffffffffffffffffffff1614610ced576040517f08c379a0000000000000000000000000000000000000000000000000000000008152600401610ce49061340f565b60405180910390fd5b806000808473ffffffffffffffffffffffffffffffffffffffff1673ffffffffffffffffffffffffffffffffffffffff16815260200190815260200160002084604051610d3a91906131fc565b908152602001604051809103902060050160006101000a81548173ffffffffffffffffffffffffffffffffffffffff021916908373ffffffffffffffffffffffffffffffffffffffff16021790555060008060008473ffffffffffffffffffffffffffffffffffffffff1673ffffffffffffffffffffffffffffffffffffffff16815260200190815260200160002084604051610dd791906131fc565b908152602001604051809103902060050160146101000a81548160ff02191690831515021790555082604051610e0d91906131fc565b60405180910390207f8994284d793c65b1b90ec6dbc9452b1d2ac013d68ca9bc8fd0744306533c838582604051610e449190612702565b60405180910390a2505050565b8173ffffffffffffffffffffffffffffffffffffffff16600484604051610e7891906131fc565b908152602001604051809103902060009054906101000a900473ffffffffffffffffffffffffffffffffffffffff1673ffffffffffffffffffffffffffffffffffffffff1614610efd576040517f08c379a0000000000000000000000000000000000000000000000000000000008152600401610ef49061347b565b60405180910390fd5b6000808373ffffffffffffffffffffffffffffffffffffffff1673ffffffffffffffffffffffffffffffffffffffff16815260200190815260200160002083604051610f4991906131fc565b908152602001604051809103902060050160149054906101000a900460ff16610fa7576040517f08c379a0000000000000000000000000000000000000000000000000000000008152600401610f9e906132cb565b60405180910390fd5b6000808373ffffffffffffffffffffffffffffffffffffffff1673ffffffffffffffffffffffffffffffffffffffff16815260200190815260200160002083604051610ff391906131fc565b908152602001604051809103902060030154421015611047576040517f08c379a000000000000000000000000000000000000000000000000000000000815260040161103e906134e7565b60405180910390fd5b6000808373ffffffffffffffffffffffffffffffffffffffff1673ffffffffffffffffffffffffffffffffffffffff1681526020019081526020016000208360405161109391906131fc565b9081526020016040518091039020600401544211156110e7576040517f08c379a00000000000000000000000000000000000000000000000000000000081526004016110de90613553565b60405180910390fd5b6001836040516110f791906131fc565b908152602001604051809103902060008273ffffffffffffffffffffffffffffffffffffffff1673ffffffffffffffffffffffffffffffffffffffff16815260200190815260200160002060009054906101000a900460ff1615611190576040517f08c379a0000000000000000000000000000000000000000000000000000000008152600401611187906135bf565b60405180910390fd5b600180846040516111a191906131fc565b908152602001604051809103902060008373ffffffffffffffffffffffffffffffffffffffff1673ffffffffffffffffffffffffffffffffffffffff16815260200190815260200160002060006101000a81548160ff02191690831515021790555060058360405161121391906131fc565b9081526020016040518091039020819080600181540180825580915050600190039060005260206000200160009091909190916101000a81548173ffffffffffffffffffffffffffffffffffffffff021916908373ffffffffffffffffffffffffffffffffffffffff1602179055508260405161129091906131fc565b60405180910390207fdb0be6c9d7f59ad13d477d017b40888888caa620afad19a1738b77c2998175c5826040516112c79190612702565b60405180910390a2505050565b60006001836040516112e691906131fc565b908152602001604051809103902060008373ffffffffffffffffffffffffffffffffffffffff1673ffffffffffffffffffffffffffffffffffffffff16815260200190815260200160002060009054906101000a900460ff16905092915050565b600060048260405161135991906131fc565b908152602001604051809103902060009054906101000a900473ffffffffffffffffffffffffffffffffffffffff169050919050565b600060608060008060008060006004896040516113ac91906131fc565b908152602001604051809103902060009054906101000a900473ffffffffffffffffffffffffffffffffffffffff169050600073ffffffffffffffffffffffffffffffffffffffff168173ffffffffffffffffffffffffffffffffffffffff160361144c576040517f08c379a00000000000000000000000000000000000000000000000000000000081526004016114439061362b565b60405180910390fd5b60008060008373ffffffffffffffffffffffffffffffffffffffff1673ffffffffffffffffffffffffffffffffffffffff1681526020019081526020016000208a60405161149a91906131fc565b90815260200160405180910390206040518060e00160405290816000820160009054906101000a900473ffffffffffffffffffffffffffffffffffffffff1673ffffffffffffffffffffffffffffffffffffffff1673ffffffffffffffffffffffffffffffffffffffff1681526020016001820180546115199061318f565b80601f01602080910402602001604051908101604052809291908181526020018280546115459061318f565b80156115925780601f1061156757610100808354040283529160200191611592565b820191906000526020600020905b81548152906001019060200180831161157557829003601f168201915b505050505081526020016002820180546115ab9061318f565b80601f01602080910402602001604051908101604052809291908181526020018280546115d79061318f565b80156116245780601f106115f957610100808354040283529160200191611624565b820191906000526020600020905b81548152906001019060200180831161160757829003601f168201915b5050505050815260200160038201548152602001600482015481526020016005820160009054906101000a900473ffffffffffffffffffffffffffffffffffffffff1673ffffffffffffffffffffffffffffffffffffffff1673ffffffffffffffffffffffffffffffffffffffff1681526020016005820160149054906101000a900460ff1615151515815250509050806000015181602001518260400151836060015184608001518560a001518660c0015198509850985098509850985098505050919395979092949650565b6060600073ffffffffffffffffffffffffffffffffffffffff1660048360405161171c91906131fc565b908152602001604051809103902060009054906101000a900473ffffffffffffffffffffffffffffffffffffffff1673ffffffffffffffffffffffffffffffffffffffff16036117a1576040517f08c379a00000000000000000000000000000000000000000000000000000000081526004016117989061362b565b60405180910390fd5b6005826040516117b191906131fc565b908152602001604051809103902080548060200260200160405190810160405280929190818152602001828054801561183f57602002820191906000526020600020905b8160009054906101000a900473ffffffffffffffffffffffffffffffffffffffff1673ffffffffffffffffffffffffffffffffffffffff16815260200190600101908083116117f5575b50505050509050919050565b6002818154811061185b57600080fd5b9060005260206000200160009150905080546118769061318f565b80601f01602080910402602001604051908101604052809291908181526020018280546118a29061318f565b80156118ef5780601f106118c4576101008083540402835291602001916118ef565b820191906000526020600020905b8154815290600101906020018083116118d257829003601f168201915b505050505081565b6060806000841161193d576040517f08c379a000000000000000000000000000000000000000000000000000000000815260040161193490613038565b60405180910390fd5b60008360018661194d9190613087565b61195791906130bb565b90506000848261196791906130fd565b905060028054905081111561197f5760028054905090505b6000828261198d9190613087565b90508067ffffffffffffffff8111156119a9576119a861254d565b5b6040519080825280602002602001820160405280156119dc57816020015b60608152602001906001900390816119c75790505b5094508067ffffffffffffffff8111156119f9576119f861254d565b5b604051908082528060200260200182016040528015611a3257816020015b611a1f6124b3565b815260200190600190039081611a175790505b50935060008390505b82811015611df757600060028281548110611a5957611a58613131565b5b906000526020600020018054611a6e9061318f565b80601f0160208091040260200160405190810160405280929190818152602001828054611a9a9061318f565b8015611ae75780601f10611abc57610100808354040283529160200191611ae7565b820191906000526020600020905b815481529060010190602001808311611aca57829003601f168201915b505050505090506000600482604051611b0091906131fc565b908152602001604051809103902060009054906101000a900473ffffffffffffffffffffffffffffffffffffffff16905081888785611b3f9190613087565b81518110611b5057611b4f613131565b5b60200260200101819052506000808273ffffffffffffffffffffffffffffffffffffffff1673ffffffffffffffffffffffffffffffffffffffff16815260200190815260200160002082604051611ba791906131fc565b90815260200160405180910390206040518060e00160405290816000820160009054906101000a900473ffffffffffffffffffffffffffffffffffffffff1673ffffffffffffffffffffffffffffffffffffffff1673ffffffffffffffffffffffffffffffffffffffff168152602001600182018054611c269061318f565b80601f0160208091040260200160405190810160405280929190818152602001828054611c529061318f565b8015611c9f5780601f10611c7457610100808354040283529160200191611c9f565b820191906000526020600020905b815481529060010190602001808311611c8257829003601f168201915b50505050508152602001600282018054611cb89061318f565b80601f0160208091040260200160405190810160405280929190818152602001828054611ce49061318f565b8015611d315780601f10611d0657610100808354040283529160200191611d31565b820191906000526020600020905b815481529060010190602001808311611d1457829003601f168201915b5050505050815260200160038201548152602001600482015481526020016005820160009054906101000a900473ffffffffffffffffffffffffffffffffffffffff1673ffffffffffffffffffffffffffffffffffffffff1673ffffffffffffffffffffffffffffffffffffffff1681526020016005820160149054906101000a900460ff161515151581525050878785611dcc9190613087565b81518110611ddd57611ddc613131565b5b602002602001018190525050508080600101915050611a3b565b505050509250929050565b818310611e44576040517f08c379a0000000000000000000000000000000000000000000000000000000008152600401611e3b90613697565b60405180910390fd5b428311611e86576040517f08c379a0000000000000000000000000000000000000000000000000000000008152600401611e7d90613703565b60405180910390fd5b6040518060e001604052808273ffffffffffffffffffffffffffffffffffffffff168152602001868152602001858152602001848152602001838152602001600073ffffffffffffffffffffffffffffffffffffffff168152602001600115158152506000808373ffffffffffffffffffffffffffffffffffffffff1673ffffffffffffffffffffffffffffffffffffffff16815260200190815260200160002087604051611f3591906131fc565b908152602001604051809103902060008201518160000160006101000a81548173ffffffffffffffffffffffffffffffffffffffff021916908373ffffffffffffffffffffffffffffffffffffffff1602179055506020820151816001019081611f9f91906138cf565b506040820151816002019081611fb591906138cf565b50606082015181600301556080820151816004015560a08201518160050160006101000a81548173ffffffffffffffffffffffffffffffffffffffff021916908373ffffffffffffffffffffffffffffffffffffffff16021790555060c08201518160050160146101000a81548160ff02191690831515021790555090505060028690806001815401808255809150506001900390600052602060002001600090919091909150908161206891906138cf565b50600360008273ffffffffffffffffffffffffffffffffffffffff1673ffffffffffffffffffffffffffffffffffffffff168152602001908152602001600020869080600181540180825580915050600190039060005260206000200160009091909190915090816120da91906138cf565b50806004876040516120ec91906131fc565b908152602001604051809103902060006101000a81548173ffffffffffffffffffffffffffffffffffffffff021916908373ffffffffffffffffffffffffffffffffffffffff1602179055508560405161214691906131fc565b60405180910390207f10f30d26994b06c43518f78b2ffb972b3fc75c88abe841e2c04cb05807d79052828760405161217f9291906139a1565b60405180910390a2505050505050565b6001828051602081018201805184825260208301602085012081835280955050505050506020528060005260406000206000915091509054906101000a900460ff1681565b600060205281600052604060002081805160208101820180518482526020830160208501208183528095505050505050600091509150508060000160009054906101000a900473ffffffffffffffffffffffffffffffffffffffff16908060010180546122409061318f565b80601f016020809104026020016040519081016040528092919081815260200182805461226c9061318f565b80156122b95780601f1061228e576101008083540402835291602001916122b9565b820191906000526020600020905b81548152906001019060200180831161229c57829003601f168201915b5050505050908060020180546122ce9061318f565b80601f01602080910402602001604051908101604052809291908181526020018280546122fa9061318f565b80156123475780601f1061231c57610100808354040283529160200191612347565b820191906000526020600020905b81548152906001019060200180831161232a57829003601f168201915b5050505050908060030154908060040154908060050160009054906101000a900473ffffffffffffffffffffffffffffffffffffffff16908060050160149054906101000a900460ff16905087565b600360205281600052604060002081815481106123b257600080fd5b906000526020600020016000915091505080546123ce9061318f565b80601f01602080910402602001604051908101604052809291908181526020018280546123fa9061318f565b80156124475780601f1061241c57610100808354040283529160200191612447565b820191906000526020600020905b81548152906001019060200180831161242a57829003601f168201915b505050505081565b600582805160208101820180518482526020830160208501208183528095505050505050818154811061248157600080fd5b906000526020600020016000915091509054906101000a900473ffffffffffffffffffffffffffffffffffffffff1681565b6040518060e00160405280600073ffffffffffffffffffffffffffffffffffffffff16815260200160608152602001606081526020016000815260200160008152602001600073ffffffffffffffffffffffffffffffffffffffff1681526020016000151581525090565b6000604051905090565b600080fd5b600080fd5b600080fd5b600080fd5b6000601f19601f8301169050919050565b7f4e487b7100000000000000000000000000000000000000000000000000000000600052604160045260246000fd5b6125858261253c565b810181811067ffffffffffffffff821117156125a4576125a361254d565b5b80604052505050565b60006125b761251e565b90506125c3828261257c565b919050565b600067ffffffffffffffff8211156125e3576125e261254d565b5b6125ec8261253c565b9050602081019050919050565b82818337600083830152505050565b600061261b612616846125c8565b6125ad565b90508281526020810184848401111561263757612636612537565b5b6126428482856125f9565b509392505050565b600082601f83011261265f5761265e612532565b5b813561266f848260208601612608565b91505092915050565b60006020828403121561268e5761268d612528565b5b600082013567ffffffffffffffff8111156126ac576126ab61252d565b5b6126b88482850161264a565b91505092915050565b600073ffffffffffffffffffffffffffffffffffffffff82169050919050565b60006126ec826126c1565b9050919050565b6126fc816126e1565b82525050565b600060208201905061271760008301846126f3565b92915050565b612726816126e1565b811461273157600080fd5b50565b6000813590506127438161271d565b92915050565b6000819050919050565b61275c81612749565b811461276757600080fd5b50565b60008135905061277981612753565b92915050565b60008060006060848603121561279857612797612528565b5b60006127a686828701612734565b93505060206127b78682870161276a565b92505060406127c88682870161276a565b9150509250925092565b600081519050919050565b600082825260208201905092915050565b6000819050602082019050919050565b600081519050919050565b600082825260208201905092915050565b60005b8381101561283857808201518184015260208101905061281d565b60008484015250505050565b600061284f826127fe565b6128598185612809565b935061286981856020860161281a565b6128728161253c565b840191505092915050565b60006128898383612844565b905092915050565b6000602082019050919050565b60006128a9826127d2565b6128b381856127dd565b9350836020820285016128c5856127ee565b8060005b8581101561290157848403895281516128e2858261287d565b94506128ed83612891565b925060208a019950506001810190506128c9565b50829750879550505050505092915050565b600081519050919050565b600082825260208201905092915050565b6000819050602082019050919050565b612948816126e1565b82525050565b61295781612749565b82525050565b60008115159050919050565b6129728161295d565b82525050565b600060e083016000830151612990600086018261293f565b50602083015184820360208601526129a88282612844565b915050604083015184820360408601526129c28282612844565b91505060608301516129d7606086018261294e565b5060808301516129ea608086018261294e565b5060a08301516129fd60a086018261293f565b5060c0830151612a1060c0860182612969565b508091505092915050565b6000612a278383612978565b905092915050565b6000602082019050919050565b6000612a4782612913565b612a51818561291e565b935083602082028501612a638561292f565b8060005b85811015612a9f5784840389528151612a808582612a1b565b9450612a8b83612a2f565b925060208a01995050600181019050612a67565b50829750879550505050505092915050565b60006040820190508181036000830152612acb818561289e565b90508181036020830152612adf8184612a3c565b90509392505050565b600080600060608486031215612b0157612b00612528565b5b600084013567ffffffffffffffff811115612b1f57612b1e61252d565b5b612b2b8682870161264a565b9350506020612b3c86828701612734565b9250506040612b4d86828701612734565b9150509250925092565b60008060408385031215612b6e57612b6d612528565b5b600083013567ffffffffffffffff811115612b8c57612b8b61252d565b5b612b988582860161264a565b9250506020612ba985828601612734565b9150509250929050565b612bbc8161295d565b82525050565b6000602082019050612bd76000830184612bb3565b92915050565b600082825260208201905092915050565b6000612bf9826127fe565b612c038185612bdd565b9350612c1381856020860161281a565b612c1c8161253c565b840191505092915050565b612c3081612749565b82525050565b600060e082019050612c4b600083018a6126f3565b8181036020830152612c5d8189612bee565b90508181036040830152612c718188612bee565b9050612c806060830187612c27565b612c8d6080830186612c27565b612c9a60a08301856126f3565b612ca760c0830184612bb3565b98975050505050505050565b600081519050919050565b600082825260208201905092915050565b6000819050602082019050919050565b6000612ceb838361293f565b60208301905092915050565b6000602082019050919050565b6000612d0f82612cb3565b612d198185612cbe565b9350612d2483612ccf565b8060005b83811015612d55578151612d3c8882612cdf565b9750612d4783612cf7565b925050600181019050612d28565b5085935050505092915050565b60006020820190508181036000830152612d7c8184612d04565b905092915050565b600060208284031215612d9a57612d99612528565b5b6000612da88482850161276a565b91505092915050565b60006020820190508181036000830152612dcb8184612bee565b905092915050565b60008060408385031215612dea57612de9612528565b5b6000612df88582860161276a565b9250506020612e098582860161276a565b9150509250929050565b60008060008060008060c08789031215612e3057612e2f612528565b5b600087013567ffffffffffffffff811115612e4e57612e4d61252d565b5b612e5a89828a0161264a565b965050602087013567ffffffffffffffff811115612e7b57612e7a61252d565b5b612e8789828a0161264a565b955050604087013567ffffffffffffffff811115612ea857612ea761252d565b5b612eb489828a0161264a565b9450506060612ec589828a0161276a565b9350506080612ed689828a0161276a565b92505060a0612ee789828a01612734565b9150509295509295509295565b60008060408385031215612f0b57612f0a612528565b5b6000612f1985828601612734565b925050602083013567ffffffffffffffff811115612f3a57612f3961252d565b5b612f468582860161264a565b9150509250929050565b60008060408385031215612f6757612f66612528565b5b6000612f7585828601612734565b9250506020612f868582860161276a565b9150509250929050565b60008060408385031215612fa757612fa6612528565b5b600083013567ffffffffffffffff811115612fc557612fc461252d565b5b612fd18582860161264a565b9250506020612fe28582860161276a565b9150509250929050565b7f50616765206d7573742062652067726561746572207468616e20300000000000600082015250565b6000613022601b83612bdd565b915061302d82612fec565b602082019050919050565b6000602082019050818103600083015261305181613015565b9050919050565b7f4e487b7100000000000000000000000000000000000000000000000000000000600052601160045260246000fd5b600061309282612749565b915061309d83612749565b92508282039050818111156130b5576130b4613058565b5b92915050565b60006130c682612749565b91506130d183612749565b92508282026130df81612749565b915082820484148315176130f6576130f5613058565b5b5092915050565b600061310882612749565b915061311383612749565b925082820190508082111561312b5761312a613058565b5b92915050565b7f4e487b7100000000000000000000000000000000000000000000000000000000600052603260045260246000fd5b7f4e487b7100000000000000000000000000000000000000000000000000000000600052602260045260246000fd5b600060028204905060018216806131a757607f821691505b6020821081036131ba576131b9613160565b5b50919050565b600081905092915050565b60006131d6826127fe565b6131e081856131c0565b93506131f081856020860161281a565b80840191505092915050565b600061320882846131cb565b915081905092915050565b7f4f6e6c79206f776e65722063616e2073656c6563742077696e6e657200000000600082015250565b6000613249601c83612bdd565b915061325482613213565b602082019050919050565b600060208201905081810360008301526132788161323c565b9050919050565b7f54656e646572206973206e6f7420616374697665000000000000000000000000600082015250565b60006132b5601483612bdd565b91506132c08261327f565b602082019050919050565b600060208201905081810360008301526132e4816132a8565b9050919050565b7f54656e64657220686173206e6f7420656e646564000000000000000000000000600082015250565b6000613321601483612bdd565b915061332c826132eb565b602082019050919050565b6000602082019050818103600083015261335081613314565b9050919050565b7f57696e6e6572206d7573742062652061207061727469636970616e7400000000600082015250565b600061338d601c83612bdd565b915061339882613357565b602082019050919050565b600060208201905081810360008301526133bc81613380565b9050919050565b7f57696e6e657220616c72656164792073656c6563746564000000000000000000600082015250565b60006133f9601783612bdd565b9150613404826133c3565b602082019050919050565b60006020820190508181036000830152613428816133ec565b9050919050565b7f4f6e6c79206f776e65722063616e20616464207061727469636970616e747300600082015250565b6000613465601f83612bdd565b91506134708261342f565b602082019050919050565b6000602082019050818103600083015261349481613458565b9050919050565b7f54656e64657220686173206e6f74207374617274656400000000000000000000600082015250565b60006134d1601683612bdd565b91506134dc8261349b565b602082019050919050565b60006020820190508181036000830152613500816134c4565b9050919050565b7f54656e6465722068617320656e64656400000000000000000000000000000000600082015250565b600061353d601083612bdd565b915061354882613507565b602082019050919050565b6000602082019050818103600083015261356c81613530565b9050919050565b7f416c72656164792061207061727469636970616e740000000000000000000000600082015250565b60006135a9601583612bdd565b91506135b482613573565b602082019050919050565b600060208201905081810360008301526135d88161359c565b9050919050565b7f54656e64657220646f6573206e6f742065786973740000000000000000000000600082015250565b6000613615601583612bdd565b9150613620826135df565b602082019050919050565b6000602082019050818103600083015261364481613608565b9050919050565b7f496e76616c696420646174657300000000000000000000000000000000000000600082015250565b6000613681600d83612bdd565b915061368c8261364b565b602082019050919050565b600060208201905081810360008301526136b081613674565b9050919050565b7f53746172742064617465206d75737420626520696e2074686520667574757265600082015250565b60006136ed602083612bdd565b91506136f8826136b7565b602082019050919050565b6000602082019050818103600083015261371c816136e0565b9050919050565b60008190508160005260206000209050919050565b60006020601f8301049050919050565b600082821b905092915050565b6000600883026137857fffffffffffffffffffffffffffffffffffffffffffffffffffffffffffffffff82613748565b61378f8683613748565b95508019841693508086168417925050509392505050565b6000819050919050565b60006137cc6137c76137c284612749565b6137a7565b612749565b9050919050565b6000819050919050565b6137e6836137b1565b6137fa6137f2826137d3565b848454613755565b825550505050565b600090565b61380f613802565b61381a8184846137dd565b505050565b5b8181101561383e57613833600082613807565b600181019050613820565b5050565b601f8211156138835761385481613723565b61385d84613738565b8101602085101561386c578190505b61388061387885613738565b83018261381f565b50505b505050565b600082821c905092915050565b60006138a660001984600802613888565b1980831691505092915050565b60006138bf8383613895565b9150826002028217905092915050565b6138d8826127fe565b67ffffffffffffffff8111156138f1576138f061254d565b5b6138fb825461318f565b613906828285613842565b600060209050601f8311600181146139395760008415613927578287015190505b61393185826138b3565b865550613999565b601f19841661394786613723565b60005b8281101561396f5784890151825560018201915060208501945060208101905061394a565b8683101561398c5784890151613988601f891682613895565b8355505b6001600288020188555050505b505050505050565b60006040820190506139b660008301856126f3565b81810360208301526139c88184612bee565b9050939250505056fea2646970667358221220043078f9af698e65bb84f23386655281b9db89037ec30a663fbb055b119720db64736f6c634300081c0033",
  "linkReferences": {},
  "deployedLinkReferences": {}
}