{
  "_format": "hh-sol-artifact-1",
  "contractName": "TenderManager",
  "sourceName": "contracts/TenderManager.sol",
  "abi": [
    {
      "anonymous": false,
      "inputs": [
        {
          "indexed": false,
          "internalType": "string",
          "name": "tenderId",
          "type": "string"
        },
        {
          "indexed": false,
          "internalType": "address",
          "name": "participant",
          "type": "address"
        },
        {
          "indexed": false,
          "internalType": "string",
          "name": "name",
          "type": "string"
        },
        {
          "indexed": false,
          "internalType": "string",
          "name": "email",
          "type": "string"
        },
        {
          "indexed": false,
          "internalType": "uint256",
          "name": "timestamp",
          "type": "uint256"
        }
      ],
      "name": "ParticipantAdded",
      "type": "event"
    },
    {
      "anonymous": false,
      "inputs": [
        {
          "indexed": false,
          "internalType": "string",
          "name": "tenderId",
          "type": "string"
        },
        {
          "indexed": false,
          "internalType": "address",
          "name": "participant",
          "type": "address"
        },
        {
          "indexed": false,
          "internalType": "string",
          "name": "name",
          "type": "string"
        },
        {
          "indexed": false,
          "internalType": "string",
          "name": "email",
          "type": "string"
        },
        {
          "indexed": false,
          "internalType": "uint256",
          "name": "timestamp",
          "type": "uint256"
        }
      ],
      "name": "PendingParticipantAdded",
      "type": "event"
    },
    {
      "anonymous": false,
      "inputs": [
        {
          "indexed": false,
          "internalType": "string",
          "name": "tenderId",
          "type": "string"
        },
        {
          "indexed": false,
          "internalType": "address",
          "name": "owner",
          "type": "address"
        },
        {
          "indexed": false,
          "internalType": "string",
          "name": "name",
          "type": "string"
        },
        {
          "indexed": false,
          "internalType": "string",
          "name": "description",
          "type": "string"
        },
        {
          "indexed": false,
          "internalType": "uint256",
          "name": "startDate",
          "type": "uint256"
        },
        {
          "indexed": false,
          "internalType": "uint256",
          "name": "endDate",
          "type": "uint256"
        }
      ],
      "name": "TenderCreated",
      "type": "event"
    },
    {
      "anonymous": false,
      "inputs": [
        {
          "indexed": false,
          "internalType": "string",
          "name": "tenderId",
          "type": "string"
        },
        {
          "indexed": false,
          "internalType": "address",
          "name": "winner",
          "type": "address"
        },
        {
          "indexed": false,
          "internalType": "string",
          "name": "reason",
          "type": "string"
        },
        {
          "indexed": false,
          "internalType": "uint256",
          "name": "timestamp",
          "type": "uint256"
        }
      ],
      "name": "WinnerSelected",
      "type": "event"
    },
    {
      "inputs": [
        {
          "internalType": "string",
          "name": "tenderId",
          "type": "string"
        },
        {
          "internalType": "address",
          "name": "participant",
          "type": "address"
        },
        {
          "internalType": "string",
          "name": "name",
          "type": "string"
        },
        {
          "internalType": "string",
          "name": "email",
          "type": "string"
        },
        {
          "internalType": "uint8",
          "name": "v",
          "type": "uint8"
        },
        {
          "internalType": "bytes32",
          "name": "r",
          "type": "bytes32"
        },
        {
          "internalType": "bytes32",
          "name": "s",
          "type": "bytes32"
        },
        {
          "internalType": "uint256",
          "name": "deadline",
          "type": "uint256"
        }
      ],
      "name": "addParticipant",
      "outputs": [],
      "stateMutability": "nonpayable",
      "type": "function"
    },
    {
      "inputs": [
        {
          "internalType": "string",
          "name": "tenderId",
          "type": "string"
        },
        {
          "internalType": "string",
          "name": "name",
          "type": "string"
        },
        {
          "internalType": "string",
          "name": "email",
          "type": "string"
        },
        {
          "internalType": "address",
          "name": "participant",
          "type": "address"
        }
      ],
      "name": "addPendingParticipant",
      "outputs": [],
      "stateMutability": "nonpayable",
      "type": "function"
    },
    {
      "inputs": [
        {
          "internalType": "uint256",
          "name": "",
          "type": "uint256"
        }
      ],
      "name": "allTenderIds",
      "outputs": [
        {
          "internalType": "string",
          "name": "",
          "type": "string"
        }
      ],
      "stateMutability": "view",
      "type": "function"
    },
    {
      "inputs": [
        {
          "internalType": "string",
          "name": "tenderId",
          "type": "string"
        },
        {
          "internalType": "string",
          "name": "name",
          "type": "string"
        },
        {
          "internalType": "string",
          "name": "description",
          "type": "string"
        },
        {
          "internalType": "uint256",
          "name": "startDate",
          "type": "uint256"
        },
        {
          "internalType": "uint256",
          "name": "endDate",
          "type": "uint256"
        },
        {
          "internalType": "uint8",
          "name": "v",
          "type": "uint8"
        },
        {
          "internalType": "bytes32",
          "name": "r",
          "type": "bytes32"
        },
        {
          "internalType": "bytes32",
          "name": "s",
          "type": "bytes32"
        },
        {
          "internalType": "uint256",
          "name": "deadline",
          "type": "uint256"
        }
      ],
      "name": "createTender",
      "outputs": [],
      "stateMutability": "nonpayable",
      "type": "function"
    },
    {
      "inputs": [
        {
          "internalType": "string",
          "name": "tenderId",
          "type": "string"
        }
      ],
      "name": "getOwner",
      "outputs": [
        {
          "internalType": "address",
          "name": "",
          "type": "address"
        }
      ],
      "stateMutability": "view",
      "type": "function"
    },
    {
      "inputs": [
        {
          "internalType": "string",
          "name": "tenderId",
          "type": "string"
        }
      ],
      "name": "getWinner",
      "outputs": [
        {
          "internalType": "address",
          "name": "",
          "type": "address"
        }
      ],
      "stateMutability": "view",
      "type": "function"
    },
    {
      "inputs": [
        {
          "internalType": "string",
          "name": "tenderId",
          "type": "string"
        },
        {
          "internalType": "address",
          "name": "participant",
          "type": "address"
        }
      ],
      "name": "isParticipant",
      "outputs": [
        {
          "internalType": "bool",
          "name": "",
          "type": "bool"
        }
      ],
      "stateMutability": "view",
      "type": "function"
    },
    {
      "inputs": [
        {
          "internalType": "string",
          "name": "tenderId",
          "type": "string"
        },
        {
          "internalType": "address",
          "name": "participant",
          "type": "address"
        }
      ],
      "name": "isPendingParticipant",
      "outputs": [
        {
          "internalType": "bool",
          "name": "",
          "type": "bool"
        }
      ],
      "stateMutability": "view",
      "type": "function"
    },
    {
      "inputs": [
        {
          "internalType": "address",
          "name": "",
          "type": "address"
        },
        {
          "internalType": "uint256",
          "name": "",
          "type": "uint256"
        }
      ],
      "name": "ownerTenderIds",
      "outputs": [
        {
          "internalType": "string",
          "name": "",
          "type": "string"
        }
      ],
      "stateMutability": "view",
      "type": "function"
    },
    {
      "inputs": [
        {
          "internalType": "string",
          "name": "",
          "type": "string"
        },
        {
          "internalType": "address",
          "name": "",
          "type": "address"
        }
      ],
      "name": "participants",
      "outputs": [
        {
          "internalType": "bool",
          "name": "",
          "type": "bool"
        }
      ],
      "stateMutability": "view",
      "type": "function"
    },
    {
      "inputs": [
        {
          "internalType": "string",
          "name": "",
          "type": "string"
        },
        {
          "internalType": "address",
          "name": "",
          "type": "address"
        }
      ],
      "name": "pendingParticipants",
      "outputs": [
        {
          "internalType": "bool",
          "name": "",
          "type": "bool"
        }
      ],
      "stateMutability": "view",
      "type": "function"
    },
    {
      "inputs": [
        {
          "internalType": "string",
          "name": "",
          "type": "string"
        },
        {
          "internalType": "uint256",
          "name": "",
          "type": "uint256"
        }
      ],
      "name": "pendingTenderParticipants",
      "outputs": [
        {
          "internalType": "address",
          "name": "",
          "type": "address"
        }
      ],
      "stateMutability": "view",
      "type": "function"
    },
    {
      "inputs": [
        {
          "internalType": "string",
          "name": "tenderId",
          "type": "string"
        },
        {
          "internalType": "address",
          "name": "winner",
          "type": "address"
        },
        {
          "internalType": "string",
          "name": "reason",
          "type": "string"
        }
      ],
      "name": "selectWinner",
      "outputs": [],
      "stateMutability": "nonpayable",
      "type": "function"
    },
    {
      "inputs": [
        {
          "internalType": "string",
          "name": "",
          "type": "string"
        },
        {
          "internalType": "uint256",
          "name": "",
          "type": "uint256"
        }
      ],
      "name": "tenderParticipants",
      "outputs": [
        {
          "internalType": "address",
          "name": "",
          "type": "address"
        }
      ],
      "stateMutability": "view",
      "type": "function"
    },
    {
      "inputs": [
        {
          "internalType": "string",
          "name": "",
          "type": "string"
        }
      ],
      "name": "tenders",
      "outputs": [
        {
          "internalType": "address",
          "name": "owner",
          "type": "address"
        },
        {
          "internalType": "uint256",
          "name": "startDate",
          "type": "uint256"
        },
        {
          "internalType": "uint256",
          "name": "endDate",
          "type": "uint256"
        },
        {
          "internalType": "address",
          "name": "winner",
          "type": "address"
        }
      ],
      "stateMutability": "view",
      "type": "function"
    }
  ],
  "bytecode": "0x6080604052348015600f57600080fd5b50612b608061001f6000396000f3fe608060405234801561001057600080fd5b50600436106100f55760003560e01c8063a7b8d20211610097578063deaf492011610066578063deaf4920146102d1578063e36b14be14610301578063e4afd7c01461031d578063fa3b72b01461034d576100f5565b8063a7b8d20214610239578063bcdabc0914610255578063d123e00e14610285578063d3d36575146102a1576100f5565b80634aaf4a12116100d35780634aaf4a12146101765780635b80df90146101a6578063810374aa146101d6578063997b737f14610206576100f5565b8063061ff435146100fa57806326c85c3f146101165780634756331e14610146575b600080fd5b610114600480360381019061010f9190611933565b61037d565b005b610130600480360381019061012b91906119ee565b61060e565b60405161013d9190611a65565b60405180910390f35b610160600480360381019061015b91906119ee565b610653565b60405161016d9190611a65565b60405180910390f35b610190600480360381019061018b9190611a80565b6106c6565b60405161019d9190611ad8565b60405180910390f35b6101c060048036038101906101bb9190611a80565b610710565b6040516101cd9190611ad8565b60405180910390f35b6101f060048036038101906101eb9190611b29565b61075a565b6040516101fd9190611bd5565b60405180910390f35b610220600480360381019061021b9190611a80565b610806565b6040516102309493929190611c06565b60405180910390f35b610253600480360381019061024e9190611c4b565b61088c565b005b61026f600480360381019061026a91906119ee565b610b46565b60405161027c9190611a65565b60405180910390f35b61029f600480360381019061029a9190611d45565b610b8b565b005b6102bb60048036038101906102b69190611e4f565b611295565b6040516102c89190611ad8565b60405180910390f35b6102eb60048036038101906102e69190611eab565b6112f9565b6040516102f89190611bd5565b60405180910390f35b61031b60048036038101906103169190611eeb565b6113b2565b005b610337600480360381019061033291906119ee565b6116a4565b6040516103449190611a65565b60405180910390f35b61036760048036038101906103629190611e4f565b611717565b6040516103749190611ad8565b60405180910390f35b600073ffffffffffffffffffffffffffffffffffffffff166000856040516103a59190612045565b908152602001604051809103902060000160009054906101000a900473ffffffffffffffffffffffffffffffffffffffff1673ffffffffffffffffffffffffffffffffffffffff160361042d576040517f08c379a0000000000000000000000000000000000000000000000000000000008152600401610424906120a8565b60405180910390fd5b60028460405161043d9190612045565b908152602001604051809103902060008273ffffffffffffffffffffffffffffffffffffffff1673ffffffffffffffffffffffffffffffffffffffff16815260200190815260200160002060009054906101000a900460ff16156104d6576040517f08c379a00000000000000000000000000000000000000000000000000000000081526004016104cd90612114565b60405180910390fd5b60016002856040516104e89190612045565b908152602001604051809103902060008373ffffffffffffffffffffffffffffffffffffffff1673ffffffffffffffffffffffffffffffffffffffff16815260200190815260200160002060006101000a81548160ff02191690831515021790555060068460405161055a9190612045565b9081526020016040518091039020819080600181540180825580915050600190039060005260206000200160009091909190916101000a81548173ffffffffffffffffffffffffffffffffffffffff021916908373ffffffffffffffffffffffffffffffffffffffff1602179055507f635370db1c76cf0e140b75bc6f6ea959deca7b1a80bd5ca62b2e010d19fbaba08482858542604051610600959493929190612134565b60405180910390a150505050565b6002828051602081018201805184825260208301602085012081835280955050505050506020528060005260406000206000915091509054906101000a900460ff1681565b60006001836040516106659190612045565b908152602001604051809103902060008373ffffffffffffffffffffffffffffffffffffffff1673ffffffffffffffffffffffffffffffffffffffff16815260200190815260200160002060009054906101000a900460ff16905092915050565b600080826040516106d79190612045565b908152602001604051809103902060000160009054906101000a900473ffffffffffffffffffffffffffffffffffffffff169050919050565b600080826040516107219190612045565b908152602001604051809103902060030160009054906101000a900473ffffffffffffffffffffffffffffffffffffffff169050919050565b6003818154811061076a57600080fd5b906000526020600020016000915090508054610785906121cb565b80601f01602080910402602001604051908101604052809291908181526020018280546107b1906121cb565b80156107fe5780601f106107d3576101008083540402835291602001916107fe565b820191906000526020600020905b8154815290600101906020018083116107e157829003601f168201915b505050505081565b6000818051602081018201805184825260208301602085012081835280955050505050506000915090508060000160009054906101000a900473ffffffffffffffffffffffffffffffffffffffff16908060010154908060020154908060030160009054906101000a900473ffffffffffffffffffffffffffffffffffffffff16905084565b6000808460405161089d9190612045565b908152602001604051809103902090508060000160009054906101000a900473ffffffffffffffffffffffffffffffffffffffff1673ffffffffffffffffffffffffffffffffffffffff163373ffffffffffffffffffffffffffffffffffffffff161461093f576040517f08c379a000000000000000000000000000000000000000000000000000000000815260040161093690612248565b60405180910390fd5b80600201544211610985576040517f08c379a000000000000000000000000000000000000000000000000000000000815260040161097c906122b4565b60405180910390fd5b6001846040516109959190612045565b908152602001604051809103902060008473ffffffffffffffffffffffffffffffffffffffff1673ffffffffffffffffffffffffffffffffffffffff16815260200190815260200160002060009054906101000a900460ff16610a2d576040517f08c379a0000000000000000000000000000000000000000000000000000000008152600401610a2490612320565b60405180910390fd5b600073ffffffffffffffffffffffffffffffffffffffff168160030160009054906101000a900473ffffffffffffffffffffffffffffffffffffffff1673ffffffffffffffffffffffffffffffffffffffff1614610ac0576040517f08c379a0000000000000000000000000000000000000000000000000000000008152600401610ab79061238c565b60405180910390fd5b828160030160006101000a81548173ffffffffffffffffffffffffffffffffffffffff021916908373ffffffffffffffffffffffffffffffffffffffff1602179055507ff3bf7b40460c400bc3d5a864d85342803599eae103856e9878d89f4514e1e53f84848442604051610b3894939291906123ac565b60405180910390a150505050565b6001828051602081018201805184825260208301602085012081835280955050505050506020528060005260406000206000915091509054906101000a900460ff1681565b60008089604051610b9c9190612045565b90815260200160405180910390206040518060800160405290816000820160009054906101000a900473ffffffffffffffffffffffffffffffffffffffff1673ffffffffffffffffffffffffffffffffffffffff1673ffffffffffffffffffffffffffffffffffffffff16815260200160018201548152602001600282015481526020016003820160009054906101000a900473ffffffffffffffffffffffffffffffffffffffff1673ffffffffffffffffffffffffffffffffffffffff1673ffffffffffffffffffffffffffffffffffffffff16815250509050600073ffffffffffffffffffffffffffffffffffffffff16816000015173ffffffffffffffffffffffffffffffffffffffff1603610cea576040517f08c379a0000000000000000000000000000000000000000000000000000000008152600401610ce1906120a8565b60405180910390fd5b60008983604051602001610cff929190612420565b604051602081830303815290604052805190602001209050600081604051602001610d2a91906124b5565b604051602081830303815290604052805190602001209050600060018289898960405160008152602001604052604051610d6794939291906124f9565b6020604051602081039080840390855afa158015610d89573d6000803e3d6000fd5b505050602060405103519050836000015173ffffffffffffffffffffffffffffffffffffffff168173ffffffffffffffffffffffffffffffffffffffff1614610e07576040517f08c379a0000000000000000000000000000000000000000000000000000000008152600401610dfe9061258a565b60405180910390fd5b8360200151421015610e4e576040517f08c379a0000000000000000000000000000000000000000000000000000000008152600401610e45906125f6565b60405180910390fd5b8360400151421115610e95576040517f08c379a0000000000000000000000000000000000000000000000000000000008152600401610e8c90612662565b60405180910390fd5b60018c604051610ea59190612045565b908152602001604051809103902060008c73ffffffffffffffffffffffffffffffffffffffff1673ffffffffffffffffffffffffffffffffffffffff16815260200190815260200160002060009054906101000a900460ff1615610f3e576040517f08c379a0000000000000000000000000000000000000000000000000000000008152600401610f35906126ce565b60405180910390fd5b6001808d604051610f4f9190612045565b908152602001604051809103902060008d73ffffffffffffffffffffffffffffffffffffffff1673ffffffffffffffffffffffffffffffffffffffff16815260200190815260200160002060006101000a81548160ff021916908315150217905550600060028d604051610fc39190612045565b908152602001604051809103902060008d73ffffffffffffffffffffffffffffffffffffffff1673ffffffffffffffffffffffffffffffffffffffff16815260200190815260200160002060006101000a81548160ff02191690831515021790555060058c6040516110359190612045565b90815260200160405180910390208b9080600181540180825580915050600190039060005260206000200160009091909190916101000a81548173ffffffffffffffffffffffffffffffffffffffff021916908373ffffffffffffffffffffffffffffffffffffffff160217905550600060068d6040516110b69190612045565b9081526020016040518091039020905060005b8180549050811015611246578c73ffffffffffffffffffffffffffffffffffffffff168282815481106110ff576110fe6126ee565b5b9060005260206000200160009054906101000a900473ffffffffffffffffffffffffffffffffffffffff1673ffffffffffffffffffffffffffffffffffffffff1603611239578160018380549050611157919061274c565b81548110611168576111676126ee565b5b9060005260206000200160009054906101000a900473ffffffffffffffffffffffffffffffffffffffff168282815481106111a6576111a56126ee565b5b9060005260206000200160006101000a81548173ffffffffffffffffffffffffffffffffffffffff021916908373ffffffffffffffffffffffffffffffffffffffff160217905550818054806111ff576111fe612780565b5b6001900381819060005260206000200160006101000a81549073ffffffffffffffffffffffffffffffffffffffff02191690559055611246565b80806001019150506110c9565b507f2990cac7ffb717bbbe6ba55e41a7887bec681db6e6bce83cedd76385d2d6d2538d8d8d8d4260405161127e959493929190612134565b60405180910390a150505050505050505050505050565b60068280516020810182018051848252602083016020850120818352809550505050505081815481106112c757600080fd5b906000526020600020016000915091509054906101000a900473ffffffffffffffffffffffffffffffffffffffff1681565b6004602052816000526040600020818154811061131557600080fd5b90600052602060002001600091509150508054611331906121cb565b80601f016020809104026020016040519081016040528092919081815260200182805461135d906121cb565b80156113aa5780601f1061137f576101008083540402835291602001916113aa565b820191906000526020600020905b81548152906001019060200180831161138d57829003601f168201915b505050505081565b8486106113f4576040517f08c379a00000000000000000000000000000000000000000000000000000000081526004016113eb906127fb565b60405180910390fd5b600081604051602001611407919061281b565b60405160208183030381529060405280519060200120905060008160405160200161143291906124b5565b60405160208183030381529060405280519060200120905060006001828888886040516000815260200160405260405161146f94939291906124f9565b6020604051602081039080840390855afa158015611491573d6000803e3d6000fd5b50505060206040510351905060405180608001604052808273ffffffffffffffffffffffffffffffffffffffff1681526020018a8152602001898152602001600073ffffffffffffffffffffffffffffffffffffffff1681525060008d6040516114fb9190612045565b908152602001604051809103902060008201518160000160006101000a81548173ffffffffffffffffffffffffffffffffffffffff021916908373ffffffffffffffffffffffffffffffffffffffff160217905550602082015181600101556040820151816002015560608201518160030160006101000a81548173ffffffffffffffffffffffffffffffffffffffff021916908373ffffffffffffffffffffffffffffffffffffffff16021790555090505060038c9080600181540180825580915050600190039060005260206000200160009091909190915090816115e291906129e2565b50600460008273ffffffffffffffffffffffffffffffffffffffff1673ffffffffffffffffffffffffffffffffffffffff1681526020019081526020016000208c90806001815401808255809150506001900390600052602060002001600090919091909150908161165491906129e2565b507f5608be3d488ea8e638dd732689e51705b3242a41fecefaab69657793577064108c828d8d8d8d60405161168e96959493929190612ab4565b60405180910390a1505050505050505050505050565b60006002836040516116b69190612045565b908152602001604051809103902060008373ffffffffffffffffffffffffffffffffffffffff1673ffffffffffffffffffffffffffffffffffffffff16815260200190815260200160002060009054906101000a900460ff16905092915050565b600582805160208101820180518482526020830160208501208183528095505050505050818154811061174957600080fd5b906000526020600020016000915091509054906101000a900473ffffffffffffffffffffffffffffffffffffffff1681565b6000604051905090565b600080fd5b600080fd5b600080fd5b600080fd5b6000601f19601f8301169050919050565b7f4e487b7100000000000000000000000000000000000000000000000000000000600052604160045260246000fd5b6117e282611799565b810181811067ffffffffffffffff82111715611801576118006117aa565b5b80604052505050565b600061181461177b565b905061182082826117d9565b919050565b600067ffffffffffffffff8211156118405761183f6117aa565b5b61184982611799565b9050602081019050919050565b82818337600083830152505050565b600061187861187384611825565b61180a565b90508281526020810184848401111561189457611893611794565b5b61189f848285611856565b509392505050565b600082601f8301126118bc576118bb61178f565b5b81356118cc848260208601611865565b91505092915050565b600073ffffffffffffffffffffffffffffffffffffffff82169050919050565b6000611900826118d5565b9050919050565b611910816118f5565b811461191b57600080fd5b50565b60008135905061192d81611907565b92915050565b6000806000806080858703121561194d5761194c611785565b5b600085013567ffffffffffffffff81111561196b5761196a61178a565b5b611977878288016118a7565b945050602085013567ffffffffffffffff8111156119985761199761178a565b5b6119a4878288016118a7565b935050604085013567ffffffffffffffff8111156119c5576119c461178a565b5b6119d1878288016118a7565b92505060606119e28782880161191e565b91505092959194509250565b60008060408385031215611a0557611a04611785565b5b600083013567ffffffffffffffff811115611a2357611a2261178a565b5b611a2f858286016118a7565b9250506020611a408582860161191e565b9150509250929050565b60008115159050919050565b611a5f81611a4a565b82525050565b6000602082019050611a7a6000830184611a56565b92915050565b600060208284031215611a9657611a95611785565b5b600082013567ffffffffffffffff811115611ab457611ab361178a565b5b611ac0848285016118a7565b91505092915050565b611ad2816118f5565b82525050565b6000602082019050611aed6000830184611ac9565b92915050565b6000819050919050565b611b0681611af3565b8114611b1157600080fd5b50565b600081359050611b2381611afd565b92915050565b600060208284031215611b3f57611b3e611785565b5b6000611b4d84828501611b14565b91505092915050565b600081519050919050565b600082825260208201905092915050565b60005b83811015611b90578082015181840152602081019050611b75565b60008484015250505050565b6000611ba782611b56565b611bb18185611b61565b9350611bc1818560208601611b72565b611bca81611799565b840191505092915050565b60006020820190508181036000830152611bef8184611b9c565b905092915050565b611c0081611af3565b82525050565b6000608082019050611c1b6000830187611ac9565b611c286020830186611bf7565b611c356040830185611bf7565b611c426060830184611ac9565b95945050505050565b600080600060608486031215611c6457611c63611785565b5b600084013567ffffffffffffffff811115611c8257611c8161178a565b5b611c8e868287016118a7565b9350506020611c9f8682870161191e565b925050604084013567ffffffffffffffff811115611cc057611cbf61178a565b5b611ccc868287016118a7565b9150509250925092565b600060ff82169050919050565b611cec81611cd6565b8114611cf757600080fd5b50565b600081359050611d0981611ce3565b92915050565b6000819050919050565b611d2281611d0f565b8114611d2d57600080fd5b50565b600081359050611d3f81611d19565b92915050565b600080600080600080600080610100898b031215611d6657611d65611785565b5b600089013567ffffffffffffffff811115611d8457611d8361178a565b5b611d908b828c016118a7565b9850506020611da18b828c0161191e565b975050604089013567ffffffffffffffff811115611dc257611dc161178a565b5b611dce8b828c016118a7565b965050606089013567ffffffffffffffff811115611def57611dee61178a565b5b611dfb8b828c016118a7565b9550506080611e0c8b828c01611cfa565b94505060a0611e1d8b828c01611d30565b93505060c0611e2e8b828c01611d30565b92505060e0611e3f8b828c01611b14565b9150509295985092959890939650565b60008060408385031215611e6657611e65611785565b5b600083013567ffffffffffffffff811115611e8457611e8361178a565b5b611e90858286016118a7565b9250506020611ea185828601611b14565b9150509250929050565b60008060408385031215611ec257611ec1611785565b5b6000611ed08582860161191e565b9250506020611ee185828601611b14565b9150509250929050565b60008060008060008060008060006101208a8c031215611f0e57611f0d611785565b5b60008a013567ffffffffffffffff811115611f2c57611f2b61178a565b5b611f388c828d016118a7565b99505060208a013567ffffffffffffffff811115611f5957611f5861178a565b5b611f658c828d016118a7565b98505060408a013567ffffffffffffffff811115611f8657611f8561178a565b5b611f928c828d016118a7565b9750506060611fa38c828d01611b14565b9650506080611fb48c828d01611b14565b95505060a0611fc58c828d01611cfa565b94505060c0611fd68c828d01611d30565b93505060e0611fe78c828d01611d30565b925050610100611ff98c828d01611b14565b9150509295985092959850929598565b600081905092915050565b600061201f82611b56565b6120298185612009565b9350612039818560208601611b72565b80840191505092915050565b60006120518284612014565b915081905092915050565b7f54656e64657220646f6573206e6f742065786973740000000000000000000000600082015250565b6000612092601583611b61565b915061209d8261205c565b602082019050919050565b600060208201905081810360008301526120c181612085565b9050919050565b7f416c7265616479206d61726b65642061732070656e64696e6700000000000000600082015250565b60006120fe601983611b61565b9150612109826120c8565b602082019050919050565b6000602082019050818103600083015261212d816120f1565b9050919050565b600060a082019050818103600083015261214e8188611b9c565b905061215d6020830187611ac9565b818103604083015261216f8186611b9c565b905081810360608301526121838185611b9c565b90506121926080830184611bf7565b9695505050505050565b7f4e487b7100000000000000000000000000000000000000000000000000000000600052602260045260246000fd5b600060028204905060018216806121e357607f821691505b6020821081036121f6576121f561219c565b5b50919050565b7f4f6e6c79206f776e65722063616e2073656c6563742077696e6e657200000000600082015250565b6000612232601c83611b61565b915061223d826121fc565b602082019050919050565b6000602082019050818103600083015261226181612225565b9050919050565b7f54656e646572206e6f7420656e64656400000000000000000000000000000000600082015250565b600061229e601083611b61565b91506122a982612268565b602082019050919050565b600060208201905081810360008301526122cd81612291565b9050919050565b7f4e6f742061207061727469636970616e74000000000000000000000000000000600082015250565b600061230a601183611b61565b9150612315826122d4565b602082019050919050565b60006020820190508181036000830152612339816122fd565b9050919050565b7f57696e6e657220616c72656164792073656c6563746564000000000000000000600082015250565b6000612376601783611b61565b915061238182612340565b602082019050919050565b600060208201905081810360008301526123a581612369565b9050919050565b600060808201905081810360008301526123c68187611b9c565b90506123d56020830186611ac9565b81810360408301526123e78185611b9c565b90506123f66060830184611bf7565b95945050505050565b6000819050919050565b61241a61241582611af3565b6123ff565b82525050565b600061242c8285612014565b91506124388284612409565b6020820191508190509392505050565b7f19457468657265756d205369676e6564204d6573736167653a0a333200000000600082015250565b600061247e601c83612009565b915061248982612448565b601c82019050919050565b6000819050919050565b6124af6124aa82611d0f565b612494565b82525050565b60006124c082612471565b91506124cc828461249e565b60208201915081905092915050565b6124e481611d0f565b82525050565b6124f381611cd6565b82525050565b600060808201905061250e60008301876124db565b61251b60208301866124ea565b61252860408301856124db565b61253560608301846124db565b95945050505050565b7f496e76616c6964207369676e6174757265000000000000000000000000000000600082015250565b6000612574601183611b61565b915061257f8261253e565b602082019050919050565b600060208201905081810360008301526125a381612567565b9050919050565b7f54656e646572206e6f7420737461727465640000000000000000000000000000600082015250565b60006125e0601283611b61565b91506125eb826125aa565b602082019050919050565b6000602082019050818103600083015261260f816125d3565b9050919050565b7f54656e64657220656e6465640000000000000000000000000000000000000000600082015250565b600061264c600c83611b61565b915061265782612616565b602082019050919050565b6000602082019050818103600083015261267b8161263f565b9050919050565b7f416c72656164792061207061727469636970616e740000000000000000000000600082015250565b60006126b8601583611b61565b91506126c382612682565b602082019050919050565b600060208201905081810360008301526126e7816126ab565b9050919050565b7f4e487b7100000000000000000000000000000000000000000000000000000000600052603260045260246000fd5b7f4e487b7100000000000000000000000000000000000000000000000000000000600052601160045260246000fd5b600061275782611af3565b915061276283611af3565b925082820390508181111561277a5761277961271d565b5b92915050565b7f4e487b7100000000000000000000000000000000000000000000000000000000600052603160045260246000fd5b7f496e76616c696420646174657300000000000000000000000000000000000000600082015250565b60006127e5600d83611b61565b91506127f0826127af565b602082019050919050565b60006020820190508181036000830152612814816127d8565b9050919050565b60006128278284612409565b60208201915081905092915050565b60008190508160005260206000209050919050565b60006020601f8301049050919050565b600082821b905092915050565b6000600883026128987fffffffffffffffffffffffffffffffffffffffffffffffffffffffffffffffff8261285b565b6128a2868361285b565b95508019841693508086168417925050509392505050565b6000819050919050565b60006128df6128da6128d584611af3565b6128ba565b611af3565b9050919050565b6000819050919050565b6128f9836128c4565b61290d612905826128e6565b848454612868565b825550505050565b600090565b612922612915565b61292d8184846128f0565b505050565b5b818110156129515761294660008261291a565b600181019050612933565b5050565b601f8211156129965761296781612836565b6129708461284b565b8101602085101561297f578190505b61299361298b8561284b565b830182612932565b50505b505050565b600082821c905092915050565b60006129b96000198460080261299b565b1980831691505092915050565b60006129d283836129a8565b9150826002028217905092915050565b6129eb82611b56565b67ffffffffffffffff811115612a0457612a036117aa565b5b612a0e82546121cb565b612a19828285612955565b600060209050601f831160018114612a4c5760008415612a3a578287015190505b612a4485826129c6565b865550612aac565b601f198416612a5a86612836565b60005b82811015612a8257848901518255600182019150602085019450602081019050612a5d565b86831015612a9f5784890151612a9b601f8916826129a8565b8355505b6001600288020188555050505b505050505050565b600060c0820190508181036000830152612ace8189611b9c565b9050612add6020830188611ac9565b8181036040830152612aef8187611b9c565b90508181036060830152612b038186611b9c565b9050612b126080830185611bf7565b612b1f60a0830184611bf7565b97965050505050505056fea2646970667358221220f55a60f75546b37d9782d4e2b11c5f005651aeca0a24684eb6e5b82cb3904beb64736f6c634300081c0033",
  "linkReferences": {},
  "deployedLinkReferences": {}
}