{
  "_format": "hh-sol-artifact-1",
  "contractName": "TenderManager",
  "sourceName": "contracts/TenderManager.sol",
  "abi": [
    {
      "inputs": [
        {
          "internalType": "address",
          "name": "publicKeyStorageAddress",
          "type": "address"
        }
      ],
      "stateMutability": "nonpayable",
      "type": "constructor"
    },
    {
      "anonymous": false,
      "inputs": [
        {
          "indexed": false,
          "internalType": "string",
          "name": "tenderId",
          "type": "string"
        },
        {
          "indexed": false,
          "internalType": "address",
          "name": "owner",
          "type": "address"
        },
        {
          "indexed": false,
          "internalType": "string",
          "name": "name",
          "type": "string"
        },
        {
          "indexed": false,
          "internalType": "uint256",
          "name": "startDate",
          "type": "uint256"
        },
        {
          "indexed": false,
          "internalType": "uint256",
          "name": "endDate",
          "type": "uint256"
        }
      ],
      "name": "TenderCreated",
      "type": "event"
    },
    {
      "anonymous": false,
      "inputs": [
        {
          "indexed": false,
          "internalType": "string",
          "name": "tenderId",
          "type": "string"
        },
        {
          "indexed": false,
          "internalType": "address",
          "name": "winner",
          "type": "address"
        },
        {
          "indexed": false,
          "internalType": "string",
          "name": "reason",
          "type": "string"
        },
        {
          "indexed": false,
          "internalType": "uint256",
          "name": "timestamp",
          "type": "uint256"
        }
      ],
      "name": "WinnerSelected",
      "type": "event"
    },
    {
      "inputs": [
        {
          "internalType": "string",
          "name": "tenderId",
          "type": "string"
        },
        {
          "internalType": "address",
          "name": "thirdParty",
          "type": "address"
        }
      ],
      "name": "addThirdPartyParticipant",
      "outputs": [],
      "stateMutability": "nonpayable",
      "type": "function"
    },
    {
      "inputs": [
        {
          "internalType": "string",
          "name": "tenderId",
          "type": "string"
        },
        {
          "internalType": "string",
          "name": "name",
          "type": "string"
        },
        {
          "internalType": "uint256",
          "name": "startDate",
          "type": "uint256"
        },
        {
          "internalType": "uint256",
          "name": "endDate",
          "type": "uint256"
        }
      ],
      "name": "createTender",
      "outputs": [],
      "stateMutability": "nonpayable",
      "type": "function"
    },
    {
      "inputs": [
        {
          "internalType": "string",
          "name": "tenderId",
          "type": "string"
        }
      ],
      "name": "getOwner",
      "outputs": [
        {
          "internalType": "address",
          "name": "",
          "type": "address"
        }
      ],
      "stateMutability": "view",
      "type": "function"
    },
    {
      "inputs": [
        {
          "internalType": "string",
          "name": "tenderId",
          "type": "string"
        }
      ],
      "name": "getWinner",
      "outputs": [
        {
          "internalType": "address",
          "name": "",
          "type": "address"
        }
      ],
      "stateMutability": "view",
      "type": "function"
    },
    {
      "inputs": [],
      "name": "publicKeyStorage",
      "outputs": [
        {
          "internalType": "contract IPublicKeyStorage",
          "name": "",
          "type": "address"
        }
      ],
      "stateMutability": "view",
      "type": "function"
    },
    {
      "inputs": [
        {
          "internalType": "string",
          "name": "tenderId",
          "type": "string"
        },
        {
          "internalType": "address",
          "name": "winner",
          "type": "address"
        },
        {
          "internalType": "string",
          "name": "reason",
          "type": "string"
        }
      ],
      "name": "selectWinner",
      "outputs": [],
      "stateMutability": "nonpayable",
      "type": "function"
    },
    {
      "inputs": [
        {
          "internalType": "string",
          "name": "",
          "type": "string"
        }
      ],
      "name": "tenders",
      "outputs": [
        {
          "internalType": "address",
          "name": "owner",
          "type": "address"
        },
        {
          "internalType": "string",
          "name": "name",
          "type": "string"
        },
        {
          "internalType": "uint256",
          "name": "startDate",
          "type": "uint256"
        },
        {
          "internalType": "uint256",
          "name": "endDate",
          "type": "uint256"
        },
        {
          "internalType": "address",
          "name": "winner",
          "type": "address"
        }
      ],
      "stateMutability": "view",
      "type": "function"
    },
    {
      "inputs": [
        {
          "internalType": "string",
          "name": "",
          "type": "string"
        },
        {
          "internalType": "uint256",
          "name": "",
          "type": "uint256"
        }
      ],
      "name": "thirdPartyParticipants",
      "outputs": [
        {
          "internalType": "address",
          "name": "",
          "type": "address"
        }
      ],
      "stateMutability": "view",
      "type": "function"
    }
  ],
  "bytecode": "0x608060405234801561001057600080fd5b50604051611779380380611779833981810160405281019061003291906100db565b806000806101000a81548173ffffffffffffffffffffffffffffffffffffffff021916908373ffffffffffffffffffffffffffffffffffffffff16021790555050610108565b600080fd5b600073ffffffffffffffffffffffffffffffffffffffff82169050919050565b60006100a88261007d565b9050919050565b6100b88161009d565b81146100c357600080fd5b50565b6000815190506100d5816100af565b92915050565b6000602082840312156100f1576100f0610078565b5b60006100ff848285016100c6565b91505092915050565b611662806101176000396000f3fe608060405234801561001057600080fd5b50600436106100885760003560e01c80636dbfdf251161005b5780636dbfdf2514610139578063997b737f14610157578063a7b8d2021461018b578063d927ee88146101a757610088565b80631b2b9fb51461008d5780632cb1ad94146100a95780634aaf4a12146100d95780635b80df9014610109575b600080fd5b6100a760048036038101906100a29190610b4e565b6101c3565b005b6100c360048036038101906100be9190610be0565b6102fb565b6040516100d09190610c4b565b60405180910390f35b6100f360048036038101906100ee9190610c66565b61035f565b6040516101009190610c4b565b60405180910390f35b610123600480360381019061011e9190610c66565b6103aa565b6040516101309190610c4b565b60405180910390f35b6101416103f5565b60405161014e9190610d0e565b60405180910390f35b610171600480360381019061016c9190610c66565b610419565b604051610182959493929190610db7565b60405180910390f35b6101a560048036038101906101a09190610e11565b61052d565b005b6101c160048036038101906101bc9190610e9c565b6106fa565b005b60006001836040516101d59190610f77565b908152602001604051809103902090508060000160009054906101000a900473ffffffffffffffffffffffffffffffffffffffff1673ffffffffffffffffffffffffffffffffffffffff163373ffffffffffffffffffffffffffffffffffffffff1614610277576040517f08c379a000000000000000000000000000000000000000000000000000000000815260040161026e90611000565b60405180910390fd5b6002836040516102879190610f77565b9081526020016040518091039020829080600181540180825580915050600190039060005260206000200160009091909190916101000a81548173ffffffffffffffffffffffffffffffffffffffff021916908373ffffffffffffffffffffffffffffffffffffffff160217905550505050565b600282805160208101820180518482526020830160208501208183528095505050505050818154811061032d57600080fd5b906000526020600020016000915091509054906101000a900473ffffffffffffffffffffffffffffffffffffffff1681565b60006001826040516103719190610f77565b908152602001604051809103902060000160009054906101000a900473ffffffffffffffffffffffffffffffffffffffff169050919050565b60006001826040516103bc9190610f77565b908152602001604051809103902060040160009054906101000a900473ffffffffffffffffffffffffffffffffffffffff169050919050565b60008054906101000a900473ffffffffffffffffffffffffffffffffffffffff1681565b6001818051602081018201805184825260208301602085012081835280955050505050506000915090508060000160009054906101000a900473ffffffffffffffffffffffffffffffffffffffff16908060010180546104789061104f565b80601f01602080910402602001604051908101604052809291908181526020018280546104a49061104f565b80156104f15780601f106104c6576101008083540402835291602001916104f1565b820191906000526020600020905b8154815290600101906020018083116104d457829003601f168201915b5050505050908060020154908060030154908060040160009054906101000a900473ffffffffffffffffffffffffffffffffffffffff16905085565b600060018460405161053f9190610f77565b908152602001604051809103902090508060000160009054906101000a900473ffffffffffffffffffffffffffffffffffffffff1673ffffffffffffffffffffffffffffffffffffffff163373ffffffffffffffffffffffffffffffffffffffff16146105e1576040517f08c379a00000000000000000000000000000000000000000000000000000000081526004016105d8906110cc565b60405180910390fd5b600073ffffffffffffffffffffffffffffffffffffffff168160040160009054906101000a900473ffffffffffffffffffffffffffffffffffffffff1673ffffffffffffffffffffffffffffffffffffffff1614610674576040517f08c379a000000000000000000000000000000000000000000000000000000000815260040161066b90611138565b60405180910390fd5b828160040160006101000a81548173ffffffffffffffffffffffffffffffffffffffff021916908373ffffffffffffffffffffffffffffffffffffffff1602179055507ff3bf7b40460c400bc3d5a864d85342803599eae103856e9878d89f4514e1e53f848484426040516106ec9493929190611158565b60405180910390a150505050565b604051602001610709906111f7565b6040516020818303038152906040528051906020012060008054906101000a900473ffffffffffffffffffffffffffffffffffffffff1673ffffffffffffffffffffffffffffffffffffffff166344276733336040518263ffffffff1660e01b81526004016107789190610c4b565b600060405180830381865afa158015610795573d6000803e3d6000fd5b505050506040513d6000823e3d601f19601f820116820180604052508101906107be919061127c565b6040516020016107ce9190610f77565b6040516020818303038152906040528051906020012014610824576040517f08c379a000000000000000000000000000000000000000000000000000000000815260040161081b90611337565b60405180910390fd5b6040518060a001604052803373ffffffffffffffffffffffffffffffffffffffff168152602001848152602001838152602001828152602001600073ffffffffffffffffffffffffffffffffffffffff168152506001856040516108889190610f77565b908152602001604051809103902060008201518160000160006101000a81548173ffffffffffffffffffffffffffffffffffffffff021916908373ffffffffffffffffffffffffffffffffffffffff16021790555060208201518160010190816108f291906114f9565b50604082015181600201556060820151816003015560808201518160040160006101000a81548173ffffffffffffffffffffffffffffffffffffffff021916908373ffffffffffffffffffffffffffffffffffffffff1602179055509050507f53f998f14d7ec3105c9fb67bc16484812950aebe822711e3ba3200901532faf684338585856040516109889594939291906115cb565b60405180910390a150505050565b6000604051905090565b600080fd5b600080fd5b600080fd5b600080fd5b6000601f19601f8301169050919050565b7f4e487b7100000000000000000000000000000000000000000000000000000000600052604160045260246000fd5b6109fd826109b4565b810181811067ffffffffffffffff82111715610a1c57610a1b6109c5565b5b80604052505050565b6000610a2f610996565b9050610a3b82826109f4565b919050565b600067ffffffffffffffff821115610a5b57610a5a6109c5565b5b610a64826109b4565b9050602081019050919050565b82818337600083830152505050565b6000610a93610a8e84610a40565b610a25565b905082815260208101848484011115610aaf57610aae6109af565b5b610aba848285610a71565b509392505050565b600082601f830112610ad757610ad66109aa565b5b8135610ae7848260208601610a80565b91505092915050565b600073ffffffffffffffffffffffffffffffffffffffff82169050919050565b6000610b1b82610af0565b9050919050565b610b2b81610b10565b8114610b3657600080fd5b50565b600081359050610b4881610b22565b92915050565b60008060408385031215610b6557610b646109a0565b5b600083013567ffffffffffffffff811115610b8357610b826109a5565b5b610b8f85828601610ac2565b9250506020610ba085828601610b39565b9150509250929050565b6000819050919050565b610bbd81610baa565b8114610bc857600080fd5b50565b600081359050610bda81610bb4565b92915050565b60008060408385031215610bf757610bf66109a0565b5b600083013567ffffffffffffffff811115610c1557610c146109a5565b5b610c2185828601610ac2565b9250506020610c3285828601610bcb565b9150509250929050565b610c4581610b10565b82525050565b6000602082019050610c606000830184610c3c565b92915050565b600060208284031215610c7c57610c7b6109a0565b5b600082013567ffffffffffffffff811115610c9a57610c996109a5565b5b610ca684828501610ac2565b91505092915050565b6000819050919050565b6000610cd4610ccf610cca84610af0565b610caf565b610af0565b9050919050565b6000610ce682610cb9565b9050919050565b6000610cf882610cdb565b9050919050565b610d0881610ced565b82525050565b6000602082019050610d236000830184610cff565b92915050565b600081519050919050565b600082825260208201905092915050565b60005b83811015610d63578082015181840152602081019050610d48565b60008484015250505050565b6000610d7a82610d29565b610d848185610d34565b9350610d94818560208601610d45565b610d9d816109b4565b840191505092915050565b610db181610baa565b82525050565b600060a082019050610dcc6000830188610c3c565b8181036020830152610dde8187610d6f565b9050610ded6040830186610da8565b610dfa6060830185610da8565b610e076080830184610c3c565b9695505050505050565b600080600060608486031215610e2a57610e296109a0565b5b600084013567ffffffffffffffff811115610e4857610e476109a5565b5b610e5486828701610ac2565b9350506020610e6586828701610b39565b925050604084013567ffffffffffffffff811115610e8657610e856109a5565b5b610e9286828701610ac2565b9150509250925092565b60008060008060808587031215610eb657610eb56109a0565b5b600085013567ffffffffffffffff811115610ed457610ed36109a5565b5b610ee087828801610ac2565b945050602085013567ffffffffffffffff811115610f0157610f006109a5565b5b610f0d87828801610ac2565b9350506040610f1e87828801610bcb565b9250506060610f2f87828801610bcb565b91505092959194509250565b600081905092915050565b6000610f5182610d29565b610f5b8185610f3b565b9350610f6b818560208601610d45565b80840191505092915050565b6000610f838284610f46565b915081905092915050565b7f4f6e6c79206f776e65722063616e20616464207468697264207061727479207060008201527f61727469636970616e7400000000000000000000000000000000000000000000602082015250565b6000610fea602a83610d34565b9150610ff582610f8e565b604082019050919050565b6000602082019050818103600083015261101981610fdd565b9050919050565b7f4e487b7100000000000000000000000000000000000000000000000000000000600052602260045260246000fd5b6000600282049050600182168061106757607f821691505b60208210810361107a57611079611020565b5b50919050565b7f4f6e6c79206f776e65722063616e2073656c6563742077696e6e657200000000600082015250565b60006110b6601c83610d34565b91506110c182611080565b602082019050919050565b600060208201905081810360008301526110e5816110a9565b9050919050565b7f57696e6e657220616c72656164792073656c6563746564000000000000000000600082015250565b6000611122601783610d34565b915061112d826110ec565b602082019050919050565b6000602082019050818103600083015261115181611115565b9050919050565b600060808201905081810360008301526111728187610d6f565b90506111816020830186610c3c565b81810360408301526111938185610d6f565b90506111a26060830184610da8565b95945050505050565b7f6f7267616e697a65720000000000000000000000000000000000000000000000600082015250565b60006111e1600983610f3b565b91506111ec826111ab565b600982019050919050565b6000611202826111d4565b9150819050919050565b600061121f61121a84610a40565b610a25565b90508281526020810184848401111561123b5761123a6109af565b5b611246848285610d45565b509392505050565b600082601f830112611263576112626109aa565b5b815161127384826020860161120c565b91505092915050565b600060208284031215611292576112916109a0565b5b600082015167ffffffffffffffff8111156112b0576112af6109a5565b5b6112bc8482850161124e565b91505092915050565b7f4f6e6c79206f7267616e697a657220726f6c652063616e20637265617465207460008201527f656e646572000000000000000000000000000000000000000000000000000000602082015250565b6000611321602583610d34565b915061132c826112c5565b604082019050919050565b6000602082019050818103600083015261135081611314565b9050919050565b60008190508160005260206000209050919050565b60006020601f8301049050919050565b600082821b905092915050565b6000600883026113b97fffffffffffffffffffffffffffffffffffffffffffffffffffffffffffffffff8261137c565b6113c3868361137c565b95508019841693508086168417925050509392505050565b60006113f66113f16113ec84610baa565b610caf565b610baa565b9050919050565b6000819050919050565b611410836113db565b61142461141c826113fd565b848454611389565b825550505050565b600090565b61143961142c565b611444818484611407565b505050565b5b818110156114685761145d600082611431565b60018101905061144a565b5050565b601f8211156114ad5761147e81611357565b6114878461136c565b81016020851015611496578190505b6114aa6114a28561136c565b830182611449565b50505b505050565b600082821c905092915050565b60006114d0600019846008026114b2565b1980831691505092915050565b60006114e983836114bf565b9150826002028217905092915050565b61150282610d29565b67ffffffffffffffff81111561151b5761151a6109c5565b5b611525825461104f565b61153082828561146c565b600060209050601f8311600181146115635760008415611551578287015190505b61155b85826114dd565b8655506115c3565b601f19841661157186611357565b60005b8281101561159957848901518255600182019150602085019450602081019050611574565b868310156115b657848901516115b2601f8916826114bf565b8355505b6001600288020188555050505b505050505050565b600060a08201905081810360008301526115e58188610d6f565b90506115f46020830187610c3c565b81810360408301526116068186610d6f565b90506116156060830185610da8565b6116226080830184610da8565b969550505050505056fea2646970667358221220c09a86a6a089276b6e93a645cb562db0d626ef6900ee43f9a899643d07848e2264736f6c634300081c0033",
  "linkReferences": {},
  "deployedLinkReferences": {}
}