{
  "_format": "hh-sol-artifact-1",
  "contractName": "TenderManager",
  "sourceName": "contracts/TenderManager.sol",
  "abi": [
    {
      "anonymous": false,
      "inputs": [
        {
          "indexed": false,
          "internalType": "address",
          "name": "participant",
          "type": "address"
        },
        {
          "indexed": false,
          "internalType": "string",
          "name": "tenderId",
          "type": "string"
        },
        {
          "indexed": false,
          "internalType": "address",
          "name": "owner",
          "type": "address"
        },
        {
          "indexed": false,
          "internalType": "string",
          "name": "name",
          "type": "string"
        },
        {
          "indexed": false,
          "internalType": "string",
          "name": "description",
          "type": "string"
        },
        {
          "indexed": false,
          "internalType": "uint256",
          "name": "startDate",
          "type": "uint256"
        },
        {
          "indexed": false,
          "internalType": "uint256",
          "name": "endDate",
          "type": "uint256"
        }
      ],
      "name": "JoinedTender",
      "type": "event"
    },
    {
      "anonymous": false,
      "inputs": [
        {
          "indexed": false,
          "internalType": "string",
          "name": "tenderId",
          "type": "string"
        },
        {
          "indexed": false,
          "internalType": "address",
          "name": "participant",
          "type": "address"
        },
        {
          "indexed": false,
          "internalType": "string",
          "name": "name",
          "type": "string"
        },
        {
          "indexed": false,
          "internalType": "string",
          "name": "email",
          "type": "string"
        },
        {
          "indexed": false,
          "internalType": "uint256",
          "name": "timestamp",
          "type": "uint256"
        }
      ],
      "name": "ParticipantAdded",
      "type": "event"
    },
    {
      "anonymous": false,
      "inputs": [
        {
          "indexed": false,
          "internalType": "string",
          "name": "tenderId",
          "type": "string"
        },
        {
          "indexed": false,
          "internalType": "address",
          "name": "participant",
          "type": "address"
        },
        {
          "indexed": false,
          "internalType": "string",
          "name": "name",
          "type": "string"
        },
        {
          "indexed": false,
          "internalType": "string",
          "name": "email",
          "type": "string"
        },
        {
          "indexed": false,
          "internalType": "uint256",
          "name": "timestamp",
          "type": "uint256"
        }
      ],
      "name": "PendingParticipantAdded",
      "type": "event"
    },
    {
      "anonymous": false,
      "inputs": [
        {
          "indexed": false,
          "internalType": "string",
          "name": "tenderId",
          "type": "string"
        },
        {
          "indexed": false,
          "internalType": "address",
          "name": "owner",
          "type": "address"
        },
        {
          "indexed": false,
          "internalType": "string",
          "name": "name",
          "type": "string"
        },
        {
          "indexed": false,
          "internalType": "string",
          "name": "description",
          "type": "string"
        },
        {
          "indexed": false,
          "internalType": "uint256",
          "name": "startDate",
          "type": "uint256"
        },
        {
          "indexed": false,
          "internalType": "uint256",
          "name": "endDate",
          "type": "uint256"
        }
      ],
      "name": "TenderCreated",
      "type": "event"
    },
    {
      "anonymous": false,
      "inputs": [
        {
          "indexed": false,
          "internalType": "string",
          "name": "tenderId",
          "type": "string"
        },
        {
          "indexed": false,
          "internalType": "address",
          "name": "winner",
          "type": "address"
        },
        {
          "indexed": false,
          "internalType": "string",
          "name": "reason",
          "type": "string"
        },
        {
          "indexed": false,
          "internalType": "uint256",
          "name": "timestamp",
          "type": "uint256"
        }
      ],
      "name": "WinnerSelected",
      "type": "event"
    },
    {
      "inputs": [
        {
          "internalType": "string",
          "name": "tenderId",
          "type": "string"
        },
        {
          "internalType": "address",
          "name": "participant",
          "type": "address"
        },
        {
          "internalType": "string",
          "name": "name",
          "type": "string"
        },
        {
          "internalType": "string",
          "name": "email",
          "type": "string"
        },
        {
          "internalType": "uint8",
          "name": "v",
          "type": "uint8"
        },
        {
          "internalType": "bytes32",
          "name": "r",
          "type": "bytes32"
        },
        {
          "internalType": "bytes32",
          "name": "s",
          "type": "bytes32"
        },
        {
          "internalType": "uint256",
          "name": "deadline",
          "type": "uint256"
        }
      ],
      "name": "addParticipant",
      "outputs": [],
      "stateMutability": "nonpayable",
      "type": "function"
    },
    {
      "inputs": [
        {
          "internalType": "string",
          "name": "tenderId",
          "type": "string"
        },
        {
          "internalType": "string",
          "name": "name",
          "type": "string"
        },
        {
          "internalType": "string",
          "name": "email",
          "type": "string"
        },
        {
          "internalType": "address",
          "name": "participant",
          "type": "address"
        }
      ],
      "name": "addPendingParticipant",
      "outputs": [],
      "stateMutability": "nonpayable",
      "type": "function"
    },
    {
      "inputs": [
        {
          "internalType": "uint256",
          "name": "",
          "type": "uint256"
        }
      ],
      "name": "allTenderIds",
      "outputs": [
        {
          "internalType": "string",
          "name": "",
          "type": "string"
        }
      ],
      "stateMutability": "view",
      "type": "function"
    },
    {
      "inputs": [
        {
          "internalType": "string",
          "name": "tenderId",
          "type": "string"
        },
        {
          "internalType": "string",
          "name": "name",
          "type": "string"
        },
        {
          "internalType": "string",
          "name": "description",
          "type": "string"
        },
        {
          "internalType": "uint256",
          "name": "startDate",
          "type": "uint256"
        },
        {
          "internalType": "uint256",
          "name": "endDate",
          "type": "uint256"
        },
        {
          "internalType": "uint8",
          "name": "v",
          "type": "uint8"
        },
        {
          "internalType": "bytes32",
          "name": "r",
          "type": "bytes32"
        },
        {
          "internalType": "bytes32",
          "name": "s",
          "type": "bytes32"
        },
        {
          "internalType": "uint256",
          "name": "deadline",
          "type": "uint256"
        }
      ],
      "name": "createTender",
      "outputs": [],
      "stateMutability": "nonpayable",
      "type": "function"
    },
    {
      "inputs": [
        {
          "internalType": "string",
          "name": "tenderId",
          "type": "string"
        }
      ],
      "name": "getOwner",
      "outputs": [
        {
          "internalType": "address",
          "name": "",
          "type": "address"
        }
      ],
      "stateMutability": "view",
      "type": "function"
    },
    {
      "inputs": [
        {
          "internalType": "string",
          "name": "tenderId",
          "type": "string"
        }
      ],
      "name": "getWinner",
      "outputs": [
        {
          "internalType": "address",
          "name": "",
          "type": "address"
        }
      ],
      "stateMutability": "view",
      "type": "function"
    },
    {
      "inputs": [
        {
          "internalType": "string",
          "name": "tenderId",
          "type": "string"
        },
        {
          "internalType": "address",
          "name": "participant",
          "type": "address"
        }
      ],
      "name": "isParticipant",
      "outputs": [
        {
          "internalType": "bool",
          "name": "",
          "type": "bool"
        }
      ],
      "stateMutability": "view",
      "type": "function"
    },
    {
      "inputs": [
        {
          "internalType": "string",
          "name": "tenderId",
          "type": "string"
        },
        {
          "internalType": "address",
          "name": "participant",
          "type": "address"
        }
      ],
      "name": "isPendingParticipant",
      "outputs": [
        {
          "internalType": "bool",
          "name": "",
          "type": "bool"
        }
      ],
      "stateMutability": "view",
      "type": "function"
    },
    {
      "inputs": [
        {
          "internalType": "address",
          "name": "",
          "type": "address"
        },
        {
          "internalType": "uint256",
          "name": "",
          "type": "uint256"
        }
      ],
      "name": "ownerTenderIds",
      "outputs": [
        {
          "internalType": "string",
          "name": "",
          "type": "string"
        }
      ],
      "stateMutability": "view",
      "type": "function"
    },
    {
      "inputs": [
        {
          "internalType": "string",
          "name": "",
          "type": "string"
        },
        {
          "internalType": "address",
          "name": "",
          "type": "address"
        }
      ],
      "name": "participants",
      "outputs": [
        {
          "internalType": "bool",
          "name": "",
          "type": "bool"
        }
      ],
      "stateMutability": "view",
      "type": "function"
    },
    {
      "inputs": [
        {
          "internalType": "string",
          "name": "",
          "type": "string"
        },
        {
          "internalType": "address",
          "name": "",
          "type": "address"
        }
      ],
      "name": "pendingParticipants",
      "outputs": [
        {
          "internalType": "bool",
          "name": "",
          "type": "bool"
        }
      ],
      "stateMutability": "view",
      "type": "function"
    },
    {
      "inputs": [
        {
          "internalType": "string",
          "name": "",
          "type": "string"
        },
        {
          "internalType": "uint256",
          "name": "",
          "type": "uint256"
        }
      ],
      "name": "pendingTenderParticipants",
      "outputs": [
        {
          "internalType": "address",
          "name": "",
          "type": "address"
        }
      ],
      "stateMutability": "view",
      "type": "function"
    },
    {
      "inputs": [
        {
          "internalType": "string",
          "name": "tenderId",
          "type": "string"
        },
        {
          "internalType": "address",
          "name": "winner",
          "type": "address"
        },
        {
          "internalType": "string",
          "name": "reason",
          "type": "string"
        },
        {
          "internalType": "uint8",
          "name": "v",
          "type": "uint8"
        },
        {
          "internalType": "bytes32",
          "name": "r",
          "type": "bytes32"
        },
        {
          "internalType": "bytes32",
          "name": "s",
          "type": "bytes32"
        },
        {
          "internalType": "uint256",
          "name": "deadline",
          "type": "uint256"
        }
      ],
      "name": "selectWinner",
      "outputs": [],
      "stateMutability": "nonpayable",
      "type": "function"
    },
    {
      "inputs": [
        {
          "internalType": "string",
          "name": "",
          "type": "string"
        },
        {
          "internalType": "uint256",
          "name": "",
          "type": "uint256"
        }
      ],
      "name": "tenderParticipants",
      "outputs": [
        {
          "internalType": "address",
          "name": "",
          "type": "address"
        }
      ],
      "stateMutability": "view",
      "type": "function"
    },
    {
      "inputs": [
        {
          "internalType": "string",
          "name": "",
          "type": "string"
        }
      ],
      "name": "tenders",
      "outputs": [
        {
          "internalType": "address",
          "name": "owner",
          "type": "address"
        },
        {
          "internalType": "string",
          "name": "name",
          "type": "string"
        },
        {
          "internalType": "string",
          "name": "description",
          "type": "string"
        },
        {
          "internalType": "uint256",
          "name": "startDate",
          "type": "uint256"
        },
        {
          "internalType": "uint256",
          "name": "endDate",
          "type": "uint256"
        },
        {
          "internalType": "address",
          "name": "winner",
          "type": "address"
        }
      ],
      "stateMutability": "view",
      "type": "function"
    }
  ],
  "bytecode": "0x6080604052348015600f57600080fd5b50612ff28061001f6000396000f3fe608060405234801561001057600080fd5b50600436106100f55760003560e01c8063a119bb4711610097578063deaf492011610066578063deaf4920146102d3578063e36b14be14610303578063e4afd7c01461031f578063fa3b72b01461034f576100f5565b8063a119bb471461023b578063bcdabc0914610257578063d123e00e14610287578063d3d36575146102a3576100f5565b80634aaf4a12116100d35780634aaf4a12146101765780635b80df90146101a6578063810374aa146101d6578063997b737f14610206576100f5565b8063061ff435146100fa57806326c85c3f146101165780634756331e14610146575b600080fd5b610114600480360381019061010f9190611cb0565b61037f565b005b610130600480360381019061012b9190611d6b565b6106a7565b60405161013d9190611de2565b60405180910390f35b610160600480360381019061015b9190611d6b565b6106ec565b60405161016d9190611de2565b60405180910390f35b610190600480360381019061018b9190611dfd565b61075f565b60405161019d9190611e55565b60405180910390f35b6101c060048036038101906101bb9190611dfd565b6107a9565b6040516101cd9190611e55565b60405180910390f35b6101f060048036038101906101eb9190611ea6565b6107f3565b6040516101fd9190611f52565b60405180910390f35b610220600480360381019061021b9190611dfd565b61089f565b60405161023296959493929190611f83565b60405180910390f35b61025560048036038101906102509190612061565b610a41565b005b610271600480360381019061026c9190611d6b565b610d67565b60405161027e9190611de2565b60405180910390f35b6102a1600480360381019061029c919061213b565b610dac565b005b6102bd60048036038101906102b89190612245565b6115da565b6040516102ca9190611e55565b60405180910390f35b6102ed60048036038101906102e891906122a1565b61163e565b6040516102fa9190611f52565b60405180910390f35b61031d600480360381019061031891906122e1565b6116f7565b005b61033960048036038101906103349190611d6b565b611a21565b6040516103469190611de2565b60405180910390f35b61036960048036038101906103649190612245565b611a94565b6040516103769190611e55565b60405180910390f35b600073ffffffffffffffffffffffffffffffffffffffff166000856040516103a7919061243b565b908152602001604051809103902060000160009054906101000a900473ffffffffffffffffffffffffffffffffffffffff1673ffffffffffffffffffffffffffffffffffffffff160361042f576040517f08c379a00000000000000000000000000000000000000000000000000000000081526004016104269061249e565b60405180910390fd5b60028460405161043f919061243b565b908152602001604051809103902060008273ffffffffffffffffffffffffffffffffffffffff1673ffffffffffffffffffffffffffffffffffffffff16815260200190815260200160002060009054906101000a900460ff16156104d8576040517f08c379a00000000000000000000000000000000000000000000000000000000081526004016104cf9061250a565b60405180910390fd5b60016002856040516104ea919061243b565b908152602001604051809103902060008373ffffffffffffffffffffffffffffffffffffffff1673ffffffffffffffffffffffffffffffffffffffff16815260200190815260200160002060006101000a81548160ff02191690831515021790555060068460405161055c919061243b565b9081526020016040518091039020819080600181540180825580915050600190039060005260206000200160009091909190916101000a81548173ffffffffffffffffffffffffffffffffffffffff021916908373ffffffffffffffffffffffffffffffffffffffff160217905550600080856040516105dc919061243b565b908152602001604051809103902090507f635370db1c76cf0e140b75bc6f6ea959deca7b1a80bd5ca62b2e010d19fbaba0858386864260405161062395949392919061252a565b60405180910390a17f1873174df65cbefc5fe6e06201f1c61ab705271cbe9e43bb839343718118cdfb82868360000160009054906101000a900473ffffffffffffffffffffffffffffffffffffffff16846001018560020186600301548760040154604051610698979695949392919061268b565b60405180910390a15050505050565b6002828051602081018201805184825260208301602085012081835280955050505050506020528060005260406000206000915091509054906101000a900460ff1681565b60006001836040516106fe919061243b565b908152602001604051809103902060008373ffffffffffffffffffffffffffffffffffffffff1673ffffffffffffffffffffffffffffffffffffffff16815260200190815260200160002060009054906101000a900460ff16905092915050565b60008082604051610770919061243b565b908152602001604051809103902060000160009054906101000a900473ffffffffffffffffffffffffffffffffffffffff169050919050565b600080826040516107ba919061243b565b908152602001604051809103902060050160009054906101000a900473ffffffffffffffffffffffffffffffffffffffff169050919050565b6003818154811061080357600080fd5b90600052602060002001600091509050805461081e906125c1565b80601f016020809104026020016040519081016040528092919081815260200182805461084a906125c1565b80156108975780601f1061086c57610100808354040283529160200191610897565b820191906000526020600020905b81548152906001019060200180831161087a57829003601f168201915b505050505081565b6000818051602081018201805184825260208301602085012081835280955050505050506000915090508060000160009054906101000a900473ffffffffffffffffffffffffffffffffffffffff16908060010180546108fe906125c1565b80601f016020809104026020016040519081016040528092919081815260200182805461092a906125c1565b80156109775780601f1061094c57610100808354040283529160200191610977565b820191906000526020600020905b81548152906001019060200180831161095a57829003601f168201915b50505050509080600201805461098c906125c1565b80601f01602080910402602001604051908101604052809291908181526020018280546109b8906125c1565b8015610a055780601f106109da57610100808354040283529160200191610a05565b820191906000526020600020905b8154815290600101906020018083116109e857829003601f168201915b5050505050908060030154908060040154908060050160009054906101000a900473ffffffffffffffffffffffffffffffffffffffff16905086565b60008088604051610a52919061243b565b9081526020016040518091039020905060008883604051602001610a77929190612730565b604051602081830303815290604052805190602001209050600081604051602001610aa291906127c5565b604051602081830303815290604052805190602001209050600060018289898960405160008152602001604052604051610adf9493929190612809565b6020604051602081039080840390855afa158015610b01573d6000803e3d6000fd5b5050506020604051035190508360000160009054906101000a900473ffffffffffffffffffffffffffffffffffffffff1673ffffffffffffffffffffffffffffffffffffffff168173ffffffffffffffffffffffffffffffffffffffff1614610b9f576040517f08c379a0000000000000000000000000000000000000000000000000000000008152600401610b969061289a565b60405180910390fd5b60018b604051610baf919061243b565b908152602001604051809103902060008b73ffffffffffffffffffffffffffffffffffffffff1673ffffffffffffffffffffffffffffffffffffffff16815260200190815260200160002060009054906101000a900460ff16610c47576040517f08c379a0000000000000000000000000000000000000000000000000000000008152600401610c3e90612906565b60405180910390fd5b600073ffffffffffffffffffffffffffffffffffffffff168460050160009054906101000a900473ffffffffffffffffffffffffffffffffffffffff1673ffffffffffffffffffffffffffffffffffffffff1614610cda576040517f08c379a0000000000000000000000000000000000000000000000000000000008152600401610cd190612972565b60405180910390fd5b898460050160006101000a81548173ffffffffffffffffffffffffffffffffffffffff021916908373ffffffffffffffffffffffffffffffffffffffff1602179055507ff3bf7b40460c400bc3d5a864d85342803599eae103856e9878d89f4514e1e53f8b8b8b42604051610d529493929190612992565b60405180910390a15050505050505050505050565b6001828051602081018201805184825260208301602085012081835280955050505050506020528060005260406000206000915091509054906101000a900460ff1681565b60008089604051610dbd919061243b565b90815260200160405180910390206040518060c00160405290816000820160009054906101000a900473ffffffffffffffffffffffffffffffffffffffff1673ffffffffffffffffffffffffffffffffffffffff1673ffffffffffffffffffffffffffffffffffffffff168152602001600182018054610e3c906125c1565b80601f0160208091040260200160405190810160405280929190818152602001828054610e68906125c1565b8015610eb55780601f10610e8a57610100808354040283529160200191610eb5565b820191906000526020600020905b815481529060010190602001808311610e9857829003601f168201915b50505050508152602001600282018054610ece906125c1565b80601f0160208091040260200160405190810160405280929190818152602001828054610efa906125c1565b8015610f475780601f10610f1c57610100808354040283529160200191610f47565b820191906000526020600020905b815481529060010190602001808311610f2a57829003601f168201915b5050505050815260200160038201548152602001600482015481526020016005820160009054906101000a900473ffffffffffffffffffffffffffffffffffffffff1673ffffffffffffffffffffffffffffffffffffffff1673ffffffffffffffffffffffffffffffffffffffff16815250509050600073ffffffffffffffffffffffffffffffffffffffff16816000015173ffffffffffffffffffffffffffffffffffffffff160361102f576040517f08c379a00000000000000000000000000000000000000000000000000000000081526004016110269061249e565b60405180910390fd5b60008983604051602001611044929190612730565b60405160208183030381529060405280519060200120905060008160405160200161106f91906127c5565b6040516020818303038152906040528051906020012090506000600182898989604051600081526020016040526040516110ac9493929190612809565b6020604051602081039080840390855afa1580156110ce573d6000803e3d6000fd5b505050602060405103519050836000015173ffffffffffffffffffffffffffffffffffffffff168173ffffffffffffffffffffffffffffffffffffffff161461114c576040517f08c379a000000000000000000000000000000000000000000000000000000000815260040161114390612a31565b60405180910390fd5b8360600151421015611193576040517f08c379a000000000000000000000000000000000000000000000000000000000815260040161118a90612a9d565b60405180910390fd5b83608001514211156111da576040517f08c379a00000000000000000000000000000000000000000000000000000000081526004016111d190612b09565b60405180910390fd5b60018c6040516111ea919061243b565b908152602001604051809103902060008c73ffffffffffffffffffffffffffffffffffffffff1673ffffffffffffffffffffffffffffffffffffffff16815260200190815260200160002060009054906101000a900460ff1615611283576040517f08c379a000000000000000000000000000000000000000000000000000000000815260040161127a90612b75565b60405180910390fd5b6001808d604051611294919061243b565b908152602001604051809103902060008d73ffffffffffffffffffffffffffffffffffffffff1673ffffffffffffffffffffffffffffffffffffffff16815260200190815260200160002060006101000a81548160ff021916908315150217905550600060028d604051611308919061243b565b908152602001604051809103902060008d73ffffffffffffffffffffffffffffffffffffffff1673ffffffffffffffffffffffffffffffffffffffff16815260200190815260200160002060006101000a81548160ff02191690831515021790555060058c60405161137a919061243b565b90815260200160405180910390208b9080600181540180825580915050600190039060005260206000200160009091909190916101000a81548173ffffffffffffffffffffffffffffffffffffffff021916908373ffffffffffffffffffffffffffffffffffffffff160217905550600060068d6040516113fb919061243b565b9081526020016040518091039020905060005b818054905081101561158b578c73ffffffffffffffffffffffffffffffffffffffff1682828154811061144457611443612b95565b5b9060005260206000200160009054906101000a900473ffffffffffffffffffffffffffffffffffffffff1673ffffffffffffffffffffffffffffffffffffffff160361157e57816001838054905061149c9190612bf3565b815481106114ad576114ac612b95565b5b9060005260206000200160009054906101000a900473ffffffffffffffffffffffffffffffffffffffff168282815481106114eb576114ea612b95565b5b9060005260206000200160006101000a81548173ffffffffffffffffffffffffffffffffffffffff021916908373ffffffffffffffffffffffffffffffffffffffff1602179055508180548061154457611543612c27565b5b6001900381819060005260206000200160006101000a81549073ffffffffffffffffffffffffffffffffffffffff0219169055905561158b565b808060010191505061140e565b507f2990cac7ffb717bbbe6ba55e41a7887bec681db6e6bce83cedd76385d2d6d2538d8d8d8d426040516115c395949392919061252a565b60405180910390a150505050505050505050505050565b600682805160208101820180518482526020830160208501208183528095505050505050818154811061160c57600080fd5b906000526020600020016000915091509054906101000a900473ffffffffffffffffffffffffffffffffffffffff1681565b6004602052816000526040600020818154811061165a57600080fd5b90600052602060002001600091509150508054611676906125c1565b80601f01602080910402602001604051908101604052809291908181526020018280546116a2906125c1565b80156116ef5780601f106116c4576101008083540402835291602001916116ef565b820191906000526020600020905b8154815290600101906020018083116116d257829003601f168201915b505050505081565b848610611739576040517f08c379a000000000000000000000000000000000000000000000000000000000815260040161173090612ca2565b60405180910390fd5b60008160405160200161174c9190612cc2565b60405160208183030381529060405280519060200120905060008160405160200161177791906127c5565b6040516020818303038152906040528051906020012090506000600182888888604051600081526020016040526040516117b49493929190612809565b6020604051602081039080840390855afa1580156117d6573d6000803e3d6000fd5b5050506020604051035190506040518060c001604052808273ffffffffffffffffffffffffffffffffffffffff1681526020018c81526020018b81526020018a8152602001898152602001600073ffffffffffffffffffffffffffffffffffffffff1681525060008d60405161184c919061243b565b908152602001604051809103902060008201518160000160006101000a81548173ffffffffffffffffffffffffffffffffffffffff021916908373ffffffffffffffffffffffffffffffffffffffff16021790555060208201518160010190816118b69190612e74565b5060408201518160020190816118cc9190612e74565b50606082015181600301556080820151816004015560a08201518160050160006101000a81548173ffffffffffffffffffffffffffffffffffffffff021916908373ffffffffffffffffffffffffffffffffffffffff16021790555090505060038c90806001815401808255809150506001900390600052602060002001600090919091909150908161195f9190612e74565b50600460008273ffffffffffffffffffffffffffffffffffffffff1673ffffffffffffffffffffffffffffffffffffffff1681526020019081526020016000208c9080600181540180825580915050600190039060005260206000200160009091909190915090816119d19190612e74565b507f5608be3d488ea8e638dd732689e51705b3242a41fecefaab69657793577064108c828d8d8d8d604051611a0b96959493929190612f46565b60405180910390a1505050505050505050505050565b6000600283604051611a33919061243b565b908152602001604051809103902060008373ffffffffffffffffffffffffffffffffffffffff1673ffffffffffffffffffffffffffffffffffffffff16815260200190815260200160002060009054906101000a900460ff16905092915050565b6005828051602081018201805184825260208301602085012081835280955050505050508181548110611ac657600080fd5b906000526020600020016000915091509054906101000a900473ffffffffffffffffffffffffffffffffffffffff1681565b6000604051905090565b600080fd5b600080fd5b600080fd5b600080fd5b6000601f19601f8301169050919050565b7f4e487b7100000000000000000000000000000000000000000000000000000000600052604160045260246000fd5b611b5f82611b16565b810181811067ffffffffffffffff82111715611b7e57611b7d611b27565b5b80604052505050565b6000611b91611af8565b9050611b9d8282611b56565b919050565b600067ffffffffffffffff821115611bbd57611bbc611b27565b5b611bc682611b16565b9050602081019050919050565b82818337600083830152505050565b6000611bf5611bf084611ba2565b611b87565b905082815260208101848484011115611c1157611c10611b11565b5b611c1c848285611bd3565b509392505050565b600082601f830112611c3957611c38611b0c565b5b8135611c49848260208601611be2565b91505092915050565b600073ffffffffffffffffffffffffffffffffffffffff82169050919050565b6000611c7d82611c52565b9050919050565b611c8d81611c72565b8114611c9857600080fd5b50565b600081359050611caa81611c84565b92915050565b60008060008060808587031215611cca57611cc9611b02565b5b600085013567ffffffffffffffff811115611ce857611ce7611b07565b5b611cf487828801611c24565b945050602085013567ffffffffffffffff811115611d1557611d14611b07565b5b611d2187828801611c24565b935050604085013567ffffffffffffffff811115611d4257611d41611b07565b5b611d4e87828801611c24565b9250506060611d5f87828801611c9b565b91505092959194509250565b60008060408385031215611d8257611d81611b02565b5b600083013567ffffffffffffffff811115611da057611d9f611b07565b5b611dac85828601611c24565b9250506020611dbd85828601611c9b565b9150509250929050565b60008115159050919050565b611ddc81611dc7565b82525050565b6000602082019050611df76000830184611dd3565b92915050565b600060208284031215611e1357611e12611b02565b5b600082013567ffffffffffffffff811115611e3157611e30611b07565b5b611e3d84828501611c24565b91505092915050565b611e4f81611c72565b82525050565b6000602082019050611e6a6000830184611e46565b92915050565b6000819050919050565b611e8381611e70565b8114611e8e57600080fd5b50565b600081359050611ea081611e7a565b92915050565b600060208284031215611ebc57611ebb611b02565b5b6000611eca84828501611e91565b91505092915050565b600081519050919050565b600082825260208201905092915050565b60005b83811015611f0d578082015181840152602081019050611ef2565b60008484015250505050565b6000611f2482611ed3565b611f2e8185611ede565b9350611f3e818560208601611eef565b611f4781611b16565b840191505092915050565b60006020820190508181036000830152611f6c8184611f19565b905092915050565b611f7d81611e70565b82525050565b600060c082019050611f986000830189611e46565b8181036020830152611faa8188611f19565b90508181036040830152611fbe8187611f19565b9050611fcd6060830186611f74565b611fda6080830185611f74565b611fe760a0830184611e46565b979650505050505050565b600060ff82169050919050565b61200881611ff2565b811461201357600080fd5b50565b60008135905061202581611fff565b92915050565b6000819050919050565b61203e8161202b565b811461204957600080fd5b50565b60008135905061205b81612035565b92915050565b600080600080600080600060e0888a0312156120805761207f611b02565b5b600088013567ffffffffffffffff81111561209e5761209d611b07565b5b6120aa8a828b01611c24565b97505060206120bb8a828b01611c9b565b965050604088013567ffffffffffffffff8111156120dc576120db611b07565b5b6120e88a828b01611c24565b95505060606120f98a828b01612016565b945050608061210a8a828b0161204c565b93505060a061211b8a828b0161204c565b92505060c061212c8a828b01611e91565b91505092959891949750929550565b600080600080600080600080610100898b03121561215c5761215b611b02565b5b600089013567ffffffffffffffff81111561217a57612179611b07565b5b6121868b828c01611c24565b98505060206121978b828c01611c9b565b975050604089013567ffffffffffffffff8111156121b8576121b7611b07565b5b6121c48b828c01611c24565b965050606089013567ffffffffffffffff8111156121e5576121e4611b07565b5b6121f18b828c01611c24565b95505060806122028b828c01612016565b94505060a06122138b828c0161204c565b93505060c06122248b828c0161204c565b92505060e06122358b828c01611e91565b9150509295985092959890939650565b6000806040838503121561225c5761225b611b02565b5b600083013567ffffffffffffffff81111561227a57612279611b07565b5b61228685828601611c24565b925050602061229785828601611e91565b9150509250929050565b600080604083850312156122b8576122b7611b02565b5b60006122c685828601611c9b565b92505060206122d785828601611e91565b9150509250929050565b60008060008060008060008060006101208a8c03121561230457612303611b02565b5b60008a013567ffffffffffffffff81111561232257612321611b07565b5b61232e8c828d01611c24565b99505060208a013567ffffffffffffffff81111561234f5761234e611b07565b5b61235b8c828d01611c24565b98505060408a013567ffffffffffffffff81111561237c5761237b611b07565b5b6123888c828d01611c24565b97505060606123998c828d01611e91565b96505060806123aa8c828d01611e91565b95505060a06123bb8c828d01612016565b94505060c06123cc8c828d0161204c565b93505060e06123dd8c828d0161204c565b9250506101006123ef8c828d01611e91565b9150509295985092959850929598565b600081905092915050565b600061241582611ed3565b61241f81856123ff565b935061242f818560208601611eef565b80840191505092915050565b6000612447828461240a565b915081905092915050565b7f54656e64657220646f6573206e6f742065786973740000000000000000000000600082015250565b6000612488601583611ede565b915061249382612452565b602082019050919050565b600060208201905081810360008301526124b78161247b565b9050919050565b7f416c7265616479206d61726b65642061732070656e64696e6700000000000000600082015250565b60006124f4601983611ede565b91506124ff826124be565b602082019050919050565b60006020820190508181036000830152612523816124e7565b9050919050565b600060a08201905081810360008301526125448188611f19565b90506125536020830187611e46565b81810360408301526125658186611f19565b905081810360608301526125798185611f19565b90506125886080830184611f74565b9695505050505050565b7f4e487b7100000000000000000000000000000000000000000000000000000000600052602260045260246000fd5b600060028204905060018216806125d957607f821691505b6020821081036125ec576125eb612592565b5b50919050565b60008190508160005260206000209050919050565b60008154612614816125c1565b61261e8186611ede565b94506001821660008114612639576001811461264f57612682565b60ff198316865281151560200286019350612682565b612658856125f2565b60005b8381101561267a5781548189015260018201915060208101905061265b565b808801955050505b50505092915050565b600060e0820190506126a0600083018a611e46565b81810360208301526126b28189611f19565b90506126c16040830188611e46565b81810360608301526126d38187612607565b905081810360808301526126e78186612607565b90506126f660a0830185611f74565b61270360c0830184611f74565b98975050505050505050565b6000819050919050565b61272a61272582611e70565b61270f565b82525050565b600061273c828561240a565b91506127488284612719565b6020820191508190509392505050565b7f19457468657265756d205369676e6564204d6573736167653a0a333200000000600082015250565b600061278e601c836123ff565b915061279982612758565b601c82019050919050565b6000819050919050565b6127bf6127ba8261202b565b6127a4565b82525050565b60006127d082612781565b91506127dc82846127ae565b60208201915081905092915050565b6127f48161202b565b82525050565b61280381611ff2565b82525050565b600060808201905061281e60008301876127eb565b61282b60208301866127fa565b61283860408301856127eb565b61284560608301846127eb565b95945050505050565b7f4f6e6c79206f776e65722063616e2073656c6563742077696e6e657200000000600082015250565b6000612884601c83611ede565b915061288f8261284e565b602082019050919050565b600060208201905081810360008301526128b381612877565b9050919050565b7f4e6f742061207061727469636970616e74000000000000000000000000000000600082015250565b60006128f0601183611ede565b91506128fb826128ba565b602082019050919050565b6000602082019050818103600083015261291f816128e3565b9050919050565b7f57696e6e657220616c72656164792073656c6563746564000000000000000000600082015250565b600061295c601783611ede565b915061296782612926565b602082019050919050565b6000602082019050818103600083015261298b8161294f565b9050919050565b600060808201905081810360008301526129ac8187611f19565b90506129bb6020830186611e46565b81810360408301526129cd8185611f19565b90506129dc6060830184611f74565b95945050505050565b7f496e76616c6964207369676e6174757265000000000000000000000000000000600082015250565b6000612a1b601183611ede565b9150612a26826129e5565b602082019050919050565b60006020820190508181036000830152612a4a81612a0e565b9050919050565b7f54656e646572206e6f7420737461727465640000000000000000000000000000600082015250565b6000612a87601283611ede565b9150612a9282612a51565b602082019050919050565b60006020820190508181036000830152612ab681612a7a565b9050919050565b7f54656e64657220656e6465640000000000000000000000000000000000000000600082015250565b6000612af3600c83611ede565b9150612afe82612abd565b602082019050919050565b60006020820190508181036000830152612b2281612ae6565b9050919050565b7f416c72656164792061207061727469636970616e740000000000000000000000600082015250565b6000612b5f601583611ede565b9150612b6a82612b29565b602082019050919050565b60006020820190508181036000830152612b8e81612b52565b9050919050565b7f4e487b7100000000000000000000000000000000000000000000000000000000600052603260045260246000fd5b7f4e487b7100000000000000000000000000000000000000000000000000000000600052601160045260246000fd5b6000612bfe82611e70565b9150612c0983611e70565b9250828203905081811115612c2157612c20612bc4565b5b92915050565b7f4e487b7100000000000000000000000000000000000000000000000000000000600052603160045260246000fd5b7f496e76616c696420646174657300000000000000000000000000000000000000600082015250565b6000612c8c600d83611ede565b9150612c9782612c56565b602082019050919050565b60006020820190508181036000830152612cbb81612c7f565b9050919050565b6000612cce8284612719565b60208201915081905092915050565b60006020601f8301049050919050565b600082821b905092915050565b600060088302612d2a7fffffffffffffffffffffffffffffffffffffffffffffffffffffffffffffffff82612ced565b612d348683612ced565b95508019841693508086168417925050509392505050565b6000819050919050565b6000612d71612d6c612d6784611e70565b612d4c565b611e70565b9050919050565b6000819050919050565b612d8b83612d56565b612d9f612d9782612d78565b848454612cfa565b825550505050565b600090565b612db4612da7565b612dbf818484612d82565b505050565b5b81811015612de357612dd8600082612dac565b600181019050612dc5565b5050565b601f821115612e2857612df9816125f2565b612e0284612cdd565b81016020851015612e11578190505b612e25612e1d85612cdd565b830182612dc4565b50505b505050565b600082821c905092915050565b6000612e4b60001984600802612e2d565b1980831691505092915050565b6000612e648383612e3a565b9150826002028217905092915050565b612e7d82611ed3565b67ffffffffffffffff811115612e9657612e95611b27565b5b612ea082546125c1565b612eab828285612de7565b600060209050601f831160018114612ede5760008415612ecc578287015190505b612ed68582612e58565b865550612f3e565b601f198416612eec866125f2565b60005b82811015612f1457848901518255600182019150602085019450602081019050612eef565b86831015612f315784890151612f2d601f891682612e3a565b8355505b6001600288020188555050505b505050505050565b600060c0820190508181036000830152612f608189611f19565b9050612f6f6020830188611e46565b8181036040830152612f818187611f19565b90508181036060830152612f958186611f19565b9050612fa46080830185611f74565b612fb160a0830184611f74565b97965050505050505056fea26469706673582212207ed5d156adc764193676d6b223e8993aa0f3905e616af9590912cb9c5a60078f64736f6c634300081c0033",
  "linkReferences": {},
  "deployedLinkReferences": {}
}