{
  "_format": "hh-sol-artifact-1",
  "contractName": "TenderManager",
  "sourceName": "contracts/TenderManager.sol",
  "abi": [
    {
      "anonymous": false,
      "inputs": [
        {
          "indexed": true,
          "internalType": "string",
          "name": "tenderId",
          "type": "string"
        },
        {
          "indexed": false,
          "internalType": "address",
          "name": "participant",
          "type": "address"
        }
      ],
      "name": "ParticipantAdded",
      "type": "event"
    },
    {
      "anonymous": false,
      "inputs": [
        {
          "indexed": true,
          "internalType": "string",
          "name": "tenderId",
          "type": "string"
        },
        {
          "indexed": false,
          "internalType": "address",
          "name": "owner",
          "type": "address"
        },
        {
          "indexed": false,
          "internalType": "string",
          "name": "name",
          "type": "string"
        }
      ],
      "name": "TenderCreated",
      "type": "event"
    },
    {
      "anonymous": false,
      "inputs": [
        {
          "indexed": true,
          "internalType": "string",
          "name": "tenderId",
          "type": "string"
        },
        {
          "indexed": false,
          "internalType": "address",
          "name": "winner",
          "type": "address"
        }
      ],
      "name": "WinnerSelected",
      "type": "event"
    },
    {
      "inputs": [
        {
          "internalType": "string",
          "name": "tenderId",
          "type": "string"
        },
        {
          "internalType": "address",
          "name": "participant",
          "type": "address"
        },
        {
          "internalType": "uint8",
          "name": "v",
          "type": "uint8"
        },
        {
          "internalType": "bytes32",
          "name": "r",
          "type": "bytes32"
        },
        {
          "internalType": "bytes32",
          "name": "s",
          "type": "bytes32"
        },
        {
          "internalType": "uint256",
          "name": "deadline",
          "type": "uint256"
        }
      ],
      "name": "addParticipant",
      "outputs": [],
      "stateMutability": "nonpayable",
      "type": "function"
    },
    {
      "inputs": [
        {
          "internalType": "string",
          "name": "tenderId",
          "type": "string"
        },
        {
          "internalType": "address",
          "name": "participant",
          "type": "address"
        }
      ],
      "name": "addPendingParticipant",
      "outputs": [],
      "stateMutability": "nonpayable",
      "type": "function"
    },
    {
      "inputs": [
        {
          "internalType": "uint256",
          "name": "",
          "type": "uint256"
        }
      ],
      "name": "allTenderIds",
      "outputs": [
        {
          "internalType": "string",
          "name": "",
          "type": "string"
        }
      ],
      "stateMutability": "view",
      "type": "function"
    },
    {
      "inputs": [
        {
          "internalType": "string",
          "name": "tenderId",
          "type": "string"
        },
        {
          "internalType": "string",
          "name": "name",
          "type": "string"
        },
        {
          "internalType": "string",
          "name": "description",
          "type": "string"
        },
        {
          "internalType": "uint256",
          "name": "startDate",
          "type": "uint256"
        },
        {
          "internalType": "uint256",
          "name": "endDate",
          "type": "uint256"
        },
        {
          "internalType": "address",
          "name": "owner",
          "type": "address"
        }
      ],
      "name": "createTender",
      "outputs": [],
      "stateMutability": "nonpayable",
      "type": "function"
    },
    {
      "inputs": [
        {
          "internalType": "uint256",
          "name": "page",
          "type": "uint256"
        },
        {
          "internalType": "uint256",
          "name": "pageSize",
          "type": "uint256"
        }
      ],
      "name": "getAllTenders",
      "outputs": [
        {
          "internalType": "string[]",
          "name": "tenderIds",
          "type": "string[]"
        },
        {
          "components": [
            {
              "internalType": "address",
              "name": "owner",
              "type": "address"
            },
            {
              "internalType": "string",
              "name": "name",
              "type": "string"
            },
            {
              "internalType": "string",
              "name": "description",
              "type": "string"
            },
            {
              "internalType": "uint256",
              "name": "startDate",
              "type": "uint256"
            },
            {
              "internalType": "uint256",
              "name": "endDate",
              "type": "uint256"
            },
            {
              "internalType": "address",
              "name": "winner",
              "type": "address"
            }
          ],
          "internalType": "struct TenderManager.Tender[]",
          "name": "tenderDetails",
          "type": "tuple[]"
        }
      ],
      "stateMutability": "view",
      "type": "function"
    },
    {
      "inputs": [
        {
          "internalType": "string",
          "name": "tenderId",
          "type": "string"
        }
      ],
      "name": "getOwner",
      "outputs": [
        {
          "internalType": "address",
          "name": "",
          "type": "address"
        }
      ],
      "stateMutability": "view",
      "type": "function"
    },
    {
      "inputs": [
        {
          "internalType": "string",
          "name": "tenderId",
          "type": "string"
        }
      ],
      "name": "getParticipants",
      "outputs": [
        {
          "internalType": "address[]",
          "name": "",
          "type": "address[]"
        }
      ],
      "stateMutability": "view",
      "type": "function"
    },
    {
      "inputs": [
        {
          "internalType": "string",
          "name": "tenderId",
          "type": "string"
        }
      ],
      "name": "getPendingParticipants",
      "outputs": [
        {
          "internalType": "address[]",
          "name": "",
          "type": "address[]"
        }
      ],
      "stateMutability": "view",
      "type": "function"
    },
    {
      "inputs": [
        {
          "internalType": "string",
          "name": "tenderId",
          "type": "string"
        }
      ],
      "name": "getTender",
      "outputs": [
        {
          "internalType": "address",
          "name": "owner",
          "type": "address"
        },
        {
          "internalType": "string",
          "name": "name",
          "type": "string"
        },
        {
          "internalType": "string",
          "name": "description",
          "type": "string"
        },
        {
          "internalType": "uint256",
          "name": "startDate",
          "type": "uint256"
        },
        {
          "internalType": "uint256",
          "name": "endDate",
          "type": "uint256"
        },
        {
          "internalType": "address",
          "name": "winner",
          "type": "address"
        },
        {
          "internalType": "bool",
          "name": "isActive",
          "type": "bool"
        }
      ],
      "stateMutability": "view",
      "type": "function"
    },
    {
      "inputs": [
        {
          "internalType": "address",
          "name": "owner",
          "type": "address"
        },
        {
          "internalType": "uint256",
          "name": "page",
          "type": "uint256"
        },
        {
          "internalType": "uint256",
          "name": "pageSize",
          "type": "uint256"
        }
      ],
      "name": "getTendersByOwner",
      "outputs": [
        {
          "internalType": "string[]",
          "name": "tenderIds",
          "type": "string[]"
        },
        {
          "components": [
            {
              "internalType": "address",
              "name": "owner",
              "type": "address"
            },
            {
              "internalType": "string",
              "name": "name",
              "type": "string"
            },
            {
              "internalType": "string",
              "name": "description",
              "type": "string"
            },
            {
              "internalType": "uint256",
              "name": "startDate",
              "type": "uint256"
            },
            {
              "internalType": "uint256",
              "name": "endDate",
              "type": "uint256"
            },
            {
              "internalType": "address",
              "name": "winner",
              "type": "address"
            }
          ],
          "internalType": "struct TenderManager.Tender[]",
          "name": "tenderDetails",
          "type": "tuple[]"
        }
      ],
      "stateMutability": "view",
      "type": "function"
    },
    {
      "inputs": [
        {
          "internalType": "string",
          "name": "tenderId",
          "type": "string"
        },
        {
          "internalType": "address",
          "name": "participant",
          "type": "address"
        }
      ],
      "name": "isParticipant",
      "outputs": [
        {
          "internalType": "bool",
          "name": "",
          "type": "bool"
        }
      ],
      "stateMutability": "view",
      "type": "function"
    },
    {
      "inputs": [
        {
          "internalType": "string",
          "name": "tenderId",
          "type": "string"
        },
        {
          "internalType": "address",
          "name": "participant",
          "type": "address"
        }
      ],
      "name": "isPendingParticipant",
      "outputs": [
        {
          "internalType": "bool",
          "name": "",
          "type": "bool"
        }
      ],
      "stateMutability": "view",
      "type": "function"
    },
    {
      "inputs": [
        {
          "internalType": "address",
          "name": "",
          "type": "address"
        },
        {
          "internalType": "uint256",
          "name": "",
          "type": "uint256"
        }
      ],
      "name": "ownerTenderIds",
      "outputs": [
        {
          "internalType": "string",
          "name": "",
          "type": "string"
        }
      ],
      "stateMutability": "view",
      "type": "function"
    },
    {
      "inputs": [
        {
          "internalType": "string",
          "name": "",
          "type": "string"
        },
        {
          "internalType": "address",
          "name": "",
          "type": "address"
        }
      ],
      "name": "participants",
      "outputs": [
        {
          "internalType": "bool",
          "name": "",
          "type": "bool"
        }
      ],
      "stateMutability": "view",
      "type": "function"
    },
    {
      "inputs": [
        {
          "internalType": "string",
          "name": "",
          "type": "string"
        },
        {
          "internalType": "address",
          "name": "",
          "type": "address"
        }
      ],
      "name": "pendingParticipants",
      "outputs": [
        {
          "internalType": "bool",
          "name": "",
          "type": "bool"
        }
      ],
      "stateMutability": "view",
      "type": "function"
    },
    {
      "inputs": [
        {
          "internalType": "string",
          "name": "",
          "type": "string"
        },
        {
          "internalType": "uint256",
          "name": "",
          "type": "uint256"
        }
      ],
      "name": "pendingTenderParticipants",
      "outputs": [
        {
          "internalType": "address",
          "name": "",
          "type": "address"
        }
      ],
      "stateMutability": "view",
      "type": "function"
    },
    {
      "inputs": [
        {
          "internalType": "string",
          "name": "tenderId",
          "type": "string"
        },
        {
          "internalType": "address",
          "name": "owner",
          "type": "address"
        },
        {
          "internalType": "address",
          "name": "winner",
          "type": "address"
        }
      ],
      "name": "selectWinner",
      "outputs": [],
      "stateMutability": "nonpayable",
      "type": "function"
    },
    {
      "inputs": [
        {
          "internalType": "string",
          "name": "",
          "type": "string"
        },
        {
          "internalType": "uint256",
          "name": "",
          "type": "uint256"
        }
      ],
      "name": "tenderParticipants",
      "outputs": [
        {
          "internalType": "address",
          "name": "",
          "type": "address"
        }
      ],
      "stateMutability": "view",
      "type": "function"
    },
    {
      "inputs": [
        {
          "internalType": "string",
          "name": "",
          "type": "string"
        }
      ],
      "name": "tenderToOwner",
      "outputs": [
        {
          "internalType": "address",
          "name": "",
          "type": "address"
        }
      ],
      "stateMutability": "view",
      "type": "function"
    },
    {
      "inputs": [
        {
          "internalType": "address",
          "name": "",
          "type": "address"
        },
        {
          "internalType": "string",
          "name": "",
          "type": "string"
        }
      ],
      "name": "tenders",
      "outputs": [
        {
          "internalType": "address",
          "name": "owner",
          "type": "address"
        },
        {
          "internalType": "string",
          "name": "name",
          "type": "string"
        },
        {
          "internalType": "string",
          "name": "description",
          "type": "string"
        },
        {
          "internalType": "uint256",
          "name": "startDate",
          "type": "uint256"
        },
        {
          "internalType": "uint256",
          "name": "endDate",
          "type": "uint256"
        },
        {
          "internalType": "address",
          "name": "winner",
          "type": "address"
        }
      ],
      "stateMutability": "view",
      "type": "function"
    }
  ],
  "bytecode": "0x6080604052348015600f57600080fd5b5061435d8061001f6000396000f3fe608060405234801561001057600080fd5b506004361061012c5760003560e01c8063839544b0116100ad578063d3d3657511610071578063d3d36575146103d2578063deaf492014610402578063e4afd7c014610432578063e713406814610462578063fa3b72b01461047e5761012c565b8063839544b0146102f0578063a686f23914610320578063b38d97ef14610351578063bcdabc091461036d578063bff2eeed1461039d5761012c565b80634756331e116100f45780634756331e146101fa5780634aaf4a121461022a57806362f058c81461025a5780637e90def714610290578063810374aa146102c05761012c565b8063148381381461013157806326307abb1461016157806326c85c3f1461019257806329138ccc146101c25780632eb0f8eb146101de575b600080fd5b61014b60048036038101906101469190612cfb565b6104ae565b6040516101589190612d85565b60405180910390f35b61017b60048036038101906101769190612e02565b6104f7565b604051610189929190613106565b60405180910390f35b6101ac60048036038101906101a7919061313d565b610a5b565b6040516101b991906131b4565b60405180910390f35b6101dc60048036038101906101d791906131cf565b610aa0565b005b6101f860048036038101906101f391906132ad565b610e6d565b005b610214600480360381019061020f919061313d565b61157e565b60405161022191906131b4565b60405180910390f35b610244600480360381019061023f9190612cfb565b6115f1565b6040516102519190612d85565b60405180910390f35b610274600480360381019061026f9190612cfb565b611639565b60405161028797969594939291906133af565b60405180910390f35b6102aa60048036038101906102a59190612cfb565b61199a565b6040516102b791906134db565b60405180910390f35b6102da60048036038101906102d591906134fd565b611af3565b6040516102e7919061352a565b60405180910390f35b61030a60048036038101906103059190612cfb565b611b9f565b60405161031791906134db565b60405180910390f35b61033a6004803603810190610335919061354c565b611cf8565b604051610348929190613106565b60405180910390f35b61036b6004803603810190610366919061358c565b6121e8565b005b6103876004803603810190610382919061313d565b61250a565b60405161039491906131b4565b60405180910390f35b6103b760048036038101906103b2919061366d565b61254f565b6040516103c9969594939291906136c9565b60405180910390f35b6103ec60048036038101906103e79190613738565b6126fe565b6040516103f99190612d85565b60405180910390f35b61041c60048036038101906104179190613794565b612762565b604051610429919061352a565b60405180910390f35b61044c6004803603810190610447919061313d565b61281b565b60405161045991906131b4565b60405180910390f35b61047c6004803603810190610477919061313d565b61288e565b005b61049860048036038101906104939190613738565b612adb565b6040516104a59190612d85565b60405180910390f35b6005818051602081018201805184825260208301602085012081835280955050505050506000915054906101000a900473ffffffffffffffffffffffffffffffffffffffff1681565b6060806000841161053d576040517f08c379a000000000000000000000000000000000000000000000000000000000815260040161053490613820565b60405180910390fd5b60008360018661054d919061386f565b61055791906138a3565b90506000848261056791906138e5565b9050600460008873ffffffffffffffffffffffffffffffffffffffff1673ffffffffffffffffffffffffffffffffffffffff168152602001908152602001600020805490508111156105f957600460008873ffffffffffffffffffffffffffffffffffffffff1673ffffffffffffffffffffffffffffffffffffffff1681526020019081526020016000208054905090505b60008282610607919061386f565b90508067ffffffffffffffff81111561062357610622612bd0565b5b60405190808252806020026020018201604052801561065657816020015b60608152602001906001900390816106415790505b5094508067ffffffffffffffff81111561067357610672612bd0565b5b6040519080825280602002602001820160405280156106ac57816020015b610699612b3f565b8152602001906001900390816106915790505b50935060008390505b82811015610a4f576000600460008b73ffffffffffffffffffffffffffffffffffffffff1673ffffffffffffffffffffffffffffffffffffffff16815260200190815260200160002082815481106107105761070f613919565b5b90600052602060002001805461072590613977565b80601f016020809104026020016040519081016040528092919081815260200182805461075190613977565b801561079e5780601f106107735761010080835404028352916020019161079e565b820191906000526020600020905b81548152906001019060200180831161078157829003601f168201915b50505050509050808786846107b3919061386f565b815181106107c4576107c3613919565b5b60200260200101819052506000808b73ffffffffffffffffffffffffffffffffffffffff1673ffffffffffffffffffffffffffffffffffffffff1681526020019081526020016000208160405161081b91906139e4565b90815260200160405180910390206040518060c00160405290816000820160009054906101000a900473ffffffffffffffffffffffffffffffffffffffff1673ffffffffffffffffffffffffffffffffffffffff1673ffffffffffffffffffffffffffffffffffffffff16815260200160018201805461089a90613977565b80601f01602080910402602001604051908101604052809291908181526020018280546108c690613977565b80156109135780601f106108e857610100808354040283529160200191610913565b820191906000526020600020905b8154815290600101906020018083116108f657829003601f168201915b5050505050815260200160028201805461092c90613977565b80601f016020809104026020016040519081016040528092919081815260200182805461095890613977565b80156109a55780601f1061097a576101008083540402835291602001916109a5565b820191906000526020600020905b81548152906001019060200180831161098857829003601f168201915b5050505050815260200160038201548152602001600482015481526020016005820160009054906101000a900473ffffffffffffffffffffffffffffffffffffffff1673ffffffffffffffffffffffffffffffffffffffff1673ffffffffffffffffffffffffffffffffffffffff1681525050868684610a25919061386f565b81518110610a3657610a35613919565b5b60200260200101819052505080806001019150506106b5565b50505050935093915050565b6002828051602081018201805184825260208301602085012081835280955050505050506020528060005260406000206000915091509054906101000a900460ff1681565b8173ffffffffffffffffffffffffffffffffffffffff16600584604051610ac791906139e4565b908152602001604051809103902060009054906101000a900473ffffffffffffffffffffffffffffffffffffffff1673ffffffffffffffffffffffffffffffffffffffff1614610b4c576040517f08c379a0000000000000000000000000000000000000000000000000000000008152600401610b4390613a47565b60405180910390fd5b6000808373ffffffffffffffffffffffffffffffffffffffff1673ffffffffffffffffffffffffffffffffffffffff16815260200190815260200160002083604051610b9891906139e4565b9081526020016040518091039020600401544211610beb576040517f08c379a0000000000000000000000000000000000000000000000000000000008152600401610be290613ab3565b60405180910390fd5b600183604051610bfb91906139e4565b908152602001604051809103902060008273ffffffffffffffffffffffffffffffffffffffff1673ffffffffffffffffffffffffffffffffffffffff16815260200190815260200160002060009054906101000a900460ff16610c93576040517f08c379a0000000000000000000000000000000000000000000000000000000008152600401610c8a90613b1f565b60405180910390fd5b600073ffffffffffffffffffffffffffffffffffffffff166000808473ffffffffffffffffffffffffffffffffffffffff1673ffffffffffffffffffffffffffffffffffffffff16815260200190815260200160002084604051610cf791906139e4565b908152602001604051809103902060050160009054906101000a900473ffffffffffffffffffffffffffffffffffffffff1673ffffffffffffffffffffffffffffffffffffffff1614610d7f576040517f08c379a0000000000000000000000000000000000000000000000000000000008152600401610d7690613b8b565b60405180910390fd5b806000808473ffffffffffffffffffffffffffffffffffffffff1673ffffffffffffffffffffffffffffffffffffffff16815260200190815260200160002084604051610dcc91906139e4565b908152602001604051809103902060050160006101000a81548173ffffffffffffffffffffffffffffffffffffffff021916908373ffffffffffffffffffffffffffffffffffffffff16021790555082604051610e2991906139e4565b60405180910390207f8994284d793c65b1b90ec6dbc9452b1d2ac013d68ca9bc8fd0744306533c838582604051610e609190612d85565b60405180910390a2505050565b60008682604051602001610e82929190613bcc565b604051602081830303815290604052805190602001209050600081604051602001610ead9190613c61565b604051602081830303815290604052805190602001209050600060018288888860405160008152602001604052604051610eea9493929190613ca5565b6020604051602081039080840390855afa158015610f0c573d6000803e3d6000fd5b505050602060405103519050600073ffffffffffffffffffffffffffffffffffffffff168173ffffffffffffffffffffffffffffffffffffffff1603610f87576040517f08c379a0000000000000000000000000000000000000000000000000000000008152600401610f7e90613d36565b60405180910390fd5b8073ffffffffffffffffffffffffffffffffffffffff1660058a604051610fae91906139e4565b908152602001604051809103902060009054906101000a900473ffffffffffffffffffffffffffffffffffffffff1673ffffffffffffffffffffffffffffffffffffffff1614611033576040517f08c379a000000000000000000000000000000000000000000000000000000000815260040161102a90613da2565b60405180910390fd5b6000808273ffffffffffffffffffffffffffffffffffffffff1673ffffffffffffffffffffffffffffffffffffffff1681526020019081526020016000208960405161107f91906139e4565b9081526020016040518091039020600301544210156110d3576040517f08c379a00000000000000000000000000000000000000000000000000000000081526004016110ca90613e0e565b60405180910390fd5b6000808273ffffffffffffffffffffffffffffffffffffffff1673ffffffffffffffffffffffffffffffffffffffff1681526020019081526020016000208960405161111f91906139e4565b908152602001604051809103902060040154421115611173576040517f08c379a000000000000000000000000000000000000000000000000000000000815260040161116a90613e7a565b60405180910390fd5b60018960405161118391906139e4565b908152602001604051809103902060008973ffffffffffffffffffffffffffffffffffffffff1673ffffffffffffffffffffffffffffffffffffffff16815260200190815260200160002060009054906101000a900460ff161561121c576040517f08c379a000000000000000000000000000000000000000000000000000000000815260040161121390613ee6565b60405180910390fd5b600060028a60405161122e91906139e4565b908152602001604051809103902060008a73ffffffffffffffffffffffffffffffffffffffff1673ffffffffffffffffffffffffffffffffffffffff16815260200190815260200160002060006101000a81548160ff0219169083151502179055506001808a6040516112a191906139e4565b908152602001604051809103902060008a73ffffffffffffffffffffffffffffffffffffffff1673ffffffffffffffffffffffffffffffffffffffff16815260200190815260200160002060006101000a81548160ff02191690831515021790555060068960405161131391906139e4565b9081526020016040518091039020889080600181540180825580915050600190039060005260206000200160009091909190916101000a81548173ffffffffffffffffffffffffffffffffffffffff021916908373ffffffffffffffffffffffffffffffffffffffff160217905550600060078a60405161139491906139e4565b9081526020016040518091039020905060005b8180549050811015611524578973ffffffffffffffffffffffffffffffffffffffff168282815481106113dd576113dc613919565b5b9060005260206000200160009054906101000a900473ffffffffffffffffffffffffffffffffffffffff1673ffffffffffffffffffffffffffffffffffffffff1603611517578160018380549050611435919061386f565b8154811061144657611445613919565b5b9060005260206000200160009054906101000a900473ffffffffffffffffffffffffffffffffffffffff1682828154811061148457611483613919565b5b9060005260206000200160006101000a81548173ffffffffffffffffffffffffffffffffffffffff021916908373ffffffffffffffffffffffffffffffffffffffff160217905550818054806114dd576114dc613f06565b5b6001900381819060005260206000200160006101000a81549073ffffffffffffffffffffffffffffffffffffffff02191690559055611524565b80806001019150506113a7565b508960405161153391906139e4565b60405180910390207fdb0be6c9d7f59ad13d477d017b40888888caa620afad19a1738b77c2998175c58a60405161156a9190612d85565b60405180910390a250505050505050505050565b600060018360405161159091906139e4565b908152602001604051809103902060008373ffffffffffffffffffffffffffffffffffffffff1673ffffffffffffffffffffffffffffffffffffffff16815260200190815260200160002060009054906101000a900460ff16905092915050565b600060058260405161160391906139e4565b908152602001604051809103902060009054906101000a900473ffffffffffffffffffffffffffffffffffffffff169050919050565b6000606080600080600080600060058960405161165691906139e4565b908152602001604051809103902060009054906101000a900473ffffffffffffffffffffffffffffffffffffffff169050600073ffffffffffffffffffffffffffffffffffffffff168173ffffffffffffffffffffffffffffffffffffffff16036116f6576040517f08c379a00000000000000000000000000000000000000000000000000000000081526004016116ed90613f81565b60405180910390fd5b60008060008373ffffffffffffffffffffffffffffffffffffffff1673ffffffffffffffffffffffffffffffffffffffff1681526020019081526020016000208a60405161174491906139e4565b90815260200160405180910390206040518060c00160405290816000820160009054906101000a900473ffffffffffffffffffffffffffffffffffffffff1673ffffffffffffffffffffffffffffffffffffffff1673ffffffffffffffffffffffffffffffffffffffff1681526020016001820180546117c390613977565b80601f01602080910402602001604051908101604052809291908181526020018280546117ef90613977565b801561183c5780601f106118115761010080835404028352916020019161183c565b820191906000526020600020905b81548152906001019060200180831161181f57829003601f168201915b5050505050815260200160028201805461185590613977565b80601f016020809104026020016040519081016040528092919081815260200182805461188190613977565b80156118ce5780601f106118a3576101008083540402835291602001916118ce565b820191906000526020600020905b8154815290600101906020018083116118b157829003601f168201915b5050505050815260200160038201548152602001600482015481526020016005820160009054906101000a900473ffffffffffffffffffffffffffffffffffffffff1673ffffffffffffffffffffffffffffffffffffffff1673ffffffffffffffffffffffffffffffffffffffff1681525050905060008160600151421015801561195d575081608001514211155b9050816000015182602001518360400151846060015185608001518660a00151869950995099509950995099509950505050919395979092949650565b6060600073ffffffffffffffffffffffffffffffffffffffff166005836040516119c491906139e4565b908152602001604051809103902060009054906101000a900473ffffffffffffffffffffffffffffffffffffffff1673ffffffffffffffffffffffffffffffffffffffff1603611a49576040517f08c379a0000000000000000000000000000000000000000000000000000000008152600401611a4090613f81565b60405180910390fd5b600682604051611a5991906139e4565b9081526020016040518091039020805480602002602001604051908101604052809291908181526020018280548015611ae757602002820191906000526020600020905b8160009054906101000a900473ffffffffffffffffffffffffffffffffffffffff1673ffffffffffffffffffffffffffffffffffffffff1681526020019060010190808311611a9d575b50505050509050919050565b60038181548110611b0357600080fd5b906000526020600020016000915090508054611b1e90613977565b80601f0160208091040260200160405190810160405280929190818152602001828054611b4a90613977565b8015611b975780601f10611b6c57610100808354040283529160200191611b97565b820191906000526020600020905b815481529060010190602001808311611b7a57829003601f168201915b505050505081565b6060600073ffffffffffffffffffffffffffffffffffffffff16600583604051611bc991906139e4565b908152602001604051809103902060009054906101000a900473ffffffffffffffffffffffffffffffffffffffff1673ffffffffffffffffffffffffffffffffffffffff1603611c4e576040517f08c379a0000000000000000000000000000000000000000000000000000000008152600401611c4590613f81565b60405180910390fd5b600782604051611c5e91906139e4565b9081526020016040518091039020805480602002602001604051908101604052809291908181526020018280548015611cec57602002820191906000526020600020905b8160009054906101000a900473ffffffffffffffffffffffffffffffffffffffff1673ffffffffffffffffffffffffffffffffffffffff1681526020019060010190808311611ca2575b50505050509050919050565b60608060008411611d3e576040517f08c379a0000000000000000000000000000000000000000000000000000000008152600401611d3590613820565b60405180910390fd5b600083600186611d4e919061386f565b611d5891906138a3565b905060008482611d6891906138e5565b9050600380549050811115611d805760038054905090505b60008282611d8e919061386f565b90508067ffffffffffffffff811115611daa57611da9612bd0565b5b604051908082528060200260200182016040528015611ddd57816020015b6060815260200190600190039081611dc85790505b5094508067ffffffffffffffff811115611dfa57611df9612bd0565b5b604051908082528060200260200182016040528015611e3357816020015b611e20612b3f565b815260200190600190039081611e185790505b50935060008390505b828110156121dd57600060038281548110611e5a57611e59613919565b5b906000526020600020018054611e6f90613977565b80601f0160208091040260200160405190810160405280929190818152602001828054611e9b90613977565b8015611ee85780601f10611ebd57610100808354040283529160200191611ee8565b820191906000526020600020905b815481529060010190602001808311611ecb57829003601f168201915b505050505090506000600582604051611f0191906139e4565b908152602001604051809103902060009054906101000a900473ffffffffffffffffffffffffffffffffffffffff16905081888785611f40919061386f565b81518110611f5157611f50613919565b5b60200260200101819052506000808273ffffffffffffffffffffffffffffffffffffffff1673ffffffffffffffffffffffffffffffffffffffff16815260200190815260200160002082604051611fa891906139e4565b90815260200160405180910390206040518060c00160405290816000820160009054906101000a900473ffffffffffffffffffffffffffffffffffffffff1673ffffffffffffffffffffffffffffffffffffffff1673ffffffffffffffffffffffffffffffffffffffff16815260200160018201805461202790613977565b80601f016020809104026020016040519081016040528092919081815260200182805461205390613977565b80156120a05780601f10612075576101008083540402835291602001916120a0565b820191906000526020600020905b81548152906001019060200180831161208357829003601f168201915b505050505081526020016002820180546120b990613977565b80601f01602080910402602001604051908101604052809291908181526020018280546120e590613977565b80156121325780601f1061210757610100808354040283529160200191612132565b820191906000526020600020905b81548152906001019060200180831161211557829003601f168201915b5050505050815260200160038201548152602001600482015481526020016005820160009054906101000a900473ffffffffffffffffffffffffffffffffffffffff1673ffffffffffffffffffffffffffffffffffffffff1673ffffffffffffffffffffffffffffffffffffffff16815250508787856121b2919061386f565b815181106121c3576121c2613919565b5b602002602001018190525050508080600101915050611e3c565b505050509250929050565b81831061222a576040517f08c379a000000000000000000000000000000000000000000000000000000000815260040161222190613fed565b60405180910390fd5b6040518060c001604052808273ffffffffffffffffffffffffffffffffffffffff168152602001868152602001858152602001848152602001838152602001600073ffffffffffffffffffffffffffffffffffffffff168152506000808373ffffffffffffffffffffffffffffffffffffffff1673ffffffffffffffffffffffffffffffffffffffff168152602001908152602001600020876040516122d091906139e4565b908152602001604051809103902060008201518160000160006101000a81548173ffffffffffffffffffffffffffffffffffffffff021916908373ffffffffffffffffffffffffffffffffffffffff160217905550602082015181600101908161233a91906141b9565b50604082015181600201908161235091906141b9565b50606082015181600301556080820151816004015560a08201518160050160006101000a81548173ffffffffffffffffffffffffffffffffffffffff021916908373ffffffffffffffffffffffffffffffffffffffff1602179055509050506003869080600181540180825580915050600190039060005260206000200160009091909190915090816123e391906141b9565b50600460008273ffffffffffffffffffffffffffffffffffffffff1673ffffffffffffffffffffffffffffffffffffffff1681526020019081526020016000208690806001815401808255809150506001900390600052602060002001600090919091909150908161245591906141b9565b508060058760405161246791906139e4565b908152602001604051809103902060006101000a81548173ffffffffffffffffffffffffffffffffffffffff021916908373ffffffffffffffffffffffffffffffffffffffff160217905550856040516124c191906139e4565b60405180910390207f10f30d26994b06c43518f78b2ffb972b3fc75c88abe841e2c04cb05807d7905282876040516124fa92919061428b565b60405180910390a2505050505050565b6001828051602081018201805184825260208301602085012081835280955050505050506020528060005260406000206000915091509054906101000a900460ff1681565b600060205281600052604060002081805160208101820180518482526020830160208501208183528095505050505050600091509150508060000160009054906101000a900473ffffffffffffffffffffffffffffffffffffffff16908060010180546125bb90613977565b80601f01602080910402602001604051908101604052809291908181526020018280546125e790613977565b80156126345780601f1061260957610100808354040283529160200191612634565b820191906000526020600020905b81548152906001019060200180831161261757829003601f168201915b50505050509080600201805461264990613977565b80601f016020809104026020016040519081016040528092919081815260200182805461267590613977565b80156126c25780601f10612697576101008083540402835291602001916126c2565b820191906000526020600020905b8154815290600101906020018083116126a557829003601f168201915b5050505050908060030154908060040154908060050160009054906101000a900473ffffffffffffffffffffffffffffffffffffffff16905086565b600782805160208101820180518482526020830160208501208183528095505050505050818154811061273057600080fd5b906000526020600020016000915091509054906101000a900473ffffffffffffffffffffffffffffffffffffffff1681565b6004602052816000526040600020818154811061277e57600080fd5b9060005260206000200160009150915050805461279a90613977565b80601f01602080910402602001604051908101604052809291908181526020018280546127c690613977565b80156128135780601f106127e857610100808354040283529160200191612813565b820191906000526020600020905b8154815290600101906020018083116127f657829003601f168201915b505050505081565b600060028360405161282d91906139e4565b908152602001604051809103902060008373ffffffffffffffffffffffffffffffffffffffff1673ffffffffffffffffffffffffffffffffffffffff16815260200190815260200160002060009054906101000a900460ff16905092915050565b600073ffffffffffffffffffffffffffffffffffffffff166005836040516128b691906139e4565b908152602001604051809103902060009054906101000a900473ffffffffffffffffffffffffffffffffffffffff1673ffffffffffffffffffffffffffffffffffffffff160361293b576040517f08c379a000000000000000000000000000000000000000000000000000000000815260040161293290613f81565b60405180910390fd5b60028260405161294b91906139e4565b908152602001604051809103902060008273ffffffffffffffffffffffffffffffffffffffff1673ffffffffffffffffffffffffffffffffffffffff16815260200190815260200160002060009054906101000a900460ff16156129e4576040517f08c379a00000000000000000000000000000000000000000000000000000000081526004016129db90614307565b60405180910390fd5b60016002836040516129f691906139e4565b908152602001604051809103902060008373ffffffffffffffffffffffffffffffffffffffff1673ffffffffffffffffffffffffffffffffffffffff16815260200190815260200160002060006101000a81548160ff021916908315150217905550600782604051612a6891906139e4565b9081526020016040518091039020819080600181540180825580915050600190039060005260206000200160009091909190916101000a81548173ffffffffffffffffffffffffffffffffffffffff021916908373ffffffffffffffffffffffffffffffffffffffff1602179055505050565b6006828051602081018201805184825260208301602085012081835280955050505050508181548110612b0d57600080fd5b906000526020600020016000915091509054906101000a900473ffffffffffffffffffffffffffffffffffffffff1681565b6040518060c00160405280600073ffffffffffffffffffffffffffffffffffffffff16815260200160608152602001606081526020016000815260200160008152602001600073ffffffffffffffffffffffffffffffffffffffff1681525090565b6000604051905090565b600080fd5b600080fd5b600080fd5b600080fd5b6000601f19601f8301169050919050565b7f4e487b7100000000000000000000000000000000000000000000000000000000600052604160045260246000fd5b612c0882612bbf565b810181811067ffffffffffffffff82111715612c2757612c26612bd0565b5b80604052505050565b6000612c3a612ba1565b9050612c468282612bff565b919050565b600067ffffffffffffffff821115612c6657612c65612bd0565b5b612c6f82612bbf565b9050602081019050919050565b82818337600083830152505050565b6000612c9e612c9984612c4b565b612c30565b905082815260208101848484011115612cba57612cb9612bba565b5b612cc5848285612c7c565b509392505050565b600082601f830112612ce257612ce1612bb5565b5b8135612cf2848260208601612c8b565b91505092915050565b600060208284031215612d1157612d10612bab565b5b600082013567ffffffffffffffff811115612d2f57612d2e612bb0565b5b612d3b84828501612ccd565b91505092915050565b600073ffffffffffffffffffffffffffffffffffffffff82169050919050565b6000612d6f82612d44565b9050919050565b612d7f81612d64565b82525050565b6000602082019050612d9a6000830184612d76565b92915050565b612da981612d64565b8114612db457600080fd5b50565b600081359050612dc681612da0565b92915050565b6000819050919050565b612ddf81612dcc565b8114612dea57600080fd5b50565b600081359050612dfc81612dd6565b92915050565b600080600060608486031215612e1b57612e1a612bab565b5b6000612e2986828701612db7565b9350506020612e3a86828701612ded565b9250506040612e4b86828701612ded565b9150509250925092565b600081519050919050565b600082825260208201905092915050565b6000819050602082019050919050565b600081519050919050565b600082825260208201905092915050565b60005b83811015612ebb578082015181840152602081019050612ea0565b60008484015250505050565b6000612ed282612e81565b612edc8185612e8c565b9350612eec818560208601612e9d565b612ef581612bbf565b840191505092915050565b6000612f0c8383612ec7565b905092915050565b6000602082019050919050565b6000612f2c82612e55565b612f368185612e60565b935083602082028501612f4885612e71565b8060005b85811015612f845784840389528151612f658582612f00565b9450612f7083612f14565b925060208a01995050600181019050612f4c565b50829750879550505050505092915050565b600081519050919050565b600082825260208201905092915050565b6000819050602082019050919050565b612fcb81612d64565b82525050565b612fda81612dcc565b82525050565b600060c083016000830151612ff86000860182612fc2565b50602083015184820360208601526130108282612ec7565b9150506040830151848203604086015261302a8282612ec7565b915050606083015161303f6060860182612fd1565b5060808301516130526080860182612fd1565b5060a083015161306560a0860182612fc2565b508091505092915050565b600061307c8383612fe0565b905092915050565b6000602082019050919050565b600061309c82612f96565b6130a68185612fa1565b9350836020820285016130b885612fb2565b8060005b858110156130f457848403895281516130d58582613070565b94506130e083613084565b925060208a019950506001810190506130bc565b50829750879550505050505092915050565b600060408201905081810360008301526131208185612f21565b905081810360208301526131348184613091565b90509392505050565b6000806040838503121561315457613153612bab565b5b600083013567ffffffffffffffff81111561317257613171612bb0565b5b61317e85828601612ccd565b925050602061318f85828601612db7565b9150509250929050565b60008115159050919050565b6131ae81613199565b82525050565b60006020820190506131c960008301846131a5565b92915050565b6000806000606084860312156131e8576131e7612bab565b5b600084013567ffffffffffffffff81111561320657613205612bb0565b5b61321286828701612ccd565b935050602061322386828701612db7565b925050604061323486828701612db7565b9150509250925092565b600060ff82169050919050565b6132548161323e565b811461325f57600080fd5b50565b6000813590506132718161324b565b92915050565b6000819050919050565b61328a81613277565b811461329557600080fd5b50565b6000813590506132a781613281565b92915050565b60008060008060008060c087890312156132ca576132c9612bab565b5b600087013567ffffffffffffffff8111156132e8576132e7612bb0565b5b6132f489828a01612ccd565b965050602061330589828a01612db7565b955050604061331689828a01613262565b945050606061332789828a01613298565b935050608061333889828a01613298565b92505060a061334989828a01612ded565b9150509295509295509295565b600082825260208201905092915050565b600061337282612e81565b61337c8185613356565b935061338c818560208601612e9d565b61339581612bbf565b840191505092915050565b6133a981612dcc565b82525050565b600060e0820190506133c4600083018a612d76565b81810360208301526133d68189613367565b905081810360408301526133ea8188613367565b90506133f960608301876133a0565b61340660808301866133a0565b61341360a0830185612d76565b61342060c08301846131a5565b98975050505050505050565b600081519050919050565b600082825260208201905092915050565b6000819050602082019050919050565b60006134648383612fc2565b60208301905092915050565b6000602082019050919050565b60006134888261342c565b6134928185613437565b935061349d83613448565b8060005b838110156134ce5781516134b58882613458565b97506134c083613470565b9250506001810190506134a1565b5085935050505092915050565b600060208201905081810360008301526134f5818461347d565b905092915050565b60006020828403121561351357613512612bab565b5b600061352184828501612ded565b91505092915050565b600060208201905081810360008301526135448184613367565b905092915050565b6000806040838503121561356357613562612bab565b5b600061357185828601612ded565b925050602061358285828601612ded565b9150509250929050565b60008060008060008060c087890312156135a9576135a8612bab565b5b600087013567ffffffffffffffff8111156135c7576135c6612bb0565b5b6135d389828a01612ccd565b965050602087013567ffffffffffffffff8111156135f4576135f3612bb0565b5b61360089828a01612ccd565b955050604087013567ffffffffffffffff81111561362157613620612bb0565b5b61362d89828a01612ccd565b945050606061363e89828a01612ded565b935050608061364f89828a01612ded565b92505060a061366089828a01612db7565b9150509295509295509295565b6000806040838503121561368457613683612bab565b5b600061369285828601612db7565b925050602083013567ffffffffffffffff8111156136b3576136b2612bb0565b5b6136bf85828601612ccd565b9150509250929050565b600060c0820190506136de6000830189612d76565b81810360208301526136f08188613367565b905081810360408301526137048187613367565b905061371360608301866133a0565b61372060808301856133a0565b61372d60a0830184612d76565b979650505050505050565b6000806040838503121561374f5761374e612bab565b5b600083013567ffffffffffffffff81111561376d5761376c612bb0565b5b61377985828601612ccd565b925050602061378a85828601612ded565b9150509250929050565b600080604083850312156137ab576137aa612bab565b5b60006137b985828601612db7565b92505060206137ca85828601612ded565b9150509250929050565b7f50616765206d7573742062652067726561746572207468616e20300000000000600082015250565b600061380a601b83613356565b9150613815826137d4565b602082019050919050565b60006020820190508181036000830152613839816137fd565b9050919050565b7f4e487b7100000000000000000000000000000000000000000000000000000000600052601160045260246000fd5b600061387a82612dcc565b915061388583612dcc565b925082820390508181111561389d5761389c613840565b5b92915050565b60006138ae82612dcc565b91506138b983612dcc565b92508282026138c781612dcc565b915082820484148315176138de576138dd613840565b5b5092915050565b60006138f082612dcc565b91506138fb83612dcc565b925082820190508082111561391357613912613840565b5b92915050565b7f4e487b7100000000000000000000000000000000000000000000000000000000600052603260045260246000fd5b7f4e487b7100000000000000000000000000000000000000000000000000000000600052602260045260246000fd5b6000600282049050600182168061398f57607f821691505b6020821081036139a2576139a1613948565b5b50919050565b600081905092915050565b60006139be82612e81565b6139c881856139a8565b93506139d8818560208601612e9d565b80840191505092915050565b60006139f082846139b3565b915081905092915050565b7f4f6e6c79206f776e65722063616e2073656c6563742077696e6e657200000000600082015250565b6000613a31601c83613356565b9150613a3c826139fb565b602082019050919050565b60006020820190508181036000830152613a6081613a24565b9050919050565b7f54656e64657220686173206e6f7420656e646564000000000000000000000000600082015250565b6000613a9d601483613356565b9150613aa882613a67565b602082019050919050565b60006020820190508181036000830152613acc81613a90565b9050919050565b7f57696e6e6572206d7573742062652061207061727469636970616e7400000000600082015250565b6000613b09601c83613356565b9150613b1482613ad3565b602082019050919050565b60006020820190508181036000830152613b3881613afc565b9050919050565b7f57696e6e657220616c72656164792073656c6563746564000000000000000000600082015250565b6000613b75601783613356565b9150613b8082613b3f565b602082019050919050565b60006020820190508181036000830152613ba481613b68565b9050919050565b6000819050919050565b613bc6613bc182612dcc565b613bab565b82525050565b6000613bd882856139b3565b9150613be48284613bb5565b6020820191508190509392505050565b7f19457468657265756d205369676e6564204d6573736167653a0a333200000000600082015250565b6000613c2a601c836139a8565b9150613c3582613bf4565b601c82019050919050565b6000819050919050565b613c5b613c5682613277565b613c40565b82525050565b6000613c6c82613c1d565b9150613c788284613c4a565b60208201915081905092915050565b613c9081613277565b82525050565b613c9f8161323e565b82525050565b6000608082019050613cba6000830187613c87565b613cc76020830186613c96565b613cd46040830185613c87565b613ce16060830184613c87565b95945050505050565b7f496e76616c6964207369676e6174757265000000000000000000000000000000600082015250565b6000613d20601183613356565b9150613d2b82613cea565b602082019050919050565b60006020820190508181036000830152613d4f81613d13565b9050919050565b7f4f6e6c79206f776e65722063616e20616464207061727469636970616e747300600082015250565b6000613d8c601f83613356565b9150613d9782613d56565b602082019050919050565b60006020820190508181036000830152613dbb81613d7f565b9050919050565b7f54656e64657220686173206e6f74207374617274656400000000000000000000600082015250565b6000613df8601683613356565b9150613e0382613dc2565b602082019050919050565b60006020820190508181036000830152613e2781613deb565b9050919050565b7f54656e6465722068617320656e64656400000000000000000000000000000000600082015250565b6000613e64601083613356565b9150613e6f82613e2e565b602082019050919050565b60006020820190508181036000830152613e9381613e57565b9050919050565b7f416c72656164792061207061727469636970616e740000000000000000000000600082015250565b6000613ed0601583613356565b9150613edb82613e9a565b602082019050919050565b60006020820190508181036000830152613eff81613ec3565b9050919050565b7f4e487b7100000000000000000000000000000000000000000000000000000000600052603160045260246000fd5b7f54656e64657220646f6573206e6f742065786973740000000000000000000000600082015250565b6000613f6b601583613356565b9150613f7682613f35565b602082019050919050565b60006020820190508181036000830152613f9a81613f5e565b9050919050565b7f496e76616c696420646174657300000000000000000000000000000000000000600082015250565b6000613fd7600d83613356565b9150613fe282613fa1565b602082019050919050565b6000602082019050818103600083015261400681613fca565b9050919050565b60008190508160005260206000209050919050565b60006020601f8301049050919050565b600082821b905092915050565b60006008830261406f7fffffffffffffffffffffffffffffffffffffffffffffffffffffffffffffffff82614032565b6140798683614032565b95508019841693508086168417925050509392505050565b6000819050919050565b60006140b66140b16140ac84612dcc565b614091565b612dcc565b9050919050565b6000819050919050565b6140d08361409b565b6140e46140dc826140bd565b84845461403f565b825550505050565b600090565b6140f96140ec565b6141048184846140c7565b505050565b5b818110156141285761411d6000826140f1565b60018101905061410a565b5050565b601f82111561416d5761413e8161400d565b61414784614022565b81016020851015614156578190505b61416a61416285614022565b830182614109565b50505b505050565b600082821c905092915050565b600061419060001984600802614172565b1980831691505092915050565b60006141a9838361417f565b9150826002028217905092915050565b6141c282612e81565b67ffffffffffffffff8111156141db576141da612bd0565b5b6141e58254613977565b6141f082828561412c565b600060209050601f8311600181146142235760008415614211578287015190505b61421b858261419d565b865550614283565b601f1984166142318661400d565b60005b8281101561425957848901518255600182019150602085019450602081019050614234565b868310156142765784890151614272601f89168261417f565b8355505b6001600288020188555050505b505050505050565b60006040820190506142a06000830185612d76565b81810360208301526142b28184613367565b90509392505050565b7f416c7265616479206d61726b65642061732070656e64696e6700000000000000600082015250565b60006142f1601983613356565b91506142fc826142bb565b602082019050919050565b60006020820190508181036000830152614320816142e4565b905091905056fea2646970667358221220f85b1c415dbcfbcbc5dabd70ff61b7bd18b9dafe7f3def6b35fe3f4c58a6262864736f6c634300081c0033",
  "linkReferences": {},
  "deployedLinkReferences": {}
}