{
  "_format": "hh-sol-artifact-1",
  "contractName": "TenderManager",
  "sourceName": "contracts/TenderManager.sol",
  "abi": [
    {
      "inputs": [
        {
          "internalType": "bytes32",
          "name": "tenderId",
          "type": "bytes32"
        }
      ],
      "name": "createTender",
      "outputs": [],
      "stateMutability": "nonpayable",
      "type": "function"
    },
    {
      "inputs": [
        {
          "internalType": "bytes32",
          "name": "tenderId",
          "type": "bytes32"
        }
      ],
      "name": "getOwner",
      "outputs": [
        {
          "internalType": "address",
          "name": "",
          "type": "address"
        }
      ],
      "stateMutability": "view",
      "type": "function"
    },
    {
      "inputs": [
        {
          "internalType": "bytes32",
          "name": "",
          "type": "bytes32"
        }
      ],
      "name": "tenderOwner",
      "outputs": [
        {
          "internalType": "address",
          "name": "",
          "type": "address"
        }
      ],
      "stateMutability": "view",
      "type": "function"
    }
  ],
  "bytecode": "0x6080604052348015600f57600080fd5b5061039d8061001f6000396000f3fe608060405234801561001057600080fd5b50600436106100415760003560e01c8063bf82d15914610046578063deb931a214610062578063ec359f5714610092575b600080fd5b610060600480360381019061005b9190610261565b6100c2565b005b61007c60048036038101906100779190610261565b6101b7565b60405161008991906102cf565b60405180910390f35b6100ac60048036038101906100a79190610261565b6101f3565b6040516100b991906102cf565b60405180910390f35b600073ffffffffffffffffffffffffffffffffffffffff1660008083815260200190815260200160002060009054906101000a900473ffffffffffffffffffffffffffffffffffffffff1673ffffffffffffffffffffffffffffffffffffffff1614610163576040517f08c379a000000000000000000000000000000000000000000000000000000000815260040161015a90610347565b60405180910390fd5b3360008083815260200190815260200160002060006101000a81548173ffffffffffffffffffffffffffffffffffffffff021916908373ffffffffffffffffffffffffffffffffffffffff16021790555050565b600080600083815260200190815260200160002060009054906101000a900473ffffffffffffffffffffffffffffffffffffffff169050919050565b60006020528060005260406000206000915054906101000a900473ffffffffffffffffffffffffffffffffffffffff1681565b600080fd5b6000819050919050565b61023e8161022b565b811461024957600080fd5b50565b60008135905061025b81610235565b92915050565b60006020828403121561027757610276610226565b5b60006102858482850161024c565b91505092915050565b600073ffffffffffffffffffffffffffffffffffffffff82169050919050565b60006102b98261028e565b9050919050565b6102c9816102ae565b82525050565b60006020820190506102e460008301846102c0565b92915050565b600082825260208201905092915050565b7f54656e64657220616c7265616479206578697374730000000000000000000000600082015250565b60006103316015836102ea565b915061033c826102fb565b602082019050919050565b6000602082019050818103600083015261036081610324565b905091905056fea2646970667358221220443036f1f6f6cdf2e20f3f95bd2f88ba850ba864f8e1d24b18a91b8560ebc9cb64736f6c634300081c0033",
  "linkReferences": {},
  "deployedLinkReferences": {}
}