{
  "_format": "hh-sol-artifact-1",
  "contractName": "DocumentStore",
  "sourceName": "contracts/DocumentStore.sol",
  "abi": [
    {
      "inputs": [
        {
          "internalType": "string",
          "name": "_tenderId",
          "type": "string"
        },
        {
          "internalType": "string",
          "name": "_encryptedCid",
          "type": "string"
        },
        {
          "internalType": "string",
          "name": "_senderId",
          "type": "string"
        },
        {
          "internalType": "string",
          "name": "_documentType",
          "type": "string"
        },
        {
          "internalType": "string",
          "name": "_documentCreatedAt",
          "type": "string"
        }
      ],
      "stateMutability": "nonpayable",
      "type": "constructor"
    },
    {
      "inputs": [],
      "name": "documentCreatedAt",
      "outputs": [
        {
          "internalType": "string",
          "name": "",
          "type": "string"
        }
      ],
      "stateMutability": "view",
      "type": "function"
    },
    {
      "inputs": [],
      "name": "documentType",
      "outputs": [
        {
          "internalType": "string",
          "name": "",
          "type": "string"
        }
      ],
      "stateMutability": "view",
      "type": "function"
    },
    {
      "inputs": [],
      "name": "encryptedCid",
      "outputs": [
        {
          "internalType": "string",
          "name": "",
          "type": "string"
        }
      ],
      "stateMutability": "view",
      "type": "function"
    },
    {
      "inputs": [],
      "name": "senderId",
      "outputs": [
        {
          "internalType": "string",
          "name": "",
          "type": "string"
        }
      ],
      "stateMutability": "view",
      "type": "function"
    },
    {
      "inputs": [],
      "name": "tenderId",
      "outputs": [
        {
          "internalType": "string",
          "name": "",
          "type": "string"
        }
      ],
      "stateMutability": "view",
      "type": "function"
    }
  ],
  "bytecode": "0x608060405234801561001057600080fd5b50604051610b0a380380610b0a83398181016040528101906100329190610201565b84600090816100419190610529565b5083600190816100519190610529565b5082600290816100619190610529565b5081600390816100719190610529565b5080600490816100819190610529565b5050505050506105fb565b6000604051905090565b600080fd5b600080fd5b600080fd5b600080fd5b6000601f19601f8301169050919050565b7f4e487b7100000000000000000000000000000000000000000000000000000000600052604160045260246000fd5b6100f3826100aa565b810181811067ffffffffffffffff82111715610112576101116100bb565b5b80604052505050565b600061012561008c565b905061013182826100ea565b919050565b600067ffffffffffffffff821115610151576101506100bb565b5b61015a826100aa565b9050602081019050919050565b60005b8381101561018557808201518184015260208101905061016a565b60008484015250505050565b60006101a461019f84610136565b61011b565b9050828152602081018484840111156101c0576101bf6100a5565b5b6101cb848285610167565b509392505050565b600082601f8301126101e8576101e76100a0565b5b81516101f8848260208601610191565b91505092915050565b600080600080600060a0868803121561021d5761021c610096565b5b600086015167ffffffffffffffff81111561023b5761023a61009b565b5b610247888289016101d3565b955050602086015167ffffffffffffffff8111156102685761026761009b565b5b610274888289016101d3565b945050604086015167ffffffffffffffff8111156102955761029461009b565b5b6102a1888289016101d3565b935050606086015167ffffffffffffffff8111156102c2576102c161009b565b5b6102ce888289016101d3565b925050608086015167ffffffffffffffff8111156102ef576102ee61009b565b5b6102fb888289016101d3565b9150509295509295909350565b600081519050919050565b7f4e487b7100000000000000000000000000000000000000000000000000000000600052602260045260246000fd5b6000600282049050600182168061035a57607f821691505b60208210810361036d5761036c610313565b5b50919050565b60008190508160005260206000209050919050565b60006020601f8301049050919050565b600082821b905092915050565b6000600883026103d57fffffffffffffffffffffffffffffffffffffffffffffffffffffffffffffffff82610398565b6103df8683610398565b95508019841693508086168417925050509392505050565b6000819050919050565b6000819050919050565b600061042661042161041c846103f7565b610401565b6103f7565b9050919050565b6000819050919050565b6104408361040b565b61045461044c8261042d565b8484546103a5565b825550505050565b600090565b61046961045c565b610474818484610437565b505050565b5b818110156104985761048d600082610461565b60018101905061047a565b5050565b601f8211156104dd576104ae81610373565b6104b784610388565b810160208510156104c6578190505b6104da6104d285610388565b830182610479565b50505b505050565b600082821c905092915050565b6000610500600019846008026104e2565b1980831691505092915050565b600061051983836104ef565b9150826002028217905092915050565b61053282610308565b67ffffffffffffffff81111561054b5761054a6100bb565b5b6105558254610342565b61056082828561049c565b600060209050601f8311600181146105935760008415610581578287015190505b61058b858261050d565b8655506105f3565b601f1984166105a186610373565b60005b828110156105c9578489015182556001820191506020850194506020810190506105a4565b868310156105e657848901516105e2601f8916826104ef565b8355505b6001600288020188555050505b505050505050565b6105008061060a6000396000f3fe608060405234801561001057600080fd5b50600436106100575760003560e01c806336e187781461005c5780634a8829a41461007a57806378d2ded814610098578063b7fbc8b4146100b6578063c89c0b4e146100d4575b600080fd5b6100646100f2565b6040516100719190610448565b60405180910390f35b610082610180565b60405161008f9190610448565b60405180910390f35b6100a061020e565b6040516100ad9190610448565b60405180910390f35b6100be61029c565b6040516100cb9190610448565b60405180910390f35b6100dc61032a565b6040516100e99190610448565b60405180910390f35b600080546100ff90610499565b80601f016020809104026020016040519081016040528092919081815260200182805461012b90610499565b80156101785780601f1061014d57610100808354040283529160200191610178565b820191906000526020600020905b81548152906001019060200180831161015b57829003601f168201915b505050505081565b6002805461018d90610499565b80601f01602080910402602001604051908101604052809291908181526020018280546101b990610499565b80156102065780601f106101db57610100808354040283529160200191610206565b820191906000526020600020905b8154815290600101906020018083116101e957829003601f168201915b505050505081565b6001805461021b90610499565b80601f016020809104026020016040519081016040528092919081815260200182805461024790610499565b80156102945780601f1061026957610100808354040283529160200191610294565b820191906000526020600020905b81548152906001019060200180831161027757829003601f168201915b505050505081565b600380546102a990610499565b80601f01602080910402602001604051908101604052809291908181526020018280546102d590610499565b80156103225780601f106102f757610100808354040283529160200191610322565b820191906000526020600020905b81548152906001019060200180831161030557829003601f168201915b505050505081565b6004805461033790610499565b80601f016020809104026020016040519081016040528092919081815260200182805461036390610499565b80156103b05780601f10610385576101008083540402835291602001916103b0565b820191906000526020600020905b81548152906001019060200180831161039357829003601f168201915b505050505081565b600081519050919050565b600082825260208201905092915050565b60005b838110156103f25780820151818401526020810190506103d7565b60008484015250505050565b6000601f19601f8301169050919050565b600061041a826103b8565b61042481856103c3565b93506104348185602086016103d4565b61043d816103fe565b840191505092915050565b60006020820190508181036000830152610462818461040f565b905092915050565b7f4e487b7100000000000000000000000000000000000000000000000000000000600052602260045260246000fd5b600060028204905060018216806104b157607f821691505b6020821081036104c4576104c361046a565b5b5091905056fea26469706673582212201c8d3da50d3e2210a2b82329f9d40545438e77b19d014dee895ae78a95f053ef64736f6c634300081c0033",
  "linkReferences": {},
  "deployedLinkReferences": {}
}