{"contracts/KeyManager.sol":{"KeyManager":{"abi":[{"anonymous":false,"inputs":[{"indexed":false,"internalType":"address","name":"receiver","type":"address"},{"indexed":false,"internalType":"address","name":"sender","type":"address"},{"indexed":false,"internalType":"string","name":"encryptedKey","type":"string"},{"indexed":false,"internalType":"string","name":"iv","type":"string"},{"indexed":false,"internalType":"string","name":"cid","type":"string"}],"name":"EmitKey","type":"event"},{"anonymous":false,"inputs":[{"indexed":false,"internalType":"address","name":"requester","type":"address"},{"indexed":false,"internalType":"address","name":"receiver","type":"address"},{"indexed":false,"internalType":"string","name":"cid","type":"string"},{"indexed":false,"internalType":"string","name":"fileName","type":"string"}],"name":"RequestAccess","type":"event"},{"inputs":[],"name":"documentStore","outputs":[{"internalType":"contract IDocumentStore","name":"","type":"address"}],"stateMutability":"view","type":"function"},{"inputs":[{"internalType":"address","name":"receiver","type":"address"},{"internalType":"string","name":"encryptedKey","type":"string"},{"internalType":"string","name":"iv","type":"string"},{"internalType":"string","name":"cid","type":"string"},{"internalType":"uint8","name":"v","type":"uint8"},{"internalType":"bytes32","name":"r","type":"bytes32"},{"internalType":"bytes32","name":"s","type":"bytes32"},{"internalType":"uint256","name":"deadline","type":"uint256"}],"name":"emitKey","outputs":[],"stateMutability":"nonpayable","type":"function"},{"inputs":[{"internalType":"string","name":"cid","type":"string"},{"internalType":"address","name":"receiver","type":"address"}],"name":"getEncryptedKey","outputs":[{"internalType":"string","name":"","type":"string"}],"stateMutability":"view","type":"function"},{"inputs":[{"internalType":"address","name":"receiver","type":"address"},{"internalType":"string","name":"cid","type":"string"},{"internalType":"string","name":"fileName","type":"string"},{"internalType":"uint8","name":"v","type":"uint8"},{"internalType":"bytes32","name":"r","type":"bytes32"},{"internalType":"bytes32","name":"s","type":"bytes32"},{"internalType":"uint256","name":"deadline","type":"uint256"}],"name":"requestAccess","outputs":[],"stateMutability":"nonpayable","type":"function"}],"evm":{"bytecode":{"linkReferences":{},"object":"6080604052348015600f57600080fd5b5061128e8061001f6000396000f3fe608060405234801561001057600080fd5b506004361061004c5760003560e01c8063408acd331461005157806373af7da01461006f5780637ee76a591461008b578063924c953a146100a7575b600080fd5b6100596100d7565b60405161006691906106e2565b60405180910390f35b6100896004803603810190610084919061093a565b6100fb565b005b6100a560048036038101906100a09190610a14565b610310565b005b6100c160048036038101906100bc9190610b1e565b610575565b6040516100ce9190610bf9565b60405180910390f35b60008054906101000a900473ffffffffffffffffffffffffffffffffffffffff1681565b60008160405160200161010e9190610c3c565b6040516020818303038152906040528051906020012090506000816040516020016101399190610ccf565b6040516020818303038152906040528051906020012090506000600182888888604051600081526020016040526040516101769493929190610d13565b6020604051602081039080840390855afa158015610198573d6000803e3d6000fd5b5050506020604051035190506000151560028a6040516101b89190610d89565b908152602001604051809103902060008c73ffffffffffffffffffffffffffffffffffffffff1673ffffffffffffffffffffffffffffffffffffffff16815260200190815260200160002060009054906101000a900460ff16151514610253576040517f08c379a000000000000000000000000000000000000000000000000000000000815260040161024a90610dec565b60405180910390fd5b600160028a6040516102659190610d89565b908152602001604051809103902060008c73ffffffffffffffffffffffffffffffffffffffff1673ffffffffffffffffffffffffffffffffffffffff16815260200190815260200160002060006101000a81548160ff0219169083151502179055507f642ca8e698cd2f2dd8db8fdd9d3b8f0974ce5ecd344dd0e644e51012a942d861818b8b8b6040516102fc9493929190610e1b565b60405180910390a150505050505050505050565b6000816040516020016103239190610c3c565b60405160208183030381529060405280519060200120905060008160405160200161034e9190610ccf565b60405160208183030381529060405280519060200120905060006001828888886040516000815260200160405260405161038b9493929190610d13565b6020604051602081039080840390855afa1580156103ad573d6000803e3d6000fd5b5050506020604051035190508073ffffffffffffffffffffffffffffffffffffffff1660008054906101000a900473ffffffffffffffffffffffffffffffffffffffff1673ffffffffffffffffffffffffffffffffffffffff1663cb356d918a6040518263ffffffff1660e01b81526004016104299190610bf9565b602060405180830381865afa158015610446573d6000803e3d6000fd5b505050506040513d601f19601f8201168201806040525081019061046a9190610e83565b73ffffffffffffffffffffffffffffffffffffffff16146104c0576040517f08c379a00000000000000000000000000000000000000000000000000000000081526004016104b790610efc565b60405180910390fd5b896001896040516104d19190610d89565b908152602001604051809103902060008d73ffffffffffffffffffffffffffffffffffffffff1673ffffffffffffffffffffffffffffffffffffffff1681526020019081526020016000209081610528919061111e565b507ff0002f2f528b0ee51d6a449d7ff420fda1d11361a194279a0abed91fa5a6766f8b828c8c8c6040516105609594939291906111f0565b60405180910390a15050505050505050505050565b60606001836040516105879190610d89565b908152602001604051809103902060008373ffffffffffffffffffffffffffffffffffffffff1673ffffffffffffffffffffffffffffffffffffffff16815260200190815260200160002080546105dd90610f4b565b80601f016020809104026020016040519081016040528092919081815260200182805461060990610f4b565b80156106565780601f1061062b57610100808354040283529160200191610656565b820191906000526020600020905b81548152906001019060200180831161063957829003601f168201915b5050505050905092915050565b600073ffffffffffffffffffffffffffffffffffffffff82169050919050565b6000819050919050565b60006106a86106a361069e84610663565b610683565b610663565b9050919050565b60006106ba8261068d565b9050919050565b60006106cc826106af565b9050919050565b6106dc816106c1565b82525050565b60006020820190506106f760008301846106d3565b92915050565b6000604051905090565b600080fd5b600080fd5b600061071c82610663565b9050919050565b61072c81610711565b811461073757600080fd5b50565b60008135905061074981610723565b92915050565b600080fd5b600080fd5b6000601f19601f8301169050919050565b7f4e487b7100000000000000000000000000000000000000000000000000000000600052604160045260246000fd5b6107a282610759565b810181811067ffffffffffffffff821117156107c1576107c061076a565b5b80604052505050565b60006107d46106fd565b90506107e08282610799565b919050565b600067ffffffffffffffff821115610800576107ff61076a565b5b61080982610759565b9050602081019050919050565b82818337600083830152505050565b6000610838610833846107e5565b6107ca565b90508281526020810184848401111561085457610853610754565b5b61085f848285610816565b509392505050565b600082601f83011261087c5761087b61074f565b5b813561088c848260208601610825565b91505092915050565b600060ff82169050919050565b6108ab81610895565b81146108b657600080fd5b50565b6000813590506108c8816108a2565b92915050565b6000819050919050565b6108e1816108ce565b81146108ec57600080fd5b50565b6000813590506108fe816108d8565b92915050565b6000819050919050565b61091781610904565b811461092257600080fd5b50565b6000813590506109348161090e565b92915050565b600080600080600080600060e0888a03121561095957610958610707565b5b60006109678a828b0161073a565b975050602088013567ffffffffffffffff8111156109885761098761070c565b5b6109948a828b01610867565b965050604088013567ffffffffffffffff8111156109b5576109b461070c565b5b6109c18a828b01610867565b95505060606109d28a828b016108b9565b94505060806109e38a828b016108ef565b93505060a06109f48a828b016108ef565b92505060c0610a058a828b01610925565b91505092959891949750929550565b600080600080600080600080610100898b031215610a3557610a34610707565b5b6000610a438b828c0161073a565b985050602089013567ffffffffffffffff811115610a6457610a6361070c565b5b610a708b828c01610867565b975050604089013567ffffffffffffffff811115610a9157610a9061070c565b5b610a9d8b828c01610867565b965050606089013567ffffffffffffffff811115610abe57610abd61070c565b5b610aca8b828c01610867565b9550506080610adb8b828c016108b9565b94505060a0610aec8b828c016108ef565b93505060c0610afd8b828c016108ef565b92505060e0610b0e8b828c01610925565b9150509295985092959890939650565b60008060408385031215610b3557610b34610707565b5b600083013567ffffffffffffffff811115610b5357610b5261070c565b5b610b5f85828601610867565b9250506020610b708582860161073a565b9150509250929050565b600081519050919050565b600082825260208201905092915050565b60005b83811015610bb4578082015181840152602081019050610b99565b60008484015250505050565b6000610bcb82610b7a565b610bd58185610b85565b9350610be5818560208601610b96565b610bee81610759565b840191505092915050565b60006020820190508181036000830152610c138184610bc0565b905092915050565b6000819050919050565b610c36610c3182610904565b610c1b565b82525050565b6000610c488284610c25565b60208201915081905092915050565b600081905092915050565b7f19457468657265756d205369676e6564204d6573736167653a0a333200000000600082015250565b6000610c98601c83610c57565b9150610ca382610c62565b601c82019050919050565b6000819050919050565b610cc9610cc4826108ce565b610cae565b82525050565b6000610cda82610c8b565b9150610ce68284610cb8565b60208201915081905092915050565b610cfe816108ce565b82525050565b610d0d81610895565b82525050565b6000608082019050610d286000830187610cf5565b610d356020830186610d04565b610d426040830185610cf5565b610d4f6060830184610cf5565b95945050505050565b6000610d6382610b7a565b610d6d8185610c57565b9350610d7d818560208601610b96565b80840191505092915050565b6000610d958284610d58565b915081905092915050565b7f41636365737320616c7265616479207265717565737465640000000000000000600082015250565b6000610dd6601883610b85565b9150610de182610da0565b602082019050919050565b60006020820190508181036000830152610e0581610dc9565b9050919050565b610e1581610711565b82525050565b6000608082019050610e306000830187610e0c565b610e3d6020830186610e0c565b8181036040830152610e4f8185610bc0565b90508181036060830152610e638184610bc0565b905095945050505050565b600081519050610e7d81610723565b92915050565b600060208284031215610e9957610e98610707565b5b6000610ea784828501610e6e565b91505092915050565b7f4f6e6c7920646f63756d656e74206f776e65722063616e20656d6974206b6579600082015250565b6000610ee6602083610b85565b9150610ef182610eb0565b602082019050919050565b60006020820190508181036000830152610f1581610ed9565b9050919050565b7f4e487b7100000000000000000000000000000000000000000000000000000000600052602260045260246000fd5b60006002820490506001821680610f6357607f821691505b602082108103610f7657610f75610f1c565b5b50919050565b60008190508160005260206000209050919050565b60006020601f8301049050919050565b600082821b905092915050565b600060088302610fde7fffffffffffffffffffffffffffffffffffffffffffffffffffffffffffffffff82610fa1565b610fe88683610fa1565b95508019841693508086168417925050509392505050565b600061101b61101661101184610904565b610683565b610904565b9050919050565b6000819050919050565b61103583611000565b61104961104182611022565b848454610fae565b825550505050565b600090565b61105e611051565b61106981848461102c565b505050565b5b8181101561108d57611082600082611056565b60018101905061106f565b5050565b601f8211156110d2576110a381610f7c565b6110ac84610f91565b810160208510156110bb578190505b6110cf6110c785610f91565b83018261106e565b50505b505050565b600082821c905092915050565b60006110f5600019846008026110d7565b1980831691505092915050565b600061110e83836110e4565b9150826002028217905092915050565b61112782610b7a565b67ffffffffffffffff8111156111405761113f61076a565b5b61114a8254610f4b565b611155828285611091565b600060209050601f8311600181146111885760008415611176578287015190505b6111808582611102565b8655506111e8565b601f19841661119686610f7c565b60005b828110156111be57848901518255600182019150602085019450602081019050611199565b868310156111db57848901516111d7601f8916826110e4565b8355505b6001600288020188555050505b505050505050565b600060a0820190506112056000830188610e0c565b6112126020830187610e0c565b81810360408301526112248186610bc0565b905081810360608301526112388185610bc0565b9050818103608083015261124c8184610bc0565b9050969550505050505056fea26469706673582212206b8b439d6a83e1501783334953efb7f8ede7cc7ec657b16e15db842c0a9909db64736f6c634300081c0033","opcodes":"PUSH1 0x80 PUSH1 0x40 MSTORE CALLVALUE DUP1 ISZERO PUSH1 0xF JUMPI PUSH1 0x0 DUP1 REVERT JUMPDEST POP PUSH2 0x128E DUP1 PUSH2 0x1F PUSH1 0x0 CODECOPY PUSH1 0x0 RETURN INVALID PUSH1 0x80 PUSH1 0x40 MSTORE CALLVALUE DUP1 ISZERO PUSH2 0x10 JUMPI PUSH1 0x0 DUP1 REVERT JUMPDEST POP PUSH1 0x4 CALLDATASIZE LT PUSH2 0x4C JUMPI PUSH1 0x0 CALLDATALOAD PUSH1 0xE0 SHR DUP1 PUSH4 0x408ACD33 EQ PUSH2 0x51 JUMPI DUP1 PUSH4 0x73AF7DA0 EQ PUSH2 0x6F JUMPI DUP1 PUSH4 0x7EE76A59 EQ PUSH2 0x8B JUMPI DUP1 PUSH4 0x924C953A EQ PUSH2 0xA7 JUMPI JUMPDEST PUSH1 0x0 DUP1 REVERT JUMPDEST PUSH2 0x59 PUSH2 0xD7 JUMP JUMPDEST PUSH1 0x40 MLOAD PUSH2 0x66 SWAP2 SWAP1 PUSH2 0x6E2 JUMP JUMPDEST PUSH1 0x40 MLOAD DUP1 SWAP2 SUB SWAP1 RETURN JUMPDEST PUSH2 0x89 PUSH1 0x4 DUP1 CALLDATASIZE SUB DUP2 ADD SWAP1 PUSH2 0x84 SWAP2 SWAP1 PUSH2 0x93A JUMP JUMPDEST PUSH2 0xFB JUMP JUMPDEST STOP JUMPDEST PUSH2 0xA5 PUSH1 0x4 DUP1 CALLDATASIZE SUB DUP2 ADD SWAP1 PUSH2 0xA0 SWAP2 SWAP1 PUSH2 0xA14 JUMP JUMPDEST PUSH2 0x310 JUMP JUMPDEST STOP JUMPDEST PUSH2 0xC1 PUSH1 0x4 DUP1 CALLDATASIZE SUB DUP2 ADD SWAP1 PUSH2 0xBC SWAP2 SWAP1 PUSH2 0xB1E JUMP JUMPDEST PUSH2 0x575 JUMP JUMPDEST PUSH1 0x40 MLOAD PUSH2 0xCE SWAP2 SWAP1 PUSH2 0xBF9 JUMP JUMPDEST PUSH1 0x40 MLOAD DUP1 SWAP2 SUB SWAP1 RETURN JUMPDEST PUSH1 0x0 DUP1 SLOAD SWAP1 PUSH2 0x100 EXP SWAP1 DIV PUSH20 0xFFFFFFFFFFFFFFFFFFFFFFFFFFFFFFFFFFFFFFFF AND DUP2 JUMP JUMPDEST PUSH1 0x0 DUP2 PUSH1 0x40 MLOAD PUSH1 0x20 ADD PUSH2 0x10E SWAP2 SWAP1 PUSH2 0xC3C JUMP JUMPDEST PUSH1 0x40 MLOAD PUSH1 0x20 DUP2 DUP4 SUB SUB DUP2 MSTORE SWAP1 PUSH1 0x40 MSTORE DUP1 MLOAD SWAP1 PUSH1 0x20 ADD KECCAK256 SWAP1 POP PUSH1 0x0 DUP2 PUSH1 0x40 MLOAD PUSH1 0x20 ADD PUSH2 0x139 SWAP2 SWAP1 PUSH2 0xCCF JUMP JUMPDEST PUSH1 0x40 MLOAD PUSH1 0x20 DUP2 DUP4 SUB SUB DUP2 MSTORE SWAP1 PUSH1 0x40 MSTORE DUP1 MLOAD SWAP1 PUSH1 0x20 ADD KECCAK256 SWAP1 POP PUSH1 0x0 PUSH1 0x1 DUP3 DUP9 DUP9 DUP9 PUSH1 0x40 MLOAD PUSH1 0x0 DUP2 MSTORE PUSH1 0x20 ADD PUSH1 0x40 MSTORE PUSH1 0x40 MLOAD PUSH2 0x176 SWAP5 SWAP4 SWAP3 SWAP2 SWAP1 PUSH2 0xD13 JUMP JUMPDEST PUSH1 0x20 PUSH1 0x40 MLOAD PUSH1 0x20 DUP2 SUB SWAP1 DUP1 DUP5 SUB SWAP1 DUP6 GAS STATICCALL ISZERO DUP1 ISZERO PUSH2 0x198 JUMPI RETURNDATASIZE PUSH1 0x0 DUP1 RETURNDATACOPY RETURNDATASIZE PUSH1 0x0 REVERT JUMPDEST POP POP POP PUSH1 0x20 PUSH1 0x40 MLOAD SUB MLOAD SWAP1 POP PUSH1 0x0 ISZERO ISZERO PUSH1 0x2 DUP11 PUSH1 0x40 MLOAD PUSH2 0x1B8 SWAP2 SWAP1 PUSH2 0xD89 JUMP JUMPDEST SWAP1 DUP2 MSTORE PUSH1 0x20 ADD PUSH1 0x40 MLOAD DUP1 SWAP2 SUB SWAP1 KECCAK256 PUSH1 0x0 DUP13 PUSH20 0xFFFFFFFFFFFFFFFFFFFFFFFFFFFFFFFFFFFFFFFF AND PUSH20 0xFFFFFFFFFFFFFFFFFFFFFFFFFFFFFFFFFFFFFFFF AND DUP2 MSTORE PUSH1 0x20 ADD SWAP1 DUP2 MSTORE PUSH1 0x20 ADD PUSH1 0x0 KECCAK256 PUSH1 0x0 SWAP1 SLOAD SWAP1 PUSH2 0x100 EXP SWAP1 DIV PUSH1 0xFF AND ISZERO ISZERO EQ PUSH2 0x253 JUMPI PUSH1 0x40 MLOAD PUSH32 0x8C379A000000000000000000000000000000000000000000000000000000000 DUP2 MSTORE PUSH1 0x4 ADD PUSH2 0x24A SWAP1 PUSH2 0xDEC JUMP JUMPDEST PUSH1 0x40 MLOAD DUP1 SWAP2 SUB SWAP1 REVERT JUMPDEST PUSH1 0x1 PUSH1 0x2 DUP11 PUSH1 0x40 MLOAD PUSH2 0x265 SWAP2 SWAP1 PUSH2 0xD89 JUMP JUMPDEST SWAP1 DUP2 MSTORE PUSH1 0x20 ADD PUSH1 0x40 MLOAD DUP1 SWAP2 SUB SWAP1 KECCAK256 PUSH1 0x0 DUP13 PUSH20 0xFFFFFFFFFFFFFFFFFFFFFFFFFFFFFFFFFFFFFFFF AND PUSH20 0xFFFFFFFFFFFFFFFFFFFFFFFFFFFFFFFFFFFFFFFF AND DUP2 MSTORE PUSH1 0x20 ADD SWAP1 DUP2 MSTORE PUSH1 0x20 ADD PUSH1 0x0 KECCAK256 PUSH1 0x0 PUSH2 0x100 EXP DUP2 SLOAD DUP2 PUSH1 0xFF MUL NOT AND SWAP1 DUP4 ISZERO ISZERO MUL OR SWAP1 SSTORE POP PUSH32 0x642CA8E698CD2F2DD8DB8FDD9D3B8F0974CE5ECD344DD0E644E51012A942D861 DUP2 DUP12 DUP12 DUP12 PUSH1 0x40 MLOAD PUSH2 0x2FC SWAP5 SWAP4 SWAP3 SWAP2 SWAP1 PUSH2 0xE1B JUMP JUMPDEST PUSH1 0x40 MLOAD DUP1 SWAP2 SUB SWAP1 LOG1 POP POP POP POP POP POP POP POP POP POP JUMP JUMPDEST PUSH1 0x0 DUP2 PUSH1 0x40 MLOAD PUSH1 0x20 ADD PUSH2 0x323 SWAP2 SWAP1 PUSH2 0xC3C JUMP JUMPDEST PUSH1 0x40 MLOAD PUSH1 0x20 DUP2 DUP4 SUB SUB DUP2 MSTORE SWAP1 PUSH1 0x40 MSTORE DUP1 MLOAD SWAP1 PUSH1 0x20 ADD KECCAK256 SWAP1 POP PUSH1 0x0 DUP2 PUSH1 0x40 MLOAD PUSH1 0x20 ADD PUSH2 0x34E SWAP2 SWAP1 PUSH2 0xCCF JUMP JUMPDEST PUSH1 0x40 MLOAD PUSH1 0x20 DUP2 DUP4 SUB SUB DUP2 MSTORE SWAP1 PUSH1 0x40 MSTORE DUP1 MLOAD SWAP1 PUSH1 0x20 ADD KECCAK256 SWAP1 POP PUSH1 0x0 PUSH1 0x1 DUP3 DUP9 DUP9 DUP9 PUSH1 0x40 MLOAD PUSH1 0x0 DUP2 MSTORE PUSH1 0x20 ADD PUSH1 0x40 MSTORE PUSH1 0x40 MLOAD PUSH2 0x38B SWAP5 SWAP4 SWAP3 SWAP2 SWAP1 PUSH2 0xD13 JUMP JUMPDEST PUSH1 0x20 PUSH1 0x40 MLOAD PUSH1 0x20 DUP2 SUB SWAP1 DUP1 DUP5 SUB SWAP1 DUP6 GAS STATICCALL ISZERO DUP1 ISZERO PUSH2 0x3AD JUMPI RETURNDATASIZE PUSH1 0x0 DUP1 RETURNDATACOPY RETURNDATASIZE PUSH1 0x0 REVERT JUMPDEST POP POP POP PUSH1 0x20 PUSH1 0x40 MLOAD SUB MLOAD SWAP1 POP DUP1 PUSH20 0xFFFFFFFFFFFFFFFFFFFFFFFFFFFFFFFFFFFFFFFF AND PUSH1 0x0 DUP1 SLOAD SWAP1 PUSH2 0x100 EXP SWAP1 DIV PUSH20 0xFFFFFFFFFFFFFFFFFFFFFFFFFFFFFFFFFFFFFFFF AND PUSH20 0xFFFFFFFFFFFFFFFFFFFFFFFFFFFFFFFFFFFFFFFF AND PUSH4 0xCB356D91 DUP11 PUSH1 0x40 MLOAD DUP3 PUSH4 0xFFFFFFFF AND PUSH1 0xE0 SHL DUP2 MSTORE PUSH1 0x4 ADD PUSH2 0x429 SWAP2 SWAP1 PUSH2 0xBF9 JUMP JUMPDEST PUSH1 0x20 PUSH1 0x40 MLOAD DUP1 DUP4 SUB DUP2 DUP7 GAS STATICCALL ISZERO DUP1 ISZERO PUSH2 0x446 JUMPI RETURNDATASIZE PUSH1 0x0 DUP1 RETURNDATACOPY RETURNDATASIZE PUSH1 0x0 REVERT JUMPDEST POP POP POP POP PUSH1 0x40 MLOAD RETURNDATASIZE PUSH1 0x1F NOT PUSH1 0x1F DUP3 ADD AND DUP3 ADD DUP1 PUSH1 0x40 MSTORE POP DUP2 ADD SWAP1 PUSH2 0x46A SWAP2 SWAP1 PUSH2 0xE83 JUMP JUMPDEST PUSH20 0xFFFFFFFFFFFFFFFFFFFFFFFFFFFFFFFFFFFFFFFF AND EQ PUSH2 0x4C0 JUMPI PUSH1 0x40 MLOAD PUSH32 0x8C379A000000000000000000000000000000000000000000000000000000000 DUP2 MSTORE PUSH1 0x4 ADD PUSH2 0x4B7 SWAP1 PUSH2 0xEFC JUMP JUMPDEST PUSH1 0x40 MLOAD DUP1 SWAP2 SUB SWAP1 REVERT JUMPDEST DUP10 PUSH1 0x1 DUP10 PUSH1 0x40 MLOAD PUSH2 0x4D1 SWAP2 SWAP1 PUSH2 0xD89 JUMP JUMPDEST SWAP1 DUP2 MSTORE PUSH1 0x20 ADD PUSH1 0x40 MLOAD DUP1 SWAP2 SUB SWAP1 KECCAK256 PUSH1 0x0 DUP14 PUSH20 0xFFFFFFFFFFFFFFFFFFFFFFFFFFFFFFFFFFFFFFFF AND PUSH20 0xFFFFFFFFFFFFFFFFFFFFFFFFFFFFFFFFFFFFFFFF AND DUP2 MSTORE PUSH1 0x20 ADD SWAP1 DUP2 MSTORE PUSH1 0x20 ADD PUSH1 0x0 KECCAK256 SWAP1 DUP2 PUSH2 0x528 SWAP2 SWAP1 PUSH2 0x111E JUMP JUMPDEST POP PUSH32 0xF0002F2F528B0EE51D6A449D7FF420FDA1D11361A194279A0ABED91FA5A6766F DUP12 DUP3 DUP13 DUP13 DUP13 PUSH1 0x40 MLOAD PUSH2 0x560 SWAP6 SWAP5 SWAP4 SWAP3 SWAP2 SWAP1 PUSH2 0x11F0 JUMP JUMPDEST PUSH1 0x40 MLOAD DUP1 SWAP2 SUB SWAP1 LOG1 POP POP POP POP POP POP POP POP POP POP POP JUMP JUMPDEST PUSH1 0x60 PUSH1 0x1 DUP4 PUSH1 0x40 MLOAD PUSH2 0x587 SWAP2 SWAP1 PUSH2 0xD89 JUMP JUMPDEST SWAP1 DUP2 MSTORE PUSH1 0x20 ADD PUSH1 0x40 MLOAD DUP1 SWAP2 SUB SWAP1 KECCAK256 PUSH1 0x0 DUP4 PUSH20 0xFFFFFFFFFFFFFFFFFFFFFFFFFFFFFFFFFFFFFFFF AND PUSH20 0xFFFFFFFFFFFFFFFFFFFFFFFFFFFFFFFFFFFFFFFF AND DUP2 MSTORE PUSH1 0x20 ADD SWAP1 DUP2 MSTORE PUSH1 0x20 ADD PUSH1 0x0 KECCAK256 DUP1 SLOAD PUSH2 0x5DD SWAP1 PUSH2 0xF4B JUMP JUMPDEST DUP1 PUSH1 0x1F ADD PUSH1 0x20 DUP1 SWAP2 DIV MUL PUSH1 0x20 ADD PUSH1 0x40 MLOAD SWAP1 DUP2 ADD PUSH1 0x40 MSTORE DUP1 SWAP3 SWAP2 SWAP1 DUP2 DUP2 MSTORE PUSH1 0x20 ADD DUP3 DUP1 SLOAD PUSH2 0x609 SWAP1 PUSH2 0xF4B JUMP JUMPDEST DUP1 ISZERO PUSH2 0x656 JUMPI DUP1 PUSH1 0x1F LT PUSH2 0x62B JUMPI PUSH2 0x100 DUP1 DUP4 SLOAD DIV MUL DUP4 MSTORE SWAP2 PUSH1 0x20 ADD SWAP2 PUSH2 0x656 JUMP JUMPDEST DUP3 ADD SWAP2 SWAP1 PUSH1 0x0 MSTORE PUSH1 0x20 PUSH1 0x0 KECCAK256 SWAP1 JUMPDEST DUP2 SLOAD DUP2 MSTORE SWAP1 PUSH1 0x1 ADD SWAP1 PUSH1 0x20 ADD DUP1 DUP4 GT PUSH2 0x639 JUMPI DUP3 SWAP1 SUB PUSH1 0x1F AND DUP3 ADD SWAP2 JUMPDEST POP POP POP POP POP SWAP1 POP SWAP3 SWAP2 POP POP JUMP JUMPDEST PUSH1 0x0 PUSH20 0xFFFFFFFFFFFFFFFFFFFFFFFFFFFFFFFFFFFFFFFF DUP3 AND SWAP1 POP SWAP2 SWAP1 POP JUMP JUMPDEST PUSH1 0x0 DUP2 SWAP1 POP SWAP2 SWAP1 POP JUMP JUMPDEST PUSH1 0x0 PUSH2 0x6A8 PUSH2 0x6A3 PUSH2 0x69E DUP5 PUSH2 0x663 JUMP JUMPDEST PUSH2 0x683 JUMP JUMPDEST PUSH2 0x663 JUMP JUMPDEST SWAP1 POP SWAP2 SWAP1 POP JUMP JUMPDEST PUSH1 0x0 PUSH2 0x6BA DUP3 PUSH2 0x68D JUMP JUMPDEST SWAP1 POP SWAP2 SWAP1 POP JUMP JUMPDEST PUSH1 0x0 PUSH2 0x6CC DUP3 PUSH2 0x6AF JUMP JUMPDEST SWAP1 POP SWAP2 SWAP1 POP JUMP JUMPDEST PUSH2 0x6DC DUP2 PUSH2 0x6C1 JUMP JUMPDEST DUP3 MSTORE POP POP JUMP JUMPDEST PUSH1 0x0 PUSH1 0x20 DUP3 ADD SWAP1 POP PUSH2 0x6F7 PUSH1 0x0 DUP4 ADD DUP5 PUSH2 0x6D3 JUMP JUMPDEST SWAP3 SWAP2 POP POP JUMP JUMPDEST PUSH1 0x0 PUSH1 0x40 MLOAD SWAP1 POP SWAP1 JUMP JUMPDEST PUSH1 0x0 DUP1 REVERT JUMPDEST PUSH1 0x0 DUP1 REVERT JUMPDEST PUSH1 0x0 PUSH2 0x71C DUP3 PUSH2 0x663 JUMP JUMPDEST SWAP1 POP SWAP2 SWAP1 POP JUMP JUMPDEST PUSH2 0x72C DUP2 PUSH2 0x711 JUMP JUMPDEST DUP2 EQ PUSH2 0x737 JUMPI PUSH1 0x0 DUP1 REVERT JUMPDEST POP JUMP JUMPDEST PUSH1 0x0 DUP2 CALLDATALOAD SWAP1 POP PUSH2 0x749 DUP2 PUSH2 0x723 JUMP JUMPDEST SWAP3 SWAP2 POP POP JUMP JUMPDEST PUSH1 0x0 DUP1 REVERT JUMPDEST PUSH1 0x0 DUP1 REVERT JUMPDEST PUSH1 0x0 PUSH1 0x1F NOT PUSH1 0x1F DUP4 ADD AND SWAP1 POP SWAP2 SWAP1 POP JUMP JUMPDEST PUSH32 0x4E487B7100000000000000000000000000000000000000000000000000000000 PUSH1 0x0 MSTORE PUSH1 0x41 PUSH1 0x4 MSTORE PUSH1 0x24 PUSH1 0x0 REVERT JUMPDEST PUSH2 0x7A2 DUP3 PUSH2 0x759 JUMP JUMPDEST DUP2 ADD DUP2 DUP2 LT PUSH8 0xFFFFFFFFFFFFFFFF DUP3 GT OR ISZERO PUSH2 0x7C1 JUMPI PUSH2 0x7C0 PUSH2 0x76A JUMP JUMPDEST JUMPDEST DUP1 PUSH1 0x40 MSTORE POP POP POP JUMP JUMPDEST PUSH1 0x0 PUSH2 0x7D4 PUSH2 0x6FD JUMP JUMPDEST SWAP1 POP PUSH2 0x7E0 DUP3 DUP3 PUSH2 0x799 JUMP JUMPDEST SWAP2 SWAP1 POP JUMP JUMPDEST PUSH1 0x0 PUSH8 0xFFFFFFFFFFFFFFFF DUP3 GT ISZERO PUSH2 0x800 JUMPI PUSH2 0x7FF PUSH2 0x76A JUMP JUMPDEST JUMPDEST PUSH2 0x809 DUP3 PUSH2 0x759 JUMP JUMPDEST SWAP1 POP PUSH1 0x20 DUP2 ADD SWAP1 POP SWAP2 SWAP1 POP JUMP JUMPDEST DUP3 DUP2 DUP4 CALLDATACOPY PUSH1 0x0 DUP4 DUP4 ADD MSTORE POP POP POP JUMP JUMPDEST PUSH1 0x0 PUSH2 0x838 PUSH2 0x833 DUP5 PUSH2 0x7E5 JUMP JUMPDEST PUSH2 0x7CA JUMP JUMPDEST SWAP1 POP DUP3 DUP2 MSTORE PUSH1 0x20 DUP2 ADD DUP5 DUP5 DUP5 ADD GT ISZERO PUSH2 0x854 JUMPI PUSH2 0x853 PUSH2 0x754 JUMP JUMPDEST JUMPDEST PUSH2 0x85F DUP5 DUP3 DUP6 PUSH2 0x816 JUMP JUMPDEST POP SWAP4 SWAP3 POP POP POP JUMP JUMPDEST PUSH1 0x0 DUP3 PUSH1 0x1F DUP4 ADD SLT PUSH2 0x87C JUMPI PUSH2 0x87B PUSH2 0x74F JUMP JUMPDEST JUMPDEST DUP2 CALLDATALOAD PUSH2 0x88C DUP5 DUP3 PUSH1 0x20 DUP7 ADD PUSH2 0x825 JUMP JUMPDEST SWAP2 POP POP SWAP3 SWAP2 POP POP JUMP JUMPDEST PUSH1 0x0 PUSH1 0xFF DUP3 AND SWAP1 POP SWAP2 SWAP1 POP JUMP JUMPDEST PUSH2 0x8AB DUP2 PUSH2 0x895 JUMP JUMPDEST DUP2 EQ PUSH2 0x8B6 JUMPI PUSH1 0x0 DUP1 REVERT JUMPDEST POP JUMP JUMPDEST PUSH1 0x0 DUP2 CALLDATALOAD SWAP1 POP PUSH2 0x8C8 DUP2 PUSH2 0x8A2 JUMP JUMPDEST SWAP3 SWAP2 POP POP JUMP JUMPDEST PUSH1 0x0 DUP2 SWAP1 POP SWAP2 SWAP1 POP JUMP JUMPDEST PUSH2 0x8E1 DUP2 PUSH2 0x8CE JUMP JUMPDEST DUP2 EQ PUSH2 0x8EC JUMPI PUSH1 0x0 DUP1 REVERT JUMPDEST POP JUMP JUMPDEST PUSH1 0x0 DUP2 CALLDATALOAD SWAP1 POP PUSH2 0x8FE DUP2 PUSH2 0x8D8 JUMP JUMPDEST SWAP3 SWAP2 POP POP JUMP JUMPDEST PUSH1 0x0 DUP2 SWAP1 POP SWAP2 SWAP1 POP JUMP JUMPDEST PUSH2 0x917 DUP2 PUSH2 0x904 JUMP JUMPDEST DUP2 EQ PUSH2 0x922 JUMPI PUSH1 0x0 DUP1 REVERT JUMPDEST POP JUMP JUMPDEST PUSH1 0x0 DUP2 CALLDATALOAD SWAP1 POP PUSH2 0x934 DUP2 PUSH2 0x90E JUMP JUMPDEST SWAP3 SWAP2 POP POP JUMP JUMPDEST PUSH1 0x0 DUP1 PUSH1 0x0 DUP1 PUSH1 0x0 DUP1 PUSH1 0x0 PUSH1 0xE0 DUP9 DUP11 SUB SLT ISZERO PUSH2 0x959 JUMPI PUSH2 0x958 PUSH2 0x707 JUMP JUMPDEST JUMPDEST PUSH1 0x0 PUSH2 0x967 DUP11 DUP3 DUP12 ADD PUSH2 0x73A JUMP JUMPDEST SWAP8 POP POP PUSH1 0x20 DUP9 ADD CALLDATALOAD PUSH8 0xFFFFFFFFFFFFFFFF DUP2 GT ISZERO PUSH2 0x988 JUMPI PUSH2 0x987 PUSH2 0x70C JUMP JUMPDEST JUMPDEST PUSH2 0x994 DUP11 DUP3 DUP12 ADD PUSH2 0x867 JUMP JUMPDEST SWAP7 POP POP PUSH1 0x40 DUP9 ADD CALLDATALOAD PUSH8 0xFFFFFFFFFFFFFFFF DUP2 GT ISZERO PUSH2 0x9B5 JUMPI PUSH2 0x9B4 PUSH2 0x70C JUMP JUMPDEST JUMPDEST PUSH2 0x9C1 DUP11 DUP3 DUP12 ADD PUSH2 0x867 JUMP JUMPDEST SWAP6 POP POP PUSH1 0x60 PUSH2 0x9D2 DUP11 DUP3 DUP12 ADD PUSH2 0x8B9 JUMP JUMPDEST SWAP5 POP POP PUSH1 0x80 PUSH2 0x9E3 DUP11 DUP3 DUP12 ADD PUSH2 0x8EF JUMP JUMPDEST SWAP4 POP POP PUSH1 0xA0 PUSH2 0x9F4 DUP11 DUP3 DUP12 ADD PUSH2 0x8EF JUMP JUMPDEST SWAP3 POP POP PUSH1 0xC0 PUSH2 0xA05 DUP11 DUP3 DUP12 ADD PUSH2 0x925 JUMP JUMPDEST SWAP2 POP POP SWAP3 SWAP6 SWAP9 SWAP2 SWAP5 SWAP8 POP SWAP3 SWAP6 POP JUMP JUMPDEST PUSH1 0x0 DUP1 PUSH1 0x0 DUP1 PUSH1 0x0 DUP1 PUSH1 0x0 DUP1 PUSH2 0x100 DUP10 DUP12 SUB SLT ISZERO PUSH2 0xA35 JUMPI PUSH2 0xA34 PUSH2 0x707 JUMP JUMPDEST JUMPDEST PUSH1 0x0 PUSH2 0xA43 DUP12 DUP3 DUP13 ADD PUSH2 0x73A JUMP JUMPDEST SWAP9 POP POP PUSH1 0x20 DUP10 ADD CALLDATALOAD PUSH8 0xFFFFFFFFFFFFFFFF DUP2 GT ISZERO PUSH2 0xA64 JUMPI PUSH2 0xA63 PUSH2 0x70C JUMP JUMPDEST JUMPDEST PUSH2 0xA70 DUP12 DUP3 DUP13 ADD PUSH2 0x867 JUMP JUMPDEST SWAP8 POP POP PUSH1 0x40 DUP10 ADD CALLDATALOAD PUSH8 0xFFFFFFFFFFFFFFFF DUP2 GT ISZERO PUSH2 0xA91 JUMPI PUSH2 0xA90 PUSH2 0x70C JUMP JUMPDEST JUMPDEST PUSH2 0xA9D DUP12 DUP3 DUP13 ADD PUSH2 0x867 JUMP JUMPDEST SWAP7 POP POP PUSH1 0x60 DUP10 ADD CALLDATALOAD PUSH8 0xFFFFFFFFFFFFFFFF DUP2 GT ISZERO PUSH2 0xABE JUMPI PUSH2 0xABD PUSH2 0x70C JUMP JUMPDEST JUMPDEST PUSH2 0xACA DUP12 DUP3 DUP13 ADD PUSH2 0x867 JUMP JUMPDEST SWAP6 POP POP PUSH1 0x80 PUSH2 0xADB DUP12 DUP3 DUP13 ADD PUSH2 0x8B9 JUMP JUMPDEST SWAP5 POP POP PUSH1 0xA0 PUSH2 0xAEC DUP12 DUP3 DUP13 ADD PUSH2 0x8EF JUMP JUMPDEST SWAP4 POP POP PUSH1 0xC0 PUSH2 0xAFD DUP12 DUP3 DUP13 ADD PUSH2 0x8EF JUMP JUMPDEST SWAP3 POP POP PUSH1 0xE0 PUSH2 0xB0E DUP12 DUP3 DUP13 ADD PUSH2 0x925 JUMP JUMPDEST SWAP2 POP POP SWAP3 SWAP6 SWAP9 POP SWAP3 SWAP6 SWAP9 SWAP1 SWAP4 SWAP7 POP JUMP JUMPDEST PUSH1 0x0 DUP1 PUSH1 0x40 DUP4 DUP6 SUB SLT ISZERO PUSH2 0xB35 JUMPI PUSH2 0xB34 PUSH2 0x707 JUMP JUMPDEST JUMPDEST PUSH1 0x0 DUP4 ADD CALLDATALOAD PUSH8 0xFFFFFFFFFFFFFFFF DUP2 GT ISZERO PUSH2 0xB53 JUMPI PUSH2 0xB52 PUSH2 0x70C JUMP JUMPDEST JUMPDEST PUSH2 0xB5F DUP6 DUP3 DUP7 ADD PUSH2 0x867 JUMP JUMPDEST SWAP3 POP POP PUSH1 0x20 PUSH2 0xB70 DUP6 DUP3 DUP7 ADD PUSH2 0x73A JUMP JUMPDEST SWAP2 POP POP SWAP3 POP SWAP3 SWAP1 POP JUMP JUMPDEST PUSH1 0x0 DUP2 MLOAD SWAP1 POP SWAP2 SWAP1 POP JUMP JUMPDEST PUSH1 0x0 DUP3 DUP3 MSTORE PUSH1 0x20 DUP3 ADD SWAP1 POP SWAP3 SWAP2 POP POP JUMP JUMPDEST PUSH1 0x0 JUMPDEST DUP4 DUP2 LT ISZERO PUSH2 0xBB4 JUMPI DUP1 DUP3 ADD MLOAD DUP2 DUP5 ADD MSTORE PUSH1 0x20 DUP2 ADD SWAP1 POP PUSH2 0xB99 JUMP JUMPDEST PUSH1 0x0 DUP5 DUP5 ADD MSTORE POP POP POP POP JUMP JUMPDEST PUSH1 0x0 PUSH2 0xBCB DUP3 PUSH2 0xB7A JUMP JUMPDEST PUSH2 0xBD5 DUP2 DUP6 PUSH2 0xB85 JUMP JUMPDEST SWAP4 POP PUSH2 0xBE5 DUP2 DUP6 PUSH1 0x20 DUP7 ADD PUSH2 0xB96 JUMP JUMPDEST PUSH2 0xBEE DUP2 PUSH2 0x759 JUMP JUMPDEST DUP5 ADD SWAP2 POP POP SWAP3 SWAP2 POP POP JUMP JUMPDEST PUSH1 0x0 PUSH1 0x20 DUP3 ADD SWAP1 POP DUP2 DUP2 SUB PUSH1 0x0 DUP4 ADD MSTORE PUSH2 0xC13 DUP2 DUP5 PUSH2 0xBC0 JUMP JUMPDEST SWAP1 POP SWAP3 SWAP2 POP POP JUMP JUMPDEST PUSH1 0x0 DUP2 SWAP1 POP SWAP2 SWAP1 POP JUMP JUMPDEST PUSH2 0xC36 PUSH2 0xC31 DUP3 PUSH2 0x904 JUMP JUMPDEST PUSH2 0xC1B JUMP JUMPDEST DUP3 MSTORE POP POP JUMP JUMPDEST PUSH1 0x0 PUSH2 0xC48 DUP3 DUP5 PUSH2 0xC25 JUMP JUMPDEST PUSH1 0x20 DUP3 ADD SWAP2 POP DUP2 SWAP1 POP SWAP3 SWAP2 POP POP JUMP JUMPDEST PUSH1 0x0 DUP2 SWAP1 POP SWAP3 SWAP2 POP POP JUMP JUMPDEST PUSH32 0x19457468657265756D205369676E6564204D6573736167653A0A333200000000 PUSH1 0x0 DUP3 ADD MSTORE POP JUMP JUMPDEST PUSH1 0x0 PUSH2 0xC98 PUSH1 0x1C DUP4 PUSH2 0xC57 JUMP JUMPDEST SWAP2 POP PUSH2 0xCA3 DUP3 PUSH2 0xC62 JUMP JUMPDEST PUSH1 0x1C DUP3 ADD SWAP1 POP SWAP2 SWAP1 POP JUMP JUMPDEST PUSH1 0x0 DUP2 SWAP1 POP SWAP2 SWAP1 POP JUMP JUMPDEST PUSH2 0xCC9 PUSH2 0xCC4 DUP3 PUSH2 0x8CE JUMP JUMPDEST PUSH2 0xCAE JUMP JUMPDEST DUP3 MSTORE POP POP JUMP JUMPDEST PUSH1 0x0 PUSH2 0xCDA DUP3 PUSH2 0xC8B JUMP JUMPDEST SWAP2 POP PUSH2 0xCE6 DUP3 DUP5 PUSH2 0xCB8 JUMP JUMPDEST PUSH1 0x20 DUP3 ADD SWAP2 POP DUP2 SWAP1 POP SWAP3 SWAP2 POP POP JUMP JUMPDEST PUSH2 0xCFE DUP2 PUSH2 0x8CE JUMP JUMPDEST DUP3 MSTORE POP POP JUMP JUMPDEST PUSH2 0xD0D DUP2 PUSH2 0x895 JUMP JUMPDEST DUP3 MSTORE POP POP JUMP JUMPDEST PUSH1 0x0 PUSH1 0x80 DUP3 ADD SWAP1 POP PUSH2 0xD28 PUSH1 0x0 DUP4 ADD DUP8 PUSH2 0xCF5 JUMP JUMPDEST PUSH2 0xD35 PUSH1 0x20 DUP4 ADD DUP7 PUSH2 0xD04 JUMP JUMPDEST PUSH2 0xD42 PUSH1 0x40 DUP4 ADD DUP6 PUSH2 0xCF5 JUMP JUMPDEST PUSH2 0xD4F PUSH1 0x60 DUP4 ADD DUP5 PUSH2 0xCF5 JUMP JUMPDEST SWAP6 SWAP5 POP POP POP POP POP JUMP JUMPDEST PUSH1 0x0 PUSH2 0xD63 DUP3 PUSH2 0xB7A JUMP JUMPDEST PUSH2 0xD6D DUP2 DUP6 PUSH2 0xC57 JUMP JUMPDEST SWAP4 POP PUSH2 0xD7D DUP2 DUP6 PUSH1 0x20 DUP7 ADD PUSH2 0xB96 JUMP JUMPDEST DUP1 DUP5 ADD SWAP2 POP POP SWAP3 SWAP2 POP POP JUMP JUMPDEST PUSH1 0x0 PUSH2 0xD95 DUP3 DUP5 PUSH2 0xD58 JUMP JUMPDEST SWAP2 POP DUP2 SWAP1 POP SWAP3 SWAP2 POP POP JUMP JUMPDEST PUSH32 0x41636365737320616C7265616479207265717565737465640000000000000000 PUSH1 0x0 DUP3 ADD MSTORE POP JUMP JUMPDEST PUSH1 0x0 PUSH2 0xDD6 PUSH1 0x18 DUP4 PUSH2 0xB85 JUMP JUMPDEST SWAP2 POP PUSH2 0xDE1 DUP3 PUSH2 0xDA0 JUMP JUMPDEST PUSH1 0x20 DUP3 ADD SWAP1 POP SWAP2 SWAP1 POP JUMP JUMPDEST PUSH1 0x0 PUSH1 0x20 DUP3 ADD SWAP1 POP DUP2 DUP2 SUB PUSH1 0x0 DUP4 ADD MSTORE PUSH2 0xE05 DUP2 PUSH2 0xDC9 JUMP JUMPDEST SWAP1 POP SWAP2 SWAP1 POP JUMP JUMPDEST PUSH2 0xE15 DUP2 PUSH2 0x711 JUMP JUMPDEST DUP3 MSTORE POP POP JUMP JUMPDEST PUSH1 0x0 PUSH1 0x80 DUP3 ADD SWAP1 POP PUSH2 0xE30 PUSH1 0x0 DUP4 ADD DUP8 PUSH2 0xE0C JUMP JUMPDEST PUSH2 0xE3D PUSH1 0x20 DUP4 ADD DUP7 PUSH2 0xE0C JUMP JUMPDEST DUP2 DUP2 SUB PUSH1 0x40 DUP4 ADD MSTORE PUSH2 0xE4F DUP2 DUP6 PUSH2 0xBC0 JUMP JUMPDEST SWAP1 POP DUP2 DUP2 SUB PUSH1 0x60 DUP4 ADD MSTORE PUSH2 0xE63 DUP2 DUP5 PUSH2 0xBC0 JUMP JUMPDEST SWAP1 POP SWAP6 SWAP5 POP POP POP POP POP JUMP JUMPDEST PUSH1 0x0 DUP2 MLOAD SWAP1 POP PUSH2 0xE7D DUP2 PUSH2 0x723 JUMP JUMPDEST SWAP3 SWAP2 POP POP JUMP JUMPDEST PUSH1 0x0 PUSH1 0x20 DUP3 DUP5 SUB SLT ISZERO PUSH2 0xE99 JUMPI PUSH2 0xE98 PUSH2 0x707 JUMP JUMPDEST JUMPDEST PUSH1 0x0 PUSH2 0xEA7 DUP5 DUP3 DUP6 ADD PUSH2 0xE6E JUMP JUMPDEST SWAP2 POP POP SWAP3 SWAP2 POP POP JUMP JUMPDEST PUSH32 0x4F6E6C7920646F63756D656E74206F776E65722063616E20656D6974206B6579 PUSH1 0x0 DUP3 ADD MSTORE POP JUMP JUMPDEST PUSH1 0x0 PUSH2 0xEE6 PUSH1 0x20 DUP4 PUSH2 0xB85 JUMP JUMPDEST SWAP2 POP PUSH2 0xEF1 DUP3 PUSH2 0xEB0 JUMP JUMPDEST PUSH1 0x20 DUP3 ADD SWAP1 POP SWAP2 SWAP1 POP JUMP JUMPDEST PUSH1 0x0 PUSH1 0x20 DUP3 ADD SWAP1 POP DUP2 DUP2 SUB PUSH1 0x0 DUP4 ADD MSTORE PUSH2 0xF15 DUP2 PUSH2 0xED9 JUMP JUMPDEST SWAP1 POP SWAP2 SWAP1 POP JUMP JUMPDEST PUSH32 0x4E487B7100000000000000000000000000000000000000000000000000000000 PUSH1 0x0 MSTORE PUSH1 0x22 PUSH1 0x4 MSTORE PUSH1 0x24 PUSH1 0x0 REVERT JUMPDEST PUSH1 0x0 PUSH1 0x2 DUP3 DIV SWAP1 POP PUSH1 0x1 DUP3 AND DUP1 PUSH2 0xF63 JUMPI PUSH1 0x7F DUP3 AND SWAP2 POP JUMPDEST PUSH1 0x20 DUP3 LT DUP2 SUB PUSH2 0xF76 JUMPI PUSH2 0xF75 PUSH2 0xF1C JUMP JUMPDEST JUMPDEST POP SWAP2 SWAP1 POP JUMP JUMPDEST PUSH1 0x0 DUP2 SWAP1 POP DUP2 PUSH1 0x0 MSTORE PUSH1 0x20 PUSH1 0x0 KECCAK256 SWAP1 POP SWAP2 SWAP1 POP JUMP JUMPDEST PUSH1 0x0 PUSH1 0x20 PUSH1 0x1F DUP4 ADD DIV SWAP1 POP SWAP2 SWAP1 POP JUMP JUMPDEST PUSH1 0x0 DUP3 DUP3 SHL SWAP1 POP SWAP3 SWAP2 POP POP JUMP JUMPDEST PUSH1 0x0 PUSH1 0x8 DUP4 MUL PUSH2 0xFDE PUSH32 0xFFFFFFFFFFFFFFFFFFFFFFFFFFFFFFFFFFFFFFFFFFFFFFFFFFFFFFFFFFFFFFFF DUP3 PUSH2 0xFA1 JUMP JUMPDEST PUSH2 0xFE8 DUP7 DUP4 PUSH2 0xFA1 JUMP JUMPDEST SWAP6 POP DUP1 NOT DUP5 AND SWAP4 POP DUP1 DUP7 AND DUP5 OR SWAP3 POP POP POP SWAP4 SWAP3 POP POP POP JUMP JUMPDEST PUSH1 0x0 PUSH2 0x101B PUSH2 0x1016 PUSH2 0x1011 DUP5 PUSH2 0x904 JUMP JUMPDEST PUSH2 0x683 JUMP JUMPDEST PUSH2 0x904 JUMP JUMPDEST SWAP1 POP SWAP2 SWAP1 POP JUMP JUMPDEST PUSH1 0x0 DUP2 SWAP1 POP SWAP2 SWAP1 POP JUMP JUMPDEST PUSH2 0x1035 DUP4 PUSH2 0x1000 JUMP JUMPDEST PUSH2 0x1049 PUSH2 0x1041 DUP3 PUSH2 0x1022 JUMP JUMPDEST DUP5 DUP5 SLOAD PUSH2 0xFAE JUMP JUMPDEST DUP3 SSTORE POP POP POP POP JUMP JUMPDEST PUSH1 0x0 SWAP1 JUMP JUMPDEST PUSH2 0x105E PUSH2 0x1051 JUMP JUMPDEST PUSH2 0x1069 DUP2 DUP5 DUP5 PUSH2 0x102C JUMP JUMPDEST POP POP POP JUMP JUMPDEST JUMPDEST DUP2 DUP2 LT ISZERO PUSH2 0x108D JUMPI PUSH2 0x1082 PUSH1 0x0 DUP3 PUSH2 0x1056 JUMP JUMPDEST PUSH1 0x1 DUP2 ADD SWAP1 POP PUSH2 0x106F JUMP JUMPDEST POP POP JUMP JUMPDEST PUSH1 0x1F DUP3 GT ISZERO PUSH2 0x10D2 JUMPI PUSH2 0x10A3 DUP2 PUSH2 0xF7C JUMP JUMPDEST PUSH2 0x10AC DUP5 PUSH2 0xF91 JUMP JUMPDEST DUP2 ADD PUSH1 0x20 DUP6 LT ISZERO PUSH2 0x10BB JUMPI DUP2 SWAP1 POP JUMPDEST PUSH2 0x10CF PUSH2 0x10C7 DUP6 PUSH2 0xF91 JUMP JUMPDEST DUP4 ADD DUP3 PUSH2 0x106E JUMP JUMPDEST POP POP JUMPDEST POP POP POP JUMP JUMPDEST PUSH1 0x0 DUP3 DUP3 SHR SWAP1 POP SWAP3 SWAP2 POP POP JUMP JUMPDEST PUSH1 0x0 PUSH2 0x10F5 PUSH1 0x0 NOT DUP5 PUSH1 0x8 MUL PUSH2 0x10D7 JUMP JUMPDEST NOT DUP1 DUP4 AND SWAP2 POP POP SWAP3 SWAP2 POP POP JUMP JUMPDEST PUSH1 0x0 PUSH2 0x110E DUP4 DUP4 PUSH2 0x10E4 JUMP JUMPDEST SWAP2 POP DUP3 PUSH1 0x2 MUL DUP3 OR SWAP1 POP SWAP3 SWAP2 POP POP JUMP JUMPDEST PUSH2 0x1127 DUP3 PUSH2 0xB7A JUMP JUMPDEST PUSH8 0xFFFFFFFFFFFFFFFF DUP2 GT ISZERO PUSH2 0x1140 JUMPI PUSH2 0x113F PUSH2 0x76A JUMP JUMPDEST JUMPDEST PUSH2 0x114A DUP3 SLOAD PUSH2 0xF4B JUMP JUMPDEST PUSH2 0x1155 DUP3 DUP3 DUP6 PUSH2 0x1091 JUMP JUMPDEST PUSH1 0x0 PUSH1 0x20 SWAP1 POP PUSH1 0x1F DUP4 GT PUSH1 0x1 DUP2 EQ PUSH2 0x1188 JUMPI PUSH1 0x0 DUP5 ISZERO PUSH2 0x1176 JUMPI DUP3 DUP8 ADD MLOAD SWAP1 POP JUMPDEST PUSH2 0x1180 DUP6 DUP3 PUSH2 0x1102 JUMP JUMPDEST DUP7 SSTORE POP PUSH2 0x11E8 JUMP JUMPDEST PUSH1 0x1F NOT DUP5 AND PUSH2 0x1196 DUP7 PUSH2 0xF7C JUMP JUMPDEST PUSH1 0x0 JUMPDEST DUP3 DUP2 LT ISZERO PUSH2 0x11BE JUMPI DUP5 DUP10 ADD MLOAD DUP3 SSTORE PUSH1 0x1 DUP3 ADD SWAP2 POP PUSH1 0x20 DUP6 ADD SWAP5 POP PUSH1 0x20 DUP2 ADD SWAP1 POP PUSH2 0x1199 JUMP JUMPDEST DUP7 DUP4 LT ISZERO PUSH2 0x11DB JUMPI DUP5 DUP10 ADD MLOAD PUSH2 0x11D7 PUSH1 0x1F DUP10 AND DUP3 PUSH2 0x10E4 JUMP JUMPDEST DUP4 SSTORE POP JUMPDEST PUSH1 0x1 PUSH1 0x2 DUP9 MUL ADD DUP9 SSTORE POP POP POP JUMPDEST POP POP POP POP POP POP JUMP JUMPDEST PUSH1 0x0 PUSH1 0xA0 DUP3 ADD SWAP1 POP PUSH2 0x1205 PUSH1 0x0 DUP4 ADD DUP9 PUSH2 0xE0C JUMP JUMPDEST PUSH2 0x1212 PUSH1 0x20 DUP4 ADD DUP8 PUSH2 0xE0C JUMP JUMPDEST DUP2 DUP2 SUB PUSH1 0x40 DUP4 ADD MSTORE PUSH2 0x1224 DUP2 DUP7 PUSH2 0xBC0 JUMP JUMPDEST SWAP1 POP DUP2 DUP2 SUB PUSH1 0x60 DUP4 ADD MSTORE PUSH2 0x1238 DUP2 DUP6 PUSH2 0xBC0 JUMP JUMPDEST SWAP1 POP DUP2 DUP2 SUB PUSH1 0x80 DUP4 ADD MSTORE PUSH2 0x124C DUP2 DUP5 PUSH2 0xBC0 JUMP JUMPDEST SWAP1 POP SWAP7 SWAP6 POP POP POP POP POP POP JUMP INVALID LOG2 PUSH5 0x6970667358 0x22 SLT KECCAK256 PUSH12 0x8B439D6A83E1501783334953 0xEF 0xB7 0xF8 0xED 0xE7 0xCC PUSH31 0xC657B16E15DB842C0A9909DB64736F6C634300081C00330000000000000000 "},"methodIdentifiers":{"documentStore()":"408acd33","emitKey(address,string,string,string,uint8,bytes32,bytes32,uint256)":"7ee76a59","getEncryptedKey(string,address)":"924c953a","requestAccess(address,string,string,uint8,bytes32,bytes32,uint256)":"73af7da0"}}}}}