{"contracts/DocumentStore.sol":{"DocumentStore":{"abi":[{"inputs":[{"internalType":"address","name":"tenderManagerAddress","type":"address"}],"stateMutability":"nonpayable","type":"constructor"},{"anonymous":false,"inputs":[{"indexed":true,"internalType":"string","name":"tenderId","type":"string"},{"indexed":true,"internalType":"address","name":"contestant","type":"address"},{"indexed":false,"internalType":"string","name":"documentCid","type":"string"},{"indexed":false,"internalType":"string","name":"documentName","type":"string"},{"indexed":false,"internalType":"uint256","name":"submissionDate","type":"uint256"}],"name":"DocumentUploaded","type":"event"},{"inputs":[{"internalType":"string","name":"tenderId","type":"string"},{"internalType":"address","name":"user","type":"address"},{"internalType":"uint256","name":"index","type":"uint256"}],"name":"getDocumentOfUserAsOwner","outputs":[{"internalType":"string","name":"","type":"string"},{"internalType":"string","name":"","type":"string"},{"internalType":"uint256","name":"","type":"uint256"}],"stateMutability":"view","type":"function"},{"inputs":[{"internalType":"string","name":"tenderId","type":"string"},{"internalType":"address","name":"user","type":"address"}],"name":"getDocumentsOfTenderAsOwner","outputs":[{"components":[{"internalType":"string","name":"documentCid","type":"string"},{"internalType":"string","name":"documentName","type":"string"},{"internalType":"string","name":"documentType","type":"string"},{"internalType":"uint256","name":"submissionDate","type":"uint256"}],"internalType":"struct DocumentStore.Document[]","name":"","type":"tuple[]"}],"stateMutability":"view","type":"function"},{"inputs":[{"internalType":"string","name":"tenderId","type":"string"},{"internalType":"uint256","name":"index","type":"uint256"}],"name":"getMyDocument","outputs":[{"internalType":"string","name":"","type":"string"},{"internalType":"string","name":"","type":"string"},{"internalType":"uint256","name":"","type":"uint256"}],"stateMutability":"view","type":"function"},{"inputs":[{"internalType":"string","name":"tenderId","type":"string"}],"name":"getMyDocuments","outputs":[{"components":[{"internalType":"string","name":"documentCid","type":"string"},{"internalType":"string","name":"documentName","type":"string"},{"internalType":"string","name":"documentType","type":"string"},{"internalType":"uint256","name":"submissionDate","type":"uint256"}],"internalType":"struct DocumentStore.Document[]","name":"","type":"tuple[]"}],"stateMutability":"view","type":"function"},{"inputs":[{"internalType":"string","name":"","type":"string"},{"internalType":"address","name":"","type":"address"},{"internalType":"uint256","name":"","type":"uint256"}],"name":"tenderDocuments","outputs":[{"internalType":"string","name":"documentCid","type":"string"},{"internalType":"string","name":"documentName","type":"string"},{"internalType":"string","name":"documentType","type":"string"},{"internalType":"uint256","name":"submissionDate","type":"uint256"}],"stateMutability":"view","type":"function"},{"inputs":[],"name":"tenderManager","outputs":[{"internalType":"contract ITenderManager","name":"","type":"address"}],"stateMutability":"view","type":"function"},{"inputs":[{"internalType":"string","name":"tenderId","type":"string"},{"internalType":"string","name":"documentCid","type":"string"},{"internalType":"string","name":"documentName","type":"string"},{"internalType":"string","name":"documentType","type":"string"},{"internalType":"string","name":"participantName","type":"string"},{"internalType":"string","name":"participantEmail","type":"string"},{"internalType":"uint256","name":"deadline","type":"uint256"},{"internalType":"uint8","name":"v","type":"uint8"},{"internalType":"bytes32","name":"r","type":"bytes32"},{"internalType":"bytes32","name":"s","type":"bytes32"}],"name":"uploadDocumentWithSignature","outputs":[],"stateMutability":"nonpayable","type":"function"}],"evm":{"bytecode":{"linkReferences":{},"object":"608060405234801561001057600080fd5b50604051612767380380612767833981810160405281019061003291906100dc565b80600160006101000a81548173ffffffffffffffffffffffffffffffffffffffff021916908373ffffffffffffffffffffffffffffffffffffffff16021790555050610109565b600080fd5b600073ffffffffffffffffffffffffffffffffffffffff82169050919050565b60006100a98261007e565b9050919050565b6100b98161009e565b81146100c457600080fd5b50565b6000815190506100d6816100b0565b92915050565b6000602082840312156100f2576100f1610079565b5b6000610100848285016100c7565b91505092915050565b61264f806101186000396000f3fe608060405234801561001057600080fd5b506004361061007d5760003560e01c80637f9bb7811161005b5780637f9bb78114610114578063a06a72f514610147578063f05ccea714610165578063f983829c146101815761007d565b8063180d60b3146100825780633e823f07146100b25780637c4fb190146100e2575b600080fd5b61009c6004803603810190610097919061174e565b6101b3565b6040516100a99190611975565b60405180910390f35b6100cc60048036038101906100c79190611997565b610537565b6040516100d99190611975565b60405180910390f35b6100fc60048036038101906100f79190611a0c565b6107b1565b60405161010b93929190611ad4565b60405180910390f35b61012e60048036038101906101299190611a0c565b610b27565b60405161013e9493929190611b19565b60405180910390f35b61014f610d2f565b60405161015c9190611bd2565b60405180910390f35b61017f600480360381019061017a9190611c5c565b610d55565b005b61019b60048036038101906101969190611de3565b61132b565b6040516101aa93929190611ad4565b60405180910390f35b60603373ffffffffffffffffffffffffffffffffffffffff16600160009054906101000a900473ffffffffffffffffffffffffffffffffffffffff1673ffffffffffffffffffffffffffffffffffffffff16634aaf4a12856040518263ffffffff1660e01b81526004016102279190611e3f565b602060405180830381865afa158015610244573d6000803e3d6000fd5b505050506040513d601f19601f820116820180604052508101906102689190611e76565b73ffffffffffffffffffffffffffffffffffffffff16146102be576040517f08c379a00000000000000000000000000000000000000000000000000000000081526004016102b590611eef565b60405180910390fd5b6000836040516102ce9190611f4b565b908152602001604051809103902060008373ffffffffffffffffffffffffffffffffffffffff1673ffffffffffffffffffffffffffffffffffffffff168152602001908152602001600020805480602002602001604051908101604052809291908181526020016000905b8282101561052b578382906000526020600020906004020160405180608001604052908160008201805461036c90611f91565b80601f016020809104026020016040519081016040528092919081815260200182805461039890611f91565b80156103e55780601f106103ba576101008083540402835291602001916103e5565b820191906000526020600020905b8154815290600101906020018083116103c857829003601f168201915b505050505081526020016001820180546103fe90611f91565b80601f016020809104026020016040519081016040528092919081815260200182805461042a90611f91565b80156104775780601f1061044c57610100808354040283529160200191610477565b820191906000526020600020905b81548152906001019060200180831161045a57829003601f168201915b5050505050815260200160028201805461049090611f91565b80601f01602080910402602001604051908101604052809291908181526020018280546104bc90611f91565b80156105095780601f106104de57610100808354040283529160200191610509565b820191906000526020600020905b8154815290600101906020018083116104ec57829003601f168201915b5050505050815260200160038201548152505081526020019060010190610339565b50505050905092915050565b60606000826040516105499190611f4b565b908152602001604051809103902060003373ffffffffffffffffffffffffffffffffffffffff1673ffffffffffffffffffffffffffffffffffffffff168152602001908152602001600020805480602002602001604051908101604052809291908181526020016000905b828210156107a657838290600052602060002090600402016040518060800160405290816000820180546105e790611f91565b80601f016020809104026020016040519081016040528092919081815260200182805461061390611f91565b80156106605780601f1061063557610100808354040283529160200191610660565b820191906000526020600020905b81548152906001019060200180831161064357829003601f168201915b5050505050815260200160018201805461067990611f91565b80601f01602080910402602001604051908101604052809291908181526020018280546106a590611f91565b80156106f25780601f106106c7576101008083540402835291602001916106f2565b820191906000526020600020905b8154815290600101906020018083116106d557829003601f168201915b5050505050815260200160028201805461070b90611f91565b80601f016020809104026020016040519081016040528092919081815260200182805461073790611f91565b80156107845780601f1061075957610100808354040283529160200191610784565b820191906000526020600020905b81548152906001019060200180831161076757829003601f168201915b50505050508152602001600382015481525050815260200190600101906105b4565b505050509050919050565b60608060003373ffffffffffffffffffffffffffffffffffffffff16600160009054906101000a900473ffffffffffffffffffffffffffffffffffffffff1673ffffffffffffffffffffffffffffffffffffffff16634aaf4a12886040518263ffffffff1660e01b81526004016108289190611e3f565b602060405180830381865afa158015610845573d6000803e3d6000fd5b505050506040513d601f19601f820116820180604052508101906108699190611e76565b73ffffffffffffffffffffffffffffffffffffffff16146108bf576040517f08c379a00000000000000000000000000000000000000000000000000000000081526004016108b690611eef565b60405180910390fd5b600080876040516108d09190611f4b565b908152602001604051809103902060008773ffffffffffffffffffffffffffffffffffffffff1673ffffffffffffffffffffffffffffffffffffffff168152602001908152602001600020858154811061092d5761092c611fc2565b5b906000526020600020906004020160405180608001604052908160008201805461095690611f91565b80601f016020809104026020016040519081016040528092919081815260200182805461098290611f91565b80156109cf5780601f106109a4576101008083540402835291602001916109cf565b820191906000526020600020905b8154815290600101906020018083116109b257829003601f168201915b505050505081526020016001820180546109e890611f91565b80601f0160208091040260200160405190810160405280929190818152602001828054610a1490611f91565b8015610a615780601f10610a3657610100808354040283529160200191610a61565b820191906000526020600020905b815481529060010190602001808311610a4457829003601f168201915b50505050508152602001600282018054610a7a90611f91565b80601f0160208091040260200160405190810160405280929190818152602001828054610aa690611f91565b8015610af35780601f10610ac857610100808354040283529160200191610af3565b820191906000526020600020905b815481529060010190602001808311610ad657829003601f168201915b5050505050815260200160038201548152505090508060000151816020015182606001519350935093505093509350939050565b6000838051602081018201805184825260208301602085012081835280955050505050506020528160005260406000208181548110610b6557600080fd5b90600052602060002090600402016000925092505050806000018054610b8a90611f91565b80601f0160208091040260200160405190810160405280929190818152602001828054610bb690611f91565b8015610c035780601f10610bd857610100808354040283529160200191610c03565b820191906000526020600020905b815481529060010190602001808311610be657829003601f168201915b505050505090806001018054610c1890611f91565b80601f0160208091040260200160405190810160405280929190818152602001828054610c4490611f91565b8015610c915780601f10610c6657610100808354040283529160200191610c91565b820191906000526020600020905b815481529060010190602001808311610c7457829003601f168201915b505050505090806002018054610ca690611f91565b80601f0160208091040260200160405190810160405280929190818152602001828054610cd290611f91565b8015610d1f5780601f10610cf457610100808354040283529160200191610d1f565b820191906000526020600020905b815481529060010190602001808311610d0257829003601f168201915b5050505050908060030154905084565b600160009054906101000a900473ffffffffffffffffffffffffffffffffffffffff1681565b60008a8986604051602001610d6c93929190612012565b604051602081830303815290604052805190602001209050600081604051602001610d9791906120b4565b604051602081830303815290604052805190602001209050600060018287878760405160008152602001604052604051610dd494939291906120f8565b6020604051602081039080840390855afa158015610df6573d6000803e3d6000fd5b505050602060405103519050600073ffffffffffffffffffffffffffffffffffffffff168173ffffffffffffffffffffffffffffffffffffffff1603610e71576040517f08c379a0000000000000000000000000000000000000000000000000000000008152600401610e6890612189565b60405180910390fd5b86421115610eb4576040517f08c379a0000000000000000000000000000000000000000000000000000000008152600401610eab906121f5565b60405180910390fd5b6040518060400160405280600681526020017f74656e6465720000000000000000000000000000000000000000000000000000815250805190602001208a8051906020012003610fdc57600160009054906101000a900473ffffffffffffffffffffffffffffffffffffffff1673ffffffffffffffffffffffffffffffffffffffff16634756331e8e836040518363ffffffff1660e01b8152600401610f5b929190612224565b602060405180830381865afa158015610f78573d6000803e3d6000fd5b505050506040513d601f19601f82011682018060405250810190610f9c919061228c565b610fdb576040517f08c379a0000000000000000000000000000000000000000000000000000000008152600401610fd29061232b565b60405180910390fd5b5b600060405180608001604052808e81526020018d81526020018c815260200142815250905060008e6040516110119190611f4b565b908152602001604051809103902060008373ffffffffffffffffffffffffffffffffffffffff1673ffffffffffffffffffffffffffffffffffffffff168152602001908152602001600020819080600181540180825580915050600190039060005260206000209060040201600090919091909150600082015181600001908161109b91906124ed565b5060208201518160010190816110b191906124ed565b5060408201518160020190816110c791906124ed565b50606082015181600301555050600160009054906101000a900473ffffffffffffffffffffffffffffffffffffffff1673ffffffffffffffffffffffffffffffffffffffff16634756331e8f846040518363ffffffff1660e01b8152600401611131929190612224565b602060405180830381865afa15801561114e573d6000803e3d6000fd5b505050506040513d601f19601f82011682018060405250810190611172919061228c565b15801561121a5750600160009054906101000a900473ffffffffffffffffffffffffffffffffffffffff1673ffffffffffffffffffffffffffffffffffffffff1663e4afd7c08f846040518363ffffffff1660e01b81526004016111d7929190612224565b602060405180830381865afa1580156111f4573d6000803e3d6000fd5b505050506040513d601f19601f82011682018060405250810190611218919061228c565b155b156112b357600160009054906101000a900473ffffffffffffffffffffffffffffffffffffffff1673ffffffffffffffffffffffffffffffffffffffff1663061ff4358f8c8c866040518563ffffffff1660e01b815260040161128094939291906125bf565b600060405180830381600087803b15801561129a57600080fd5b505af11580156112ae573d6000803e3d6000fd5b505050505b8173ffffffffffffffffffffffffffffffffffffffff168e6040516112d89190611f4b565b60405180910390207f963ec0ad3d85928f4a4df0b4ad4eab4fea9a19714adeea20c726acd664544c448f8f4260405161131393929190611ad4565b60405180910390a35050505050505050505050505050565b6060806000806000866040516113419190611f4b565b908152602001604051809103902060003373ffffffffffffffffffffffffffffffffffffffff1673ffffffffffffffffffffffffffffffffffffffff168152602001908152602001600020858154811061139e5761139d611fc2565b5b90600052602060002090600402016040518060800160405290816000820180546113c790611f91565b80601f01602080910402602001604051908101604052809291908181526020018280546113f390611f91565b80156114405780601f1061141557610100808354040283529160200191611440565b820191906000526020600020905b81548152906001019060200180831161142357829003601f168201915b5050505050815260200160018201805461145990611f91565b80601f016020809104026020016040519081016040528092919081815260200182805461148590611f91565b80156114d25780601f106114a7576101008083540402835291602001916114d2565b820191906000526020600020905b8154815290600101906020018083116114b557829003601f168201915b505050505081526020016002820180546114eb90611f91565b80601f016020809104026020016040519081016040528092919081815260200182805461151790611f91565b80156115645780601f1061153957610100808354040283529160200191611564565b820191906000526020600020905b81548152906001019060200180831161154757829003601f168201915b505050505081526020016003820154815250509050806000015181602001518260600151935093509350509250925092565b6000604051905090565b600080fd5b600080fd5b600080fd5b600080fd5b6000601f19601f8301169050919050565b7f4e487b7100000000000000000000000000000000000000000000000000000000600052604160045260246000fd5b6115fd826115b4565b810181811067ffffffffffffffff8211171561161c5761161b6115c5565b5b80604052505050565b600061162f611596565b905061163b82826115f4565b919050565b600067ffffffffffffffff82111561165b5761165a6115c5565b5b611664826115b4565b9050602081019050919050565b82818337600083830152505050565b600061169361168e84611640565b611625565b9050828152602081018484840111156116af576116ae6115af565b5b6116ba848285611671565b509392505050565b600082601f8301126116d7576116d66115aa565b5b81356116e7848260208601611680565b91505092915050565b600073ffffffffffffffffffffffffffffffffffffffff82169050919050565b600061171b826116f0565b9050919050565b61172b81611710565b811461173657600080fd5b50565b60008135905061174881611722565b92915050565b60008060408385031215611765576117646115a0565b5b600083013567ffffffffffffffff811115611783576117826115a5565b5b61178f858286016116c2565b92505060206117a085828601611739565b9150509250929050565b600081519050919050565b600082825260208201905092915050565b6000819050602082019050919050565b600081519050919050565b600082825260208201905092915050565b60005b838110156118105780820151818401526020810190506117f5565b60008484015250505050565b6000611827826117d6565b61183181856117e1565b93506118418185602086016117f2565b61184a816115b4565b840191505092915050565b6000819050919050565b61186881611855565b82525050565b6000608083016000830151848203600086015261188b828261181c565b915050602083015184820360208601526118a5828261181c565b915050604083015184820360408601526118bf828261181c565b91505060608301516118d4606086018261185f565b508091505092915050565b60006118eb838361186e565b905092915050565b6000602082019050919050565b600061190b826117aa565b61191581856117b5565b935083602082028501611927856117c6565b8060005b85811015611963578484038952815161194485826118df565b945061194f836118f3565b925060208a0199505060018101905061192b565b50829750879550505050505092915050565b6000602082019050818103600083015261198f8184611900565b905092915050565b6000602082840312156119ad576119ac6115a0565b5b600082013567ffffffffffffffff8111156119cb576119ca6115a5565b5b6119d7848285016116c2565b91505092915050565b6119e981611855565b81146119f457600080fd5b50565b600081359050611a06816119e0565b92915050565b600080600060608486031215611a2557611a246115a0565b5b600084013567ffffffffffffffff811115611a4357611a426115a5565b5b611a4f868287016116c2565b9350506020611a6086828701611739565b9250506040611a71868287016119f7565b9150509250925092565b600082825260208201905092915050565b6000611a97826117d6565b611aa18185611a7b565b9350611ab18185602086016117f2565b611aba816115b4565b840191505092915050565b611ace81611855565b82525050565b60006060820190508181036000830152611aee8186611a8c565b90508181036020830152611b028185611a8c565b9050611b116040830184611ac5565b949350505050565b60006080820190508181036000830152611b338187611a8c565b90508181036020830152611b478186611a8c565b90508181036040830152611b5b8185611a8c565b9050611b6a6060830184611ac5565b95945050505050565b6000819050919050565b6000611b98611b93611b8e846116f0565b611b73565b6116f0565b9050919050565b6000611baa82611b7d565b9050919050565b6000611bbc82611b9f565b9050919050565b611bcc81611bb1565b82525050565b6000602082019050611be76000830184611bc3565b92915050565b600060ff82169050919050565b611c0381611bed565b8114611c0e57600080fd5b50565b600081359050611c2081611bfa565b92915050565b6000819050919050565b611c3981611c26565b8114611c4457600080fd5b50565b600081359050611c5681611c30565b92915050565b6000806000806000806000806000806101408b8d031215611c8057611c7f6115a0565b5b60008b013567ffffffffffffffff811115611c9e57611c9d6115a5565b5b611caa8d828e016116c2565b9a505060208b013567ffffffffffffffff811115611ccb57611cca6115a5565b5b611cd78d828e016116c2565b99505060408b013567ffffffffffffffff811115611cf857611cf76115a5565b5b611d048d828e016116c2565b98505060608b013567ffffffffffffffff811115611d2557611d246115a5565b5b611d318d828e016116c2565b97505060808b013567ffffffffffffffff811115611d5257611d516115a5565b5b611d5e8d828e016116c2565b96505060a08b013567ffffffffffffffff811115611d7f57611d7e6115a5565b5b611d8b8d828e016116c2565b95505060c0611d9c8d828e016119f7565b94505060e0611dad8d828e01611c11565b935050610100611dbf8d828e01611c47565b925050610120611dd18d828e01611c47565b9150509295989b9194979a5092959850565b60008060408385031215611dfa57611df96115a0565b5b600083013567ffffffffffffffff811115611e1857611e176115a5565b5b611e24858286016116c2565b9250506020611e35858286016119f7565b9150509250929050565b60006020820190508181036000830152611e598184611a8c565b905092915050565b600081519050611e7081611722565b92915050565b600060208284031215611e8c57611e8b6115a0565b5b6000611e9a84828501611e61565b91505092915050565b7f4f6e6c792074656e646572206f776e65722063616e2076696577207468697300600082015250565b6000611ed9601f83611a7b565b9150611ee482611ea3565b602082019050919050565b60006020820190508181036000830152611f0881611ecc565b9050919050565b600081905092915050565b6000611f25826117d6565b611f2f8185611f0f565b9350611f3f8185602086016117f2565b80840191505092915050565b6000611f578284611f1a565b915081905092915050565b7f4e487b7100000000000000000000000000000000000000000000000000000000600052602260045260246000fd5b60006002820490506001821680611fa957607f821691505b602082108103611fbc57611fbb611f62565b5b50919050565b7f4e487b7100000000000000000000000000000000000000000000000000000000600052603260045260246000fd5b6000819050919050565b61200c61200782611855565b611ff1565b82525050565b600061201e8286611f1a565b915061202a8285611f1a565b91506120368284611ffb565b602082019150819050949350505050565b7f19457468657265756d205369676e6564204d6573736167653a0a333200000000600082015250565b600061207d601c83611f0f565b915061208882612047565b601c82019050919050565b6000819050919050565b6120ae6120a982611c26565b612093565b82525050565b60006120bf82612070565b91506120cb828461209d565b60208201915081905092915050565b6120e381611c26565b82525050565b6120f281611bed565b82525050565b600060808201905061210d60008301876120da565b61211a60208301866120e9565b61212760408301856120da565b61213460608301846120da565b95945050505050565b7f496e76616c6964207369676e6174757265000000000000000000000000000000600082015250565b6000612173601183611a7b565b915061217e8261213d565b602082019050919050565b600060208201905081810360008301526121a281612166565b9050919050565b7f5369676e61747572652065787069726564000000000000000000000000000000600082015250565b60006121df601183611a7b565b91506121ea826121a9565b602082019050919050565b6000602082019050818103600083015261220e816121d2565b9050919050565b61221e81611710565b82525050565b6000604082019050818103600083015261223e8185611a8c565b905061224d6020830184612215565b9392505050565b60008115159050919050565b61226981612254565b811461227457600080fd5b50565b60008151905061228681612260565b92915050565b6000602082840312156122a2576122a16115a0565b5b60006122b084828501612277565b91505092915050565b7f4f6e6c79207061727469636970616e74732063616e2075706c6f61642074656e60008201527f64657220646f63756d656e747300000000000000000000000000000000000000602082015250565b6000612315602d83611a7b565b9150612320826122b9565b604082019050919050565b6000602082019050818103600083015261234481612308565b9050919050565b60008190508160005260206000209050919050565b60006020601f8301049050919050565b600082821b905092915050565b6000600883026123ad7fffffffffffffffffffffffffffffffffffffffffffffffffffffffffffffffff82612370565b6123b78683612370565b95508019841693508086168417925050509392505050565b60006123ea6123e56123e084611855565b611b73565b611855565b9050919050565b6000819050919050565b612404836123cf565b612418612410826123f1565b84845461237d565b825550505050565b600090565b61242d612420565b6124388184846123fb565b505050565b5b8181101561245c57612451600082612425565b60018101905061243e565b5050565b601f8211156124a1576124728161234b565b61247b84612360565b8101602085101561248a578190505b61249e61249685612360565b83018261243d565b50505b505050565b600082821c905092915050565b60006124c4600019846008026124a6565b1980831691505092915050565b60006124dd83836124b3565b9150826002028217905092915050565b6124f6826117d6565b67ffffffffffffffff81111561250f5761250e6115c5565b5b6125198254611f91565b612524828285612460565b600060209050601f8311600181146125575760008415612545578287015190505b61254f85826124d1565b8655506125b7565b601f1984166125658661234b565b60005b8281101561258d57848901518255600182019150602085019450602081019050612568565b868310156125aa57848901516125a6601f8916826124b3565b8355505b6001600288020188555050505b505050505050565b600060808201905081810360008301526125d98187611a8c565b905081810360208301526125ed8186611a8c565b905081810360408301526126018185611a8c565b90506126106060830184612215565b9594505050505056fea2646970667358221220ac2a03f4c4ba2a318a9db2857ec49642554dbaf32cc1ed52b35b2a67d22508f264736f6c634300081c0033","opcodes":"PUSH1 0x80 PUSH1 0x40 MSTORE CALLVALUE DUP1 ISZERO PUSH2 0x10 JUMPI PUSH1 0x0 DUP1 REVERT JUMPDEST POP PUSH1 0x40 MLOAD PUSH2 0x2767 CODESIZE SUB DUP1 PUSH2 0x2767 DUP4 CODECOPY DUP2 DUP2 ADD PUSH1 0x40 MSTORE DUP2 ADD SWAP1 PUSH2 0x32 SWAP2 SWAP1 PUSH2 0xDC JUMP JUMPDEST DUP1 PUSH1 0x1 PUSH1 0x0 PUSH2 0x100 EXP DUP2 SLOAD DUP2 PUSH20 0xFFFFFFFFFFFFFFFFFFFFFFFFFFFFFFFFFFFFFFFF MUL NOT AND SWAP1 DUP4 PUSH20 0xFFFFFFFFFFFFFFFFFFFFFFFFFFFFFFFFFFFFFFFF AND MUL OR SWAP1 SSTORE POP POP PUSH2 0x109 JUMP JUMPDEST PUSH1 0x0 DUP1 REVERT JUMPDEST PUSH1 0x0 PUSH20 0xFFFFFFFFFFFFFFFFFFFFFFFFFFFFFFFFFFFFFFFF DUP3 AND SWAP1 POP SWAP2 SWAP1 POP JUMP JUMPDEST PUSH1 0x0 PUSH2 0xA9 DUP3 PUSH2 0x7E JUMP JUMPDEST SWAP1 POP SWAP2 SWAP1 POP JUMP JUMPDEST PUSH2 0xB9 DUP2 PUSH2 0x9E JUMP JUMPDEST DUP2 EQ PUSH2 0xC4 JUMPI PUSH1 0x0 DUP1 REVERT JUMPDEST POP JUMP JUMPDEST PUSH1 0x0 DUP2 MLOAD SWAP1 POP PUSH2 0xD6 DUP2 PUSH2 0xB0 JUMP JUMPDEST SWAP3 SWAP2 POP POP JUMP JUMPDEST PUSH1 0x0 PUSH1 0x20 DUP3 DUP5 SUB SLT ISZERO PUSH2 0xF2 JUMPI PUSH2 0xF1 PUSH2 0x79 JUMP JUMPDEST JUMPDEST PUSH1 0x0 PUSH2 0x100 DUP5 DUP3 DUP6 ADD PUSH2 0xC7 JUMP JUMPDEST SWAP2 POP POP SWAP3 SWAP2 POP POP JUMP JUMPDEST PUSH2 0x264F DUP1 PUSH2 0x118 PUSH1 0x0 CODECOPY PUSH1 0x0 RETURN INVALID PUSH1 0x80 PUSH1 0x40 MSTORE CALLVALUE DUP1 ISZERO PUSH2 0x10 JUMPI PUSH1 0x0 DUP1 REVERT JUMPDEST POP PUSH1 0x4 CALLDATASIZE LT PUSH2 0x7D JUMPI PUSH1 0x0 CALLDATALOAD PUSH1 0xE0 SHR DUP1 PUSH4 0x7F9BB781 GT PUSH2 0x5B JUMPI DUP1 PUSH4 0x7F9BB781 EQ PUSH2 0x114 JUMPI DUP1 PUSH4 0xA06A72F5 EQ PUSH2 0x147 JUMPI DUP1 PUSH4 0xF05CCEA7 EQ PUSH2 0x165 JUMPI DUP1 PUSH4 0xF983829C EQ PUSH2 0x181 JUMPI PUSH2 0x7D JUMP JUMPDEST DUP1 PUSH4 0x180D60B3 EQ PUSH2 0x82 JUMPI DUP1 PUSH4 0x3E823F07 EQ PUSH2 0xB2 JUMPI DUP1 PUSH4 0x7C4FB190 EQ PUSH2 0xE2 JUMPI JUMPDEST PUSH1 0x0 DUP1 REVERT JUMPDEST PUSH2 0x9C PUSH1 0x4 DUP1 CALLDATASIZE SUB DUP2 ADD SWAP1 PUSH2 0x97 SWAP2 SWAP1 PUSH2 0x174E JUMP JUMPDEST PUSH2 0x1B3 JUMP JUMPDEST PUSH1 0x40 MLOAD PUSH2 0xA9 SWAP2 SWAP1 PUSH2 0x1975 JUMP JUMPDEST PUSH1 0x40 MLOAD DUP1 SWAP2 SUB SWAP1 RETURN JUMPDEST PUSH2 0xCC PUSH1 0x4 DUP1 CALLDATASIZE SUB DUP2 ADD SWAP1 PUSH2 0xC7 SWAP2 SWAP1 PUSH2 0x1997 JUMP JUMPDEST PUSH2 0x537 JUMP JUMPDEST PUSH1 0x40 MLOAD PUSH2 0xD9 SWAP2 SWAP1 PUSH2 0x1975 JUMP JUMPDEST PUSH1 0x40 MLOAD DUP1 SWAP2 SUB SWAP1 RETURN JUMPDEST PUSH2 0xFC PUSH1 0x4 DUP1 CALLDATASIZE SUB DUP2 ADD SWAP1 PUSH2 0xF7 SWAP2 SWAP1 PUSH2 0x1A0C JUMP JUMPDEST PUSH2 0x7B1 JUMP JUMPDEST PUSH1 0x40 MLOAD PUSH2 0x10B SWAP4 SWAP3 SWAP2 SWAP1 PUSH2 0x1AD4 JUMP JUMPDEST PUSH1 0x40 MLOAD DUP1 SWAP2 SUB SWAP1 RETURN JUMPDEST PUSH2 0x12E PUSH1 0x4 DUP1 CALLDATASIZE SUB DUP2 ADD SWAP1 PUSH2 0x129 SWAP2 SWAP1 PUSH2 0x1A0C JUMP JUMPDEST PUSH2 0xB27 JUMP JUMPDEST PUSH1 0x40 MLOAD PUSH2 0x13E SWAP5 SWAP4 SWAP3 SWAP2 SWAP1 PUSH2 0x1B19 JUMP JUMPDEST PUSH1 0x40 MLOAD DUP1 SWAP2 SUB SWAP1 RETURN JUMPDEST PUSH2 0x14F PUSH2 0xD2F JUMP JUMPDEST PUSH1 0x40 MLOAD PUSH2 0x15C SWAP2 SWAP1 PUSH2 0x1BD2 JUMP JUMPDEST PUSH1 0x40 MLOAD DUP1 SWAP2 SUB SWAP1 RETURN JUMPDEST PUSH2 0x17F PUSH1 0x4 DUP1 CALLDATASIZE SUB DUP2 ADD SWAP1 PUSH2 0x17A SWAP2 SWAP1 PUSH2 0x1C5C JUMP JUMPDEST PUSH2 0xD55 JUMP JUMPDEST STOP JUMPDEST PUSH2 0x19B PUSH1 0x4 DUP1 CALLDATASIZE SUB DUP2 ADD SWAP1 PUSH2 0x196 SWAP2 SWAP1 PUSH2 0x1DE3 JUMP JUMPDEST PUSH2 0x132B JUMP JUMPDEST PUSH1 0x40 MLOAD PUSH2 0x1AA SWAP4 SWAP3 SWAP2 SWAP1 PUSH2 0x1AD4 JUMP JUMPDEST PUSH1 0x40 MLOAD DUP1 SWAP2 SUB SWAP1 RETURN JUMPDEST PUSH1 0x60 CALLER PUSH20 0xFFFFFFFFFFFFFFFFFFFFFFFFFFFFFFFFFFFFFFFF AND PUSH1 0x1 PUSH1 0x0 SWAP1 SLOAD SWAP1 PUSH2 0x100 EXP SWAP1 DIV PUSH20 0xFFFFFFFFFFFFFFFFFFFFFFFFFFFFFFFFFFFFFFFF AND PUSH20 0xFFFFFFFFFFFFFFFFFFFFFFFFFFFFFFFFFFFFFFFF AND PUSH4 0x4AAF4A12 DUP6 PUSH1 0x40 MLOAD DUP3 PUSH4 0xFFFFFFFF AND PUSH1 0xE0 SHL DUP2 MSTORE PUSH1 0x4 ADD PUSH2 0x227 SWAP2 SWAP1 PUSH2 0x1E3F JUMP JUMPDEST PUSH1 0x20 PUSH1 0x40 MLOAD DUP1 DUP4 SUB DUP2 DUP7 GAS STATICCALL ISZERO DUP1 ISZERO PUSH2 0x244 JUMPI RETURNDATASIZE PUSH1 0x0 DUP1 RETURNDATACOPY RETURNDATASIZE PUSH1 0x0 REVERT JUMPDEST POP POP POP POP PUSH1 0x40 MLOAD RETURNDATASIZE PUSH1 0x1F NOT PUSH1 0x1F DUP3 ADD AND DUP3 ADD DUP1 PUSH1 0x40 MSTORE POP DUP2 ADD SWAP1 PUSH2 0x268 SWAP2 SWAP1 PUSH2 0x1E76 JUMP JUMPDEST PUSH20 0xFFFFFFFFFFFFFFFFFFFFFFFFFFFFFFFFFFFFFFFF AND EQ PUSH2 0x2BE JUMPI PUSH1 0x40 MLOAD PUSH32 0x8C379A000000000000000000000000000000000000000000000000000000000 DUP2 MSTORE PUSH1 0x4 ADD PUSH2 0x2B5 SWAP1 PUSH2 0x1EEF JUMP JUMPDEST PUSH1 0x40 MLOAD DUP1 SWAP2 SUB SWAP1 REVERT JUMPDEST PUSH1 0x0 DUP4 PUSH1 0x40 MLOAD PUSH2 0x2CE SWAP2 SWAP1 PUSH2 0x1F4B JUMP JUMPDEST SWAP1 DUP2 MSTORE PUSH1 0x20 ADD PUSH1 0x40 MLOAD DUP1 SWAP2 SUB SWAP1 KECCAK256 PUSH1 0x0 DUP4 PUSH20 0xFFFFFFFFFFFFFFFFFFFFFFFFFFFFFFFFFFFFFFFF AND PUSH20 0xFFFFFFFFFFFFFFFFFFFFFFFFFFFFFFFFFFFFFFFF AND DUP2 MSTORE PUSH1 0x20 ADD SWAP1 DUP2 MSTORE PUSH1 0x20 ADD PUSH1 0x0 KECCAK256 DUP1 SLOAD DUP1 PUSH1 0x20 MUL PUSH1 0x20 ADD PUSH1 0x40 MLOAD SWAP1 DUP2 ADD PUSH1 0x40 MSTORE DUP1 SWAP3 SWAP2 SWAP1 DUP2 DUP2 MSTORE PUSH1 0x20 ADD PUSH1 0x0 SWAP1 JUMPDEST DUP3 DUP3 LT ISZERO PUSH2 0x52B JUMPI DUP4 DUP3 SWAP1 PUSH1 0x0 MSTORE PUSH1 0x20 PUSH1 0x0 KECCAK256 SWAP1 PUSH1 0x4 MUL ADD PUSH1 0x40 MLOAD DUP1 PUSH1 0x80 ADD PUSH1 0x40 MSTORE SWAP1 DUP2 PUSH1 0x0 DUP3 ADD DUP1 SLOAD PUSH2 0x36C SWAP1 PUSH2 0x1F91 JUMP JUMPDEST DUP1 PUSH1 0x1F ADD PUSH1 0x20 DUP1 SWAP2 DIV MUL PUSH1 0x20 ADD PUSH1 0x40 MLOAD SWAP1 DUP2 ADD PUSH1 0x40 MSTORE DUP1 SWAP3 SWAP2 SWAP1 DUP2 DUP2 MSTORE PUSH1 0x20 ADD DUP3 DUP1 SLOAD PUSH2 0x398 SWAP1 PUSH2 0x1F91 JUMP JUMPDEST DUP1 ISZERO PUSH2 0x3E5 JUMPI DUP1 PUSH1 0x1F LT PUSH2 0x3BA JUMPI PUSH2 0x100 DUP1 DUP4 SLOAD DIV MUL DUP4 MSTORE SWAP2 PUSH1 0x20 ADD SWAP2 PUSH2 0x3E5 JUMP JUMPDEST DUP3 ADD SWAP2 SWAP1 PUSH1 0x0 MSTORE PUSH1 0x20 PUSH1 0x0 KECCAK256 SWAP1 JUMPDEST DUP2 SLOAD DUP2 MSTORE SWAP1 PUSH1 0x1 ADD SWAP1 PUSH1 0x20 ADD DUP1 DUP4 GT PUSH2 0x3C8 JUMPI DUP3 SWAP1 SUB PUSH1 0x1F AND DUP3 ADD SWAP2 JUMPDEST POP POP POP POP POP DUP2 MSTORE PUSH1 0x20 ADD PUSH1 0x1 DUP3 ADD DUP1 SLOAD PUSH2 0x3FE SWAP1 PUSH2 0x1F91 JUMP JUMPDEST DUP1 PUSH1 0x1F ADD PUSH1 0x20 DUP1 SWAP2 DIV MUL PUSH1 0x20 ADD PUSH1 0x40 MLOAD SWAP1 DUP2 ADD PUSH1 0x40 MSTORE DUP1 SWAP3 SWAP2 SWAP1 DUP2 DUP2 MSTORE PUSH1 0x20 ADD DUP3 DUP1 SLOAD PUSH2 0x42A SWAP1 PUSH2 0x1F91 JUMP JUMPDEST DUP1 ISZERO PUSH2 0x477 JUMPI DUP1 PUSH1 0x1F LT PUSH2 0x44C JUMPI PUSH2 0x100 DUP1 DUP4 SLOAD DIV MUL DUP4 MSTORE SWAP2 PUSH1 0x20 ADD SWAP2 PUSH2 0x477 JUMP JUMPDEST DUP3 ADD SWAP2 SWAP1 PUSH1 0x0 MSTORE PUSH1 0x20 PUSH1 0x0 KECCAK256 SWAP1 JUMPDEST DUP2 SLOAD DUP2 MSTORE SWAP1 PUSH1 0x1 ADD SWAP1 PUSH1 0x20 ADD DUP1 DUP4 GT PUSH2 0x45A JUMPI DUP3 SWAP1 SUB PUSH1 0x1F AND DUP3 ADD SWAP2 JUMPDEST POP POP POP POP POP DUP2 MSTORE PUSH1 0x20 ADD PUSH1 0x2 DUP3 ADD DUP1 SLOAD PUSH2 0x490 SWAP1 PUSH2 0x1F91 JUMP JUMPDEST DUP1 PUSH1 0x1F ADD PUSH1 0x20 DUP1 SWAP2 DIV MUL PUSH1 0x20 ADD PUSH1 0x40 MLOAD SWAP1 DUP2 ADD PUSH1 0x40 MSTORE DUP1 SWAP3 SWAP2 SWAP1 DUP2 DUP2 MSTORE PUSH1 0x20 ADD DUP3 DUP1 SLOAD PUSH2 0x4BC SWAP1 PUSH2 0x1F91 JUMP JUMPDEST DUP1 ISZERO PUSH2 0x509 JUMPI DUP1 PUSH1 0x1F LT PUSH2 0x4DE JUMPI PUSH2 0x100 DUP1 DUP4 SLOAD DIV MUL DUP4 MSTORE SWAP2 PUSH1 0x20 ADD SWAP2 PUSH2 0x509 JUMP JUMPDEST DUP3 ADD SWAP2 SWAP1 PUSH1 0x0 MSTORE PUSH1 0x20 PUSH1 0x0 KECCAK256 SWAP1 JUMPDEST DUP2 SLOAD DUP2 MSTORE SWAP1 PUSH1 0x1 ADD SWAP1 PUSH1 0x20 ADD DUP1 DUP4 GT PUSH2 0x4EC JUMPI DUP3 SWAP1 SUB PUSH1 0x1F AND DUP3 ADD SWAP2 JUMPDEST POP POP POP POP POP DUP2 MSTORE PUSH1 0x20 ADD PUSH1 0x3 DUP3 ADD SLOAD DUP2 MSTORE POP POP DUP2 MSTORE PUSH1 0x20 ADD SWAP1 PUSH1 0x1 ADD SWAP1 PUSH2 0x339 JUMP JUMPDEST POP POP POP POP SWAP1 POP SWAP3 SWAP2 POP POP JUMP JUMPDEST PUSH1 0x60 PUSH1 0x0 DUP3 PUSH1 0x40 MLOAD PUSH2 0x549 SWAP2 SWAP1 PUSH2 0x1F4B JUMP JUMPDEST SWAP1 DUP2 MSTORE PUSH1 0x20 ADD PUSH1 0x40 MLOAD DUP1 SWAP2 SUB SWAP1 KECCAK256 PUSH1 0x0 CALLER PUSH20 0xFFFFFFFFFFFFFFFFFFFFFFFFFFFFFFFFFFFFFFFF AND PUSH20 0xFFFFFFFFFFFFFFFFFFFFFFFFFFFFFFFFFFFFFFFF AND DUP2 MSTORE PUSH1 0x20 ADD SWAP1 DUP2 MSTORE PUSH1 0x20 ADD PUSH1 0x0 KECCAK256 DUP1 SLOAD DUP1 PUSH1 0x20 MUL PUSH1 0x20 ADD PUSH1 0x40 MLOAD SWAP1 DUP2 ADD PUSH1 0x40 MSTORE DUP1 SWAP3 SWAP2 SWAP1 DUP2 DUP2 MSTORE PUSH1 0x20 ADD PUSH1 0x0 SWAP1 JUMPDEST DUP3 DUP3 LT ISZERO PUSH2 0x7A6 JUMPI DUP4 DUP3 SWAP1 PUSH1 0x0 MSTORE PUSH1 0x20 PUSH1 0x0 KECCAK256 SWAP1 PUSH1 0x4 MUL ADD PUSH1 0x40 MLOAD DUP1 PUSH1 0x80 ADD PUSH1 0x40 MSTORE SWAP1 DUP2 PUSH1 0x0 DUP3 ADD DUP1 SLOAD PUSH2 0x5E7 SWAP1 PUSH2 0x1F91 JUMP JUMPDEST DUP1 PUSH1 0x1F ADD PUSH1 0x20 DUP1 SWAP2 DIV MUL PUSH1 0x20 ADD PUSH1 0x40 MLOAD SWAP1 DUP2 ADD PUSH1 0x40 MSTORE DUP1 SWAP3 SWAP2 SWAP1 DUP2 DUP2 MSTORE PUSH1 0x20 ADD DUP3 DUP1 SLOAD PUSH2 0x613 SWAP1 PUSH2 0x1F91 JUMP JUMPDEST DUP1 ISZERO PUSH2 0x660 JUMPI DUP1 PUSH1 0x1F LT PUSH2 0x635 JUMPI PUSH2 0x100 DUP1 DUP4 SLOAD DIV MUL DUP4 MSTORE SWAP2 PUSH1 0x20 ADD SWAP2 PUSH2 0x660 JUMP JUMPDEST DUP3 ADD SWAP2 SWAP1 PUSH1 0x0 MSTORE PUSH1 0x20 PUSH1 0x0 KECCAK256 SWAP1 JUMPDEST DUP2 SLOAD DUP2 MSTORE SWAP1 PUSH1 0x1 ADD SWAP1 PUSH1 0x20 ADD DUP1 DUP4 GT PUSH2 0x643 JUMPI DUP3 SWAP1 SUB PUSH1 0x1F AND DUP3 ADD SWAP2 JUMPDEST POP POP POP POP POP DUP2 MSTORE PUSH1 0x20 ADD PUSH1 0x1 DUP3 ADD DUP1 SLOAD PUSH2 0x679 SWAP1 PUSH2 0x1F91 JUMP JUMPDEST DUP1 PUSH1 0x1F ADD PUSH1 0x20 DUP1 SWAP2 DIV MUL PUSH1 0x20 ADD PUSH1 0x40 MLOAD SWAP1 DUP2 ADD PUSH1 0x40 MSTORE DUP1 SWAP3 SWAP2 SWAP1 DUP2 DUP2 MSTORE PUSH1 0x20 ADD DUP3 DUP1 SLOAD PUSH2 0x6A5 SWAP1 PUSH2 0x1F91 JUMP JUMPDEST DUP1 ISZERO PUSH2 0x6F2 JUMPI DUP1 PUSH1 0x1F LT PUSH2 0x6C7 JUMPI PUSH2 0x100 DUP1 DUP4 SLOAD DIV MUL DUP4 MSTORE SWAP2 PUSH1 0x20 ADD SWAP2 PUSH2 0x6F2 JUMP JUMPDEST DUP3 ADD SWAP2 SWAP1 PUSH1 0x0 MSTORE PUSH1 0x20 PUSH1 0x0 KECCAK256 SWAP1 JUMPDEST DUP2 SLOAD DUP2 MSTORE SWAP1 PUSH1 0x1 ADD SWAP1 PUSH1 0x20 ADD DUP1 DUP4 GT PUSH2 0x6D5 JUMPI DUP3 SWAP1 SUB PUSH1 0x1F AND DUP3 ADD SWAP2 JUMPDEST POP POP POP POP POP DUP2 MSTORE PUSH1 0x20 ADD PUSH1 0x2 DUP3 ADD DUP1 SLOAD PUSH2 0x70B SWAP1 PUSH2 0x1F91 JUMP JUMPDEST DUP1 PUSH1 0x1F ADD PUSH1 0x20 DUP1 SWAP2 DIV MUL PUSH1 0x20 ADD PUSH1 0x40 MLOAD SWAP1 DUP2 ADD PUSH1 0x40 MSTORE DUP1 SWAP3 SWAP2 SWAP1 DUP2 DUP2 MSTORE PUSH1 0x20 ADD DUP3 DUP1 SLOAD PUSH2 0x737 SWAP1 PUSH2 0x1F91 JUMP JUMPDEST DUP1 ISZERO PUSH2 0x784 JUMPI DUP1 PUSH1 0x1F LT PUSH2 0x759 JUMPI PUSH2 0x100 DUP1 DUP4 SLOAD DIV MUL DUP4 MSTORE SWAP2 PUSH1 0x20 ADD SWAP2 PUSH2 0x784 JUMP JUMPDEST DUP3 ADD SWAP2 SWAP1 PUSH1 0x0 MSTORE PUSH1 0x20 PUSH1 0x0 KECCAK256 SWAP1 JUMPDEST DUP2 SLOAD DUP2 MSTORE SWAP1 PUSH1 0x1 ADD SWAP1 PUSH1 0x20 ADD DUP1 DUP4 GT PUSH2 0x767 JUMPI DUP3 SWAP1 SUB PUSH1 0x1F AND DUP3 ADD SWAP2 JUMPDEST POP POP POP POP POP DUP2 MSTORE PUSH1 0x20 ADD PUSH1 0x3 DUP3 ADD SLOAD DUP2 MSTORE POP POP DUP2 MSTORE PUSH1 0x20 ADD SWAP1 PUSH1 0x1 ADD SWAP1 PUSH2 0x5B4 JUMP JUMPDEST POP POP POP POP SWAP1 POP SWAP2 SWAP1 POP JUMP JUMPDEST PUSH1 0x60 DUP1 PUSH1 0x0 CALLER PUSH20 0xFFFFFFFFFFFFFFFFFFFFFFFFFFFFFFFFFFFFFFFF AND PUSH1 0x1 PUSH1 0x0 SWAP1 SLOAD SWAP1 PUSH2 0x100 EXP SWAP1 DIV PUSH20 0xFFFFFFFFFFFFFFFFFFFFFFFFFFFFFFFFFFFFFFFF AND PUSH20 0xFFFFFFFFFFFFFFFFFFFFFFFFFFFFFFFFFFFFFFFF AND PUSH4 0x4AAF4A12 DUP9 PUSH1 0x40 MLOAD DUP3 PUSH4 0xFFFFFFFF AND PUSH1 0xE0 SHL DUP2 MSTORE PUSH1 0x4 ADD PUSH2 0x828 SWAP2 SWAP1 PUSH2 0x1E3F JUMP JUMPDEST PUSH1 0x20 PUSH1 0x40 MLOAD DUP1 DUP4 SUB DUP2 DUP7 GAS STATICCALL ISZERO DUP1 ISZERO PUSH2 0x845 JUMPI RETURNDATASIZE PUSH1 0x0 DUP1 RETURNDATACOPY RETURNDATASIZE PUSH1 0x0 REVERT JUMPDEST POP POP POP POP PUSH1 0x40 MLOAD RETURNDATASIZE PUSH1 0x1F NOT PUSH1 0x1F DUP3 ADD AND DUP3 ADD DUP1 PUSH1 0x40 MSTORE POP DUP2 ADD SWAP1 PUSH2 0x869 SWAP2 SWAP1 PUSH2 0x1E76 JUMP JUMPDEST PUSH20 0xFFFFFFFFFFFFFFFFFFFFFFFFFFFFFFFFFFFFFFFF AND EQ PUSH2 0x8BF JUMPI PUSH1 0x40 MLOAD PUSH32 0x8C379A000000000000000000000000000000000000000000000000000000000 DUP2 MSTORE PUSH1 0x4 ADD PUSH2 0x8B6 SWAP1 PUSH2 0x1EEF JUMP JUMPDEST PUSH1 0x40 MLOAD DUP1 SWAP2 SUB SWAP1 REVERT JUMPDEST PUSH1 0x0 DUP1 DUP8 PUSH1 0x40 MLOAD PUSH2 0x8D0 SWAP2 SWAP1 PUSH2 0x1F4B JUMP JUMPDEST SWAP1 DUP2 MSTORE PUSH1 0x20 ADD PUSH1 0x40 MLOAD DUP1 SWAP2 SUB SWAP1 KECCAK256 PUSH1 0x0 DUP8 PUSH20 0xFFFFFFFFFFFFFFFFFFFFFFFFFFFFFFFFFFFFFFFF AND PUSH20 0xFFFFFFFFFFFFFFFFFFFFFFFFFFFFFFFFFFFFFFFF AND DUP2 MSTORE PUSH1 0x20 ADD SWAP1 DUP2 MSTORE PUSH1 0x20 ADD PUSH1 0x0 KECCAK256 DUP6 DUP2 SLOAD DUP2 LT PUSH2 0x92D JUMPI PUSH2 0x92C PUSH2 0x1FC2 JUMP JUMPDEST JUMPDEST SWAP1 PUSH1 0x0 MSTORE PUSH1 0x20 PUSH1 0x0 KECCAK256 SWAP1 PUSH1 0x4 MUL ADD PUSH1 0x40 MLOAD DUP1 PUSH1 0x80 ADD PUSH1 0x40 MSTORE SWAP1 DUP2 PUSH1 0x0 DUP3 ADD DUP1 SLOAD PUSH2 0x956 SWAP1 PUSH2 0x1F91 JUMP JUMPDEST DUP1 PUSH1 0x1F ADD PUSH1 0x20 DUP1 SWAP2 DIV MUL PUSH1 0x20 ADD PUSH1 0x40 MLOAD SWAP1 DUP2 ADD PUSH1 0x40 MSTORE DUP1 SWAP3 SWAP2 SWAP1 DUP2 DUP2 MSTORE PUSH1 0x20 ADD DUP3 DUP1 SLOAD PUSH2 0x982 SWAP1 PUSH2 0x1F91 JUMP JUMPDEST DUP1 ISZERO PUSH2 0x9CF JUMPI DUP1 PUSH1 0x1F LT PUSH2 0x9A4 JUMPI PUSH2 0x100 DUP1 DUP4 SLOAD DIV MUL DUP4 MSTORE SWAP2 PUSH1 0x20 ADD SWAP2 PUSH2 0x9CF JUMP JUMPDEST DUP3 ADD SWAP2 SWAP1 PUSH1 0x0 MSTORE PUSH1 0x20 PUSH1 0x0 KECCAK256 SWAP1 JUMPDEST DUP2 SLOAD DUP2 MSTORE SWAP1 PUSH1 0x1 ADD SWAP1 PUSH1 0x20 ADD DUP1 DUP4 GT PUSH2 0x9B2 JUMPI DUP3 SWAP1 SUB PUSH1 0x1F AND DUP3 ADD SWAP2 JUMPDEST POP POP POP POP POP DUP2 MSTORE PUSH1 0x20 ADD PUSH1 0x1 DUP3 ADD DUP1 SLOAD PUSH2 0x9E8 SWAP1 PUSH2 0x1F91 JUMP JUMPDEST DUP1 PUSH1 0x1F ADD PUSH1 0x20 DUP1 SWAP2 DIV MUL PUSH1 0x20 ADD PUSH1 0x40 MLOAD SWAP1 DUP2 ADD PUSH1 0x40 MSTORE DUP1 SWAP3 SWAP2 SWAP1 DUP2 DUP2 MSTORE PUSH1 0x20 ADD DUP3 DUP1 SLOAD PUSH2 0xA14 SWAP1 PUSH2 0x1F91 JUMP JUMPDEST DUP1 ISZERO PUSH2 0xA61 JUMPI DUP1 PUSH1 0x1F LT PUSH2 0xA36 JUMPI PUSH2 0x100 DUP1 DUP4 SLOAD DIV MUL DUP4 MSTORE SWAP2 PUSH1 0x20 ADD SWAP2 PUSH2 0xA61 JUMP JUMPDEST DUP3 ADD SWAP2 SWAP1 PUSH1 0x0 MSTORE PUSH1 0x20 PUSH1 0x0 KECCAK256 SWAP1 JUMPDEST DUP2 SLOAD DUP2 MSTORE SWAP1 PUSH1 0x1 ADD SWAP1 PUSH1 0x20 ADD DUP1 DUP4 GT PUSH2 0xA44 JUMPI DUP3 SWAP1 SUB PUSH1 0x1F AND DUP3 ADD SWAP2 JUMPDEST POP POP POP POP POP DUP2 MSTORE PUSH1 0x20 ADD PUSH1 0x2 DUP3 ADD DUP1 SLOAD PUSH2 0xA7A SWAP1 PUSH2 0x1F91 JUMP JUMPDEST DUP1 PUSH1 0x1F ADD PUSH1 0x20 DUP1 SWAP2 DIV MUL PUSH1 0x20 ADD PUSH1 0x40 MLOAD SWAP1 DUP2 ADD PUSH1 0x40 MSTORE DUP1 SWAP3 SWAP2 SWAP1 DUP2 DUP2 MSTORE PUSH1 0x20 ADD DUP3 DUP1 SLOAD PUSH2 0xAA6 SWAP1 PUSH2 0x1F91 JUMP JUMPDEST DUP1 ISZERO PUSH2 0xAF3 JUMPI DUP1 PUSH1 0x1F LT PUSH2 0xAC8 JUMPI PUSH2 0x100 DUP1 DUP4 SLOAD DIV MUL DUP4 MSTORE SWAP2 PUSH1 0x20 ADD SWAP2 PUSH2 0xAF3 JUMP JUMPDEST DUP3 ADD SWAP2 SWAP1 PUSH1 0x0 MSTORE PUSH1 0x20 PUSH1 0x0 KECCAK256 SWAP1 JUMPDEST DUP2 SLOAD DUP2 MSTORE SWAP1 PUSH1 0x1 ADD SWAP1 PUSH1 0x20 ADD DUP1 DUP4 GT PUSH2 0xAD6 JUMPI DUP3 SWAP1 SUB PUSH1 0x1F AND DUP3 ADD SWAP2 JUMPDEST POP POP POP POP POP DUP2 MSTORE PUSH1 0x20 ADD PUSH1 0x3 DUP3 ADD SLOAD DUP2 MSTORE POP POP SWAP1 POP DUP1 PUSH1 0x0 ADD MLOAD DUP2 PUSH1 0x20 ADD MLOAD DUP3 PUSH1 0x60 ADD MLOAD SWAP4 POP SWAP4 POP SWAP4 POP POP SWAP4 POP SWAP4 POP SWAP4 SWAP1 POP JUMP JUMPDEST PUSH1 0x0 DUP4 DUP1 MLOAD PUSH1 0x20 DUP2 ADD DUP3 ADD DUP1 MLOAD DUP5 DUP3 MSTORE PUSH1 0x20 DUP4 ADD PUSH1 0x20 DUP6 ADD KECCAK256 DUP2 DUP4 MSTORE DUP1 SWAP6 POP POP POP POP POP POP PUSH1 0x20 MSTORE DUP2 PUSH1 0x0 MSTORE PUSH1 0x40 PUSH1 0x0 KECCAK256 DUP2 DUP2 SLOAD DUP2 LT PUSH2 0xB65 JUMPI PUSH1 0x0 DUP1 REVERT JUMPDEST SWAP1 PUSH1 0x0 MSTORE PUSH1 0x20 PUSH1 0x0 KECCAK256 SWAP1 PUSH1 0x4 MUL ADD PUSH1 0x0 SWAP3 POP SWAP3 POP POP POP DUP1 PUSH1 0x0 ADD DUP1 SLOAD PUSH2 0xB8A SWAP1 PUSH2 0x1F91 JUMP JUMPDEST DUP1 PUSH1 0x1F ADD PUSH1 0x20 DUP1 SWAP2 DIV MUL PUSH1 0x20 ADD PUSH1 0x40 MLOAD SWAP1 DUP2 ADD PUSH1 0x40 MSTORE DUP1 SWAP3 SWAP2 SWAP1 DUP2 DUP2 MSTORE PUSH1 0x20 ADD DUP3 DUP1 SLOAD PUSH2 0xBB6 SWAP1 PUSH2 0x1F91 JUMP JUMPDEST DUP1 ISZERO PUSH2 0xC03 JUMPI DUP1 PUSH1 0x1F LT PUSH2 0xBD8 JUMPI PUSH2 0x100 DUP1 DUP4 SLOAD DIV MUL DUP4 MSTORE SWAP2 PUSH1 0x20 ADD SWAP2 PUSH2 0xC03 JUMP JUMPDEST DUP3 ADD SWAP2 SWAP1 PUSH1 0x0 MSTORE PUSH1 0x20 PUSH1 0x0 KECCAK256 SWAP1 JUMPDEST DUP2 SLOAD DUP2 MSTORE SWAP1 PUSH1 0x1 ADD SWAP1 PUSH1 0x20 ADD DUP1 DUP4 GT PUSH2 0xBE6 JUMPI DUP3 SWAP1 SUB PUSH1 0x1F AND DUP3 ADD SWAP2 JUMPDEST POP POP POP POP POP SWAP1 DUP1 PUSH1 0x1 ADD DUP1 SLOAD PUSH2 0xC18 SWAP1 PUSH2 0x1F91 JUMP JUMPDEST DUP1 PUSH1 0x1F ADD PUSH1 0x20 DUP1 SWAP2 DIV MUL PUSH1 0x20 ADD PUSH1 0x40 MLOAD SWAP1 DUP2 ADD PUSH1 0x40 MSTORE DUP1 SWAP3 SWAP2 SWAP1 DUP2 DUP2 MSTORE PUSH1 0x20 ADD DUP3 DUP1 SLOAD PUSH2 0xC44 SWAP1 PUSH2 0x1F91 JUMP JUMPDEST DUP1 ISZERO PUSH2 0xC91 JUMPI DUP1 PUSH1 0x1F LT PUSH2 0xC66 JUMPI PUSH2 0x100 DUP1 DUP4 SLOAD DIV MUL DUP4 MSTORE SWAP2 PUSH1 0x20 ADD SWAP2 PUSH2 0xC91 JUMP JUMPDEST DUP3 ADD SWAP2 SWAP1 PUSH1 0x0 MSTORE PUSH1 0x20 PUSH1 0x0 KECCAK256 SWAP1 JUMPDEST DUP2 SLOAD DUP2 MSTORE SWAP1 PUSH1 0x1 ADD SWAP1 PUSH1 0x20 ADD DUP1 DUP4 GT PUSH2 0xC74 JUMPI DUP3 SWAP1 SUB PUSH1 0x1F AND DUP3 ADD SWAP2 JUMPDEST POP POP POP POP POP SWAP1 DUP1 PUSH1 0x2 ADD DUP1 SLOAD PUSH2 0xCA6 SWAP1 PUSH2 0x1F91 JUMP JUMPDEST DUP1 PUSH1 0x1F ADD PUSH1 0x20 DUP1 SWAP2 DIV MUL PUSH1 0x20 ADD PUSH1 0x40 MLOAD SWAP1 DUP2 ADD PUSH1 0x40 MSTORE DUP1 SWAP3 SWAP2 SWAP1 DUP2 DUP2 MSTORE PUSH1 0x20 ADD DUP3 DUP1 SLOAD PUSH2 0xCD2 SWAP1 PUSH2 0x1F91 JUMP JUMPDEST DUP1 ISZERO PUSH2 0xD1F JUMPI DUP1 PUSH1 0x1F LT PUSH2 0xCF4 JUMPI PUSH2 0x100 DUP1 DUP4 SLOAD DIV MUL DUP4 MSTORE SWAP2 PUSH1 0x20 ADD SWAP2 PUSH2 0xD1F JUMP JUMPDEST DUP3 ADD SWAP2 SWAP1 PUSH1 0x0 MSTORE PUSH1 0x20 PUSH1 0x0 KECCAK256 SWAP1 JUMPDEST DUP2 SLOAD DUP2 MSTORE SWAP1 PUSH1 0x1 ADD SWAP1 PUSH1 0x20 ADD DUP1 DUP4 GT PUSH2 0xD02 JUMPI DUP3 SWAP1 SUB PUSH1 0x1F AND DUP3 ADD SWAP2 JUMPDEST POP POP POP POP POP SWAP1 DUP1 PUSH1 0x3 ADD SLOAD SWAP1 POP DUP5 JUMP JUMPDEST PUSH1 0x1 PUSH1 0x0 SWAP1 SLOAD SWAP1 PUSH2 0x100 EXP SWAP1 DIV PUSH20 0xFFFFFFFFFFFFFFFFFFFFFFFFFFFFFFFFFFFFFFFF AND DUP2 JUMP JUMPDEST PUSH1 0x0 DUP11 DUP10 DUP7 PUSH1 0x40 MLOAD PUSH1 0x20 ADD PUSH2 0xD6C SWAP4 SWAP3 SWAP2 SWAP1 PUSH2 0x2012 JUMP JUMPDEST PUSH1 0x40 MLOAD PUSH1 0x20 DUP2 DUP4 SUB SUB DUP2 MSTORE SWAP1 PUSH1 0x40 MSTORE DUP1 MLOAD SWAP1 PUSH1 0x20 ADD KECCAK256 SWAP1 POP PUSH1 0x0 DUP2 PUSH1 0x40 MLOAD PUSH1 0x20 ADD PUSH2 0xD97 SWAP2 SWAP1 PUSH2 0x20B4 JUMP JUMPDEST PUSH1 0x40 MLOAD PUSH1 0x20 DUP2 DUP4 SUB SUB DUP2 MSTORE SWAP1 PUSH1 0x40 MSTORE DUP1 MLOAD SWAP1 PUSH1 0x20 ADD KECCAK256 SWAP1 POP PUSH1 0x0 PUSH1 0x1 DUP3 DUP8 DUP8 DUP8 PUSH1 0x40 MLOAD PUSH1 0x0 DUP2 MSTORE PUSH1 0x20 ADD PUSH1 0x40 MSTORE PUSH1 0x40 MLOAD PUSH2 0xDD4 SWAP5 SWAP4 SWAP3 SWAP2 SWAP1 PUSH2 0x20F8 JUMP JUMPDEST PUSH1 0x20 PUSH1 0x40 MLOAD PUSH1 0x20 DUP2 SUB SWAP1 DUP1 DUP5 SUB SWAP1 DUP6 GAS STATICCALL ISZERO DUP1 ISZERO PUSH2 0xDF6 JUMPI RETURNDATASIZE PUSH1 0x0 DUP1 RETURNDATACOPY RETURNDATASIZE PUSH1 0x0 REVERT JUMPDEST POP POP POP PUSH1 0x20 PUSH1 0x40 MLOAD SUB MLOAD SWAP1 POP PUSH1 0x0 PUSH20 0xFFFFFFFFFFFFFFFFFFFFFFFFFFFFFFFFFFFFFFFF AND DUP2 PUSH20 0xFFFFFFFFFFFFFFFFFFFFFFFFFFFFFFFFFFFFFFFF AND SUB PUSH2 0xE71 JUMPI PUSH1 0x40 MLOAD PUSH32 0x8C379A000000000000000000000000000000000000000000000000000000000 DUP2 MSTORE PUSH1 0x4 ADD PUSH2 0xE68 SWAP1 PUSH2 0x2189 JUMP JUMPDEST PUSH1 0x40 MLOAD DUP1 SWAP2 SUB SWAP1 REVERT JUMPDEST DUP7 TIMESTAMP GT ISZERO PUSH2 0xEB4 JUMPI PUSH1 0x40 MLOAD PUSH32 0x8C379A000000000000000000000000000000000000000000000000000000000 DUP2 MSTORE PUSH1 0x4 ADD PUSH2 0xEAB SWAP1 PUSH2 0x21F5 JUMP JUMPDEST PUSH1 0x40 MLOAD DUP1 SWAP2 SUB SWAP1 REVERT JUMPDEST PUSH1 0x40 MLOAD DUP1 PUSH1 0x40 ADD PUSH1 0x40 MSTORE DUP1 PUSH1 0x6 DUP2 MSTORE PUSH1 0x20 ADD PUSH32 0x74656E6465720000000000000000000000000000000000000000000000000000 DUP2 MSTORE POP DUP1 MLOAD SWAP1 PUSH1 0x20 ADD KECCAK256 DUP11 DUP1 MLOAD SWAP1 PUSH1 0x20 ADD KECCAK256 SUB PUSH2 0xFDC JUMPI PUSH1 0x1 PUSH1 0x0 SWAP1 SLOAD SWAP1 PUSH2 0x100 EXP SWAP1 DIV PUSH20 0xFFFFFFFFFFFFFFFFFFFFFFFFFFFFFFFFFFFFFFFF AND PUSH20 0xFFFFFFFFFFFFFFFFFFFFFFFFFFFFFFFFFFFFFFFF AND PUSH4 0x4756331E DUP15 DUP4 PUSH1 0x40 MLOAD DUP4 PUSH4 0xFFFFFFFF AND PUSH1 0xE0 SHL DUP2 MSTORE PUSH1 0x4 ADD PUSH2 0xF5B SWAP3 SWAP2 SWAP1 PUSH2 0x2224 JUMP JUMPDEST PUSH1 0x20 PUSH1 0x40 MLOAD DUP1 DUP4 SUB DUP2 DUP7 GAS STATICCALL ISZERO DUP1 ISZERO PUSH2 0xF78 JUMPI RETURNDATASIZE PUSH1 0x0 DUP1 RETURNDATACOPY RETURNDATASIZE PUSH1 0x0 REVERT JUMPDEST POP POP POP POP PUSH1 0x40 MLOAD RETURNDATASIZE PUSH1 0x1F NOT PUSH1 0x1F DUP3 ADD AND DUP3 ADD DUP1 PUSH1 0x40 MSTORE POP DUP2 ADD SWAP1 PUSH2 0xF9C SWAP2 SWAP1 PUSH2 0x228C JUMP JUMPDEST PUSH2 0xFDB JUMPI PUSH1 0x40 MLOAD PUSH32 0x8C379A000000000000000000000000000000000000000000000000000000000 DUP2 MSTORE PUSH1 0x4 ADD PUSH2 0xFD2 SWAP1 PUSH2 0x232B JUMP JUMPDEST PUSH1 0x40 MLOAD DUP1 SWAP2 SUB SWAP1 REVERT JUMPDEST JUMPDEST PUSH1 0x0 PUSH1 0x40 MLOAD DUP1 PUSH1 0x80 ADD PUSH1 0x40 MSTORE DUP1 DUP15 DUP2 MSTORE PUSH1 0x20 ADD DUP14 DUP2 MSTORE PUSH1 0x20 ADD DUP13 DUP2 MSTORE PUSH1 0x20 ADD TIMESTAMP DUP2 MSTORE POP SWAP1 POP PUSH1 0x0 DUP15 PUSH1 0x40 MLOAD PUSH2 0x1011 SWAP2 SWAP1 PUSH2 0x1F4B JUMP JUMPDEST SWAP1 DUP2 MSTORE PUSH1 0x20 ADD PUSH1 0x40 MLOAD DUP1 SWAP2 SUB SWAP1 KECCAK256 PUSH1 0x0 DUP4 PUSH20 0xFFFFFFFFFFFFFFFFFFFFFFFFFFFFFFFFFFFFFFFF AND PUSH20 0xFFFFFFFFFFFFFFFFFFFFFFFFFFFFFFFFFFFFFFFF AND DUP2 MSTORE PUSH1 0x20 ADD SWAP1 DUP2 MSTORE PUSH1 0x20 ADD PUSH1 0x0 KECCAK256 DUP2 SWAP1 DUP1 PUSH1 0x1 DUP2 SLOAD ADD DUP1 DUP3 SSTORE DUP1 SWAP2 POP POP PUSH1 0x1 SWAP1 SUB SWAP1 PUSH1 0x0 MSTORE PUSH1 0x20 PUSH1 0x0 KECCAK256 SWAP1 PUSH1 0x4 MUL ADD PUSH1 0x0 SWAP1 SWAP2 SWAP1 SWAP2 SWAP1 SWAP2 POP PUSH1 0x0 DUP3 ADD MLOAD DUP2 PUSH1 0x0 ADD SWAP1 DUP2 PUSH2 0x109B SWAP2 SWAP1 PUSH2 0x24ED JUMP JUMPDEST POP PUSH1 0x20 DUP3 ADD MLOAD DUP2 PUSH1 0x1 ADD SWAP1 DUP2 PUSH2 0x10B1 SWAP2 SWAP1 PUSH2 0x24ED JUMP JUMPDEST POP PUSH1 0x40 DUP3 ADD MLOAD DUP2 PUSH1 0x2 ADD SWAP1 DUP2 PUSH2 0x10C7 SWAP2 SWAP1 PUSH2 0x24ED JUMP JUMPDEST POP PUSH1 0x60 DUP3 ADD MLOAD DUP2 PUSH1 0x3 ADD SSTORE POP POP PUSH1 0x1 PUSH1 0x0 SWAP1 SLOAD SWAP1 PUSH2 0x100 EXP SWAP1 DIV PUSH20 0xFFFFFFFFFFFFFFFFFFFFFFFFFFFFFFFFFFFFFFFF AND PUSH20 0xFFFFFFFFFFFFFFFFFFFFFFFFFFFFFFFFFFFFFFFF AND PUSH4 0x4756331E DUP16 DUP5 PUSH1 0x40 MLOAD DUP4 PUSH4 0xFFFFFFFF AND PUSH1 0xE0 SHL DUP2 MSTORE PUSH1 0x4 ADD PUSH2 0x1131 SWAP3 SWAP2 SWAP1 PUSH2 0x2224 JUMP JUMPDEST PUSH1 0x20 PUSH1 0x40 MLOAD DUP1 DUP4 SUB DUP2 DUP7 GAS STATICCALL ISZERO DUP1 ISZERO PUSH2 0x114E JUMPI RETURNDATASIZE PUSH1 0x0 DUP1 RETURNDATACOPY RETURNDATASIZE PUSH1 0x0 REVERT JUMPDEST POP POP POP POP PUSH1 0x40 MLOAD RETURNDATASIZE PUSH1 0x1F NOT PUSH1 0x1F DUP3 ADD AND DUP3 ADD DUP1 PUSH1 0x40 MSTORE POP DUP2 ADD SWAP1 PUSH2 0x1172 SWAP2 SWAP1 PUSH2 0x228C JUMP JUMPDEST ISZERO DUP1 ISZERO PUSH2 0x121A JUMPI POP PUSH1 0x1 PUSH1 0x0 SWAP1 SLOAD SWAP1 PUSH2 0x100 EXP SWAP1 DIV PUSH20 0xFFFFFFFFFFFFFFFFFFFFFFFFFFFFFFFFFFFFFFFF AND PUSH20 0xFFFFFFFFFFFFFFFFFFFFFFFFFFFFFFFFFFFFFFFF AND PUSH4 0xE4AFD7C0 DUP16 DUP5 PUSH1 0x40 MLOAD DUP4 PUSH4 0xFFFFFFFF AND PUSH1 0xE0 SHL DUP2 MSTORE PUSH1 0x4 ADD PUSH2 0x11D7 SWAP3 SWAP2 SWAP1 PUSH2 0x2224 JUMP JUMPDEST PUSH1 0x20 PUSH1 0x40 MLOAD DUP1 DUP4 SUB DUP2 DUP7 GAS STATICCALL ISZERO DUP1 ISZERO PUSH2 0x11F4 JUMPI RETURNDATASIZE PUSH1 0x0 DUP1 RETURNDATACOPY RETURNDATASIZE PUSH1 0x0 REVERT JUMPDEST POP POP POP POP PUSH1 0x40 MLOAD RETURNDATASIZE PUSH1 0x1F NOT PUSH1 0x1F DUP3 ADD AND DUP3 ADD DUP1 PUSH1 0x40 MSTORE POP DUP2 ADD SWAP1 PUSH2 0x1218 SWAP2 SWAP1 PUSH2 0x228C JUMP JUMPDEST ISZERO JUMPDEST ISZERO PUSH2 0x12B3 JUMPI PUSH1 0x1 PUSH1 0x0 SWAP1 SLOAD SWAP1 PUSH2 0x100 EXP SWAP1 DIV PUSH20 0xFFFFFFFFFFFFFFFFFFFFFFFFFFFFFFFFFFFFFFFF AND PUSH20 0xFFFFFFFFFFFFFFFFFFFFFFFFFFFFFFFFFFFFFFFF AND PUSH4 0x61FF435 DUP16 DUP13 DUP13 DUP7 PUSH1 0x40 MLOAD DUP6 PUSH4 0xFFFFFFFF AND PUSH1 0xE0 SHL DUP2 MSTORE PUSH1 0x4 ADD PUSH2 0x1280 SWAP5 SWAP4 SWAP3 SWAP2 SWAP1 PUSH2 0x25BF JUMP JUMPDEST PUSH1 0x0 PUSH1 0x40 MLOAD DUP1 DUP4 SUB DUP2 PUSH1 0x0 DUP8 DUP1 EXTCODESIZE ISZERO DUP1 ISZERO PUSH2 0x129A JUMPI PUSH1 0x0 DUP1 REVERT JUMPDEST POP GAS CALL ISZERO DUP1 ISZERO PUSH2 0x12AE JUMPI RETURNDATASIZE PUSH1 0x0 DUP1 RETURNDATACOPY RETURNDATASIZE PUSH1 0x0 REVERT JUMPDEST POP POP POP POP JUMPDEST DUP2 PUSH20 0xFFFFFFFFFFFFFFFFFFFFFFFFFFFFFFFFFFFFFFFF AND DUP15 PUSH1 0x40 MLOAD PUSH2 0x12D8 SWAP2 SWAP1 PUSH2 0x1F4B JUMP JUMPDEST PUSH1 0x40 MLOAD DUP1 SWAP2 SUB SWAP1 KECCAK256 PUSH32 0x963EC0AD3D85928F4A4DF0B4AD4EAB4FEA9A19714ADEEA20C726ACD664544C44 DUP16 DUP16 TIMESTAMP PUSH1 0x40 MLOAD PUSH2 0x1313 SWAP4 SWAP3 SWAP2 SWAP1 PUSH2 0x1AD4 JUMP JUMPDEST PUSH1 0x40 MLOAD DUP1 SWAP2 SUB SWAP1 LOG3 POP POP POP POP POP POP POP POP POP POP POP POP POP POP JUMP JUMPDEST PUSH1 0x60 DUP1 PUSH1 0x0 DUP1 PUSH1 0x0 DUP7 PUSH1 0x40 MLOAD PUSH2 0x1341 SWAP2 SWAP1 PUSH2 0x1F4B JUMP JUMPDEST SWAP1 DUP2 MSTORE PUSH1 0x20 ADD PUSH1 0x40 MLOAD DUP1 SWAP2 SUB SWAP1 KECCAK256 PUSH1 0x0 CALLER PUSH20 0xFFFFFFFFFFFFFFFFFFFFFFFFFFFFFFFFFFFFFFFF AND PUSH20 0xFFFFFFFFFFFFFFFFFFFFFFFFFFFFFFFFFFFFFFFF AND DUP2 MSTORE PUSH1 0x20 ADD SWAP1 DUP2 MSTORE PUSH1 0x20 ADD PUSH1 0x0 KECCAK256 DUP6 DUP2 SLOAD DUP2 LT PUSH2 0x139E JUMPI PUSH2 0x139D PUSH2 0x1FC2 JUMP JUMPDEST JUMPDEST SWAP1 PUSH1 0x0 MSTORE PUSH1 0x20 PUSH1 0x0 KECCAK256 SWAP1 PUSH1 0x4 MUL ADD PUSH1 0x40 MLOAD DUP1 PUSH1 0x80 ADD PUSH1 0x40 MSTORE SWAP1 DUP2 PUSH1 0x0 DUP3 ADD DUP1 SLOAD PUSH2 0x13C7 SWAP1 PUSH2 0x1F91 JUMP JUMPDEST DUP1 PUSH1 0x1F ADD PUSH1 0x20 DUP1 SWAP2 DIV MUL PUSH1 0x20 ADD PUSH1 0x40 MLOAD SWAP1 DUP2 ADD PUSH1 0x40 MSTORE DUP1 SWAP3 SWAP2 SWAP1 DUP2 DUP2 MSTORE PUSH1 0x20 ADD DUP3 DUP1 SLOAD PUSH2 0x13F3 SWAP1 PUSH2 0x1F91 JUMP JUMPDEST DUP1 ISZERO PUSH2 0x1440 JUMPI DUP1 PUSH1 0x1F LT PUSH2 0x1415 JUMPI PUSH2 0x100 DUP1 DUP4 SLOAD DIV MUL DUP4 MSTORE SWAP2 PUSH1 0x20 ADD SWAP2 PUSH2 0x1440 JUMP JUMPDEST DUP3 ADD SWAP2 SWAP1 PUSH1 0x0 MSTORE PUSH1 0x20 PUSH1 0x0 KECCAK256 SWAP1 JUMPDEST DUP2 SLOAD DUP2 MSTORE SWAP1 PUSH1 0x1 ADD SWAP1 PUSH1 0x20 ADD DUP1 DUP4 GT PUSH2 0x1423 JUMPI DUP3 SWAP1 SUB PUSH1 0x1F AND DUP3 ADD SWAP2 JUMPDEST POP POP POP POP POP DUP2 MSTORE PUSH1 0x20 ADD PUSH1 0x1 DUP3 ADD DUP1 SLOAD PUSH2 0x1459 SWAP1 PUSH2 0x1F91 JUMP JUMPDEST DUP1 PUSH1 0x1F ADD PUSH1 0x20 DUP1 SWAP2 DIV MUL PUSH1 0x20 ADD PUSH1 0x40 MLOAD SWAP1 DUP2 ADD PUSH1 0x40 MSTORE DUP1 SWAP3 SWAP2 SWAP1 DUP2 DUP2 MSTORE PUSH1 0x20 ADD DUP3 DUP1 SLOAD PUSH2 0x1485 SWAP1 PUSH2 0x1F91 JUMP JUMPDEST DUP1 ISZERO PUSH2 0x14D2 JUMPI DUP1 PUSH1 0x1F LT PUSH2 0x14A7 JUMPI PUSH2 0x100 DUP1 DUP4 SLOAD DIV MUL DUP4 MSTORE SWAP2 PUSH1 0x20 ADD SWAP2 PUSH2 0x14D2 JUMP JUMPDEST DUP3 ADD SWAP2 SWAP1 PUSH1 0x0 MSTORE PUSH1 0x20 PUSH1 0x0 KECCAK256 SWAP1 JUMPDEST DUP2 SLOAD DUP2 MSTORE SWAP1 PUSH1 0x1 ADD SWAP1 PUSH1 0x20 ADD DUP1 DUP4 GT PUSH2 0x14B5 JUMPI DUP3 SWAP1 SUB PUSH1 0x1F AND DUP3 ADD SWAP2 JUMPDEST POP POP POP POP POP DUP2 MSTORE PUSH1 0x20 ADD PUSH1 0x2 DUP3 ADD DUP1 SLOAD PUSH2 0x14EB SWAP1 PUSH2 0x1F91 JUMP JUMPDEST DUP1 PUSH1 0x1F ADD PUSH1 0x20 DUP1 SWAP2 DIV MUL PUSH1 0x20 ADD PUSH1 0x40 MLOAD SWAP1 DUP2 ADD PUSH1 0x40 MSTORE DUP1 SWAP3 SWAP2 SWAP1 DUP2 DUP2 MSTORE PUSH1 0x20 ADD DUP3 DUP1 SLOAD PUSH2 0x1517 SWAP1 PUSH2 0x1F91 JUMP JUMPDEST DUP1 ISZERO PUSH2 0x1564 JUMPI DUP1 PUSH1 0x1F LT PUSH2 0x1539 JUMPI PUSH2 0x100 DUP1 DUP4 SLOAD DIV MUL DUP4 MSTORE SWAP2 PUSH1 0x20 ADD SWAP2 PUSH2 0x1564 JUMP JUMPDEST DUP3 ADD SWAP2 SWAP1 PUSH1 0x0 MSTORE PUSH1 0x20 PUSH1 0x0 KECCAK256 SWAP1 JUMPDEST DUP2 SLOAD DUP2 MSTORE SWAP1 PUSH1 0x1 ADD SWAP1 PUSH1 0x20 ADD DUP1 DUP4 GT PUSH2 0x1547 JUMPI DUP3 SWAP1 SUB PUSH1 0x1F AND DUP3 ADD SWAP2 JUMPDEST POP POP POP POP POP DUP2 MSTORE PUSH1 0x20 ADD PUSH1 0x3 DUP3 ADD SLOAD DUP2 MSTORE POP POP SWAP1 POP DUP1 PUSH1 0x0 ADD MLOAD DUP2 PUSH1 0x20 ADD MLOAD DUP3 PUSH1 0x60 ADD MLOAD SWAP4 POP SWAP4 POP SWAP4 POP POP SWAP3 POP SWAP3 POP SWAP3 JUMP JUMPDEST PUSH1 0x0 PUSH1 0x40 MLOAD SWAP1 POP SWAP1 JUMP JUMPDEST PUSH1 0x0 DUP1 REVERT JUMPDEST PUSH1 0x0 DUP1 REVERT JUMPDEST PUSH1 0x0 DUP1 REVERT JUMPDEST PUSH1 0x0 DUP1 REVERT JUMPDEST PUSH1 0x0 PUSH1 0x1F NOT PUSH1 0x1F DUP4 ADD AND SWAP1 POP SWAP2 SWAP1 POP JUMP JUMPDEST PUSH32 0x4E487B7100000000000000000000000000000000000000000000000000000000 PUSH1 0x0 MSTORE PUSH1 0x41 PUSH1 0x4 MSTORE PUSH1 0x24 PUSH1 0x0 REVERT JUMPDEST PUSH2 0x15FD DUP3 PUSH2 0x15B4 JUMP JUMPDEST DUP2 ADD DUP2 DUP2 LT PUSH8 0xFFFFFFFFFFFFFFFF DUP3 GT OR ISZERO PUSH2 0x161C JUMPI PUSH2 0x161B PUSH2 0x15C5 JUMP JUMPDEST JUMPDEST DUP1 PUSH1 0x40 MSTORE POP POP POP JUMP JUMPDEST PUSH1 0x0 PUSH2 0x162F PUSH2 0x1596 JUMP JUMPDEST SWAP1 POP PUSH2 0x163B DUP3 DUP3 PUSH2 0x15F4 JUMP JUMPDEST SWAP2 SWAP1 POP JUMP JUMPDEST PUSH1 0x0 PUSH8 0xFFFFFFFFFFFFFFFF DUP3 GT ISZERO PUSH2 0x165B JUMPI PUSH2 0x165A PUSH2 0x15C5 JUMP JUMPDEST JUMPDEST PUSH2 0x1664 DUP3 PUSH2 0x15B4 JUMP JUMPDEST SWAP1 POP PUSH1 0x20 DUP2 ADD SWAP1 POP SWAP2 SWAP1 POP JUMP JUMPDEST DUP3 DUP2 DUP4 CALLDATACOPY PUSH1 0x0 DUP4 DUP4 ADD MSTORE POP POP POP JUMP JUMPDEST PUSH1 0x0 PUSH2 0x1693 PUSH2 0x168E DUP5 PUSH2 0x1640 JUMP JUMPDEST PUSH2 0x1625 JUMP JUMPDEST SWAP1 POP DUP3 DUP2 MSTORE PUSH1 0x20 DUP2 ADD DUP5 DUP5 DUP5 ADD GT ISZERO PUSH2 0x16AF JUMPI PUSH2 0x16AE PUSH2 0x15AF JUMP JUMPDEST JUMPDEST PUSH2 0x16BA DUP5 DUP3 DUP6 PUSH2 0x1671 JUMP JUMPDEST POP SWAP4 SWAP3 POP POP POP JUMP JUMPDEST PUSH1 0x0 DUP3 PUSH1 0x1F DUP4 ADD SLT PUSH2 0x16D7 JUMPI PUSH2 0x16D6 PUSH2 0x15AA JUMP JUMPDEST JUMPDEST DUP2 CALLDATALOAD PUSH2 0x16E7 DUP5 DUP3 PUSH1 0x20 DUP7 ADD PUSH2 0x1680 JUMP JUMPDEST SWAP2 POP POP SWAP3 SWAP2 POP POP JUMP JUMPDEST PUSH1 0x0 PUSH20 0xFFFFFFFFFFFFFFFFFFFFFFFFFFFFFFFFFFFFFFFF DUP3 AND SWAP1 POP SWAP2 SWAP1 POP JUMP JUMPDEST PUSH1 0x0 PUSH2 0x171B DUP3 PUSH2 0x16F0 JUMP JUMPDEST SWAP1 POP SWAP2 SWAP1 POP JUMP JUMPDEST PUSH2 0x172B DUP2 PUSH2 0x1710 JUMP JUMPDEST DUP2 EQ PUSH2 0x1736 JUMPI PUSH1 0x0 DUP1 REVERT JUMPDEST POP JUMP JUMPDEST PUSH1 0x0 DUP2 CALLDATALOAD SWAP1 POP PUSH2 0x1748 DUP2 PUSH2 0x1722 JUMP JUMPDEST SWAP3 SWAP2 POP POP JUMP JUMPDEST PUSH1 0x0 DUP1 PUSH1 0x40 DUP4 DUP6 SUB SLT ISZERO PUSH2 0x1765 JUMPI PUSH2 0x1764 PUSH2 0x15A0 JUMP JUMPDEST JUMPDEST PUSH1 0x0 DUP4 ADD CALLDATALOAD PUSH8 0xFFFFFFFFFFFFFFFF DUP2 GT ISZERO PUSH2 0x1783 JUMPI PUSH2 0x1782 PUSH2 0x15A5 JUMP JUMPDEST JUMPDEST PUSH2 0x178F DUP6 DUP3 DUP7 ADD PUSH2 0x16C2 JUMP JUMPDEST SWAP3 POP POP PUSH1 0x20 PUSH2 0x17A0 DUP6 DUP3 DUP7 ADD PUSH2 0x1739 JUMP JUMPDEST SWAP2 POP POP SWAP3 POP SWAP3 SWAP1 POP JUMP JUMPDEST PUSH1 0x0 DUP2 MLOAD SWAP1 POP SWAP2 SWAP1 POP JUMP JUMPDEST PUSH1 0x0 DUP3 DUP3 MSTORE PUSH1 0x20 DUP3 ADD SWAP1 POP SWAP3 SWAP2 POP POP JUMP JUMPDEST PUSH1 0x0 DUP2 SWAP1 POP PUSH1 0x20 DUP3 ADD SWAP1 POP SWAP2 SWAP1 POP JUMP JUMPDEST PUSH1 0x0 DUP2 MLOAD SWAP1 POP SWAP2 SWAP1 POP JUMP JUMPDEST PUSH1 0x0 DUP3 DUP3 MSTORE PUSH1 0x20 DUP3 ADD SWAP1 POP SWAP3 SWAP2 POP POP JUMP JUMPDEST PUSH1 0x0 JUMPDEST DUP4 DUP2 LT ISZERO PUSH2 0x1810 JUMPI DUP1 DUP3 ADD MLOAD DUP2 DUP5 ADD MSTORE PUSH1 0x20 DUP2 ADD SWAP1 POP PUSH2 0x17F5 JUMP JUMPDEST PUSH1 0x0 DUP5 DUP5 ADD MSTORE POP POP POP POP JUMP JUMPDEST PUSH1 0x0 PUSH2 0x1827 DUP3 PUSH2 0x17D6 JUMP JUMPDEST PUSH2 0x1831 DUP2 DUP6 PUSH2 0x17E1 JUMP JUMPDEST SWAP4 POP PUSH2 0x1841 DUP2 DUP6 PUSH1 0x20 DUP7 ADD PUSH2 0x17F2 JUMP JUMPDEST PUSH2 0x184A DUP2 PUSH2 0x15B4 JUMP JUMPDEST DUP5 ADD SWAP2 POP POP SWAP3 SWAP2 POP POP JUMP JUMPDEST PUSH1 0x0 DUP2 SWAP1 POP SWAP2 SWAP1 POP JUMP JUMPDEST PUSH2 0x1868 DUP2 PUSH2 0x1855 JUMP JUMPDEST DUP3 MSTORE POP POP JUMP JUMPDEST PUSH1 0x0 PUSH1 0x80 DUP4 ADD PUSH1 0x0 DUP4 ADD MLOAD DUP5 DUP3 SUB PUSH1 0x0 DUP7 ADD MSTORE PUSH2 0x188B DUP3 DUP3 PUSH2 0x181C JUMP JUMPDEST SWAP2 POP POP PUSH1 0x20 DUP4 ADD MLOAD DUP5 DUP3 SUB PUSH1 0x20 DUP7 ADD MSTORE PUSH2 0x18A5 DUP3 DUP3 PUSH2 0x181C JUMP JUMPDEST SWAP2 POP POP PUSH1 0x40 DUP4 ADD MLOAD DUP5 DUP3 SUB PUSH1 0x40 DUP7 ADD MSTORE PUSH2 0x18BF DUP3 DUP3 PUSH2 0x181C JUMP JUMPDEST SWAP2 POP POP PUSH1 0x60 DUP4 ADD MLOAD PUSH2 0x18D4 PUSH1 0x60 DUP7 ADD DUP3 PUSH2 0x185F JUMP JUMPDEST POP DUP1 SWAP2 POP POP SWAP3 SWAP2 POP POP JUMP JUMPDEST PUSH1 0x0 PUSH2 0x18EB DUP4 DUP4 PUSH2 0x186E JUMP JUMPDEST SWAP1 POP SWAP3 SWAP2 POP POP JUMP JUMPDEST PUSH1 0x0 PUSH1 0x20 DUP3 ADD SWAP1 POP SWAP2 SWAP1 POP JUMP JUMPDEST PUSH1 0x0 PUSH2 0x190B DUP3 PUSH2 0x17AA JUMP JUMPDEST PUSH2 0x1915 DUP2 DUP6 PUSH2 0x17B5 JUMP JUMPDEST SWAP4 POP DUP4 PUSH1 0x20 DUP3 MUL DUP6 ADD PUSH2 0x1927 DUP6 PUSH2 0x17C6 JUMP JUMPDEST DUP1 PUSH1 0x0 JUMPDEST DUP6 DUP2 LT ISZERO PUSH2 0x1963 JUMPI DUP5 DUP5 SUB DUP10 MSTORE DUP2 MLOAD PUSH2 0x1944 DUP6 DUP3 PUSH2 0x18DF JUMP JUMPDEST SWAP5 POP PUSH2 0x194F DUP4 PUSH2 0x18F3 JUMP JUMPDEST SWAP3 POP PUSH1 0x20 DUP11 ADD SWAP10 POP POP PUSH1 0x1 DUP2 ADD SWAP1 POP PUSH2 0x192B JUMP JUMPDEST POP DUP3 SWAP8 POP DUP8 SWAP6 POP POP POP POP POP POP SWAP3 SWAP2 POP POP JUMP JUMPDEST PUSH1 0x0 PUSH1 0x20 DUP3 ADD SWAP1 POP DUP2 DUP2 SUB PUSH1 0x0 DUP4 ADD MSTORE PUSH2 0x198F DUP2 DUP5 PUSH2 0x1900 JUMP JUMPDEST SWAP1 POP SWAP3 SWAP2 POP POP JUMP JUMPDEST PUSH1 0x0 PUSH1 0x20 DUP3 DUP5 SUB SLT ISZERO PUSH2 0x19AD JUMPI PUSH2 0x19AC PUSH2 0x15A0 JUMP JUMPDEST JUMPDEST PUSH1 0x0 DUP3 ADD CALLDATALOAD PUSH8 0xFFFFFFFFFFFFFFFF DUP2 GT ISZERO PUSH2 0x19CB JUMPI PUSH2 0x19CA PUSH2 0x15A5 JUMP JUMPDEST JUMPDEST PUSH2 0x19D7 DUP5 DUP3 DUP6 ADD PUSH2 0x16C2 JUMP JUMPDEST SWAP2 POP POP SWAP3 SWAP2 POP POP JUMP JUMPDEST PUSH2 0x19E9 DUP2 PUSH2 0x1855 JUMP JUMPDEST DUP2 EQ PUSH2 0x19F4 JUMPI PUSH1 0x0 DUP1 REVERT JUMPDEST POP JUMP JUMPDEST PUSH1 0x0 DUP2 CALLDATALOAD SWAP1 POP PUSH2 0x1A06 DUP2 PUSH2 0x19E0 JUMP JUMPDEST SWAP3 SWAP2 POP POP JUMP JUMPDEST PUSH1 0x0 DUP1 PUSH1 0x0 PUSH1 0x60 DUP5 DUP7 SUB SLT ISZERO PUSH2 0x1A25 JUMPI PUSH2 0x1A24 PUSH2 0x15A0 JUMP JUMPDEST JUMPDEST PUSH1 0x0 DUP5 ADD CALLDATALOAD PUSH8 0xFFFFFFFFFFFFFFFF DUP2 GT ISZERO PUSH2 0x1A43 JUMPI PUSH2 0x1A42 PUSH2 0x15A5 JUMP JUMPDEST JUMPDEST PUSH2 0x1A4F DUP7 DUP3 DUP8 ADD PUSH2 0x16C2 JUMP JUMPDEST SWAP4 POP POP PUSH1 0x20 PUSH2 0x1A60 DUP7 DUP3 DUP8 ADD PUSH2 0x1739 JUMP JUMPDEST SWAP3 POP POP PUSH1 0x40 PUSH2 0x1A71 DUP7 DUP3 DUP8 ADD PUSH2 0x19F7 JUMP JUMPDEST SWAP2 POP POP SWAP3 POP SWAP3 POP SWAP3 JUMP JUMPDEST PUSH1 0x0 DUP3 DUP3 MSTORE PUSH1 0x20 DUP3 ADD SWAP1 POP SWAP3 SWAP2 POP POP JUMP JUMPDEST PUSH1 0x0 PUSH2 0x1A97 DUP3 PUSH2 0x17D6 JUMP JUMPDEST PUSH2 0x1AA1 DUP2 DUP6 PUSH2 0x1A7B JUMP JUMPDEST SWAP4 POP PUSH2 0x1AB1 DUP2 DUP6 PUSH1 0x20 DUP7 ADD PUSH2 0x17F2 JUMP JUMPDEST PUSH2 0x1ABA DUP2 PUSH2 0x15B4 JUMP JUMPDEST DUP5 ADD SWAP2 POP POP SWAP3 SWAP2 POP POP JUMP JUMPDEST PUSH2 0x1ACE DUP2 PUSH2 0x1855 JUMP JUMPDEST DUP3 MSTORE POP POP JUMP JUMPDEST PUSH1 0x0 PUSH1 0x60 DUP3 ADD SWAP1 POP DUP2 DUP2 SUB PUSH1 0x0 DUP4 ADD MSTORE PUSH2 0x1AEE DUP2 DUP7 PUSH2 0x1A8C JUMP JUMPDEST SWAP1 POP DUP2 DUP2 SUB PUSH1 0x20 DUP4 ADD MSTORE PUSH2 0x1B02 DUP2 DUP6 PUSH2 0x1A8C JUMP JUMPDEST SWAP1 POP PUSH2 0x1B11 PUSH1 0x40 DUP4 ADD DUP5 PUSH2 0x1AC5 JUMP JUMPDEST SWAP5 SWAP4 POP POP POP POP JUMP JUMPDEST PUSH1 0x0 PUSH1 0x80 DUP3 ADD SWAP1 POP DUP2 DUP2 SUB PUSH1 0x0 DUP4 ADD MSTORE PUSH2 0x1B33 DUP2 DUP8 PUSH2 0x1A8C JUMP JUMPDEST SWAP1 POP DUP2 DUP2 SUB PUSH1 0x20 DUP4 ADD MSTORE PUSH2 0x1B47 DUP2 DUP7 PUSH2 0x1A8C JUMP JUMPDEST SWAP1 POP DUP2 DUP2 SUB PUSH1 0x40 DUP4 ADD MSTORE PUSH2 0x1B5B DUP2 DUP6 PUSH2 0x1A8C JUMP JUMPDEST SWAP1 POP PUSH2 0x1B6A PUSH1 0x60 DUP4 ADD DUP5 PUSH2 0x1AC5 JUMP JUMPDEST SWAP6 SWAP5 POP POP POP POP POP JUMP JUMPDEST PUSH1 0x0 DUP2 SWAP1 POP SWAP2 SWAP1 POP JUMP JUMPDEST PUSH1 0x0 PUSH2 0x1B98 PUSH2 0x1B93 PUSH2 0x1B8E DUP5 PUSH2 0x16F0 JUMP JUMPDEST PUSH2 0x1B73 JUMP JUMPDEST PUSH2 0x16F0 JUMP JUMPDEST SWAP1 POP SWAP2 SWAP1 POP JUMP JUMPDEST PUSH1 0x0 PUSH2 0x1BAA DUP3 PUSH2 0x1B7D JUMP JUMPDEST SWAP1 POP SWAP2 SWAP1 POP JUMP JUMPDEST PUSH1 0x0 PUSH2 0x1BBC DUP3 PUSH2 0x1B9F JUMP JUMPDEST SWAP1 POP SWAP2 SWAP1 POP JUMP JUMPDEST PUSH2 0x1BCC DUP2 PUSH2 0x1BB1 JUMP JUMPDEST DUP3 MSTORE POP POP JUMP JUMPDEST PUSH1 0x0 PUSH1 0x20 DUP3 ADD SWAP1 POP PUSH2 0x1BE7 PUSH1 0x0 DUP4 ADD DUP5 PUSH2 0x1BC3 JUMP JUMPDEST SWAP3 SWAP2 POP POP JUMP JUMPDEST PUSH1 0x0 PUSH1 0xFF DUP3 AND SWAP1 POP SWAP2 SWAP1 POP JUMP JUMPDEST PUSH2 0x1C03 DUP2 PUSH2 0x1BED JUMP JUMPDEST DUP2 EQ PUSH2 0x1C0E JUMPI PUSH1 0x0 DUP1 REVERT JUMPDEST POP JUMP JUMPDEST PUSH1 0x0 DUP2 CALLDATALOAD SWAP1 POP PUSH2 0x1C20 DUP2 PUSH2 0x1BFA JUMP JUMPDEST SWAP3 SWAP2 POP POP JUMP JUMPDEST PUSH1 0x0 DUP2 SWAP1 POP SWAP2 SWAP1 POP JUMP JUMPDEST PUSH2 0x1C39 DUP2 PUSH2 0x1C26 JUMP JUMPDEST DUP2 EQ PUSH2 0x1C44 JUMPI PUSH1 0x0 DUP1 REVERT JUMPDEST POP JUMP JUMPDEST PUSH1 0x0 DUP2 CALLDATALOAD SWAP1 POP PUSH2 0x1C56 DUP2 PUSH2 0x1C30 JUMP JUMPDEST SWAP3 SWAP2 POP POP JUMP JUMPDEST PUSH1 0x0 DUP1 PUSH1 0x0 DUP1 PUSH1 0x0 DUP1 PUSH1 0x0 DUP1 PUSH1 0x0 DUP1 PUSH2 0x140 DUP12 DUP14 SUB SLT ISZERO PUSH2 0x1C80 JUMPI PUSH2 0x1C7F PUSH2 0x15A0 JUMP JUMPDEST JUMPDEST PUSH1 0x0 DUP12 ADD CALLDATALOAD PUSH8 0xFFFFFFFFFFFFFFFF DUP2 GT ISZERO PUSH2 0x1C9E JUMPI PUSH2 0x1C9D PUSH2 0x15A5 JUMP JUMPDEST JUMPDEST PUSH2 0x1CAA DUP14 DUP3 DUP15 ADD PUSH2 0x16C2 JUMP JUMPDEST SWAP11 POP POP PUSH1 0x20 DUP12 ADD CALLDATALOAD PUSH8 0xFFFFFFFFFFFFFFFF DUP2 GT ISZERO PUSH2 0x1CCB JUMPI PUSH2 0x1CCA PUSH2 0x15A5 JUMP JUMPDEST JUMPDEST PUSH2 0x1CD7 DUP14 DUP3 DUP15 ADD PUSH2 0x16C2 JUMP JUMPDEST SWAP10 POP POP PUSH1 0x40 DUP12 ADD CALLDATALOAD PUSH8 0xFFFFFFFFFFFFFFFF DUP2 GT ISZERO PUSH2 0x1CF8 JUMPI PUSH2 0x1CF7 PUSH2 0x15A5 JUMP JUMPDEST JUMPDEST PUSH2 0x1D04 DUP14 DUP3 DUP15 ADD PUSH2 0x16C2 JUMP JUMPDEST SWAP9 POP POP PUSH1 0x60 DUP12 ADD CALLDATALOAD PUSH8 0xFFFFFFFFFFFFFFFF DUP2 GT ISZERO PUSH2 0x1D25 JUMPI PUSH2 0x1D24 PUSH2 0x15A5 JUMP JUMPDEST JUMPDEST PUSH2 0x1D31 DUP14 DUP3 DUP15 ADD PUSH2 0x16C2 JUMP JUMPDEST SWAP8 POP POP PUSH1 0x80 DUP12 ADD CALLDATALOAD PUSH8 0xFFFFFFFFFFFFFFFF DUP2 GT ISZERO PUSH2 0x1D52 JUMPI PUSH2 0x1D51 PUSH2 0x15A5 JUMP JUMPDEST JUMPDEST PUSH2 0x1D5E DUP14 DUP3 DUP15 ADD PUSH2 0x16C2 JUMP JUMPDEST SWAP7 POP POP PUSH1 0xA0 DUP12 ADD CALLDATALOAD PUSH8 0xFFFFFFFFFFFFFFFF DUP2 GT ISZERO PUSH2 0x1D7F JUMPI PUSH2 0x1D7E PUSH2 0x15A5 JUMP JUMPDEST JUMPDEST PUSH2 0x1D8B DUP14 DUP3 DUP15 ADD PUSH2 0x16C2 JUMP JUMPDEST SWAP6 POP POP PUSH1 0xC0 PUSH2 0x1D9C DUP14 DUP3 DUP15 ADD PUSH2 0x19F7 JUMP JUMPDEST SWAP5 POP POP PUSH1 0xE0 PUSH2 0x1DAD DUP14 DUP3 DUP15 ADD PUSH2 0x1C11 JUMP JUMPDEST SWAP4 POP POP PUSH2 0x100 PUSH2 0x1DBF DUP14 DUP3 DUP15 ADD PUSH2 0x1C47 JUMP JUMPDEST SWAP3 POP POP PUSH2 0x120 PUSH2 0x1DD1 DUP14 DUP3 DUP15 ADD PUSH2 0x1C47 JUMP JUMPDEST SWAP2 POP POP SWAP3 SWAP6 SWAP9 SWAP12 SWAP2 SWAP5 SWAP8 SWAP11 POP SWAP3 SWAP6 SWAP9 POP JUMP JUMPDEST PUSH1 0x0 DUP1 PUSH1 0x40 DUP4 DUP6 SUB SLT ISZERO PUSH2 0x1DFA JUMPI PUSH2 0x1DF9 PUSH2 0x15A0 JUMP JUMPDEST JUMPDEST PUSH1 0x0 DUP4 ADD CALLDATALOAD PUSH8 0xFFFFFFFFFFFFFFFF DUP2 GT ISZERO PUSH2 0x1E18 JUMPI PUSH2 0x1E17 PUSH2 0x15A5 JUMP JUMPDEST JUMPDEST PUSH2 0x1E24 DUP6 DUP3 DUP7 ADD PUSH2 0x16C2 JUMP JUMPDEST SWAP3 POP POP PUSH1 0x20 PUSH2 0x1E35 DUP6 DUP3 DUP7 ADD PUSH2 0x19F7 JUMP JUMPDEST SWAP2 POP POP SWAP3 POP SWAP3 SWAP1 POP JUMP JUMPDEST PUSH1 0x0 PUSH1 0x20 DUP3 ADD SWAP1 POP DUP2 DUP2 SUB PUSH1 0x0 DUP4 ADD MSTORE PUSH2 0x1E59 DUP2 DUP5 PUSH2 0x1A8C JUMP JUMPDEST SWAP1 POP SWAP3 SWAP2 POP POP JUMP JUMPDEST PUSH1 0x0 DUP2 MLOAD SWAP1 POP PUSH2 0x1E70 DUP2 PUSH2 0x1722 JUMP JUMPDEST SWAP3 SWAP2 POP POP JUMP JUMPDEST PUSH1 0x0 PUSH1 0x20 DUP3 DUP5 SUB SLT ISZERO PUSH2 0x1E8C JUMPI PUSH2 0x1E8B PUSH2 0x15A0 JUMP JUMPDEST JUMPDEST PUSH1 0x0 PUSH2 0x1E9A DUP5 DUP3 DUP6 ADD PUSH2 0x1E61 JUMP JUMPDEST SWAP2 POP POP SWAP3 SWAP2 POP POP JUMP JUMPDEST PUSH32 0x4F6E6C792074656E646572206F776E65722063616E2076696577207468697300 PUSH1 0x0 DUP3 ADD MSTORE POP JUMP JUMPDEST PUSH1 0x0 PUSH2 0x1ED9 PUSH1 0x1F DUP4 PUSH2 0x1A7B JUMP JUMPDEST SWAP2 POP PUSH2 0x1EE4 DUP3 PUSH2 0x1EA3 JUMP JUMPDEST PUSH1 0x20 DUP3 ADD SWAP1 POP SWAP2 SWAP1 POP JUMP JUMPDEST PUSH1 0x0 PUSH1 0x20 DUP3 ADD SWAP1 POP DUP2 DUP2 SUB PUSH1 0x0 DUP4 ADD MSTORE PUSH2 0x1F08 DUP2 PUSH2 0x1ECC JUMP JUMPDEST SWAP1 POP SWAP2 SWAP1 POP JUMP JUMPDEST PUSH1 0x0 DUP2 SWAP1 POP SWAP3 SWAP2 POP POP JUMP JUMPDEST PUSH1 0x0 PUSH2 0x1F25 DUP3 PUSH2 0x17D6 JUMP JUMPDEST PUSH2 0x1F2F DUP2 DUP6 PUSH2 0x1F0F JUMP JUMPDEST SWAP4 POP PUSH2 0x1F3F DUP2 DUP6 PUSH1 0x20 DUP7 ADD PUSH2 0x17F2 JUMP JUMPDEST DUP1 DUP5 ADD SWAP2 POP POP SWAP3 SWAP2 POP POP JUMP JUMPDEST PUSH1 0x0 PUSH2 0x1F57 DUP3 DUP5 PUSH2 0x1F1A JUMP JUMPDEST SWAP2 POP DUP2 SWAP1 POP SWAP3 SWAP2 POP POP JUMP JUMPDEST PUSH32 0x4E487B7100000000000000000000000000000000000000000000000000000000 PUSH1 0x0 MSTORE PUSH1 0x22 PUSH1 0x4 MSTORE PUSH1 0x24 PUSH1 0x0 REVERT JUMPDEST PUSH1 0x0 PUSH1 0x2 DUP3 DIV SWAP1 POP PUSH1 0x1 DUP3 AND DUP1 PUSH2 0x1FA9 JUMPI PUSH1 0x7F DUP3 AND SWAP2 POP JUMPDEST PUSH1 0x20 DUP3 LT DUP2 SUB PUSH2 0x1FBC JUMPI PUSH2 0x1FBB PUSH2 0x1F62 JUMP JUMPDEST JUMPDEST POP SWAP2 SWAP1 POP JUMP JUMPDEST PUSH32 0x4E487B7100000000000000000000000000000000000000000000000000000000 PUSH1 0x0 MSTORE PUSH1 0x32 PUSH1 0x4 MSTORE PUSH1 0x24 PUSH1 0x0 REVERT JUMPDEST PUSH1 0x0 DUP2 SWAP1 POP SWAP2 SWAP1 POP JUMP JUMPDEST PUSH2 0x200C PUSH2 0x2007 DUP3 PUSH2 0x1855 JUMP JUMPDEST PUSH2 0x1FF1 JUMP JUMPDEST DUP3 MSTORE POP POP JUMP JUMPDEST PUSH1 0x0 PUSH2 0x201E DUP3 DUP7 PUSH2 0x1F1A JUMP JUMPDEST SWAP2 POP PUSH2 0x202A DUP3 DUP6 PUSH2 0x1F1A JUMP JUMPDEST SWAP2 POP PUSH2 0x2036 DUP3 DUP5 PUSH2 0x1FFB JUMP JUMPDEST PUSH1 0x20 DUP3 ADD SWAP2 POP DUP2 SWAP1 POP SWAP5 SWAP4 POP POP POP POP JUMP JUMPDEST PUSH32 0x19457468657265756D205369676E6564204D6573736167653A0A333200000000 PUSH1 0x0 DUP3 ADD MSTORE POP JUMP JUMPDEST PUSH1 0x0 PUSH2 0x207D PUSH1 0x1C DUP4 PUSH2 0x1F0F JUMP JUMPDEST SWAP2 POP PUSH2 0x2088 DUP3 PUSH2 0x2047 JUMP JUMPDEST PUSH1 0x1C DUP3 ADD SWAP1 POP SWAP2 SWAP1 POP JUMP JUMPDEST PUSH1 0x0 DUP2 SWAP1 POP SWAP2 SWAP1 POP JUMP JUMPDEST PUSH2 0x20AE PUSH2 0x20A9 DUP3 PUSH2 0x1C26 JUMP JUMPDEST PUSH2 0x2093 JUMP JUMPDEST DUP3 MSTORE POP POP JUMP JUMPDEST PUSH1 0x0 PUSH2 0x20BF DUP3 PUSH2 0x2070 JUMP JUMPDEST SWAP2 POP PUSH2 0x20CB DUP3 DUP5 PUSH2 0x209D JUMP JUMPDEST PUSH1 0x20 DUP3 ADD SWAP2 POP DUP2 SWAP1 POP SWAP3 SWAP2 POP POP JUMP JUMPDEST PUSH2 0x20E3 DUP2 PUSH2 0x1C26 JUMP JUMPDEST DUP3 MSTORE POP POP JUMP JUMPDEST PUSH2 0x20F2 DUP2 PUSH2 0x1BED JUMP JUMPDEST DUP3 MSTORE POP POP JUMP JUMPDEST PUSH1 0x0 PUSH1 0x80 DUP3 ADD SWAP1 POP PUSH2 0x210D PUSH1 0x0 DUP4 ADD DUP8 PUSH2 0x20DA JUMP JUMPDEST PUSH2 0x211A PUSH1 0x20 DUP4 ADD DUP7 PUSH2 0x20E9 JUMP JUMPDEST PUSH2 0x2127 PUSH1 0x40 DUP4 ADD DUP6 PUSH2 0x20DA JUMP JUMPDEST PUSH2 0x2134 PUSH1 0x60 DUP4 ADD DUP5 PUSH2 0x20DA JUMP JUMPDEST SWAP6 SWAP5 POP POP POP POP POP JUMP JUMPDEST PUSH32 0x496E76616C6964207369676E6174757265000000000000000000000000000000 PUSH1 0x0 DUP3 ADD MSTORE POP JUMP JUMPDEST PUSH1 0x0 PUSH2 0x2173 PUSH1 0x11 DUP4 PUSH2 0x1A7B JUMP JUMPDEST SWAP2 POP PUSH2 0x217E DUP3 PUSH2 0x213D JUMP JUMPDEST PUSH1 0x20 DUP3 ADD SWAP1 POP SWAP2 SWAP1 POP JUMP JUMPDEST PUSH1 0x0 PUSH1 0x20 DUP3 ADD SWAP1 POP DUP2 DUP2 SUB PUSH1 0x0 DUP4 ADD MSTORE PUSH2 0x21A2 DUP2 PUSH2 0x2166 JUMP JUMPDEST SWAP1 POP SWAP2 SWAP1 POP JUMP JUMPDEST PUSH32 0x5369676E61747572652065787069726564000000000000000000000000000000 PUSH1 0x0 DUP3 ADD MSTORE POP JUMP JUMPDEST PUSH1 0x0 PUSH2 0x21DF PUSH1 0x11 DUP4 PUSH2 0x1A7B JUMP JUMPDEST SWAP2 POP PUSH2 0x21EA DUP3 PUSH2 0x21A9 JUMP JUMPDEST PUSH1 0x20 DUP3 ADD SWAP1 POP SWAP2 SWAP1 POP JUMP JUMPDEST PUSH1 0x0 PUSH1 0x20 DUP3 ADD SWAP1 POP DUP2 DUP2 SUB PUSH1 0x0 DUP4 ADD MSTORE PUSH2 0x220E DUP2 PUSH2 0x21D2 JUMP JUMPDEST SWAP1 POP SWAP2 SWAP1 POP JUMP JUMPDEST PUSH2 0x221E DUP2 PUSH2 0x1710 JUMP JUMPDEST DUP3 MSTORE POP POP JUMP JUMPDEST PUSH1 0x0 PUSH1 0x40 DUP3 ADD SWAP1 POP DUP2 DUP2 SUB PUSH1 0x0 DUP4 ADD MSTORE PUSH2 0x223E DUP2 DUP6 PUSH2 0x1A8C JUMP JUMPDEST SWAP1 POP PUSH2 0x224D PUSH1 0x20 DUP4 ADD DUP5 PUSH2 0x2215 JUMP JUMPDEST SWAP4 SWAP3 POP POP POP JUMP JUMPDEST PUSH1 0x0 DUP2 ISZERO ISZERO SWAP1 POP SWAP2 SWAP1 POP JUMP JUMPDEST PUSH2 0x2269 DUP2 PUSH2 0x2254 JUMP JUMPDEST DUP2 EQ PUSH2 0x2274 JUMPI PUSH1 0x0 DUP1 REVERT JUMPDEST POP JUMP JUMPDEST PUSH1 0x0 DUP2 MLOAD SWAP1 POP PUSH2 0x2286 DUP2 PUSH2 0x2260 JUMP JUMPDEST SWAP3 SWAP2 POP POP JUMP JUMPDEST PUSH1 0x0 PUSH1 0x20 DUP3 DUP5 SUB SLT ISZERO PUSH2 0x22A2 JUMPI PUSH2 0x22A1 PUSH2 0x15A0 JUMP JUMPDEST JUMPDEST PUSH1 0x0 PUSH2 0x22B0 DUP5 DUP3 DUP6 ADD PUSH2 0x2277 JUMP JUMPDEST SWAP2 POP POP SWAP3 SWAP2 POP POP JUMP JUMPDEST PUSH32 0x4F6E6C79207061727469636970616E74732063616E2075706C6F61642074656E PUSH1 0x0 DUP3 ADD MSTORE PUSH32 0x64657220646F63756D656E747300000000000000000000000000000000000000 PUSH1 0x20 DUP3 ADD MSTORE POP JUMP JUMPDEST PUSH1 0x0 PUSH2 0x2315 PUSH1 0x2D DUP4 PUSH2 0x1A7B JUMP JUMPDEST SWAP2 POP PUSH2 0x2320 DUP3 PUSH2 0x22B9 JUMP JUMPDEST PUSH1 0x40 DUP3 ADD SWAP1 POP SWAP2 SWAP1 POP JUMP JUMPDEST PUSH1 0x0 PUSH1 0x20 DUP3 ADD SWAP1 POP DUP2 DUP2 SUB PUSH1 0x0 DUP4 ADD MSTORE PUSH2 0x2344 DUP2 PUSH2 0x2308 JUMP JUMPDEST SWAP1 POP SWAP2 SWAP1 POP JUMP JUMPDEST PUSH1 0x0 DUP2 SWAP1 POP DUP2 PUSH1 0x0 MSTORE PUSH1 0x20 PUSH1 0x0 KECCAK256 SWAP1 POP SWAP2 SWAP1 POP JUMP JUMPDEST PUSH1 0x0 PUSH1 0x20 PUSH1 0x1F DUP4 ADD DIV SWAP1 POP SWAP2 SWAP1 POP JUMP JUMPDEST PUSH1 0x0 DUP3 DUP3 SHL SWAP1 POP SWAP3 SWAP2 POP POP JUMP JUMPDEST PUSH1 0x0 PUSH1 0x8 DUP4 MUL PUSH2 0x23AD PUSH32 0xFFFFFFFFFFFFFFFFFFFFFFFFFFFFFFFFFFFFFFFFFFFFFFFFFFFFFFFFFFFFFFFF DUP3 PUSH2 0x2370 JUMP JUMPDEST PUSH2 0x23B7 DUP7 DUP4 PUSH2 0x2370 JUMP JUMPDEST SWAP6 POP DUP1 NOT DUP5 AND SWAP4 POP DUP1 DUP7 AND DUP5 OR SWAP3 POP POP POP SWAP4 SWAP3 POP POP POP JUMP JUMPDEST PUSH1 0x0 PUSH2 0x23EA PUSH2 0x23E5 PUSH2 0x23E0 DUP5 PUSH2 0x1855 JUMP JUMPDEST PUSH2 0x1B73 JUMP JUMPDEST PUSH2 0x1855 JUMP JUMPDEST SWAP1 POP SWAP2 SWAP1 POP JUMP JUMPDEST PUSH1 0x0 DUP2 SWAP1 POP SWAP2 SWAP1 POP JUMP JUMPDEST PUSH2 0x2404 DUP4 PUSH2 0x23CF JUMP JUMPDEST PUSH2 0x2418 PUSH2 0x2410 DUP3 PUSH2 0x23F1 JUMP JUMPDEST DUP5 DUP5 SLOAD PUSH2 0x237D JUMP JUMPDEST DUP3 SSTORE POP POP POP POP JUMP JUMPDEST PUSH1 0x0 SWAP1 JUMP JUMPDEST PUSH2 0x242D PUSH2 0x2420 JUMP JUMPDEST PUSH2 0x2438 DUP2 DUP5 DUP5 PUSH2 0x23FB JUMP JUMPDEST POP POP POP JUMP JUMPDEST JUMPDEST DUP2 DUP2 LT ISZERO PUSH2 0x245C JUMPI PUSH2 0x2451 PUSH1 0x0 DUP3 PUSH2 0x2425 JUMP JUMPDEST PUSH1 0x1 DUP2 ADD SWAP1 POP PUSH2 0x243E JUMP JUMPDEST POP POP JUMP JUMPDEST PUSH1 0x1F DUP3 GT ISZERO PUSH2 0x24A1 JUMPI PUSH2 0x2472 DUP2 PUSH2 0x234B JUMP JUMPDEST PUSH2 0x247B DUP5 PUSH2 0x2360 JUMP JUMPDEST DUP2 ADD PUSH1 0x20 DUP6 LT ISZERO PUSH2 0x248A JUMPI DUP2 SWAP1 POP JUMPDEST PUSH2 0x249E PUSH2 0x2496 DUP6 PUSH2 0x2360 JUMP JUMPDEST DUP4 ADD DUP3 PUSH2 0x243D JUMP JUMPDEST POP POP JUMPDEST POP POP POP JUMP JUMPDEST PUSH1 0x0 DUP3 DUP3 SHR SWAP1 POP SWAP3 SWAP2 POP POP JUMP JUMPDEST PUSH1 0x0 PUSH2 0x24C4 PUSH1 0x0 NOT DUP5 PUSH1 0x8 MUL PUSH2 0x24A6 JUMP JUMPDEST NOT DUP1 DUP4 AND SWAP2 POP POP SWAP3 SWAP2 POP POP JUMP JUMPDEST PUSH1 0x0 PUSH2 0x24DD DUP4 DUP4 PUSH2 0x24B3 JUMP JUMPDEST SWAP2 POP DUP3 PUSH1 0x2 MUL DUP3 OR SWAP1 POP SWAP3 SWAP2 POP POP JUMP JUMPDEST PUSH2 0x24F6 DUP3 PUSH2 0x17D6 JUMP JUMPDEST PUSH8 0xFFFFFFFFFFFFFFFF DUP2 GT ISZERO PUSH2 0x250F JUMPI PUSH2 0x250E PUSH2 0x15C5 JUMP JUMPDEST JUMPDEST PUSH2 0x2519 DUP3 SLOAD PUSH2 0x1F91 JUMP JUMPDEST PUSH2 0x2524 DUP3 DUP3 DUP6 PUSH2 0x2460 JUMP JUMPDEST PUSH1 0x0 PUSH1 0x20 SWAP1 POP PUSH1 0x1F DUP4 GT PUSH1 0x1 DUP2 EQ PUSH2 0x2557 JUMPI PUSH1 0x0 DUP5 ISZERO PUSH2 0x2545 JUMPI DUP3 DUP8 ADD MLOAD SWAP1 POP JUMPDEST PUSH2 0x254F DUP6 DUP3 PUSH2 0x24D1 JUMP JUMPDEST DUP7 SSTORE POP PUSH2 0x25B7 JUMP JUMPDEST PUSH1 0x1F NOT DUP5 AND PUSH2 0x2565 DUP7 PUSH2 0x234B JUMP JUMPDEST PUSH1 0x0 JUMPDEST DUP3 DUP2 LT ISZERO PUSH2 0x258D JUMPI DUP5 DUP10 ADD MLOAD DUP3 SSTORE PUSH1 0x1 DUP3 ADD SWAP2 POP PUSH1 0x20 DUP6 ADD SWAP5 POP PUSH1 0x20 DUP2 ADD SWAP1 POP PUSH2 0x2568 JUMP JUMPDEST DUP7 DUP4 LT ISZERO PUSH2 0x25AA JUMPI DUP5 DUP10 ADD MLOAD PUSH2 0x25A6 PUSH1 0x1F DUP10 AND DUP3 PUSH2 0x24B3 JUMP JUMPDEST DUP4 SSTORE POP JUMPDEST PUSH1 0x1 PUSH1 0x2 DUP9 MUL ADD DUP9 SSTORE POP POP POP JUMPDEST POP POP POP POP POP POP JUMP JUMPDEST PUSH1 0x0 PUSH1 0x80 DUP3 ADD SWAP1 POP DUP2 DUP2 SUB PUSH1 0x0 DUP4 ADD MSTORE PUSH2 0x25D9 DUP2 DUP8 PUSH2 0x1A8C JUMP JUMPDEST SWAP1 POP DUP2 DUP2 SUB PUSH1 0x20 DUP4 ADD MSTORE PUSH2 0x25ED DUP2 DUP7 PUSH2 0x1A8C JUMP JUMPDEST SWAP1 POP DUP2 DUP2 SUB PUSH1 0x40 DUP4 ADD MSTORE PUSH2 0x2601 DUP2 DUP6 PUSH2 0x1A8C JUMP JUMPDEST SWAP1 POP PUSH2 0x2610 PUSH1 0x60 DUP4 ADD DUP5 PUSH2 0x2215 JUMP JUMPDEST SWAP6 SWAP5 POP POP POP POP POP JUMP INVALID LOG2 PUSH5 0x6970667358 0x22 SLT KECCAK256 0xAC 0x2A SUB DELEGATECALL 0xC4 0xBA 0x2A BALANCE DUP11 SWAP14 0xB2 DUP6 PUSH31 0xC49642554DBAF32CC1ED52B35B2A67D22508F264736F6C634300081C003300 "},"methodIdentifiers":{"getDocumentOfUserAsOwner(string,address,uint256)":"7c4fb190","getDocumentsOfTenderAsOwner(string,address)":"180d60b3","getMyDocument(string,uint256)":"f983829c","getMyDocuments(string)":"3e823f07","tenderDocuments(string,address,uint256)":"7f9bb781","tenderManager()":"a06a72f5","uploadDocumentWithSignature(string,string,string,string,string,string,uint256,uint8,bytes32,bytes32)":"f05ccea7"}}}}}