{"contracts/AccessManager.sol":{"AccessManager":{"abi":[{"inputs":[{"internalType":"address","name":"documentStoreAddress","type":"address"},{"internalType":"address","name":"publicKeyStorageAddress","type":"address"}],"stateMutability":"nonpayable","type":"constructor"},{"anonymous":false,"inputs":[{"indexed":false,"internalType":"address","name":"receiver","type":"address"},{"indexed":false,"internalType":"address","name":"sender","type":"address"},{"indexed":false,"internalType":"string","name":"encryptedKey","type":"string"},{"indexed":false,"internalType":"string","name":"iv","type":"string"},{"indexed":false,"internalType":"string","name":"cid","type":"string"}],"name":"EmitContentKey","type":"event"},{"anonymous":false,"inputs":[{"indexed":false,"internalType":"address","name":"receiver","type":"address"},{"indexed":false,"internalType":"address","name":"sender","type":"address"},{"indexed":false,"internalType":"string","name":"encryptedKey","type":"string"},{"indexed":false,"internalType":"string","name":"iv","type":"string"},{"indexed":false,"internalType":"string","name":"cid","type":"string"},{"indexed":false,"internalType":"string","name":"tenderId","type":"string"}],"name":"EmitTenderKey","type":"event"},{"anonymous":false,"inputs":[{"indexed":false,"internalType":"address","name":"requester","type":"address"},{"indexed":false,"internalType":"address","name":"receiver","type":"address"},{"indexed":false,"internalType":"string","name":"cid","type":"string"}],"name":"RequestAccessContent","type":"event"},{"anonymous":false,"inputs":[{"indexed":false,"internalType":"address","name":"requester","type":"address"},{"indexed":false,"internalType":"address","name":"receiver","type":"address"},{"indexed":false,"internalType":"string","name":"tenderId","type":"string"},{"indexed":false,"internalType":"string","name":"tenderName","type":"string"},{"indexed":false,"internalType":"string","name":"tenderStartDate","type":"string"},{"indexed":false,"internalType":"string","name":"tenderEndDate","type":"string"}],"name":"RequestAccessTender","type":"event"},{"inputs":[],"name":"documentStore","outputs":[{"internalType":"contract IDocumentStore","name":"","type":"address"}],"stateMutability":"view","type":"function"},{"inputs":[{"components":[{"components":[{"internalType":"address","name":"receiver","type":"address"},{"internalType":"string","name":"encryptedKey","type":"string"},{"internalType":"string","name":"iv","type":"string"},{"internalType":"string","name":"cid","type":"string"}],"internalType":"struct AccessManager.EmitKeyInput","name":"contentKey","type":"tuple"},{"components":[{"internalType":"address","name":"receiver","type":"address"},{"internalType":"string","name":"encryptedKey","type":"string"},{"internalType":"string","name":"iv","type":"string"},{"internalType":"string","name":"cid","type":"string"},{"internalType":"string","name":"tenderId","type":"string"}],"internalType":"struct AccessManager.EmitTenderKeyInput","name":"tenderKey","type":"tuple"}],"internalType":"struct AccessManager.EmitCombinedKeyInput[]","name":"inputs","type":"tuple[]"}],"name":"emitCombinedKeys","outputs":[],"stateMutability":"nonpayable","type":"function"},{"inputs":[{"components":[{"internalType":"address","name":"receiver","type":"address"},{"internalType":"string","name":"encryptedKey","type":"string"},{"internalType":"string","name":"iv","type":"string"},{"internalType":"string","name":"cid","type":"string"}],"internalType":"struct AccessManager.EmitKeyInput","name":"input","type":"tuple"}],"name":"emitContentKey","outputs":[],"stateMutability":"nonpayable","type":"function"},{"inputs":[{"components":[{"internalType":"address","name":"receiver","type":"address"},{"internalType":"string","name":"encryptedKey","type":"string"},{"internalType":"string","name":"iv","type":"string"},{"internalType":"string","name":"cid","type":"string"},{"internalType":"string","name":"tenderId","type":"string"}],"internalType":"struct AccessManager.EmitTenderKeyInput[]","name":"inputs","type":"tuple[]"}],"name":"emitTenderKey","outputs":[],"stateMutability":"nonpayable","type":"function"},{"inputs":[{"internalType":"string","name":"cid","type":"string"},{"internalType":"address","name":"receiver","type":"address"}],"name":"getEncryptedContentKey","outputs":[{"internalType":"string","name":"","type":"string"},{"internalType":"string","name":"","type":"string"}],"stateMutability":"view","type":"function"},{"inputs":[{"internalType":"string","name":"tenderId","type":"string"},{"internalType":"address","name":"receiver","type":"address"}],"name":"getEncryptedTenderKey","outputs":[{"internalType":"string","name":"","type":"string"},{"internalType":"string","name":"","type":"string"}],"stateMutability":"view","type":"function"},{"inputs":[],"name":"publicKeyStorage","outputs":[{"internalType":"contract IPublicKeyStorage","name":"","type":"address"}],"stateMutability":"view","type":"function"},{"inputs":[{"components":[{"internalType":"address","name":"receiver","type":"address"},{"internalType":"string","name":"cid","type":"string"}],"internalType":"struct AccessManager.RequestAccessInput","name":"input","type":"tuple"}],"name":"requestAccessContent","outputs":[],"stateMutability":"nonpayable","type":"function"},{"inputs":[{"internalType":"string","name":"tenderId","type":"string"},{"internalType":"string","name":"tenderName","type":"string"},{"internalType":"string","name":"tenderStartDate","type":"string"},{"internalType":"string","name":"tenderEndDate","type":"string"},{"internalType":"address","name":"receiver","type":"address"}],"name":"requestAccessTender","outputs":[],"stateMutability":"nonpayable","type":"function"}],"evm":{"bytecode":{"linkReferences":{},"object":"608060405234801561001057600080fd5b50604051612ed9380380612ed98339818101604052810190610032919061011d565b816000806101000a81548173ffffffffffffffffffffffffffffffffffffffff021916908373ffffffffffffffffffffffffffffffffffffffff16021790555080600160006101000a81548173ffffffffffffffffffffffffffffffffffffffff021916908373ffffffffffffffffffffffffffffffffffffffff160217905550505061015d565b600080fd5b600073ffffffffffffffffffffffffffffffffffffffff82169050919050565b60006100ea826100bf565b9050919050565b6100fa816100df565b811461010557600080fd5b50565b600081519050610117816100f1565b92915050565b60008060408385031215610134576101336100ba565b5b600061014285828601610108565b925050602061015385828601610108565b9150509250929050565b612d6d8061016c6000396000f3fe608060405234801561001057600080fd5b50600436106100935760003560e01c80637def3c9a116100665780637def3c9a146101215780639ec1aadd1461013d578063a18e460d14610159578063a6d047c114610175578063b5170ba11461019157610093565b80630dc80d0c14610098578063101643c8146100c9578063408acd33146100e55780636dbfdf2514610103575b600080fd5b6100b260048036038101906100ad9190611c46565b6101c2565b6040516100c0929190611d21565b60405180910390f35b6100e360048036038101906100de9190611e2e565b61039e565b005b6100ed6106e7565b6040516100fa9190611ed6565b60405180910390f35b61010b61070b565b6040516101189190611f12565b60405180910390f35b61013b60048036038101906101369190612197565b610731565b005b610157600480360381019061015291906121e0565b610e85565b005b610173600480360381019061016e9190612337565b61113b565b005b61018f600480360381019061018a9190612461565b6113f7565b005b6101ab60048036038101906101a69190611c46565b6118b2565b6040516101b9929190611d21565b60405180910390f35b6060806005846040516101d591906124e6565b908152602001604051809103902060008473ffffffffffffffffffffffffffffffffffffffff1673ffffffffffffffffffffffffffffffffffffffff16815260200190815260200160002060068560405161023091906124e6565b908152602001604051809103902060008573ffffffffffffffffffffffffffffffffffffffff1673ffffffffffffffffffffffffffffffffffffffff1681526020019081526020016000208180546102879061252c565b80601f01602080910402602001604051908101604052809291908181526020018280546102b39061252c565b80156103005780601f106102d557610100808354040283529160200191610300565b820191906000526020600020905b8154815290600101906020018083116102e357829003601f168201915b505050505091508080546103139061252c565b80601f016020809104026020016040519081016040528092919081815260200182805461033f9061252c565b801561038c5780601f106103615761010080835404028352916020019161038c565b820191906000526020600020905b81548152906001019060200180831161036f57829003601f168201915b50505050509050915091509250929050565b60003373ffffffffffffffffffffffffffffffffffffffff1660008054906101000a900473ffffffffffffffffffffffffffffffffffffffff1673ffffffffffffffffffffffffffffffffffffffff1663cb356d9184606001516040518263ffffffff1660e01b8152600401610414919061255d565b602060405180830381865afa158015610431573d6000803e3d6000fd5b505050506040513d601f19601f820116820180604052508101906104559190612594565b73ffffffffffffffffffffffffffffffffffffffff1614905060003373ffffffffffffffffffffffffffffffffffffffff1660008054906101000a900473ffffffffffffffffffffffffffffffffffffffff1673ffffffffffffffffffffffffffffffffffffffff16631f567bcb85606001516040518263ffffffff1660e01b81526004016104e4919061255d565b602060405180830381865afa158015610501573d6000803e3d6000fd5b505050506040513d601f19601f820116820180604052508101906105259190612594565b73ffffffffffffffffffffffffffffffffffffffff161490508115801561054a575080155b156105a95760405160200161055e90612633565b6040516020818303038152906040526040517f08c379a00000000000000000000000000000000000000000000000000000000081526004016105a0919061255d565b60405180910390fd5b8260200151600284606001516040516105c291906124e6565b90815260200160405180910390206000856000015173ffffffffffffffffffffffffffffffffffffffff1673ffffffffffffffffffffffffffffffffffffffff168152602001908152602001600020908161061d91906127f4565b5082604001516003846060015160405161063791906124e6565b90815260200160405180910390206000856000015173ffffffffffffffffffffffffffffffffffffffff1673ffffffffffffffffffffffffffffffffffffffff168152602001908152602001600020908161069291906127f4565b507f7bf5593de59b1ab6196194664fe98b1d1dc3df5ee48141fd577f0ff7afd9bb828360000151338560200151866040015187606001516040516106da9594939291906128d5565b60405180910390a1505050565b60008054906101000a900473ffffffffffffffffffffffffffffffffffffffff1681565b600160009054906101000a900473ffffffffffffffffffffffffffffffffffffffff1681565b60005b8151811015610e815760003373ffffffffffffffffffffffffffffffffffffffff1660008054906101000a900473ffffffffffffffffffffffffffffffffffffffff1673ffffffffffffffffffffffffffffffffffffffff1663cb356d918585815181106107a5576107a461293d565b5b602002602001015160000151606001516040518263ffffffff1660e01b81526004016107d1919061255d565b602060405180830381865afa1580156107ee573d6000803e3d6000fd5b505050506040513d601f19601f820116820180604052508101906108129190612594565b73ffffffffffffffffffffffffffffffffffffffff1614905060003373ffffffffffffffffffffffffffffffffffffffff1660008054906101000a900473ffffffffffffffffffffffffffffffffffffffff1673ffffffffffffffffffffffffffffffffffffffff16631f567bcb8686815181106108935761089261293d565b5b602002602001015160000151606001516040518263ffffffff1660e01b81526004016108bf919061255d565b602060405180830381865afa1580156108dc573d6000803e3d6000fd5b505050506040513d601f19601f820116820180604052508101906109009190612594565b73ffffffffffffffffffffffffffffffffffffffff1614905081158015610925575080155b1561098457604051602001610939906129de565b6040516020818303038152906040526040517f08c379a000000000000000000000000000000000000000000000000000000000815260040161097b919061255d565b60405180910390fd5b8383815181106109975761099661293d565b5b6020026020010151600001516020015160028585815181106109bc576109bb61293d565b5b602002602001015160000151606001516040516109d991906124e6565b908152602001604051809103902060008686815181106109fc576109fb61293d565b5b6020026020010151600001516000015173ffffffffffffffffffffffffffffffffffffffff1673ffffffffffffffffffffffffffffffffffffffff1681526020019081526020016000209081610a5291906127f4565b50838381518110610a6657610a6561293d565b5b602002602001015160000151604001516003858581518110610a8b57610a8a61293d565b5b60200260200101516000015160600151604051610aa891906124e6565b90815260200160405180910390206000868681518110610acb57610aca61293d565b5b6020026020010151600001516000015173ffffffffffffffffffffffffffffffffffffffff1673ffffffffffffffffffffffffffffffffffffffff1681526020019081526020016000209081610b2191906127f4565b507f7bf5593de59b1ab6196194664fe98b1d1dc3df5ee48141fd577f0ff7afd9bb82848481518110610b5657610b5561293d565b5b6020026020010151600001516000015133868681518110610b7a57610b7961293d565b5b60200260200101516000015160200151878781518110610b9d57610b9c61293d565b5b60200260200101516000015160400151888881518110610bc057610bbf61293d565b5b60200260200101516000015160600151604051610be19594939291906128d5565b60405180910390a1838381518110610bfc57610bfb61293d565b5b602002602001015160200151602001516005858581518110610c2157610c2061293d565b5b60200260200101516020015160600151604051610c3e91906124e6565b90815260200160405180910390206000868681518110610c6157610c6061293d565b5b6020026020010151602001516000015173ffffffffffffffffffffffffffffffffffffffff1673ffffffffffffffffffffffffffffffffffffffff1681526020019081526020016000209081610cb791906127f4565b50838381518110610ccb57610cca61293d565b5b602002602001015160200151604001516006858581518110610cf057610cef61293d565b5b60200260200101516020015160600151604051610d0d91906124e6565b90815260200160405180910390206000868681518110610d3057610d2f61293d565b5b6020026020010151602001516000015173ffffffffffffffffffffffffffffffffffffffff1673ffffffffffffffffffffffffffffffffffffffff1681526020019081526020016000209081610d8691906127f4565b507f3e88a46403613c6e45c352aab06ce620d60806c1fafe6834aab5f0edd076314d848481518110610dbb57610dba61293d565b5b6020026020010151602001516000015133868681518110610ddf57610dde61293d565b5b60200260200101516020015160200151878781518110610e0257610e0161293d565b5b60200260200101516020015160400151888881518110610e2557610e2461293d565b5b60200260200101516020015160600151898981518110610e4857610e4761293d565b5b60200260200101516020015160800151604051610e6a969594939291906129f3565b60405180910390a150508080600101915050610734565b5050565b604051602001610e9490612abc565b60405160208183030381529060405280519060200120600160009054906101000a900473ffffffffffffffffffffffffffffffffffffffff1673ffffffffffffffffffffffffffffffffffffffff166344276733336040518263ffffffff1660e01b8152600401610f059190612ad1565b600060405180830381865afa158015610f22573d6000803e3d6000fd5b505050506040513d6000823e3d601f19601f82011682018060405250810190610f4b9190612b5c565b604051602001610f5b91906124e6565b6040516020818303038152906040528051906020012014610fd057604051602001610f8590612bf1565b6040516020818303038152906040526040517f08c379a0000000000000000000000000000000000000000000000000000000008152600401610fc7919061255d565b60405180910390fd5b60001515600786604051610fe491906124e6565b908152602001604051809103902060003373ffffffffffffffffffffffffffffffffffffffff1673ffffffffffffffffffffffffffffffffffffffff16815260200190815260200160002060009054906101000a900460ff1615151461107f576040517f08c379a000000000000000000000000000000000000000000000000000000000815260040161107690612c52565b60405180910390fd5b600160078660405161109191906124e6565b908152602001604051809103902060003373ffffffffffffffffffffffffffffffffffffffff1673ffffffffffffffffffffffffffffffffffffffff16815260200190815260200160002060006101000a81548160ff0219169083151502179055507fa2b873bcbdb25b34bb52b63d8d02f740e9e8d0a591cae0c92bf793d9e89aa18e33828787878760405161112c969594939291906129f3565b60405180910390a15050505050565b60405160200161114a90612abc565b60405160208183030381529060405280519060200120600160009054906101000a900473ffffffffffffffffffffffffffffffffffffffff1673ffffffffffffffffffffffffffffffffffffffff166344276733336040518263ffffffff1660e01b81526004016111bb9190612ad1565b600060405180830381865afa1580156111d8573d6000803e3d6000fd5b505050506040513d6000823e3d601f19601f820116820180604052508101906112019190612b5c565b60405160200161121191906124e6565b60405160208183030381529060405280519060200120146112865760405160200161123b90612bf1565b6040516020818303038152906040526040517f08c379a000000000000000000000000000000000000000000000000000000000815260040161127d919061255d565b60405180910390fd5b600015156004826020015160405161129e91906124e6565b908152602001604051809103902060003373ffffffffffffffffffffffffffffffffffffffff1673ffffffffffffffffffffffffffffffffffffffff16815260200190815260200160002060009054906101000a900460ff16151514611339576040517f08c379a000000000000000000000000000000000000000000000000000000000815260040161133090612c52565b60405180910390fd5b60016004826020015160405161134f91906124e6565b908152602001604051809103902060003373ffffffffffffffffffffffffffffffffffffffff1673ffffffffffffffffffffffffffffffffffffffff16815260200190815260200160002060006101000a81548160ff0219169083151502179055507fc2a6d5963749ec1cf48a0e17e4f12218f713af0b6676a1649f11cf6f8e491bef33826000015183602001516040516113ec93929190612c72565b60405180910390a150565b60005b81518110156118ae5760003373ffffffffffffffffffffffffffffffffffffffff1660008054906101000a900473ffffffffffffffffffffffffffffffffffffffff1673ffffffffffffffffffffffffffffffffffffffff1663cb356d9185858151811061146b5761146a61293d565b5b6020026020010151606001516040518263ffffffff1660e01b8152600401611493919061255d565b602060405180830381865afa1580156114b0573d6000803e3d6000fd5b505050506040513d601f19601f820116820180604052508101906114d49190612594565b73ffffffffffffffffffffffffffffffffffffffff1614905060003373ffffffffffffffffffffffffffffffffffffffff1660008054906101000a900473ffffffffffffffffffffffffffffffffffffffff1673ffffffffffffffffffffffffffffffffffffffff16631f567bcb8686815181106115555761155461293d565b5b6020026020010151606001516040518263ffffffff1660e01b815260040161157d919061255d565b602060405180830381865afa15801561159a573d6000803e3d6000fd5b505050506040513d601f19601f820116820180604052508101906115be9190612594565b73ffffffffffffffffffffffffffffffffffffffff16149050811580156115e3575080155b15611642576040516020016115f790612d22565b6040516020818303038152906040526040517f08c379a0000000000000000000000000000000000000000000000000000000008152600401611639919061255d565b60405180910390fd5b8383815181106116555761165461293d565b5b60200260200101516020015160058585815181106116765761167561293d565b5b60200260200101516060015160405161168f91906124e6565b908152602001604051809103902060008686815181106116b2576116b161293d565b5b60200260200101516000015173ffffffffffffffffffffffffffffffffffffffff1673ffffffffffffffffffffffffffffffffffffffff168152602001908152602001600020908161170491906127f4565b508383815181106117185761171761293d565b5b60200260200101516040015160068585815181106117395761173861293d565b5b60200260200101516060015160405161175291906124e6565b908152602001604051809103902060008686815181106117755761177461293d565b5b60200260200101516000015173ffffffffffffffffffffffffffffffffffffffff1673ffffffffffffffffffffffffffffffffffffffff16815260200190815260200160002090816117c791906127f4565b507f3e88a46403613c6e45c352aab06ce620d60806c1fafe6834aab5f0edd076314d8484815181106117fc576117fb61293d565b5b6020026020010151600001513386868151811061181c5761181b61293d565b5b60200260200101516020015187878151811061183b5761183a61293d565b5b60200260200101516040015188888151811061185a5761185961293d565b5b6020026020010151606001518989815181106118795761187861293d565b5b602002602001015160800151604051611897969594939291906129f3565b60405180910390a1505080806001019150506113fa565b5050565b6060806002846040516118c591906124e6565b908152602001604051809103902060008473ffffffffffffffffffffffffffffffffffffffff1673ffffffffffffffffffffffffffffffffffffffff16815260200190815260200160002060038560405161192091906124e6565b908152602001604051809103902060008573ffffffffffffffffffffffffffffffffffffffff1673ffffffffffffffffffffffffffffffffffffffff1681526020019081526020016000208180546119779061252c565b80601f01602080910402602001604051908101604052809291908181526020018280546119a39061252c565b80156119f05780601f106119c5576101008083540402835291602001916119f0565b820191906000526020600020905b8154815290600101906020018083116119d357829003601f168201915b50505050509150808054611a039061252c565b80601f0160208091040260200160405190810160405280929190818152602001828054611a2f9061252c565b8015611a7c5780601f10611a5157610100808354040283529160200191611a7c565b820191906000526020600020905b815481529060010190602001808311611a5f57829003601f168201915b50505050509050915091509250929050565b6000604051905090565b600080fd5b600080fd5b600080fd5b600080fd5b6000601f19601f8301169050919050565b7f4e487b7100000000000000000000000000000000000000000000000000000000600052604160045260246000fd5b611af582611aac565b810181811067ffffffffffffffff82111715611b1457611b13611abd565b5b80604052505050565b6000611b27611a8e565b9050611b338282611aec565b919050565b600067ffffffffffffffff821115611b5357611b52611abd565b5b611b5c82611aac565b9050602081019050919050565b82818337600083830152505050565b6000611b8b611b8684611b38565b611b1d565b905082815260208101848484011115611ba757611ba6611aa7565b5b611bb2848285611b69565b509392505050565b600082601f830112611bcf57611bce611aa2565b5b8135611bdf848260208601611b78565b91505092915050565b600073ffffffffffffffffffffffffffffffffffffffff82169050919050565b6000611c1382611be8565b9050919050565b611c2381611c08565b8114611c2e57600080fd5b50565b600081359050611c4081611c1a565b92915050565b60008060408385031215611c5d57611c5c611a98565b5b600083013567ffffffffffffffff811115611c7b57611c7a611a9d565b5b611c8785828601611bba565b9250506020611c9885828601611c31565b9150509250929050565b600081519050919050565b600082825260208201905092915050565b60005b83811015611cdc578082015181840152602081019050611cc1565b60008484015250505050565b6000611cf382611ca2565b611cfd8185611cad565b9350611d0d818560208601611cbe565b611d1681611aac565b840191505092915050565b60006040820190508181036000830152611d3b8185611ce8565b90508181036020830152611d4f8184611ce8565b90509392505050565b600080fd5b600080fd5b600060808284031215611d7857611d77611d58565b5b611d826080611b1d565b90506000611d9284828501611c31565b600083015250602082013567ffffffffffffffff811115611db657611db5611d5d565b5b611dc284828501611bba565b602083015250604082013567ffffffffffffffff811115611de657611de5611d5d565b5b611df284828501611bba565b604083015250606082013567ffffffffffffffff811115611e1657611e15611d5d565b5b611e2284828501611bba565b60608301525092915050565b600060208284031215611e4457611e43611a98565b5b600082013567ffffffffffffffff811115611e6257611e61611a9d565b5b611e6e84828501611d62565b91505092915050565b6000819050919050565b6000611e9c611e97611e9284611be8565b611e77565b611be8565b9050919050565b6000611eae82611e81565b9050919050565b6000611ec082611ea3565b9050919050565b611ed081611eb5565b82525050565b6000602082019050611eeb6000830184611ec7565b92915050565b6000611efc82611ea3565b9050919050565b611f0c81611ef1565b82525050565b6000602082019050611f276000830184611f03565b92915050565b600067ffffffffffffffff821115611f4857611f47611abd565b5b602082029050602081019050919050565b600080fd5b600060a08284031215611f7457611f73611d58565b5b611f7e60a0611b1d565b90506000611f8e84828501611c31565b600083015250602082013567ffffffffffffffff811115611fb257611fb1611d5d565b5b611fbe84828501611bba565b602083015250604082013567ffffffffffffffff811115611fe257611fe1611d5d565b5b611fee84828501611bba565b604083015250606082013567ffffffffffffffff81111561201257612011611d5d565b5b61201e84828501611bba565b606083015250608082013567ffffffffffffffff81111561204257612041611d5d565b5b61204e84828501611bba565b60808301525092915050565b6000604082840312156120705761206f611d58565b5b61207a6040611b1d565b9050600082013567ffffffffffffffff81111561209a57612099611d5d565b5b6120a684828501611d62565b600083015250602082013567ffffffffffffffff8111156120ca576120c9611d5d565b5b6120d684828501611f5e565b60208301525092915050565b60006120f56120f084611f2d565b611b1d565b9050808382526020820190506020840283018581111561211857612117611f59565b5b835b8181101561215f57803567ffffffffffffffff81111561213d5761213c611aa2565b5b80860161214a898261205a565b8552602085019450505060208101905061211a565b5050509392505050565b600082601f83011261217e5761217d611aa2565b5b813561218e8482602086016120e2565b91505092915050565b6000602082840312156121ad576121ac611a98565b5b600082013567ffffffffffffffff8111156121cb576121ca611a9d565b5b6121d784828501612169565b91505092915050565b600080600080600060a086880312156121fc576121fb611a98565b5b600086013567ffffffffffffffff81111561221a57612219611a9d565b5b61222688828901611bba565b955050602086013567ffffffffffffffff81111561224757612246611a9d565b5b61225388828901611bba565b945050604086013567ffffffffffffffff81111561227457612273611a9d565b5b61228088828901611bba565b935050606086013567ffffffffffffffff8111156122a1576122a0611a9d565b5b6122ad88828901611bba565b92505060806122be88828901611c31565b9150509295509295909350565b6000604082840312156122e1576122e0611d58565b5b6122eb6040611b1d565b905060006122fb84828501611c31565b600083015250602082013567ffffffffffffffff81111561231f5761231e611d5d565b5b61232b84828501611bba565b60208301525092915050565b60006020828403121561234d5761234c611a98565b5b600082013567ffffffffffffffff81111561236b5761236a611a9d565b5b612377848285016122cb565b91505092915050565b600067ffffffffffffffff82111561239b5761239a611abd565b5b602082029050602081019050919050565b60006123bf6123ba84612380565b611b1d565b905080838252602082019050602084028301858111156123e2576123e1611f59565b5b835b8181101561242957803567ffffffffffffffff81111561240757612406611aa2565b5b8086016124148982611f5e565b855260208501945050506020810190506123e4565b5050509392505050565b600082601f83011261244857612447611aa2565b5b81356124588482602086016123ac565b91505092915050565b60006020828403121561247757612476611a98565b5b600082013567ffffffffffffffff81111561249557612494611a9d565b5b6124a184828501612433565b91505092915050565b600081905092915050565b60006124c082611ca2565b6124ca81856124aa565b93506124da818560208601611cbe565b80840191505092915050565b60006124f282846124b5565b915081905092915050565b7f4e487b7100000000000000000000000000000000000000000000000000000000600052602260045260246000fd5b6000600282049050600182168061254457607f821691505b602082108103612557576125566124fd565b5b50919050565b600060208201905081810360008301526125778184611ce8565b905092915050565b60008151905061258e81611c1a565b92915050565b6000602082840312156125aa576125a9611a98565b5b60006125b88482850161257f565b91505092915050565b7f53656e646572206973206e6f7420617574686f72697a656420746f20656d697460008201527f20636f6e74656e74206b65790000000000000000000000000000000000000000602082015250565b600061261d602c836124aa565b9150612628826125c1565b602c82019050919050565b600061263e82612610565b9150819050919050565b60008190508160005260206000209050919050565b60006020601f8301049050919050565b600082821b905092915050565b6000600883026126aa7fffffffffffffffffffffffffffffffffffffffffffffffffffffffffffffffff8261266d565b6126b4868361266d565b95508019841693508086168417925050509392505050565b6000819050919050565b60006126f16126ec6126e7846126cc565b611e77565b6126cc565b9050919050565b6000819050919050565b61270b836126d6565b61271f612717826126f8565b84845461267a565b825550505050565b600090565b612734612727565b61273f818484612702565b505050565b5b818110156127635761275860008261272c565b600181019050612745565b5050565b601f8211156127a85761277981612648565b6127828461265d565b81016020851015612791578190505b6127a561279d8561265d565b830182612744565b50505b505050565b600082821c905092915050565b60006127cb600019846008026127ad565b1980831691505092915050565b60006127e483836127ba565b9150826002028217905092915050565b6127fd82611ca2565b67ffffffffffffffff81111561281657612815611abd565b5b612820825461252c565b61282b828285612767565b600060209050601f83116001811461285e576000841561284c578287015190505b61285685826127d8565b8655506128be565b601f19841661286c86612648565b60005b828110156128945784890151825560018201915060208501945060208101905061286f565b868310156128b157848901516128ad601f8916826127ba565b8355505b6001600288020188555050505b505050505050565b6128cf81611c08565b82525050565b600060a0820190506128ea60008301886128c6565b6128f760208301876128c6565b81810360408301526129098186611ce8565b9050818103606083015261291d8185611ce8565b905081810360808301526129318184611ce8565b90509695505050505050565b7f4e487b7100000000000000000000000000000000000000000000000000000000600052603260045260246000fd5b7f53656e646572206973206e6f7420617574686f72697a656420746f20656d697460008201527f206b657973000000000000000000000000000000000000000000000000000000602082015250565b60006129c86025836124aa565b91506129d38261296c565b602582019050919050565b60006129e9826129bb565b9150819050919050565b600060c082019050612a0860008301896128c6565b612a1560208301886128c6565b8181036040830152612a278187611ce8565b90508181036060830152612a3b8186611ce8565b90508181036080830152612a4f8185611ce8565b905081810360a0830152612a638184611ce8565b9050979650505050505050565b7f74686972645f7061727479000000000000000000000000000000000000000000600082015250565b6000612aa6600b836124aa565b9150612ab182612a70565b600b82019050919050565b6000612ac782612a99565b9150819050919050565b6000602082019050612ae660008301846128c6565b92915050565b6000612aff612afa84611b38565b611b1d565b905082815260208101848484011115612b1b57612b1a611aa7565b5b612b26848285611cbe565b509392505050565b600082601f830112612b4357612b42611aa2565b5b8151612b53848260208601612aec565b91505092915050565b600060208284031215612b7257612b71611a98565b5b600082015167ffffffffffffffff811115612b9057612b8f611a9d565b5b612b9c84828501612b2e565b91505092915050565b7f53656e646572206973206e6f7420612074686972645f70617274790000000000600082015250565b6000612bdb601b836124aa565b9150612be682612ba5565b601b82019050919050565b6000612bfc82612bce565b9150819050919050565b7f41636365737320616c7265616479207265717565737465640000000000000000600082015250565b6000612c3c601883611cad565b9150612c4782612c06565b602082019050919050565b60006020820190508181036000830152612c6b81612c2f565b9050919050565b6000606082019050612c8760008301866128c6565b612c9460208301856128c6565b8181036040830152612ca68184611ce8565b9050949350505050565b7f53656e646572206973206e6f7420617574686f72697a656420746f20656d697460008201527f2074656e646572206b6579000000000000000000000000000000000000000000602082015250565b6000612d0c602b836124aa565b9150612d1782612cb0565b602b82019050919050565b6000612d2d82612cff565b915081905091905056fea26469706673582212205c507ed38a903908fc74957cde85bcd96c1a9b9014f24a3790e3d3481caa150264736f6c634300081c0033","opcodes":"PUSH1 0x80 PUSH1 0x40 MSTORE CALLVALUE DUP1 ISZERO PUSH2 0x10 JUMPI PUSH1 0x0 DUP1 REVERT JUMPDEST POP PUSH1 0x40 MLOAD PUSH2 0x2ED9 CODESIZE SUB DUP1 PUSH2 0x2ED9 DUP4 CODECOPY DUP2 DUP2 ADD PUSH1 0x40 MSTORE DUP2 ADD SWAP1 PUSH2 0x32 SWAP2 SWAP1 PUSH2 0x11D JUMP JUMPDEST DUP2 PUSH1 0x0 DUP1 PUSH2 0x100 EXP DUP2 SLOAD DUP2 PUSH20 0xFFFFFFFFFFFFFFFFFFFFFFFFFFFFFFFFFFFFFFFF MUL NOT AND SWAP1 DUP4 PUSH20 0xFFFFFFFFFFFFFFFFFFFFFFFFFFFFFFFFFFFFFFFF AND MUL OR SWAP1 SSTORE POP DUP1 PUSH1 0x1 PUSH1 0x0 PUSH2 0x100 EXP DUP2 SLOAD DUP2 PUSH20 0xFFFFFFFFFFFFFFFFFFFFFFFFFFFFFFFFFFFFFFFF MUL NOT AND SWAP1 DUP4 PUSH20 0xFFFFFFFFFFFFFFFFFFFFFFFFFFFFFFFFFFFFFFFF AND MUL OR SWAP1 SSTORE POP POP POP PUSH2 0x15D JUMP JUMPDEST PUSH1 0x0 DUP1 REVERT JUMPDEST PUSH1 0x0 PUSH20 0xFFFFFFFFFFFFFFFFFFFFFFFFFFFFFFFFFFFFFFFF DUP3 AND SWAP1 POP SWAP2 SWAP1 POP JUMP JUMPDEST PUSH1 0x0 PUSH2 0xEA DUP3 PUSH2 0xBF JUMP JUMPDEST SWAP1 POP SWAP2 SWAP1 POP JUMP JUMPDEST PUSH2 0xFA DUP2 PUSH2 0xDF JUMP JUMPDEST DUP2 EQ PUSH2 0x105 JUMPI PUSH1 0x0 DUP1 REVERT JUMPDEST POP JUMP JUMPDEST PUSH1 0x0 DUP2 MLOAD SWAP1 POP PUSH2 0x117 DUP2 PUSH2 0xF1 JUMP JUMPDEST SWAP3 SWAP2 POP POP JUMP JUMPDEST PUSH1 0x0 DUP1 PUSH1 0x40 DUP4 DUP6 SUB SLT ISZERO PUSH2 0x134 JUMPI PUSH2 0x133 PUSH2 0xBA JUMP JUMPDEST JUMPDEST PUSH1 0x0 PUSH2 0x142 DUP6 DUP3 DUP7 ADD PUSH2 0x108 JUMP JUMPDEST SWAP3 POP POP PUSH1 0x20 PUSH2 0x153 DUP6 DUP3 DUP7 ADD PUSH2 0x108 JUMP JUMPDEST SWAP2 POP POP SWAP3 POP SWAP3 SWAP1 POP JUMP JUMPDEST PUSH2 0x2D6D DUP1 PUSH2 0x16C PUSH1 0x0 CODECOPY PUSH1 0x0 RETURN INVALID PUSH1 0x80 PUSH1 0x40 MSTORE CALLVALUE DUP1 ISZERO PUSH2 0x10 JUMPI PUSH1 0x0 DUP1 REVERT JUMPDEST POP PUSH1 0x4 CALLDATASIZE LT PUSH2 0x93 JUMPI PUSH1 0x0 CALLDATALOAD PUSH1 0xE0 SHR DUP1 PUSH4 0x7DEF3C9A GT PUSH2 0x66 JUMPI DUP1 PUSH4 0x7DEF3C9A EQ PUSH2 0x121 JUMPI DUP1 PUSH4 0x9EC1AADD EQ PUSH2 0x13D JUMPI DUP1 PUSH4 0xA18E460D EQ PUSH2 0x159 JUMPI DUP1 PUSH4 0xA6D047C1 EQ PUSH2 0x175 JUMPI DUP1 PUSH4 0xB5170BA1 EQ PUSH2 0x191 JUMPI PUSH2 0x93 JUMP JUMPDEST DUP1 PUSH4 0xDC80D0C EQ PUSH2 0x98 JUMPI DUP1 PUSH4 0x101643C8 EQ PUSH2 0xC9 JUMPI DUP1 PUSH4 0x408ACD33 EQ PUSH2 0xE5 JUMPI DUP1 PUSH4 0x6DBFDF25 EQ PUSH2 0x103 JUMPI JUMPDEST PUSH1 0x0 DUP1 REVERT JUMPDEST PUSH2 0xB2 PUSH1 0x4 DUP1 CALLDATASIZE SUB DUP2 ADD SWAP1 PUSH2 0xAD SWAP2 SWAP1 PUSH2 0x1C46 JUMP JUMPDEST PUSH2 0x1C2 JUMP JUMPDEST PUSH1 0x40 MLOAD PUSH2 0xC0 SWAP3 SWAP2 SWAP1 PUSH2 0x1D21 JUMP JUMPDEST PUSH1 0x40 MLOAD DUP1 SWAP2 SUB SWAP1 RETURN JUMPDEST PUSH2 0xE3 PUSH1 0x4 DUP1 CALLDATASIZE SUB DUP2 ADD SWAP1 PUSH2 0xDE SWAP2 SWAP1 PUSH2 0x1E2E JUMP JUMPDEST PUSH2 0x39E JUMP JUMPDEST STOP JUMPDEST PUSH2 0xED PUSH2 0x6E7 JUMP JUMPDEST PUSH1 0x40 MLOAD PUSH2 0xFA SWAP2 SWAP1 PUSH2 0x1ED6 JUMP JUMPDEST PUSH1 0x40 MLOAD DUP1 SWAP2 SUB SWAP1 RETURN JUMPDEST PUSH2 0x10B PUSH2 0x70B JUMP JUMPDEST PUSH1 0x40 MLOAD PUSH2 0x118 SWAP2 SWAP1 PUSH2 0x1F12 JUMP JUMPDEST PUSH1 0x40 MLOAD DUP1 SWAP2 SUB SWAP1 RETURN JUMPDEST PUSH2 0x13B PUSH1 0x4 DUP1 CALLDATASIZE SUB DUP2 ADD SWAP1 PUSH2 0x136 SWAP2 SWAP1 PUSH2 0x2197 JUMP JUMPDEST PUSH2 0x731 JUMP JUMPDEST STOP JUMPDEST PUSH2 0x157 PUSH1 0x4 DUP1 CALLDATASIZE SUB DUP2 ADD SWAP1 PUSH2 0x152 SWAP2 SWAP1 PUSH2 0x21E0 JUMP JUMPDEST PUSH2 0xE85 JUMP JUMPDEST STOP JUMPDEST PUSH2 0x173 PUSH1 0x4 DUP1 CALLDATASIZE SUB DUP2 ADD SWAP1 PUSH2 0x16E SWAP2 SWAP1 PUSH2 0x2337 JUMP JUMPDEST PUSH2 0x113B JUMP JUMPDEST STOP JUMPDEST PUSH2 0x18F PUSH1 0x4 DUP1 CALLDATASIZE SUB DUP2 ADD SWAP1 PUSH2 0x18A SWAP2 SWAP1 PUSH2 0x2461 JUMP JUMPDEST PUSH2 0x13F7 JUMP JUMPDEST STOP JUMPDEST PUSH2 0x1AB PUSH1 0x4 DUP1 CALLDATASIZE SUB DUP2 ADD SWAP1 PUSH2 0x1A6 SWAP2 SWAP1 PUSH2 0x1C46 JUMP JUMPDEST PUSH2 0x18B2 JUMP JUMPDEST PUSH1 0x40 MLOAD PUSH2 0x1B9 SWAP3 SWAP2 SWAP1 PUSH2 0x1D21 JUMP JUMPDEST PUSH1 0x40 MLOAD DUP1 SWAP2 SUB SWAP1 RETURN JUMPDEST PUSH1 0x60 DUP1 PUSH1 0x5 DUP5 PUSH1 0x40 MLOAD PUSH2 0x1D5 SWAP2 SWAP1 PUSH2 0x24E6 JUMP JUMPDEST SWAP1 DUP2 MSTORE PUSH1 0x20 ADD PUSH1 0x40 MLOAD DUP1 SWAP2 SUB SWAP1 KECCAK256 PUSH1 0x0 DUP5 PUSH20 0xFFFFFFFFFFFFFFFFFFFFFFFFFFFFFFFFFFFFFFFF AND PUSH20 0xFFFFFFFFFFFFFFFFFFFFFFFFFFFFFFFFFFFFFFFF AND DUP2 MSTORE PUSH1 0x20 ADD SWAP1 DUP2 MSTORE PUSH1 0x20 ADD PUSH1 0x0 KECCAK256 PUSH1 0x6 DUP6 PUSH1 0x40 MLOAD PUSH2 0x230 SWAP2 SWAP1 PUSH2 0x24E6 JUMP JUMPDEST SWAP1 DUP2 MSTORE PUSH1 0x20 ADD PUSH1 0x40 MLOAD DUP1 SWAP2 SUB SWAP1 KECCAK256 PUSH1 0x0 DUP6 PUSH20 0xFFFFFFFFFFFFFFFFFFFFFFFFFFFFFFFFFFFFFFFF AND PUSH20 0xFFFFFFFFFFFFFFFFFFFFFFFFFFFFFFFFFFFFFFFF AND DUP2 MSTORE PUSH1 0x20 ADD SWAP1 DUP2 MSTORE PUSH1 0x20 ADD PUSH1 0x0 KECCAK256 DUP2 DUP1 SLOAD PUSH2 0x287 SWAP1 PUSH2 0x252C JUMP JUMPDEST DUP1 PUSH1 0x1F ADD PUSH1 0x20 DUP1 SWAP2 DIV MUL PUSH1 0x20 ADD PUSH1 0x40 MLOAD SWAP1 DUP2 ADD PUSH1 0x40 MSTORE DUP1 SWAP3 SWAP2 SWAP1 DUP2 DUP2 MSTORE PUSH1 0x20 ADD DUP3 DUP1 SLOAD PUSH2 0x2B3 SWAP1 PUSH2 0x252C JUMP JUMPDEST DUP1 ISZERO PUSH2 0x300 JUMPI DUP1 PUSH1 0x1F LT PUSH2 0x2D5 JUMPI PUSH2 0x100 DUP1 DUP4 SLOAD DIV MUL DUP4 MSTORE SWAP2 PUSH1 0x20 ADD SWAP2 PUSH2 0x300 JUMP JUMPDEST DUP3 ADD SWAP2 SWAP1 PUSH1 0x0 MSTORE PUSH1 0x20 PUSH1 0x0 KECCAK256 SWAP1 JUMPDEST DUP2 SLOAD DUP2 MSTORE SWAP1 PUSH1 0x1 ADD SWAP1 PUSH1 0x20 ADD DUP1 DUP4 GT PUSH2 0x2E3 JUMPI DUP3 SWAP1 SUB PUSH1 0x1F AND DUP3 ADD SWAP2 JUMPDEST POP POP POP POP POP SWAP2 POP DUP1 DUP1 SLOAD PUSH2 0x313 SWAP1 PUSH2 0x252C JUMP JUMPDEST DUP1 PUSH1 0x1F ADD PUSH1 0x20 DUP1 SWAP2 DIV MUL PUSH1 0x20 ADD PUSH1 0x40 MLOAD SWAP1 DUP2 ADD PUSH1 0x40 MSTORE DUP1 SWAP3 SWAP2 SWAP1 DUP2 DUP2 MSTORE PUSH1 0x20 ADD DUP3 DUP1 SLOAD PUSH2 0x33F SWAP1 PUSH2 0x252C JUMP JUMPDEST DUP1 ISZERO PUSH2 0x38C JUMPI DUP1 PUSH1 0x1F LT PUSH2 0x361 JUMPI PUSH2 0x100 DUP1 DUP4 SLOAD DIV MUL DUP4 MSTORE SWAP2 PUSH1 0x20 ADD SWAP2 PUSH2 0x38C JUMP JUMPDEST DUP3 ADD SWAP2 SWAP1 PUSH1 0x0 MSTORE PUSH1 0x20 PUSH1 0x0 KECCAK256 SWAP1 JUMPDEST DUP2 SLOAD DUP2 MSTORE SWAP1 PUSH1 0x1 ADD SWAP1 PUSH1 0x20 ADD DUP1 DUP4 GT PUSH2 0x36F JUMPI DUP3 SWAP1 SUB PUSH1 0x1F AND DUP3 ADD SWAP2 JUMPDEST POP POP POP POP POP SWAP1 POP SWAP2 POP SWAP2 POP SWAP3 POP SWAP3 SWAP1 POP JUMP JUMPDEST PUSH1 0x0 CALLER PUSH20 0xFFFFFFFFFFFFFFFFFFFFFFFFFFFFFFFFFFFFFFFF AND PUSH1 0x0 DUP1 SLOAD SWAP1 PUSH2 0x100 EXP SWAP1 DIV PUSH20 0xFFFFFFFFFFFFFFFFFFFFFFFFFFFFFFFFFFFFFFFF AND PUSH20 0xFFFFFFFFFFFFFFFFFFFFFFFFFFFFFFFFFFFFFFFF AND PUSH4 0xCB356D91 DUP5 PUSH1 0x60 ADD MLOAD PUSH1 0x40 MLOAD DUP3 PUSH4 0xFFFFFFFF AND PUSH1 0xE0 SHL DUP2 MSTORE PUSH1 0x4 ADD PUSH2 0x414 SWAP2 SWAP1 PUSH2 0x255D JUMP JUMPDEST PUSH1 0x20 PUSH1 0x40 MLOAD DUP1 DUP4 SUB DUP2 DUP7 GAS STATICCALL ISZERO DUP1 ISZERO PUSH2 0x431 JUMPI RETURNDATASIZE PUSH1 0x0 DUP1 RETURNDATACOPY RETURNDATASIZE PUSH1 0x0 REVERT JUMPDEST POP POP POP POP PUSH1 0x40 MLOAD RETURNDATASIZE PUSH1 0x1F NOT PUSH1 0x1F DUP3 ADD AND DUP3 ADD DUP1 PUSH1 0x40 MSTORE POP DUP2 ADD SWAP1 PUSH2 0x455 SWAP2 SWAP1 PUSH2 0x2594 JUMP JUMPDEST PUSH20 0xFFFFFFFFFFFFFFFFFFFFFFFFFFFFFFFFFFFFFFFF AND EQ SWAP1 POP PUSH1 0x0 CALLER PUSH20 0xFFFFFFFFFFFFFFFFFFFFFFFFFFFFFFFFFFFFFFFF AND PUSH1 0x0 DUP1 SLOAD SWAP1 PUSH2 0x100 EXP SWAP1 DIV PUSH20 0xFFFFFFFFFFFFFFFFFFFFFFFFFFFFFFFFFFFFFFFF AND PUSH20 0xFFFFFFFFFFFFFFFFFFFFFFFFFFFFFFFFFFFFFFFF AND PUSH4 0x1F567BCB DUP6 PUSH1 0x60 ADD MLOAD PUSH1 0x40 MLOAD DUP3 PUSH4 0xFFFFFFFF AND PUSH1 0xE0 SHL DUP2 MSTORE PUSH1 0x4 ADD PUSH2 0x4E4 SWAP2 SWAP1 PUSH2 0x255D JUMP JUMPDEST PUSH1 0x20 PUSH1 0x40 MLOAD DUP1 DUP4 SUB DUP2 DUP7 GAS STATICCALL ISZERO DUP1 ISZERO PUSH2 0x501 JUMPI RETURNDATASIZE PUSH1 0x0 DUP1 RETURNDATACOPY RETURNDATASIZE PUSH1 0x0 REVERT JUMPDEST POP POP POP POP PUSH1 0x40 MLOAD RETURNDATASIZE PUSH1 0x1F NOT PUSH1 0x1F DUP3 ADD AND DUP3 ADD DUP1 PUSH1 0x40 MSTORE POP DUP2 ADD SWAP1 PUSH2 0x525 SWAP2 SWAP1 PUSH2 0x2594 JUMP JUMPDEST PUSH20 0xFFFFFFFFFFFFFFFFFFFFFFFFFFFFFFFFFFFFFFFF AND EQ SWAP1 POP DUP2 ISZERO DUP1 ISZERO PUSH2 0x54A JUMPI POP DUP1 ISZERO JUMPDEST ISZERO PUSH2 0x5A9 JUMPI PUSH1 0x40 MLOAD PUSH1 0x20 ADD PUSH2 0x55E SWAP1 PUSH2 0x2633 JUMP JUMPDEST PUSH1 0x40 MLOAD PUSH1 0x20 DUP2 DUP4 SUB SUB DUP2 MSTORE SWAP1 PUSH1 0x40 MSTORE PUSH1 0x40 MLOAD PUSH32 0x8C379A000000000000000000000000000000000000000000000000000000000 DUP2 MSTORE PUSH1 0x4 ADD PUSH2 0x5A0 SWAP2 SWAP1 PUSH2 0x255D JUMP JUMPDEST PUSH1 0x40 MLOAD DUP1 SWAP2 SUB SWAP1 REVERT JUMPDEST DUP3 PUSH1 0x20 ADD MLOAD PUSH1 0x2 DUP5 PUSH1 0x60 ADD MLOAD PUSH1 0x40 MLOAD PUSH2 0x5C2 SWAP2 SWAP1 PUSH2 0x24E6 JUMP JUMPDEST SWAP1 DUP2 MSTORE PUSH1 0x20 ADD PUSH1 0x40 MLOAD DUP1 SWAP2 SUB SWAP1 KECCAK256 PUSH1 0x0 DUP6 PUSH1 0x0 ADD MLOAD PUSH20 0xFFFFFFFFFFFFFFFFFFFFFFFFFFFFFFFFFFFFFFFF AND PUSH20 0xFFFFFFFFFFFFFFFFFFFFFFFFFFFFFFFFFFFFFFFF AND DUP2 MSTORE PUSH1 0x20 ADD SWAP1 DUP2 MSTORE PUSH1 0x20 ADD PUSH1 0x0 KECCAK256 SWAP1 DUP2 PUSH2 0x61D SWAP2 SWAP1 PUSH2 0x27F4 JUMP JUMPDEST POP DUP3 PUSH1 0x40 ADD MLOAD PUSH1 0x3 DUP5 PUSH1 0x60 ADD MLOAD PUSH1 0x40 MLOAD PUSH2 0x637 SWAP2 SWAP1 PUSH2 0x24E6 JUMP JUMPDEST SWAP1 DUP2 MSTORE PUSH1 0x20 ADD PUSH1 0x40 MLOAD DUP1 SWAP2 SUB SWAP1 KECCAK256 PUSH1 0x0 DUP6 PUSH1 0x0 ADD MLOAD PUSH20 0xFFFFFFFFFFFFFFFFFFFFFFFFFFFFFFFFFFFFFFFF AND PUSH20 0xFFFFFFFFFFFFFFFFFFFFFFFFFFFFFFFFFFFFFFFF AND DUP2 MSTORE PUSH1 0x20 ADD SWAP1 DUP2 MSTORE PUSH1 0x20 ADD PUSH1 0x0 KECCAK256 SWAP1 DUP2 PUSH2 0x692 SWAP2 SWAP1 PUSH2 0x27F4 JUMP JUMPDEST POP PUSH32 0x7BF5593DE59B1AB6196194664FE98B1D1DC3DF5EE48141FD577F0FF7AFD9BB82 DUP4 PUSH1 0x0 ADD MLOAD CALLER DUP6 PUSH1 0x20 ADD MLOAD DUP7 PUSH1 0x40 ADD MLOAD DUP8 PUSH1 0x60 ADD MLOAD PUSH1 0x40 MLOAD PUSH2 0x6DA SWAP6 SWAP5 SWAP4 SWAP3 SWAP2 SWAP1 PUSH2 0x28D5 JUMP JUMPDEST PUSH1 0x40 MLOAD DUP1 SWAP2 SUB SWAP1 LOG1 POP POP POP JUMP JUMPDEST PUSH1 0x0 DUP1 SLOAD SWAP1 PUSH2 0x100 EXP SWAP1 DIV PUSH20 0xFFFFFFFFFFFFFFFFFFFFFFFFFFFFFFFFFFFFFFFF AND DUP2 JUMP JUMPDEST PUSH1 0x1 PUSH1 0x0 SWAP1 SLOAD SWAP1 PUSH2 0x100 EXP SWAP1 DIV PUSH20 0xFFFFFFFFFFFFFFFFFFFFFFFFFFFFFFFFFFFFFFFF AND DUP2 JUMP JUMPDEST PUSH1 0x0 JUMPDEST DUP2 MLOAD DUP2 LT ISZERO PUSH2 0xE81 JUMPI PUSH1 0x0 CALLER PUSH20 0xFFFFFFFFFFFFFFFFFFFFFFFFFFFFFFFFFFFFFFFF AND PUSH1 0x0 DUP1 SLOAD SWAP1 PUSH2 0x100 EXP SWAP1 DIV PUSH20 0xFFFFFFFFFFFFFFFFFFFFFFFFFFFFFFFFFFFFFFFF AND PUSH20 0xFFFFFFFFFFFFFFFFFFFFFFFFFFFFFFFFFFFFFFFF AND PUSH4 0xCB356D91 DUP6 DUP6 DUP2 MLOAD DUP2 LT PUSH2 0x7A5 JUMPI PUSH2 0x7A4 PUSH2 0x293D JUMP JUMPDEST JUMPDEST PUSH1 0x20 MUL PUSH1 0x20 ADD ADD MLOAD PUSH1 0x0 ADD MLOAD PUSH1 0x60 ADD MLOAD PUSH1 0x40 MLOAD DUP3 PUSH4 0xFFFFFFFF AND PUSH1 0xE0 SHL DUP2 MSTORE PUSH1 0x4 ADD PUSH2 0x7D1 SWAP2 SWAP1 PUSH2 0x255D JUMP JUMPDEST PUSH1 0x20 PUSH1 0x40 MLOAD DUP1 DUP4 SUB DUP2 DUP7 GAS STATICCALL ISZERO DUP1 ISZERO PUSH2 0x7EE JUMPI RETURNDATASIZE PUSH1 0x0 DUP1 RETURNDATACOPY RETURNDATASIZE PUSH1 0x0 REVERT JUMPDEST POP POP POP POP PUSH1 0x40 MLOAD RETURNDATASIZE PUSH1 0x1F NOT PUSH1 0x1F DUP3 ADD AND DUP3 ADD DUP1 PUSH1 0x40 MSTORE POP DUP2 ADD SWAP1 PUSH2 0x812 SWAP2 SWAP1 PUSH2 0x2594 JUMP JUMPDEST PUSH20 0xFFFFFFFFFFFFFFFFFFFFFFFFFFFFFFFFFFFFFFFF AND EQ SWAP1 POP PUSH1 0x0 CALLER PUSH20 0xFFFFFFFFFFFFFFFFFFFFFFFFFFFFFFFFFFFFFFFF AND PUSH1 0x0 DUP1 SLOAD SWAP1 PUSH2 0x100 EXP SWAP1 DIV PUSH20 0xFFFFFFFFFFFFFFFFFFFFFFFFFFFFFFFFFFFFFFFF AND PUSH20 0xFFFFFFFFFFFFFFFFFFFFFFFFFFFFFFFFFFFFFFFF AND PUSH4 0x1F567BCB DUP7 DUP7 DUP2 MLOAD DUP2 LT PUSH2 0x893 JUMPI PUSH2 0x892 PUSH2 0x293D JUMP JUMPDEST JUMPDEST PUSH1 0x20 MUL PUSH1 0x20 ADD ADD MLOAD PUSH1 0x0 ADD MLOAD PUSH1 0x60 ADD MLOAD PUSH1 0x40 MLOAD DUP3 PUSH4 0xFFFFFFFF AND PUSH1 0xE0 SHL DUP2 MSTORE PUSH1 0x4 ADD PUSH2 0x8BF SWAP2 SWAP1 PUSH2 0x255D JUMP JUMPDEST PUSH1 0x20 PUSH1 0x40 MLOAD DUP1 DUP4 SUB DUP2 DUP7 GAS STATICCALL ISZERO DUP1 ISZERO PUSH2 0x8DC JUMPI RETURNDATASIZE PUSH1 0x0 DUP1 RETURNDATACOPY RETURNDATASIZE PUSH1 0x0 REVERT JUMPDEST POP POP POP POP PUSH1 0x40 MLOAD RETURNDATASIZE PUSH1 0x1F NOT PUSH1 0x1F DUP3 ADD AND DUP3 ADD DUP1 PUSH1 0x40 MSTORE POP DUP2 ADD SWAP1 PUSH2 0x900 SWAP2 SWAP1 PUSH2 0x2594 JUMP JUMPDEST PUSH20 0xFFFFFFFFFFFFFFFFFFFFFFFFFFFFFFFFFFFFFFFF AND EQ SWAP1 POP DUP2 ISZERO DUP1 ISZERO PUSH2 0x925 JUMPI POP DUP1 ISZERO JUMPDEST ISZERO PUSH2 0x984 JUMPI PUSH1 0x40 MLOAD PUSH1 0x20 ADD PUSH2 0x939 SWAP1 PUSH2 0x29DE JUMP JUMPDEST PUSH1 0x40 MLOAD PUSH1 0x20 DUP2 DUP4 SUB SUB DUP2 MSTORE SWAP1 PUSH1 0x40 MSTORE PUSH1 0x40 MLOAD PUSH32 0x8C379A000000000000000000000000000000000000000000000000000000000 DUP2 MSTORE PUSH1 0x4 ADD PUSH2 0x97B SWAP2 SWAP1 PUSH2 0x255D JUMP JUMPDEST PUSH1 0x40 MLOAD DUP1 SWAP2 SUB SWAP1 REVERT JUMPDEST DUP4 DUP4 DUP2 MLOAD DUP2 LT PUSH2 0x997 JUMPI PUSH2 0x996 PUSH2 0x293D JUMP JUMPDEST JUMPDEST PUSH1 0x20 MUL PUSH1 0x20 ADD ADD MLOAD PUSH1 0x0 ADD MLOAD PUSH1 0x20 ADD MLOAD PUSH1 0x2 DUP6 DUP6 DUP2 MLOAD DUP2 LT PUSH2 0x9BC JUMPI PUSH2 0x9BB PUSH2 0x293D JUMP JUMPDEST JUMPDEST PUSH1 0x20 MUL PUSH1 0x20 ADD ADD MLOAD PUSH1 0x0 ADD MLOAD PUSH1 0x60 ADD MLOAD PUSH1 0x40 MLOAD PUSH2 0x9D9 SWAP2 SWAP1 PUSH2 0x24E6 JUMP JUMPDEST SWAP1 DUP2 MSTORE PUSH1 0x20 ADD PUSH1 0x40 MLOAD DUP1 SWAP2 SUB SWAP1 KECCAK256 PUSH1 0x0 DUP7 DUP7 DUP2 MLOAD DUP2 LT PUSH2 0x9FC JUMPI PUSH2 0x9FB PUSH2 0x293D JUMP JUMPDEST JUMPDEST PUSH1 0x20 MUL PUSH1 0x20 ADD ADD MLOAD PUSH1 0x0 ADD MLOAD PUSH1 0x0 ADD MLOAD PUSH20 0xFFFFFFFFFFFFFFFFFFFFFFFFFFFFFFFFFFFFFFFF AND PUSH20 0xFFFFFFFFFFFFFFFFFFFFFFFFFFFFFFFFFFFFFFFF AND DUP2 MSTORE PUSH1 0x20 ADD SWAP1 DUP2 MSTORE PUSH1 0x20 ADD PUSH1 0x0 KECCAK256 SWAP1 DUP2 PUSH2 0xA52 SWAP2 SWAP1 PUSH2 0x27F4 JUMP JUMPDEST POP DUP4 DUP4 DUP2 MLOAD DUP2 LT PUSH2 0xA66 JUMPI PUSH2 0xA65 PUSH2 0x293D JUMP JUMPDEST JUMPDEST PUSH1 0x20 MUL PUSH1 0x20 ADD ADD MLOAD PUSH1 0x0 ADD MLOAD PUSH1 0x40 ADD MLOAD PUSH1 0x3 DUP6 DUP6 DUP2 MLOAD DUP2 LT PUSH2 0xA8B JUMPI PUSH2 0xA8A PUSH2 0x293D JUMP JUMPDEST JUMPDEST PUSH1 0x20 MUL PUSH1 0x20 ADD ADD MLOAD PUSH1 0x0 ADD MLOAD PUSH1 0x60 ADD MLOAD PUSH1 0x40 MLOAD PUSH2 0xAA8 SWAP2 SWAP1 PUSH2 0x24E6 JUMP JUMPDEST SWAP1 DUP2 MSTORE PUSH1 0x20 ADD PUSH1 0x40 MLOAD DUP1 SWAP2 SUB SWAP1 KECCAK256 PUSH1 0x0 DUP7 DUP7 DUP2 MLOAD DUP2 LT PUSH2 0xACB JUMPI PUSH2 0xACA PUSH2 0x293D JUMP JUMPDEST JUMPDEST PUSH1 0x20 MUL PUSH1 0x20 ADD ADD MLOAD PUSH1 0x0 ADD MLOAD PUSH1 0x0 ADD MLOAD PUSH20 0xFFFFFFFFFFFFFFFFFFFFFFFFFFFFFFFFFFFFFFFF AND PUSH20 0xFFFFFFFFFFFFFFFFFFFFFFFFFFFFFFFFFFFFFFFF AND DUP2 MSTORE PUSH1 0x20 ADD SWAP1 DUP2 MSTORE PUSH1 0x20 ADD PUSH1 0x0 KECCAK256 SWAP1 DUP2 PUSH2 0xB21 SWAP2 SWAP1 PUSH2 0x27F4 JUMP JUMPDEST POP PUSH32 0x7BF5593DE59B1AB6196194664FE98B1D1DC3DF5EE48141FD577F0FF7AFD9BB82 DUP5 DUP5 DUP2 MLOAD DUP2 LT PUSH2 0xB56 JUMPI PUSH2 0xB55 PUSH2 0x293D JUMP JUMPDEST JUMPDEST PUSH1 0x20 MUL PUSH1 0x20 ADD ADD MLOAD PUSH1 0x0 ADD MLOAD PUSH1 0x0 ADD MLOAD CALLER DUP7 DUP7 DUP2 MLOAD DUP2 LT PUSH2 0xB7A JUMPI PUSH2 0xB79 PUSH2 0x293D JUMP JUMPDEST JUMPDEST PUSH1 0x20 MUL PUSH1 0x20 ADD ADD MLOAD PUSH1 0x0 ADD MLOAD PUSH1 0x20 ADD MLOAD DUP8 DUP8 DUP2 MLOAD DUP2 LT PUSH2 0xB9D JUMPI PUSH2 0xB9C PUSH2 0x293D JUMP JUMPDEST JUMPDEST PUSH1 0x20 MUL PUSH1 0x20 ADD ADD MLOAD PUSH1 0x0 ADD MLOAD PUSH1 0x40 ADD MLOAD DUP9 DUP9 DUP2 MLOAD DUP2 LT PUSH2 0xBC0 JUMPI PUSH2 0xBBF PUSH2 0x293D JUMP JUMPDEST JUMPDEST PUSH1 0x20 MUL PUSH1 0x20 ADD ADD MLOAD PUSH1 0x0 ADD MLOAD PUSH1 0x60 ADD MLOAD PUSH1 0x40 MLOAD PUSH2 0xBE1 SWAP6 SWAP5 SWAP4 SWAP3 SWAP2 SWAP1 PUSH2 0x28D5 JUMP JUMPDEST PUSH1 0x40 MLOAD DUP1 SWAP2 SUB SWAP1 LOG1 DUP4 DUP4 DUP2 MLOAD DUP2 LT PUSH2 0xBFC JUMPI PUSH2 0xBFB PUSH2 0x293D JUMP JUMPDEST JUMPDEST PUSH1 0x20 MUL PUSH1 0x20 ADD ADD MLOAD PUSH1 0x20 ADD MLOAD PUSH1 0x20 ADD MLOAD PUSH1 0x5 DUP6 DUP6 DUP2 MLOAD DUP2 LT PUSH2 0xC21 JUMPI PUSH2 0xC20 PUSH2 0x293D JUMP JUMPDEST JUMPDEST PUSH1 0x20 MUL PUSH1 0x20 ADD ADD MLOAD PUSH1 0x20 ADD MLOAD PUSH1 0x60 ADD MLOAD PUSH1 0x40 MLOAD PUSH2 0xC3E SWAP2 SWAP1 PUSH2 0x24E6 JUMP JUMPDEST SWAP1 DUP2 MSTORE PUSH1 0x20 ADD PUSH1 0x40 MLOAD DUP1 SWAP2 SUB SWAP1 KECCAK256 PUSH1 0x0 DUP7 DUP7 DUP2 MLOAD DUP2 LT PUSH2 0xC61 JUMPI PUSH2 0xC60 PUSH2 0x293D JUMP JUMPDEST JUMPDEST PUSH1 0x20 MUL PUSH1 0x20 ADD ADD MLOAD PUSH1 0x20 ADD MLOAD PUSH1 0x0 ADD MLOAD PUSH20 0xFFFFFFFFFFFFFFFFFFFFFFFFFFFFFFFFFFFFFFFF AND PUSH20 0xFFFFFFFFFFFFFFFFFFFFFFFFFFFFFFFFFFFFFFFF AND DUP2 MSTORE PUSH1 0x20 ADD SWAP1 DUP2 MSTORE PUSH1 0x20 ADD PUSH1 0x0 KECCAK256 SWAP1 DUP2 PUSH2 0xCB7 SWAP2 SWAP1 PUSH2 0x27F4 JUMP JUMPDEST POP DUP4 DUP4 DUP2 MLOAD DUP2 LT PUSH2 0xCCB JUMPI PUSH2 0xCCA PUSH2 0x293D JUMP JUMPDEST JUMPDEST PUSH1 0x20 MUL PUSH1 0x20 ADD ADD MLOAD PUSH1 0x20 ADD MLOAD PUSH1 0x40 ADD MLOAD PUSH1 0x6 DUP6 DUP6 DUP2 MLOAD DUP2 LT PUSH2 0xCF0 JUMPI PUSH2 0xCEF PUSH2 0x293D JUMP JUMPDEST JUMPDEST PUSH1 0x20 MUL PUSH1 0x20 ADD ADD MLOAD PUSH1 0x20 ADD MLOAD PUSH1 0x60 ADD MLOAD PUSH1 0x40 MLOAD PUSH2 0xD0D SWAP2 SWAP1 PUSH2 0x24E6 JUMP JUMPDEST SWAP1 DUP2 MSTORE PUSH1 0x20 ADD PUSH1 0x40 MLOAD DUP1 SWAP2 SUB SWAP1 KECCAK256 PUSH1 0x0 DUP7 DUP7 DUP2 MLOAD DUP2 LT PUSH2 0xD30 JUMPI PUSH2 0xD2F PUSH2 0x293D JUMP JUMPDEST JUMPDEST PUSH1 0x20 MUL PUSH1 0x20 ADD ADD MLOAD PUSH1 0x20 ADD MLOAD PUSH1 0x0 ADD MLOAD PUSH20 0xFFFFFFFFFFFFFFFFFFFFFFFFFFFFFFFFFFFFFFFF AND PUSH20 0xFFFFFFFFFFFFFFFFFFFFFFFFFFFFFFFFFFFFFFFF AND DUP2 MSTORE PUSH1 0x20 ADD SWAP1 DUP2 MSTORE PUSH1 0x20 ADD PUSH1 0x0 KECCAK256 SWAP1 DUP2 PUSH2 0xD86 SWAP2 SWAP1 PUSH2 0x27F4 JUMP JUMPDEST POP PUSH32 0x3E88A46403613C6E45C352AAB06CE620D60806C1FAFE6834AAB5F0EDD076314D DUP5 DUP5 DUP2 MLOAD DUP2 LT PUSH2 0xDBB JUMPI PUSH2 0xDBA PUSH2 0x293D JUMP JUMPDEST JUMPDEST PUSH1 0x20 MUL PUSH1 0x20 ADD ADD MLOAD PUSH1 0x20 ADD MLOAD PUSH1 0x0 ADD MLOAD CALLER DUP7 DUP7 DUP2 MLOAD DUP2 LT PUSH2 0xDDF JUMPI PUSH2 0xDDE PUSH2 0x293D JUMP JUMPDEST JUMPDEST PUSH1 0x20 MUL PUSH1 0x20 ADD ADD MLOAD PUSH1 0x20 ADD MLOAD PUSH1 0x20 ADD MLOAD DUP8 DUP8 DUP2 MLOAD DUP2 LT PUSH2 0xE02 JUMPI PUSH2 0xE01 PUSH2 0x293D JUMP JUMPDEST JUMPDEST PUSH1 0x20 MUL PUSH1 0x20 ADD ADD MLOAD PUSH1 0x20 ADD MLOAD PUSH1 0x40 ADD MLOAD DUP9 DUP9 DUP2 MLOAD DUP2 LT PUSH2 0xE25 JUMPI PUSH2 0xE24 PUSH2 0x293D JUMP JUMPDEST JUMPDEST PUSH1 0x20 MUL PUSH1 0x20 ADD ADD MLOAD PUSH1 0x20 ADD MLOAD PUSH1 0x60 ADD MLOAD DUP10 DUP10 DUP2 MLOAD DUP2 LT PUSH2 0xE48 JUMPI PUSH2 0xE47 PUSH2 0x293D JUMP JUMPDEST JUMPDEST PUSH1 0x20 MUL PUSH1 0x20 ADD ADD MLOAD PUSH1 0x20 ADD MLOAD PUSH1 0x80 ADD MLOAD PUSH1 0x40 MLOAD PUSH2 0xE6A SWAP7 SWAP6 SWAP5 SWAP4 SWAP3 SWAP2 SWAP1 PUSH2 0x29F3 JUMP JUMPDEST PUSH1 0x40 MLOAD DUP1 SWAP2 SUB SWAP1 LOG1 POP POP DUP1 DUP1 PUSH1 0x1 ADD SWAP2 POP POP PUSH2 0x734 JUMP JUMPDEST POP POP JUMP JUMPDEST PUSH1 0x40 MLOAD PUSH1 0x20 ADD PUSH2 0xE94 SWAP1 PUSH2 0x2ABC JUMP JUMPDEST PUSH1 0x40 MLOAD PUSH1 0x20 DUP2 DUP4 SUB SUB DUP2 MSTORE SWAP1 PUSH1 0x40 MSTORE DUP1 MLOAD SWAP1 PUSH1 0x20 ADD KECCAK256 PUSH1 0x1 PUSH1 0x0 SWAP1 SLOAD SWAP1 PUSH2 0x100 EXP SWAP1 DIV PUSH20 0xFFFFFFFFFFFFFFFFFFFFFFFFFFFFFFFFFFFFFFFF AND PUSH20 0xFFFFFFFFFFFFFFFFFFFFFFFFFFFFFFFFFFFFFFFF AND PUSH4 0x44276733 CALLER PUSH1 0x40 MLOAD DUP3 PUSH4 0xFFFFFFFF AND PUSH1 0xE0 SHL DUP2 MSTORE PUSH1 0x4 ADD PUSH2 0xF05 SWAP2 SWAP1 PUSH2 0x2AD1 JUMP JUMPDEST PUSH1 0x0 PUSH1 0x40 MLOAD DUP1 DUP4 SUB DUP2 DUP7 GAS STATICCALL ISZERO DUP1 ISZERO PUSH2 0xF22 JUMPI RETURNDATASIZE PUSH1 0x0 DUP1 RETURNDATACOPY RETURNDATASIZE PUSH1 0x0 REVERT JUMPDEST POP POP POP POP PUSH1 0x40 MLOAD RETURNDATASIZE PUSH1 0x0 DUP3 RETURNDATACOPY RETURNDATASIZE PUSH1 0x1F NOT PUSH1 0x1F DUP3 ADD AND DUP3 ADD DUP1 PUSH1 0x40 MSTORE POP DUP2 ADD SWAP1 PUSH2 0xF4B SWAP2 SWAP1 PUSH2 0x2B5C JUMP JUMPDEST PUSH1 0x40 MLOAD PUSH1 0x20 ADD PUSH2 0xF5B SWAP2 SWAP1 PUSH2 0x24E6 JUMP JUMPDEST PUSH1 0x40 MLOAD PUSH1 0x20 DUP2 DUP4 SUB SUB DUP2 MSTORE SWAP1 PUSH1 0x40 MSTORE DUP1 MLOAD SWAP1 PUSH1 0x20 ADD KECCAK256 EQ PUSH2 0xFD0 JUMPI PUSH1 0x40 MLOAD PUSH1 0x20 ADD PUSH2 0xF85 SWAP1 PUSH2 0x2BF1 JUMP JUMPDEST PUSH1 0x40 MLOAD PUSH1 0x20 DUP2 DUP4 SUB SUB DUP2 MSTORE SWAP1 PUSH1 0x40 MSTORE PUSH1 0x40 MLOAD PUSH32 0x8C379A000000000000000000000000000000000000000000000000000000000 DUP2 MSTORE PUSH1 0x4 ADD PUSH2 0xFC7 SWAP2 SWAP1 PUSH2 0x255D JUMP JUMPDEST PUSH1 0x40 MLOAD DUP1 SWAP2 SUB SWAP1 REVERT JUMPDEST PUSH1 0x0 ISZERO ISZERO PUSH1 0x7 DUP7 PUSH1 0x40 MLOAD PUSH2 0xFE4 SWAP2 SWAP1 PUSH2 0x24E6 JUMP JUMPDEST SWAP1 DUP2 MSTORE PUSH1 0x20 ADD PUSH1 0x40 MLOAD DUP1 SWAP2 SUB SWAP1 KECCAK256 PUSH1 0x0 CALLER PUSH20 0xFFFFFFFFFFFFFFFFFFFFFFFFFFFFFFFFFFFFFFFF AND PUSH20 0xFFFFFFFFFFFFFFFFFFFFFFFFFFFFFFFFFFFFFFFF AND DUP2 MSTORE PUSH1 0x20 ADD SWAP1 DUP2 MSTORE PUSH1 0x20 ADD PUSH1 0x0 KECCAK256 PUSH1 0x0 SWAP1 SLOAD SWAP1 PUSH2 0x100 EXP SWAP1 DIV PUSH1 0xFF AND ISZERO ISZERO EQ PUSH2 0x107F JUMPI PUSH1 0x40 MLOAD PUSH32 0x8C379A000000000000000000000000000000000000000000000000000000000 DUP2 MSTORE PUSH1 0x4 ADD PUSH2 0x1076 SWAP1 PUSH2 0x2C52 JUMP JUMPDEST PUSH1 0x40 MLOAD DUP1 SWAP2 SUB SWAP1 REVERT JUMPDEST PUSH1 0x1 PUSH1 0x7 DUP7 PUSH1 0x40 MLOAD PUSH2 0x1091 SWAP2 SWAP1 PUSH2 0x24E6 JUMP JUMPDEST SWAP1 DUP2 MSTORE PUSH1 0x20 ADD PUSH1 0x40 MLOAD DUP1 SWAP2 SUB SWAP1 KECCAK256 PUSH1 0x0 CALLER PUSH20 0xFFFFFFFFFFFFFFFFFFFFFFFFFFFFFFFFFFFFFFFF AND PUSH20 0xFFFFFFFFFFFFFFFFFFFFFFFFFFFFFFFFFFFFFFFF AND DUP2 MSTORE PUSH1 0x20 ADD SWAP1 DUP2 MSTORE PUSH1 0x20 ADD PUSH1 0x0 KECCAK256 PUSH1 0x0 PUSH2 0x100 EXP DUP2 SLOAD DUP2 PUSH1 0xFF MUL NOT AND SWAP1 DUP4 ISZERO ISZERO MUL OR SWAP1 SSTORE POP PUSH32 0xA2B873BCBDB25B34BB52B63D8D02F740E9E8D0A591CAE0C92BF793D9E89AA18E CALLER DUP3 DUP8 DUP8 DUP8 DUP8 PUSH1 0x40 MLOAD PUSH2 0x112C SWAP7 SWAP6 SWAP5 SWAP4 SWAP3 SWAP2 SWAP1 PUSH2 0x29F3 JUMP JUMPDEST PUSH1 0x40 MLOAD DUP1 SWAP2 SUB SWAP1 LOG1 POP POP POP POP POP JUMP JUMPDEST PUSH1 0x40 MLOAD PUSH1 0x20 ADD PUSH2 0x114A SWAP1 PUSH2 0x2ABC JUMP JUMPDEST PUSH1 0x40 MLOAD PUSH1 0x20 DUP2 DUP4 SUB SUB DUP2 MSTORE SWAP1 PUSH1 0x40 MSTORE DUP1 MLOAD SWAP1 PUSH1 0x20 ADD KECCAK256 PUSH1 0x1 PUSH1 0x0 SWAP1 SLOAD SWAP1 PUSH2 0x100 EXP SWAP1 DIV PUSH20 0xFFFFFFFFFFFFFFFFFFFFFFFFFFFFFFFFFFFFFFFF AND PUSH20 0xFFFFFFFFFFFFFFFFFFFFFFFFFFFFFFFFFFFFFFFF AND PUSH4 0x44276733 CALLER PUSH1 0x40 MLOAD DUP3 PUSH4 0xFFFFFFFF AND PUSH1 0xE0 SHL DUP2 MSTORE PUSH1 0x4 ADD PUSH2 0x11BB SWAP2 SWAP1 PUSH2 0x2AD1 JUMP JUMPDEST PUSH1 0x0 PUSH1 0x40 MLOAD DUP1 DUP4 SUB DUP2 DUP7 GAS STATICCALL ISZERO DUP1 ISZERO PUSH2 0x11D8 JUMPI RETURNDATASIZE PUSH1 0x0 DUP1 RETURNDATACOPY RETURNDATASIZE PUSH1 0x0 REVERT JUMPDEST POP POP POP POP PUSH1 0x40 MLOAD RETURNDATASIZE PUSH1 0x0 DUP3 RETURNDATACOPY RETURNDATASIZE PUSH1 0x1F NOT PUSH1 0x1F DUP3 ADD AND DUP3 ADD DUP1 PUSH1 0x40 MSTORE POP DUP2 ADD SWAP1 PUSH2 0x1201 SWAP2 SWAP1 PUSH2 0x2B5C JUMP JUMPDEST PUSH1 0x40 MLOAD PUSH1 0x20 ADD PUSH2 0x1211 SWAP2 SWAP1 PUSH2 0x24E6 JUMP JUMPDEST PUSH1 0x40 MLOAD PUSH1 0x20 DUP2 DUP4 SUB SUB DUP2 MSTORE SWAP1 PUSH1 0x40 MSTORE DUP1 MLOAD SWAP1 PUSH1 0x20 ADD KECCAK256 EQ PUSH2 0x1286 JUMPI PUSH1 0x40 MLOAD PUSH1 0x20 ADD PUSH2 0x123B SWAP1 PUSH2 0x2BF1 JUMP JUMPDEST PUSH1 0x40 MLOAD PUSH1 0x20 DUP2 DUP4 SUB SUB DUP2 MSTORE SWAP1 PUSH1 0x40 MSTORE PUSH1 0x40 MLOAD PUSH32 0x8C379A000000000000000000000000000000000000000000000000000000000 DUP2 MSTORE PUSH1 0x4 ADD PUSH2 0x127D SWAP2 SWAP1 PUSH2 0x255D JUMP JUMPDEST PUSH1 0x40 MLOAD DUP1 SWAP2 SUB SWAP1 REVERT JUMPDEST PUSH1 0x0 ISZERO ISZERO PUSH1 0x4 DUP3 PUSH1 0x20 ADD MLOAD PUSH1 0x40 MLOAD PUSH2 0x129E SWAP2 SWAP1 PUSH2 0x24E6 JUMP JUMPDEST SWAP1 DUP2 MSTORE PUSH1 0x20 ADD PUSH1 0x40 MLOAD DUP1 SWAP2 SUB SWAP1 KECCAK256 PUSH1 0x0 CALLER PUSH20 0xFFFFFFFFFFFFFFFFFFFFFFFFFFFFFFFFFFFFFFFF AND PUSH20 0xFFFFFFFFFFFFFFFFFFFFFFFFFFFFFFFFFFFFFFFF AND DUP2 MSTORE PUSH1 0x20 ADD SWAP1 DUP2 MSTORE PUSH1 0x20 ADD PUSH1 0x0 KECCAK256 PUSH1 0x0 SWAP1 SLOAD SWAP1 PUSH2 0x100 EXP SWAP1 DIV PUSH1 0xFF AND ISZERO ISZERO EQ PUSH2 0x1339 JUMPI PUSH1 0x40 MLOAD PUSH32 0x8C379A000000000000000000000000000000000000000000000000000000000 DUP2 MSTORE PUSH1 0x4 ADD PUSH2 0x1330 SWAP1 PUSH2 0x2C52 JUMP JUMPDEST PUSH1 0x40 MLOAD DUP1 SWAP2 SUB SWAP1 REVERT JUMPDEST PUSH1 0x1 PUSH1 0x4 DUP3 PUSH1 0x20 ADD MLOAD PUSH1 0x40 MLOAD PUSH2 0x134F SWAP2 SWAP1 PUSH2 0x24E6 JUMP JUMPDEST SWAP1 DUP2 MSTORE PUSH1 0x20 ADD PUSH1 0x40 MLOAD DUP1 SWAP2 SUB SWAP1 KECCAK256 PUSH1 0x0 CALLER PUSH20 0xFFFFFFFFFFFFFFFFFFFFFFFFFFFFFFFFFFFFFFFF AND PUSH20 0xFFFFFFFFFFFFFFFFFFFFFFFFFFFFFFFFFFFFFFFF AND DUP2 MSTORE PUSH1 0x20 ADD SWAP1 DUP2 MSTORE PUSH1 0x20 ADD PUSH1 0x0 KECCAK256 PUSH1 0x0 PUSH2 0x100 EXP DUP2 SLOAD DUP2 PUSH1 0xFF MUL NOT AND SWAP1 DUP4 ISZERO ISZERO MUL OR SWAP1 SSTORE POP PUSH32 0xC2A6D5963749EC1CF48A0E17E4F12218F713AF0B6676A1649F11CF6F8E491BEF CALLER DUP3 PUSH1 0x0 ADD MLOAD DUP4 PUSH1 0x20 ADD MLOAD PUSH1 0x40 MLOAD PUSH2 0x13EC SWAP4 SWAP3 SWAP2 SWAP1 PUSH2 0x2C72 JUMP JUMPDEST PUSH1 0x40 MLOAD DUP1 SWAP2 SUB SWAP1 LOG1 POP JUMP JUMPDEST PUSH1 0x0 JUMPDEST DUP2 MLOAD DUP2 LT ISZERO PUSH2 0x18AE JUMPI PUSH1 0x0 CALLER PUSH20 0xFFFFFFFFFFFFFFFFFFFFFFFFFFFFFFFFFFFFFFFF AND PUSH1 0x0 DUP1 SLOAD SWAP1 PUSH2 0x100 EXP SWAP1 DIV PUSH20 0xFFFFFFFFFFFFFFFFFFFFFFFFFFFFFFFFFFFFFFFF AND PUSH20 0xFFFFFFFFFFFFFFFFFFFFFFFFFFFFFFFFFFFFFFFF AND PUSH4 0xCB356D91 DUP6 DUP6 DUP2 MLOAD DUP2 LT PUSH2 0x146B JUMPI PUSH2 0x146A PUSH2 0x293D JUMP JUMPDEST JUMPDEST PUSH1 0x20 MUL PUSH1 0x20 ADD ADD MLOAD PUSH1 0x60 ADD MLOAD PUSH1 0x40 MLOAD DUP3 PUSH4 0xFFFFFFFF AND PUSH1 0xE0 SHL DUP2 MSTORE PUSH1 0x4 ADD PUSH2 0x1493 SWAP2 SWAP1 PUSH2 0x255D JUMP JUMPDEST PUSH1 0x20 PUSH1 0x40 MLOAD DUP1 DUP4 SUB DUP2 DUP7 GAS STATICCALL ISZERO DUP1 ISZERO PUSH2 0x14B0 JUMPI RETURNDATASIZE PUSH1 0x0 DUP1 RETURNDATACOPY RETURNDATASIZE PUSH1 0x0 REVERT JUMPDEST POP POP POP POP PUSH1 0x40 MLOAD RETURNDATASIZE PUSH1 0x1F NOT PUSH1 0x1F DUP3 ADD AND DUP3 ADD DUP1 PUSH1 0x40 MSTORE POP DUP2 ADD SWAP1 PUSH2 0x14D4 SWAP2 SWAP1 PUSH2 0x2594 JUMP JUMPDEST PUSH20 0xFFFFFFFFFFFFFFFFFFFFFFFFFFFFFFFFFFFFFFFF AND EQ SWAP1 POP PUSH1 0x0 CALLER PUSH20 0xFFFFFFFFFFFFFFFFFFFFFFFFFFFFFFFFFFFFFFFF AND PUSH1 0x0 DUP1 SLOAD SWAP1 PUSH2 0x100 EXP SWAP1 DIV PUSH20 0xFFFFFFFFFFFFFFFFFFFFFFFFFFFFFFFFFFFFFFFF AND PUSH20 0xFFFFFFFFFFFFFFFFFFFFFFFFFFFFFFFFFFFFFFFF AND PUSH4 0x1F567BCB DUP7 DUP7 DUP2 MLOAD DUP2 LT PUSH2 0x1555 JUMPI PUSH2 0x1554 PUSH2 0x293D JUMP JUMPDEST JUMPDEST PUSH1 0x20 MUL PUSH1 0x20 ADD ADD MLOAD PUSH1 0x60 ADD MLOAD PUSH1 0x40 MLOAD DUP3 PUSH4 0xFFFFFFFF AND PUSH1 0xE0 SHL DUP2 MSTORE PUSH1 0x4 ADD PUSH2 0x157D SWAP2 SWAP1 PUSH2 0x255D JUMP JUMPDEST PUSH1 0x20 PUSH1 0x40 MLOAD DUP1 DUP4 SUB DUP2 DUP7 GAS STATICCALL ISZERO DUP1 ISZERO PUSH2 0x159A JUMPI RETURNDATASIZE PUSH1 0x0 DUP1 RETURNDATACOPY RETURNDATASIZE PUSH1 0x0 REVERT JUMPDEST POP POP POP POP PUSH1 0x40 MLOAD RETURNDATASIZE PUSH1 0x1F NOT PUSH1 0x1F DUP3 ADD AND DUP3 ADD DUP1 PUSH1 0x40 MSTORE POP DUP2 ADD SWAP1 PUSH2 0x15BE SWAP2 SWAP1 PUSH2 0x2594 JUMP JUMPDEST PUSH20 0xFFFFFFFFFFFFFFFFFFFFFFFFFFFFFFFFFFFFFFFF AND EQ SWAP1 POP DUP2 ISZERO DUP1 ISZERO PUSH2 0x15E3 JUMPI POP DUP1 ISZERO JUMPDEST ISZERO PUSH2 0x1642 JUMPI PUSH1 0x40 MLOAD PUSH1 0x20 ADD PUSH2 0x15F7 SWAP1 PUSH2 0x2D22 JUMP JUMPDEST PUSH1 0x40 MLOAD PUSH1 0x20 DUP2 DUP4 SUB SUB DUP2 MSTORE SWAP1 PUSH1 0x40 MSTORE PUSH1 0x40 MLOAD PUSH32 0x8C379A000000000000000000000000000000000000000000000000000000000 DUP2 MSTORE PUSH1 0x4 ADD PUSH2 0x1639 SWAP2 SWAP1 PUSH2 0x255D JUMP JUMPDEST PUSH1 0x40 MLOAD DUP1 SWAP2 SUB SWAP1 REVERT JUMPDEST DUP4 DUP4 DUP2 MLOAD DUP2 LT PUSH2 0x1655 JUMPI PUSH2 0x1654 PUSH2 0x293D JUMP JUMPDEST JUMPDEST PUSH1 0x20 MUL PUSH1 0x20 ADD ADD MLOAD PUSH1 0x20 ADD MLOAD PUSH1 0x5 DUP6 DUP6 DUP2 MLOAD DUP2 LT PUSH2 0x1676 JUMPI PUSH2 0x1675 PUSH2 0x293D JUMP JUMPDEST JUMPDEST PUSH1 0x20 MUL PUSH1 0x20 ADD ADD MLOAD PUSH1 0x60 ADD MLOAD PUSH1 0x40 MLOAD PUSH2 0x168F SWAP2 SWAP1 PUSH2 0x24E6 JUMP JUMPDEST SWAP1 DUP2 MSTORE PUSH1 0x20 ADD PUSH1 0x40 MLOAD DUP1 SWAP2 SUB SWAP1 KECCAK256 PUSH1 0x0 DUP7 DUP7 DUP2 MLOAD DUP2 LT PUSH2 0x16B2 JUMPI PUSH2 0x16B1 PUSH2 0x293D JUMP JUMPDEST JUMPDEST PUSH1 0x20 MUL PUSH1 0x20 ADD ADD MLOAD PUSH1 0x0 ADD MLOAD PUSH20 0xFFFFFFFFFFFFFFFFFFFFFFFFFFFFFFFFFFFFFFFF AND PUSH20 0xFFFFFFFFFFFFFFFFFFFFFFFFFFFFFFFFFFFFFFFF AND DUP2 MSTORE PUSH1 0x20 ADD SWAP1 DUP2 MSTORE PUSH1 0x20 ADD PUSH1 0x0 KECCAK256 SWAP1 DUP2 PUSH2 0x1704 SWAP2 SWAP1 PUSH2 0x27F4 JUMP JUMPDEST POP DUP4 DUP4 DUP2 MLOAD DUP2 LT PUSH2 0x1718 JUMPI PUSH2 0x1717 PUSH2 0x293D JUMP JUMPDEST JUMPDEST PUSH1 0x20 MUL PUSH1 0x20 ADD ADD MLOAD PUSH1 0x40 ADD MLOAD PUSH1 0x6 DUP6 DUP6 DUP2 MLOAD DUP2 LT PUSH2 0x1739 JUMPI PUSH2 0x1738 PUSH2 0x293D JUMP JUMPDEST JUMPDEST PUSH1 0x20 MUL PUSH1 0x20 ADD ADD MLOAD PUSH1 0x60 ADD MLOAD PUSH1 0x40 MLOAD PUSH2 0x1752 SWAP2 SWAP1 PUSH2 0x24E6 JUMP JUMPDEST SWAP1 DUP2 MSTORE PUSH1 0x20 ADD PUSH1 0x40 MLOAD DUP1 SWAP2 SUB SWAP1 KECCAK256 PUSH1 0x0 DUP7 DUP7 DUP2 MLOAD DUP2 LT PUSH2 0x1775 JUMPI PUSH2 0x1774 PUSH2 0x293D JUMP JUMPDEST JUMPDEST PUSH1 0x20 MUL PUSH1 0x20 ADD ADD MLOAD PUSH1 0x0 ADD MLOAD PUSH20 0xFFFFFFFFFFFFFFFFFFFFFFFFFFFFFFFFFFFFFFFF AND PUSH20 0xFFFFFFFFFFFFFFFFFFFFFFFFFFFFFFFFFFFFFFFF AND DUP2 MSTORE PUSH1 0x20 ADD SWAP1 DUP2 MSTORE PUSH1 0x20 ADD PUSH1 0x0 KECCAK256 SWAP1 DUP2 PUSH2 0x17C7 SWAP2 SWAP1 PUSH2 0x27F4 JUMP JUMPDEST POP PUSH32 0x3E88A46403613C6E45C352AAB06CE620D60806C1FAFE6834AAB5F0EDD076314D DUP5 DUP5 DUP2 MLOAD DUP2 LT PUSH2 0x17FC JUMPI PUSH2 0x17FB PUSH2 0x293D JUMP JUMPDEST JUMPDEST PUSH1 0x20 MUL PUSH1 0x20 ADD ADD MLOAD PUSH1 0x0 ADD MLOAD CALLER DUP7 DUP7 DUP2 MLOAD DUP2 LT PUSH2 0x181C JUMPI PUSH2 0x181B PUSH2 0x293D JUMP JUMPDEST JUMPDEST PUSH1 0x20 MUL PUSH1 0x20 ADD ADD MLOAD PUSH1 0x20 ADD MLOAD DUP8 DUP8 DUP2 MLOAD DUP2 LT PUSH2 0x183B JUMPI PUSH2 0x183A PUSH2 0x293D JUMP JUMPDEST JUMPDEST PUSH1 0x20 MUL PUSH1 0x20 ADD ADD MLOAD PUSH1 0x40 ADD MLOAD DUP9 DUP9 DUP2 MLOAD DUP2 LT PUSH2 0x185A JUMPI PUSH2 0x1859 PUSH2 0x293D JUMP JUMPDEST JUMPDEST PUSH1 0x20 MUL PUSH1 0x20 ADD ADD MLOAD PUSH1 0x60 ADD MLOAD DUP10 DUP10 DUP2 MLOAD DUP2 LT PUSH2 0x1879 JUMPI PUSH2 0x1878 PUSH2 0x293D JUMP JUMPDEST JUMPDEST PUSH1 0x20 MUL PUSH1 0x20 ADD ADD MLOAD PUSH1 0x80 ADD MLOAD PUSH1 0x40 MLOAD PUSH2 0x1897 SWAP7 SWAP6 SWAP5 SWAP4 SWAP3 SWAP2 SWAP1 PUSH2 0x29F3 JUMP JUMPDEST PUSH1 0x40 MLOAD DUP1 SWAP2 SUB SWAP1 LOG1 POP POP DUP1 DUP1 PUSH1 0x1 ADD SWAP2 POP POP PUSH2 0x13FA JUMP JUMPDEST POP POP JUMP JUMPDEST PUSH1 0x60 DUP1 PUSH1 0x2 DUP5 PUSH1 0x40 MLOAD PUSH2 0x18C5 SWAP2 SWAP1 PUSH2 0x24E6 JUMP JUMPDEST SWAP1 DUP2 MSTORE PUSH1 0x20 ADD PUSH1 0x40 MLOAD DUP1 SWAP2 SUB SWAP1 KECCAK256 PUSH1 0x0 DUP5 PUSH20 0xFFFFFFFFFFFFFFFFFFFFFFFFFFFFFFFFFFFFFFFF AND PUSH20 0xFFFFFFFFFFFFFFFFFFFFFFFFFFFFFFFFFFFFFFFF AND DUP2 MSTORE PUSH1 0x20 ADD SWAP1 DUP2 MSTORE PUSH1 0x20 ADD PUSH1 0x0 KECCAK256 PUSH1 0x3 DUP6 PUSH1 0x40 MLOAD PUSH2 0x1920 SWAP2 SWAP1 PUSH2 0x24E6 JUMP JUMPDEST SWAP1 DUP2 MSTORE PUSH1 0x20 ADD PUSH1 0x40 MLOAD DUP1 SWAP2 SUB SWAP1 KECCAK256 PUSH1 0x0 DUP6 PUSH20 0xFFFFFFFFFFFFFFFFFFFFFFFFFFFFFFFFFFFFFFFF AND PUSH20 0xFFFFFFFFFFFFFFFFFFFFFFFFFFFFFFFFFFFFFFFF AND DUP2 MSTORE PUSH1 0x20 ADD SWAP1 DUP2 MSTORE PUSH1 0x20 ADD PUSH1 0x0 KECCAK256 DUP2 DUP1 SLOAD PUSH2 0x1977 SWAP1 PUSH2 0x252C JUMP JUMPDEST DUP1 PUSH1 0x1F ADD PUSH1 0x20 DUP1 SWAP2 DIV MUL PUSH1 0x20 ADD PUSH1 0x40 MLOAD SWAP1 DUP2 ADD PUSH1 0x40 MSTORE DUP1 SWAP3 SWAP2 SWAP1 DUP2 DUP2 MSTORE PUSH1 0x20 ADD DUP3 DUP1 SLOAD PUSH2 0x19A3 SWAP1 PUSH2 0x252C JUMP JUMPDEST DUP1 ISZERO PUSH2 0x19F0 JUMPI DUP1 PUSH1 0x1F LT PUSH2 0x19C5 JUMPI PUSH2 0x100 DUP1 DUP4 SLOAD DIV MUL DUP4 MSTORE SWAP2 PUSH1 0x20 ADD SWAP2 PUSH2 0x19F0 JUMP JUMPDEST DUP3 ADD SWAP2 SWAP1 PUSH1 0x0 MSTORE PUSH1 0x20 PUSH1 0x0 KECCAK256 SWAP1 JUMPDEST DUP2 SLOAD DUP2 MSTORE SWAP1 PUSH1 0x1 ADD SWAP1 PUSH1 0x20 ADD DUP1 DUP4 GT PUSH2 0x19D3 JUMPI DUP3 SWAP1 SUB PUSH1 0x1F AND DUP3 ADD SWAP2 JUMPDEST POP POP POP POP POP SWAP2 POP DUP1 DUP1 SLOAD PUSH2 0x1A03 SWAP1 PUSH2 0x252C JUMP JUMPDEST DUP1 PUSH1 0x1F ADD PUSH1 0x20 DUP1 SWAP2 DIV MUL PUSH1 0x20 ADD PUSH1 0x40 MLOAD SWAP1 DUP2 ADD PUSH1 0x40 MSTORE DUP1 SWAP3 SWAP2 SWAP1 DUP2 DUP2 MSTORE PUSH1 0x20 ADD DUP3 DUP1 SLOAD PUSH2 0x1A2F SWAP1 PUSH2 0x252C JUMP JUMPDEST DUP1 ISZERO PUSH2 0x1A7C JUMPI DUP1 PUSH1 0x1F LT PUSH2 0x1A51 JUMPI PUSH2 0x100 DUP1 DUP4 SLOAD DIV MUL DUP4 MSTORE SWAP2 PUSH1 0x20 ADD SWAP2 PUSH2 0x1A7C JUMP JUMPDEST DUP3 ADD SWAP2 SWAP1 PUSH1 0x0 MSTORE PUSH1 0x20 PUSH1 0x0 KECCAK256 SWAP1 JUMPDEST DUP2 SLOAD DUP2 MSTORE SWAP1 PUSH1 0x1 ADD SWAP1 PUSH1 0x20 ADD DUP1 DUP4 GT PUSH2 0x1A5F JUMPI DUP3 SWAP1 SUB PUSH1 0x1F AND DUP3 ADD SWAP2 JUMPDEST POP POP POP POP POP SWAP1 POP SWAP2 POP SWAP2 POP SWAP3 POP SWAP3 SWAP1 POP JUMP JUMPDEST PUSH1 0x0 PUSH1 0x40 MLOAD SWAP1 POP SWAP1 JUMP JUMPDEST PUSH1 0x0 DUP1 REVERT JUMPDEST PUSH1 0x0 DUP1 REVERT JUMPDEST PUSH1 0x0 DUP1 REVERT JUMPDEST PUSH1 0x0 DUP1 REVERT JUMPDEST PUSH1 0x0 PUSH1 0x1F NOT PUSH1 0x1F DUP4 ADD AND SWAP1 POP SWAP2 SWAP1 POP JUMP JUMPDEST PUSH32 0x4E487B7100000000000000000000000000000000000000000000000000000000 PUSH1 0x0 MSTORE PUSH1 0x41 PUSH1 0x4 MSTORE PUSH1 0x24 PUSH1 0x0 REVERT JUMPDEST PUSH2 0x1AF5 DUP3 PUSH2 0x1AAC JUMP JUMPDEST DUP2 ADD DUP2 DUP2 LT PUSH8 0xFFFFFFFFFFFFFFFF DUP3 GT OR ISZERO PUSH2 0x1B14 JUMPI PUSH2 0x1B13 PUSH2 0x1ABD JUMP JUMPDEST JUMPDEST DUP1 PUSH1 0x40 MSTORE POP POP POP JUMP JUMPDEST PUSH1 0x0 PUSH2 0x1B27 PUSH2 0x1A8E JUMP JUMPDEST SWAP1 POP PUSH2 0x1B33 DUP3 DUP3 PUSH2 0x1AEC JUMP JUMPDEST SWAP2 SWAP1 POP JUMP JUMPDEST PUSH1 0x0 PUSH8 0xFFFFFFFFFFFFFFFF DUP3 GT ISZERO PUSH2 0x1B53 JUMPI PUSH2 0x1B52 PUSH2 0x1ABD JUMP JUMPDEST JUMPDEST PUSH2 0x1B5C DUP3 PUSH2 0x1AAC JUMP JUMPDEST SWAP1 POP PUSH1 0x20 DUP2 ADD SWAP1 POP SWAP2 SWAP1 POP JUMP JUMPDEST DUP3 DUP2 DUP4 CALLDATACOPY PUSH1 0x0 DUP4 DUP4 ADD MSTORE POP POP POP JUMP JUMPDEST PUSH1 0x0 PUSH2 0x1B8B PUSH2 0x1B86 DUP5 PUSH2 0x1B38 JUMP JUMPDEST PUSH2 0x1B1D JUMP JUMPDEST SWAP1 POP DUP3 DUP2 MSTORE PUSH1 0x20 DUP2 ADD DUP5 DUP5 DUP5 ADD GT ISZERO PUSH2 0x1BA7 JUMPI PUSH2 0x1BA6 PUSH2 0x1AA7 JUMP JUMPDEST JUMPDEST PUSH2 0x1BB2 DUP5 DUP3 DUP6 PUSH2 0x1B69 JUMP JUMPDEST POP SWAP4 SWAP3 POP POP POP JUMP JUMPDEST PUSH1 0x0 DUP3 PUSH1 0x1F DUP4 ADD SLT PUSH2 0x1BCF JUMPI PUSH2 0x1BCE PUSH2 0x1AA2 JUMP JUMPDEST JUMPDEST DUP2 CALLDATALOAD PUSH2 0x1BDF DUP5 DUP3 PUSH1 0x20 DUP7 ADD PUSH2 0x1B78 JUMP JUMPDEST SWAP2 POP POP SWAP3 SWAP2 POP POP JUMP JUMPDEST PUSH1 0x0 PUSH20 0xFFFFFFFFFFFFFFFFFFFFFFFFFFFFFFFFFFFFFFFF DUP3 AND SWAP1 POP SWAP2 SWAP1 POP JUMP JUMPDEST PUSH1 0x0 PUSH2 0x1C13 DUP3 PUSH2 0x1BE8 JUMP JUMPDEST SWAP1 POP SWAP2 SWAP1 POP JUMP JUMPDEST PUSH2 0x1C23 DUP2 PUSH2 0x1C08 JUMP JUMPDEST DUP2 EQ PUSH2 0x1C2E JUMPI PUSH1 0x0 DUP1 REVERT JUMPDEST POP JUMP JUMPDEST PUSH1 0x0 DUP2 CALLDATALOAD SWAP1 POP PUSH2 0x1C40 DUP2 PUSH2 0x1C1A JUMP JUMPDEST SWAP3 SWAP2 POP POP JUMP JUMPDEST PUSH1 0x0 DUP1 PUSH1 0x40 DUP4 DUP6 SUB SLT ISZERO PUSH2 0x1C5D JUMPI PUSH2 0x1C5C PUSH2 0x1A98 JUMP JUMPDEST JUMPDEST PUSH1 0x0 DUP4 ADD CALLDATALOAD PUSH8 0xFFFFFFFFFFFFFFFF DUP2 GT ISZERO PUSH2 0x1C7B JUMPI PUSH2 0x1C7A PUSH2 0x1A9D JUMP JUMPDEST JUMPDEST PUSH2 0x1C87 DUP6 DUP3 DUP7 ADD PUSH2 0x1BBA JUMP JUMPDEST SWAP3 POP POP PUSH1 0x20 PUSH2 0x1C98 DUP6 DUP3 DUP7 ADD PUSH2 0x1C31 JUMP JUMPDEST SWAP2 POP POP SWAP3 POP SWAP3 SWAP1 POP JUMP JUMPDEST PUSH1 0x0 DUP2 MLOAD SWAP1 POP SWAP2 SWAP1 POP JUMP JUMPDEST PUSH1 0x0 DUP3 DUP3 MSTORE PUSH1 0x20 DUP3 ADD SWAP1 POP SWAP3 SWAP2 POP POP JUMP JUMPDEST PUSH1 0x0 JUMPDEST DUP4 DUP2 LT ISZERO PUSH2 0x1CDC JUMPI DUP1 DUP3 ADD MLOAD DUP2 DUP5 ADD MSTORE PUSH1 0x20 DUP2 ADD SWAP1 POP PUSH2 0x1CC1 JUMP JUMPDEST PUSH1 0x0 DUP5 DUP5 ADD MSTORE POP POP POP POP JUMP JUMPDEST PUSH1 0x0 PUSH2 0x1CF3 DUP3 PUSH2 0x1CA2 JUMP JUMPDEST PUSH2 0x1CFD DUP2 DUP6 PUSH2 0x1CAD JUMP JUMPDEST SWAP4 POP PUSH2 0x1D0D DUP2 DUP6 PUSH1 0x20 DUP7 ADD PUSH2 0x1CBE JUMP JUMPDEST PUSH2 0x1D16 DUP2 PUSH2 0x1AAC JUMP JUMPDEST DUP5 ADD SWAP2 POP POP SWAP3 SWAP2 POP POP JUMP JUMPDEST PUSH1 0x0 PUSH1 0x40 DUP3 ADD SWAP1 POP DUP2 DUP2 SUB PUSH1 0x0 DUP4 ADD MSTORE PUSH2 0x1D3B DUP2 DUP6 PUSH2 0x1CE8 JUMP JUMPDEST SWAP1 POP DUP2 DUP2 SUB PUSH1 0x20 DUP4 ADD MSTORE PUSH2 0x1D4F DUP2 DUP5 PUSH2 0x1CE8 JUMP JUMPDEST SWAP1 POP SWAP4 SWAP3 POP POP POP JUMP JUMPDEST PUSH1 0x0 DUP1 REVERT JUMPDEST PUSH1 0x0 DUP1 REVERT JUMPDEST PUSH1 0x0 PUSH1 0x80 DUP3 DUP5 SUB SLT ISZERO PUSH2 0x1D78 JUMPI PUSH2 0x1D77 PUSH2 0x1D58 JUMP JUMPDEST JUMPDEST PUSH2 0x1D82 PUSH1 0x80 PUSH2 0x1B1D JUMP JUMPDEST SWAP1 POP PUSH1 0x0 PUSH2 0x1D92 DUP5 DUP3 DUP6 ADD PUSH2 0x1C31 JUMP JUMPDEST PUSH1 0x0 DUP4 ADD MSTORE POP PUSH1 0x20 DUP3 ADD CALLDATALOAD PUSH8 0xFFFFFFFFFFFFFFFF DUP2 GT ISZERO PUSH2 0x1DB6 JUMPI PUSH2 0x1DB5 PUSH2 0x1D5D JUMP JUMPDEST JUMPDEST PUSH2 0x1DC2 DUP5 DUP3 DUP6 ADD PUSH2 0x1BBA JUMP JUMPDEST PUSH1 0x20 DUP4 ADD MSTORE POP PUSH1 0x40 DUP3 ADD CALLDATALOAD PUSH8 0xFFFFFFFFFFFFFFFF DUP2 GT ISZERO PUSH2 0x1DE6 JUMPI PUSH2 0x1DE5 PUSH2 0x1D5D JUMP JUMPDEST JUMPDEST PUSH2 0x1DF2 DUP5 DUP3 DUP6 ADD PUSH2 0x1BBA JUMP JUMPDEST PUSH1 0x40 DUP4 ADD MSTORE POP PUSH1 0x60 DUP3 ADD CALLDATALOAD PUSH8 0xFFFFFFFFFFFFFFFF DUP2 GT ISZERO PUSH2 0x1E16 JUMPI PUSH2 0x1E15 PUSH2 0x1D5D JUMP JUMPDEST JUMPDEST PUSH2 0x1E22 DUP5 DUP3 DUP6 ADD PUSH2 0x1BBA JUMP JUMPDEST PUSH1 0x60 DUP4 ADD MSTORE POP SWAP3 SWAP2 POP POP JUMP JUMPDEST PUSH1 0x0 PUSH1 0x20 DUP3 DUP5 SUB SLT ISZERO PUSH2 0x1E44 JUMPI PUSH2 0x1E43 PUSH2 0x1A98 JUMP JUMPDEST JUMPDEST PUSH1 0x0 DUP3 ADD CALLDATALOAD PUSH8 0xFFFFFFFFFFFFFFFF DUP2 GT ISZERO PUSH2 0x1E62 JUMPI PUSH2 0x1E61 PUSH2 0x1A9D JUMP JUMPDEST JUMPDEST PUSH2 0x1E6E DUP5 DUP3 DUP6 ADD PUSH2 0x1D62 JUMP JUMPDEST SWAP2 POP POP SWAP3 SWAP2 POP POP JUMP JUMPDEST PUSH1 0x0 DUP2 SWAP1 POP SWAP2 SWAP1 POP JUMP JUMPDEST PUSH1 0x0 PUSH2 0x1E9C PUSH2 0x1E97 PUSH2 0x1E92 DUP5 PUSH2 0x1BE8 JUMP JUMPDEST PUSH2 0x1E77 JUMP JUMPDEST PUSH2 0x1BE8 JUMP JUMPDEST SWAP1 POP SWAP2 SWAP1 POP JUMP JUMPDEST PUSH1 0x0 PUSH2 0x1EAE DUP3 PUSH2 0x1E81 JUMP JUMPDEST SWAP1 POP SWAP2 SWAP1 POP JUMP JUMPDEST PUSH1 0x0 PUSH2 0x1EC0 DUP3 PUSH2 0x1EA3 JUMP JUMPDEST SWAP1 POP SWAP2 SWAP1 POP JUMP JUMPDEST PUSH2 0x1ED0 DUP2 PUSH2 0x1EB5 JUMP JUMPDEST DUP3 MSTORE POP POP JUMP JUMPDEST PUSH1 0x0 PUSH1 0x20 DUP3 ADD SWAP1 POP PUSH2 0x1EEB PUSH1 0x0 DUP4 ADD DUP5 PUSH2 0x1EC7 JUMP JUMPDEST SWAP3 SWAP2 POP POP JUMP JUMPDEST PUSH1 0x0 PUSH2 0x1EFC DUP3 PUSH2 0x1EA3 JUMP JUMPDEST SWAP1 POP SWAP2 SWAP1 POP JUMP JUMPDEST PUSH2 0x1F0C DUP2 PUSH2 0x1EF1 JUMP JUMPDEST DUP3 MSTORE POP POP JUMP JUMPDEST PUSH1 0x0 PUSH1 0x20 DUP3 ADD SWAP1 POP PUSH2 0x1F27 PUSH1 0x0 DUP4 ADD DUP5 PUSH2 0x1F03 JUMP JUMPDEST SWAP3 SWAP2 POP POP JUMP JUMPDEST PUSH1 0x0 PUSH8 0xFFFFFFFFFFFFFFFF DUP3 GT ISZERO PUSH2 0x1F48 JUMPI PUSH2 0x1F47 PUSH2 0x1ABD JUMP JUMPDEST JUMPDEST PUSH1 0x20 DUP3 MUL SWAP1 POP PUSH1 0x20 DUP2 ADD SWAP1 POP SWAP2 SWAP1 POP JUMP JUMPDEST PUSH1 0x0 DUP1 REVERT JUMPDEST PUSH1 0x0 PUSH1 0xA0 DUP3 DUP5 SUB SLT ISZERO PUSH2 0x1F74 JUMPI PUSH2 0x1F73 PUSH2 0x1D58 JUMP JUMPDEST JUMPDEST PUSH2 0x1F7E PUSH1 0xA0 PUSH2 0x1B1D JUMP JUMPDEST SWAP1 POP PUSH1 0x0 PUSH2 0x1F8E DUP5 DUP3 DUP6 ADD PUSH2 0x1C31 JUMP JUMPDEST PUSH1 0x0 DUP4 ADD MSTORE POP PUSH1 0x20 DUP3 ADD CALLDATALOAD PUSH8 0xFFFFFFFFFFFFFFFF DUP2 GT ISZERO PUSH2 0x1FB2 JUMPI PUSH2 0x1FB1 PUSH2 0x1D5D JUMP JUMPDEST JUMPDEST PUSH2 0x1FBE DUP5 DUP3 DUP6 ADD PUSH2 0x1BBA JUMP JUMPDEST PUSH1 0x20 DUP4 ADD MSTORE POP PUSH1 0x40 DUP3 ADD CALLDATALOAD PUSH8 0xFFFFFFFFFFFFFFFF DUP2 GT ISZERO PUSH2 0x1FE2 JUMPI PUSH2 0x1FE1 PUSH2 0x1D5D JUMP JUMPDEST JUMPDEST PUSH2 0x1FEE DUP5 DUP3 DUP6 ADD PUSH2 0x1BBA JUMP JUMPDEST PUSH1 0x40 DUP4 ADD MSTORE POP PUSH1 0x60 DUP3 ADD CALLDATALOAD PUSH8 0xFFFFFFFFFFFFFFFF DUP2 GT ISZERO PUSH2 0x2012 JUMPI PUSH2 0x2011 PUSH2 0x1D5D JUMP JUMPDEST JUMPDEST PUSH2 0x201E DUP5 DUP3 DUP6 ADD PUSH2 0x1BBA JUMP JUMPDEST PUSH1 0x60 DUP4 ADD MSTORE POP PUSH1 0x80 DUP3 ADD CALLDATALOAD PUSH8 0xFFFFFFFFFFFFFFFF DUP2 GT ISZERO PUSH2 0x2042 JUMPI PUSH2 0x2041 PUSH2 0x1D5D JUMP JUMPDEST JUMPDEST PUSH2 0x204E DUP5 DUP3 DUP6 ADD PUSH2 0x1BBA JUMP JUMPDEST PUSH1 0x80 DUP4 ADD MSTORE POP SWAP3 SWAP2 POP POP JUMP JUMPDEST PUSH1 0x0 PUSH1 0x40 DUP3 DUP5 SUB SLT ISZERO PUSH2 0x2070 JUMPI PUSH2 0x206F PUSH2 0x1D58 JUMP JUMPDEST JUMPDEST PUSH2 0x207A PUSH1 0x40 PUSH2 0x1B1D JUMP JUMPDEST SWAP1 POP PUSH1 0x0 DUP3 ADD CALLDATALOAD PUSH8 0xFFFFFFFFFFFFFFFF DUP2 GT ISZERO PUSH2 0x209A JUMPI PUSH2 0x2099 PUSH2 0x1D5D JUMP JUMPDEST JUMPDEST PUSH2 0x20A6 DUP5 DUP3 DUP6 ADD PUSH2 0x1D62 JUMP JUMPDEST PUSH1 0x0 DUP4 ADD MSTORE POP PUSH1 0x20 DUP3 ADD CALLDATALOAD PUSH8 0xFFFFFFFFFFFFFFFF DUP2 GT ISZERO PUSH2 0x20CA JUMPI PUSH2 0x20C9 PUSH2 0x1D5D JUMP JUMPDEST JUMPDEST PUSH2 0x20D6 DUP5 DUP3 DUP6 ADD PUSH2 0x1F5E JUMP JUMPDEST PUSH1 0x20 DUP4 ADD MSTORE POP SWAP3 SWAP2 POP POP JUMP JUMPDEST PUSH1 0x0 PUSH2 0x20F5 PUSH2 0x20F0 DUP5 PUSH2 0x1F2D JUMP JUMPDEST PUSH2 0x1B1D JUMP JUMPDEST SWAP1 POP DUP1 DUP4 DUP3 MSTORE PUSH1 0x20 DUP3 ADD SWAP1 POP PUSH1 0x20 DUP5 MUL DUP4 ADD DUP6 DUP2 GT ISZERO PUSH2 0x2118 JUMPI PUSH2 0x2117 PUSH2 0x1F59 JUMP JUMPDEST JUMPDEST DUP4 JUMPDEST DUP2 DUP2 LT ISZERO PUSH2 0x215F JUMPI DUP1 CALLDATALOAD PUSH8 0xFFFFFFFFFFFFFFFF DUP2 GT ISZERO PUSH2 0x213D JUMPI PUSH2 0x213C PUSH2 0x1AA2 JUMP JUMPDEST JUMPDEST DUP1 DUP7 ADD PUSH2 0x214A DUP10 DUP3 PUSH2 0x205A JUMP JUMPDEST DUP6 MSTORE PUSH1 0x20 DUP6 ADD SWAP5 POP POP POP PUSH1 0x20 DUP2 ADD SWAP1 POP PUSH2 0x211A JUMP JUMPDEST POP POP POP SWAP4 SWAP3 POP POP POP JUMP JUMPDEST PUSH1 0x0 DUP3 PUSH1 0x1F DUP4 ADD SLT PUSH2 0x217E JUMPI PUSH2 0x217D PUSH2 0x1AA2 JUMP JUMPDEST JUMPDEST DUP2 CALLDATALOAD PUSH2 0x218E DUP5 DUP3 PUSH1 0x20 DUP7 ADD PUSH2 0x20E2 JUMP JUMPDEST SWAP2 POP POP SWAP3 SWAP2 POP POP JUMP JUMPDEST PUSH1 0x0 PUSH1 0x20 DUP3 DUP5 SUB SLT ISZERO PUSH2 0x21AD JUMPI PUSH2 0x21AC PUSH2 0x1A98 JUMP JUMPDEST JUMPDEST PUSH1 0x0 DUP3 ADD CALLDATALOAD PUSH8 0xFFFFFFFFFFFFFFFF DUP2 GT ISZERO PUSH2 0x21CB JUMPI PUSH2 0x21CA PUSH2 0x1A9D JUMP JUMPDEST JUMPDEST PUSH2 0x21D7 DUP5 DUP3 DUP6 ADD PUSH2 0x2169 JUMP JUMPDEST SWAP2 POP POP SWAP3 SWAP2 POP POP JUMP JUMPDEST PUSH1 0x0 DUP1 PUSH1 0x0 DUP1 PUSH1 0x0 PUSH1 0xA0 DUP7 DUP9 SUB SLT ISZERO PUSH2 0x21FC JUMPI PUSH2 0x21FB PUSH2 0x1A98 JUMP JUMPDEST JUMPDEST PUSH1 0x0 DUP7 ADD CALLDATALOAD PUSH8 0xFFFFFFFFFFFFFFFF DUP2 GT ISZERO PUSH2 0x221A JUMPI PUSH2 0x2219 PUSH2 0x1A9D JUMP JUMPDEST JUMPDEST PUSH2 0x2226 DUP9 DUP3 DUP10 ADD PUSH2 0x1BBA JUMP JUMPDEST SWAP6 POP POP PUSH1 0x20 DUP7 ADD CALLDATALOAD PUSH8 0xFFFFFFFFFFFFFFFF DUP2 GT ISZERO PUSH2 0x2247 JUMPI PUSH2 0x2246 PUSH2 0x1A9D JUMP JUMPDEST JUMPDEST PUSH2 0x2253 DUP9 DUP3 DUP10 ADD PUSH2 0x1BBA JUMP JUMPDEST SWAP5 POP POP PUSH1 0x40 DUP7 ADD CALLDATALOAD PUSH8 0xFFFFFFFFFFFFFFFF DUP2 GT ISZERO PUSH2 0x2274 JUMPI PUSH2 0x2273 PUSH2 0x1A9D JUMP JUMPDEST JUMPDEST PUSH2 0x2280 DUP9 DUP3 DUP10 ADD PUSH2 0x1BBA JUMP JUMPDEST SWAP4 POP POP PUSH1 0x60 DUP7 ADD CALLDATALOAD PUSH8 0xFFFFFFFFFFFFFFFF DUP2 GT ISZERO PUSH2 0x22A1 JUMPI PUSH2 0x22A0 PUSH2 0x1A9D JUMP JUMPDEST JUMPDEST PUSH2 0x22AD DUP9 DUP3 DUP10 ADD PUSH2 0x1BBA JUMP JUMPDEST SWAP3 POP POP PUSH1 0x80 PUSH2 0x22BE DUP9 DUP3 DUP10 ADD PUSH2 0x1C31 JUMP JUMPDEST SWAP2 POP POP SWAP3 SWAP6 POP SWAP3 SWAP6 SWAP1 SWAP4 POP JUMP JUMPDEST PUSH1 0x0 PUSH1 0x40 DUP3 DUP5 SUB SLT ISZERO PUSH2 0x22E1 JUMPI PUSH2 0x22E0 PUSH2 0x1D58 JUMP JUMPDEST JUMPDEST PUSH2 0x22EB PUSH1 0x40 PUSH2 0x1B1D JUMP JUMPDEST SWAP1 POP PUSH1 0x0 PUSH2 0x22FB DUP5 DUP3 DUP6 ADD PUSH2 0x1C31 JUMP JUMPDEST PUSH1 0x0 DUP4 ADD MSTORE POP PUSH1 0x20 DUP3 ADD CALLDATALOAD PUSH8 0xFFFFFFFFFFFFFFFF DUP2 GT ISZERO PUSH2 0x231F JUMPI PUSH2 0x231E PUSH2 0x1D5D JUMP JUMPDEST JUMPDEST PUSH2 0x232B DUP5 DUP3 DUP6 ADD PUSH2 0x1BBA JUMP JUMPDEST PUSH1 0x20 DUP4 ADD MSTORE POP SWAP3 SWAP2 POP POP JUMP JUMPDEST PUSH1 0x0 PUSH1 0x20 DUP3 DUP5 SUB SLT ISZERO PUSH2 0x234D JUMPI PUSH2 0x234C PUSH2 0x1A98 JUMP JUMPDEST JUMPDEST PUSH1 0x0 DUP3 ADD CALLDATALOAD PUSH8 0xFFFFFFFFFFFFFFFF DUP2 GT ISZERO PUSH2 0x236B JUMPI PUSH2 0x236A PUSH2 0x1A9D JUMP JUMPDEST JUMPDEST PUSH2 0x2377 DUP5 DUP3 DUP6 ADD PUSH2 0x22CB JUMP JUMPDEST SWAP2 POP POP SWAP3 SWAP2 POP POP JUMP JUMPDEST PUSH1 0x0 PUSH8 0xFFFFFFFFFFFFFFFF DUP3 GT ISZERO PUSH2 0x239B JUMPI PUSH2 0x239A PUSH2 0x1ABD JUMP JUMPDEST JUMPDEST PUSH1 0x20 DUP3 MUL SWAP1 POP PUSH1 0x20 DUP2 ADD SWAP1 POP SWAP2 SWAP1 POP JUMP JUMPDEST PUSH1 0x0 PUSH2 0x23BF PUSH2 0x23BA DUP5 PUSH2 0x2380 JUMP JUMPDEST PUSH2 0x1B1D JUMP JUMPDEST SWAP1 POP DUP1 DUP4 DUP3 MSTORE PUSH1 0x20 DUP3 ADD SWAP1 POP PUSH1 0x20 DUP5 MUL DUP4 ADD DUP6 DUP2 GT ISZERO PUSH2 0x23E2 JUMPI PUSH2 0x23E1 PUSH2 0x1F59 JUMP JUMPDEST JUMPDEST DUP4 JUMPDEST DUP2 DUP2 LT ISZERO PUSH2 0x2429 JUMPI DUP1 CALLDATALOAD PUSH8 0xFFFFFFFFFFFFFFFF DUP2 GT ISZERO PUSH2 0x2407 JUMPI PUSH2 0x2406 PUSH2 0x1AA2 JUMP JUMPDEST JUMPDEST DUP1 DUP7 ADD PUSH2 0x2414 DUP10 DUP3 PUSH2 0x1F5E JUMP JUMPDEST DUP6 MSTORE PUSH1 0x20 DUP6 ADD SWAP5 POP POP POP PUSH1 0x20 DUP2 ADD SWAP1 POP PUSH2 0x23E4 JUMP JUMPDEST POP POP POP SWAP4 SWAP3 POP POP POP JUMP JUMPDEST PUSH1 0x0 DUP3 PUSH1 0x1F DUP4 ADD SLT PUSH2 0x2448 JUMPI PUSH2 0x2447 PUSH2 0x1AA2 JUMP JUMPDEST JUMPDEST DUP2 CALLDATALOAD PUSH2 0x2458 DUP5 DUP3 PUSH1 0x20 DUP7 ADD PUSH2 0x23AC JUMP JUMPDEST SWAP2 POP POP SWAP3 SWAP2 POP POP JUMP JUMPDEST PUSH1 0x0 PUSH1 0x20 DUP3 DUP5 SUB SLT ISZERO PUSH2 0x2477 JUMPI PUSH2 0x2476 PUSH2 0x1A98 JUMP JUMPDEST JUMPDEST PUSH1 0x0 DUP3 ADD CALLDATALOAD PUSH8 0xFFFFFFFFFFFFFFFF DUP2 GT ISZERO PUSH2 0x2495 JUMPI PUSH2 0x2494 PUSH2 0x1A9D JUMP JUMPDEST JUMPDEST PUSH2 0x24A1 DUP5 DUP3 DUP6 ADD PUSH2 0x2433 JUMP JUMPDEST SWAP2 POP POP SWAP3 SWAP2 POP POP JUMP JUMPDEST PUSH1 0x0 DUP2 SWAP1 POP SWAP3 SWAP2 POP POP JUMP JUMPDEST PUSH1 0x0 PUSH2 0x24C0 DUP3 PUSH2 0x1CA2 JUMP JUMPDEST PUSH2 0x24CA DUP2 DUP6 PUSH2 0x24AA JUMP JUMPDEST SWAP4 POP PUSH2 0x24DA DUP2 DUP6 PUSH1 0x20 DUP7 ADD PUSH2 0x1CBE JUMP JUMPDEST DUP1 DUP5 ADD SWAP2 POP POP SWAP3 SWAP2 POP POP JUMP JUMPDEST PUSH1 0x0 PUSH2 0x24F2 DUP3 DUP5 PUSH2 0x24B5 JUMP JUMPDEST SWAP2 POP DUP2 SWAP1 POP SWAP3 SWAP2 POP POP JUMP JUMPDEST PUSH32 0x4E487B7100000000000000000000000000000000000000000000000000000000 PUSH1 0x0 MSTORE PUSH1 0x22 PUSH1 0x4 MSTORE PUSH1 0x24 PUSH1 0x0 REVERT JUMPDEST PUSH1 0x0 PUSH1 0x2 DUP3 DIV SWAP1 POP PUSH1 0x1 DUP3 AND DUP1 PUSH2 0x2544 JUMPI PUSH1 0x7F DUP3 AND SWAP2 POP JUMPDEST PUSH1 0x20 DUP3 LT DUP2 SUB PUSH2 0x2557 JUMPI PUSH2 0x2556 PUSH2 0x24FD JUMP JUMPDEST JUMPDEST POP SWAP2 SWAP1 POP JUMP JUMPDEST PUSH1 0x0 PUSH1 0x20 DUP3 ADD SWAP1 POP DUP2 DUP2 SUB PUSH1 0x0 DUP4 ADD MSTORE PUSH2 0x2577 DUP2 DUP5 PUSH2 0x1CE8 JUMP JUMPDEST SWAP1 POP SWAP3 SWAP2 POP POP JUMP JUMPDEST PUSH1 0x0 DUP2 MLOAD SWAP1 POP PUSH2 0x258E DUP2 PUSH2 0x1C1A JUMP JUMPDEST SWAP3 SWAP2 POP POP JUMP JUMPDEST PUSH1 0x0 PUSH1 0x20 DUP3 DUP5 SUB SLT ISZERO PUSH2 0x25AA JUMPI PUSH2 0x25A9 PUSH2 0x1A98 JUMP JUMPDEST JUMPDEST PUSH1 0x0 PUSH2 0x25B8 DUP5 DUP3 DUP6 ADD PUSH2 0x257F JUMP JUMPDEST SWAP2 POP POP SWAP3 SWAP2 POP POP JUMP JUMPDEST PUSH32 0x53656E646572206973206E6F7420617574686F72697A656420746F20656D6974 PUSH1 0x0 DUP3 ADD MSTORE PUSH32 0x20636F6E74656E74206B65790000000000000000000000000000000000000000 PUSH1 0x20 DUP3 ADD MSTORE POP JUMP JUMPDEST PUSH1 0x0 PUSH2 0x261D PUSH1 0x2C DUP4 PUSH2 0x24AA JUMP JUMPDEST SWAP2 POP PUSH2 0x2628 DUP3 PUSH2 0x25C1 JUMP JUMPDEST PUSH1 0x2C DUP3 ADD SWAP1 POP SWAP2 SWAP1 POP JUMP JUMPDEST PUSH1 0x0 PUSH2 0x263E DUP3 PUSH2 0x2610 JUMP JUMPDEST SWAP2 POP DUP2 SWAP1 POP SWAP2 SWAP1 POP JUMP JUMPDEST PUSH1 0x0 DUP2 SWAP1 POP DUP2 PUSH1 0x0 MSTORE PUSH1 0x20 PUSH1 0x0 KECCAK256 SWAP1 POP SWAP2 SWAP1 POP JUMP JUMPDEST PUSH1 0x0 PUSH1 0x20 PUSH1 0x1F DUP4 ADD DIV SWAP1 POP SWAP2 SWAP1 POP JUMP JUMPDEST PUSH1 0x0 DUP3 DUP3 SHL SWAP1 POP SWAP3 SWAP2 POP POP JUMP JUMPDEST PUSH1 0x0 PUSH1 0x8 DUP4 MUL PUSH2 0x26AA PUSH32 0xFFFFFFFFFFFFFFFFFFFFFFFFFFFFFFFFFFFFFFFFFFFFFFFFFFFFFFFFFFFFFFFF DUP3 PUSH2 0x266D JUMP JUMPDEST PUSH2 0x26B4 DUP7 DUP4 PUSH2 0x266D JUMP JUMPDEST SWAP6 POP DUP1 NOT DUP5 AND SWAP4 POP DUP1 DUP7 AND DUP5 OR SWAP3 POP POP POP SWAP4 SWAP3 POP POP POP JUMP JUMPDEST PUSH1 0x0 DUP2 SWAP1 POP SWAP2 SWAP1 POP JUMP JUMPDEST PUSH1 0x0 PUSH2 0x26F1 PUSH2 0x26EC PUSH2 0x26E7 DUP5 PUSH2 0x26CC JUMP JUMPDEST PUSH2 0x1E77 JUMP JUMPDEST PUSH2 0x26CC JUMP JUMPDEST SWAP1 POP SWAP2 SWAP1 POP JUMP JUMPDEST PUSH1 0x0 DUP2 SWAP1 POP SWAP2 SWAP1 POP JUMP JUMPDEST PUSH2 0x270B DUP4 PUSH2 0x26D6 JUMP JUMPDEST PUSH2 0x271F PUSH2 0x2717 DUP3 PUSH2 0x26F8 JUMP JUMPDEST DUP5 DUP5 SLOAD PUSH2 0x267A JUMP JUMPDEST DUP3 SSTORE POP POP POP POP JUMP JUMPDEST PUSH1 0x0 SWAP1 JUMP JUMPDEST PUSH2 0x2734 PUSH2 0x2727 JUMP JUMPDEST PUSH2 0x273F DUP2 DUP5 DUP5 PUSH2 0x2702 JUMP JUMPDEST POP POP POP JUMP JUMPDEST JUMPDEST DUP2 DUP2 LT ISZERO PUSH2 0x2763 JUMPI PUSH2 0x2758 PUSH1 0x0 DUP3 PUSH2 0x272C JUMP JUMPDEST PUSH1 0x1 DUP2 ADD SWAP1 POP PUSH2 0x2745 JUMP JUMPDEST POP POP JUMP JUMPDEST PUSH1 0x1F DUP3 GT ISZERO PUSH2 0x27A8 JUMPI PUSH2 0x2779 DUP2 PUSH2 0x2648 JUMP JUMPDEST PUSH2 0x2782 DUP5 PUSH2 0x265D JUMP JUMPDEST DUP2 ADD PUSH1 0x20 DUP6 LT ISZERO PUSH2 0x2791 JUMPI DUP2 SWAP1 POP JUMPDEST PUSH2 0x27A5 PUSH2 0x279D DUP6 PUSH2 0x265D JUMP JUMPDEST DUP4 ADD DUP3 PUSH2 0x2744 JUMP JUMPDEST POP POP JUMPDEST POP POP POP JUMP JUMPDEST PUSH1 0x0 DUP3 DUP3 SHR SWAP1 POP SWAP3 SWAP2 POP POP JUMP JUMPDEST PUSH1 0x0 PUSH2 0x27CB PUSH1 0x0 NOT DUP5 PUSH1 0x8 MUL PUSH2 0x27AD JUMP JUMPDEST NOT DUP1 DUP4 AND SWAP2 POP POP SWAP3 SWAP2 POP POP JUMP JUMPDEST PUSH1 0x0 PUSH2 0x27E4 DUP4 DUP4 PUSH2 0x27BA JUMP JUMPDEST SWAP2 POP DUP3 PUSH1 0x2 MUL DUP3 OR SWAP1 POP SWAP3 SWAP2 POP POP JUMP JUMPDEST PUSH2 0x27FD DUP3 PUSH2 0x1CA2 JUMP JUMPDEST PUSH8 0xFFFFFFFFFFFFFFFF DUP2 GT ISZERO PUSH2 0x2816 JUMPI PUSH2 0x2815 PUSH2 0x1ABD JUMP JUMPDEST JUMPDEST PUSH2 0x2820 DUP3 SLOAD PUSH2 0x252C JUMP JUMPDEST PUSH2 0x282B DUP3 DUP3 DUP6 PUSH2 0x2767 JUMP JUMPDEST PUSH1 0x0 PUSH1 0x20 SWAP1 POP PUSH1 0x1F DUP4 GT PUSH1 0x1 DUP2 EQ PUSH2 0x285E JUMPI PUSH1 0x0 DUP5 ISZERO PUSH2 0x284C JUMPI DUP3 DUP8 ADD MLOAD SWAP1 POP JUMPDEST PUSH2 0x2856 DUP6 DUP3 PUSH2 0x27D8 JUMP JUMPDEST DUP7 SSTORE POP PUSH2 0x28BE JUMP JUMPDEST PUSH1 0x1F NOT DUP5 AND PUSH2 0x286C DUP7 PUSH2 0x2648 JUMP JUMPDEST PUSH1 0x0 JUMPDEST DUP3 DUP2 LT ISZERO PUSH2 0x2894 JUMPI DUP5 DUP10 ADD MLOAD DUP3 SSTORE PUSH1 0x1 DUP3 ADD SWAP2 POP PUSH1 0x20 DUP6 ADD SWAP5 POP PUSH1 0x20 DUP2 ADD SWAP1 POP PUSH2 0x286F JUMP JUMPDEST DUP7 DUP4 LT ISZERO PUSH2 0x28B1 JUMPI DUP5 DUP10 ADD MLOAD PUSH2 0x28AD PUSH1 0x1F DUP10 AND DUP3 PUSH2 0x27BA JUMP JUMPDEST DUP4 SSTORE POP JUMPDEST PUSH1 0x1 PUSH1 0x2 DUP9 MUL ADD DUP9 SSTORE POP POP POP JUMPDEST POP POP POP POP POP POP JUMP JUMPDEST PUSH2 0x28CF DUP2 PUSH2 0x1C08 JUMP JUMPDEST DUP3 MSTORE POP POP JUMP JUMPDEST PUSH1 0x0 PUSH1 0xA0 DUP3 ADD SWAP1 POP PUSH2 0x28EA PUSH1 0x0 DUP4 ADD DUP9 PUSH2 0x28C6 JUMP JUMPDEST PUSH2 0x28F7 PUSH1 0x20 DUP4 ADD DUP8 PUSH2 0x28C6 JUMP JUMPDEST DUP2 DUP2 SUB PUSH1 0x40 DUP4 ADD MSTORE PUSH2 0x2909 DUP2 DUP7 PUSH2 0x1CE8 JUMP JUMPDEST SWAP1 POP DUP2 DUP2 SUB PUSH1 0x60 DUP4 ADD MSTORE PUSH2 0x291D DUP2 DUP6 PUSH2 0x1CE8 JUMP JUMPDEST SWAP1 POP DUP2 DUP2 SUB PUSH1 0x80 DUP4 ADD MSTORE PUSH2 0x2931 DUP2 DUP5 PUSH2 0x1CE8 JUMP JUMPDEST SWAP1 POP SWAP7 SWAP6 POP POP POP POP POP POP JUMP JUMPDEST PUSH32 0x4E487B7100000000000000000000000000000000000000000000000000000000 PUSH1 0x0 MSTORE PUSH1 0x32 PUSH1 0x4 MSTORE PUSH1 0x24 PUSH1 0x0 REVERT JUMPDEST PUSH32 0x53656E646572206973206E6F7420617574686F72697A656420746F20656D6974 PUSH1 0x0 DUP3 ADD MSTORE PUSH32 0x206B657973000000000000000000000000000000000000000000000000000000 PUSH1 0x20 DUP3 ADD MSTORE POP JUMP JUMPDEST PUSH1 0x0 PUSH2 0x29C8 PUSH1 0x25 DUP4 PUSH2 0x24AA JUMP JUMPDEST SWAP2 POP PUSH2 0x29D3 DUP3 PUSH2 0x296C JUMP JUMPDEST PUSH1 0x25 DUP3 ADD SWAP1 POP SWAP2 SWAP1 POP JUMP JUMPDEST PUSH1 0x0 PUSH2 0x29E9 DUP3 PUSH2 0x29BB JUMP JUMPDEST SWAP2 POP DUP2 SWAP1 POP SWAP2 SWAP1 POP JUMP JUMPDEST PUSH1 0x0 PUSH1 0xC0 DUP3 ADD SWAP1 POP PUSH2 0x2A08 PUSH1 0x0 DUP4 ADD DUP10 PUSH2 0x28C6 JUMP JUMPDEST PUSH2 0x2A15 PUSH1 0x20 DUP4 ADD DUP9 PUSH2 0x28C6 JUMP JUMPDEST DUP2 DUP2 SUB PUSH1 0x40 DUP4 ADD MSTORE PUSH2 0x2A27 DUP2 DUP8 PUSH2 0x1CE8 JUMP JUMPDEST SWAP1 POP DUP2 DUP2 SUB PUSH1 0x60 DUP4 ADD MSTORE PUSH2 0x2A3B DUP2 DUP7 PUSH2 0x1CE8 JUMP JUMPDEST SWAP1 POP DUP2 DUP2 SUB PUSH1 0x80 DUP4 ADD MSTORE PUSH2 0x2A4F DUP2 DUP6 PUSH2 0x1CE8 JUMP JUMPDEST SWAP1 POP DUP2 DUP2 SUB PUSH1 0xA0 DUP4 ADD MSTORE PUSH2 0x2A63 DUP2 DUP5 PUSH2 0x1CE8 JUMP JUMPDEST SWAP1 POP SWAP8 SWAP7 POP POP POP POP POP POP POP JUMP JUMPDEST PUSH32 0x74686972645F7061727479000000000000000000000000000000000000000000 PUSH1 0x0 DUP3 ADD MSTORE POP JUMP JUMPDEST PUSH1 0x0 PUSH2 0x2AA6 PUSH1 0xB DUP4 PUSH2 0x24AA JUMP JUMPDEST SWAP2 POP PUSH2 0x2AB1 DUP3 PUSH2 0x2A70 JUMP JUMPDEST PUSH1 0xB DUP3 ADD SWAP1 POP SWAP2 SWAP1 POP JUMP JUMPDEST PUSH1 0x0 PUSH2 0x2AC7 DUP3 PUSH2 0x2A99 JUMP JUMPDEST SWAP2 POP DUP2 SWAP1 POP SWAP2 SWAP1 POP JUMP JUMPDEST PUSH1 0x0 PUSH1 0x20 DUP3 ADD SWAP1 POP PUSH2 0x2AE6 PUSH1 0x0 DUP4 ADD DUP5 PUSH2 0x28C6 JUMP JUMPDEST SWAP3 SWAP2 POP POP JUMP JUMPDEST PUSH1 0x0 PUSH2 0x2AFF PUSH2 0x2AFA DUP5 PUSH2 0x1B38 JUMP JUMPDEST PUSH2 0x1B1D JUMP JUMPDEST SWAP1 POP DUP3 DUP2 MSTORE PUSH1 0x20 DUP2 ADD DUP5 DUP5 DUP5 ADD GT ISZERO PUSH2 0x2B1B JUMPI PUSH2 0x2B1A PUSH2 0x1AA7 JUMP JUMPDEST JUMPDEST PUSH2 0x2B26 DUP5 DUP3 DUP6 PUSH2 0x1CBE JUMP JUMPDEST POP SWAP4 SWAP3 POP POP POP JUMP JUMPDEST PUSH1 0x0 DUP3 PUSH1 0x1F DUP4 ADD SLT PUSH2 0x2B43 JUMPI PUSH2 0x2B42 PUSH2 0x1AA2 JUMP JUMPDEST JUMPDEST DUP2 MLOAD PUSH2 0x2B53 DUP5 DUP3 PUSH1 0x20 DUP7 ADD PUSH2 0x2AEC JUMP JUMPDEST SWAP2 POP POP SWAP3 SWAP2 POP POP JUMP JUMPDEST PUSH1 0x0 PUSH1 0x20 DUP3 DUP5 SUB SLT ISZERO PUSH2 0x2B72 JUMPI PUSH2 0x2B71 PUSH2 0x1A98 JUMP JUMPDEST JUMPDEST PUSH1 0x0 DUP3 ADD MLOAD PUSH8 0xFFFFFFFFFFFFFFFF DUP2 GT ISZERO PUSH2 0x2B90 JUMPI PUSH2 0x2B8F PUSH2 0x1A9D JUMP JUMPDEST JUMPDEST PUSH2 0x2B9C DUP5 DUP3 DUP6 ADD PUSH2 0x2B2E JUMP JUMPDEST SWAP2 POP POP SWAP3 SWAP2 POP POP JUMP JUMPDEST PUSH32 0x53656E646572206973206E6F7420612074686972645F70617274790000000000 PUSH1 0x0 DUP3 ADD MSTORE POP JUMP JUMPDEST PUSH1 0x0 PUSH2 0x2BDB PUSH1 0x1B DUP4 PUSH2 0x24AA JUMP JUMPDEST SWAP2 POP PUSH2 0x2BE6 DUP3 PUSH2 0x2BA5 JUMP JUMPDEST PUSH1 0x1B DUP3 ADD SWAP1 POP SWAP2 SWAP1 POP JUMP JUMPDEST PUSH1 0x0 PUSH2 0x2BFC DUP3 PUSH2 0x2BCE JUMP JUMPDEST SWAP2 POP DUP2 SWAP1 POP SWAP2 SWAP1 POP JUMP JUMPDEST PUSH32 0x41636365737320616C7265616479207265717565737465640000000000000000 PUSH1 0x0 DUP3 ADD MSTORE POP JUMP JUMPDEST PUSH1 0x0 PUSH2 0x2C3C PUSH1 0x18 DUP4 PUSH2 0x1CAD JUMP JUMPDEST SWAP2 POP PUSH2 0x2C47 DUP3 PUSH2 0x2C06 JUMP JUMPDEST PUSH1 0x20 DUP3 ADD SWAP1 POP SWAP2 SWAP1 POP JUMP JUMPDEST PUSH1 0x0 PUSH1 0x20 DUP3 ADD SWAP1 POP DUP2 DUP2 SUB PUSH1 0x0 DUP4 ADD MSTORE PUSH2 0x2C6B DUP2 PUSH2 0x2C2F JUMP JUMPDEST SWAP1 POP SWAP2 SWAP1 POP JUMP JUMPDEST PUSH1 0x0 PUSH1 0x60 DUP3 ADD SWAP1 POP PUSH2 0x2C87 PUSH1 0x0 DUP4 ADD DUP7 PUSH2 0x28C6 JUMP JUMPDEST PUSH2 0x2C94 PUSH1 0x20 DUP4 ADD DUP6 PUSH2 0x28C6 JUMP JUMPDEST DUP2 DUP2 SUB PUSH1 0x40 DUP4 ADD MSTORE PUSH2 0x2CA6 DUP2 DUP5 PUSH2 0x1CE8 JUMP JUMPDEST SWAP1 POP SWAP5 SWAP4 POP POP POP POP JUMP JUMPDEST PUSH32 0x53656E646572206973206E6F7420617574686F72697A656420746F20656D6974 PUSH1 0x0 DUP3 ADD MSTORE PUSH32 0x2074656E646572206B6579000000000000000000000000000000000000000000 PUSH1 0x20 DUP3 ADD MSTORE POP JUMP JUMPDEST PUSH1 0x0 PUSH2 0x2D0C PUSH1 0x2B DUP4 PUSH2 0x24AA JUMP JUMPDEST SWAP2 POP PUSH2 0x2D17 DUP3 PUSH2 0x2CB0 JUMP JUMPDEST PUSH1 0x2B DUP3 ADD SWAP1 POP SWAP2 SWAP1 POP JUMP JUMPDEST PUSH1 0x0 PUSH2 0x2D2D DUP3 PUSH2 0x2CFF JUMP JUMPDEST SWAP2 POP DUP2 SWAP1 POP SWAP2 SWAP1 POP JUMP INVALID LOG2 PUSH5 0x6970667358 0x22 SLT KECCAK256 TLOAD POP PUSH31 0xD38A903908FC74957CDE85BCD96C1A9B9014F24A3790E3D3481CAA15026473 PUSH16 0x6C634300081C00330000000000000000 "},"methodIdentifiers":{"documentStore()":"408acd33","emitCombinedKeys(((address,string,string,string),(address,string,string,string,string))[])":"7def3c9a","emitContentKey((address,string,string,string))":"101643c8","emitTenderKey((address,string,string,string,string)[])":"a6d047c1","getEncryptedContentKey(string,address)":"b5170ba1","getEncryptedTenderKey(string,address)":"0dc80d0c","publicKeyStorage()":"6dbfdf25","requestAccessContent((address,string))":"a18e460d","requestAccessTender(string,string,string,string,address)":"9ec1aadd"}}}}}