{"contracts/PublicKeyStorage.sol":{"PublicKeyStorage":{"abi":[{"anonymous":false,"inputs":[{"indexed":true,"internalType":"address","name":"walletAddress","type":"address"},{"indexed":false,"internalType":"string","name":"publicKey","type":"string"},{"indexed":false,"internalType":"string","name":"name","type":"string"}],"name":"PublicKeyStored","type":"event"},{"inputs":[{"internalType":"address","name":"walletAddress","type":"address"}],"name":"getName","outputs":[{"internalType":"string","name":"","type":"string"}],"stateMutability":"view","type":"function"},{"inputs":[{"internalType":"address","name":"walletAddress","type":"address"}],"name":"getPublicKey","outputs":[{"internalType":"string","name":"","type":"string"}],"stateMutability":"view","type":"function"},{"inputs":[{"internalType":"address","name":"walletAddress","type":"address"},{"internalType":"string","name":"publicKey","type":"string"},{"internalType":"string","name":"name","type":"string"}],"name":"storePublicKey","outputs":[],"stateMutability":"nonpayable","type":"function"},{"inputs":[{"internalType":"address","name":"","type":"address"}],"name":"walletToName","outputs":[{"internalType":"string","name":"","type":"string"}],"stateMutability":"view","type":"function"},{"inputs":[{"internalType":"address","name":"","type":"address"}],"name":"walletToPublicKey","outputs":[{"internalType":"string","name":"","type":"string"}],"stateMutability":"view","type":"function"}],"evm":{"bytecode":{"linkReferences":{},"object":"6080604052348015600f57600080fd5b50610b6d8061001f6000396000f3fe608060405234801561001057600080fd5b50600436106100575760003560e01c80630dc600dd1461005c5780635fd4b08a1461008c57806362c00cb5146100bc578063857cdbb8146100d8578063fa31219614610108575b600080fd5b61007660048036038101906100719190610579565b610138565b6040516100839190610636565b60405180910390f35b6100a660048036038101906100a19190610579565b6101d8565b6040516100b39190610636565b60405180910390f35b6100d660048036038101906100d1919061078d565b6102a9565b005b6100f260048036038101906100ed9190610579565b610397565b6040516100ff9190610636565b60405180910390f35b610122600480360381019061011d9190610579565b610467565b60405161012f9190610636565b60405180910390f35b6001602052806000526040600020600091509050805461015790610847565b80601f016020809104026020016040519081016040528092919081815260200182805461018390610847565b80156101d05780601f106101a5576101008083540402835291602001916101d0565b820191906000526020600020905b8154815290600101906020018083116101b357829003601f168201915b505050505081565b6060600160008373ffffffffffffffffffffffffffffffffffffffff1673ffffffffffffffffffffffffffffffffffffffff168152602001908152602001600020805461022490610847565b80601f016020809104026020016040519081016040528092919081815260200182805461025090610847565b801561029d5780601f106102725761010080835404028352916020019161029d565b820191906000526020600020905b81548152906001019060200180831161028057829003601f168201915b50505050509050919050565b816000808573ffffffffffffffffffffffffffffffffffffffff1673ffffffffffffffffffffffffffffffffffffffff16815260200190815260200160002090816102f49190610a2e565b5080600160008573ffffffffffffffffffffffffffffffffffffffff1673ffffffffffffffffffffffffffffffffffffffff16815260200190815260200160002090816103419190610a2e565b508273ffffffffffffffffffffffffffffffffffffffff167f0c0f3c9af4ef14991ee4225a22abd7841aafe859c0e80968b8ca5d9f53366f09838360405161038a929190610b00565b60405180910390a2505050565b60606000808373ffffffffffffffffffffffffffffffffffffffff1673ffffffffffffffffffffffffffffffffffffffff16815260200190815260200160002080546103e290610847565b80601f016020809104026020016040519081016040528092919081815260200182805461040e90610847565b801561045b5780601f106104305761010080835404028352916020019161045b565b820191906000526020600020905b81548152906001019060200180831161043e57829003601f168201915b50505050509050919050565b6000602052806000526040600020600091509050805461048690610847565b80601f01602080910402602001604051908101604052809291908181526020018280546104b290610847565b80156104ff5780601f106104d4576101008083540402835291602001916104ff565b820191906000526020600020905b8154815290600101906020018083116104e257829003601f168201915b505050505081565b6000604051905090565b600080fd5b600080fd5b600073ffffffffffffffffffffffffffffffffffffffff82169050919050565b60006105468261051b565b9050919050565b6105568161053b565b811461056157600080fd5b50565b6000813590506105738161054d565b92915050565b60006020828403121561058f5761058e610511565b5b600061059d84828501610564565b91505092915050565b600081519050919050565b600082825260208201905092915050565b60005b838110156105e05780820151818401526020810190506105c5565b60008484015250505050565b6000601f19601f8301169050919050565b6000610608826105a6565b61061281856105b1565b93506106228185602086016105c2565b61062b816105ec565b840191505092915050565b6000602082019050818103600083015261065081846105fd565b905092915050565b600080fd5b600080fd5b7f4e487b7100000000000000000000000000000000000000000000000000000000600052604160045260246000fd5b61069a826105ec565b810181811067ffffffffffffffff821117156106b9576106b8610662565b5b80604052505050565b60006106cc610507565b90506106d88282610691565b919050565b600067ffffffffffffffff8211156106f8576106f7610662565b5b610701826105ec565b9050602081019050919050565b82818337600083830152505050565b600061073061072b846106dd565b6106c2565b90508281526020810184848401111561074c5761074b61065d565b5b61075784828561070e565b509392505050565b600082601f83011261077457610773610658565b5b813561078484826020860161071d565b91505092915050565b6000806000606084860312156107a6576107a5610511565b5b60006107b486828701610564565b935050602084013567ffffffffffffffff8111156107d5576107d4610516565b5b6107e18682870161075f565b925050604084013567ffffffffffffffff81111561080257610801610516565b5b61080e8682870161075f565b9150509250925092565b7f4e487b7100000000000000000000000000000000000000000000000000000000600052602260045260246000fd5b6000600282049050600182168061085f57607f821691505b60208210810361087257610871610818565b5b50919050565b60008190508160005260206000209050919050565b60006020601f8301049050919050565b600082821b905092915050565b6000600883026108da7fffffffffffffffffffffffffffffffffffffffffffffffffffffffffffffffff8261089d565b6108e4868361089d565b95508019841693508086168417925050509392505050565b6000819050919050565b6000819050919050565b600061092b610926610921846108fc565b610906565b6108fc565b9050919050565b6000819050919050565b61094583610910565b61095961095182610932565b8484546108aa565b825550505050565b600090565b61096e610961565b61097981848461093c565b505050565b5b8181101561099d57610992600082610966565b60018101905061097f565b5050565b601f8211156109e2576109b381610878565b6109bc8461088d565b810160208510156109cb578190505b6109df6109d78561088d565b83018261097e565b50505b505050565b600082821c905092915050565b6000610a05600019846008026109e7565b1980831691505092915050565b6000610a1e83836109f4565b9150826002028217905092915050565b610a37826105a6565b67ffffffffffffffff811115610a5057610a4f610662565b5b610a5a8254610847565b610a658282856109a1565b600060209050601f831160018114610a985760008415610a86578287015190505b610a908582610a12565b865550610af8565b601f198416610aa686610878565b60005b82811015610ace57848901518255600182019150602085019450602081019050610aa9565b86831015610aeb5784890151610ae7601f8916826109f4565b8355505b6001600288020188555050505b505050505050565b60006040820190508181036000830152610b1a81856105fd565b90508181036020830152610b2e81846105fd565b9050939250505056fea264697066735822122002633af01b52ddb38ad9f00227f4d37c9540f6a35da7f8e63d0cc301b41d6bb264736f6c634300081c0033","opcodes":"PUSH1 0x80 PUSH1 0x40 MSTORE CALLVALUE DUP1 ISZERO PUSH1 0xF JUMPI PUSH1 0x0 DUP1 REVERT JUMPDEST POP PUSH2 0xB6D DUP1 PUSH2 0x1F PUSH1 0x0 CODECOPY PUSH1 0x0 RETURN INVALID PUSH1 0x80 PUSH1 0x40 MSTORE CALLVALUE DUP1 ISZERO PUSH2 0x10 JUMPI PUSH1 0x0 DUP1 REVERT JUMPDEST POP PUSH1 0x4 CALLDATASIZE LT PUSH2 0x57 JUMPI PUSH1 0x0 CALLDATALOAD PUSH1 0xE0 SHR DUP1 PUSH4 0xDC600DD EQ PUSH2 0x5C JUMPI DUP1 PUSH4 0x5FD4B08A EQ PUSH2 0x8C JUMPI DUP1 PUSH4 0x62C00CB5 EQ PUSH2 0xBC JUMPI DUP1 PUSH4 0x857CDBB8 EQ PUSH2 0xD8 JUMPI DUP1 PUSH4 0xFA312196 EQ PUSH2 0x108 JUMPI JUMPDEST PUSH1 0x0 DUP1 REVERT JUMPDEST PUSH2 0x76 PUSH1 0x4 DUP1 CALLDATASIZE SUB DUP2 ADD SWAP1 PUSH2 0x71 SWAP2 SWAP1 PUSH2 0x579 JUMP JUMPDEST PUSH2 0x138 JUMP JUMPDEST PUSH1 0x40 MLOAD PUSH2 0x83 SWAP2 SWAP1 PUSH2 0x636 JUMP JUMPDEST PUSH1 0x40 MLOAD DUP1 SWAP2 SUB SWAP1 RETURN JUMPDEST PUSH2 0xA6 PUSH1 0x4 DUP1 CALLDATASIZE SUB DUP2 ADD SWAP1 PUSH2 0xA1 SWAP2 SWAP1 PUSH2 0x579 JUMP JUMPDEST PUSH2 0x1D8 JUMP JUMPDEST PUSH1 0x40 MLOAD PUSH2 0xB3 SWAP2 SWAP1 PUSH2 0x636 JUMP JUMPDEST PUSH1 0x40 MLOAD DUP1 SWAP2 SUB SWAP1 RETURN JUMPDEST PUSH2 0xD6 PUSH1 0x4 DUP1 CALLDATASIZE SUB DUP2 ADD SWAP1 PUSH2 0xD1 SWAP2 SWAP1 PUSH2 0x78D JUMP JUMPDEST PUSH2 0x2A9 JUMP JUMPDEST STOP JUMPDEST PUSH2 0xF2 PUSH1 0x4 DUP1 CALLDATASIZE SUB DUP2 ADD SWAP1 PUSH2 0xED SWAP2 SWAP1 PUSH2 0x579 JUMP JUMPDEST PUSH2 0x397 JUMP JUMPDEST PUSH1 0x40 MLOAD PUSH2 0xFF SWAP2 SWAP1 PUSH2 0x636 JUMP JUMPDEST PUSH1 0x40 MLOAD DUP1 SWAP2 SUB SWAP1 RETURN JUMPDEST PUSH2 0x122 PUSH1 0x4 DUP1 CALLDATASIZE SUB DUP2 ADD SWAP1 PUSH2 0x11D SWAP2 SWAP1 PUSH2 0x579 JUMP JUMPDEST PUSH2 0x467 JUMP JUMPDEST PUSH1 0x40 MLOAD PUSH2 0x12F SWAP2 SWAP1 PUSH2 0x636 JUMP JUMPDEST PUSH1 0x40 MLOAD DUP1 SWAP2 SUB SWAP1 RETURN JUMPDEST PUSH1 0x1 PUSH1 0x20 MSTORE DUP1 PUSH1 0x0 MSTORE PUSH1 0x40 PUSH1 0x0 KECCAK256 PUSH1 0x0 SWAP2 POP SWAP1 POP DUP1 SLOAD PUSH2 0x157 SWAP1 PUSH2 0x847 JUMP JUMPDEST DUP1 PUSH1 0x1F ADD PUSH1 0x20 DUP1 SWAP2 DIV MUL PUSH1 0x20 ADD PUSH1 0x40 MLOAD SWAP1 DUP2 ADD PUSH1 0x40 MSTORE DUP1 SWAP3 SWAP2 SWAP1 DUP2 DUP2 MSTORE PUSH1 0x20 ADD DUP3 DUP1 SLOAD PUSH2 0x183 SWAP1 PUSH2 0x847 JUMP JUMPDEST DUP1 ISZERO PUSH2 0x1D0 JUMPI DUP1 PUSH1 0x1F LT PUSH2 0x1A5 JUMPI PUSH2 0x100 DUP1 DUP4 SLOAD DIV MUL DUP4 MSTORE SWAP2 PUSH1 0x20 ADD SWAP2 PUSH2 0x1D0 JUMP JUMPDEST DUP3 ADD SWAP2 SWAP1 PUSH1 0x0 MSTORE PUSH1 0x20 PUSH1 0x0 KECCAK256 SWAP1 JUMPDEST DUP2 SLOAD DUP2 MSTORE SWAP1 PUSH1 0x1 ADD SWAP1 PUSH1 0x20 ADD DUP1 DUP4 GT PUSH2 0x1B3 JUMPI DUP3 SWAP1 SUB PUSH1 0x1F AND DUP3 ADD SWAP2 JUMPDEST POP POP POP POP POP DUP2 JUMP JUMPDEST PUSH1 0x60 PUSH1 0x1 PUSH1 0x0 DUP4 PUSH20 0xFFFFFFFFFFFFFFFFFFFFFFFFFFFFFFFFFFFFFFFF AND PUSH20 0xFFFFFFFFFFFFFFFFFFFFFFFFFFFFFFFFFFFFFFFF AND DUP2 MSTORE PUSH1 0x20 ADD SWAP1 DUP2 MSTORE PUSH1 0x20 ADD PUSH1 0x0 KECCAK256 DUP1 SLOAD PUSH2 0x224 SWAP1 PUSH2 0x847 JUMP JUMPDEST DUP1 PUSH1 0x1F ADD PUSH1 0x20 DUP1 SWAP2 DIV MUL PUSH1 0x20 ADD PUSH1 0x40 MLOAD SWAP1 DUP2 ADD PUSH1 0x40 MSTORE DUP1 SWAP3 SWAP2 SWAP1 DUP2 DUP2 MSTORE PUSH1 0x20 ADD DUP3 DUP1 SLOAD PUSH2 0x250 SWAP1 PUSH2 0x847 JUMP JUMPDEST DUP1 ISZERO PUSH2 0x29D JUMPI DUP1 PUSH1 0x1F LT PUSH2 0x272 JUMPI PUSH2 0x100 DUP1 DUP4 SLOAD DIV MUL DUP4 MSTORE SWAP2 PUSH1 0x20 ADD SWAP2 PUSH2 0x29D JUMP JUMPDEST DUP3 ADD SWAP2 SWAP1 PUSH1 0x0 MSTORE PUSH1 0x20 PUSH1 0x0 KECCAK256 SWAP1 JUMPDEST DUP2 SLOAD DUP2 MSTORE SWAP1 PUSH1 0x1 ADD SWAP1 PUSH1 0x20 ADD DUP1 DUP4 GT PUSH2 0x280 JUMPI DUP3 SWAP1 SUB PUSH1 0x1F AND DUP3 ADD SWAP2 JUMPDEST POP POP POP POP POP SWAP1 POP SWAP2 SWAP1 POP JUMP JUMPDEST DUP2 PUSH1 0x0 DUP1 DUP6 PUSH20 0xFFFFFFFFFFFFFFFFFFFFFFFFFFFFFFFFFFFFFFFF AND PUSH20 0xFFFFFFFFFFFFFFFFFFFFFFFFFFFFFFFFFFFFFFFF AND DUP2 MSTORE PUSH1 0x20 ADD SWAP1 DUP2 MSTORE PUSH1 0x20 ADD PUSH1 0x0 KECCAK256 SWAP1 DUP2 PUSH2 0x2F4 SWAP2 SWAP1 PUSH2 0xA2E JUMP JUMPDEST POP DUP1 PUSH1 0x1 PUSH1 0x0 DUP6 PUSH20 0xFFFFFFFFFFFFFFFFFFFFFFFFFFFFFFFFFFFFFFFF AND PUSH20 0xFFFFFFFFFFFFFFFFFFFFFFFFFFFFFFFFFFFFFFFF AND DUP2 MSTORE PUSH1 0x20 ADD SWAP1 DUP2 MSTORE PUSH1 0x20 ADD PUSH1 0x0 KECCAK256 SWAP1 DUP2 PUSH2 0x341 SWAP2 SWAP1 PUSH2 0xA2E JUMP JUMPDEST POP DUP3 PUSH20 0xFFFFFFFFFFFFFFFFFFFFFFFFFFFFFFFFFFFFFFFF AND PUSH32 0xC0F3C9AF4EF14991EE4225A22ABD7841AAFE859C0E80968B8CA5D9F53366F09 DUP4 DUP4 PUSH1 0x40 MLOAD PUSH2 0x38A SWAP3 SWAP2 SWAP1 PUSH2 0xB00 JUMP JUMPDEST PUSH1 0x40 MLOAD DUP1 SWAP2 SUB SWAP1 LOG2 POP POP POP JUMP JUMPDEST PUSH1 0x60 PUSH1 0x0 DUP1 DUP4 PUSH20 0xFFFFFFFFFFFFFFFFFFFFFFFFFFFFFFFFFFFFFFFF AND PUSH20 0xFFFFFFFFFFFFFFFFFFFFFFFFFFFFFFFFFFFFFFFF AND DUP2 MSTORE PUSH1 0x20 ADD SWAP1 DUP2 MSTORE PUSH1 0x20 ADD PUSH1 0x0 KECCAK256 DUP1 SLOAD PUSH2 0x3E2 SWAP1 PUSH2 0x847 JUMP JUMPDEST DUP1 PUSH1 0x1F ADD PUSH1 0x20 DUP1 SWAP2 DIV MUL PUSH1 0x20 ADD PUSH1 0x40 MLOAD SWAP1 DUP2 ADD PUSH1 0x40 MSTORE DUP1 SWAP3 SWAP2 SWAP1 DUP2 DUP2 MSTORE PUSH1 0x20 ADD DUP3 DUP1 SLOAD PUSH2 0x40E SWAP1 PUSH2 0x847 JUMP JUMPDEST DUP1 ISZERO PUSH2 0x45B JUMPI DUP1 PUSH1 0x1F LT PUSH2 0x430 JUMPI PUSH2 0x100 DUP1 DUP4 SLOAD DIV MUL DUP4 MSTORE SWAP2 PUSH1 0x20 ADD SWAP2 PUSH2 0x45B JUMP JUMPDEST DUP3 ADD SWAP2 SWAP1 PUSH1 0x0 MSTORE PUSH1 0x20 PUSH1 0x0 KECCAK256 SWAP1 JUMPDEST DUP2 SLOAD DUP2 MSTORE SWAP1 PUSH1 0x1 ADD SWAP1 PUSH1 0x20 ADD DUP1 DUP4 GT PUSH2 0x43E JUMPI DUP3 SWAP1 SUB PUSH1 0x1F AND DUP3 ADD SWAP2 JUMPDEST POP POP POP POP POP SWAP1 POP SWAP2 SWAP1 POP JUMP JUMPDEST PUSH1 0x0 PUSH1 0x20 MSTORE DUP1 PUSH1 0x0 MSTORE PUSH1 0x40 PUSH1 0x0 KECCAK256 PUSH1 0x0 SWAP2 POP SWAP1 POP DUP1 SLOAD PUSH2 0x486 SWAP1 PUSH2 0x847 JUMP JUMPDEST DUP1 PUSH1 0x1F ADD PUSH1 0x20 DUP1 SWAP2 DIV MUL PUSH1 0x20 ADD PUSH1 0x40 MLOAD SWAP1 DUP2 ADD PUSH1 0x40 MSTORE DUP1 SWAP3 SWAP2 SWAP1 DUP2 DUP2 MSTORE PUSH1 0x20 ADD DUP3 DUP1 SLOAD PUSH2 0x4B2 SWAP1 PUSH2 0x847 JUMP JUMPDEST DUP1 ISZERO PUSH2 0x4FF JUMPI DUP1 PUSH1 0x1F LT PUSH2 0x4D4 JUMPI PUSH2 0x100 DUP1 DUP4 SLOAD DIV MUL DUP4 MSTORE SWAP2 PUSH1 0x20 ADD SWAP2 PUSH2 0x4FF JUMP JUMPDEST DUP3 ADD SWAP2 SWAP1 PUSH1 0x0 MSTORE PUSH1 0x20 PUSH1 0x0 KECCAK256 SWAP1 JUMPDEST DUP2 SLOAD DUP2 MSTORE SWAP1 PUSH1 0x1 ADD SWAP1 PUSH1 0x20 ADD DUP1 DUP4 GT PUSH2 0x4E2 JUMPI DUP3 SWAP1 SUB PUSH1 0x1F AND DUP3 ADD SWAP2 JUMPDEST POP POP POP POP POP DUP2 JUMP JUMPDEST PUSH1 0x0 PUSH1 0x40 MLOAD SWAP1 POP SWAP1 JUMP JUMPDEST PUSH1 0x0 DUP1 REVERT JUMPDEST PUSH1 0x0 DUP1 REVERT JUMPDEST PUSH1 0x0 PUSH20 0xFFFFFFFFFFFFFFFFFFFFFFFFFFFFFFFFFFFFFFFF DUP3 AND SWAP1 POP SWAP2 SWAP1 POP JUMP JUMPDEST PUSH1 0x0 PUSH2 0x546 DUP3 PUSH2 0x51B JUMP JUMPDEST SWAP1 POP SWAP2 SWAP1 POP JUMP JUMPDEST PUSH2 0x556 DUP2 PUSH2 0x53B JUMP JUMPDEST DUP2 EQ PUSH2 0x561 JUMPI PUSH1 0x0 DUP1 REVERT JUMPDEST POP JUMP JUMPDEST PUSH1 0x0 DUP2 CALLDATALOAD SWAP1 POP PUSH2 0x573 DUP2 PUSH2 0x54D JUMP JUMPDEST SWAP3 SWAP2 POP POP JUMP JUMPDEST PUSH1 0x0 PUSH1 0x20 DUP3 DUP5 SUB SLT ISZERO PUSH2 0x58F JUMPI PUSH2 0x58E PUSH2 0x511 JUMP JUMPDEST JUMPDEST PUSH1 0x0 PUSH2 0x59D DUP5 DUP3 DUP6 ADD PUSH2 0x564 JUMP JUMPDEST SWAP2 POP POP SWAP3 SWAP2 POP POP JUMP JUMPDEST PUSH1 0x0 DUP2 MLOAD SWAP1 POP SWAP2 SWAP1 POP JUMP JUMPDEST PUSH1 0x0 DUP3 DUP3 MSTORE PUSH1 0x20 DUP3 ADD SWAP1 POP SWAP3 SWAP2 POP POP JUMP JUMPDEST PUSH1 0x0 JUMPDEST DUP4 DUP2 LT ISZERO PUSH2 0x5E0 JUMPI DUP1 DUP3 ADD MLOAD DUP2 DUP5 ADD MSTORE PUSH1 0x20 DUP2 ADD SWAP1 POP PUSH2 0x5C5 JUMP JUMPDEST PUSH1 0x0 DUP5 DUP5 ADD MSTORE POP POP POP POP JUMP JUMPDEST PUSH1 0x0 PUSH1 0x1F NOT PUSH1 0x1F DUP4 ADD AND SWAP1 POP SWAP2 SWAP1 POP JUMP JUMPDEST PUSH1 0x0 PUSH2 0x608 DUP3 PUSH2 0x5A6 JUMP JUMPDEST PUSH2 0x612 DUP2 DUP6 PUSH2 0x5B1 JUMP JUMPDEST SWAP4 POP PUSH2 0x622 DUP2 DUP6 PUSH1 0x20 DUP7 ADD PUSH2 0x5C2 JUMP JUMPDEST PUSH2 0x62B DUP2 PUSH2 0x5EC JUMP JUMPDEST DUP5 ADD SWAP2 POP POP SWAP3 SWAP2 POP POP JUMP JUMPDEST PUSH1 0x0 PUSH1 0x20 DUP3 ADD SWAP1 POP DUP2 DUP2 SUB PUSH1 0x0 DUP4 ADD MSTORE PUSH2 0x650 DUP2 DUP5 PUSH2 0x5FD JUMP JUMPDEST SWAP1 POP SWAP3 SWAP2 POP POP JUMP JUMPDEST PUSH1 0x0 DUP1 REVERT JUMPDEST PUSH1 0x0 DUP1 REVERT JUMPDEST PUSH32 0x4E487B7100000000000000000000000000000000000000000000000000000000 PUSH1 0x0 MSTORE PUSH1 0x41 PUSH1 0x4 MSTORE PUSH1 0x24 PUSH1 0x0 REVERT JUMPDEST PUSH2 0x69A DUP3 PUSH2 0x5EC JUMP JUMPDEST DUP2 ADD DUP2 DUP2 LT PUSH8 0xFFFFFFFFFFFFFFFF DUP3 GT OR ISZERO PUSH2 0x6B9 JUMPI PUSH2 0x6B8 PUSH2 0x662 JUMP JUMPDEST JUMPDEST DUP1 PUSH1 0x40 MSTORE POP POP POP JUMP JUMPDEST PUSH1 0x0 PUSH2 0x6CC PUSH2 0x507 JUMP JUMPDEST SWAP1 POP PUSH2 0x6D8 DUP3 DUP3 PUSH2 0x691 JUMP JUMPDEST SWAP2 SWAP1 POP JUMP JUMPDEST PUSH1 0x0 PUSH8 0xFFFFFFFFFFFFFFFF DUP3 GT ISZERO PUSH2 0x6F8 JUMPI PUSH2 0x6F7 PUSH2 0x662 JUMP JUMPDEST JUMPDEST PUSH2 0x701 DUP3 PUSH2 0x5EC JUMP JUMPDEST SWAP1 POP PUSH1 0x20 DUP2 ADD SWAP1 POP SWAP2 SWAP1 POP JUMP JUMPDEST DUP3 DUP2 DUP4 CALLDATACOPY PUSH1 0x0 DUP4 DUP4 ADD MSTORE POP POP POP JUMP JUMPDEST PUSH1 0x0 PUSH2 0x730 PUSH2 0x72B DUP5 PUSH2 0x6DD JUMP JUMPDEST PUSH2 0x6C2 JUMP JUMPDEST SWAP1 POP DUP3 DUP2 MSTORE PUSH1 0x20 DUP2 ADD DUP5 DUP5 DUP5 ADD GT ISZERO PUSH2 0x74C JUMPI PUSH2 0x74B PUSH2 0x65D JUMP JUMPDEST JUMPDEST PUSH2 0x757 DUP5 DUP3 DUP6 PUSH2 0x70E JUMP JUMPDEST POP SWAP4 SWAP3 POP POP POP JUMP JUMPDEST PUSH1 0x0 DUP3 PUSH1 0x1F DUP4 ADD SLT PUSH2 0x774 JUMPI PUSH2 0x773 PUSH2 0x658 JUMP JUMPDEST JUMPDEST DUP2 CALLDATALOAD PUSH2 0x784 DUP5 DUP3 PUSH1 0x20 DUP7 ADD PUSH2 0x71D JUMP JUMPDEST SWAP2 POP POP SWAP3 SWAP2 POP POP JUMP JUMPDEST PUSH1 0x0 DUP1 PUSH1 0x0 PUSH1 0x60 DUP5 DUP7 SUB SLT ISZERO PUSH2 0x7A6 JUMPI PUSH2 0x7A5 PUSH2 0x511 JUMP JUMPDEST JUMPDEST PUSH1 0x0 PUSH2 0x7B4 DUP7 DUP3 DUP8 ADD PUSH2 0x564 JUMP JUMPDEST SWAP4 POP POP PUSH1 0x20 DUP5 ADD CALLDATALOAD PUSH8 0xFFFFFFFFFFFFFFFF DUP2 GT ISZERO PUSH2 0x7D5 JUMPI PUSH2 0x7D4 PUSH2 0x516 JUMP JUMPDEST JUMPDEST PUSH2 0x7E1 DUP7 DUP3 DUP8 ADD PUSH2 0x75F JUMP JUMPDEST SWAP3 POP POP PUSH1 0x40 DUP5 ADD CALLDATALOAD PUSH8 0xFFFFFFFFFFFFFFFF DUP2 GT ISZERO PUSH2 0x802 JUMPI PUSH2 0x801 PUSH2 0x516 JUMP JUMPDEST JUMPDEST PUSH2 0x80E DUP7 DUP3 DUP8 ADD PUSH2 0x75F JUMP JUMPDEST SWAP2 POP POP SWAP3 POP SWAP3 POP SWAP3 JUMP JUMPDEST PUSH32 0x4E487B7100000000000000000000000000000000000000000000000000000000 PUSH1 0x0 MSTORE PUSH1 0x22 PUSH1 0x4 MSTORE PUSH1 0x24 PUSH1 0x0 REVERT JUMPDEST PUSH1 0x0 PUSH1 0x2 DUP3 DIV SWAP1 POP PUSH1 0x1 DUP3 AND DUP1 PUSH2 0x85F JUMPI PUSH1 0x7F DUP3 AND SWAP2 POP JUMPDEST PUSH1 0x20 DUP3 LT DUP2 SUB PUSH2 0x872 JUMPI PUSH2 0x871 PUSH2 0x818 JUMP JUMPDEST JUMPDEST POP SWAP2 SWAP1 POP JUMP JUMPDEST PUSH1 0x0 DUP2 SWAP1 POP DUP2 PUSH1 0x0 MSTORE PUSH1 0x20 PUSH1 0x0 KECCAK256 SWAP1 POP SWAP2 SWAP1 POP JUMP JUMPDEST PUSH1 0x0 PUSH1 0x20 PUSH1 0x1F DUP4 ADD DIV SWAP1 POP SWAP2 SWAP1 POP JUMP JUMPDEST PUSH1 0x0 DUP3 DUP3 SHL SWAP1 POP SWAP3 SWAP2 POP POP JUMP JUMPDEST PUSH1 0x0 PUSH1 0x8 DUP4 MUL PUSH2 0x8DA PUSH32 0xFFFFFFFFFFFFFFFFFFFFFFFFFFFFFFFFFFFFFFFFFFFFFFFFFFFFFFFFFFFFFFFF DUP3 PUSH2 0x89D JUMP JUMPDEST PUSH2 0x8E4 DUP7 DUP4 PUSH2 0x89D JUMP JUMPDEST SWAP6 POP DUP1 NOT DUP5 AND SWAP4 POP DUP1 DUP7 AND DUP5 OR SWAP3 POP POP POP SWAP4 SWAP3 POP POP POP JUMP JUMPDEST PUSH1 0x0 DUP2 SWAP1 POP SWAP2 SWAP1 POP JUMP JUMPDEST PUSH1 0x0 DUP2 SWAP1 POP SWAP2 SWAP1 POP JUMP JUMPDEST PUSH1 0x0 PUSH2 0x92B PUSH2 0x926 PUSH2 0x921 DUP5 PUSH2 0x8FC JUMP JUMPDEST PUSH2 0x906 JUMP JUMPDEST PUSH2 0x8FC JUMP JUMPDEST SWAP1 POP SWAP2 SWAP1 POP JUMP JUMPDEST PUSH1 0x0 DUP2 SWAP1 POP SWAP2 SWAP1 POP JUMP JUMPDEST PUSH2 0x945 DUP4 PUSH2 0x910 JUMP JUMPDEST PUSH2 0x959 PUSH2 0x951 DUP3 PUSH2 0x932 JUMP JUMPDEST DUP5 DUP5 SLOAD PUSH2 0x8AA JUMP JUMPDEST DUP3 SSTORE POP POP POP POP JUMP JUMPDEST PUSH1 0x0 SWAP1 JUMP JUMPDEST PUSH2 0x96E PUSH2 0x961 JUMP JUMPDEST PUSH2 0x979 DUP2 DUP5 DUP5 PUSH2 0x93C JUMP JUMPDEST POP POP POP JUMP JUMPDEST JUMPDEST DUP2 DUP2 LT ISZERO PUSH2 0x99D JUMPI PUSH2 0x992 PUSH1 0x0 DUP3 PUSH2 0x966 JUMP JUMPDEST PUSH1 0x1 DUP2 ADD SWAP1 POP PUSH2 0x97F JUMP JUMPDEST POP POP JUMP JUMPDEST PUSH1 0x1F DUP3 GT ISZERO PUSH2 0x9E2 JUMPI PUSH2 0x9B3 DUP2 PUSH2 0x878 JUMP JUMPDEST PUSH2 0x9BC DUP5 PUSH2 0x88D JUMP JUMPDEST DUP2 ADD PUSH1 0x20 DUP6 LT ISZERO PUSH2 0x9CB JUMPI DUP2 SWAP1 POP JUMPDEST PUSH2 0x9DF PUSH2 0x9D7 DUP6 PUSH2 0x88D JUMP JUMPDEST DUP4 ADD DUP3 PUSH2 0x97E JUMP JUMPDEST POP POP JUMPDEST POP POP POP JUMP JUMPDEST PUSH1 0x0 DUP3 DUP3 SHR SWAP1 POP SWAP3 SWAP2 POP POP JUMP JUMPDEST PUSH1 0x0 PUSH2 0xA05 PUSH1 0x0 NOT DUP5 PUSH1 0x8 MUL PUSH2 0x9E7 JUMP JUMPDEST NOT DUP1 DUP4 AND SWAP2 POP POP SWAP3 SWAP2 POP POP JUMP JUMPDEST PUSH1 0x0 PUSH2 0xA1E DUP4 DUP4 PUSH2 0x9F4 JUMP JUMPDEST SWAP2 POP DUP3 PUSH1 0x2 MUL DUP3 OR SWAP1 POP SWAP3 SWAP2 POP POP JUMP JUMPDEST PUSH2 0xA37 DUP3 PUSH2 0x5A6 JUMP JUMPDEST PUSH8 0xFFFFFFFFFFFFFFFF DUP2 GT ISZERO PUSH2 0xA50 JUMPI PUSH2 0xA4F PUSH2 0x662 JUMP JUMPDEST JUMPDEST PUSH2 0xA5A DUP3 SLOAD PUSH2 0x847 JUMP JUMPDEST PUSH2 0xA65 DUP3 DUP3 DUP6 PUSH2 0x9A1 JUMP JUMPDEST PUSH1 0x0 PUSH1 0x20 SWAP1 POP PUSH1 0x1F DUP4 GT PUSH1 0x1 DUP2 EQ PUSH2 0xA98 JUMPI PUSH1 0x0 DUP5 ISZERO PUSH2 0xA86 JUMPI DUP3 DUP8 ADD MLOAD SWAP1 POP JUMPDEST PUSH2 0xA90 DUP6 DUP3 PUSH2 0xA12 JUMP JUMPDEST DUP7 SSTORE POP PUSH2 0xAF8 JUMP JUMPDEST PUSH1 0x1F NOT DUP5 AND PUSH2 0xAA6 DUP7 PUSH2 0x878 JUMP JUMPDEST PUSH1 0x0 JUMPDEST DUP3 DUP2 LT ISZERO PUSH2 0xACE JUMPI DUP5 DUP10 ADD MLOAD DUP3 SSTORE PUSH1 0x1 DUP3 ADD SWAP2 POP PUSH1 0x20 DUP6 ADD SWAP5 POP PUSH1 0x20 DUP2 ADD SWAP1 POP PUSH2 0xAA9 JUMP JUMPDEST DUP7 DUP4 LT ISZERO PUSH2 0xAEB JUMPI DUP5 DUP10 ADD MLOAD PUSH2 0xAE7 PUSH1 0x1F DUP10 AND DUP3 PUSH2 0x9F4 JUMP JUMPDEST DUP4 SSTORE POP JUMPDEST PUSH1 0x1 PUSH1 0x2 DUP9 MUL ADD DUP9 SSTORE POP POP POP JUMPDEST POP POP POP POP POP POP JUMP JUMPDEST PUSH1 0x0 PUSH1 0x40 DUP3 ADD SWAP1 POP DUP2 DUP2 SUB PUSH1 0x0 DUP4 ADD MSTORE PUSH2 0xB1A DUP2 DUP6 PUSH2 0x5FD JUMP JUMPDEST SWAP1 POP DUP2 DUP2 SUB PUSH1 0x20 DUP4 ADD MSTORE PUSH2 0xB2E DUP2 DUP5 PUSH2 0x5FD JUMP JUMPDEST SWAP1 POP SWAP4 SWAP3 POP POP POP JUMP INVALID LOG2 PUSH5 0x6970667358 0x22 SLT KECCAK256 MUL PUSH4 0x3AF01B52 0xDD 0xB3 DUP11 0xD9 CREATE MUL 0x27 DELEGATECALL 0xD3 PUSH29 0x9540F6A35DA7F8E63D0CC301B41D6BB264736F6C634300081C00330000 "},"methodIdentifiers":{"getName(address)":"5fd4b08a","getPublicKey(address)":"857cdbb8","storePublicKey(address,string,string)":"62c00cb5","walletToName(address)":"0dc600dd","walletToPublicKey(address)":"fa312196"}}}}}