{
  "_format": "hh-sol-artifact-1",
  "contractName": "PublicKeyStore",
  "sourceName": "contracts/PublicKeyStore.sol",
  "abi": [
    {
      "anonymous": false,
      "inputs": [
        {
          "indexed": true,
          "internalType": "address",
          "name": "walletAddress",
          "type": "address"
        },
        {
          "indexed": false,
          "internalType": "string",
          "name": "email",
          "type": "string"
        },
        {
          "indexed": false,
          "internalType": "string",
          "name": "name",
          "type": "string"
        },
        {
          "indexed": false,
          "internalType": "string",
          "name": "publicKey",
          "type": "string"
        },
        {
          "indexed": false,
          "internalType": "string",
          "name": "role",
          "type": "string"
        }
      ],
      "name": "PublicKeyStored",
      "type": "event"
    },
    {
      "inputs": [
        {
          "internalType": "address",
          "name": "walletAddress",
          "type": "address"
        }
      ],
      "name": "getEmail",
      "outputs": [
        {
          "internalType": "string",
          "name": "",
          "type": "string"
        }
      ],
      "stateMutability": "view",
      "type": "function"
    },
    {
      "inputs": [
        {
          "internalType": "address",
          "name": "walletAddress",
          "type": "address"
        }
      ],
      "name": "getName",
      "outputs": [
        {
          "internalType": "string",
          "name": "",
          "type": "string"
        }
      ],
      "stateMutability": "view",
      "type": "function"
    },
    {
      "inputs": [
        {
          "internalType": "address",
          "name": "walletAddress",
          "type": "address"
        }
      ],
      "name": "getPublicKey",
      "outputs": [
        {
          "internalType": "string",
          "name": "",
          "type": "string"
        }
      ],
      "stateMutability": "view",
      "type": "function"
    },
    {
      "inputs": [
        {
          "internalType": "address",
          "name": "walletAddress",
          "type": "address"
        }
      ],
      "name": "getRole",
      "outputs": [
        {
          "internalType": "string",
          "name": "",
          "type": "string"
        }
      ],
      "stateMutability": "view",
      "type": "function"
    },
    {
      "inputs": [
        {
          "internalType": "address",
          "name": "walletAddress",
          "type": "address"
        },
        {
          "internalType": "string",
          "name": "email",
          "type": "string"
        },
        {
          "internalType": "string",
          "name": "name",
          "type": "string"
        },
        {
          "internalType": "string",
          "name": "publicKey",
          "type": "string"
        },
        {
          "internalType": "string",
          "name": "role",
          "type": "string"
        }
      ],
      "name": "storeUserInfo",
      "outputs": [],
      "stateMutability": "nonpayable",
      "type": "function"
    }
  ],
  "bytecode": "0x6080604052348015600f57600080fd5b506113448061001f6000396000f3fe608060405234801561001057600080fd5b50600436106100575760003560e01c8063442767331461005c5780634fa7353c1461008c5780635fd4b08a146100bc578063857cdbb8146100ec578063d41da4531461011c575b600080fd5b6100766004803603810190610071919061097f565b610138565b6040516100839190610a3c565b60405180910390f35b6100a660048036038101906100a1919061097f565b61020b565b6040516100b39190610a3c565b60405180910390f35b6100d660048036038101906100d1919061097f565b6102de565b6040516100e39190610a3c565b60405180910390f35b6101066004803603810190610101919061097f565b6103b1565b6040516101139190610a3c565b60405180910390f35b61013660048036038101906101319190610b93565b610484565b005b60606000808373ffffffffffffffffffffffffffffffffffffffff1673ffffffffffffffffffffffffffffffffffffffff168152602001908152602001600020600301805461018690610cad565b80601f01602080910402602001604051908101604052809291908181526020018280546101b290610cad565b80156101ff5780601f106101d4576101008083540402835291602001916101ff565b820191906000526020600020905b8154815290600101906020018083116101e257829003601f168201915b50505050509050919050565b60606000808373ffffffffffffffffffffffffffffffffffffffff1673ffffffffffffffffffffffffffffffffffffffff168152602001908152602001600020600001805461025990610cad565b80601f016020809104026020016040519081016040528092919081815260200182805461028590610cad565b80156102d25780601f106102a7576101008083540402835291602001916102d2565b820191906000526020600020905b8154815290600101906020018083116102b557829003601f168201915b50505050509050919050565b60606000808373ffffffffffffffffffffffffffffffffffffffff1673ffffffffffffffffffffffffffffffffffffffff168152602001908152602001600020600101805461032c90610cad565b80601f016020809104026020016040519081016040528092919081815260200182805461035890610cad565b80156103a55780601f1061037a576101008083540402835291602001916103a5565b820191906000526020600020905b81548152906001019060200180831161038857829003601f168201915b50505050509050919050565b60606000808373ffffffffffffffffffffffffffffffffffffffff1673ffffffffffffffffffffffffffffffffffffffff16815260200190815260200160002060020180546103ff90610cad565b80601f016020809104026020016040519081016040528092919081815260200182805461042b90610cad565b80156104785780601f1061044d57610100808354040283529160200191610478565b820191906000526020600020905b81548152906001019060200180831161045b57829003601f168201915b50505050509050919050565b6001846040516104949190610d1a565b908152602001604051809103902060009054906101000a900460ff16156104f0576040517f08c379a00000000000000000000000000000000000000000000000000000000081526004016104e790610d7d565b60405180910390fd5b6002836040516105009190610d1a565b908152602001604051809103902060009054906101000a900460ff161561055c576040517f08c379a000000000000000000000000000000000000000000000000000000000815260040161055390610de9565b60405180910390fd5b60008451116105a0576040517f08c379a000000000000000000000000000000000000000000000000000000000815260040161059790610e55565b60405180910390fd5b60008351116105e4576040517f08c379a00000000000000000000000000000000000000000000000000000000081526004016105db90610ec1565b60405180910390fd5b6000825111610628576040517f08c379a000000000000000000000000000000000000000000000000000000000815260040161061f90610f2d565b60405180910390fd5b600081511161066c576040517f08c379a000000000000000000000000000000000000000000000000000000000815260040161066390610f99565b60405180910390fd5b6040518060400160405280600981526020017f6f7267616e697a6572000000000000000000000000000000000000000000000081525080519060200120818051906020012014806106ff57506040518060400160405280600b81526020017f7061727469636970616e74000000000000000000000000000000000000000000815250805190602001208180519060200120145b8061074c57506040518060400160405280600b81526020017f74686972645f7061727479000000000000000000000000000000000000000000815250805190602001208180519060200120145b61078b576040517f08c379a000000000000000000000000000000000000000000000000000000000815260040161078290611005565b60405180910390fd5b6040518060800160405280858152602001848152602001838152602001828152506000808773ffffffffffffffffffffffffffffffffffffffff1673ffffffffffffffffffffffffffffffffffffffff16815260200190815260200160002060008201518160000190816107ff91906111db565b50602082015181600101908161081591906111db565b50604082015181600201908161082b91906111db565b50606082015181600301908161084191906111db565b50905050600180856040516108569190610d1a565b908152602001604051809103902060006101000a81548160ff021916908315150217905550600160028460405161088d9190610d1a565b908152602001604051809103902060006101000a81548160ff0219169083151502179055508473ffffffffffffffffffffffffffffffffffffffff167fc525311530df7ff074e813dbb08497acc9a6ef745f24f38e0dad0de6a8c696b0858585856040516108fe94939291906112ad565b60405180910390a25050505050565b6000604051905090565b600080fd5b600080fd5b600073ffffffffffffffffffffffffffffffffffffffff82169050919050565b600061094c82610921565b9050919050565b61095c81610941565b811461096757600080fd5b50565b60008135905061097981610953565b92915050565b60006020828403121561099557610994610917565b5b60006109a38482850161096a565b91505092915050565b600081519050919050565b600082825260208201905092915050565b60005b838110156109e65780820151818401526020810190506109cb565b60008484015250505050565b6000601f19601f8301169050919050565b6000610a0e826109ac565b610a1881856109b7565b9350610a288185602086016109c8565b610a31816109f2565b840191505092915050565b60006020820190508181036000830152610a568184610a03565b905092915050565b600080fd5b600080fd5b7f4e487b7100000000000000000000000000000000000000000000000000000000600052604160045260246000fd5b610aa0826109f2565b810181811067ffffffffffffffff82111715610abf57610abe610a68565b5b80604052505050565b6000610ad261090d565b9050610ade8282610a97565b919050565b600067ffffffffffffffff821115610afe57610afd610a68565b5b610b07826109f2565b9050602081019050919050565b82818337600083830152505050565b6000610b36610b3184610ae3565b610ac8565b905082815260208101848484011115610b5257610b51610a63565b5b610b5d848285610b14565b509392505050565b600082601f830112610b7a57610b79610a5e565b5b8135610b8a848260208601610b23565b91505092915050565b600080600080600060a08688031215610baf57610bae610917565b5b6000610bbd8882890161096a565b955050602086013567ffffffffffffffff811115610bde57610bdd61091c565b5b610bea88828901610b65565b945050604086013567ffffffffffffffff811115610c0b57610c0a61091c565b5b610c1788828901610b65565b935050606086013567ffffffffffffffff811115610c3857610c3761091c565b5b610c4488828901610b65565b925050608086013567ffffffffffffffff811115610c6557610c6461091c565b5b610c7188828901610b65565b9150509295509295909350565b7f4e487b7100000000000000000000000000000000000000000000000000000000600052602260045260246000fd5b60006002820490506001821680610cc557607f821691505b602082108103610cd857610cd7610c7e565b5b50919050565b600081905092915050565b6000610cf4826109ac565b610cfe8185610cde565b9350610d0e8185602086016109c8565b80840191505092915050565b6000610d268284610ce9565b915081905092915050565b7f456d61696c20616c726561647920657869737473000000000000000000000000600082015250565b6000610d676014836109b7565b9150610d7282610d31565b602082019050919050565b60006020820190508181036000830152610d9681610d5a565b9050919050565b7f4e616d6520616c72656164792065786973747300000000000000000000000000600082015250565b6000610dd36013836109b7565b9150610dde82610d9d565b602082019050919050565b60006020820190508181036000830152610e0281610dc6565b9050919050565b7f456d61696c2063616e6e6f7420626520656d7074790000000000000000000000600082015250565b6000610e3f6015836109b7565b9150610e4a82610e09565b602082019050919050565b60006020820190508181036000830152610e6e81610e32565b9050919050565b7f4e616d652063616e6e6f7420626520656d707479000000000000000000000000600082015250565b6000610eab6014836109b7565b9150610eb682610e75565b602082019050919050565b60006020820190508181036000830152610eda81610e9e565b9050919050565b7f5075626c6963206b65792063616e6e6f7420626520656d707479000000000000600082015250565b6000610f17601a836109b7565b9150610f2282610ee1565b602082019050919050565b60006020820190508181036000830152610f4681610f0a565b9050919050565b7f526f6c652063616e6e6f7420626520656d707479000000000000000000000000600082015250565b6000610f836014836109b7565b9150610f8e82610f4d565b602082019050919050565b60006020820190508181036000830152610fb281610f76565b9050919050565b7f496e76616c696420726f6c650000000000000000000000000000000000000000600082015250565b6000610fef600c836109b7565b9150610ffa82610fb9565b602082019050919050565b6000602082019050818103600083015261101e81610fe2565b9050919050565b60008190508160005260206000209050919050565b60006020601f8301049050919050565b600082821b905092915050565b6000600883026110877fffffffffffffffffffffffffffffffffffffffffffffffffffffffffffffffff8261104a565b611091868361104a565b95508019841693508086168417925050509392505050565b6000819050919050565b6000819050919050565b60006110d86110d36110ce846110a9565b6110b3565b6110a9565b9050919050565b6000819050919050565b6110f2836110bd565b6111066110fe826110df565b848454611057565b825550505050565b600090565b61111b61110e565b6111268184846110e9565b505050565b5b8181101561114a5761113f600082611113565b60018101905061112c565b5050565b601f82111561118f5761116081611025565b6111698461103a565b81016020851015611178578190505b61118c6111848561103a565b83018261112b565b50505b505050565b600082821c905092915050565b60006111b260001984600802611194565b1980831691505092915050565b60006111cb83836111a1565b9150826002028217905092915050565b6111e4826109ac565b67ffffffffffffffff8111156111fd576111fc610a68565b5b6112078254610cad565b61121282828561114e565b600060209050601f8311600181146112455760008415611233578287015190505b61123d85826111bf565b8655506112a5565b601f19841661125386611025565b60005b8281101561127b57848901518255600182019150602085019450602081019050611256565b868310156112985784890151611294601f8916826111a1565b8355505b6001600288020188555050505b505050505050565b600060808201905081810360008301526112c78187610a03565b905081810360208301526112db8186610a03565b905081810360408301526112ef8185610a03565b905081810360608301526113038184610a03565b90509594505050505056fea264697066735822122068623c914d3129d282b414b13f8cca2780eaddc4eda999406492917015ac1d0f64736f6c634300081c0033",
  "linkReferences": {},
  "deployedLinkReferences": {}
}