{
  "_format": "hh-sol-artifact-1",
  "contractName": "PublicKeyStorage",
  "sourceName": "contracts/PublicKeyStorage.sol",
  "abi": [
    {
      "anonymous": false,
      "inputs": [
        {
          "indexed": true,
          "internalType": "address",
          "name": "walletAddress",
          "type": "address"
        },
        {
          "indexed": false,
          "internalType": "string",
          "name": "publicKey",
          "type": "string"
        },
        {
          "indexed": false,
          "internalType": "string",
          "name": "name",
          "type": "string"
        }
      ],
      "name": "PublicKeyStored",
      "type": "event"
    },
    {
      "inputs": [
        {
          "internalType": "address",
          "name": "walletAddress",
          "type": "address"
        }
      ],
      "name": "getName",
      "outputs": [
        {
          "internalType": "string",
          "name": "",
          "type": "string"
        }
      ],
      "stateMutability": "view",
      "type": "function"
    },
    {
      "inputs": [
        {
          "internalType": "address",
          "name": "walletAddress",
          "type": "address"
        }
      ],
      "name": "getPublicKey",
      "outputs": [
        {
          "internalType": "string",
          "name": "",
          "type": "string"
        }
      ],
      "stateMutability": "view",
      "type": "function"
    },
    {
      "inputs": [
        {
          "internalType": "address",
          "name": "walletAddress",
          "type": "address"
        },
        {
          "internalType": "string",
          "name": "publicKey",
          "type": "string"
        },
        {
          "internalType": "string",
          "name": "name",
          "type": "string"
        }
      ],
      "name": "storePublicKey",
      "outputs": [],
      "stateMutability": "nonpayable",
      "type": "function"
    },
    {
      "inputs": [
        {
          "internalType": "address",
          "name": "",
          "type": "address"
        }
      ],
      "name": "walletToName",
      "outputs": [
        {
          "internalType": "string",
          "name": "",
          "type": "string"
        }
      ],
      "stateMutability": "view",
      "type": "function"
    },
    {
      "inputs": [
        {
          "internalType": "address",
          "name": "",
          "type": "address"
        }
      ],
      "name": "walletToPublicKey",
      "outputs": [
        {
          "internalType": "string",
          "name": "",
          "type": "string"
        }
      ],
      "stateMutability": "view",
      "type": "function"
    }
  ],
  "bytecode": "0x6080604052348015600f57600080fd5b50610b6d8061001f6000396000f3fe608060405234801561001057600080fd5b50600436106100575760003560e01c80630dc600dd1461005c5780635fd4b08a1461008c57806362c00cb5146100bc578063857cdbb8146100d8578063fa31219614610108575b600080fd5b61007660048036038101906100719190610579565b610138565b6040516100839190610636565b60405180910390f35b6100a660048036038101906100a19190610579565b6101d8565b6040516100b39190610636565b60405180910390f35b6100d660048036038101906100d1919061078d565b6102a9565b005b6100f260048036038101906100ed9190610579565b610397565b6040516100ff9190610636565b60405180910390f35b610122600480360381019061011d9190610579565b610467565b60405161012f9190610636565b60405180910390f35b6001602052806000526040600020600091509050805461015790610847565b80601f016020809104026020016040519081016040528092919081815260200182805461018390610847565b80156101d05780601f106101a5576101008083540402835291602001916101d0565b820191906000526020600020905b8154815290600101906020018083116101b357829003601f168201915b505050505081565b6060600160008373ffffffffffffffffffffffffffffffffffffffff1673ffffffffffffffffffffffffffffffffffffffff168152602001908152602001600020805461022490610847565b80601f016020809104026020016040519081016040528092919081815260200182805461025090610847565b801561029d5780601f106102725761010080835404028352916020019161029d565b820191906000526020600020905b81548152906001019060200180831161028057829003601f168201915b50505050509050919050565b816000808573ffffffffffffffffffffffffffffffffffffffff1673ffffffffffffffffffffffffffffffffffffffff16815260200190815260200160002090816102f49190610a2e565b5080600160008573ffffffffffffffffffffffffffffffffffffffff1673ffffffffffffffffffffffffffffffffffffffff16815260200190815260200160002090816103419190610a2e565b508273ffffffffffffffffffffffffffffffffffffffff167f0c0f3c9af4ef14991ee4225a22abd7841aafe859c0e80968b8ca5d9f53366f09838360405161038a929190610b00565b60405180910390a2505050565b60606000808373ffffffffffffffffffffffffffffffffffffffff1673ffffffffffffffffffffffffffffffffffffffff16815260200190815260200160002080546103e290610847565b80601f016020809104026020016040519081016040528092919081815260200182805461040e90610847565b801561045b5780601f106104305761010080835404028352916020019161045b565b820191906000526020600020905b81548152906001019060200180831161043e57829003601f168201915b50505050509050919050565b6000602052806000526040600020600091509050805461048690610847565b80601f01602080910402602001604051908101604052809291908181526020018280546104b290610847565b80156104ff5780601f106104d4576101008083540402835291602001916104ff565b820191906000526020600020905b8154815290600101906020018083116104e257829003601f168201915b505050505081565b6000604051905090565b600080fd5b600080fd5b600073ffffffffffffffffffffffffffffffffffffffff82169050919050565b60006105468261051b565b9050919050565b6105568161053b565b811461056157600080fd5b50565b6000813590506105738161054d565b92915050565b60006020828403121561058f5761058e610511565b5b600061059d84828501610564565b91505092915050565b600081519050919050565b600082825260208201905092915050565b60005b838110156105e05780820151818401526020810190506105c5565b60008484015250505050565b6000601f19601f8301169050919050565b6000610608826105a6565b61061281856105b1565b93506106228185602086016105c2565b61062b816105ec565b840191505092915050565b6000602082019050818103600083015261065081846105fd565b905092915050565b600080fd5b600080fd5b7f4e487b7100000000000000000000000000000000000000000000000000000000600052604160045260246000fd5b61069a826105ec565b810181811067ffffffffffffffff821117156106b9576106b8610662565b5b80604052505050565b60006106cc610507565b90506106d88282610691565b919050565b600067ffffffffffffffff8211156106f8576106f7610662565b5b610701826105ec565b9050602081019050919050565b82818337600083830152505050565b600061073061072b846106dd565b6106c2565b90508281526020810184848401111561074c5761074b61065d565b5b61075784828561070e565b509392505050565b600082601f83011261077457610773610658565b5b813561078484826020860161071d565b91505092915050565b6000806000606084860312156107a6576107a5610511565b5b60006107b486828701610564565b935050602084013567ffffffffffffffff8111156107d5576107d4610516565b5b6107e18682870161075f565b925050604084013567ffffffffffffffff81111561080257610801610516565b5b61080e8682870161075f565b9150509250925092565b7f4e487b7100000000000000000000000000000000000000000000000000000000600052602260045260246000fd5b6000600282049050600182168061085f57607f821691505b60208210810361087257610871610818565b5b50919050565b60008190508160005260206000209050919050565b60006020601f8301049050919050565b600082821b905092915050565b6000600883026108da7fffffffffffffffffffffffffffffffffffffffffffffffffffffffffffffffff8261089d565b6108e4868361089d565b95508019841693508086168417925050509392505050565b6000819050919050565b6000819050919050565b600061092b610926610921846108fc565b610906565b6108fc565b9050919050565b6000819050919050565b61094583610910565b61095961095182610932565b8484546108aa565b825550505050565b600090565b61096e610961565b61097981848461093c565b505050565b5b8181101561099d57610992600082610966565b60018101905061097f565b5050565b601f8211156109e2576109b381610878565b6109bc8461088d565b810160208510156109cb578190505b6109df6109d78561088d565b83018261097e565b50505b505050565b600082821c905092915050565b6000610a05600019846008026109e7565b1980831691505092915050565b6000610a1e83836109f4565b9150826002028217905092915050565b610a37826105a6565b67ffffffffffffffff811115610a5057610a4f610662565b5b610a5a8254610847565b610a658282856109a1565b600060209050601f831160018114610a985760008415610a86578287015190505b610a908582610a12565b865550610af8565b601f198416610aa686610878565b60005b82811015610ace57848901518255600182019150602085019450602081019050610aa9565b86831015610aeb5784890151610ae7601f8916826109f4565b8355505b6001600288020188555050505b505050505050565b60006040820190508181036000830152610b1a81856105fd565b90508181036020830152610b2e81846105fd565b9050939250505056fea264697066735822122002633af01b52ddb38ad9f00227f4d37c9540f6a35da7f8e63d0cc301b41d6bb264736f6c634300081c0033",
  "linkReferences": {},
  "deployedLinkReferences": {}
}