{
  "_format": "hh-sol-artifact-1",
  "contractName": "PublicKeyStorage",
  "sourceName": "contracts/PublicKeyStorage.sol",
  "abi": [
    {
      "anonymous": false,
      "inputs": [
        {
          "indexed": true,
          "internalType": "address",
          "name": "walletAddress",
          "type": "address"
        },
        {
          "indexed": false,
          "internalType": "string",
          "name": "email",
          "type": "string"
        },
        {
          "indexed": false,
          "internalType": "string",
          "name": "name",
          "type": "string"
        },
        {
          "indexed": false,
          "internalType": "string",
          "name": "publicKey",
          "type": "string"
        }
      ],
      "name": "PublicKeyStored",
      "type": "event"
    },
    {
      "inputs": [
        {
          "internalType": "address",
          "name": "walletAddress",
          "type": "address"
        }
      ],
      "name": "getEmail",
      "outputs": [
        {
          "internalType": "string",
          "name": "",
          "type": "string"
        }
      ],
      "stateMutability": "view",
      "type": "function"
    },
    {
      "inputs": [
        {
          "internalType": "address",
          "name": "walletAddress",
          "type": "address"
        }
      ],
      "name": "getName",
      "outputs": [
        {
          "internalType": "string",
          "name": "",
          "type": "string"
        }
      ],
      "stateMutability": "view",
      "type": "function"
    },
    {
      "inputs": [
        {
          "internalType": "address",
          "name": "walletAddress",
          "type": "address"
        }
      ],
      "name": "getPublicKey",
      "outputs": [
        {
          "internalType": "string",
          "name": "",
          "type": "string"
        }
      ],
      "stateMutability": "view",
      "type": "function"
    },
    {
      "inputs": [
        {
          "internalType": "address",
          "name": "walletAddress",
          "type": "address"
        },
        {
          "internalType": "string",
          "name": "email",
          "type": "string"
        },
        {
          "internalType": "string",
          "name": "name",
          "type": "string"
        },
        {
          "internalType": "string",
          "name": "publicKey",
          "type": "string"
        }
      ],
      "name": "storeUserInfo",
      "outputs": [],
      "stateMutability": "nonpayable",
      "type": "function"
    }
  ],
  "bytecode": "0x6080604052348015600f57600080fd5b50610b588061001f6000396000f3fe608060405234801561001057600080fd5b506004361061004c5760003560e01c80634fa7353c146100515780635fd4b08a14610081578063857cdbb8146100b1578063a5828dc6146100e1575b600080fd5b61006b6004803603810190610066919061051f565b6100fd565b60405161007891906105dc565b60405180910390f35b61009b6004803603810190610096919061051f565b6101cd565b6040516100a891906105dc565b60405180910390f35b6100cb60048036038101906100c6919061051f565b61029e565b6040516100d891906105dc565b60405180910390f35b6100fb60048036038101906100f69190610733565b61036f565b005b60606000808373ffffffffffffffffffffffffffffffffffffffff1673ffffffffffffffffffffffffffffffffffffffff16815260200190815260200160002080546101489061081d565b80601f01602080910402602001604051908101604052809291908181526020018280546101749061081d565b80156101c15780601f10610196576101008083540402835291602001916101c1565b820191906000526020600020905b8154815290600101906020018083116101a457829003601f168201915b50505050509050919050565b6060600160008373ffffffffffffffffffffffffffffffffffffffff1673ffffffffffffffffffffffffffffffffffffffff16815260200190815260200160002080546102199061081d565b80601f01602080910402602001604051908101604052809291908181526020018280546102459061081d565b80156102925780601f1061026757610100808354040283529160200191610292565b820191906000526020600020905b81548152906001019060200180831161027557829003601f168201915b50505050509050919050565b6060600260008373ffffffffffffffffffffffffffffffffffffffff1673ffffffffffffffffffffffffffffffffffffffff16815260200190815260200160002080546102ea9061081d565b80601f01602080910402602001604051908101604052809291908181526020018280546103169061081d565b80156103635780601f1061033857610100808354040283529160200191610363565b820191906000526020600020905b81548152906001019060200180831161034657829003601f168201915b50505050509050919050565b826000808673ffffffffffffffffffffffffffffffffffffffff1673ffffffffffffffffffffffffffffffffffffffff16815260200190815260200160002090816103ba9190610a04565b5081600160008673ffffffffffffffffffffffffffffffffffffffff1673ffffffffffffffffffffffffffffffffffffffff16815260200190815260200160002090816104079190610a04565b5080600260008673ffffffffffffffffffffffffffffffffffffffff1673ffffffffffffffffffffffffffffffffffffffff16815260200190815260200160002090816104549190610a04565b508373ffffffffffffffffffffffffffffffffffffffff167fc979e072b3f27be8eb2cd002c4c13704fa511088471d85efc4e0da072256147384848460405161049f93929190610ad6565b60405180910390a250505050565b6000604051905090565b600080fd5b600080fd5b600073ffffffffffffffffffffffffffffffffffffffff82169050919050565b60006104ec826104c1565b9050919050565b6104fc816104e1565b811461050757600080fd5b50565b600081359050610519816104f3565b92915050565b600060208284031215610535576105346104b7565b5b60006105438482850161050a565b91505092915050565b600081519050919050565b600082825260208201905092915050565b60005b8381101561058657808201518184015260208101905061056b565b60008484015250505050565b6000601f19601f8301169050919050565b60006105ae8261054c565b6105b88185610557565b93506105c8818560208601610568565b6105d181610592565b840191505092915050565b600060208201905081810360008301526105f681846105a3565b905092915050565b600080fd5b600080fd5b7f4e487b7100000000000000000000000000000000000000000000000000000000600052604160045260246000fd5b61064082610592565b810181811067ffffffffffffffff8211171561065f5761065e610608565b5b80604052505050565b60006106726104ad565b905061067e8282610637565b919050565b600067ffffffffffffffff82111561069e5761069d610608565b5b6106a782610592565b9050602081019050919050565b82818337600083830152505050565b60006106d66106d184610683565b610668565b9050828152602081018484840111156106f2576106f1610603565b5b6106fd8482856106b4565b509392505050565b600082601f83011261071a576107196105fe565b5b813561072a8482602086016106c3565b91505092915050565b6000806000806080858703121561074d5761074c6104b7565b5b600061075b8782880161050a565b945050602085013567ffffffffffffffff81111561077c5761077b6104bc565b5b61078887828801610705565b935050604085013567ffffffffffffffff8111156107a9576107a86104bc565b5b6107b587828801610705565b925050606085013567ffffffffffffffff8111156107d6576107d56104bc565b5b6107e287828801610705565b91505092959194509250565b7f4e487b7100000000000000000000000000000000000000000000000000000000600052602260045260246000fd5b6000600282049050600182168061083557607f821691505b602082108103610848576108476107ee565b5b50919050565b60008190508160005260206000209050919050565b60006020601f8301049050919050565b600082821b905092915050565b6000600883026108b07fffffffffffffffffffffffffffffffffffffffffffffffffffffffffffffffff82610873565b6108ba8683610873565b95508019841693508086168417925050509392505050565b6000819050919050565b6000819050919050565b60006109016108fc6108f7846108d2565b6108dc565b6108d2565b9050919050565b6000819050919050565b61091b836108e6565b61092f61092782610908565b848454610880565b825550505050565b600090565b610944610937565b61094f818484610912565b505050565b5b818110156109735761096860008261093c565b600181019050610955565b5050565b601f8211156109b8576109898161084e565b61099284610863565b810160208510156109a1578190505b6109b56109ad85610863565b830182610954565b50505b505050565b600082821c905092915050565b60006109db600019846008026109bd565b1980831691505092915050565b60006109f483836109ca565b9150826002028217905092915050565b610a0d8261054c565b67ffffffffffffffff811115610a2657610a25610608565b5b610a30825461081d565b610a3b828285610977565b600060209050601f831160018114610a6e5760008415610a5c578287015190505b610a6685826109e8565b865550610ace565b601f198416610a7c8661084e565b60005b82811015610aa457848901518255600182019150602085019450602081019050610a7f565b86831015610ac15784890151610abd601f8916826109ca565b8355505b6001600288020188555050505b505050505050565b60006060820190508181036000830152610af081866105a3565b90508181036020830152610b0481856105a3565b90508181036040830152610b1881846105a3565b905094935050505056fea26469706673582212203d6bb71947db445915e6fdf75c8ca411680153613d52c7eae845701398129dd464736f6c634300081c0033",
  "linkReferences": {},
  "deployedLinkReferences": {}
}