{
  "_format": "hh-sol-artifact-1",
  "contractName": "KeyManager",
  "sourceName": "contracts/KeyManager.sol",
  "abi": [
    {
      "inputs": [
        {
          "internalType": "address",
          "name": "documentStoreAddress",
          "type": "address"
        }
      ],
      "stateMutability": "nonpayable",
      "type": "constructor"
    },
    {
      "anonymous": false,
      "inputs": [
        {
          "indexed": false,
          "internalType": "address",
          "name": "receiver",
          "type": "address"
        },
        {
          "indexed": false,
          "internalType": "address",
          "name": "sender",
          "type": "address"
        },
        {
          "indexed": false,
          "internalType": "string",
          "name": "encryptedKey",
          "type": "string"
        },
        {
          "indexed": false,
          "internalType": "string",
          "name": "iv",
          "type": "string"
        },
        {
          "indexed": false,
          "internalType": "string",
          "name": "cid",
          "type": "string"
        }
      ],
      "name": "EmitKey",
      "type": "event"
    },
    {
      "anonymous": false,
      "inputs": [
        {
          "indexed": false,
          "internalType": "address",
          "name": "requester",
          "type": "address"
        },
        {
          "indexed": false,
          "internalType": "address",
          "name": "receiver",
          "type": "address"
        },
        {
          "indexed": false,
          "internalType": "string",
          "name": "cid",
          "type": "string"
        },
        {
          "indexed": false,
          "internalType": "string",
          "name": "documentName",
          "type": "string"
        },
        {
          "indexed": false,
          "internalType": "string",
          "name": "documentFormat",
          "type": "string"
        },
        {
          "indexed": false,
          "internalType": "string",
          "name": "tenderId",
          "type": "string"
        }
      ],
      "name": "RequestAccess",
      "type": "event"
    },
    {
      "inputs": [],
      "name": "documentStore",
      "outputs": [
        {
          "internalType": "contract IDocumentStore",
          "name": "",
          "type": "address"
        }
      ],
      "stateMutability": "view",
      "type": "function"
    },
    {
      "inputs": [
        {
          "components": [
            {
              "internalType": "address",
              "name": "receiver",
              "type": "address"
            },
            {
              "internalType": "string",
              "name": "encryptedKey",
              "type": "string"
            },
            {
              "internalType": "string",
              "name": "iv",
              "type": "string"
            },
            {
              "internalType": "string",
              "name": "cid",
              "type": "string"
            },
            {
              "internalType": "string",
              "name": "tenderId",
              "type": "string"
            },
            {
              "internalType": "string",
              "name": "documentName",
              "type": "string"
            },
            {
              "internalType": "uint8",
              "name": "v",
              "type": "uint8"
            },
            {
              "internalType": "bytes32",
              "name": "r",
              "type": "bytes32"
            },
            {
              "internalType": "bytes32",
              "name": "s",
              "type": "bytes32"
            },
            {
              "internalType": "uint256",
              "name": "deadline",
              "type": "uint256"
            }
          ],
          "internalType": "struct KeyManager.EmitKeyInput",
          "name": "input",
          "type": "tuple"
        }
      ],
      "name": "emitKey",
      "outputs": [],
      "stateMutability": "nonpayable",
      "type": "function"
    },
    {
      "inputs": [
        {
          "internalType": "string",
          "name": "cid",
          "type": "string"
        },
        {
          "internalType": "address",
          "name": "receiver",
          "type": "address"
        }
      ],
      "name": "getEncryptedKey",
      "outputs": [
        {
          "internalType": "string",
          "name": "",
          "type": "string"
        }
      ],
      "stateMutability": "view",
      "type": "function"
    },
    {
      "inputs": [
        {
          "components": [
            {
              "internalType": "address",
              "name": "receiver",
              "type": "address"
            },
            {
              "internalType": "string",
              "name": "tenderId",
              "type": "string"
            },
            {
              "internalType": "string",
              "name": "cid",
              "type": "string"
            },
            {
              "internalType": "string",
              "name": "documentName",
              "type": "string"
            },
            {
              "internalType": "string",
              "name": "documentFormat",
              "type": "string"
            },
            {
              "internalType": "uint8",
              "name": "v",
              "type": "uint8"
            },
            {
              "internalType": "bytes32",
              "name": "r",
              "type": "bytes32"
            },
            {
              "internalType": "bytes32",
              "name": "s",
              "type": "bytes32"
            },
            {
              "internalType": "uint256",
              "name": "deadline",
              "type": "uint256"
            }
          ],
          "internalType": "struct KeyManager.RequestAccessInput",
          "name": "input",
          "type": "tuple"
        }
      ],
      "name": "requestAccess",
      "outputs": [],
      "stateMutability": "nonpayable",
      "type": "function"
    }
  ],
  "bytecode": "0x608060405234801561001057600080fd5b506040516115f03803806115f0833981810160405281019061003291906100db565b806000806101000a81548173ffffffffffffffffffffffffffffffffffffffff021916908373ffffffffffffffffffffffffffffffffffffffff16021790555050610108565b600080fd5b600073ffffffffffffffffffffffffffffffffffffffff82169050919050565b60006100a88261007d565b9050919050565b6100b88161009d565b81146100c357600080fd5b50565b6000815190506100d5816100af565b92915050565b6000602082840312156100f1576100f0610078565b5b60006100ff848285016100c6565b91505092915050565b6114d9806101176000396000f3fe608060405234801561001057600080fd5b506004361061004c5760003560e01c8063408acd331461005157806381b6cb2c1461006f578063924c953a1461008b578063c8da2d4c146100bb575b600080fd5b6100596100d7565b6040516100669190610744565b60405180910390f35b61008960048036038101906100849190610b28565b6100fb565b005b6100a560048036038101906100a09190610b71565b610397565b6040516100b29190610c4c565b60405180910390f35b6100d560048036038101906100d09190610dbe565b610485565b005b60008054906101000a900473ffffffffffffffffffffffffffffffffffffffff1681565b600081608001518260a0015183610120015160405160200161011f93929190610e64565b60405160208183030381529060405280519060200120905060008160405160200161014a9190610f06565b60405160208183030381529060405280519060200120905060006001828560c001518660e00151876101000151604051600081526020016040526040516101949493929190610f4a565b6020604051602081039080840390855afa1580156101b6573d6000803e3d6000fd5b5050506020604051035190508073ffffffffffffffffffffffffffffffffffffffff1660008054906101000a900473ffffffffffffffffffffffffffffffffffffffff1673ffffffffffffffffffffffffffffffffffffffff1663cb356d9186606001516040518263ffffffff1660e01b81526004016102369190610c4c565b602060405180830381865afa158015610253573d6000803e3d6000fd5b505050506040513d601f19601f820116820180604052508101906102779190610fa4565b73ffffffffffffffffffffffffffffffffffffffff16146102cd576040517f08c379a00000000000000000000000000000000000000000000000000000000081526004016102c49061101d565b60405180910390fd5b8360200151600185606001516040516102e6919061103d565b90815260200160405180910390206000866000015173ffffffffffffffffffffffffffffffffffffffff1673ffffffffffffffffffffffffffffffffffffffff16815260200190815260200160002090816103419190611256565b507ff0002f2f528b0ee51d6a449d7ff420fda1d11361a194279a0abed91fa5a6766f846000015182866020015187604001518860600151604051610389959493929190611337565b60405180910390a150505050565b60606001836040516103a9919061103d565b908152602001604051809103902060008373ffffffffffffffffffffffffffffffffffffffff1673ffffffffffffffffffffffffffffffffffffffff16815260200190815260200160002080546103ff90611083565b80601f016020809104026020016040519081016040528092919081815260200182805461042b90611083565b80156104785780601f1061044d57610100808354040283529160200191610478565b820191906000526020600020905b81548152906001019060200180831161045b57829003601f168201915b5050505050905092915050565b600081610100015160405160200161049d919061139f565b6040516020818303038152906040528051906020012090506000816040516020016104c89190610f06565b60405160208183030381529060405280519060200120905060006001828560a001518660c001518760e00151604051600081526020016040526040516105119493929190610f4a565b6020604051602081039080840390855afa158015610533573d6000803e3d6000fd5b5050506020604051035190506000151560028560400151604051610557919061103d565b908152602001604051809103902060008373ffffffffffffffffffffffffffffffffffffffff1673ffffffffffffffffffffffffffffffffffffffff16815260200190815260200160002060009054906101000a900460ff161515146105f2576040517f08c379a00000000000000000000000000000000000000000000000000000000081526004016105e990611406565b60405180910390fd5b600160028560400151604051610608919061103d565b908152602001604051809103902060008373ffffffffffffffffffffffffffffffffffffffff1673ffffffffffffffffffffffffffffffffffffffff16815260200190815260200160002060006101000a81548160ff0219169083151502179055507f764482d2b4868852b9e7ea400153e83c7e7e54ddf465464af0ba597d16a42bb581856000015186604001518760600151886080015189602001516040516106b796959493929190611426565b60405180910390a150505050565b600073ffffffffffffffffffffffffffffffffffffffff82169050919050565b6000819050919050565b600061070a610705610700846106c5565b6106e5565b6106c5565b9050919050565b600061071c826106ef565b9050919050565b600061072e82610711565b9050919050565b61073e81610723565b82525050565b60006020820190506107596000830184610735565b92915050565b6000604051905090565b600080fd5b600080fd5b600080fd5b6000601f19601f8301169050919050565b7f4e487b7100000000000000000000000000000000000000000000000000000000600052604160045260246000fd5b6107c182610778565b810181811067ffffffffffffffff821117156107e0576107df610789565b5b80604052505050565b60006107f361075f565b90506107ff82826107b8565b919050565b600080fd5b6000610814826106c5565b9050919050565b61082481610809565b811461082f57600080fd5b50565b6000813590506108418161081b565b92915050565b600080fd5b600080fd5b600067ffffffffffffffff82111561086c5761086b610789565b5b61087582610778565b9050602081019050919050565b82818337600083830152505050565b60006108a461089f84610851565b6107e9565b9050828152602081018484840111156108c0576108bf61084c565b5b6108cb848285610882565b509392505050565b600082601f8301126108e8576108e7610847565b5b81356108f8848260208601610891565b91505092915050565b600060ff82169050919050565b61091781610901565b811461092257600080fd5b50565b6000813590506109348161090e565b92915050565b6000819050919050565b61094d8161093a565b811461095857600080fd5b50565b60008135905061096a81610944565b92915050565b6000819050919050565b61098381610970565b811461098e57600080fd5b50565b6000813590506109a08161097a565b92915050565b600061014082840312156109bd576109bc610773565b5b6109c86101406107e9565b905060006109d884828501610832565b600083015250602082013567ffffffffffffffff8111156109fc576109fb610804565b5b610a08848285016108d3565b602083015250604082013567ffffffffffffffff811115610a2c57610a2b610804565b5b610a38848285016108d3565b604083015250606082013567ffffffffffffffff811115610a5c57610a5b610804565b5b610a68848285016108d3565b606083015250608082013567ffffffffffffffff811115610a8c57610a8b610804565b5b610a98848285016108d3565b60808301525060a082013567ffffffffffffffff811115610abc57610abb610804565b5b610ac8848285016108d3565b60a08301525060c0610adc84828501610925565b60c08301525060e0610af08482850161095b565b60e083015250610100610b058482850161095b565b61010083015250610120610b1b84828501610991565b6101208301525092915050565b600060208284031215610b3e57610b3d610769565b5b600082013567ffffffffffffffff811115610b5c57610b5b61076e565b5b610b68848285016109a6565b91505092915050565b60008060408385031215610b8857610b87610769565b5b600083013567ffffffffffffffff811115610ba657610ba561076e565b5b610bb2858286016108d3565b9250506020610bc385828601610832565b9150509250929050565b600081519050919050565b600082825260208201905092915050565b60005b83811015610c07578082015181840152602081019050610bec565b60008484015250505050565b6000610c1e82610bcd565b610c288185610bd8565b9350610c38818560208601610be9565b610c4181610778565b840191505092915050565b60006020820190508181036000830152610c668184610c13565b905092915050565b60006101208284031215610c8557610c84610773565b5b610c906101206107e9565b90506000610ca084828501610832565b600083015250602082013567ffffffffffffffff811115610cc457610cc3610804565b5b610cd0848285016108d3565b602083015250604082013567ffffffffffffffff811115610cf457610cf3610804565b5b610d00848285016108d3565b604083015250606082013567ffffffffffffffff811115610d2457610d23610804565b5b610d30848285016108d3565b606083015250608082013567ffffffffffffffff811115610d5457610d53610804565b5b610d60848285016108d3565b60808301525060a0610d7484828501610925565b60a08301525060c0610d888482850161095b565b60c08301525060e0610d9c8482850161095b565b60e083015250610100610db184828501610991565b6101008301525092915050565b600060208284031215610dd457610dd3610769565b5b600082013567ffffffffffffffff811115610df257610df161076e565b5b610dfe84828501610c6e565b91505092915050565b600081905092915050565b6000610e1d82610bcd565b610e278185610e07565b9350610e37818560208601610be9565b80840191505092915050565b6000819050919050565b610e5e610e5982610970565b610e43565b82525050565b6000610e708286610e12565b9150610e7c8285610e12565b9150610e888284610e4d565b602082019150819050949350505050565b7f19457468657265756d205369676e6564204d6573736167653a0a333200000000600082015250565b6000610ecf601c83610e07565b9150610eda82610e99565b601c82019050919050565b6000819050919050565b610f00610efb8261093a565b610ee5565b82525050565b6000610f1182610ec2565b9150610f1d8284610eef565b60208201915081905092915050565b610f358161093a565b82525050565b610f4481610901565b82525050565b6000608082019050610f5f6000830187610f2c565b610f6c6020830186610f3b565b610f796040830185610f2c565b610f866060830184610f2c565b95945050505050565b600081519050610f9e8161081b565b92915050565b600060208284031215610fba57610fb9610769565b5b6000610fc884828501610f8f565b91505092915050565b7f4f6e6c7920646f63756d656e74206f776e65722063616e20656d6974206b6579600082015250565b6000611007602083610bd8565b915061101282610fd1565b602082019050919050565b6000602082019050818103600083015261103681610ffa565b9050919050565b60006110498284610e12565b915081905092915050565b7f4e487b7100000000000000000000000000000000000000000000000000000000600052602260045260246000fd5b6000600282049050600182168061109b57607f821691505b6020821081036110ae576110ad611054565b5b50919050565b60008190508160005260206000209050919050565b60006020601f8301049050919050565b600082821b905092915050565b6000600883026111167fffffffffffffffffffffffffffffffffffffffffffffffffffffffffffffffff826110d9565b61112086836110d9565b95508019841693508086168417925050509392505050565b600061115361114e61114984610970565b6106e5565b610970565b9050919050565b6000819050919050565b61116d83611138565b6111816111798261115a565b8484546110e6565b825550505050565b600090565b611196611189565b6111a1818484611164565b505050565b5b818110156111c5576111ba60008261118e565b6001810190506111a7565b5050565b601f82111561120a576111db816110b4565b6111e4846110c9565b810160208510156111f3578190505b6112076111ff856110c9565b8301826111a6565b50505b505050565b600082821c905092915050565b600061122d6000198460080261120f565b1980831691505092915050565b6000611246838361121c565b9150826002028217905092915050565b61125f82610bcd565b67ffffffffffffffff81111561127857611277610789565b5b6112828254611083565b61128d8282856111c9565b600060209050601f8311600181146112c057600084156112ae578287015190505b6112b8858261123a565b865550611320565b601f1984166112ce866110b4565b60005b828110156112f6578489015182556001820191506020850194506020810190506112d1565b86831015611313578489015161130f601f89168261121c565b8355505b6001600288020188555050505b505050505050565b61133181610809565b82525050565b600060a08201905061134c6000830188611328565b6113596020830187611328565b818103604083015261136b8186610c13565b9050818103606083015261137f8185610c13565b905081810360808301526113938184610c13565b90509695505050505050565b60006113ab8284610e4d565b60208201915081905092915050565b7f41636365737320616c7265616479207265717565737465640000000000000000600082015250565b60006113f0601883610bd8565b91506113fb826113ba565b602082019050919050565b6000602082019050818103600083015261141f816113e3565b9050919050565b600060c08201905061143b6000830189611328565b6114486020830188611328565b818103604083015261145a8187610c13565b9050818103606083015261146e8186610c13565b905081810360808301526114828185610c13565b905081810360a08301526114968184610c13565b905097965050505050505056fea26469706673582212209d84b6015e0f5e6fdfa58fb1c7813b87fddc117da5497731c37287509196cb0c64736f6c634300081c0033",
  "linkReferences": {},
  "deployedLinkReferences": {}
}