{
  "_format": "hh-sol-artifact-1",
  "contractName": "KeyManager",
  "sourceName": "contracts/KeyManager.sol",
  "abi": [
    {
      "inputs": [
        {
          "internalType": "address",
          "name": "documentStoreAddress",
          "type": "address"
        }
      ],
      "stateMutability": "nonpayable",
      "type": "constructor"
    },
    {
      "anonymous": false,
      "inputs": [
        {
          "indexed": false,
          "internalType": "address",
          "name": "receiver",
          "type": "address"
        },
        {
          "indexed": false,
          "internalType": "address",
          "name": "sender",
          "type": "address"
        },
        {
          "indexed": false,
          "internalType": "string",
          "name": "encryptedKey",
          "type": "string"
        },
        {
          "indexed": false,
          "internalType": "string",
          "name": "iv",
          "type": "string"
        },
        {
          "indexed": false,
          "internalType": "string",
          "name": "cid",
          "type": "string"
        }
      ],
      "name": "EmitKey",
      "type": "event"
    },
    {
      "anonymous": false,
      "inputs": [
        {
          "indexed": false,
          "internalType": "address",
          "name": "requester",
          "type": "address"
        },
        {
          "indexed": false,
          "internalType": "address",
          "name": "receiver",
          "type": "address"
        },
        {
          "indexed": false,
          "internalType": "string",
          "name": "cid",
          "type": "string"
        },
        {
          "indexed": false,
          "internalType": "string",
          "name": "documentName",
          "type": "string"
        },
        {
          "indexed": false,
          "internalType": "string",
          "name": "documentFormat",
          "type": "string"
        },
        {
          "indexed": false,
          "internalType": "string",
          "name": "tenderId",
          "type": "string"
        }
      ],
      "name": "RequestAccess",
      "type": "event"
    },
    {
      "inputs": [],
      "name": "documentStore",
      "outputs": [
        {
          "internalType": "contract IDocumentStore",
          "name": "",
          "type": "address"
        }
      ],
      "stateMutability": "view",
      "type": "function"
    },
    {
      "inputs": [
        {
          "components": [
            {
              "internalType": "address",
              "name": "receiver",
              "type": "address"
            },
            {
              "internalType": "string",
              "name": "encryptedKey",
              "type": "string"
            },
            {
              "internalType": "string",
              "name": "iv",
              "type": "string"
            },
            {
              "internalType": "string",
              "name": "cid",
              "type": "string"
            },
            {
              "internalType": "string",
              "name": "tenderId",
              "type": "string"
            },
            {
              "internalType": "string",
              "name": "documentName",
              "type": "string"
            },
            {
              "internalType": "uint8",
              "name": "v",
              "type": "uint8"
            },
            {
              "internalType": "bytes32",
              "name": "r",
              "type": "bytes32"
            },
            {
              "internalType": "bytes32",
              "name": "s",
              "type": "bytes32"
            },
            {
              "internalType": "uint256",
              "name": "deadline",
              "type": "uint256"
            }
          ],
          "internalType": "struct KeyManager.EmitKeyInput",
          "name": "input",
          "type": "tuple"
        }
      ],
      "name": "emitKey",
      "outputs": [],
      "stateMutability": "nonpayable",
      "type": "function"
    },
    {
      "inputs": [
        {
          "internalType": "string",
          "name": "cid",
          "type": "string"
        },
        {
          "internalType": "address",
          "name": "receiver",
          "type": "address"
        }
      ],
      "name": "getEncryptedKey",
      "outputs": [
        {
          "internalType": "string",
          "name": "",
          "type": "string"
        }
      ],
      "stateMutability": "view",
      "type": "function"
    },
    {
      "inputs": [
        {
          "components": [
            {
              "internalType": "address",
              "name": "receiver",
              "type": "address"
            },
            {
              "internalType": "string",
              "name": "tenderId",
              "type": "string"
            },
            {
              "internalType": "string",
              "name": "cid",
              "type": "string"
            },
            {
              "internalType": "string",
              "name": "documentName",
              "type": "string"
            },
            {
              "internalType": "string",
              "name": "documentFormat",
              "type": "string"
            },
            {
              "internalType": "uint8",
              "name": "v",
              "type": "uint8"
            },
            {
              "internalType": "bytes32",
              "name": "r",
              "type": "bytes32"
            },
            {
              "internalType": "bytes32",
              "name": "s",
              "type": "bytes32"
            },
            {
              "internalType": "uint256",
              "name": "deadline",
              "type": "uint256"
            }
          ],
          "internalType": "struct KeyManager.RequestAccessInput",
          "name": "input",
          "type": "tuple"
        }
      ],
      "name": "requestAccess",
      "outputs": [],
      "stateMutability": "nonpayable",
      "type": "function"
    }
  ],
  "bytecode": "0x608060405234801561001057600080fd5b506040516115f83803806115f8833981810160405281019061003291906100db565b806000806101000a81548173ffffffffffffffffffffffffffffffffffffffff021916908373ffffffffffffffffffffffffffffffffffffffff16021790555050610108565b600080fd5b600073ffffffffffffffffffffffffffffffffffffffff82169050919050565b60006100a88261007d565b9050919050565b6100b88161009d565b81146100c357600080fd5b50565b6000815190506100d5816100af565b92915050565b6000602082840312156100f1576100f0610078565b5b60006100ff848285016100c6565b91505092915050565b6114e1806101176000396000f3fe608060405234801561001057600080fd5b506004361061004c5760003560e01c8063408acd331461005157806381b6cb2c1461006f578063924c953a1461008b578063c8da2d4c146100bb575b600080fd5b6100596100d7565b604051610066919061074c565b60405180910390f35b61008960048036038101906100849190610b30565b6100fb565b005b6100a560048036038101906100a09190610b79565b610397565b6040516100b29190610c54565b60405180910390f35b6100d560048036038101906100d09190610dc6565b610485565b005b60008054906101000a900473ffffffffffffffffffffffffffffffffffffffff1681565b600081608001518260a0015183610120015160405160200161011f93929190610e6c565b60405160208183030381529060405280519060200120905060008160405160200161014a9190610f0e565b60405160208183030381529060405280519060200120905060006001828560c001518660e00151876101000151604051600081526020016040526040516101949493929190610f52565b6020604051602081039080840390855afa1580156101b6573d6000803e3d6000fd5b5050506020604051035190508073ffffffffffffffffffffffffffffffffffffffff1660008054906101000a900473ffffffffffffffffffffffffffffffffffffffff1673ffffffffffffffffffffffffffffffffffffffff1663cb356d9186606001516040518263ffffffff1660e01b81526004016102369190610c54565b602060405180830381865afa158015610253573d6000803e3d6000fd5b505050506040513d601f19601f820116820180604052508101906102779190610fac565b73ffffffffffffffffffffffffffffffffffffffff16146102cd576040517f08c379a00000000000000000000000000000000000000000000000000000000081526004016102c490611025565b60405180910390fd5b8360200151600185606001516040516102e69190611045565b90815260200160405180910390206000866000015173ffffffffffffffffffffffffffffffffffffffff1673ffffffffffffffffffffffffffffffffffffffff1681526020019081526020016000209081610341919061125e565b507ff0002f2f528b0ee51d6a449d7ff420fda1d11361a194279a0abed91fa5a6766f84600001518286602001518760400151886060015160405161038995949392919061133f565b60405180910390a150505050565b60606001836040516103a99190611045565b908152602001604051809103902060008373ffffffffffffffffffffffffffffffffffffffff1673ffffffffffffffffffffffffffffffffffffffff16815260200190815260200160002080546103ff9061108b565b80601f016020809104026020016040519081016040528092919081815260200182805461042b9061108b565b80156104785780601f1061044d57610100808354040283529160200191610478565b820191906000526020600020905b81548152906001019060200180831161045b57829003601f168201915b5050505050905092915050565b600081610100015160405160200161049d91906113a7565b6040516020818303038152906040528051906020012090506000816040516020016104c89190610f0e565b60405160208183030381529060405280519060200120905060006001828560a001518660c001518760e00151604051600081526020016040526040516105119493929190610f52565b6020604051602081039080840390855afa158015610533573d6000803e3d6000fd5b50505060206040510351905060001515600285604001516040516105579190611045565b90815260200160405180910390206000866000015173ffffffffffffffffffffffffffffffffffffffff1673ffffffffffffffffffffffffffffffffffffffff16815260200190815260200160002060009054906101000a900460ff161515146105f6576040517f08c379a00000000000000000000000000000000000000000000000000000000081526004016105ed9061140e565b60405180910390fd5b60016002856040015160405161060c9190611045565b90815260200160405180910390206000866000015173ffffffffffffffffffffffffffffffffffffffff1673ffffffffffffffffffffffffffffffffffffffff16815260200190815260200160002060006101000a81548160ff0219169083151502179055507f764482d2b4868852b9e7ea400153e83c7e7e54ddf465464af0ba597d16a42bb581856000015186604001518760600151886080015189602001516040516106bf9695949392919061142e565b60405180910390a150505050565b600073ffffffffffffffffffffffffffffffffffffffff82169050919050565b6000819050919050565b600061071261070d610708846106cd565b6106ed565b6106cd565b9050919050565b6000610724826106f7565b9050919050565b600061073682610719565b9050919050565b6107468161072b565b82525050565b6000602082019050610761600083018461073d565b92915050565b6000604051905090565b600080fd5b600080fd5b600080fd5b6000601f19601f8301169050919050565b7f4e487b7100000000000000000000000000000000000000000000000000000000600052604160045260246000fd5b6107c982610780565b810181811067ffffffffffffffff821117156107e8576107e7610791565b5b80604052505050565b60006107fb610767565b905061080782826107c0565b919050565b600080fd5b600061081c826106cd565b9050919050565b61082c81610811565b811461083757600080fd5b50565b60008135905061084981610823565b92915050565b600080fd5b600080fd5b600067ffffffffffffffff82111561087457610873610791565b5b61087d82610780565b9050602081019050919050565b82818337600083830152505050565b60006108ac6108a784610859565b6107f1565b9050828152602081018484840111156108c8576108c7610854565b5b6108d384828561088a565b509392505050565b600082601f8301126108f0576108ef61084f565b5b8135610900848260208601610899565b91505092915050565b600060ff82169050919050565b61091f81610909565b811461092a57600080fd5b50565b60008135905061093c81610916565b92915050565b6000819050919050565b61095581610942565b811461096057600080fd5b50565b6000813590506109728161094c565b92915050565b6000819050919050565b61098b81610978565b811461099657600080fd5b50565b6000813590506109a881610982565b92915050565b600061014082840312156109c5576109c461077b565b5b6109d06101406107f1565b905060006109e08482850161083a565b600083015250602082013567ffffffffffffffff811115610a0457610a0361080c565b5b610a10848285016108db565b602083015250604082013567ffffffffffffffff811115610a3457610a3361080c565b5b610a40848285016108db565b604083015250606082013567ffffffffffffffff811115610a6457610a6361080c565b5b610a70848285016108db565b606083015250608082013567ffffffffffffffff811115610a9457610a9361080c565b5b610aa0848285016108db565b60808301525060a082013567ffffffffffffffff811115610ac457610ac361080c565b5b610ad0848285016108db565b60a08301525060c0610ae48482850161092d565b60c08301525060e0610af884828501610963565b60e083015250610100610b0d84828501610963565b61010083015250610120610b2384828501610999565b6101208301525092915050565b600060208284031215610b4657610b45610771565b5b600082013567ffffffffffffffff811115610b6457610b63610776565b5b610b70848285016109ae565b91505092915050565b60008060408385031215610b9057610b8f610771565b5b600083013567ffffffffffffffff811115610bae57610bad610776565b5b610bba858286016108db565b9250506020610bcb8582860161083a565b9150509250929050565b600081519050919050565b600082825260208201905092915050565b60005b83811015610c0f578082015181840152602081019050610bf4565b60008484015250505050565b6000610c2682610bd5565b610c308185610be0565b9350610c40818560208601610bf1565b610c4981610780565b840191505092915050565b60006020820190508181036000830152610c6e8184610c1b565b905092915050565b60006101208284031215610c8d57610c8c61077b565b5b610c986101206107f1565b90506000610ca88482850161083a565b600083015250602082013567ffffffffffffffff811115610ccc57610ccb61080c565b5b610cd8848285016108db565b602083015250604082013567ffffffffffffffff811115610cfc57610cfb61080c565b5b610d08848285016108db565b604083015250606082013567ffffffffffffffff811115610d2c57610d2b61080c565b5b610d38848285016108db565b606083015250608082013567ffffffffffffffff811115610d5c57610d5b61080c565b5b610d68848285016108db565b60808301525060a0610d7c8482850161092d565b60a08301525060c0610d9084828501610963565b60c08301525060e0610da484828501610963565b60e083015250610100610db984828501610999565b6101008301525092915050565b600060208284031215610ddc57610ddb610771565b5b600082013567ffffffffffffffff811115610dfa57610df9610776565b5b610e0684828501610c76565b91505092915050565b600081905092915050565b6000610e2582610bd5565b610e2f8185610e0f565b9350610e3f818560208601610bf1565b80840191505092915050565b6000819050919050565b610e66610e6182610978565b610e4b565b82525050565b6000610e788286610e1a565b9150610e848285610e1a565b9150610e908284610e55565b602082019150819050949350505050565b7f19457468657265756d205369676e6564204d6573736167653a0a333200000000600082015250565b6000610ed7601c83610e0f565b9150610ee282610ea1565b601c82019050919050565b6000819050919050565b610f08610f0382610942565b610eed565b82525050565b6000610f1982610eca565b9150610f258284610ef7565b60208201915081905092915050565b610f3d81610942565b82525050565b610f4c81610909565b82525050565b6000608082019050610f676000830187610f34565b610f746020830186610f43565b610f816040830185610f34565b610f8e6060830184610f34565b95945050505050565b600081519050610fa681610823565b92915050565b600060208284031215610fc257610fc1610771565b5b6000610fd084828501610f97565b91505092915050565b7f4f6e6c7920646f63756d656e74206f776e65722063616e20656d6974206b6579600082015250565b600061100f602083610be0565b915061101a82610fd9565b602082019050919050565b6000602082019050818103600083015261103e81611002565b9050919050565b60006110518284610e1a565b915081905092915050565b7f4e487b7100000000000000000000000000000000000000000000000000000000600052602260045260246000fd5b600060028204905060018216806110a357607f821691505b6020821081036110b6576110b561105c565b5b50919050565b60008190508160005260206000209050919050565b60006020601f8301049050919050565b600082821b905092915050565b60006008830261111e7fffffffffffffffffffffffffffffffffffffffffffffffffffffffffffffffff826110e1565b61112886836110e1565b95508019841693508086168417925050509392505050565b600061115b61115661115184610978565b6106ed565b610978565b9050919050565b6000819050919050565b61117583611140565b61118961118182611162565b8484546110ee565b825550505050565b600090565b61119e611191565b6111a981848461116c565b505050565b5b818110156111cd576111c2600082611196565b6001810190506111af565b5050565b601f821115611212576111e3816110bc565b6111ec846110d1565b810160208510156111fb578190505b61120f611207856110d1565b8301826111ae565b50505b505050565b600082821c905092915050565b600061123560001984600802611217565b1980831691505092915050565b600061124e8383611224565b9150826002028217905092915050565b61126782610bd5565b67ffffffffffffffff8111156112805761127f610791565b5b61128a825461108b565b6112958282856111d1565b600060209050601f8311600181146112c857600084156112b6578287015190505b6112c08582611242565b865550611328565b601f1984166112d6866110bc565b60005b828110156112fe578489015182556001820191506020850194506020810190506112d9565b8683101561131b5784890151611317601f891682611224565b8355505b6001600288020188555050505b505050505050565b61133981610811565b82525050565b600060a0820190506113546000830188611330565b6113616020830187611330565b81810360408301526113738186610c1b565b905081810360608301526113878185610c1b565b9050818103608083015261139b8184610c1b565b90509695505050505050565b60006113b38284610e55565b60208201915081905092915050565b7f41636365737320616c7265616479207265717565737465640000000000000000600082015250565b60006113f8601883610be0565b9150611403826113c2565b602082019050919050565b60006020820190508181036000830152611427816113eb565b9050919050565b600060c0820190506114436000830189611330565b6114506020830188611330565b81810360408301526114628187610c1b565b905081810360608301526114768186610c1b565b9050818103608083015261148a8185610c1b565b905081810360a083015261149e8184610c1b565b905097965050505050505056fea2646970667358221220ab971f2858eeb20ab0571edcda8177ce56d786fb05b1e5ddda5c8017cdc241d564736f6c634300081c0033",
  "linkReferences": {},
  "deployedLinkReferences": {}
}