{
  "_format": "hh-sol-artifact-1",
  "contractName": "KeyManager",
  "sourceName": "contracts/KeyManager.sol",
  "abi": [
    {
      "inputs": [
        {
          "internalType": "address",
          "name": "documentStoreAddress",
          "type": "address"
        }
      ],
      "stateMutability": "nonpayable",
      "type": "constructor"
    },
    {
      "anonymous": false,
      "inputs": [
        {
          "indexed": false,
          "internalType": "address",
          "name": "receiver",
          "type": "address"
        },
        {
          "indexed": false,
          "internalType": "address",
          "name": "sender",
          "type": "address"
        },
        {
          "indexed": false,
          "internalType": "string",
          "name": "encryptedKey",
          "type": "string"
        },
        {
          "indexed": false,
          "internalType": "string",
          "name": "iv",
          "type": "string"
        },
        {
          "indexed": false,
          "internalType": "string",
          "name": "cid",
          "type": "string"
        }
      ],
      "name": "EmitKey",
      "type": "event"
    },
    {
      "anonymous": false,
      "inputs": [
        {
          "indexed": false,
          "internalType": "address",
          "name": "requester",
          "type": "address"
        },
        {
          "indexed": false,
          "internalType": "address",
          "name": "receiver",
          "type": "address"
        },
        {
          "indexed": false,
          "internalType": "string",
          "name": "cid",
          "type": "string"
        },
        {
          "indexed": false,
          "internalType": "string",
          "name": "fileName",
          "type": "string"
        }
      ],
      "name": "RequestAccess",
      "type": "event"
    },
    {
      "inputs": [],
      "name": "documentStore",
      "outputs": [
        {
          "internalType": "contract IDocumentStore",
          "name": "",
          "type": "address"
        }
      ],
      "stateMutability": "view",
      "type": "function"
    },
    {
      "inputs": [
        {
          "components": [
            {
              "internalType": "address",
              "name": "receiver",
              "type": "address"
            },
            {
              "internalType": "string",
              "name": "encryptedKey",
              "type": "string"
            },
            {
              "internalType": "string",
              "name": "iv",
              "type": "string"
            },
            {
              "internalType": "string",
              "name": "cid",
              "type": "string"
            },
            {
              "internalType": "string",
              "name": "tenderId",
              "type": "string"
            },
            {
              "internalType": "string",
              "name": "documentName",
              "type": "string"
            },
            {
              "internalType": "uint8",
              "name": "v",
              "type": "uint8"
            },
            {
              "internalType": "bytes32",
              "name": "r",
              "type": "bytes32"
            },
            {
              "internalType": "bytes32",
              "name": "s",
              "type": "bytes32"
            },
            {
              "internalType": "uint256",
              "name": "deadline",
              "type": "uint256"
            }
          ],
          "internalType": "struct KeyManager.EmitKeyInput",
          "name": "input",
          "type": "tuple"
        }
      ],
      "name": "emitKey",
      "outputs": [],
      "stateMutability": "nonpayable",
      "type": "function"
    },
    {
      "inputs": [
        {
          "internalType": "string",
          "name": "cid",
          "type": "string"
        },
        {
          "internalType": "address",
          "name": "receiver",
          "type": "address"
        }
      ],
      "name": "getEncryptedKey",
      "outputs": [
        {
          "internalType": "string",
          "name": "",
          "type": "string"
        }
      ],
      "stateMutability": "view",
      "type": "function"
    },
    {
      "inputs": [
        {
          "internalType": "address",
          "name": "receiver",
          "type": "address"
        },
        {
          "internalType": "string",
          "name": "cid",
          "type": "string"
        },
        {
          "internalType": "string",
          "name": "fileName",
          "type": "string"
        },
        {
          "internalType": "uint8",
          "name": "v",
          "type": "uint8"
        },
        {
          "internalType": "bytes32",
          "name": "r",
          "type": "bytes32"
        },
        {
          "internalType": "bytes32",
          "name": "s",
          "type": "bytes32"
        },
        {
          "internalType": "uint256",
          "name": "deadline",
          "type": "uint256"
        }
      ],
      "name": "requestAccess",
      "outputs": [],
      "stateMutability": "nonpayable",
      "type": "function"
    }
  ],
  "bytecode": "0x608060405234801561001057600080fd5b506040516114dc3803806114dc833981810160405281019061003291906100db565b806000806101000a81548173ffffffffffffffffffffffffffffffffffffffff021916908373ffffffffffffffffffffffffffffffffffffffff16021790555050610108565b600080fd5b600073ffffffffffffffffffffffffffffffffffffffff82169050919050565b60006100a88261007d565b9050919050565b6100b88161009d565b81146100c357600080fd5b50565b6000815190506100d5816100af565b92915050565b6000602082840312156100f1576100f0610078565b5b60006100ff848285016100c6565b91505092915050565b6113c5806101176000396000f3fe608060405234801561001057600080fd5b506004361061004c5760003560e01c8063408acd331461005157806373af7da01461006f57806381b6cb2c1461008b578063924c953a146100a7575b600080fd5b6100596100d7565b6040516100669190610719565b60405180910390f35b61008960048036038101906100849190610971565b6100fb565b005b6100a560048036038101906100a09190610bd7565b610310565b005b6100c160048036038101906100bc9190610c20565b6105ac565b6040516100ce9190610cfb565b60405180910390f35b60008054906101000a900473ffffffffffffffffffffffffffffffffffffffff1681565b60008160405160200161010e9190610d3e565b6040516020818303038152906040528051906020012090506000816040516020016101399190610dd1565b6040516020818303038152906040528051906020012090506000600182888888604051600081526020016040526040516101769493929190610e15565b6020604051602081039080840390855afa158015610198573d6000803e3d6000fd5b5050506020604051035190506000151560028a6040516101b89190610e8b565b908152602001604051809103902060008c73ffffffffffffffffffffffffffffffffffffffff1673ffffffffffffffffffffffffffffffffffffffff16815260200190815260200160002060009054906101000a900460ff16151514610253576040517f08c379a000000000000000000000000000000000000000000000000000000000815260040161024a90610eee565b60405180910390fd5b600160028a6040516102659190610e8b565b908152602001604051809103902060008c73ffffffffffffffffffffffffffffffffffffffff1673ffffffffffffffffffffffffffffffffffffffff16815260200190815260200160002060006101000a81548160ff0219169083151502179055507f642ca8e698cd2f2dd8db8fdd9d3b8f0974ce5ecd344dd0e644e51012a942d861818b8b8b6040516102fc9493929190610f1d565b60405180910390a150505050505050505050565b600081608001518260a0015183610120015160405160200161033493929190610f70565b60405160208183030381529060405280519060200120905060008160405160200161035f9190610dd1565b60405160208183030381529060405280519060200120905060006001828560c001518660e00151876101000151604051600081526020016040526040516103a99493929190610e15565b6020604051602081039080840390855afa1580156103cb573d6000803e3d6000fd5b5050506020604051035190508073ffffffffffffffffffffffffffffffffffffffff1660008054906101000a900473ffffffffffffffffffffffffffffffffffffffff1673ffffffffffffffffffffffffffffffffffffffff1663cb356d9186606001516040518263ffffffff1660e01b815260040161044b9190610cfb565b602060405180830381865afa158015610468573d6000803e3d6000fd5b505050506040513d601f19601f8201168201806040525081019061048c9190610fba565b73ffffffffffffffffffffffffffffffffffffffff16146104e2576040517f08c379a00000000000000000000000000000000000000000000000000000000081526004016104d990611033565b60405180910390fd5b8360200151600185606001516040516104fb9190610e8b565b90815260200160405180910390206000866000015173ffffffffffffffffffffffffffffffffffffffff1673ffffffffffffffffffffffffffffffffffffffff16815260200190815260200160002090816105569190611255565b507ff0002f2f528b0ee51d6a449d7ff420fda1d11361a194279a0abed91fa5a6766f84600001518286602001518760400151886060015160405161059e959493929190611327565b60405180910390a150505050565b60606001836040516105be9190610e8b565b908152602001604051809103902060008373ffffffffffffffffffffffffffffffffffffffff1673ffffffffffffffffffffffffffffffffffffffff168152602001908152602001600020805461061490611082565b80601f016020809104026020016040519081016040528092919081815260200182805461064090611082565b801561068d5780601f106106625761010080835404028352916020019161068d565b820191906000526020600020905b81548152906001019060200180831161067057829003601f168201915b5050505050905092915050565b600073ffffffffffffffffffffffffffffffffffffffff82169050919050565b6000819050919050565b60006106df6106da6106d58461069a565b6106ba565b61069a565b9050919050565b60006106f1826106c4565b9050919050565b6000610703826106e6565b9050919050565b610713816106f8565b82525050565b600060208201905061072e600083018461070a565b92915050565b6000604051905090565b600080fd5b600080fd5b60006107538261069a565b9050919050565b61076381610748565b811461076e57600080fd5b50565b6000813590506107808161075a565b92915050565b600080fd5b600080fd5b6000601f19601f8301169050919050565b7f4e487b7100000000000000000000000000000000000000000000000000000000600052604160045260246000fd5b6107d982610790565b810181811067ffffffffffffffff821117156107f8576107f76107a1565b5b80604052505050565b600061080b610734565b905061081782826107d0565b919050565b600067ffffffffffffffff821115610837576108366107a1565b5b61084082610790565b9050602081019050919050565b82818337600083830152505050565b600061086f61086a8461081c565b610801565b90508281526020810184848401111561088b5761088a61078b565b5b61089684828561084d565b509392505050565b600082601f8301126108b3576108b2610786565b5b81356108c384826020860161085c565b91505092915050565b600060ff82169050919050565b6108e2816108cc565b81146108ed57600080fd5b50565b6000813590506108ff816108d9565b92915050565b6000819050919050565b61091881610905565b811461092357600080fd5b50565b6000813590506109358161090f565b92915050565b6000819050919050565b61094e8161093b565b811461095957600080fd5b50565b60008135905061096b81610945565b92915050565b600080600080600080600060e0888a0312156109905761098f61073e565b5b600061099e8a828b01610771565b975050602088013567ffffffffffffffff8111156109bf576109be610743565b5b6109cb8a828b0161089e565b965050604088013567ffffffffffffffff8111156109ec576109eb610743565b5b6109f88a828b0161089e565b9550506060610a098a828b016108f0565b9450506080610a1a8a828b01610926565b93505060a0610a2b8a828b01610926565b92505060c0610a3c8a828b0161095c565b91505092959891949750929550565b600080fd5b600080fd5b60006101408284031215610a6c57610a6b610a4b565b5b610a77610140610801565b90506000610a8784828501610771565b600083015250602082013567ffffffffffffffff811115610aab57610aaa610a50565b5b610ab78482850161089e565b602083015250604082013567ffffffffffffffff811115610adb57610ada610a50565b5b610ae78482850161089e565b604083015250606082013567ffffffffffffffff811115610b0b57610b0a610a50565b5b610b178482850161089e565b606083015250608082013567ffffffffffffffff811115610b3b57610b3a610a50565b5b610b478482850161089e565b60808301525060a082013567ffffffffffffffff811115610b6b57610b6a610a50565b5b610b778482850161089e565b60a08301525060c0610b8b848285016108f0565b60c08301525060e0610b9f84828501610926565b60e083015250610100610bb484828501610926565b61010083015250610120610bca8482850161095c565b6101208301525092915050565b600060208284031215610bed57610bec61073e565b5b600082013567ffffffffffffffff811115610c0b57610c0a610743565b5b610c1784828501610a55565b91505092915050565b60008060408385031215610c3757610c3661073e565b5b600083013567ffffffffffffffff811115610c5557610c54610743565b5b610c618582860161089e565b9250506020610c7285828601610771565b9150509250929050565b600081519050919050565b600082825260208201905092915050565b60005b83811015610cb6578082015181840152602081019050610c9b565b60008484015250505050565b6000610ccd82610c7c565b610cd78185610c87565b9350610ce7818560208601610c98565b610cf081610790565b840191505092915050565b60006020820190508181036000830152610d158184610cc2565b905092915050565b6000819050919050565b610d38610d338261093b565b610d1d565b82525050565b6000610d4a8284610d27565b60208201915081905092915050565b600081905092915050565b7f19457468657265756d205369676e6564204d6573736167653a0a333200000000600082015250565b6000610d9a601c83610d59565b9150610da582610d64565b601c82019050919050565b6000819050919050565b610dcb610dc682610905565b610db0565b82525050565b6000610ddc82610d8d565b9150610de88284610dba565b60208201915081905092915050565b610e0081610905565b82525050565b610e0f816108cc565b82525050565b6000608082019050610e2a6000830187610df7565b610e376020830186610e06565b610e446040830185610df7565b610e516060830184610df7565b95945050505050565b6000610e6582610c7c565b610e6f8185610d59565b9350610e7f818560208601610c98565b80840191505092915050565b6000610e978284610e5a565b915081905092915050565b7f41636365737320616c7265616479207265717565737465640000000000000000600082015250565b6000610ed8601883610c87565b9150610ee382610ea2565b602082019050919050565b60006020820190508181036000830152610f0781610ecb565b9050919050565b610f1781610748565b82525050565b6000608082019050610f326000830187610f0e565b610f3f6020830186610f0e565b8181036040830152610f518185610cc2565b90508181036060830152610f658184610cc2565b905095945050505050565b6000610f7c8286610e5a565b9150610f888285610e5a565b9150610f948284610d27565b602082019150819050949350505050565b600081519050610fb48161075a565b92915050565b600060208284031215610fd057610fcf61073e565b5b6000610fde84828501610fa5565b91505092915050565b7f4f6e6c7920646f63756d656e74206f776e65722063616e20656d6974206b6579600082015250565b600061101d602083610c87565b915061102882610fe7565b602082019050919050565b6000602082019050818103600083015261104c81611010565b9050919050565b7f4e487b7100000000000000000000000000000000000000000000000000000000600052602260045260246000fd5b6000600282049050600182168061109a57607f821691505b6020821081036110ad576110ac611053565b5b50919050565b60008190508160005260206000209050919050565b60006020601f8301049050919050565b600082821b905092915050565b6000600883026111157fffffffffffffffffffffffffffffffffffffffffffffffffffffffffffffffff826110d8565b61111f86836110d8565b95508019841693508086168417925050509392505050565b600061115261114d6111488461093b565b6106ba565b61093b565b9050919050565b6000819050919050565b61116c83611137565b61118061117882611159565b8484546110e5565b825550505050565b600090565b611195611188565b6111a0818484611163565b505050565b5b818110156111c4576111b960008261118d565b6001810190506111a6565b5050565b601f821115611209576111da816110b3565b6111e3846110c8565b810160208510156111f2578190505b6112066111fe856110c8565b8301826111a5565b50505b505050565b600082821c905092915050565b600061122c6000198460080261120e565b1980831691505092915050565b6000611245838361121b565b9150826002028217905092915050565b61125e82610c7c565b67ffffffffffffffff811115611277576112766107a1565b5b6112818254611082565b61128c8282856111c8565b600060209050601f8311600181146112bf57600084156112ad578287015190505b6112b78582611239565b86555061131f565b601f1984166112cd866110b3565b60005b828110156112f5578489015182556001820191506020850194506020810190506112d0565b86831015611312578489015161130e601f89168261121b565b8355505b6001600288020188555050505b505050505050565b600060a08201905061133c6000830188610f0e565b6113496020830187610f0e565b818103604083015261135b8186610cc2565b9050818103606083015261136f8185610cc2565b905081810360808301526113838184610cc2565b9050969550505050505056fea26469706673582212208cf6c2453ec6cc990b9f669817eafd3dc5a5f96b1ef30baadbb518394e48e56f64736f6c634300081c0033",
  "linkReferences": {},
  "deployedLinkReferences": {}
}