{
  "_format": "hh-sol-artifact-1",
  "contractName": "KeyManager",
  "sourceName": "contracts/KeyManager.sol",
  "abi": [
    {
      "anonymous": false,
      "inputs": [
        {
          "indexed": false,
          "internalType": "address",
          "name": "receiver",
          "type": "address"
        },
        {
          "indexed": false,
          "internalType": "address",
          "name": "sender",
          "type": "address"
        },
        {
          "indexed": false,
          "internalType": "string",
          "name": "encryptedKey",
          "type": "string"
        },
        {
          "indexed": false,
          "internalType": "string",
          "name": "iv",
          "type": "string"
        },
        {
          "indexed": false,
          "internalType": "string",
          "name": "cid",
          "type": "string"
        }
      ],
      "name": "EmitKey",
      "type": "event"
    },
    {
      "inputs": [
        {
          "internalType": "address",
          "name": "receiver",
          "type": "address"
        },
        {
          "internalType": "string",
          "name": "encryptedKey",
          "type": "string"
        },
        {
          "internalType": "string",
          "name": "iv",
          "type": "string"
        },
        {
          "internalType": "string",
          "name": "cid",
          "type": "string"
        },
        {
          "internalType": "uint8",
          "name": "v",
          "type": "uint8"
        },
        {
          "internalType": "bytes32",
          "name": "r",
          "type": "bytes32"
        },
        {
          "internalType": "bytes32",
          "name": "s",
          "type": "bytes32"
        },
        {
          "internalType": "uint256",
          "name": "deadline",
          "type": "uint256"
        }
      ],
      "name": "emitKey",
      "outputs": [],
      "stateMutability": "nonpayable",
      "type": "function"
    },
    {
      "inputs": [
        {
          "internalType": "string",
          "name": "cid",
          "type": "string"
        },
        {
          "internalType": "address",
          "name": "receiver",
          "type": "address"
        }
      ],
      "name": "getEncryptedKey",
      "outputs": [
        {
          "internalType": "string",
          "name": "",
          "type": "string"
        }
      ],
      "stateMutability": "view",
      "type": "function"
    }
  ],
  "bytecode": "0x6080604052348015600f57600080fd5b50610c478061001f6000396000f3fe608060405234801561001057600080fd5b50600436106100365760003560e01c80637ee76a591461003b578063924c953a14610057575b600080fd5b61005560048036038101906100509190610530565b610087565b005b610071600480360381019061006c919061063a565b6101e5565b60405161007e9190610715565b60405180910390f35b60008160405160200161009a9190610758565b6040516020818303038152906040528051906020012090506000816040516020016100c591906107eb565b604051602081830303815290604052805190602001209050600060018288888860405160008152602001604052604051610102949392919061082f565b6020604051602081039080840390855afa158015610124573d6000803e3d6000fd5b5050506020604051035190508960008960405161014191906108a5565b908152602001604051809103902060008d73ffffffffffffffffffffffffffffffffffffffff1673ffffffffffffffffffffffffffffffffffffffff16815260200190815260200160002090816101989190610ac8565b507ff0002f2f528b0ee51d6a449d7ff420fda1d11361a194279a0abed91fa5a6766f8b828c8c8c6040516101d0959493929190610ba9565b60405180910390a15050505050505050505050565b60606000836040516101f791906108a5565b908152602001604051809103902060008373ffffffffffffffffffffffffffffffffffffffff1673ffffffffffffffffffffffffffffffffffffffff168152602001908152602001600020805461024d906108eb565b80601f0160208091040260200160405190810160405280929190818152602001828054610279906108eb565b80156102c65780601f1061029b576101008083540402835291602001916102c6565b820191906000526020600020905b8154815290600101906020018083116102a957829003601f168201915b5050505050905092915050565b6000604051905090565b600080fd5b600080fd5b600073ffffffffffffffffffffffffffffffffffffffff82169050919050565b6000610312826102e7565b9050919050565b61032281610307565b811461032d57600080fd5b50565b60008135905061033f81610319565b92915050565b600080fd5b600080fd5b6000601f19601f8301169050919050565b7f4e487b7100000000000000000000000000000000000000000000000000000000600052604160045260246000fd5b6103988261034f565b810181811067ffffffffffffffff821117156103b7576103b6610360565b5b80604052505050565b60006103ca6102d3565b90506103d6828261038f565b919050565b600067ffffffffffffffff8211156103f6576103f5610360565b5b6103ff8261034f565b9050602081019050919050565b82818337600083830152505050565b600061042e610429846103db565b6103c0565b90508281526020810184848401111561044a5761044961034a565b5b61045584828561040c565b509392505050565b600082601f83011261047257610471610345565b5b813561048284826020860161041b565b91505092915050565b600060ff82169050919050565b6104a18161048b565b81146104ac57600080fd5b50565b6000813590506104be81610498565b92915050565b6000819050919050565b6104d7816104c4565b81146104e257600080fd5b50565b6000813590506104f4816104ce565b92915050565b6000819050919050565b61050d816104fa565b811461051857600080fd5b50565b60008135905061052a81610504565b92915050565b600080600080600080600080610100898b031215610551576105506102dd565b5b600061055f8b828c01610330565b985050602089013567ffffffffffffffff8111156105805761057f6102e2565b5b61058c8b828c0161045d565b975050604089013567ffffffffffffffff8111156105ad576105ac6102e2565b5b6105b98b828c0161045d565b965050606089013567ffffffffffffffff8111156105da576105d96102e2565b5b6105e68b828c0161045d565b95505060806105f78b828c016104af565b94505060a06106088b828c016104e5565b93505060c06106198b828c016104e5565b92505060e061062a8b828c0161051b565b9150509295985092959890939650565b60008060408385031215610651576106506102dd565b5b600083013567ffffffffffffffff81111561066f5761066e6102e2565b5b61067b8582860161045d565b925050602061068c85828601610330565b9150509250929050565b600081519050919050565b600082825260208201905092915050565b60005b838110156106d05780820151818401526020810190506106b5565b60008484015250505050565b60006106e782610696565b6106f181856106a1565b93506107018185602086016106b2565b61070a8161034f565b840191505092915050565b6000602082019050818103600083015261072f81846106dc565b905092915050565b6000819050919050565b61075261074d826104fa565b610737565b82525050565b60006107648284610741565b60208201915081905092915050565b600081905092915050565b7f19457468657265756d205369676e6564204d6573736167653a0a333200000000600082015250565b60006107b4601c83610773565b91506107bf8261077e565b601c82019050919050565b6000819050919050565b6107e56107e0826104c4565b6107ca565b82525050565b60006107f6826107a7565b915061080282846107d4565b60208201915081905092915050565b61081a816104c4565b82525050565b6108298161048b565b82525050565b60006080820190506108446000830187610811565b6108516020830186610820565b61085e6040830185610811565b61086b6060830184610811565b95945050505050565b600061087f82610696565b6108898185610773565b93506108998185602086016106b2565b80840191505092915050565b60006108b18284610874565b915081905092915050565b7f4e487b7100000000000000000000000000000000000000000000000000000000600052602260045260246000fd5b6000600282049050600182168061090357607f821691505b602082108103610916576109156108bc565b5b50919050565b60008190508160005260206000209050919050565b60006020601f8301049050919050565b600082821b905092915050565b60006008830261097e7fffffffffffffffffffffffffffffffffffffffffffffffffffffffffffffffff82610941565b6109888683610941565b95508019841693508086168417925050509392505050565b6000819050919050565b60006109c56109c06109bb846104fa565b6109a0565b6104fa565b9050919050565b6000819050919050565b6109df836109aa565b6109f36109eb826109cc565b84845461094e565b825550505050565b600090565b610a086109fb565b610a138184846109d6565b505050565b5b81811015610a3757610a2c600082610a00565b600181019050610a19565b5050565b601f821115610a7c57610a4d8161091c565b610a5684610931565b81016020851015610a65578190505b610a79610a7185610931565b830182610a18565b50505b505050565b600082821c905092915050565b6000610a9f60001984600802610a81565b1980831691505092915050565b6000610ab88383610a8e565b9150826002028217905092915050565b610ad182610696565b67ffffffffffffffff811115610aea57610ae9610360565b5b610af482546108eb565b610aff828285610a3b565b600060209050601f831160018114610b325760008415610b20578287015190505b610b2a8582610aac565b865550610b92565b601f198416610b408661091c565b60005b82811015610b6857848901518255600182019150602085019450602081019050610b43565b86831015610b855784890151610b81601f891682610a8e565b8355505b6001600288020188555050505b505050505050565b610ba381610307565b82525050565b600060a082019050610bbe6000830188610b9a565b610bcb6020830187610b9a565b8181036040830152610bdd81866106dc565b90508181036060830152610bf181856106dc565b90508181036080830152610c0581846106dc565b9050969550505050505056fea2646970667358221220b00e6dbc0f846647d5c8347917598826b5549068ec36a1f5634444ab2a5405e464736f6c634300081c0033",
  "linkReferences": {},
  "deployedLinkReferences": {}
}